:100000000C94ED000C941E010C941E010C941E0126
:100010000C941E010C941E010C941E010C941E01E4
:100020000C941E010C941E010C9403100C94950E5C
:100030000C941E010C941E010C941E010C941E01C4
:100040000C941E010C941E010C941E010C941E01B4
:100050000C941E010C941E010C941E010C94790842
:100060000C941E010C941E010C941E010C941E0194
:100070000C941E010C941E010C941E010C941E0184
:100080000C941E010C941E010C941E010C941E0174
:100090000C944C070C941E010C941E010C941E0130
:1000A0000C941E010C941E010C941E01AD09B009A4
:1000B0009F09A309A909D109D109D109B409B8092E
:1000C000BC09C209C609D109CC090706050401000B
:1000D000080A0B0C0D090000000200090F000003C4
:1000E0000401000C000000000000000000000000FF
:1000F0000000000000040802011040804010204071
:10010000804080080204018040201002011080100D
:1001100020404020040404040403040502020202F7
:100120000403020202020606060606060404020290
:1001300002040400000000250028002B002E0031DE
:100140000000000000240027002A002D00300008D5
:100150000B0002020201000904000001020200007B
:1001600005240010010524010101042402060524D0
:100170000600010705810310004009040100020A7E
:10018000000000070502024000000705830240004E
:100190000012010002EF02014041233780000101FB
:1001A00002030112010002000000404123378000D9
:1001B000010102030141726475696E6F204C4C436A
:1001C0000041726475696E6F204D6963726F00043F
:1001D0000309040009056206280B11241FBECFEF96
:1001E000DAE0DEBFCDBF14BE88E10FB6F89480938D
:1001F0006000109260000FBE13E0A0E0B1E0EAEEF4
:10020000F2E202C005900D92A435B107D9F724E0BF
:10021000A4E5B3E001C01D92AE38B207E1F711E0EA
:10022000CAEDD1E004C02297FE010E946F11C43DC7
:10023000D107C9F70E949C100C9473110C94000014
:1002400061E08DE00E94D20961E089E00E94D2095C
:1002500061E080E00E94D20961E081E00E94D20961
:1002600061E084E00E94D20961E085E10E94D20948
:1002700061E086E00E94D20961E088E00E94D20934
:1002800061E08AE00E94D20961E08CE00E94D2091C
:1002900060E085E00E94D20960E087E00E94D20918
:1002A00060E086E10E94D20960E08BE00E94D20902
:1002B00060E087E10C94D20960E080E00E940B0AC4
:1002C00061E084E00E940B0A62E070E080E090E070
:1002D0000E94E60861E080E00E940B0A62E070E0A4
:1002E00080E090E00E94E60860E080E00E940B0A57
:1002F00062E070E080E090E00C94E60861E086E067
:100300000C940B0A61E088E00C940B0A61E08AE02F
:100310000C940B0A61E08CE00C940B0A0E945C01C7
:1003200068EC70E080E090E00E94E6080E947E01A8
:1003300068EC70E080E090E00E94E6080E94820194
:1003400068EC70E080E090E00E94E6080E94860180
:1003500068EC70E080E090E00E94E6080C948A016E
:1003600060E080E00E940B0A60E084E00E940B0ADB
:1003700062E070E080E090E00E94E60861E080E0EA
:100380000E940B0A62E070E080E090E00E94E608C4
:1003900060E080E00E940B0A62E070E080E090E0A4
:1003A0000C94E6081F93CF93DF9364E573E08DE52B
:1003B00093E00E940D0566E171E087E294E00E94FF
:1003C0005B0BC4E5D3E010E0699140E150E087E2C7
:1003D00094E00E944A0C173031F06FE471E087E23C
:1003E00094E00E945B0B1F5F183071F767E473E0C5
:1003F00087E294E0DF91CF911F910C94680B60E04D
:1004000086E00C940B0A60E088E00C940B0A60E034
:100410008AE00C940B0A60E08CE00C940B0A0E94BA
:10042000B00168EC70E080E090E00E94E6080E9475
:10043000FF0168EC70E080E090E00E94E6080E9416
:10044000030268EC70E080E090E00E94E6080E9401
:10045000070268EC70E080E090E00E94E6080C94EF
:100460000B0268EE73E080E090E00E94E6080E94D4
:1004700020010E940F0268EE73E080E090E00E948D
:10048000E60840E052EC61E070E087E294E00E9410
:10049000220B8EE593E00E94CF0568EE73E080E0CA
:1004A00090E00E94E60841E061E08CE593E00C9466
:1004B000950469E271E087E294E00E945B0B82E1BF
:1004C0000E9464094AE050E0BC0187E294E00E9487
:1004D0001D0C6CE287E294E00E945D0B40E060E05E
:1004E0008CE593E00E94C0048CE593E00E94DF0459
:1004F000BC0185E0769567958A95E1F74AE050E082
:1005000087E294E00E94510C6CE287E294E00E9442
:100510005D0B40E061E08CE593E00E94C0048CE557
:1005200093E00E94DF04BC0195E0769567959A956B
:10053000E1F74AE050E087E294E00E94510C6CE25F
:1005400087E294E00E945D0B40E062E08CE593E07E
:100550000E94C0048CE593E00E94DF04BC0125E00A
:10056000769567952A95E1F74AE050E087E294E0B6
:100570000E94510C6CE287E294E00E945D0B40E027
:1005800063E08CE593E00E94C0048CE593E00E9458
:10059000DF04BC0135E0769567953A95E1F74AE0CE
:1005A00050E087E294E00C94570C0F931F93CF9385
:1005B000DF938C01B8018EE593E00E94E305E091A2
:1005C0005E03F0915F030190F081E02D60E08EE525
:1005D00093E0099560E08EE593E00E94E50543E035
:1005E00050E0B8018EE593E00E945C068EE593E052
:1005F0000E943805892B39F464EF71E080E090E0C7
:100600000E94E608D7CF8EE593E00E9440058EE574
:1006100093E00E944005082F8EE593E00E9440057C
:10062000182F61E08EE593E00E94E5050170D02F60
:1006300080E0C82FC12B44E0CC0FDD1F4A95E1F7C5
:10064000CE01DF91CF911F910F9108956CE371E07E
:1006500087E294E00E945B0B80E690E00E94D50266
:100660004AE050E0BC0187E294E00E941D0C6BE37D
:1006700087E294E00E945D0B65E070E080E090E02E
:100680000E94E60882E690E00E94D5024AE050E02F
:10069000BC0187E294E00E941D0C6CE287E294E0CA
:1006A0000E945D0B65E070E080E090E00E94E6084B
:1006B00088E690E00E94D5024AE050E0BC0187E263
:1006C00094E00E941D0C6CE287E294E00E945D0BB6
:1006D00065E070E080E090E00E94E6088AE690E045
:1006E0000E94D5024AE050E0BC0187E294E00E94FB
:1006F0001D0C6CE287E294E00E945D0B65E070E007
:1007000080E090E00E94E60883E690E00E94D50237
:100710004AE050E0BC0187E294E00E941D0C6CE2CC
:1007200087E294E00E945D0B65E070E080E090E07D
:100730000E94E6088BE690E00E94D5024AE050E075
:10074000BC0187E294E00C94250C61E571E087E23E
:1007500094E00E94680B0E9426036FEB71E087E231
:1007600094E00E945B0B0E945C0160ED77E080E00A
:1007700090E00E94E60868EC71E087E294E00E9455
:100780005B0B0E947E0160ED77E080E090E00E94CC
:10079000E60861ED71E087E294E00E945B0B0E9445
:1007A000820160ED77E080E090E00E94E6086AED6B
:1007B00071E087E294E00E945B0B0E94860160ED8D
:1007C00077E080E090E00E94E60863EE71E087E267
:1007D00094E00E94680B0E948A0160ED77E080E05F
:1007E00090E00E94E6080E94260360ED77E080E03A
:1007F00090E00E94E6086BEE71E087E294E00E94D0
:10080000680B0E940F0268EE73E080E090E00E94A7
:10081000E6080E94260368EE73E080E090E00C9406
:10082000E6086CE372E087E294E00E94680B0E94A5
:10083000D20167E473E087E294E00E94680B609164
:10084000000170910101CB01019690930101809309
:1008500000014AE050E087E294E00E941D0C6FE640
:1008600072E087E294E00E945B0B0E94A50367E4BC
:1008700073E087E294E00E94680B60910001709140
:100880000101CB01019690930101809300014AE0A0
:1008900050E087E294E00E941D0C6FE672E087E270
:1008A00094E00E945B0B62E772E087E294E00E94B2
:1008B000680B60ED77E080E090E00E94E60861EB75
:1008C00072E087E294E00E94680B0E948E0167E468
:1008D00073E087E294E00E94680B68EB7BE080E0C5
:1008E00090E00E94E6080E94590267E473E087E204
:1008F00094E00E94680B0E94260367E173E087E2A0
:1009000094E00E94680B67E473E087E294E00E9441
:10091000680B60E177E280E090E0E3CFDC01ED91ED
:10092000FC910190F081E02D0994FC01611103C05C
:10093000411107C004C0623061F44230C1F488E65E
:100940001DC0423011F489E619C04130C1F48AE675
:1009500015C06130A1F4411102C08CE60FC04230D5
:1009600011F48DE60BC0413051F48EE607C0411101
:1009700002C08BE603C0413011F48FE680830895F6
:10098000CF93DF931F92CDB7DEB7486850E2659FE3
:1009900090011124422BFC0160818EE593E0498394
:1009A0000E94D9054981642F8EE593E00E9490054D
:1009B0008EE593E00F90DF91CF910C945F060F933B
:1009C0001F93CF93DF938C0160E570E080E090E0AF
:1009D0000E94E60843E0F80160818EE593E00E9402
:1009E00059068EE593E00E944005082F8EE593E0BE
:1009F0000E944005182F8EE593E00E944005D02FFD
:100A0000F0E0CF2FCE01812BDF91CF911F910F917D
:100A100008958EE593E00C94CF050F931F93CF9329
:100A2000DF938B0167E570E08EE593E00E94E305BC
:100A300060EF70E08EE593E00E948E048EE593E017
:100A40000E945F0648E050E067E570E08EE593E0C5
:100A50000E945C06E80118E08EE593E00E944005E4
:100A600089931150C9F7DF91CF911F910F9108958C
:100A700080918E0390E020918F03821B910908954D
:100A800020918F0380918E03281750F4E22FF0E01D
:100A9000E057FC4F808190E02F5F20938F030895F3
:100AA0008FEF9FEF0895E0918F0380918E03E817F9
:100AB00030F4F0E0E057FC4F808190E008958FEF34
:100AC0009FEF08950895CF92DF92EF92FF920F93D8
:100AD0001F93CF93DF937C01CB018A0120916A039E
:100AE000222389F0EB016B01C40ED51ECC15DD0568
:100AF00069F06991D701ED91FC910190F081E02DB1
:100B0000C7010995F3CF642F0E942307C801DF9125
:100B1000CF911F910F91FF90EF90DF90CF900895AC
:100B2000CF93DF931F92CDB7DEB7698320916A031D
:100B30002223D1F020916B03203240F021E030E0FD
:100B4000FC013383228380E090E015C080916C0328
:100B5000E82FF0E0E359FC4F998190838F5F8093F9
:100B60006C0380936B0305C061E0CE0101960E9487
:100B7000230781E090E00F90DF91CF910895FC0171
:100B80001382128248EE53E060E070E044835583A4
:100B90006683778389E293E091838083089510923E
:100BA0008F0310928E0310926C0310926B030C94BF
:100BB000660681E080936A0360938D0310926C0354
:100BC00010926B0308950C94D9050F93062F21E022
:100BD00040916B036DE673E080918D030E94CC061B
:100BE00010926C0310926B0310926A030F91089598
:100BF0008F929F92AF92BF92CF92DF92EF92FF922D
:100C00000F931F93CF93DF93EC01F62ED42E480160
:100C10005901EE2019F10E94D9051E2D143008F05B
:100C200013E01150B8F0E881F98128E0129FB0017B
:100C30001124A501940104C0569547953795279531
:100C40006A95D2F7CA01B9010190F081E02DCE0179
:100C50000995E7CF60E0CE010E94E5054D2D4132B8
:100C600008F040E22C2D60E973E08F2D0E9484068D
:100C700010928F0380938E03DF91CF911F910F917C
:100C8000FF90EF90DF90CF90BF90AF909F908F90AC
:100C90000895CF92EF920F931F93C22EE12C00E0A4
:100CA00010E098010E94F8051F910F91EF90CF90EE
:100CB000089521E00C94490621E00C94490661E076
:100CC0000C94E5058EE593E00C94BF0510921D048D
:100CD00081E080931B0410921A0461E082E00E947C
:100CE0000B0A61E083E00E940B0AE9EBF0E08081EF
:100CF0008E7F808380818D7F808388E48093B8009D
:100D000085E48093BC000895413208F043C090917F
:100D10001D049111FCCF91E090931D0420931B04BE
:100D20002FEF2093B0031092F503240F2093F403C8
:100D300090931C0490911C04880F892B80931C04B1
:100D400080911A04813061F410921A0480911C047D
:100D50008093BB008091BC0083FDF8CF85EC01C07F
:100D600085EE8093BC0080911D048130E1F3809179
:100D7000F503841710F44091F50326EF33E0FB01EF
:100D8000D9018A2F821B841718F48D918193F9CF92
:100D9000842F089580E008950F93413208F04AC0EF
:100DA00090911D049111FCCF92E090931D0400934B
:100DB0001B049FEF9093B0031092F5034093F4034C
:100DC000FB0166EF73E0DB019A2F961B941718F472
:100DD00091919D93F9CF10921C0490911C04880F5F
:100DE000892B80931C0480911A04813061F4109245
:100DF0001A0480911C048093BB008091BC0083FD89
:100E0000F8CF85EC01C085EE8093BC00222321F051
:100E100080911D048230E1F38091B0038F3F61F037
:100E20008091B003803251F08091B003803341F45F
:100E300083E007C081E005C080E003C082E001C01C
:100E400084E00F910895613298F420911D042430BC
:100E500089F46093D203FC0184ED93E0DC012A2F36
:100E6000281B261718F421912D93F9CF80E00895BF
:100E700081E0089582E0089585ED8093BC00809123
:100E8000BC0084FDFCCF10921D04089585EC809376
:100E9000BC0010921D0408951F920F920FB60F927E
:100EA00011242F933F934F935F936F937F938F936F
:100EB0009F93AF93BF93EF93FF938091B900887F87
:100EC000803609F49EC078F5883209F45DC090F44C
:100ED000803109F456C038F4882309F4F5C088300D
:100EE00009F44FC0F5C0883109F44EC0803209F4CE
:100EF0005FC0EEC0803409F46AC058F4803309F44E
:100F000057C0883309F0E4C08093B0030E944607BD
:100F1000DFC0803509F44FC0883509F45DC08834DE
:100F200009F0D6C0D3C0883909F4C4C0A8F4883702
:100F300009F467C038F4883609F463C0803709F4CF
:100F400060C0C6C0883809F4B5C0803909F45FC0F4
:100F5000803809F0BDC05BC0803B09F483C038F421
:100F6000803A09F466C0883A09F47CC0B1C0803C7C
:100F700009F4A4C0883C09F4A1C0883B09F487C0E7
:100F8000A7C080911C0410C09091F5038091F403D8
:100F9000981770F5E091F50381E08E0F8093F503CB
:100FA000F0E0EA50FC4F80818093BB0085EC83C069
:100FB0008093B0038BC0E091F50381E08E0F8093A6
:100FC000F5038091BB00F0E0EA50FC4F80839091E4
:100FD000F5038091F4036BC0E091F50381E08E0F7F
:100FE0008093F5038091BB00F0E0EA50FC4F8083D2
:100FF00080911B0481116AC081E080931A0484EA05
:101000005EC083E080931D041092B103CFCF809126
:10101000B103803208F04EC0E091B10381E08E0F41
:101020008093B1038091BB00F0E0EE54FC4F8083CD
:10103000BDCF0E9446078091B103803230F4E09129
:10104000B103F0E0EE54FC4F10826091B10370E008
:10105000E0911604F091170482EB93E00995109249
:10106000B10336C084E080931D041092D303109224
:10107000D203E0911804F091190409958091D203EC
:10108000811105C081E08093D2031092D403E091D6
:10109000D30381E08E0F8093D303F0E0EC52FC4F3A
:1010A00080818093BB009091D3038091D2039817E5
:1010B00008F47CCF85E88093BC000AC085EC80935F
:1010C000BC0010921D0404C01092B0030E943C07A3
:1010D000FF91EF91BF91AF919F918F917F916F9110
:1010E0005F914F913F912F910F900FBE0F901F90E6
:1010F00018951F920F920FB60F9211242F933F93C2
:101100008F939F93AF93BF9380911F04909120047E
:10111000A0912104B091220430911E0423E0230FFA
:101120002D3720F40196A11DB11D05C026E8230F1F
:101130000296A11DB11D20931E0480931F0490935D
:101140002004A0932104B093220480912304909161
:101150002404A0912504B09126040196A11DB11D7F
:101160008093230490932404A0932504B093260431
:10117000BF91AF919F918F913F912F910F900FBE93
:101180000F901F9018953FB7F89480912304909189
:101190002404A0912504B091260426B5A89B05C07F
:1011A0002F3F19F00196A11DB11D3FBF6627782F73
:1011B000892F9A2F620F711D811D911D42E0660FCC
:1011C000771F881F991F4A95D1F70895CF92DF9214
:1011D000EF92FF92CF93DF936B017C010E94C308D3
:1011E000EB01C114D104E104F10489F00E94AF10B5
:1011F0000E94C3086C1B7D0B683E734090F381E036
:10120000C81AD108E108F108C851DC4FEACFDF91D4
:10121000CF91FF90EF90DF90CF900895789484B5B0
:10122000826084BD84B5816084BD85B5826085BDE2
:1012300085B5816085BDEEE6F0E0808181608083C8
:10124000E1E8F0E0108280818260808380818160AB
:101250008083E0E8F0E0808181608083E1E9F0E074
:10126000808182608083808181608083E0E9F0E01A
:10127000808181608083E1ECF0E080818460808304
:10128000808182608083808181608083E3ECF0E0F4
:10129000808181608083E0ECF0E0808182608083E7
:1012A000E2ECF0E0808181608083EAE7F0E0808119
:1012B000846080838081826080838081816080837C
:1012C0008081806880830895823108F08251E82F00
:1012D000F0E0E653FF4FE49180917B00E3FB22278F
:1012E00020F930E095E0220F331F9A95E1F78F7DCA
:1012F000822B80937B00E7708091020120E4829F23
:10130000C0011124E82BE0937C0080917A00806476
:1013100080937A0080917A0086FDFCCF80917800DE
:101320002091790090E0922B089590E0FC01319794
:10133000EF30F105B0F5EA5AFF4F0C946D11809132
:1013400080008F7703C0809180008F7D8093800024
:10135000089580918000877FF9CF84B58F7702C090
:1013600084B58F7D84BD0895809190008F7707C0EC
:10137000809190008F7D03C080919000877F809343
:10138000900008958091C0008F7703C08091C000C5
:101390008F7D8093C00008958091C200877F8093E5
:1013A000C2000895CF93DF9390E0FC01EB50FF4F14
:1013B0002491FC01EC5EFE4F8491882349F190E07A
:1013C000880F991FFC01EF5BFE4FA591B4918D5CD6
:1013D0009E4FFC01C591D4919FB7611108C0F8944C
:1013E0008C91209582238C93888182230AC062305D
:1013F00051F4F8948C91322F309583238C9388810B
:10140000822B888304C0F8948C91822B8C939FBF8D
:10141000DF91CF9108950F931F93CF93DF931F9286
:10142000CDB7DEB7282F30E0F901EA52FF4F8491A3
:10143000F901EB50FF4F1491F901EC5EFE4F04915E
:101440000023C9F0882321F069830E9495096981EE
:10145000E02FF0E0EE0FFF1FED5CFE4FA591B49181
:101460009FB7F8948C91611103C01095812301C03E
:10147000812B8C939FBF0F90DF91CF911F910F9184
:101480000895CF93DF931F92CDB7DEB76983DC0158
:10149000ED91FC910280F381E02D41E050E0BE012E
:1014A0006F5F7F4F09950F90DF91CF910895CF9394
:1014B000DF93EC018C859D8597FF05C082E00E943B
:1014C0007E0D9D878C878C859D85DF91CF910895BA
:1014D00083E00C94F90FFC018485958597FD06C087
:1014E00082E00E94260D90E00196089582E00E941D
:1014F000260D90E00895FC018485958597FD05C033
:101500002FEF3FEF35872487089582E00C947E0DFE
:10151000CF93DF93EC0180910E01882331F083E0BB
:101520000E94AF0D1816190634F081E090E09B83FD
:101530008A8380E090E0DF91CF910895FC012081C3
:101540002E5F208342E450E06FE471E080E80C9469
:101550004A0EFC0121818081813A59F4213209F03F
:101560005CC047E050E067E071E080E00E944A0E16
:1015700067C0813209F051C0233289F4838190E041
:10158000982F88273281832BA0E0B0E0809303015D
:1015900090930401A0930501B09306010FC020327F
:1015A00039F467E070E087E091E00E947B0E0AC0AA
:1015B000223221F4828180930E0104C02D7F2032DB
:1015C00009F03EC08091070190910801A0910901A6
:1015D000B0910A01803B9440A105B10501F58091CD
:1015E0000E0180FD1CC0809100089091010890932D
:1015F000FF0A8093FE0A87E797E79093010880939C
:1016000000082BE088E190E00FB6F894A89580934D
:1016100060000FBE2093600013C080E0089588E151
:101620000FB6F89480936000109260000FBEA895EA
:101630008091FE0A9091FF0A909301088093000820
:1016400081E008952FEF3FEFFC013587248708954F
:1016500010922A041092290488EE93E0A0E0B0E0F2
:1016600080932B0490932C04A0932D04B0932E040C
:1016700089E393E090932804809327048FEF9FEFF2
:10168000909334048093330408956115710581F0BB
:10169000DB010D900020E9F7AD0141505109461BD7
:1016A000570BDC01ED91FC910280F381E02D099450
:1016B00080E090E008950C94450BDC01ED91FC91E5
:1016C0000190F081E02D099465E473E00C94450BE2
:1016D0000F931F93CF93DF93EC010E94450B8C0176
:1016E000CE010E94640B800F911FDF91CF911F915B
:1016F0000F9108958F929F92AF92BF92CF92DF92F7
:10170000EF92FF920F931F93CF93DF93CDB7DEB786
:10171000A1970FB6F894DEBF0FBECDBF7C01C42EDB
:10172000E52FCB01D22E19A221E02D1510F02AE0D1
:10173000D22E8E010F5D1F4F8D2C912CA12CB12C20
:101740006C2D7E2FA50194010E944B118C2DD29EF1
:1017500080191124015011098A3014F4805D01C0F0
:10176000895CF8018083211531054105510521F07F
:10177000C22EE32FCA01E4CFB801C7010E94450B76
:10178000A1960FB6F894DEBF0FBECDBFDF91CF910B
:101790001F910F91FF90EF90DF90CF90BF90AF908F
:1017A0009F908F900895CF92DF92EF92FF920F93C8
:1017B0001F93CF93DF93EC016A017B012115310563
:1017C00079F4E881F9810190F081E02D642FDF91B7
:1017D000CF911F910F91FF90EF90DF90CF900994E0
:1017E0002A303105E9F477FF1AC06DE20E945D0BE3
:1017F0008C0144275527BA014C195D096E097F09F0
:101800002AE0CE010E947A0B800F911FDF91CF91C9
:101810001F910F91FF90EF90DF90CF9008952AE0F5
:10182000B701A601CE01DF91CF911F910F91FF90DB
:10183000EF90DF90CF900C947A0B9A01AB01662762
:1018400057FD6095762F0C94D30B0F931F93CF9376
:10185000DF93EC019A01AB01662757FD6095762F67
:101860000E94D30B8C01CE010E94640B800F911F4C
:10187000DF91CF911F910F9108952115310541F40A
:10188000DC01ED91FC910190F081E02D642F099431
:101890000C947A0B9A01462F50E060E070E00C94B3
:1018A0003D0C9A01AB0160E070E00C943D0C0F938D
:1018B0001F93CF93DF93EC019A01AB0160E070E0DE
:1018C0000E943D0C8C01CE010E94640B800F911F81
:1018D000DF91CF911F910F910895615030F02091C9
:1018E000F100FC0120830196F8CF289A84E68093CA
:1018F0008004089540917B0450917C0420917904E8
:1019000030917A0442175307B4F49091E80095702F
:10191000E1F39091E80092FD19C08093F10080916D
:101920007B0490917C0401968F739927892B19F47D
:101930008EEF8093E80080917B0490917C04019667
:1019400090937C0480937B0481E0089580E0089567
:10195000CF92DF92EF92FF920F931F93CF93DF937B
:101960001F92CDB7DEB7082F162FF42E862F880FC3
:101970008E5F99830E947A0C83E00E947A0CE02E9D
:10198000C02E9981D92E8C2D8E19811798F4F601CD
:10199000F7FE02C0849101C080810E947A0C082F5A
:1019A00080E00E947A0C8023FFEFCF1ADF0A8111BA
:1019B000EACF01C081E00F90DF91CF911F910F918D
:1019C000FF90EF90DF90CF9008958091D7008160D5
:1019D0008093D70080EA8093D80089B5806189BD63
:1019E00089B5826089BD09B400FEFDCF61E070E079
:1019F00080E090E00E94E6088091D8008F7C8061B2
:101A00008093D8008091E000807F8093E00008956B
:101A1000CF93DF931F92CDB7DEB71982CE01019627
:101A20000E949E0A0E943711BE016F5F7F4F0E9485
:101A3000B01089810F90DF91CF9108952FB7FC01ED
:101A40002083F89467706093E9000895CF93DF9343
:101A50001F92CDB7DEB7682FCE0101960E941E0DF2
:101A60008091F20099819FBF0F90DF91CF910895EF
:101A7000FF920F931F93CF93DF9300D0CDB7DEB7C4
:101A8000F62E8A0190917F04992311F057FF03C02D
:101A90008FEF9FEF2BC0682FCE0101967A830E94B3
:101AA0001E0D8091F20090E0A8017A8180179107C5
:101AB0000CF4AC01EF2DF72FF40E84E6FE1639F08E
:101AC000289A809380049091F1009193F7CF41156B
:101AD000510521F08091F200882321F089818FBF88
:101AE000CA0104C08BE68093E800F8CF0F900F90F6
:101AF000DF91CF911F910F91FF900895CF93DF93C6
:101B00001F92CDB7DEB741E050E0BE016F5F7F4F5F
:101B10000E94380D019719F4898190E002C08FEF7F
:101B20009FEF0F90DF91CF910895CF93DF931F9296
:101B3000CDB7DEB7682FCE0101960E941E0D9091A1
:101B4000E800892F807295FF04C09091F20080E434
:101B5000891B99819FBF0F90DF91CF9108956F925C
:101B60007F928F929F92AF92BF92CF92DF92EF922D
:101B7000FF920F931F93CF93DF931F92CDB7DEB7E2
:101B8000782E7B01C42EB52E80917F04882369F0C6
:101B9000042F152F8AEFD82E872D8072982E9AE366
:101BA000A92E872D8074882E11C08FEF9FEF57C00C
:101BB000872D0E94950D682E81110CC0DA94A9F32F
:101BC00061E070E080E090E00E94E60801151105F8
:101BD00079F73BC0282F30E0021713070CF4602E72
:101BE000672DCE0101960E941E0D8091E80085FFB1
:101BF00029C0262D30E0021B130B992039F06A947E
:101C00008FEF6816B1F01092F100F9CFF701862D31
:101C100077FE07C0815058F094919093F10031966F
:101C2000F9CF815020F091919093F100FACFE20E1C
:101C3000F31E8091E80085FF0FC00115110511F416
:101C400081100AC089818FBFC1CF5D9A84E68093DD
:101C500081048C2D9B2D03C0A092E800F3CF0F9040
:101C6000DF91CF911F910F91FF90EF90DF90CF9078
:101C7000BF90AF909F908F907F906F90089510923B
:101C8000E90010927C0410927B0490937A04809374
:101C900079040895CF92DF92FF920F931F93CF9311
:101CA000DF9300D0CDB7DEB7F82E8A016B010115A6
:101CB0001105B1F0F601F7FE02C0849101C08081E8
:101CC00049835A830E947A0C01501109FFEFCF1A01
:101CD000DF0A49815A818111EACF8FEF9FEF01C05E
:101CE000CA010F900F90DF91CF911F910F91FF903C
:101CF000DF90CF9008951F93CF93DF931F92CDB7BE
:101D0000DEB7162F2091E80022FFFCCF612F7983E8
:101D10000E946D0C8BEF8093E800812F7981972FC3
:101D20000F90DF91CF911F9108951F920F920FB6E0
:101D30000F921124DF92EF92FF920F931F932F9334
:101D40003F934F935F936F937F938F939F93AF9343
:101D5000BF93EF93FF93CF93DF93CDB7DEB76C972D
:101D6000DEBFCDBF1092E9008091E80083FF23C160
:101D700068E0CE0145960E946D0C82EF8093E800EA
:101D80003D8937FF05C08091E80080FFFCCF03C08C
:101D90008EEF8093E800832F807609F0F0C02E89C3
:101DA0004F89D88C21110CC0303829F480917E04E1
:101DB0008093F10002C01092F1001092F100F4C083
:101DC000842F90E09D29213049F43111EDC0019715
:101DD00009F0EAC080917E048D7F0AC0233059F457
:101DE0003111E2C0019709F0DFC080917E0482606A
:101DF00080937E04D9C0253041F48091E80080FFB3
:101E0000FCCF40684093E300CFC0263009F08DC07E
:101E1000EB8CFC8C22E0D2122CC080E090E00E947F
:101E20003F0E0E94080D99E08E010F5F1F4FF801D1
:101E3000292F11922A95E9F79983DA8291E09E83FE
:101E400090EA98879AEF998720917B0430917C04DF
:101E5000275F3F4F3C832B838D83C7010E943F0E3A
:101E600049E050E0B80180E00E944A0E0E94080D4F
:101E70009BC0C7010E943F0E0E943711BE016B5EDE
:101E80007F4F0E94D910009719F00CF08DC090C0C0
:101E900081E0D8120EC08B8D9C8D089719F481E0DB
:101EA000809378048091780481112FC063EA71E0F7
:101EB00031C0E3E0DE127CC08F89882349F1823093
:101EC00029F440E86DE081EC91E01CC0813029F4F8
:101ED00040E86BE085EB91E015C0833009F068C005
:101EE0000E9437118E010F5F1F4FB8010E94F8103A
:101EF000F80101900020E9F73197E01BF10B40E079
:101F00006E2FC8010E94A80C4DC061E971E002C0AB
:101F10006FEC71E06115710509F44AC0FB01449151
:101F200050E080E80E944A0E3FC0273009F440C0CC
:101F3000283021F481E08093F10036C02930A1F5EA
:101F40003370B1F5E0E1F1E081E021E036E390812A
:101F5000992361F08093E9002093EB009191909395
:101F6000EC003093ED008F5F873089F78EE7809328
:101F7000EA001092EA008F8980937F0415C08B8D50
:101F80009C8D0E943F0E898D811105C0CE01459622
:101F90000E94A90A07C00E943711BE016B5E7F4FE5
:101FA0000E941711882321F08EEF8093E80003C070
:101FB00081E28093EB006C960FB6F894DEBF0FBE03
:101FC000CDBFDF91CF91FF91EF91BF91AF919F91E5
:101FD0008F917F916F915F914F913F912F911F91C1
:101FE0000F91FF90EF90DF900F900FBE0F901F901A
:101FF00018958093E9008091F200882319F08AE314
:102000008093E80008951F920F920FB60F9211244B
:102010002F933F934F935F936F937F938F939F93F0
:10202000AF93BF93CF93EF93FF93C091E100809163
:10203000E100837F8093E1008093E100C3FF0FC044
:102040001092E90081E08093EB001092EC0082E3B3
:102050008093ED0010927F0488E08093F000C2FF2F
:1020600019C083E00E94F90F80918104882339F020
:1020700080918104815080938104882389F180912B
:102080008004882339F080918004815080938004FB
:10209000882341F1C4FF10C08091E2008E7E8160F0
:1020A0008093E2008091E1008F7E8093E100809137
:1020B0007D048E7E806111C0C0FF16C08091E20059
:1020C0008E7E80618093E2008091E1008E7E80931D
:1020D000E10080917D048E7E816080937D0404C048
:1020E0005D98CDCF2898D6CFFF91EF91CF91BF913A
:1020F000AF919F918F917F916F915F914F913F91A0
:102100002F910F900FBE0F901F90189510927F0483
:1021100010927E0410927D040E94E50CE1EEF0E046
:1021200080818E7E80838DE08093E200559A209A94
:102130005D982898089508950E940E090E949B10AA
:1021400087E794E00E9486100E943102C0E0D0E050
:102150000E9411042097E1F30E940000F9CF089536
:10216000EF92FF920F931F93CF93DF937B01FC01BC
:10217000C281D38100E010E0209781F0E881F981ED
:102180000280F381E02DB701CE01099597FD08C0CB
:10219000080F191F0884D985C02DEECFC80102C0D1
:1021A0008FEF9FEFDF91CF911F910F91FF90EF90F5
:1021B00008950F931F93CF93DF938B01FC01C2818E
:1021C000D381209771F0E881F9810480F581E02DB9
:1021D000B801CE010995009731F40884D985C02D46
:1021E000F0CF80E090E0DF91CF911F910F910895A3
:1021F0000F931F93CF93DF938B01FC01C281D38197
:10220000209771F0E881F9810680F781E02DB8010F
:10221000CE010995080F111D0884D985C02DF0CF76
:10222000F8011082DF91CF911F910F9108950F93C4
:102230001F93CF93DF938B01FC01C281D381209741
:1022400071F0E881F9810190F081E02DB801CE01B3
:102250000995811106C00884D985C02DF0CF80E092
:1022600001C081E0DF91CF911F910F91089580917E
:10227000860481110DC082E08093820484E0809303
:102280008304109285041092840481E08093860474
:1022900082E894E00895A1E21A2EAA1BBB1BFD015F
:1022A0000DC0AA1FBB1FEE1FFF1FA217B307E40735
:1022B000F50720F0A21BB30BE40BF50B661F771F8D
:1022C000881F991F1A9469F760957095809590956D
:1022D0009B01AC01BD01CF010895EE0FFF1F0590DA
:0A22E000F491E02D0994F894FFCF6B
:1022EA00010001FFFFFFFF00E10000000000000005
:1022FA00C18081000000556E6971756520426F6169
:10230A00726420494420232000546865726D697301
:10231A00746F722056616C7565733A0043757272F8
:10232A00656E7420636F6E73756D7074696F6E3A43
:10233A000057652077696C6C20706F776572204F43
:10234A004E20616C6C20706F727473206F6E652002
:10235A006279206F6E652E20596F752073686F75CC
:10236A006C642068656172203520736570657261DE
:10237A00746520636C69636B732C20616E642073CF
:10238A006565207468652063757272656E74207560
:10239A007361676520696E6372656173652E0043B8
:1023AA006C69636B20312000436C69636B203220B7
:1023BA0000436C69636B20332000436C69636B20B4
:1023CA00342000436C69636B203500506F77657267
:1023DA00696E67206F666620616C6C2072656C613D
:1023EA0079732E205468652063757272656E742045
:1023FA007573616765207265706F72746564206EAB
:10240A006F772073686F756C6420616C6C206265ED
:10241A0020756E646572203132302E002D2D2D2DDF
:10242A002D2D5761676D616E20506F77657220613F
:10243A006E6420546865726D616C20456E76656CB9
:10244A006F706520546573742D2D2D2D2D2D002E42
:10245A0020005761676D616E207375737461696ED0
:10246A00656420706F7765722064656C6976657241
:10247A007920616E642074656D706572617475721D
:10248A00652073656E73696E672074657374202D99
:10249A00005475726E696E67204F4E20616C6C2015
:1024AA00706F72747320616E642077696C6C20623D
:1024BA006567696E207265706F7274696E672063F2
:1024CA00757272656E7420757361676520616E64DA
:1024DA0020746865726D6973746F722076616C75A9
:1024EA006573206576657279203130207365636F74
:1024FA006E64732E2E2E002D2D2D2D2D2D2D2D2D6E
:10250A002D2D2D2D00000000009005630538054093
:10251A00055305620500000000410A880A6B0A7B20
:10252A000A570A680A0D0A006E616E00696E660033
:04253A006F76660052
:00000001FF
