:100000000C94EE000C941F010C941F010C941F0122
:100010000C941F010C941F010C941F010C941F01E0
:100020000C941F010C941F010C94A8110C943A100D
:100030000C941F010C941F010C941F010C941F01C0
:100040000C941F010C941F010C941F010C941F01B0
:100050000C941F010C941F010C941F010C94310986
:100060000C941F010C941F010C941F010C941F0190
:100070000C941F010C941F010C941F010C941F0180
:100080000C941F010C941F010C941F010C941F0170
:100090000C9404080C941F010C941F010C941F0174
:1000A0000C941F010C941F010C941F01650A680A2F
:1000B000570A5B0A610A890A890A890A6C0A700A66
:1000C000740A7A0A7E0A890A840A0706050401006E
:1000D000080A0B0C0D090000000200090F000003C4
:1000E0000401000C000000000000000000000000FF
:1000F0000000000000040802011040804010204071
:10010000804080080204018040201002011080100D
:1001100020404020040404040403040502020202F7
:100120000403020202020606060606060404020290
:1001300002040400000000250028002B002E0031DE
:100140000000000000240027002A002D00300008D5
:100150000B0002020201000904000001020200007B
:1001600005240010010524010101042402060524D0
:100170000600010705810310004009040100020A7E
:10018000000000070502024000000705830240004E
:100190000012010002EF02014041233780000101FB
:1001A00002030112010002000000404123378000D9
:1001B000010102030141726475696E6F204C4C436A
:1001C0000041726475696E6F204D6963726F00043F
:1001D000030904002504C1051A07E00B11241FBE02
:1001E000CFEFDAE0DEBFCDBF14BE88E10FB6F894E2
:1001F00080936000109260000FBE13E0A0E0B1E0B9
:10020000E2E7FAE202C005900D92AA31B107D9F7F0
:1002100024E0AAE1B3E001C01D92A136B207E1F7E4
:1002200011E0CCEDD1E004C02297FE010E9433150D
:10023000C43DD107C9F70E9441120C9437150C94A4
:10024000000061E08DE00E948A0A61E089E00E947E
:100250008A0A61E080E00E948A0A61E081E00E94EF
:100260008A0A61E084E00E948A0A61E085E10E94D6
:100270008A0A61E086E00E948A0A61E088E00E94C2
:100280008A0A61E08AE00E948A0A61E08CE00E94AA
:100290008A0A60E085E00E948A0A60E087E00E94A6
:1002A0008A0A60E086E10E948A0A60E08BE00E9490
:1002B0008A0A60E087E10C948A0A68EE73E080E0C5
:1002C00090E00E949E090E94210168EE73E080E0A8
:1002D00090E00E949E0940E052EC61E070E08AEFFD
:1002E00093E00E94DA0B81E393E00E94870668EEB8
:1002F00073E080E090E00E949E0941E061E08FE2BF
:1003000093E00E944D058EE193E00C9431048EE160
:1003100093E00E945D046093230370932403809311
:100320002503909326038EE193E00E94D504609309
:100330001F0370932003809321039093220366E1AF
:1003400071E08AEF93E00E94130C65E271E08AEF9E
:1003500093E00E94130C40911F0350912003609181
:1003600021037091220321E030E08AEF93E00E94A4
:10037000100E63E371E08AEF93E00E94130C65E3D3
:1003800071E08AEF93E00E94130C40912303509197
:100390002403609125037091260321E030E08AEF69
:1003A00093E00E94100E60E471E08AEF93E00E94F7
:1003B000200C6AE070E080E090E00C949E0962E41A
:1003C00071E08AEF93E00E94130C84E10E941C0A02
:1003D0004AE050E0BC018AEF93E00C94DD0C6CE63F
:1003E00071E08AEF93E00E94130C83E10E941C0AE3
:1003F0004AE050E0BC018AEF93E00C94DD0C1F93BF
:10040000CF93DF9367E273E080E393E00E94C5053A
:100410006BE871E08AEF93E00E94130CC7E2D3E02F
:1004200010E0699140E150E08AEF93E00E94020DF4
:10043000173031F069E871E08AEF93E00E94130C05
:100440001F5F183071F76DE073E08AEF93E0DF9182
:10045000CF911F910C94200C6EE971E08AEF93E02C
:100460000E94130C82E10E941C0A4AE050E0BC0189
:100470008AEF93E00E94D50C6CE28AEF93E00E9431
:10048000150C40E060E08FE293E00E9478058FE277
:1004900093E00E949705BC0185E0769567958A9563
:1004A000E1F74AE050E08AEF93E00E94090D6CE228
:1004B0008AEF93E00E94150C40E061E08FE293E048
:1004C0000E9478058FE293E00E949705BC0195E0B9
:1004D000769567959A95E1F74AE050E08AEF93E0C8
:1004E0000E94090D6CE28AEF93E00E94150C40E037
:1004F00062E08FE293E00E9478058FE293E00E9431
:100500009705BC0125E0769567952A95E1F74AE0C5
:1005100050E08AEF93E00E94090D6CE28AEF93E0CD
:100520000E94150C40E063E08FE293E00E947805A2
:100530008FE293E00E949705BC0135E076956795C0
:100540003A95E1F74AE050E08AEF93E00C940F0D02
:1005500061EB71E08AEF93E00E94200C0E94FF01A2
:100560006DE073E08AEF93E00E94200C609100013F
:1005700070910101CB0101969093010180930001DC
:100580004AE050E08AEF93E00E94D50C6FED71E0F5
:100590008AEF93E00E94130C0E942C026DE073E03E
:1005A0008AEF93E00E94200C60910001709101019C
:1005B000CB01019690930101809300014AE050E045
:1005C0008AEF93E00E94D50C6FED71E08AEF93E023
:1005D0000E94130C0E94DF0162EE71E08AEF93E04B
:1005E0000E94200C6DE272E08AEF93E00E94130CEF
:1005F00068E873E180E090E00E949E098BE090E063
:1006000090931D0380931C0360911C0370911D0344
:1006100016161706D4F4615071094AE050E08AEFCB
:1006200093E00E94D50C6CE971E08AEF93E00E94A0
:10063000130C6EED73E080E090E00E949E098091C3
:100640001C0390911D030197DBCF6CE073E08AEFF0
:1006500093E00E94200C64EF71E080E090E00E9443
:100660009E090E94DF016DE073E08AEF93E00E9433
:10067000200C6091000170910101CB0101969093D3
:100680000101809300014AE050E08AEF93E00E946C
:10069000D50C6FED71E08AEF93E00E94130C0E947D
:1006A000EF016EE372E08AEF93E00E94200C6DE2AE
:1006B00072E08AEF93E00E94130C68E873E180E037
:1006C00090E00E949E098BE090E090931D03809340
:1006D0001C0360911C0370911D03161617063CF550
:1006E000615071094AE050E08AEF93E00E94D50C16
:1006F0006CE971E08AEF93E00E94130C6EED73E0F9
:1007000080E090E00E949E0980911C0390911D035F
:10071000049739F483E10E941C0A90931B03809391
:100720001A0380911C0390911D030197CECF6CE0BA
:1007300073E08AEF93E00E94200C6CE671E08AEF90
:1007400093E00E94130C60911A0370911B034AE01E
:1007500050E08AEF93E00E94DD0C6DE073E08AEFD9
:1007600093E00E94200C6091000170910101CB0187
:10077000019690930101809300014AE050E08AEFD6
:1007800093E00E94D50C6FED71E08AEF93E00E9438
:10079000130C0E94870163E872E08AEF93E00E94E5
:1007A000200C6DE272E08AEF93E00E94130C68E87F
:1007B00073E180E090E00E949E098BE090E09093CE
:1007C0001D0380931C0360911C0370911D0316167A
:1007D0001706D4F4615071094AE050E08AEF93E0C3
:1007E0000E94D50C6CE971E08AEF93E00E94130C33
:1007F0006EED73E080E090E00E949E0980911C0302
:1008000090911D030197DBCF6CE073E08AEF93E0DA
:100810000E94200C64EF71E080E090E00E949E094D
:100820000E9487016CE073E08AEF93E00E94130C52
:100830006DEC72E08AEF93E00E94200C61E070E0C2
:1008400080E090E00E949E09F9CF8EE193E00C9445
:100850003004DC01ED91FC910190F081E02D0994D0
:10086000089508950F931F93CB01A0E0B0E0BA2F35
:10087000A92F982F8827842BE7E1F0E040E050E88B
:1008800068E970E08C019D010E2E04C03695279515
:10089000179507950A94D2F700FF04C0842795277F
:1008A000A627B72776956795579547953197E730EF
:1008B000F10541F71F910F910895EF92FF920F9369
:1008C0001F93CF93DF937C0160E470E081E393E0BA
:1008D0000E949B0665EF70E081E393E00E9429048B
:1008E00081E393E00E94170767E370E080E090E007
:1008F0000E949E0943E050E060E470E081E393E0F1
:100900000E94140705E610E081E393E00E94F005E1
:10091000039774F461E070E080E090E00E949E092B
:100920000150110989F760E070E889E794E436C066
:1009300081E393E00E94F805082F81E393E00E9491
:10094000F805182F81E393E00E94F805D02F90E07E
:10095000C92FC12B482FBE01C7010E94320481114B
:1009600019C0BE016C7F80E090E00E94F21320E08D
:1009700030E040E857E30E94A81420E030E04AEF5E
:1009800052E40E94A81420E030E040EC50E40E94C1
:10099000F01204C060E070EC89E794E4DF91CF913D
:1009A0001F910F91FF90EF900895EF92FF920F9398
:1009B0001F93CF93DF937C0160E470E081E393E0C9
:1009C0000E949B0663EF70E081E393E00E9429049C
:1009D00081E393E00E94170767E370E080E090E016
:1009E0000E949E0943E050E060E470E081E393E000
:1009F0000E94140705E610E081E393E00E94F005F1
:100A0000039774F461E070E080E090E00E949E093A
:100A10000150110989F760E070E889E794E436C075
:100A200081E393E00E94F805082F81E393E00E94A0
:100A3000F805182F81E393E00E94F805D02F90E08D
:100A4000C92FC12B482FBE01C7010E94320481115A
:100A500019C0BE016C7F80E090E00E94F21320E09C
:100A600030E040E857E30E94A81422E538EB4FE25B
:100A700053E40E94A81426E636E64BE352E40E94B3
:100A8000F01204C060E070EC89E794E4DF91CF914C
:100A90001F910F91FF90EF900895FC01611103C029
:100AA000411107C004C0623061F44230C1F488E6ED
:100AB0001DC0423011F489E619C04130C1F48AE604
:100AC00015C06130A1F4411102C08CE60FC0423064
:100AD00011F48DE60BC0413051F48EE607C0411190
:100AE00002C08BE603C0413011F48FE68083089585
:100AF000CF93DF931F92CDB7DEB7486850E2659F72
:100B000090011124422BFC01608181E393E0498331
:100B10000E9491064981642F81E393E00E94480678
:100B200081E393E00F90DF91CF910C9417070F931F
:100B30001F93CF93DF938C0160E570E080E090E03D
:100B40000E949E0943E0F801608181E393E00E94E6
:100B5000110781E393E00E94F805082F81E393E0F9
:100B60000E94F805182F81E393E00E94F805D02F2A
:100B7000F0E0CF2FCE01812BDF91CF911F910F910C
:100B8000089581E393E00C9487060F931F93CF930E
:100B9000DF938B0167E570E081E393E00E949B06A1
:100BA00060EF70E081E393E00E94290481E393E029
:100BB0000E94170748E050E067E570E081E393E0AA
:100BC0000E941407E80118E081E393E00E94F80511
:100BD00089931150C9F7DF91CF911F910F9108951B
:100BE0008091610390E020916203821B9109089536
:100BF0002091620380916103281750F4E22FF0E006
:100C0000ED59FC4F808190E02F5F2093620308959F
:100C10008FEF9FEF0895E091620380916103E817E1
:100C200030F4F0E0ED59FC4F808190E008958FEFB3
:100C30009FEF08950895CF92DF92EF92FF920F9366
:100C40001F93CF93DF937C01CB018A0120913D0359
:100C5000222389F0EB016B01C40ED51ECC15DD05F6
:100C600069F06991D701ED91FC910190F081E02D3F
:100C7000C7010995F3CF642F0E94DB07C801DF91FC
:100C8000CF911F910F91FF90EF90DF90CF9008953B
:100C9000CF93DF931F92CDB7DEB7698320913D03D9
:100CA0002223D1F020913E03203240F021E030E0B9
:100CB000FC013383228380E090E015C080913F03E4
:100CC000E82FF0E0E05CFC4F998190838F5F809388
:100CD0003F0380933E0305C061E0CE0101960E9470
:100CE000DB0781E090E00F90DF91CF910895FC0148
:100CF0001382128248EE53E060E070E04483558333
:100D0000668377838FEE92E09183808308951092BB
:100D100062031092610310923F0310923E030C9401
:100D20001E0781E080933D036093600310923F03B0
:100D300010923E0308950C9491060F93062F21E024
:100D400040913E0360E473E0809160030E94840759
:100D500010923F0310923E0310923D030F910895AD
:100D60008F929F92AF92BF92CF92DF92EF92FF92BB
:100D70000F931F93CF93DF93EC01F62ED42E4801EF
:100D80005901EE2019F10E9491061E2D143008F031
:100D900013E01150B8F0E881F98128E0129FB0010A
:100DA0001124A501940104C05695479537952795C0
:100DB0006A95D2F7CA01B9010190F081E02DCE0108
:100DC0000995E7CF60E0CE010E949D064D2D41328E
:100DD00008F040E22C2D63E673E08F2D0E943C0763
:100DE0001092620380936103DF91CF911F910F9165
:100DF000FF90EF90DF90CF90BF90AF909F908F903B
:100E00000895CF92EF920F931F93C22EE12C00E032
:100E100010E098010E94B0061F910F91EF90CF90C3
:100E2000089521E00C94010721E00C94010761E092
:100E30000C949D0681E393E00C9477061092F003E6
:100E400081E08093EE031092ED0361E082E00E9466
:100E5000C30A61E083E00E94C30AE9EBF0E080810D
:100E60008E7F808380818D7F808388E48093B8002B
:100E700085E48093BC000895413208F043C090910E
:100E8000F0039111FCCF91E09093F0032093EE03D7
:100E90002FEF209383031092C803240F2093C703DE
:100EA0009093EF039091EF03880F892B8093EF03CA
:100EB0008091ED03813061F41092ED038091EF0396
:100EC0008093BB008091BC0083FDF8CF85EC01C00E
:100ED00085EE8093BC008091F0038130E1F3809136
:100EE000C803841710F44091C80329EC33E0FB01D8
:100EF000D9018A2F821B841718F48D918193F9CF21
:100F0000842F089580E008950F93413208F04AC07D
:100F10009091F0039111FCCF92E09093F003009335
:100F2000EE039FEF909383031092C8034093C7038F
:100F3000FB0169EC73E0DB019A2F961B941718F400
:100F400091919D93F9CF1092EF039091EF03880F49
:100F5000892B8093EF038091ED03813061F410922F
:100F6000ED038091EF038093BB008091BC0083FD73
:100F7000F8CF85EC01C085EE8093BC00222321F0E0
:100F80008091F0038230E1F3809183038F3F61F021
:100F900080918303803251F080918303803341F448
:100FA00083E007C081E005C080E003C082E001C0AB
:100FB00084E00F910895613298F42091F003243079
:100FC00089F46093A503FC0187EA93E0DC012A2FF2
:100FD000281B261718F421912D93F9CF80E008954E
:100FE00081E0089582E0089585ED8093BC008091B2
:100FF000BC0084FDFCCF1092F003089585EC809333
:10100000BC001092F00308951F920F920FB60F923A
:1010100011242F933F934F935F936F937F938F93FD
:101020009F93AF93BF93EF93FF938091B900887F15
:10103000803609F49EC078F5883209F45DC090F4DA
:10104000803109F456C038F4882309F4F5C088309B
:1010500009F44FC0F5C0883109F44EC0803209F45C
:101060005FC0EEC0803409F46AC058F4803309F4DC
:1010700057C0883309F0E4C0809383030E94FE07C1
:10108000DFC0803509F44FC0883509F45DC088346D
:1010900009F0D6C0D3C0883909F4C4C0A8F4883791
:1010A00009F467C038F4883609F463C0803709F45E
:1010B00060C0C6C0883809F4B5C0803909F45FC083
:1010C000803809F0BDC05BC0803B09F483C038F4B0
:1010D000803A09F466C0883A09F47CC0B1C0803C0B
:1010E00009F4A4C0883C09F4A1C0883B09F487C076
:1010F000A7C08091EF0310C09091C8038091C703EF
:10110000981770F5E091C80381E08E0F8093C803B3
:10111000F0E0E753FC4F80818093BB0085EC83C0F7
:10112000809383038BC0E091C80381E08E0F80938E
:10113000C8038091BB00F0E0E753FC4F808390919F
:10114000C8038091C7036BC0E091C80381E08E0F94
:101150008093C8038091BB00F0E0E753FC4F80838D
:101160008091EE0381116AC081E08093ED0384EAEF
:101170005EC083E08093F00310928403CFCF809110
:101180008403803208F04EC0E091840381E08E0F2A
:10119000809384038091BB00F0E0EB57FC4F808389
:1011A000BDCF0E94FE0780918403803230F4E0912D
:1011B0008403F0E0EB57FC4F10826091840370E0F1
:1011C000E091E903F091EA0385E893E00995109234
:1011D000840336C084E08093F0031092A60310923B
:1011E000A503E091EB03F091EC0309958091A50331
:1011F000811105C081E08093A5031092A703E091BF
:10120000A60381E08E0F8093A603F0E0E955FC4F22
:1012100080818093BB009091A6038091A5039817CD
:1012200008F47CCF85E88093BC000AC085EC8093ED
:10123000BC001092F00304C0109283030E94F407D4
:10124000FF91EF91BF91AF919F918F917F916F919E
:101250005F914F913F912F910F900FBE0F901F9074
:1012600018951F920F920FB60F9211242F933F9350
:101270008F939F93AF93BF938091F2039091F30369
:10128000A091F403B091F5033091F10323E0230F13
:101290002D3720F40196A11DB11D05C026E8230FAE
:1012A0000296A11DB11D2093F1038093F203909348
:1012B000F303A093F403B093F5038091F6039091A8
:1012C000F703A091F803B091F9030196A11DB11D98
:1012D0008093F6039093F703A093F803B093F90378
:1012E000BF91AF919F918F913F912F910F900FBE22
:1012F0000F901F9018953FB7F8948091F603909146
:10130000F703A091F803B091F90326B5A89B05C097
:101310002F3F19F00196A11DB11D3FBF6627782F01
:10132000892F9A2F620F711D811D911D42E0660F5A
:10133000771F881F991F4A95D1F70895CF92DF92A2
:10134000EF92FF92CF93DF936B017C010E947B09A8
:10135000EB01C114D104E104F10489F00E9454129C
:101360000E947B096C1B7D0B683E734090F381E00B
:10137000C81AD108E108F108C851DC4FEACFDF9163
:10138000CF91FF90EF90DF90CF900895789484B53F
:10139000826084BD84B5816084BD85B5826085BD71
:1013A00085B5816085BDEEE6F0E080818160808357
:1013B000E1E8F0E01082808182608083808181603A
:1013C0008083E0E8F0E0808181608083E1E9F0E003
:1013D000808182608083808181608083E0E9F0E0A9
:1013E000808181608083E1ECF0E080818460808393
:1013F000808182608083808181608083E3ECF0E083
:10140000808181608083E0ECF0E080818260808375
:10141000E2ECF0E0808181608083EAE7F0E08081A7
:10142000846080838081826080838081816080830A
:101430008081806880830895823108F08251E82F8E
:10144000F0E0E653FF4FE49180917B00E3FB22271D
:1014500020F930E095E0220F331F9A95E1F78F7D58
:10146000822B80937B00E7708091020120E4829FB1
:10147000C0011124E82BE0937C0080917A00806405
:1014800080937A0080917A0086FDFCCF809178006D
:101490002091790090E0922B089590E0FC01319723
:1014A000EF30F105B0F5EA5AFF4F0C9431158091F9
:1014B00080008F7703C0809180008F7D80938000B3
:1014C000089580918000877FF9CF84B58F7702C01F
:1014D00084B58F7D84BD0895809190008F7707C07B
:1014E000809190008F7D03C080919000877F8093D2
:1014F000900008958091C0008F7703C08091C00054
:101500008F7D8093C00008958091C200877F809373
:10151000C2000895CF93DF9390E0FC01EB50FF4FA2
:101520002491FC01EC5EFE4F8491882349F190E008
:10153000880F991FFC01EF5BFE4FA591B4918D5C64
:101540009E4FFC01C591D4919FB7611108C0F894DA
:101550008C91209582238C93888182230AC06230EB
:1015600051F4F8948C91322F309583238C93888199
:10157000822B888304C0F8948C91822B8C939FBF1C
:10158000DF91CF9108950F931F93CF93DF931F9215
:10159000CDB7DEB7282F30E0F901EA52FF4F849132
:1015A000F901EB50FF4F1491F901EC5EFE4F0491ED
:1015B0000023C9F0882321F069830E944D0A6981C4
:1015C000E02FF0E0EE0FFF1FED5CFE4FA591B49110
:1015D0009FB7F8948C91611103C01095812301C0CD
:1015E000812B8C939FBF0F90DF91CF911F910F9113
:1015F0000895CF93DF931F92CDB7DEB76983DC01E7
:10160000ED91FC910280F381E02D41E050E0BE01BC
:101610006F5F7F4F09950F90DF91CF910895CF9322
:10162000DF93EC018C859D8597FF05C082E00E94C9
:10163000230F9D878C878C859D85DF91CF910895A1
:1016400083E00C949E11FC018485958597FD06C06E
:1016500082E00E94CB0E90E00196089582E00E9405
:10166000CB0E90E00895FC018485958597FD05C01B
:101670002FEF3FEF35872487089582E00C94230FE6
:10168000CF93DF93EC0180910E01882331F083E04A
:101690000E94540F1816190634F081E090E09B83E5
:1016A0008A8380E090E0DF91CF910895FC01208152
:1016B0002E5F208342E450E06FE471E080E80C94F8
:1016C000EF0FFC0121818081813A59F4213209F028
:1016D0005CC047E050E067E071E080E00E94EF0FFF
:1016E00067C0813209F051C0233289F4838190E0D0
:1016F000982F88273281832BA0E0B0E080930301EC
:1017000090930401A0930501B09306010FC020320D
:1017100039F467E070E087E091E00E9420100AC091
:10172000223221F4828180930E0104C02D7F203269
:1017300009F03EC08091070190910801A091090134
:10174000B0910A01803B9440A105B10501F580915B
:101750000E0180FD1CC080910008909101089093BB
:10176000FF0A8093FE0A87E797E79093010880932A
:1017700000082BE088E190E00FB6F894A8958093DC
:1017800060000FBE2093600013C080E0089588E1E0
:101790000FB6F89480936000109260000FBEA89579
:1017A0008091FE0A9091FF0A9093010880930008AF
:1017B00081E008952FEF3FEFFC01358724870895DE
:1017C0001092FD031092FC0388EE93E0A0E0B0E0DD
:1017D0008093FE039093FF03A0930004B093010451
:1017E0008FEF92E09093FB038093FA038FEF9FEFCC
:1017F000909307048093060408956115710581F0A4
:10180000DB010D900020E9F7AD0141505109461B65
:10181000570BDC01ED91FC910280F381E02D0994DE
:1018200080E090E008950C94FD0BDC01ED91FC91BB
:101830000190F081E02D09946BE073E00C94FD0BB6
:101840000F931F93CF93DF93EC010E94FD0B8C014C
:10185000CE010E941C0C800F911FDF91CF911F9130
:101860000F9108958F929F92AF92BF92CF92DF9285
:10187000EF92FF920F931F93CF93DF93CDB7DEB715
:10188000A1970FB6F894DEBF0FBECDBF7C01C42E6A
:10189000E52FCB01D22E19A221E02D1510F02AE060
:1018A000D22E8E010F5D1F4F8D2C912CA12CB12CAF
:1018B0006C2D7E2FA50194010E940F158C2DD29EB8
:1018C00080191124015011098A3014F4805D01C07F
:1018D000895CF8018083211531054105510521F00E
:1018E000C22EE32FCA01E4CFB801C7010E94FD0B4D
:1018F000A1960FB6F894DEBF0FBECDBFDF91CF919A
:101900001F910F91FF90EF90DF90CF90BF90AF901D
:101910009F908F900895CF92DF92EF92FF920F9356
:101920001F93CF93DF93EC016A017B0121153105F1
:1019300079F4E881F9810190F081E02D642FDF9145
:10194000CF911F910F91FF90EF90DF90CF9009946E
:101950002A303105E9F477FF1AC06DE20E94150CB8
:101960008C0144275527BA014C195D096E097F097E
:101970002AE0CE010E94320C800F911FDF91CF919F
:101980001F910F91FF90EF90DF90CF9008952AE084
:10199000B701A601CE01DF91CF911F910F91FF906A
:1019A000EF90DF90CF900C94320C9A01AB01662738
:1019B00057FD6095762F0C948B0C0F931F93CF934C
:1019C000DF93EC019A01AB01662757FD6095762FF6
:1019D0000E948B0C8C01CE010E941C0C800F911F69
:1019E000DF91CF911F910F9108952115310541F499
:1019F000DC01ED91FC910190F081E02D642F0994C0
:101A00000C94320C9A01462F50E060E070E00C9488
:101A1000F50C9A01AB0160E070E00C94F50C0F93AB
:101A20001F93CF93DF93EC019A01AB0160E070E06C
:101A30000E94F50C8C01CE010E941C0C800F911F9E
:101A4000DF91CF911F910F9108954F925F926F9206
:101A50007F928F929F92AF92BF92CF92DF92EF923E
:101A6000FF920F931F93CF93DF93EC016A017B01E9
:101A7000B22E9A01AB01C701B6010E940B15882353
:101A800019F06EE073E027C026013701E89477F87B
:101A90002FEF3FEF4FE75FE7C301B2010E940B1545
:101AA00081110DC02FEF3FEF4FE75FE7C301B20198
:101AB0000E94551318161CF462E173E00CC02FEF5E
:101AC0003FEF4FE75FE4C701B6010E94A414181668
:101AD000ACF466E173E0CE01DF91CF911F910F91DD
:101AE000FF90EF90DF90CF90BF90AF909F908F903E
:101AF0007F906F905F904F900C94FD0B2FEF3FEF16
:101B00004FE75FECC701B6010E94551387FDE1CF97
:101B100020E030E0A901C701B6010E94551387FFFC
:101B20000AC06DE2CE010E94150C8C01F7FAF09408
:101B3000F7F8F09402C000E010E0A12C60E070E043
:101B400080E09FE3AB1441F020E030E040E251E45C
:101B50000E945913A394F6CF9B01AC01C701B601B3
:101B60000E94F1126B017C010E94C6132B013C0103
:101B70000E94F2139B01AC01C701B6010E94F01252
:101B80006B017C012AE0B301A201CE010E94320C5C
:101B9000080F191FBB2039F06CE372E0CE010E94E0
:101BA000FD0B080F191F7B2C772041F120E030E05E
:101BB00040E251E4C701B6010E94A8146B017C0108
:101BC0000E94C1134B01AA2497FCA094BA2C2AE0CE
:101BD00030E0B501A401CE010E948B0C080F191F43
:101BE000C501B4010E94F4139B01AC01C701B60109
:101BF0000E94F0126B017C017A94D6CFC801DF916C
:101C0000CF911F910F91FF90EF90DF90CF90BF90F9
:101C1000AF909F908F907F906F905F904F900895BE
:101C20000C94250D615030F02091F100FC012083CF
:101C30000196F8CF289A84E6809353040895409142
:101C40004E0450914F0420914C0430914D044217A2
:101C50005307B4F49091E8009570E1F39091E80097
:101C600092FD19C08093F10080914E0490914F0431
:101C700001968F739927892B19F48EEF8093E800D2
:101C800080914E0490914F04019690934F0480935D
:101C90004E0481E0089580E00895CF92DF92EF92A4
:101CA000FF920F931F93CF93DF931F92CDB7DEB7B1
:101CB000082F162FF42E862F880F8E5F99830E948F
:101CC0001F0E83E00E941F0EE02EC02E9981D92E98
:101CD0008C2D8E19811798F4F601F7FE02C08491BD
:101CE00001C080810E941F0E082F80E00E941F0EFD
:101CF0008023FFEFCF1ADF0A8111EACF01C081E014
:101D00000F90DF91CF911F910F91FF90EF90DF9097
:101D1000CF9008958091D70081608093D70080EAAA
:101D20008093D80089B5806189BD89B5826089BDFD
:101D300009B400FEFDCF61E070E080E090E00E9419
:101D40009E098091D8008F7C80618093D80080911B
:101D5000E000807F8093E0000895CF93DF931F928F
:101D6000CDB7DEB71982CE0101960E94560B0E94B4
:101D7000DC12BE016F5F7F4F0E94551289810F9068
:101D8000DF91CF9108952FB7FC012083F8946770FD
:101D90006093E9000895CF93DF931F92CDB7DEB72C
:101DA000682FCE0101960E94C30E8091F2009981A6
:101DB0009FBF0F90DF91CF910895FF920F931F93D4
:101DC000CF93DF9300D0CDB7DEB7F62E8A01909186
:101DD0005204992311F057FF03C08FEF9FEF2BC0E0
:101DE000682FCE0101967A830E94C30E8091F20083
:101DF00090E0A8017A81801791070CF4AC01EF2DD7
:101E0000F72FF40E84E6FE1639F0289A80935304D7
:101E10009091F1009193F7CF4115510521F08091F8
:101E2000F200882321F089818FBFCA0104C08BE6AC
:101E30008093E800F8CF0F900F90DF91CF911F9122
:101E40000F91FF900895CF93DF931F92CDB7DEB728
:101E500041E050E0BE016F5F7F4F0E94DD0E0197B1
:101E600019F4898190E002C08FEF9FEF0F90DF910E
:101E7000CF910895CF93DF931F92CDB7DEB7682F30
:101E8000CE0101960E94C30E9091E800892F8072C6
:101E900095FF04C09091F20080E4891B99819FBF57
:101EA0000F90DF91CF9108956F927F928F929F92C2
:101EB000AF92BF92CF92DF92EF92FF920F931F9358
:101EC000CF93DF931F92CDB7DEB7782E7B01C42E60
:101ED000B52E80915204882369F0042F152F8AEFC4
:101EE000D82E872D8072982E9AE3A92E872D807484
:101EF000882E11C08FEF9FEF57C0872D0E943A0F99
:101F0000682E81110CC0DA94A9F361E070E080E0E2
:101F100090E00E949E090115110579F73BC0282F1A
:101F200030E0021713070CF4602E672DCE010196E6
:101F30000E94C30E8091E80085FF29C0262D30E065
:101F4000021B130B992039F06A948FEF6816B1F0D9
:101F50001092F100F9CFF701862D77FE07C081506E
:101F600058F094919093F1003196F9CF815020F080
:101F700091919093F100FACFE20EF31E8091E80068
:101F800085FF0FC00115110511F481100AC0898168
:101F90008FBFC1CF5D9A84E6809354048C2D9B2D16
:101FA00003C0A092E800F3CF0F90DF91CF911F9173
:101FB0000F91FF90EF90DF90CF90BF90AF909F90E8
:101FC0008F907F906F9008951092E90010924F04C7
:101FD00010924E0490934D0480934C040895CF9238
:101FE000DF92FF920F931F93CF93DF9300D0CDB773
:101FF000DEB7F82E8A016B0101151105B1F0F6016B
:10200000F7FE02C0849101C0808149835A830E94F7
:102010001F0E01501109FFEFCF1ADF0A49815A81C3
:102020008111EACF8FEF9FEF01C0CA010F900F908F
:10203000DF91CF911F910F91FF90DF90CF90089586
:102040001F93CF93DF931F92CDB7DEB7162F20914A
:10205000E80022FFFCCF612F79830E94120E8BEFE4
:102060008093E800812F7981972F0F90DF91CF9196
:102070001F9108951F920F920FB60F921124DF92B5
:10208000EF92FF920F931F932F933F934F935F9382
:102090006F937F938F939F93AF93BF93EF93FF9330
:1020A000CF93DF93CDB7DEB76C97DEBFCDBF109275
:1020B000E9008091E80083FF23C168E0CE014596E6
:1020C0000E94120E82EF8093E8003D8937FF05C021
:1020D0008091E80080FFFCCF03C08EEF8093E80082
:1020E000832F807609F0F0C02E894F89D88C21117A
:1020F0000CC0303829F4809151048093F10002C063
:102100001092F1001092F100F4C0842F90E09D290C
:10211000213049F43111EDC0019709F0EAC08091F6
:1021200051048D7F0AC0233059F43111E2C0019768
:1021300009F0DFC080915104826080935104D9C0BE
:10214000253041F48091E80080FFFCCF4068409347
:10215000E300CFC0263009F08DC0EB8CFC8C22E070
:10216000D2122CC080E090E00E94E40F0E94AD0EDD
:1021700099E08E010F5F1F4FF801292F11922A95C8
:10218000E9F79983DA8291E09E8390EA98879AEF43
:10219000998720914E0430914F04275F3F4F3C8335
:1021A0002B838D83C7010E94E40F49E050E0B80102
:1021B00080E00E94EF0F0E94AD0E9BC0C7010E94FD
:1021C000E40F0E94DC12BE016B5E7F4F0E947E1204
:1021D000009719F00CF08DC090C081E0D8120EC0AD
:1021E0008B8D9C8D089719F481E080934B0480912E
:1021F0004B0481112FC063EA71E031C0E3E0DE12CD
:102200007CC08F89882349F1823029F440E86DE051
:1022100081EC91E01CC0813029F440E86BE085EB53
:1022200091E015C0833009F068C00E94DC128E0175
:102230000F5F1F4FB8010E949D12F801019000200E
:10224000E9F73197E01BF10B40E06E2FC8010E94C7
:102250004D0E4DC061E971E002C06FEC71E0611597
:10226000710509F44AC0FB01449150E080E80E94E6
:10227000EF0F3FC0273009F440C0283021F481E03F
:102280008093F10036C02930A1F53370B1F5E0E15B
:10229000F1E081E021E036E39081992361F08093C1
:1022A000E9002093EB0091919093EC003093ED00C6
:1022B0008F5F873089F78EE78093EA001092EA00FB
:1022C0008F898093520415C08B8D9C8D0E94E40FE2
:1022D000898D811105C0CE0145960E94610B07C012
:1022E0000E94DC12BE016B5E7F4F0E94BC128823ED
:1022F00021F08EEF8093E80003C081E28093EB0031
:102300006C960FB6F894DEBF0FBECDBFDF91CF91B4
:10231000FF91EF91BF91AF919F918F917F916F91BD
:102320005F914F913F912F911F910F91FF90EF90EF
:10233000DF900F900FBE0F901F9018958093E900CB
:102340008091F200882319F08AE38093E8000895D1
:102350001F920F920FB60F9211242F933F934F931A
:102360005F936F937F938F939F93AF93BF93CF931D
:10237000EF93FF93C091E1008091E100837F809310
:10238000E1008093E100C3FF0FC01092E90081E0FB
:102390008093EB001092EC0082E38093ED001092AA
:1023A000520488E08093F000C2FF19C083E00E94CD
:1023B0009E1180915404882339F0809154048150F7
:1023C00080935404882389F180915304882339F041
:1023D00080915304815080935304882341F1C4FFBA
:1023E00010C08091E2008E7E81608093E200809137
:1023F000E1008F7E8093E100809150048E7E8061A9
:1024000011C0C0FF16C08091E2008E7E8061809373
:10241000E2008091E1008E7E8093E1008091500483
:102420008E7E81608093500404C05D98CDCF289843
:10243000D6CFFF91EF91CF91BF91AF919F918F91A7
:102440007F916F915F914F913F912F910F900FBEB0
:102450000F901F90189510925204109251041092F0
:1024600050040E948A0EE1EEF0E080818E7E80832F
:102470008DE08093E200559A209A5D9828980895FF
:1024800008950E94C6090E9440128AE494E00E94C6
:102490002B120E945D01C0E0D0E00E94A8022097AC
:1024A000E1F30E940000F9CF0895EF92FF920F939D
:1024B0001F93CF93DF937B01FC01C281D38100E0A6
:1024C00010E0209781F0E881F9810280F381E02D0E
:1024D000B701CE01099597FD08C0080F191F0884A0
:1024E000D985C02DEECFC80102C08FEF9FEFDF91DD
:1024F000CF911F910F91FF90EF9008950F931F932D
:10250000CF93DF938B01FC01C281D381209771F0BF
:10251000E881F9810480F581E02DB801CE010995AB
:10252000009731F40884D985C02DF0CF80E090E089
:10253000DF91CF911F910F9108950F931F93CF9328
:10254000DF938B01FC01C281D381209771F0E88178
:10255000F9810680F781E02DB801CE010995080FB9
:10256000111D0884D985C02DF0CFF8011082DF91AC
:10257000CF911F910F9108950F931F93CF93DF93E6
:102580008B01FC01C281D381209771F0E881F98130
:102590000190F081E02DB801CE010995811106C0AE
:1025A0000884D985C02DF0CF80E001C081E0DF91A3
:1025B000CF911F910F9108958091590481110DC001
:1025C00082E08093550484E080935604109258046E
:1025D0001092570481E08093590485E594E00895B2
:1025E0005058BB27AA270ED075C166D130F06BD1E9
:1025F00020F031F49F3F11F41EF45BC10EF4E0951E
:10260000E7FB51C1E92F77D180F3BA17620773074F
:102610008407950718F071F49EF58FC10EF4E095CC
:102620000B2EBA2FA02D0B01B90190010C01CA018C
:10263000A0011124FF27591B99F0593F50F4503E37
:1026400068F11A16F040A22F232F342F4427585F29
:10265000F3CF469537952795A795F0405395C9F741
:102660007EF41F16BA0B620B730B840BBAF09150F9
:10267000A1F0FF0FBB1F661F771F881FC2F70EC098
:10268000BA0F621F731F841F48F48795779567956B
:10269000B795F7959E3F08F0B3CF9395880F08F054
:1026A0009927EE0F979587950895D9D008F481E082
:1026B00008950CD00FC107D140F0FED030F021F4C6
:1026C0005F3F19F0F0C0511139C1F3C014D198F334
:1026D0009923C9F35523B1F3951B550BBB27AA27A3
:1026E00062177307840738F09F5F5F4F220F331F15
:1026F000441FAA1FA9F333D00E2E3AF0E0E830D0E1
:1027000091505040E695001CCAF729D0FE2F27D0E3
:10271000660F771F881FBB1F261737074807AB07B1
:10272000B0E809F0BB0B802DBF01FF2793585F4F26
:102730002AF09E3F510568F0B6C000C15F3FECF340
:10274000983EDCF3869577956795B795F7959F5FEB
:10275000C9F7880F911D9695879597F90895E1E03F
:10276000660F771F881FBB1F621773078407BA079E
:1027700020F0621B730B840BBA0BEE1F88F7E095F9
:10278000089504D06894B111D9C00895BCD088F0E0
:102790009F5790F0B92F9927B751A0F0D1F0660F4D
:1027A000771F881F991F1AF0BA95C9F712C0B13068
:1027B00081F0C3D0B1E00895C0C0672F782F88277B
:1027C000B85F39F0B93FCCF3869577956795B395A7
:1027D000D9F73EF490958095709561957F4F8F4F16
:1027E0009F4F0895E89409C097FB3EF4909580951B
:1027F000709561957F4F8F4F9F4F9923A9F0F92FC7
:1028000096E9BB279395F695879577956795B79544
:10281000F111F8CFFAF4BB0F11F460FF1BC06F5F2A
:102820007F4F8F4F9F4F16C0882311F096E911C03C
:10283000772321F09EE8872F762F05C0662371F05D
:1028400096E8862F70E060E02AF09A95660F771F71
:10285000881FDAF7880F9695879597F90895990F4D
:102860000008550FAA0BE0E8FEEF16161706E8075A
:10287000F907C0F012161306E407F50798F0621B7B
:10288000730B840B950B39F40A2661F0232B242B50
:10289000252B21F408950A2609F4A140A6958FEF6F
:1028A000811D811D089597F99F6780E870E060E0C1
:1028B00008959FEF80EC089500240A9416161706D9
:1028C00018060906089500240A9412161306140621
:1028D00005060895092E0394000C11F4882352F084
:1028E000BB0F40F4BF2B11F460FF04C06F5F7F4F3C
:1028F0008F4F9F4F089557FD9058440F551F59F023
:102900005F3F71F04795880F97FB991F61F09F3FDC
:1029100079F087950895121613061406551FF2CF05
:102920004695F1DF08C0161617061806991FF1CF55
:1029300086957105610508940895E894BB2766277C
:102940007727CB0197F908958ADF08F48FEF089570
:102950000BD0C0CFB1DF28F0B6DF18F0952309F017
:10296000A2CFA7CF1124EACFC6DFA0F3959FD1F362
:10297000950F50E0551F629FF001729FBB27F00D2D
:10298000B11D639FAA27F00DB11DAA1F649F662782
:10299000B00DA11D661F829F2227B00DA11D621FD1
:1029A000739FB00DA11D621F839FA00D611D221F8B
:1029B000749F3327A00D611D231F849F600D211D6F
:1029C000822F762F6A2F11249F5750408AF0E1F012
:1029D00088234AF0EE0FFF1FBB1F661F771F881F5B
:1029E00091505040A9F79E3F510570F05CCFA6CFA3
:1029F0005F3FECF3983EDCF3869577956795B79546
:102A0000F795E7959F5FC1F7FE2B880F911D96956F
:102A1000879597F9089523DF880B990B0895A1E214
:102A20001A2EAA1BBB1BFD010DC0AA1FBB1FEE1F48
:102A3000FF1FA217B307E407F50720F0A21BB30B93
:102A4000E40BF50B661F771F881F991F1A9469F70F
:102A500060957095809590959B01AC01BD01CF016B
:102A60000895EE0FFF1F0590F491E02D0994F8945E
:022A7000FFCF96
:102A7200010001FFFFFFFF00E10000000000000075
:102A8200C1808100000048545532312053656E7375
:102A92006F723A20002054656D70657261747572B0
:102AA200653A0043002048756D69646974793A009B
:102AB2002500484948343033302048756D696469CF
:102AC20074792053656E736F722072656164696EEA
:102AD200672028302D31303234293A004C6967683A
:102AE200742053656E736F722072656164696E67DC
:102AF2002028302D31303234293A00556E697175F3
:102B02006520426F6172642049442023200054688A
:102B120065726D6973746F722056616C7565733A74
:102B2200002D2D2D2D2D2D5761676D616E20456E67
:102B32007669726F6E6D656E74616C2053656E732B
:102B42006F727320546573742D2D2D2D2D2D002E33
:102B52002000466F7220746865206E65787420319B
:102B620030207365636F6E64732C20706C656173C3
:102B72006520746F7563682074686520484948341D
:102B82003033302073656E736F72207769746820FA
:102B9200796F75722066696E6765722E00436F7574
:102BA2006E74696E6720646F776E2E2E2E00466FEC
:102BB2007220746865206E657874203130207365E8
:102BC200636F6E64732C20706C6561736520636F34
:102BD20076657220746865206C69676873656E73C8
:102BE2006F72207769746820796F75207468756DCB
:102BF200622E00466F7220746865206E65787420BC
:102C02003130207365636F6E64732C20706C656164
:102C1200736520746F756368207468652048545525
:102C22003231442073656E736F7220776974682045
:102C3200796F75722066696E6765722E002D2D2D73
:102C42002D2D2D456E64206F6620626F61726420A7
:102C5200746573742D2D2D2D2D2D0000000000485C
:102C6200061B06F005F8050B061A0600000000F91F
:102C72000A400B230B330B0F0B200B0D0A006E6166
:0A2C82006E00696E66006F76660052
:00000001FF
