:10000000FBC000002AC1000028C1000026C100007A
:1000100024C1000022C1000020C100001EC1000058
:100020001CC100001AC1000018C1000016C1000068
:1000300014C1000012C1000010C100000EC1000078
:100040000CC100000AC1000008C1000006C1000088
:1000500004C1000002C1000000C100000C94C811DE
:10006000FCC000000C941D150C945315F6C0000044
:10007000F4C00000F2C00000F0C00000EEC00000BC
:10008000ECC00000EAC00000E8C00000E6C00000CC
:10009000E4C00000E2C00000E0C000000C941210B8
:1000A000DCC00000DAC00000D8C00000D6C00000EC
:1000B000D4C00000D2C00000D0C00000CEC00000FC
:1000C000CCC00000CAC00000C8C00000C6C000000C
:1000D000C4C00000C2C00000C0C00000BEC000001C
:1000E000BCC0000058115B114A114E1154119211FD
:1000F0005F11631169116D11711177117B117F11FE
:100100009211851189118D1100000A0B02090C0D45
:100110000E080703040100000000000000000000BA
:1001200000000000000000000000000000000000CF
:10013000000000001211100000000000000000008C
:1001400000000000000000000000000000000102AC
:1001500010202008081020401020408002010201D9
:100160000804020101020408102040808040201091
:1001700008040201800402018040201008040201EA
:100180000804020101020408102040800102040852
:10019000102040800505050507050808080802022B
:1001A00002020A0A08080404040401010101010111
:1001B00001010303030303030303040707070C0CF4
:1001C0000C0C0C0C0C0C02020202060606060606BB
:1001D00006060B0B0B0B0B0B0B0B00002200250074
:1001E00028002B002E003100340002010000050120
:1001F00008010B01C00F851511241FBECFEFD1E2FE
:10020000DEBFCDBF00E00CBF12E0A0E0B2E0E6E44C
:10021000F1E300E00BBF02C007900D92AC34B107D0
:10022000D9F729E0ACE4B2E001C01D92A23AB207CE
:10023000E1F711E0C8EFD1E000E006C02297010924
:10024000FE010BBF0E943218C43FD10780E00807AF
:10025000A9F70E9411150C94A118D2CE68EB7BE08F
:1002600080E090E00E94351226E040E052EC61E030
:1002700070E085E099E00E94B014EBE5F2E01192A5
:1002800083E0E232F807D9F78AEA80935B021092A2
:100290005C0210925D0210925E0285E580935F021F
:1002A00064E072E085E099E00E94371363E070E05B
:1002B0008EED93E00E94BA0F6AEA7EE08EED93E045
:1002C0000C94BB0F68E97AE380E090E00C9435125F
:1002D000682788E09CE8262F30E03595279560FF59
:1002E00003C0622F692701C0622F8150A1F7862FBA
:1002F00008950F931F93CF93DF93C82F0EE512E05D
:1003000080E0D0E0229698012B553240C217D307E7
:1003100034F0682FF80181918F01DADFF4CFDF919B
:10032000CF911F910F9108958F929F92AF92BF929C
:10033000CF92DF92EF92FF92CF936B017C0120E08E
:1003400030E0A9010E942E16C82FCC1FCC27CC1F4D
:1003500020E030E0A901C701B6010E947D17181600
:1003600024F0F7FAF094F7F8F094C701B6010E9470
:100370009A164B015C01862F80688093530220E01F
:1003800030E048EC52E4C701B6010E9481170E9498
:100390009A1644E6489D9001499D300D1124621B38
:1003A000730BC0FB67F960935402CF91FF90EF90FD
:1003B000DF90CF90BF90AF909F908F9008959093D3
:1003C00051028093520208958F929F92AF92BF92F2
:1003D000CF92DF92EF92FF92CF936B017C0120E0EE
:1003E00030E0A9010E942E16C82FCC1FCC27CC1FAD
:1003F00020E030E0A901C701B6010E947D17181660
:1004000024F0F7FAF094F7F8F094C701B6010E94CF
:100410009A164B015C0120E030E04AE754E4C70142
:10042000B6010E9481176B017C0188EE93E0889DE4
:10043000B001899D700D989D700D1124882777FD5E
:100440008095982F0E94CD169B01AC01C701B60183
:100450000E94C9150E949A162C2F30E056E0220FF8
:10046000331F5A95E1F720683FE083229924880CD6
:10047000991C880C991C2829AB0144275370252B03
:1004800020934F0260935002CF91FF90EF90DF9046
:10049000CF90BF90AF909F908F900895CF92DF92B2
:1004A000EF92FF926B017C0197FF07C0CC24DD2403
:1004B0007601C61AD70AE80AF90A2E2D2068AB0180
:1004C000BC01442777FD4395552766277727A6E08B
:1004D000440F551FAA95E1F7242B20934C02D0928C
:1004E0004D02C0924E02FF90EF90DF90CF900895A2
:1004F000A6EDB3E0EEE5F2E083E090E02D912193EC
:1005000001968B309105D1F78091D20380936602DA
:100510008091D303809367028091D4038093680213
:100520008091D50380936902ACECB3E0EAE6F2E097
:100530008FE090E02D912193019685319105D1F7BF
:100540008091C803809370028091C90380937102E7
:100550008091CA03809372028091CB0380937302CF
:10056000A1ECB3E0E4E7F2E089E190E02D91219382
:10057000019680329105D1F78091BD0380937B0273
:100580008091BE0380937C028091BF0380937D02A3
:100590008091C00380937E028091B90380937F0293
:1005A0008091BA03809380028091BB038093810283
:1005B0008091BC0380938202AFEAB3E0E3E8F2E00B
:1005C00088E290E02D912193019682339105D1F735
:1005D0008091AB0380938D028091AC0380938E0257
:1005E0008091AD0380938F028091AE03809390023F
:1005F0008091A703809391028091A8038093920237
:100600008091A903809393028091AA03809394021E
:10061000AFE9B3E0E5E9F2E08AE390E02D912193C0
:10062000019682349105D1F7A9E9B3E0EDE9F2E052
:100630002D912193019688349105D1F780919503EE
:100640008093A302809196038093A40280919703E4
:100650008093A502809198038093A60280919103D4
:100660008093A702809192038093A80280919303C4
:100670008093A902809194038093AA0280918D03B4
:100680008093AB0280918E038093AC0280918F03A4
:100690008093AD02809190038093AE028091890394
:1006A0008093AF0280918A038093B00280918B0384
:1006B0008093B10280918C038093B2028091850374
:1006C0008093B302809186038093B4028091870364
:1006D0008093B502809188038093B602A1E6B3E0CF
:1006E000E7EBF2E08CE590E02D91219301968038C4
:1006F0009105D1F780915D038093DB0280915E03C9
:100700008093DC0280915F038093DD02809160031F
:100710008093DE02809159038093DF0280915A0317
:100720008093E00280915B038093E10280915C03FF
:100730008093E202809155038093E30280915603F7
:100740008093E402809157038093E50280915803DF
:100750008093E602809151038093E70280915203D7
:100760008093E802809153038093E90280915403BF
:100770008093EA0280914D038093EB0280914E03B7
:100780008093EC0280914F038093ED02809150039F
:100790008093EE02809149038093EF0280914A0397
:1007A0008093F00280914B038093F10280914C037F
:1007B0008093F202809145038093F3028091460377
:1007C0008093F402809147038093F502809148035F
:1007D0008093F602809141038093F7028091420357
:1007E0008093F802809143038093F902809144033F
:1007F0008093FA0280913D038093FB0280913E0337
:100800008093FC0280913F038093FD02809140031E
:100810008093FE02809139038093FF0280913A0316
:100820008093000380913B038093010380913C03FC
:1008300080930203809135038093030380913603F4
:1008400080930403809137038093050380913803DC
:1008500080930603AFE2B3E0E7E0F3E08CEA90E0D8
:100860002D9121930196823B9105D1F7AAE2B3E045
:10087000EDE0F3E02D9121930196873B9105D1F7AF
:10088000A2E2B3E0E2E1F3E02D91219301968F3BE8
:100890009105D1F7A5E5B2E0EAE1F3E02D912193CE
:1008A0000196853C9105D1F782EC80935D0221DDB4
:1008B0008093200385E58093210308958F929F9272
:1008C000AF92BF92CF92DF92EF92FF921F93CF939E
:1008D000DF931092D60386E88093D70386E0809357
:1008E000D80385E08093D90384E08093DA0383E022
:1008F0008093DB0382E08093DC0381E08093DD035F
:1009000022E030E040E050E060E070E0CB010E9487
:10091000DE12C62F20E830E040E050E060E070E0FA
:10092000CB010E94DE12162F24E630E040E050E0BA
:1009300060E070E0CB010E94DE124B015C0122E01E
:1009400030E040E050E060E070E0CB010E94DE1259
:10095000D62F612F70E080E090E00E94CD166B01F1
:100960007C01B401882777FD8095982F0E94CD16D1
:100970002AE037ED43E25CE30E9481179B01AC0162
:10098000C701B6010E94CA15D1119058CDDC81E093
:100990008093D20380E8C89FB00111246260609305
:1009A000D303809153028093D403809154028093A7
:1009B000D50322E030E040E050E060E070E0CB01A1
:1009C0000E94DE12C62F20E830E040E050E060E0F8
:1009D00070E0CB010E94DE12162F24E630E040E0EA
:1009E00050E060E070E0CB010E94DE124B015C0140
:1009F00022E030E040E050E060E070E0CB010E9497
:100A0000DE12D62F612F70E080E090E00E94CD16BC
:100A10006B017C01B401882777FD8095982F0E9497
:100A2000CD1620E030E048EC52E40E9432169B01E3
:100A3000AC01C701B6010E94CA15D111905874DCEF
:100A400082E08093CC0380E8C89FB00111246460E9
:100A50006093CD03809153028093CE038091540222
:100A60008093CF0325E630E040E050E060E070E0A6
:100A7000CB010E94DE12C62F24E630E040E050E0B9
:100A800060E070E0CB010E94DE124B015C016C2F34
:100A900070E080E090E00E94CD166B017C01B40113
:100AA000882777FD8095982F0E94CD1620E030E0B2
:100AB00048EC52E40E9432169B01AC01C701B6011A
:100AC0000E94CA1531DC809153028093D00380913B
:100AD00054028093D10322E030E040E050E060E037
:100AE00070E0CB010E94DE12C62F20E830E040E02B
:100AF00050E060E070E0CB010E94DE12D62F20E0D3
:100B000031E040E050E060E070E0CB010E94DE1296
:100B1000862F90E09D2B53DC83E08093C80380E810
:100B2000C89FB001112462606093C9038091510293
:100B30008093CA03809152028093CB0322E030E07D
:100B400040E050E060E070E0CB010E94DE12C62F72
:100B500020E830E040E050E060E070E0CB010E942F
:100B6000DE12162F24E630E040E050E060E070E056
:100B7000CB010E94DE124B015C0122E030E040E03C
:100B800050E060E070E0CB010E94DE12D62F612FB2
:100B900070E080E090E00E94CD166B017C01B40112
:100BA000882777FD8095982F0E94CD1620E030E0B1
:100BB00048EC52E40E9432169B01AC01C701B60119
:100BC0000E94CA15D1119058AFDB84E08093C10315
:100BD00080E8C89FB001112465606093C2038091D2
:100BE00053028093C303809154028093C40320E492
:100BF00030E040E050E060E070E0CB010E94DE12A7
:100C00006B017C0120E031E040E050E060E070E00A
:100C1000CB010E94DE12C62F20E031E040E050E020
:100C200060E070E0CB010E94DE12DD24EE24FF24A0
:100C3000FE2CED2CDC2CCC24CC0ED11CE11CF11CA8
:100C4000FE2CED2CDC2CCC24C60ED11CE11CF11C9E
:100C500022E030E040E050E060E070E0CB010E9434
:100C6000DE12662341F0F094E094D094C094C11C4D
:100C7000D11CE11CF11CC701B60110DC80914C02B3
:100C80008093C50380914D028093C60380914E02EC
:100C90008093C70322E030E040E050E060E070E085
:100CA000CB010E94DE12C62F20E830E040E050E089
:100CB00060E070E0CB010E94DE12D62F20E031E030
:100CC00040E050E060E070E0CB010E94DE12862F31
:100CD00090E09D2B74DB85E08093BD0380E8C89F86
:100CE000B001112462606093BE0380915102809331
:100CF000BF03809152028093C00322E030E040E0C5
:100D000050E060E070E0CB010E94DE12C62F20E8C8
:100D100030E040E050E060E070E0CB010E94DE1285
:100D2000D62F20E031E040E050E060E070E0CB0101
:100D30000E94DE12862F90E09D2B41DB86E080939F
:100D4000B90380E8C89FB001112462606093BA03C0
:100D5000809151028093BB03809152028093BC0327
:100D600022E030E040E050E060E070E0CB010E9423
:100D7000DE12C62F20E830E040E050E060E070E096
:100D8000CB010E94DE12162F24E630E040E050E056
:100D900060E070E0CB010E94DE124B015C0122E0BA
:100DA00030E040E050E060E070E0CB010E94DE12F5
:100DB000D62F612F70E080E090E00E94CD166B018D
:100DC0007C01B401882777FD8095982F0E94CD166D
:100DD00020E030E048EC52E40E9432169B01AC0166
:100DE000C701B6010E94CA15D11190589DDA87E05B
:100DF0008093AF0380E8C89FB001112468606093BE
:100E0000B003809153028093B10380915402809388
:100E1000B20320E830E040E050E060E070E0CB0159
:100E20000E94DE12D62F24E630E040E050E060E081
:100E300070E0CB010E94DE124B015C0122E030E049
:100E400040E050E060E070E0CB010E94DE12C62F6F
:100E50006D2F70E080E090E00E94CD166B017C0168
:100E6000B401882777FD8095982F0E94CD1620E049
:100E700030E048EC52E40E9432169B01AC01C701FD
:100E8000B6010E94CA15C11190584EDA80915302E2
:100E90008093B303809154028093B40320E830E040
:100EA00040E050E060E070E0CB010E94DE12D62FFF
:100EB00024E630E040E050E060E070E0CB010E94CA
:100EC000DE124B015C0122E030E040E050E060E0E7
:100ED00070E0CB010E94DE12C62F6D2F70E080E023
:100EE00090E00E94CD166B017C01B401882777FD4C
:100EF0008095982F0E94CD1620E030E048EC52E417
:100F00000E9432169B01AC01C701B6010E94CA15AE
:100F1000C111905809DA809153028093B5038091F2
:100F200054028093B60320E830E040E050E060E0F7
:100F300070E0CB010E94DE12D62F24E630E040E0C4
:100F400050E060E070E0CB010E94DE124B015C01DA
:100F500022E030E040E050E060E070E0CB010E9431
:100F6000DE12C62F6D2F70E080E090E00E94CD165B
:100F70006B017C01B401882777FD8095982F0E9432
:100F8000CD1620E030E048EC52E40E9432169B017E
:100F9000AC01C701B6010E94CA15C1119058C4D94D
:100FA000809153028093B703809154028093B803D9
:100FB00022E030E040E050E060E070E0CB010E94D1
:100FC000DE12C62F20E830E040E050E060E070E044
:100FD000CB010E94DE12D62F20E031E040E050E04D
:100FE00060E070E0CB010E94DE12862F90E09D2B26
:100FF000E6D988E08093AB0380E8C89FB001112454
:1010000062606093AC03809151028093AD03809144
:1010100052028093AE0322E030E040E050E060E016
:1010200070E0CB010E94DE12C62F20E830E040E0E5
:1010300050E060E070E0CB010E94DE12D62F20E08D
:1010400031E040E050E060E070E0CB010E94DE1251
:10105000862F90E09D2BB3D989E08093A70380E889
:10106000C89FB001112462606093A803809151026F
:101070008093A903809152028093AA0322E030E07A
:1010800040E050E060E070E0CB010E94DE12C62F2D
:1010900028E030E040E050E060E070E0CB010E94EA
:1010A000DE12162F28EE33E040E050E060E070E002
:1010B000CB010E94DE124B015C0122E030E040E0F7
:1010C00050E060E070E0CB010E94DE12D62F612F6D
:1010D00070E080E090E00E94CD166B017C01B401CD
:1010E000882777FD8095982F0E94CD1620E030E06C
:1010F0004AE754E40E9432169B01AC01C701B601D5
:101100000E94CA15D11190585FD98AE080939F033D
:1011100080E8C89FB001112466606093A0038091AD
:101120004F028093A103809150028093A20328E094
:1011300030E040E050E060E070E0CB010E94DE1261
:10114000D62F28EE33E040E050E060E070E0CB01C5
:101150000E94DE124B015C0122E030E040E050E0F2
:1011600060E070E0CB010E94DE12C62F6D2F70E0B0
:1011700080E090E00E94CD166B017C01B4018827CD
:1011800077FD8095982F0E94CD1620E030E04AE749
:1011900054E40E9432169B01AC01C701B6010E94C3
:1011A000CA15C111905810D980914F028093A303A2
:1011B000809150028093A40328E030E040E050E0AA
:1011C00060E070E0CB010E94DE12D62F28EE33E003
:1011D00040E050E060E070E0CB010E94DE124B0185
:1011E0005C0122E030E040E050E060E070E0CB01E4
:1011F0000E94DE12C62F6D2F70E080E090E00E940A
:10120000CD166B017C01B401882777FD8095982F5E
:101210000E94CD1620E030E04AE754E40E943216E6
:101220009B01AC01C701B6010E94CA15C1119058BB
:10123000CBD880914F028093A50380915002809378
:10124000A60322E030E040E050E060E070E0CB0137
:101250000E94DE12C62F20E830E040E050E060E05F
:1012600070E0CB010E94DE12162F24E630E040E051
:1012700050E060E070E0CB010E94DE124B015C01A7
:1012800022E030E040E050E060E070E0CB010E94FE
:10129000DE12D62F612F70E080E090E00E94CD1624
:1012A0006B017C01B401882777FD8095982F0E94FF
:1012B000CD1620E030E048EC52E40E9432169B014B
:1012C000AC01C701B6010E94CA15D11190582CD8A3
:1012D0008BE08093990380E8C89FB001112464607B
:1012E00060939A038091530280939B0380915402F0
:1012F00080939C0320E830E040E050E060E070E044
:10130000CB010E94DE12D62F24E630E040E050E010
:1013100060E070E0CB010E94DE124B015C0122E034
:1013200030E040E050E060E070E0CB010E94DE126F
:10133000C62F6D2F70E080E090E00E94CD166B010B
:101340007C01B401882777FD8095982F0E94CD16E7
:1013500020E030E048EC52E40E9432169B01AC01E0
:10136000C701B6010E94CA15C11190580E9494018C
:101370008091530280939D038091540280939E0339
:1013800022E030E040E050E060E070E0CB010E94FD
:10139000DE12C62F20E830E040E050E060E070E070
:1013A000CB010E94DE12D62F20E031E040E050E079
:1013B00060E070E0CB010E94DE12862F90E09D2B52
:1013C0000E94DF018CE08093950380E8C89FB00104
:1013D0001124626060939603809151028093970379
:1013E000809152028093980322E030E040E050E088
:1013F00060E070E0CB010E94DE12C62F20E830E0F2
:1014000040E050E060E070E0CB010E94DE12D62F99
:1014100020E031E040E050E060E070E0CB010E946D
:10142000DE12862F90E09D2B0E94DF018DE08093DD
:10143000910380E8C89FB001112462606093920319
:101440008091510280939303809152028093940380
:1014500022E030E040E050E060E070E0CB010E942C
:10146000DE12C62F20E830E040E050E060E070E09F
:10147000CB010E94DE12D62F20E031E040E050E0A8
:1014800060E070E0CB010E94DE12862F90E09D2B81
:101490000E94DF018EE080938D0380E8C89FB00139
:1014A0001124626060938E038091510280938F03B8
:1014B000809152028093900322E030E040E050E0BF
:1014C00060E070E0CB010E94DE12C62F20E830E021
:1014D00040E050E060E070E0CB010E94DE12D62FC9
:1014E00020E031E040E050E060E070E0CB010E949D
:1014F000DE12862F90E09D2B0E94DF018FE080930B
:10150000890380E8C89FB0011124626060938A0358
:101510008091510280938B038091520280938C03BF
:1015200022E030E040E050E060E070E0CB010E945B
:10153000DE12C62F20E830E040E050E060E070E0CE
:10154000CB010E94DE12D62F20E031E040E050E0D7
:1015500060E070E0CB010E94DE12862F90E09D2BB0
:101560000E94DF0180E18093850380E8C89FB0017D
:1015700011246260609386038091510280938703F7
:10158000809152028093880322E030E040E050E0F6
:1015900060E070E0CB010E94DE1281E18093610384
:1015A00080E8689FB0011124626260936203C4E620
:1015B000D3E020E830E040E050E060E070E0CB01B4
:1015C000FDD7F62E24E630E040E050E060E070E029
:1015D000CB01F4D74B015C0122E030E040E050E069
:1015E00060E070E0CB01EAD7162F6F2D70E080E04D
:1015F00090E00E94CD166B017C01B401882777FD35
:101600008095982F0E94CD1620E030E048EC52E4FF
:101610000E9432169B01AC01C701B6010E94CA1597
:10162000111190580E949401FE013197809153024C
:101630008083809154028883229683E0C638D8073D
:1016400009F0B7CF22E030E040E050E060E070E029
:10165000CB01B4D7C62F20E830E040E050E060E096
:1016600070E0CB01ABD7162F24E630E040E050E02D
:1016700060E070E0CB01A2D74B015C0122E030E0DA
:1016800040E050E060E070E0CB0198D7D62F612FAA
:1016900070E080E090E00E94CD166B017C01B40107
:1016A000882777FD8095982F0E94CD1620E030E0A6
:1016B00048EC52E40E9432169B01AC01C701B6010E
:1016C0000E94CA15D11190580E94940182E1809322
:1016D0005D0380E8C89FB0011124626060935E03DF
:1016E0008091530280935F03809154028093600342
:1016F00022E030E040E050E060E070E0CB015ED7F7
:10170000C62F20E830E040E050E060E070E0CB0120
:1017100055D7162F24E630E040E050E060E070E05E
:10172000CB014CD74B015C0122E030E040E050E0BF
:1017300060E070E0CB0142D7D62F612F70E080E0EF
:1017400090E00E94CD166B017C01B401882777FDE3
:101750008095982F0E94CD1620E030E048EC52E4AE
:101760000E9432169B01AC01C701B6010E94CA1546
:10177000D11190580E94940183E18093590380E82D
:10178000C89FB0011124626060935A038091530294
:1017900080935B038091540280935C0322E030E0ED
:1017A00040E050E060E070E0CB0108D7C62F20E8B1
:1017B00030E040E050E060E070E0CB01FFD6D62F93
:1017C00020E031E040E050E060E070E0CB01F6D690
:1017D000862F90E09D2B0E94DF0184E180935503CA
:1017E00080E8C89FB0011124626060935603809125
:1017F000510280935703809152028093580322E054
:1018000030E040E050E060E070E0CB01D7D6C62F7A
:1018100020E830E040E050E060E070E0CB01CED660
:10182000D62F20E031E040E050E060E070E0CB01F6
:10183000C5D6862F90E09D2B0E94DF0185E1809325
:10184000510380E8C89FB001112462606093520385
:1018500080915102809353038091520280935403EC
:1018600022E030E040E050E060E070E0CB01A6D63E
:10187000C62F20E830E040E050E060E070E0CB01AF
:101880009DD6D62F20E031E040E050E060E070E0EF
:10189000CB0194D6862F90E09D2B0E94DF0186E13C
:1018A00080934D0380E8C89FB0011124626060936B
:1018B0004E038091510280934F0380915202809396
:1018C000500322E030E040E050E060E070E0CB0107
:1018D00075D6C62F20E830E040E050E060E070E0D0
:1018E000CB016CD6D62F20E031E040E050E060E044
:1018F00070E0CB0163D6862F90E09D2B0E94DF0124
:1019000087E18093490380E8C89FB0011124626099
:1019100060934A038091510280934B03809152025D
:1019200080934C0322E030E040E050E060E070E063
:10193000CB0144D6C62F20E830E040E050E060E024
:1019400070E0CB013BD6D62F20E031E040E050E004
:1019500060E070E0CB0132D6862F90E09D2B0E9494
:10196000DF0188E18093450380E8C89FB00111241E
:101970006260609346038091510280934703809197
:1019800052028093480322E030E040E050E060E003
:1019900070E0CB0113D6C62F20E830E040E050E0E5
:1019A00060E070E0CB010AD6D62F20E031E040E0C5
:1019B00050E060E070E0CB0101D6862F90E09D2BD7
:1019C0000E94DF0189E18093410380E8C89FB00154
:1019D000112462606093420380915102809343031B
:1019E000809152028093440322E030E040E050E0D6
:1019F00060E070E0CB01E2D5C62F20E830E040E0A7
:101A000050E060E070E0CB01D9D5D62F20E031E086
:101A100040E050E060E070E0CB01D0D5862F90E050
:101A20009D2B0E94DF018AE180933D0380E8C89FDF
:101A3000B0011124626060933E0380915102809353
:101A40003F03809152028093400322E030E040E067
:101A500050E060E070E0CB01B1D5C62F20E830E067
:101A600040E050E060E070E0CB01A8D5D62F20E048
:101A700031E040E050E060E070E0CB019FD5862F80
:101A800090E09D2B0E94DF018BE18093390380E879
:101A9000C89FB0011124626060933A0380915102A3
:101AA00080933B038091520280933C0322E030E01C
:101AB00040E050E060E070E0CB0180D5C62F20E828
:101AC00030E040E050E060E070E0CB0177D5D62F09
:101AD00020E031E040E050E060E070E0CB016ED506
:101AE000862F90E09D2B0E94DF018CE180933503CF
:101AF00080E8C89FB0011124626060933603809132
:101B0000510280933703809152028093380322E080
:101B100030E040E050E060E070E0CB014FD5C62FF0
:101B200020E830E040E050E060E070E0CB0146D5D6
:101B3000162F24E630E040E050E060E070E0CB019A
:101B40003DD54B015C0122E030E040E050E060E038
:101B500070E0CB0133D5D62F612F70E080E090E0AC
:101B60000E94CD166B017C01B401882777FD80951A
:101B7000982F0E94CD1620E030E048EC52E40E94FD
:101B800032169B01AC01C701B6010E94CA15D111E2
:101B900090580E9494018DE180932F0380E8C89FA4
:101BA000B0011124646060933003809153028093EC
:101BB0003103809154028093320325E630E040E007
:101BC00050E060E070E0CB01F9D4C62F24E630E0AD
:101BD00040E050E060E070E0CB01F0D44B015C01EC
:101BE0006C2F70E080E090E00E94CD166B017C01CC
:101BF000B401882777FD8095982F0E94CD1620E0AC
:101C000030E048EC52E40E9432169B01AC01C7015F
:101C1000B601C0D70E949401809153028093330390
:101C2000809154028093340322E030E040E050E0A1
:101C300060E070E0CB01C2D4C62F20E430E040E089
:101C400050E060E070E0CB01B9D46B017C0120E092
:101C500031E040E050E060E070E0CB01AFD4D62F3F
:101C600020E031E040E050E060E070E0CB01A6D43D
:101C7000DD24EE24FF24FE2CED2CDC2CCC24CD0E18
:101C8000D11CE11CF11CFE2CED2CDC2CCC24C60E4E
:101C9000D11CE11CF11C22E030E040E050E060E0AB
:101CA00070E0CB018BD4662341F0F094E094D094A3
:101CB000C094C11CD11CE11CF11CC701B6010E94DB
:101CC0004E028EE180932A0380E8C89FB001112460
:101CD000636060932B0380914C0280932C0380916E
:101CE0004D0280932D0380914E0280932E038FE14D
:101CF0008093220386E8809323038CE0809324035F
:101D00008BE0809325038AE08093260389E080930B
:101D1000270388E08093280387E0809329038EEFD0
:101D20008093550284E8809356028FEF8093570288
:101D3000809358028093590280935A02DF91CF9189
:101D40001F91FF90EF90DF90CF90BF90AF909F904A
:101D50008F900895CF93DF9340915D0250E04B5FE9
:101D60005F4F6BE572E08EED93E082D00E945E04DF
:101D70000E9478026CE172E085E099E078D4CBE5CE
:101D8000D2E080915D0290E004969E012B55324096
:101D90008217930764F0699140E150E085E099E093
:101DA000CAD46AE272E085E099E061D4EACF68E2E1
:101DB00072E085E099E0DF91CF9159C48091F00401
:101DC00090E02091F104821B910908952091F10483
:101DD0008091F004281750F4E22FF0E0EE50FB4F12
:101DE000808190E02F5F2093F10408958FEF9FEFA3
:101DF0000895E091F1048091F004E81730F4F0E0E8
:101E0000EE50FB4F808190E008958FEF9FEF089593
:101E10000895E091EA03F091EB033097E1F03091FF
:101E2000F1042091F0043217B0F040E0242F30E0AC
:101E30002617370754F4DC01A20FB31F5C91D901B8
:101E4000AE50BB4F5C934F5FF1CF1092F1046093A3
:101E5000F004CB0119940895E091EC03F091ED03A7
:101E6000309729F01092F0031092EF03199408951F
:101E7000CF92DF92EF92FF920F931F93CF93DF9356
:101E80007C01CB018A012091EE03222389F0EB0132
:101E90006B01C40ED51ECC15DD0561F06991D7012B
:101EA000ED91FC910190F081E02DC7011995F3CFE0
:101EB000642F89D0C801DF91CF911F910F91FF90BE
:101EC000EF90DF90CF900895CF93DF931F92CDB71F
:101ED000DEB769832091EE032223D1F02091EF0336
:101EE0002F3F41F421E030E0FC013383228380E086
:101EF00090E014C08091F003E82FF0E0EF50FC4F29
:101F0000998190838F5F8093F0038093EF0304C0E7
:101F100061E0CE01019657D081E090E00F90DF9113
:101F2000CF910895FC011382128248EE53E060E0E5
:101F300070E0448355836683778380E392E09183E6
:101F4000808308951092F1041092F0041092F0032F
:101F50001092EF0318C0CF93DF93EC01862F2FD0A0
:101F60008CE29FE04AD089E09FE042D0CE01DF9131
:101F7000CF91E8CFF0CF7093ED036093EC03089519
:101F80008EED93E0CFCF1092FB0881E08093F908AB
:101F90001092F80861E084E1C6D161E085E1C3D127
:101FA000E9EBF0E080818E7F808380818D7F80836C
:101FB00088E48093B80085E48093BC000895880F7E
:101FC0008093BA0008952091FB08243079F460933F
:101FD000F206FC0184EF96E0DC012A2F281B26176D
:101FE00018F421912D93F9CF80E0089582E00895AF
:101FF0009093F5088093F40808959093F7088093E0
:10200000F608089585ED8093BC008091BC0084FDA6
:10201000FCCF1092FB08089585EC8093BC001092D1
:10202000FB0808951F920F920FB60F9211240BB662
:102030000F922F933F934F935F936F937F938F9361
:102040009F93AF93BF93EF93FF938091B900887FE5
:10205000803609F49CC068F5883209F45BC090F4BE
:10206000803109F454C038F4882309F4F3C088306F
:1020700009F44DC0F2C0883109F44CC0803209F433
:102080005DC0EBC0803409F468C048F4803309F4C3
:1020900055C0883309F0E1C08093F105A7C08035B1
:1020A00009F44FC0883509F45DC0883409F0D5C003
:1020B000D3C0883909F4C4C0A8F4883709F467C0CC
:1020C00038F4883609F463C0803709F460C0C5C0AD
:1020D000883809F4B5C0803909F45FC0803809F048
:1020E000BCC05BC0803B09F483C038F4803A09F47B
:1020F00066C0883A09F47CC0B0C0803C09F4A4C032
:10210000883C09F4A1C0883B09F487C0A6C080912F
:10211000FA0810C09091F4078091F307981770F5B2
:10212000E091F40781E08E0F8093F407F0E0EB502C
:10213000F84F80818093BB0085EC83C08093F105CC
:102140008BC0E091F40781E08E0F8093F4078091BB
:10215000BB00F0E0EB50F84F80839091F407809142
:10216000F3076BC0E091F40781E08E0F8093F407D2
:102170008091BB00F0E0EB50F84F80838091F9082C
:1021800081116AC081E08093F80884EA5EC083E030
:102190008093FB081092F205CFCF8091F2058F3F1C
:1021A00009F44EC0E091F20581E08E0F8093F205B4
:1021B0008091BB00F0E0ED50FA4F8083BDCF80915D
:1021C000F2058F3F31F0E091F205F0E0ED50FA4F6B
:1021D000108218DF6091F20570E0E091F408F09150
:1021E000F50883EF95E019951092F20515DF35C0DB
:1021F00084E08093FB081092F3061092F206E091BF
:10220000F608F091F70819958091F206811105C042
:1022100081E08093F2061092F406E091F30681E0EB
:102220008E0F8093F306F0E0EC50F94F808180939D
:10223000BB009091F3068091F206981708F47CCFCA
:1022400085E88093BC0009C085EC8093BC001092A7
:10225000FB0803C01092F105D5DEFF91EF91BF910D
:10226000AF919F918F917F916F915F914F913F912E
:102270002F910F900BBE0F900FBE0F901F901895CF
:1022800090E0FC013197E231F10508F04BC0EE58C7
:10229000FF4FD8C6809180008F7703C08091800067
:1022A0008F7D80938000089580918000877FF9CF93
:1022B00084B58F7702C084B58F7D84BD08958091E9
:1022C000B0008F7703C08091B0008F7D8093B00005
:1022D0000895809190008F7707C0809190008F7D46
:1022E00003C080919000877F809390000895809133
:1022F000A0008F7707C08091A0008F7D03C08091E0
:10230000A000877F8093A0000895809120018F779F
:1023100007C0809120018F7D03C080912001877FBD
:102320008093200108950F931F93CF93DF931F9203
:10233000CDB7DEB7282F30E0F901E85FFE4F84917A
:10234000F901E25BFE4F1491F901EC56FE4F049146
:102350000023C1F0882319F0698392DF6981E02F9F
:10236000F0E0EE0FFF1FE652FE4FA591B4919FB72C
:10237000F8948C91611103C01095812301C0812BC9
:102380008C939FBF0F90DF91CF911F910F91089574
:102390001F920F920FB60F9211242F933F938F939A
:1023A0009F93AF93BF938091FD089091FE08A091F9
:1023B000FF08B09100093091FC0823E0230F2D376E
:1023C00020F40196A11DB11D05C026E8230F029639
:1023D000A11DB11D2093FC088093FD089093FE0879
:1023E000A093FF08B0930009809101099091020920
:1023F000A0910309B09104090196A11DB11D80931C
:10240000010990930209A0930309B0930409BF91B5
:10241000AF919F918F913F912F910F900FBE0F9091
:102420001F9018953FB7F894809101099091020987
:10243000A0910309B091040926B5A89B05C02F3FC0
:1024400019F00196A11DB11D3FBF6627782F892F76
:102450009A2F620F711D811D911D42E0660F771F3B
:10246000881F991F4A95D1F70895CF92DF92EF9276
:10247000FF92CF93DF936B017C01D4DFEB01C1149A
:10248000D104E104F10479F083D3CCDF6C1B7D0B24
:10249000683E7340A0F381E0C81AD108E108F10852
:1024A000C851DC4FECCFDF91CF91FF90EF90DF90E0
:1024B000CF900895789484B5826084BD84B581609E
:1024C00084BD85B5826085BD85B5816085BDEEE63C
:1024D000F0E0808181608083E1E8F0E0108280811B
:1024E00082608083808181608083E0E8F0E0808189
:1024F00081608083E1EBF0E0808184608083E0EBA9
:10250000F0E0808181608083E1E9F0E08081826099
:102510008083808181608083E0E9F0E08081816058
:102520008083E1EAF0E08081826080838081816045
:102530008083E0EAF0E0808181608083E1E2F1E085
:10254000808182608083808181608083E0E2F1E02D
:10255000808181608083EAE7F0E08081846080830D
:1025600080818260808380818160808380818068B7
:1025700080831092C1000895CF93DF9300D01F9203
:10258000CDB7DEB79B01AC016115710581059105E1
:1025900059F069833A834B835C83C1D529813A81A1
:1025A0004B815C8133D503C060E070E0CB010F90BC
:1025B0000F900F900F90DF91CF910895CF92DF92FF
:1025C000EF92FF926B017C016217730784079507F6
:1025D0005CF4CA01B9016C197D098E099F09CCDF31
:1025E0006C0D7D1D8E1D9F1DFF90EF90DF90CF9095
:1025F0000895CF92DF92EF92FF920F931F93CF93A4
:10260000DF936C017A01EB01E60EF71E00E010E0AB
:10261000CE15DF0561F06991D601ED91FC91019035
:10262000F081E02DC6011995080F191FF1CFC801DF
:10263000DF91CF911F910F91FF90EF90DF90CF909E
:1026400008956115710581F0DB010D900020E9F717
:10265000AD0141505109461B570BDC01ED91FC9136
:102660000280F381E02D199480E090E00895E9CF95
:102670008F929F92AF92BF92CF92DF92EF92FF9292
:102680000F931F93CF93DF93CDB7DEB7A1970FB60C
:10269000F894DEBF0FBECDBF7C01C42EE52FCB0169
:1026A000D22E19A221E02D1510F02AE0D22E8E0193
:1026B0000F5D1F4F8D2C912CA12CB12C6C2D7E2FDA
:1026C000A501940181D48C2DD29E80191124015032
:1026D00011098A3014F4805D01C0895CF80180839F
:1026E000211531054105510521F0C22EE32FCA0104
:1026F000E5CFB801C701A5DFA1960FB6F894DEBFFC
:102700000FBECDBFDF91CF911F910F91FF90EF9042
:10271000DF90CF90BF90AF909F908F90089521153C
:10272000310541F4DC01ED91FC910190F081E02D47
:10273000642F19949DCF9A01462F50E060E070E01D
:10274000EECFFC01818D228D90E0805C9F4F821B3B
:1027500091098F7399270895FC01918D828D9817A7
:1027600031F0828DE80FF11D858D90E008958FEF97
:102770009FEF0895FC01918D828D981761F0828DF5
:10278000DF01A80FB11D5D968C91928D9F5F9F73A5
:10279000928F90E008958FEF9FEF08958CE795E179
:1027A000892B39F080E090E0892B19F0A5D18111B7
:1027B00025C080E090E0892B41F080E090E0892BFB
:1027C00021F00E94000081111CC080E090E0892B64
:1027D00041F080E090E0892B21F00E9400008111FF
:1027E00013C080E090E0892BA1F080E090E0892B7D
:1027F00081F00E94000081110AC008950E9400002B
:10280000D8CF0E940000E1CF0E940000EACF0C94D4
:1028100000000895FC01848DDF01A80FB11DA35AAB
:10282000BF4F2C91848D90E001968F739927848FF0
:10283000A689B7892C93A089B1898C9180648C93E7
:10284000938D848D981306C00288F389E02D8081D2
:102850008F7D80830895CF93DF93EC01888D88234B
:10286000C1F0EA89FB89808185FD05C0A889B98905
:102870008C9186FD0EC00FB607FCF5CF808185FFD9
:10288000F2CFA889B9898C9185FFEDCFCE01C2DF47
:10289000E8CFDF91CF910895CF92DF92FF920F930F
:1028A0001F93CF93DF931F92CDB7DEB76C0181E00A
:1028B000D60158968C9358975B969C915B975C9643
:1028C0008C915C97981307C05096ED91FC915197AD
:1028D000808185FD2DC0F601038D10E00F5F1F4F35
:1028E0000F731127F02EF601848DF81210C00FB669
:1028F00007FCF9CFD6015096ED91FC91519780815C
:1029000085FFF1CFC601698385DF6981ECCF838DB7
:10291000E80FF11DE35AFF4F6083D6015B960C93DD
:102920005B975296ED91FC915397808180620CC029
:10293000D6015696ED91FC91579760835096ED9194
:10294000FC91519780818064808381E090E00F90BA
:10295000DF91CF911F910F91FF90DF90CF9008955D
:10296000BF92CF92DF92EF92FF92CF93DF93EC0171
:102970006A017B01B22EE889F98982E080834115E2
:1029800081EE58076105710599F060E079E08DE30B
:1029900090E0A701960118D321503109410951094E
:1029A0005695479537952795211580E1380790F082
:1029B000E889F989108260E874E88EE190E0A70167
:1029C000960102D321503109410951095695479585
:1029D00037952795EC85FD853083EE85FF8520832F
:1029E000188EEC89FD89B082EA89FB89808180613B
:1029F0008083EA89FB89808188608083EA89FB89FA
:102A0000808180688083EA89FB8980818F7D8083D3
:102A1000DF91CF91FF90EF90DF90CF90BF9008951E
:102A2000089548DDFDDF0E942E01CEECD3E10E9427
:102A300062012097E1F3B2DEFACF1F920F920FB638
:102A40000F9211240BB60F922F938F939F93EF93B6
:102A5000FF93E0911509F09116098081E0911B091F
:102A6000F0911C0982FD12C0908180911E098F5F38
:102A70008F7320911F09821751F0E0911E09F0E039
:102A8000EB5FF64F958F80931E0901C08081FF9107
:102A9000EF919F918F912F910F900BBE0F900FBED2
:102AA0000F901F9018951F920F920FB60F9211243E
:102AB0000BB60F922F933F934F935F936F937F9338
:102AC0008F939F93AF93BF93EF93FF9385E099E02C
:102AD000A1DEFF91EF91BF91AF919F918F917F9177
:102AE0006F915F914F913F912F910F900BBE0F907F
:102AF0000FBE0F901F90189585E099E022DE21E02F
:102B0000892B09F420E0822F089510920809109271
:102B1000070988EE93E0A0E0B0E080930909909364
:102B20000A09A0930B09B0930C0980E492E09093FA
:102B300006098093050985EC90E090931209809333
:102B4000110984EC90E0909314098093130980ECB0
:102B500090E0909316098093150981EC90E0909392
:102B600018098093170982EC90E090931A098093DA
:102B7000190986EC90E090931C0980931B09109230
:102B80001E0910921F091092200910922109089520
:102B900008955058BB27AA270ED075C166D130F0D2
:102BA0006BD120F031F49F3F11F41EF45BC10EF4A1
:102BB000E095E7FB51C1E92F77D180F3BA1762079F
:102BC00073078407950718F071F49EF58FC10EF412
:102BD000E0950B2EBA2FA02D0B01B90190010C012D
:102BE000CA01A0011124FF27591B99F0593F50F445
:102BF000503E68F11A16F040A22F232F342F44279D
:102C0000585FF3CF469537952795A795F040539594
:102C1000C9F77EF41F16BA0B620B730B840BBAF064
:102C20009150A1F0FF0FBB1F661F771F881FC2F7CF
:102C30000EC0BA0F621F731F841F48F487957795E3
:102C40006795B795F7959E3F08F0B3CF9395880F9A
:102C500008F09927EE0F979587950895D9D008F435
:102C600081E008950CD00FC107D140F0FED030F0C4
:102C700021F45F3F19F0F0C0511139C1F3C014D1F4
:102C800098F39923C9F35523B1F3951B550BBB2733
:102C9000AA2762177307840738F09F5F5F4F220FE0
:102CA000331F441FAA1FA9F333D00E2E3AF0E0E8D9
:102CB00030D091505040E695001CCAF729D0FE2F25
:102CC00027D0660F771F881FBB1F261737074807B7
:102CD000AB07B0E809F0BB0B802DBF01FF2793586D
:102CE0005F4F2AF09E3F510568F0B6C000C15F3FBC
:102CF000ECF3983EDCF3869577956795B795F79555
:102D00009F5FC9F7880F911D9695879597F908954C
:102D1000E1E0660F771F881FBB1F621773078407E8
:102D2000BA0720F0621B730B840BBA0BEE1F88F7F7
:102D3000E095089504D06894B111D9C00895BCD02D
:102D400088F09F5790F0B92F9927B751A0F0D1F094
:102D5000660F771F881F991F1AF0BA95C9F712C01E
:102D6000B13081F0C3D0B1E00895C0C0672F782F93
:102D70008827B85F39F0B93FCCF38695779567958A
:102D8000B395D9F73EF490958095709561957F4FF6
:102D90008F4F9F4F0895E89409C097FB3EF490959C
:102DA0008095709561957F4F8F4F9F4F9923A9F024
:102DB000F92F96E9BB279395F695879577956795B3
:102DC000B795F111F8CFFAF4BB0F11F460FF1BC0F7
:102DD0006F5F7F4F8F4F9F4F16C0882311F096E98A
:102DE00011C0772321F09EE8872F762F05C0662338
:102DF00071F096E8862F70E060E02AF09A95660FF1
:102E0000771F881FDAF7880F9695879597F90895A9
:102E1000990F0008550FAA0BE0E8FEEF16161706EB
:102E2000E807F907C0F012161306E407F50798F053
:102E3000621B730B840B950B39F40A2661F0232B6C
:102E4000242B252B21F408950A2609F4A140A695E8
:102E50008FEF811D811D089597F99F6780E870E0CD
:102E600060E008959FEF80EC089500240A94161600
:102E7000170618060906089500240A941216130668
:102E8000140605060895092E0394000C11F48823F6
:102E900052F0BB0F40F4BF2B11F460FF04C06F5F12
:102EA0007F4F8F4F9F4F089557FD9058440F551FE8
:102EB00059F05F3F71F04795880F97FB991F61F0BC
:102EC0009F3F79F087950895121613061406551F33
:102ED000F2CF4695F1DF08C0161617061806991F9F
:102EE000F1CF86957105610508940895E894BB2794
:102EF00066277727CB0197F908958ADF08F48FEFCB
:102F000008950BD0C0CFB1DF28F0B6DF18F09523BD
:102F100009F0A2CFA7CF1124EACFC6DFA0F3959F77
:102F2000D1F3950F50E0551F629FF001729FBB27B0
:102F3000F00DB11D639FAA27F00DB11DAA1F649F5C
:102F40006627B00DA11D661F829F2227B00DA11D0F
:102F5000621F739FB00DA11D621F839FA00D611D95
:102F6000221F749F3327A00D611D231F849F600DB6
:102F7000211D822F762F6A2F11249F5750408AF0EF
:102F8000E1F088234AF0EE0FFF1FBB1F661F771F7B
:102F9000881F91505040A9F79E3F510570F05CCFBB
:102FA000A6CF5F3FECF3983EDCF386957795679567
:102FB000B795F795E7959F5FC1F7FE2B880F911D99
:102FC0009695879597F90895A1E21A2EAA1BBB1B27
:102FD000FD010DC0AA1FBB1FEE1FFF1FA217B307E5
:102FE000E407F50720F0A21BB30BE40BF50B661FFB
:102FF000771F881F991F1A9469F7609570958095BF
:1030000090959B01AC01BD01CF010895052E97FB62
:1030100016F400940FD057FD05D0D6DF07FC02D080
:1030200046F408C050954095309521953F4F4F4F3D
:103030005F4F089590958095709561957F4F8F4F64
:103040009F4F0895EE0FFF1F0590F491E02D199406
:103050000DD0A59F900DB49F900DA49F800D911D44
:10306000112408950790F691E02D1994A29FB001C4
:10307000B39FC001A39F700D811D1124911DB29FAC
:10308000700D811D1124911D08958F929F92AF9212
:10309000BF92CF92DF92EF92FF92CF93DF93EC013A
:1030A000688179818A819B8161157105810591050E
:1030B00021F464E279ED8BE597E02DE133EF41E017
:1030C00050E0A4DF49015A019B01AC01A7EAB1E439
:1030D000BFDF6B017C01ACEEB4EFA50194012DD0F4
:1030E000C60ED71EE81EF91EF7FE06C081E0C81AFC
:1030F000D108E10880E8F80AC882D982EA82FB8216
:10310000C701B6019F77DF91CF91FF90EF90DF90DD
:10311000CF90BF90AF909F908F900895B6CF80E0F2
:1031200092E0B3CF60930002709301028093020299
:10313000909303020895B7FF8BCF8ADF821B930B16
:063140000895F894FFCF92
:103146000100000054686973206973207468652063
:10315600656D756C61746F722E2E2E0052657175D9
:1031660065737420726376640A0020000000000014
:10317600640F380FDE0EE60EF90E080F0000000091
:0C3186004C14F912A113BA13AC132B1453
:00000001FF
