:10000000D2C00000FEC00000FCC00000FAC000002A
:10001000F8C00000F6C00000F4C00000F2C000000C
:10002000F0C00000EEC00000ECC00000EAC000001C
:10003000E8C00000E6C00000E4C00000E2C000002C
:10004000E0C00000DEC00000DCC00000DAC000003C
:10005000D8C00000D6C00000D4C0000029C20000F3
:10006000D0C00000E4C4000018C50000CAC00000F1
:10007000C8C00000C6C00000C4C00000C2C000006C
:10008000C0C00000BEC00000BCC00000BAC000007C
:10009000B8C00000B6C00000B4C00000B2C000008C
:1000A000B0C00000AEC00000ACC00000AAC000009C
:1000B000A8C00000A6C00000A4C00000A2C00000AC
:1000C000A0C000009EC000009CC000009AC00000BC
:1000D00098C0000096C0000094C0000092C00000CC
:1000E00090C00000010210202008081020401020BD
:1000F00040800201020108040201010204081020EC
:1001000040808040201008040201800402018040E9
:100110002010080402010804020101020408102052
:1001200040800102040810204080050505050705F0
:1001300008080808020202020A0A08080404040463
:10014000010101010101010103030303030303038F
:10015000040707070C0C0C0C0C0C0C0C020202021E
:1001600006060606060606060B0B0B0B0B0B0B0B07
:1001700000002200250028002B002E003100340052
:1001800002010000050108010B010000210024000C
:1001900027002A002D003000330001010000040177
:1001A00007010A017F0511241FBECFEFD1E2DEBF98
:1001B000CDBF00E00CBF12E0A0E0B2E0E2E0FCE066
:1001C00000E00BBF02C007900D92A634B107D9F72B
:1001D00022E0A6E4B2E001C01D92AD3EB207E1F715
:1001E00011E0C6EAD1E000E005C022970109FE0156
:1001F0000BBFEBD4C43AD10780E00807B1F74DD26A
:10020000FEC4FECE0895F5E5F53509F044C0FAEADE
:10021000FA3A09F040C0E5E5E53509F03CC0EAEA04
:10022000EA3A09F038C0FD2FD5E5D53509F033C0DD
:10023000DAEADA3A09F02FC0DF2FFC2FC5E5C53521
:1002400009F029C0CAEACA3A09F025C0CF2FB5E59E
:10025000B53509F020C0BAEABA3A09F01CC0A5E5E4
:10026000A53509F018C0AAEAAA3A09F014C0E0E0DE
:10027000F0E095E5908390E09081953509F00BC012
:100280009AEA908390E091919A3A09F004C0E9319A
:1002900081F7112400C081E008957EB76DB785E530
:1002A0008DBF8DB7853509F017C08AEA8DBF8DB730
:1002B0008A3A09F011C097E095759EBF8EB78917ED
:1002C00009F00AC097E09A7A9EBF8EB7891709F0A5
:1002D00003C07EBF6DBF00C081E008959FB785E574
:1002E0008FBF8FB79FBF853541F48FB79AEA9FBF05
:1002F0009FB78FBF81E09A3A09F080E00895CF93CD
:10030000DF931F921F92CDB7DEB7E0E6F0E095E5F0
:100310002AEA80818983908380818A838A818535D6
:1003200011F080E00DC0208380818A838A818A3A1F
:10033000C1F789818193E0368AE0F80751F781E0BF
:100340000F900F90DF91CF910895089591E080E094
:1003500024B7292321F4990F8F5F8630C9F714BE83
:100360000895F89483B7817F846083BF83B78160E9
:1003700083BF83B7816083BF889583B78E7F83BF38
:100380006AE070E080E090E000C1CF93DF93C82F77
:10039000D62F81E090E01DD4C81721F06C2F81E0AA
:1003A00090E01FD46AE070E080E090E0EED0DD23C2
:1003B00011F0D7DFFECF81E080934602DF91CF912D
:1003C0000895C4DF88E10FB6F8948093600010921E
:1003D00060000FBE18DF811103C061E081E0D5DF4E
:1003E0005CDF811103C061E082E0CFDF77DF811144
:1003F00003C061E083E0C9DF82DF811103C061E0F7
:1004000084E0C3DF60E47FE180E090E0BED09DDF68
:10041000811103C060E088E0B8CF089526E040E095
:1004200052EC61E070E080E592E0A1D261E08DE005
:1004300006D0C7DF6BE172E080E592E079C1CF932F
:10044000DF9390E0FC01EC51FF4F2491FC01E65D4D
:10045000FE4F8491882349F190E0880F991FFC0199
:10046000E657FE4FA591B49180599E4FFC01C5916E
:10047000D4919FB7611108C0F8948C912095822384
:100480008C93888182230AC0623051F4F8948C9155
:10049000322F309583238C938881822B888304C0EC
:1004A000F8948C91822B8C939FBFDF91CF9108950C
:1004B0001F920F920FB60F9211242F933F938F9399
:1004C0009F93AF93BF938091480290914902A0916E
:1004D0004A02B0914B023091470223E0230F2D379F
:1004E00020F40196A11DB11D05C026E8230F029638
:1004F000A11DB11D209347028093480290934902A9
:10050000A0934A02B0934B0280914C0290914D020D
:10051000A0914E02B0914F020196A11DB11D809392
:100520004C0290934D02A0934E02B0934F02BF91A4
:10053000AF919F918F913F912F910F900FBE0F9090
:100540001F9018953FB7F89480914C0290914D02FE
:10055000A0914E02B0914F0226B5A89B05C02F3F37
:1005600019F00196A11DB11D3FBF6627782F892F75
:100570009A2F620F711D811D911D42E0660F771F3A
:10058000881F991F4A95D1F70895CF92DF92EF9275
:10059000FF92CF93DF936B017C01D4DFEB01C11499
:1005A000D104E104F10479F0EDD2CCDF6C1B7D0BBA
:1005B000683E7340A0F381E0C81AD108E108F10851
:1005C000C851DC4FECCFDF91CF91FF90EF90DF90DF
:1005D000CF900895789484B5826084BD84B581609D
:1005E00084BD85B5826085BD85B5816085BDEEE63B
:1005F000F0E0808181608083E1E8F0E0108280811A
:1006000082608083808181608083E0E8F0E0808187
:1006100081608083E1EBF0E0808184608083E0EBA7
:10062000F0E0808181608083E1E9F0E08081826098
:100630008083808181608083E0E9F0E08081816057
:100640008083E1EAF0E08081826080838081816044
:100650008083E0EAF0E0808181608083E1E2F1E084
:10066000808182608083808181608083E0E2F1E02C
:10067000808181608083EAE7F0E08081846080830C
:1006800080818260808380818160808380818068B6
:1006900080831092C100089508959CDFFDDFBEDEC7
:1006A000C5EDD3E0AFDD2097E9F37FD0FBCFCF924C
:1006B000DF92EF92FF920F931F93CF93DF936C0122
:1006C0007A01EB01E60EF71E00E010E0CE15DF0523
:1006D00061F06991D601ED91FC910190F081E02DDE
:1006E000C6011995080F191FF1CFC801DF91CF91ED
:1006F0001F910F91FF90EF90DF90CF9008956115BB
:10070000710581F0DB010D900020E9F7AD0141504A
:100710005109461B570BDC01ED91FC910280F381DE
:10072000E02D199480E090E0089565E272E0E7CF53
:100730000F931F93CF93DF93EC01E1DF8C01CE0188
:10074000F4DF800F911FDF91CF911F910F910895DA
:10075000FC01818D228D90E0805C9F4F821B91096E
:100760008F7399270895FC01918D828D981731F030
:10077000828DE80FF11D858D90E008958FEF9FEF3A
:100780000895FC01918D828D981761F0828DDF01B3
:10079000A80FB11D5D968C91928D9F5F9F73928F74
:1007A00090E008958FEF9FEF089586E795E0892BFD
:1007B00039F080E090E0892B19F098D1811125C0A3
:1007C00080E090E0892B41F080E090E0892B21F0DF
:1007D0000E94000081111CC080E090E0892B41F054
:1007E00080E090E0892B21F00E940000811113C06D
:1007F00080E090E0892BA1F080E090E0892B81F0EF
:100800000E94000081110AC008950E940000D8CF04
:100810000E940000E1CF0E940000EACF0C9400008B
:100820000895FC01848DDF01A80FB11DA35ABF4FAD
:100830002C91848D90E001968F739927848FA689DF
:10084000B7892C93A089B1898C9180648C93938D06
:10085000848D981306C00288F389E02D80818F7DF6
:1008600080830895CF93DF93EC01888D8823C1F0B6
:10087000EA89FB89808185FD05C0A889B9898C91A9
:1008800086FD0EC00FB607FCF5CF808185FFF2CF45
:10089000A889B9898C9185FFEDCFCE01C2DFE8CF61
:1008A000DF91CF910895CF92DF92FF920F931F9324
:1008B000CF93DF931F92CDB7DEB76C0181E0D601F5
:1008C00058968C9358975B969C915B975C968C910D
:1008D0005C97981307C05096ED91FC9151978081D9
:1008E00085FD2DC0F601038D10E00F5F1F4F0F73C4
:1008F0001127F02EF601848DF81210C00FB607FCF8
:10090000F9CFD6015096ED91FC915197808185FFEA
:10091000F1CFC601698385DF6981ECCF838DE80F54
:10092000F11DE35AFF4F6083D6015B960C935B97F2
:100930005296ED91FC915397808180620CC0D60154
:100940005696ED91FC91579760835096ED91FC91EE
:10095000519780818064808381E090E00F90DF91E7
:10096000CF911F910F91FF90DF90CF900895BF928C
:10097000CF92DF92EF92FF92CF93DF93EC016A0167
:100980007B01B22EE889F98982E08083411581EEEE
:1009900058076105710599F060E079E08DE390E01A
:1009A000A7019601F0D0215031094109510956950E
:1009B000479537952795211580E1380790F0E8890C
:1009C000F989108260E874E88EE190E0A701960151
:1009D000DAD021503109410951095695479537958B
:1009E0002795EC85FD853083EE85FF852083188E65
:1009F000EC89FD89B082EA89FB89808180618083EE
:100A0000EA89FB89808188608083EA89FB8980810B
:100A100080688083EA89FB8980818F7D8083DF9174
:100A2000CF91FF90EF90DF90CF90BF9008951F92ED
:100A30000F920FB60F9211240BB60F922F938F9334
:100A40009F93EF93FF93E0916002F09161028081A8
:100A5000E0916602F091670282FD12C09081809160
:100A600069028F5F8F7320916A02821751F0E091C3
:100A70006902F0E0E05BFD4F958F8093690201C051
:100A80008081FF91EF919F918F912F910F900BBEDD
:100A90000F900FBE0F901F9018951F920F920FB6D8
:100AA0000F9211240BB60F922F933F934F935F93A6
:100AB0006F937F938F939F93AF93BF93EF93FF9326
:100AC00080E592E0AEDEFF91EF91BF91AF919F91F3
:100AD0008F917F916F915F914F913F912F910F90E7
:100AE0000BBE0F900FBE0F901F90189580E592E0FF
:100AF0002FDE21E0892B09F420E0822F0895109247
:100B000053021092520288EE93E0A0E0B0E080938E
:100B1000540290935502A0935602B09357028AE371
:100B200092E0909351028093500285EC90E0909374
:100B30005D0280935C0284EC90E090935F0280936E
:100B40005E0280EC90E0909361028093600281EC01
:100B500090E0909363028093620282EC90E0909325
:100B600065028093640286EC90E090936702809324
:100B700066021092690210926A0210926B02109241
:100B80006C0208950895A1E21A2EAA1BBB1BFD0159
:100B90000DC0AA1FBB1FEE1FFF1FA217B307E4075C
:100BA000F50720F0A21BB30BE40BF50B661F771FB4
:100BB000881F991F1A9469F7609570958095909594
:100BC0009B01AC01BD01CF0108950790F691E02D86
:100BD0001994F999FECF92BD81BDF89A992780B5F5
:100BE0000895262FF999FECF1FBA92BD81BD20BD71
:100BF0000FB6F894FA9AF99A0FBE01960895F894F0
:020C0000FFCF24
:100C02006E6F74207761746368646F6720726573B6
:100C1200657400656E61626C656400504F535420C8
:100C2200646F6E65000D0A006E616E00696E66008B
:100C32006F7666002E000000000053045703A803DD
:060C4200C103B3033204FC
:00000001FF
