:100000000C9476010C9479060C94A7010C94A7012A
:100010000C94A7010C94A7010C94A7010C94A701C0
:100020000C94A7010C94A7010C94012C0C94CD2ADC
:100030000C94A7010C94A7010C94A7010C94A701A0
:100040000C94A7010C94A7010C94A7010C94A70190
:100050000C9469060C94A7010C94A7010C94C62675
:100060000C94A7010C94221E0C94A7010C94A701D8
:100070000C94A7010C94A7010C94A7010C94A70160
:100080000C94A7010C94A7010C94A7010C94A70150
:100090000C9402200C94A7010C94A7010C94A701C6
:1000A0000C94A7010C94A7010C94A70109260C2617
:1000B000FB25FF2505262D262D262D261026142668
:1000C00018261E2622262D262826070605040100AE
:1000D000080A0B0C0D090000000200090F000003C4
:1000E0000401000C000000000000000000000000FF
:1000F00000000000040802011040804010204080F1
:10010000408008020401804020100201108010206D
:100110004040040404040403040502020202040330
:100120000202020206060606060604040202020491
:10013000000000002300260029002C002F000000F2
:100140000000250028002B002E00310000000000D8
:10015000240027002A002D003000080B00020202B4
:100160000100090400000102020000052400100142
:1001700005240101010424020605240600010705E7
:10018000810310004009040100020A000000070575
:1001900002024000000705830240000000C1808188
:1001A000C11201000202000040412337800001011A
:1001B00002000112010002000000404123378000CC
:1001C000010102000141726475696E6F204C4C435D
:1001D0000041726475696E6F204D6963726F00042F
:1001E00003090400000000000000002A2B28000082
:1001F00000000000000000000000000000000000FF
:100200000000002C9EB4A0A1A2A434A6A7A5AE36DF
:100210002D3738271E1F20212223242526B333B64D
:100220002EB7B89F8485868788898A8B8C8D8E8F20
:10023000909192939495969798999A9B9C9D2F3123
:1002400030A3AD350405060708090A0B0C0D0E0F87
:10025000101112131415161718191A1B1C1DAFB103
:10026000B0B50009040200010300000009210101EA
:100270000001226500070584034000010501090211
:10028000A1010901A1008501050919012903150032
:10029000250195037501810295017505810305010D
:1002A0000930093109381581257F750895038106C4
:1002B000C0C005010906A1018502050719E029E76B
:1002C00015002501750195088102950175088103C6
:1002D0009506750815002565050719002965810033
:1002E000C0003316201FD024B428AD2D11241FBE0A
:1002F000CFEFDAE0DEBFCDBF14BE88E10FB6F894D1
:1003000080936000109260000FBE11E0A0E0B1E0A9
:10031000E4E8FDE602C005900D92A23EB107D9F7D0
:1003200023E0A2EEB1E001C01D92A436B207E1F7CE
:1003300012E0CCEED2E004C02297FE010E944933C5
:10034000C23ED107C9F70E94BB2D0C94C0360C9455
:100350000000DC01ED91FC910190F081E02D099409
:100360001F93CF93DF9385E192E00E94D8210E94F2
:10037000E3317093F9016093F80185E192E00E9406
:1003800060210E94E831162F6093F70180E390E02E
:100390000E943F36C091F801D091F9018C179D075A
:1003A000BCF48EE290E00E943F36C817D90784F46F
:1003B00087E190E00E943136811750F486E190E0A9
:1003C0000E94313691E0181708F090E0892F01C0A3
:1003D00080E0DF91CF911F9108951F93CF93DF931A
:1003E00085E192E00E94D8210E94E3317093F901E7
:1003F0006093F80185E192E00E9460210E94E8315B
:10040000162F6093F70184E390E00E943F36C0917D
:10041000F801D091F9018C179D07BCF482E390E0BC
:100420000E943F36C817D90784F489E190E00E9402
:100430003136811750F488E190E00E94313691E026
:10044000181708F090E0892F01C080E0DF91CF916C
:100450001F910895CF93DF93C82F0E949D26D82F18
:1004600064E170E080E090E00E943F278C2F0E94C2
:100470009D26D81318C062E070E080E090E00E94F2
:100480003F278C2F0E949D26D82F64E170E080E0EA
:1004900090E00E943F278C2F0E949D2691E0D81368
:1004A00003C090E001C091E0892FDF91CF910895C2
:1004B000CF93DF938230E9F0833091F1813009F0FE
:1004C00045C084E10E94C027EC019093EC01809329
:1004D000EB0184E290E00E943F368C179D07B0F557
:1004E00082E290E00E943F36C817D90778F581E094
:1004F0002EC085E10E94C027EC019093E801809313
:10050000E70180E290E00E943F368C179D07F0F4EF
:100510008EE190E00E943F36C817D90740F316C01D
:1005200086E10E94C027EC019093E4018093E301EF
:100530008CE190E00E943F368C179D0738F48AE1E9
:1005400090E00E943F36C817D90788F280E0DF911B
:10055000CF910895CF93DF9382E10E94C027EC01F1
:100560009093F4018093F3018CE290E00E943F3677
:100570008C179D0758F48AE290E00E943F3621E0F4
:10058000C817D90708F020E0822F01C080E0DF9172
:10059000CF910895CF93DF9383E10E94C027EC01B0
:1005A0009093F0018093EF0188E290E00E943F3643
:1005B0008C179D0758F486E290E00E943F3621E0B8
:1005C000C817D90708F020E0822F01C080E0DF9132
:1005D000CF910895CF93C82F60E00E94672660ED09
:1005E00077E080E090E00E943F2761E08C2FCF9180
:1005F0000C946726CF93DF93EC0163E289EF92E0DE
:100600000E9491306AE070E080E090E00E943F2715
:10061000BE0189EF92E0DF91CF910C947F30CF93B0
:10062000DF93CDB7DEB762970FB6F894DEBF0FBE8B
:10063000CDBF63ED71E0CE010D960E943C2E60E4CB
:1006400089EF92E00E9491306AE070E080E090E0F3
:100650000E943F270E94D025AB01BC012AE0CE01B9
:1006600007960E940F2FBE01695F7F4FCE01019652
:100670000E94692E6CE2CE0101960E94822FBC017D
:10068000CE010D960E94682FCE0101960E94CE2DBC
:10069000CE0107960E94CE2D87E10E94C0274AE036
:1006A000BC01CE0107960E94B72EBE01695F7F4F45
:1006B000CE0101960E94692E6CE2CE0101960E9445
:1006C000822FBC01CE010D960E94682FCE010196AB
:1006D0000E94CE2DCE0107960E94CE2D6091FA0188
:1006E0007091FB014AE0CE0107960E94E32EBE0105
:1006F000695F7F4FCE0101960E94692E6CE2CE01A8
:1007000001960E94822FBC01CE010D960E94682F97
:10071000CE0101960E94CE2DCE0107960E94CE2DCD
:100720006091F8017091F9014AE0CE0107960E94AC
:10073000B72EBE01695F7F4FCE0101960E94692EE0
:100740006CE2CE0101960E94822FBC01CE010D9673
:100750000E94682FCE0101960E94CE2DCE010796F1
:100760000E94CE2D4AE06091F701CE0107960E94CB
:100770008A2EBE01695F7F4FCE0101960E94692ECD
:100780006CE2CE0101960E94822FBC01CE010D9633
:100790000E94682FCE0101960E94CE2DCE010796B1
:1007A0000E94CE2D6091F5017091F6014AE0CE01D4
:1007B00007960E94E32EBE01695F7F4FCE0101962E
:1007C0000E94692E6CE2CE0101960E94822FBC012C
:1007D000CE010D960E94682FCE0101960E94CE2D6B
:1007E000CE0107960E94CE2D6091F3017091F40125
:1007F0004AE0CE0107960E94E32EBE01695F7F4F5B
:10080000CE0101960E94692E6CE2CE0101960E94F3
:10081000822FBC01CE010D960E94682FCE01019659
:100820000E94CE2DCE0107960E94CE2D88E090E04A
:100830000E9431364AE0882319F061E070E002C07E
:1008400060E070E0CE0107960E94B72EBE01695F9E
:100850007F4FCE0101960E94692E6CE2CE01019677
:100860000E94822FBC01CE010D960E94682FCE01FE
:1008700001960E94CE2DCE0107960E94CE2D60914A
:10088000130270E04AE0CE0107960E94B72EBE0127
:10089000695F7F4FCE0101960E94692E6CE2CE0106
:1008A00001960E94822FBC01CE010D960E94682FF6
:1008B000CE0101960E94CE2DCE0107960E94CE2D2C
:1008C0006091F1017091F2014AE0CE0107960E9419
:1008D000E32EBE01695F7F4FCE0101960E94692E13
:1008E0006CE2CE0101960E94822FBC01CE010D96D2
:1008F0000E94682FCE0101960E94CE2DCE01079650
:100900000E94CE2D6091EF017091F0014AE0CE017E
:1009100007960E94E32EBE01695F7F4FCE010196CC
:100920000E94692E6CE2CE0101960E94822FBC01CA
:10093000CE010D960E94682FCE0101960E94CE2D09
:10094000CE0107960E94CE2D87E090E00E943136BE
:100950004AE0882319F061E070E002C060E070E0D6
:10096000CE0107960E94B72EBE01695F7F4FCE0170
:1009700001960E94692E6CE2CE0101960E94822FA0
:10098000BC01CE010D960E94682FCE0101960E94F7
:10099000CE2DCE0107960E94CE2D6091120270E0FE
:1009A0004AE0CE0107960E94B72EBE01695F7F4FD5
:1009B000CE0101960E94692E6CE2CE0101960E9442
:1009C000822FBC01CE010D960E94682FCE010196A8
:1009D0000E94CE2DCE0107960E94CE2D6091ED0192
:1009E0007091EE014AE0CE0107960E94E32EBE010F
:1009F000695F7F4FCE0101960E94692E6CE2CE01A5
:100A000001960E94822FBC01CE010D960E94682F94
:100A1000CE0101960E94CE2DCE0107960E94CE2DCA
:100A20006091EB017091EC014AE0CE0107960E94C3
:100A3000E32EBE01695F7F4FCE0101960E94692EB1
:100A40006CE2CE0101960E94822FBC01CE010D9670
:100A50000E94682FCE0101960E94CE2DCE010796EE
:100A60000E94CE2D86E090E00E9431364AE0882335
:100A700019F061E070E002C060E070E0CE0107961E
:100A80000E94B72EBE01695F7F4FCE0101960E9482
:100A9000692E6CE2CE0101960E94822FBC01CE012C
:100AA0000D960E94682FCE0101960E94CE2DCE0198
:100AB00007960E94CE2D6091110270E04AE0CE01AF
:100AC00007960E94B72EBE01695F7F4FCE01019647
:100AD0000E94692E6CE2CE0101960E94822FBC0119
:100AE000CE010D960E94682FCE0101960E94CE2D58
:100AF000CE0107960E94CE2D6091E9017091EA0126
:100B00004AE0CE0107960E94E32EBE01695F7F4F47
:100B1000CE0101960E94692E6CE2CE0101960E94E0
:100B2000822FBC01CE010D960E94682FCE01019646
:100B30000E94CE2DCE0107960E94CE2D6091E70136
:100B40007091E8014AE0CE0107960E94E32EBE01B3
:100B5000695F7F4FCE0101960E94692E6CE2CE0143
:100B600001960E94822FBC01CE010D960E94682F33
:100B7000CE0101960E94CE2DCE0107960E94CE2D69
:100B800085E090E00E9431364AE0882319F061E068
:100B900070E002C060E070E0CE0107960E94B72EC0
:100BA000BE01695F7F4FCE0101960E94692E6CE203
:100BB000CE0101960E94822FBC01CE010D960E94AB
:100BC000682FCE0101960E94CE2DCE0107960E947D
:100BD000CE2D6091100270E04AE0CE0107960E948F
:100BE000B72EBE01695F7F4FCE0101960E94692E2C
:100BF0006CE2CE0101960E94822FBC01CE010D96BF
:100C00000E94682FCE0101960E94CE2DCE0107963C
:100C10000E94CE2D6091E5017091E6014AE0CE017F
:100C200007960E94E32EBE01695F7F4FCE010196B9
:100C30000E94692E6CE2CE0101960E94822FBC01B7
:100C4000CE010D960E94682FCE0101960E94CE2DF6
:100C5000CE0107960E94CE2D6091E3017091E401D0
:100C60004AE0CE0101960E94E32EBE016F5F7F4FE6
:100C7000CE010D960E94682FCE0101960E94CE2DC6
:100C8000BE01635F7F4F89EF92E00E947F30CE010B
:100C90000D960E94CE2D62960FB6F894DEBF0FBE61
:100CA000CDBFDF91CF91089568E289EF92E00E9475
:100CB00091306AE070E080E090E00E943F270E945F
:100CC000D025AB01BC012AE030E089EF92E00C9422
:100CD0006B311F920F920FB60F9211248F93A8952C
:100CE00081E0809318028F910F900FBE0F901F909C
:100CF00018951F920F920FB60F9211248F931DBA61
:100D000081E08093E2018F910F900FBE0F901F90B2
:100D10001895F89483B7817F846083BF83B781601F
:100D200083BF83B7816083BF889583B78E7F83BF7E
:100D3000FFCFEF92FF920F931F93CF93DF93CDB727
:100D4000DEB7C25DD1090FB6F894DEBF0FBECDBFCE
:100D500064E289EF92E00E94913063ED71E0CE0190
:100D600083539F4F0E943C2E41E269EF72E0CE0117
:100D700001960E940030BE016F5F7F4FCE0183530A
:100D80009F4F0E94522ECE0101960E94CE2DCF522F
:100D9000DF4F88819981C15DD040892B09F45AC603
:100DA00063ED71E0CE0189539F4F0E943C2E63EDAD
:100DB00071E0CE018F539F4F0E943C2E63ED71E096
:100DC000CE0185549F4F0E943C2E63ED71E0CE0111
:100DD0008B549F4F0E943C2E63ED71E0CE018155F4
:100DE0009F4F0E943C2E63ED71E0CE0187559F4FCF
:100DF0000E943C2E63ED71E0CE018D559F4F0E9405
:100E00003C2E63ED71E0CE0183569F4F0E943C2E35
:100E100063ED71E0CE0189569F4F0E943C2E63ED39
:100E200071E0CE018F569F4F0E943C2E63ED71E022
:100E3000CE0185579F4F0E943C2E63ED71E0CE019D
:100E40008B579F4F0E943C2E63ED71E0CE0181587D
:100E50009F4F0E943C2E63ED71E0CE0187589F4F5B
:100E60000E943C2E63ED71E0CE018D589F4F0E9491
:100E70003C2E63ED71E0CE0183599F4F0E943C2EC2
:100E800063ED71E0CE0189599F4F0E943C2E63EDC6
:100E900071E0CE018F599F4F0E943C2E63ED71E0AF
:100EA000CE01855A9F4F0E943C2E63ED71E0CE012A
:100EB0008B5A9F4F0E943C2E63ED71E0CE01815B07
:100EC0009F4F0E943C2E63ED71E0CE01875B9F4FE8
:100ED0000E943C2E63ED71E0CE018D5B9F4F0E941E
:100EE0003C2E63ED71E0CE01CD960E943C2E63ED69
:100EF00071E0CE01C7960E943C2E63ED71E0CE01F9
:100F0000C1960E943C2E63ED71E0CE018B960E944B
:100F10003C2E63ED71E0CE0185960E943C2E63ED80
:100F200071E0CE014F960E943C2E63ED71E0CE0140
:100F300049960E943C2E63ED71E0CE0143960E94DB
:100F40003C2E63ED71E0CE010D960E943C2E63EDC8
:100F500071E0CE0107960E943C2E63ED71E0CE0158
:100F600001960E943C2EE12CF12C8701B701CE01A5
:100F700083539F4F0E94AF2FFC012081C701019630
:100F80007C012C3271F0B801CE0183539F4F0E9437
:100F9000AF2FFC016081CE0189539F4F0E946F2FBC
:100FA000E4CF8701B701CE0183539F4F0E94AF2F3B
:100FB000FC012081C70101967C012C3271F0B8013F
:100FC000CE0183539F4F0E94AF2FFC016081CE0161
:100FD0008F539F4F0E946F2FE4CF8701B701CE013F
:100FE00083539F4F0E94AF2FFC012081C7010196C0
:100FF0007C012C3271F0B801CE0183539F4F0E94C7
:10100000AF2FFC016081CE0185549F4F0E946F2F4E
:10101000E4CF8701B701CE0183539F4F0E94AF2FCA
:10102000FC012081C70101967C012C3271F0B801CE
:10103000CE0183539F4F0E94AF2FFC016081CE01F0
:101040008B549F4F0E946F2FE4CF8701B701CE01D1
:1010500083539F4F0E94AF2FFC012081C70101964F
:101060007C012C3271F0B801CE0183539F4F0E9456
:10107000AF2FFC016081CE0181559F4F0E946F2FE1
:10108000E4CF8701B701CE0183539F4F0E94AF2F5A
:10109000FC012081C70101967C012C3271F0B8015E
:1010A000CE0183539F4F0E94AF2FFC016081CE0180
:1010B00087559F4F0E946F2FE4CF8701B701CE0164
:1010C00083539F4F0E94AF2FFC012081C7010196DF
:1010D0007C012C3271F0B801CE0183539F4F0E94E6
:1010E000AF2FFC016081CE018D559F4F0E946F2F65
:1010F000E4CF8701B701CE0183539F4F0E94AF2FEA
:10110000FC012081C70101967C012C3271F0B801ED
:10111000CE0183539F4F0E94AF2FFC016081CE010F
:1011200083569F4F0E946F2FE4CF8701B701CE01F6
:1011300083539F4F0E94AF2FFC012081C70101966E
:101140007C012C3271F0B801CE0183539F4F0E9475
:10115000AF2FFC016081CE0189569F4F0E946F2FF7
:10116000E4CF8701B701CE0183539F4F0E94AF2F79
:10117000FC012081C70101967C012C3271F0B8017D
:10118000CE0183539F4F0E94AF2FFC016081CE019F
:101190008F569F4F0E946F2FE4CF8701B701CE017A
:1011A00083539F4F0E94AF2FFC012081C7010196FE
:1011B0007C012C3271F0B801CE0183539F4F0E9405
:1011C000AF2FFC016081CE0185579F4F0E946F2F8A
:1011D000E4CF8701B701CE0183539F4F0E94AF2F09
:1011E000FC012081C70101967C012C3271F0B8010D
:1011F000CE0183539F4F0E94AF2FFC016081CE012F
:101200008B579F4F0E946F2FE4CF8701B701CE010C
:1012100083539F4F0E94AF2FFC012081C70101968D
:101220007C012C3271F0B801CE0183539F4F0E9494
:10123000AF2FFC016081CE0181589F4F0E946F2F1C
:10124000E4CF8701B701CE0183539F4F0E94AF2F98
:10125000FC012081C70101967C012C3271F0B8019C
:10126000CE0183539F4F0E94AF2FFC016081CE01BE
:1012700087589F4F0E946F2FE4CF8701B701CE019F
:1012800083539F4F0E94AF2FFC012081C70101961D
:101290007C012C3271F0B801CE0183539F4F0E9424
:1012A000AF2FFC016081CE018D589F4F0E946F2FA0
:1012B000E4CF8701B701CE0183539F4F0E94AF2F28
:1012C000FC012081C70101967C012C3271F0B8012C
:1012D000CE0183539F4F0E94AF2FFC016081CE014E
:1012E00083599F4F0E946F2FE4CF8701B701CE0132
:1012F00083539F4F0E94AF2FFC012081C7010196AD
:101300007C012C3271F0B801CE0183539F4F0E94B3
:10131000AF2FFC016081CE0189599F4F0E946F2F32
:10132000E4CF8701B701CE0183539F4F0E94AF2FB7
:10133000FC012081C70101967C012C3271F0B801BB
:10134000CE0183539F4F0E94AF2FFC016081CE01DD
:101350008F599F4F0E946F2FE4CF8701B701CE01B5
:1013600083539F4F0E94AF2FFC012081C70101963C
:101370007C012C3271F0B801CE0183539F4F0E9443
:10138000AF2FFC016081CE01855A9F4F0E946F2FC5
:10139000E4CF8701B701CE0183539F4F0E94AF2F47
:1013A000FC012081C70101967C012C3271F0B8014B
:1013B000CE0183539F4F0E94AF2FFC016081CE016D
:1013C0008B5A9F4F0E946F2FE4CF8701B701CE0148
:1013D00083539F4F0E94AF2FFC012081C7010196CC
:1013E0007C012C3271F0B801CE0183539F4F0E94D3
:1013F000AF2FFC016081CE01815B9F4F0E946F2F58
:10140000E4CF8701B701CE0183539F4F0E94AF2FD6
:10141000FC012081C70101967C012C3271F0B801DA
:10142000CE0183539F4F0E94AF2FFC016081CE01FC
:10143000875B9F4F0E946F2FE4CF8701B701CE01DA
:1014400083539F4F0E94AF2FFC012081C70101965B
:101450007C012C3271F0B801CE0183539F4F0E9462
:10146000AF2FFC016081CE018D5B9F4F0E946F2FDB
:10147000E4CF8701B701CE0183539F4F0E94AF2F66
:10148000FC012081C70101967C012C3269F0B80172
:10149000CE0183539F4F0E94AF2FFC016081CE018C
:1014A000CD960E946F2FE5CF8701B701CE01835300
:1014B0009F4F0E94AF2FFC012081C70101967C0144
:1014C0002C3269F0B801CE0183539F4F0E94AF2F99
:1014D000FC016081CE01C7960E946F2FE5CF870186
:1014E000B701CE0183539F4F0E94AF2FFC01208193
:1014F000C70101967C012C3269F0B801CE018353FB
:101500009F4F0E94AF2FFC016081CE01C1960E94C7
:101510006F2FE5CF8701B701CE0183539F4F0E9404
:10152000AF2FFC012081C70101967C012C3269F0AC
:10153000B801CE0183539F4F0E94AF2FFC01608101
:10154000CE018B960E946F2FE5CF8701B701CE01A8
:1015500083539F4F0E94AF2FFC012081C70101964A
:101560007C012C3269F0B801CE0183539F4F0E9459
:10157000AF2FFC016081CE0185960E946F2FE5CFD1
:101580008701B701CE0183539F4F0E94AF2FFC010B
:101590002081C70101967C012C3269F0B801CE018F
:1015A00083539F4F0E94AF2FFC016081CE014F9665
:1015B0000E946F2FE5CF8701B701CE0183539F4F64
:1015C0000E94AF2FFC012081C70101967C012C32C3
:1015D00069F0B801CE0183539F4F0E94AF2FFC01E9
:1015E0006081CE0149960E946F2FE5CF8701B70138
:1015F000CE0183539F4F0E94AF2FFC012081C70172
:1016000001967C012C3269F0B801CE0183539F4FC3
:101610000E94AF2FFC016081CE0143960E946F2F84
:10162000E5CF8701B701CE0183539F4F0E94AF2FB3
:10163000FC012081C70101967C012C3269F0B801C0
:10164000CE0183539F4F0E94AF2FFC016081CE01DA
:101650000D960E946F2FE5CF8701B701CE0183530E
:101660009F4F0E94AF2FFC012081C70101962C32B1
:1016700071F07C01B801CE0183539F4F0E94AF2FC0
:10168000FC016081CE0107960E946F2FE5CF8C018F
:101690007801B801CE0183539F4F0E94AF2FFC0108
:1016A00080818C3279F00F5F1F4FB701CE018353D9
:1016B0009F4F0E94AF2FFC016081CE0101960E94D6
:1016C0006F2FE6CFCE0189539F4F0E94C12FAB01F0
:1016D000BC018DE590E00E945736CE018F539F4F9D
:1016E0000E94C12F8BE590E00E946336CE018554A5
:1016F0009F4F0E94C12F8AE590E00E944536CE019F
:101700008B549F4F0E94C12F89E590E00E9445367F
:10171000CE0181559F4F0E94C12F88E590E00E9425
:101720004536CE0187559F4F0E94C12F87E590E037
:101730000E944536CE018D559F4F0E94C12F85E5F1
:1017400090E00E946336CE0183569F4F0E94C12FC6
:1017500084E590E00E944536CE0189569F4F0E9455
:10176000C12F82E590E00E946336CE018F569F4FD5
:101770000E94C12F81E590E00E944536CE01855739
:101780009F4F0E94C12F87E490E00E944536CE0112
:101790008B579F4F0E94C12F86E490E00E944536F0
:1017A000CE0181589F4F0E94C12F82E490E00E9499
:1017B0004536CE0187589F4F0E94C12F81E490E0AB
:1017C0000E944536CE018D589F4F0E94C12F80E464
:1017D00090E00E944536CE0183599F4F0E94C12F51
:1017E0008FE390E00E944536CE0189599F4F0E94B9
:1017F000C12F8BE390E00E944536CE018F599F4F59
:101800000E94C12F8AE390E00E944536CE01855A9E
:101810009F4F0E94C12F89E390E00E944536CE0180
:101820008B5A9F4F0E94C12F84E390E00E94633641
:10183000CE01815B9F4F0E94C12F82E390E00E9406
:101840006336CE01875B9F4F0E94C12F80E390E0FB
:101850000E946336CE018D5B9F4F0E94C12F8EE2A6
:1018600090E00E946336CE01CD960E94C12F8CE29B
:1018700090E00E946336CE01C7960E94C12F8AE293
:1018800090E00E946336CE01C1960E94C12F88E28B
:1018900090E00E946336CE018B960E94C12F86E2B3
:1018A00090E00E946336CE0185960E94C12F89E1A7
:1018B00090E00E944536CE014F960E94C12F88E1EC
:1018C00090E00E944536CE0149960E94C12F87E1E3
:1018D00090E00E944536CE0143960E94C12F86E1DA
:1018E00090E00E944536CE010D960E94C12F84E102
:1018F00090E00E946336CE0107960E94C12F82E1DC
:1019000090E00E946336CE0101960E94C12F80E1D3
:1019100090E00E946336CE0101960E94CE2DCE014A
:1019200007960E94CE2DCE010D960E94CE2DCE019F
:1019300043960E94CE2DCE0149960E94CE2DCE0117
:101940004F960E94CE2DCE0185960E94CE2DCE01BF
:101950008B960E94CE2DCE01C1960E94CE2DCE0137
:10196000C7960E94CE2DCE01CD960E94CE2DCE01DF
:101970008D5B9F4F0E94CE2DCE01875B9F4F0E94B3
:10198000CE2DCE01815B9F4F0E94CE2DCE018B5A72
:101990009F4F0E94CE2DCE01855A9F4F0E94CE2D83
:1019A000CE018F599F4F0E94CE2DCE0189599F4F56
:1019B0000E94CE2DCE0183599F4F0E94CE2DCE0185
:1019C0008D589F4F0E94CE2DCE0187589F4F0E9469
:1019D000CE2DCE0181589F4F0E94CE2DCE018B5728
:1019E0009F4F0E94CE2DCE0185579F4F0E94CE2D36
:1019F000CE018F569F4F0E94CE2DCE0189569F4F0C
:101A00000E94CE2DCE0183569F4F0E94CE2DCE0137
:101A10008D559F4F0E94CE2DCE0187559F4F0E941E
:101A2000CE2DCE0181559F4F0E94CE2DCE018B54DD
:101A30009F4F0E94CE2DCE0185549F4F0E94CE2DE8
:101A4000CE018F539F4F0E94CE2DCE0189539F4FC1
:101A50000E94CE2DCE0183539F4F0E94CE2DCE5299
:101A6000DF4F0FB6F894DEBF0FBECDBFDF91CF9131
:101A70001F910F91FF90EF900895EF92FF920F93B7
:101A80001F93CF93DF93CDB7DEB7C659D1090FB6F9
:101A9000F894DEBF0FBECDBF6EE589EF92E00E94E5
:101AA000913063ED71E0CE018F569F4F0E943C2E26
:101AB00041E269EF72E0CE0101960E940030BE0162
:101AC0006F5F7F4FCE018F569F4F0E94522ECE01E7
:101AD00001960E94CE2DCB56DF4F88819981C55942
:101AE000D040892B09F46EC463ED71E0CE018557B7
:101AF0009F4F0E943C2E63ED71E0CE018B579F4FAC
:101B00000E943C2E63ED71E0CE0181589F4F0E94F0
:101B10003C2E63ED71E0CE0187589F4F0E943C2E12
:101B200063ED71E0CE018D589F4F0E943C2E63ED16
:101B300071E0CE0183599F4F0E943C2E63ED71E00E
:101B4000CE0189599F4F0E943C2E63ED71E0CE017A
:101B50008F599F4F0E943C2E63ED71E0CE01855A54
:101B60009F4F0E943C2E63ED71E0CE018B5A9F4F38
:101B70000E943C2E63ED71E0CE01815B9F4F0E947D
:101B80003C2E63ED71E0CE01875B9F4F0E943C2E9F
:101B900063ED71E0CE018D5B9F4F0E943C2E63EDA3
:101BA00071E0CE01CD960E943C2E63ED71E0CE0136
:101BB000C7960E943C2E63ED71E0CE01C1960E9453
:101BC0003C2E63ED71E0CE018B960E943C2E63EDBE
:101BD00071E0CE0185960E943C2E63ED71E0CE014E
:101BE0004F960E943C2E63ED71E0CE0149960E9413
:101BF0003C2E63ED71E0CE0143960E943C2E63EDD6
:101C000071E0CE010D960E943C2E63ED71E0CE0195
:101C100007960E943C2E63ED71E0CE0101960E9472
:101C20003C2EE12CF12C8701B701CE018F569F4F3E
:101C30000E94AF2FFC012081C70101967C012C324C
:101C400071F0B801CE018F569F4F0E94AF2FFC015B
:101C50006081CE0185579F4F0E946F2FE4CF87018F
:101C6000B701CE018F569F4F0E94AF2FFC012081FC
:101C7000C70101967C012C3271F0B801CE018F565C
:101C80009F4F0E94AF2FFC016081CE018B579F4F69
:101C90000E946F2FE4CF8701B701CE018F569F4F6F
:101CA0000E94AF2FFC012081C70101967C012C32DC
:101CB00071F0B801CE018F569F4F0E94AF2FFC01EB
:101CC0006081CE0181589F4F0E946F2FE4CF870122
:101CD000B701CE018F569F4F0E94AF2FFC0120818C
:101CE000C70101967C012C3271F0B801CE018F56EC
:101CF0009F4F0E94AF2FFC016081CE0187589F4FFC
:101D00000E946F2FE4CF8701B701CE018F569F4FFE
:101D10000E94AF2FFC012081C70101967C012C326B
:101D200071F0B801CE018F569F4F0E94AF2FFC017A
:101D30006081CE018D589F4F0E946F2FE4CF8701A5
:101D4000B701CE018F569F4F0E94AF2FFC0120811B
:101D5000C70101967C012C3271F0B801CE018F567B
:101D60009F4F0E94AF2FFC016081CE0183599F4F8E
:101D70000E946F2FE4CF8701B701CE018F569F4F8E
:101D80000E94AF2FFC012081C70101967C012C32FB
:101D900071F0B801CE018F569F4F0E94AF2FFC010A
:101DA0006081CE0189599F4F0E946F2FE4CF870138
:101DB000B701CE018F569F4F0E94AF2FFC012081AB
:101DC000C70101967C012C3271F0B801CE018F560B
:101DD0009F4F0E94AF2FFC016081CE018F599F4F12
:101DE0000E946F2FE4CF8701B701CE018F569F4F1E
:101DF0000E94AF2FFC012081C70101967C012C328B
:101E000071F0B801CE018F569F4F0E94AF2FFC0199
:101E10006081CE01855A9F4F0E946F2FE4CF8701CA
:101E2000B701CE018F569F4F0E94AF2FFC0120813A
:101E3000C70101967C012C3271F0B801CE018F569A
:101E40009F4F0E94AF2FFC016081CE018B5A9F4FA4
:101E50000E946F2FE4CF8701B701CE018F569F4FAD
:101E60000E94AF2FFC012081C70101967C012C321A
:101E700071F0B801CE018F569F4F0E94AF2FFC0129
:101E80006081CE01815B9F4F0E946F2FE4CF87015D
:101E9000B701CE018F569F4F0E94AF2FFC012081CA
:101EA000C70101967C012C3271F0B801CE018F562A
:101EB0009F4F0E94AF2FFC016081CE01875B9F4F37
:101EC0000E946F2FE4CF8701B701CE018F569F4F3D
:101ED0000E94AF2FFC012081C70101967C012C32AA
:101EE00071F0B801CE018F569F4F0E94AF2FFC01B9
:101EF0006081CE018D5B9F4F0E946F2FE4CF8701E1
:101F0000B701CE018F569F4F0E94AF2FFC01208159
:101F1000C70101967C012C3269F0B801CE018F56C1
:101F20009F4F0E94AF2FFC016081CE01CD960E9491
:101F30006F2FE5CF8701B701CE018F569F4F0E94CB
:101F4000AF2FFC012081C70101967C012C3269F082
:101F5000B801CE018F569F4F0E94AF2FFC016081C8
:101F6000CE01C7960E946F2FE5CF8701B701CE0142
:101F70008F569F4F0E94AF2FFC012081C701019611
:101F80007C012C3269F0B801CE018F569F4F0E9420
:101F9000AF2FFC016081CE01C1960E946F2FE5CF6B
:101FA0008701B701CE018F569F4F0E94AF2FFC01D2
:101FB0002081C70101967C012C3269F0B801CE0165
:101FC0008F569F4F0E94AF2FFC016081CE018B96F0
:101FD0000E946F2FE5CF8701B701CE018F569F4F2B
:101FE0000E94AF2FFC012081C70101967C012C3299
:101FF00069F0B801CE018F569F4F0E94AF2FFC01B0
:102000006081CE0185960E946F2FE5CF8701B701D1
:10201000CE018F569F4F0E94AF2FFC012081C70138
:1020200001967C012C3269F0B801CE018F569F4F8A
:102030000E94AF2FFC016081CE014F960E946F2F4E
:10204000E5CF8701B701CE018F569F4F0E94AF2F7A
:10205000FC012081C70101967C012C3269F0B80196
:10206000CE018F569F4F0E94AF2FFC016081CE01A1
:1020700049960E946F2FE5CF8701B701CE018F5699
:102080009F4F0E94AF2FFC012081C70101967C0168
:102090002C3269F0B801CE018F569F4F0E94AF2FAE
:1020A000FC016081CE0143960E946F2FE5CF87012E
:1020B000B701CE018F569F4F0E94AF2FFC012081A8
:1020C000C70101967C012C3269F0B801CE018F5610
:1020D0009F4F0E94AF2FFC016081CE010D960E94A0
:1020E0006F2FE5CF8701B701CE018F569F4F0E941A
:1020F000AF2FFC012081C70101962C3271F07C01C9
:10210000B801CE018F569F4F0E94AF2FFC01608116
:10211000CE0107960E946F2FE5CF8C017801B801A0
:10212000CE018F569F4F0E94AF2FFC0180818C32D1
:1021300079F00F5F1F4FB701CE018F569F4F0E945E
:10214000AF2FFC016081CE0101960E946F2FE6CF78
:10215000CE0185579F4F0E94C12F8AE490E00E94D4
:102160004536CE018B579F4F0E94C12F89E490E0E6
:102170000E944536CE0181589F4F0E94C12F88E4AE
:1021800090E00E944536CE0187589F4F0E94C12F94
:102190008FE490E00E946336CE018D589F4F0E94DD
:1021A000C12F8DE490E00E946336CE0183599F4F8A
:1021B0000E94C12F8BE490E00E946336CE018959C2
:1021C0009F4F0E94C12F85E490E00E944536CE01CA
:1021D0008F599F4F0E94C12F84E490E00E944536A2
:1021E000CE01855A9F4F0E94C12F83E490E00E9448
:1021F0004536CE018B5A9F4F0E94C12F8EE390E04F
:102200000E944536CE01815B9F4F0E94C12F8DE316
:1022100090E00E944536CE01875B9F4F0E94C12F00
:102220008CE390E00E944536CE018D5B9F4F0E946B
:10223000C12F88E390E00E944536CE01CD960E94E2
:10224000C12F87E390E00E944536CE01C7960E94D9
:10225000C12F86E390E00E944536CE01C1960E94D0
:10226000C12F84E290E00E946336CE018B960E94DB
:10227000C12F82E290E00E946336CE0185960E94D3
:10228000C12F80E290E00E946336CE014F960E94FB
:10229000C12F8EE190E00E946336CE0149960E94E4
:1022A000C12F8CE190E00E946336CE0143960E94DC
:1022B000C12F8AE190E00E946336CE010D960E9404
:1022C000C12F8EE090E00E946336CE0107960E94F7
:1022D000C12F8CE090E00E946336CE0101960E94EF
:1022E000C12F8AE090E00E946336CE0101960E94E1
:1022F000CE2DCE0107960E94CE2DCE010D960E94C6
:10230000CE2DCE0143960E94CE2DCE0149960E943D
:10231000CE2DCE014F960E94CE2DCE0185960E94E5
:10232000CE2DCE018B960E94CE2DCE01C1960E945D
:10233000CE2DCE01C7960E94CE2DCE01CD960E9405
:10234000CE2DCE018D5B9F4F0E94CE2DCE01875B9F
:102350009F4F0E94CE2DCE01815B9F4F0E94CE2DBC
:10236000CE018B5A9F4F0E94CE2DCE01855A9F4F92
:102370000E94CE2DCE018F599F4F0E94CE2DCE01AF
:1023800089599F4F0E94CE2DCE0183599F4F0E94A5
:10239000CE2DCE018D589F4F0E94CE2DCE01875855
:1023A0009F4F0E94CE2DCE0181589F4F0E94CE2D6F
:1023B000CE018B579F4F0E94CE2DCE0185579F4F48
:1023C0000E94CE2DCE018F569F4F0E94CE2DCA5611
:1023D000DF4F0FB6F894DEBF0FBECDBFDF91CF91B8
:1023E0001F910F91FF90EF9008954F925F926F921F
:1023F0007F928F929F92AF92BF92CF92DF92EF9295
:10240000FF920F931F93CF93DF93CDB7DEB7E29781
:102410000FB6F894DEBF0FBECDBF6AE289EF92E03F
:102420000E94913063ED71E0CE0185960E943C2EB2
:1024300041E269EF72E0CE0101960E940030BE01D8
:102440006F5F7F4FCE0185960E94522ECE0101967E
:102450000E94CE2D89A59AA5892B09F40CC163EDA4
:1024600071E0CE014F960E943C2E63ED71E0CE01EB
:1024700049960E943C2E63ED71E0CE0143960E9486
:102480003C2E63ED71E0CE010D960E943C2E63ED73
:1024900071E0CE0107960E943C2E63ED71E0CE0103
:1024A00001960E943C2EE12CF12C8701B701CE0150
:1024B00085960E94AF2FFC012081C70101967C0107
:1024C0002C3261F0B801CE0185960E94AF2FFC013D
:1024D0006081CE014F960E946F2FE7CF8701B70131
:1024E000CE0185960E94AF2FFC012081C701019685
:1024F0007C012C3261F0B801CE0185960E94AF2F8D
:10250000FC016081CE0149960E946F2FE7CF8701C1
:10251000B701CE0185960E94AF2FFC012081C70133
:1025200001967C012C3261F0B801CE0185960E94A3
:10253000AF2FFC016081CE0143960E946F2FE7CF41
:102540008701B701CE0185960E94AF2FFC01208143
:10255000C70101967C012C3261F0B801CE0185964D
:102560000E94AF2FFC016081CE010D960E946F2F5B
:10257000E7CF8701B701CE0185960E94AF2FFC01FE
:102580002081C70101962C3269F07C01B801CE018F
:1025900085960E94AF2FFC016081CE0107960E94B4
:1025A0006F2FE7CF7C018701B701CE0185960E948E
:1025B000AF2FFC0180818C3279F0FFEFEF1AFF0A18
:1025C000B801CE0185960E94AF2FFC016081CE013B
:1025D00001960E946F2FE7CFCE014F960E94C12F28
:1025E0006B017C01CE0149960E94C12F2B013C0159
:1025F000CE0143960E94C12F9B01AC01CE010196F2
:102600002FA738AB49AB5AAB0E94C12F6BA77CA751
:102610008DA79EA7CE0107960E94C12F4B015C019A
:10262000CE010D960E94C12FDC01CB017601820103
:102630002FA538A94BA55CA5B4010E94A4240E9433
:1026400013240E945E25CE0101960E94CE2DCE015C
:1026500007960E94CE2DCE010D960E94CE2DCE0162
:1026600043960E94CE2DCE0149960E94CE2DCE01DA
:102670004F960E94CE2DCE0185960E94CE2DE296D9
:102680000FB6F894DEBF0FBECDBFDF91CF911F9183
:102690000F91FF90EF90DF90CF90BF90AF909F9001
:1026A0008F907F906F905F904F900895789483B74C
:1026B000817F846083BF2FE088E190E00FB6F894BB
:1026C000A895809360000FBE209360001092800058
:1026D000E1E8F0E0108210928200109285001092E2
:1026E0008400109289001092880010928B00109242
:1026F0008A0010928D0010928C0010928700109228
:102700008600AFE6B0E01C9281E08C9384E0808389
:1027100089E192E00E94E41E8DE590E00E94393646
:10272000AB01BC0189EF92E00E94AE2860E084E03A
:1027300090E00E94453660E082E090E00E944536DD
:1027400060E083E090E00E94453681E00E94BD2772
:1027500087E10E94C02787E10E94C02787E10E948D
:10276000C02782E10E94C02782E10E94C02782E147
:102770000E94C02783E10E94C02783E10E94C027F6
:1027800083E10E94C02784E10E94C02784E10E9467
:10279000C02784E10E94C02785E10E94C02785E10F
:1027A0000E94C02785E10E94C02786E10E94C027C1
:1027B00086E10E94C02786E10E94C02785E192E061
:1027C0000E94302160E670E089E192E00E94081FDB
:1027D00064E070E089E192E00E94A90160E070E0AD
:1027E00089E192E00E94A90160E070E089E192E055
:1027F0000E94A90162E070E089E192E00E94A901D3
:1028000061E089E192E00E940A1F62E670E089E1DE
:1028100092E00E94081F64E070E089E192E00E946B
:10282000A90160E070E089E192E00E94A90160E006
:1028300070E089E192E00E94A90162E070E089E124
:1028400092E00E94A90161E089E192E00E940A1FE2
:1028500063E670E089E192E00E94081F64E070E0A6
:1028600089E192E00E94A90160E070E089E192E0D4
:102870000E94A90160E070E089E192E00E94A90154
:1028800062E070E089E192E00E94A90161E089E1E3
:1028900092E00E940A1F68E670E089E192E00E94DF
:1028A000081F64E070E089E192E00E94A90160E005
:1028B00070E089E192E00E94A90160E070E089E1A6
:1028C00092E00E94A90162E070E089E192E00E943A
:1028D000A90161E089E192E00E940A1F6AE670E0C6
:1028E00089E192E00E94081F64E070E089E192E0D3
:1028F0000E94A90160E070E089E192E00E94A901D4
:1029000060E070E089E192E00E94A90162E070E07D
:1029100089E192E00E94A90161E089E192E00E94D0
:102920000A1F6BE670E089E192E00E94081F64E0F4
:1029300070E089E192E00E94A90160E070E089E125
:1029400092E00E94A90160E070E089E192E00E94BB
:10295000A90162E070E089E192E00E94A90161E0D2
:1029600089E192E00E940A1F60ED77E080E090E04C
:102970000E943F2761E084E00E942E2661E086E00D
:102980000E942E2661E088E00E942E2661E08AE007
:102990000E942E2661E08CE00E942E2660E085E0F9
:1029A0000E942E2660E087E00E942E2660E089E0EB
:1029B0000E942E2660E08BE00E942E2660E08DE0D3
:1029C0000E942E264AE050E061E070E089EF92E03C
:1029D0000C94463140E051EE60E070E08DE590E00F
:1029E0000E94573668EC70E08BE590E00E946336F9
:1029F0006EE18AE590E00E94453663E089E590E06B
:102A00000E94453663E088E590E00E94453663E029
:102A100087E590E00E9445366FE070E085E590E044
:102A20000E94633660E084E590E00E9445366AE0EB
:102A300070E082E590E00E94633665E081E590E019
:102A40000E9445366AE070E08FE490E00E946336B1
:102A50006AE070E08DE490E00E9463366AE070E026
:102A60008DE490E00E94633660E08AE490E00E948A
:102A7000453660E089E490E00E94453660E088E4F5
:102A800090E00E94453665E087E490E00E9445367C
:102A900065E086E490E00E94453665E085E490E0DC
:102AA0000E94453665E084E490E00E94453665E08A
:102AB00083E490E00E94453665E082E490E00E9465
:102AC000453665E081E490E00E94453665E080E4AB
:102AD00090E00E94453665E08FE390E00E94453625
:102AE00065E08EE390E00E94453665E08DE390E07E
:102AF0000E94453665E08CE390E00E94453665E033
:102B00008BE390E00E94453665E08AE390E00E9406
:102B1000453665E089E390E00E94453665E088E34C
:102B200090E00E94453665E087E390E00E944536DC
:102B300065E086E390E00E94453660E070E084E363
:102B400090E00E94633664E670E082E390E00E94C9
:102B5000633660E070E080E390E00E94633664E6F4
:102B600070E08EE290E00E94633663E770E08CE2F2
:102B700090E00E94633669EC73E08AE290E00E9484
:102B8000633661EA71E088E290E00E94633669ECA6
:102B900073E086E290E00E94633661EA71E084E2CD
:102BA00090E00E94633669EC73E082E290E00E945C
:102BB000633661EA71E080E290E00E94633669EC7E
:102BC00073E08EE190E00E94633661EA71E08CE18F
:102BD00090E00E94633669EC73E08AE190E00E9425
:102BE000633660E089E190E00E94453664E688E162
:102BF00090E00E94453660E087E190E00E94453613
:102C000064E686E190E00E94453660EA7FE084E178
:102C100090E00E94633664EC79E082E190E00E94EB
:102C200063366CED75E080E190E00E94633664EC01
:102C300079E08EE090E00E94633664EC79E08CE00D
:102C400090E00E94633664EC79E08AE090E00E94B4
:102C5000633660E080E090E00E94453660E081E00D
:102C600090E00C94453685E192E00C942F21EF9290
:102C7000FF920F931F93CF93DF931F92CDB7DEB7D1
:102C8000282F823059F0833031F0813009F071C043
:102C900008E610E005C00BE610E002C00AE610E00E
:102CA000B80189E192E029830E94081F60E070E08A
:102CB00089E192E00E94A90160E089E192E00E942E
:102CC0000A1F43E050E0B80189E192E00E94FB1E38
:102CD00089E192E00E944D1E892B09F44AC089E1E6
:102CE00092E00E94551E89E192E00E94551E082F35
:102CF00089E192E00E94551E182F61E089E192E07F
:102D00000E940A1F0170F02EE12CE12A84E0EE0CF3
:102D1000FF1C8A95E1F72981223089F02330D1F018
:102D2000213039F5F092EE01E092ED018EE090E075
:102D30000E943F36E816F90610F481E01BC0F092BD
:102D4000EA01E092E9018CE090E00E943F36E8164B
:102D5000F90698F3F092E601E092E5018AE090E04E
:102D60000E943F3621E0E816F90608F020E0822FA5
:102D700001C080E00F90DF91CF911F910F91FF90E4
:102D8000EF9008958F929F92BF92CF92DF92EF9231
:102D9000FF920F931F93CF93DF93CDB7DEB7689762
:102DA0000FB6F894DEBF0FBECDBFD82E63ED71E035
:102DB000CE0143960E943C2E63ED71E0CE010D964C
:102DC0000E943C2E63ED71E0CE0107960E943C2EDE
:102DD00082E0D81651F183E0D81609F449C081E0A9
:102DE000D8121DC1109212026BE471E0CE0143961D
:102DF0000E94722E61E571E0CE010D960E94722E46
:102E000067E571E0CE0107960E94722E0FE410E094
:102E1000FAE48F2EF0E09F2EA7E0EA2EA0E0FA2E33
:102E2000B9E0BB2E88E0C82E45C0109211026DE5B6
:102E300071E0CE0143960E94722E63E671E0CE01EE
:102E40000D960E94722E69E671E0CE0107960E94EF
:102E5000722E0DE410E059E4852E50E0952E66E0C8
:102E6000E62E60E0F62E7BE0B72EEAE0CE2E22C002
:102E7000109210026FE671E0CE0143960E94722E0E
:102E800065E771E0CE010D960E94722E6BE771E04E
:102E9000CE0107960E94722E0BE410E098E4892E72
:102EA00090E0992E25E0E22E20E0F22E3DE0B32EB8
:102EB0004CE0C42E60E08C2D0E94672664E670E032
:102EC00080E090E00E943F27C7010E9431368823AE
:102ED00009F4A5C0C4010E943136882309F49FC0BB
:102EE0008D2D0E94580281110FC068E873E180E0C7
:102EF00090E00E943F278D2D0E945802811104C04E
:102F0000BE016D5E7F4F6BC061E08C2D0E94672615
:102F1000C8010E943F369C01A8EEB3E00E944D33E9
:102F20000E943F278D2D0E94371681112AC08C2DBB
:102F30000E94EA02C8010E943F369C01A8EEB3E05D
:102F40000E944D330E943F278D2D0E94371681111C
:102F500018C060E08C2D0E946726BE01635F7F4F22
:102F6000CE0101960E94692ECE0101960E94FA02BE
:102F7000CE0101960E94CE2D60E0C7010E94453629
:102F80004EC08B2D0E942A02811136C0E12CFF24F5
:102F9000F39488E590E00E9431368F15B8F08B2DC0
:102FA0000E942A0281110EC08C2D0E94EA02C801E3
:102FB0000E943F369C01A8EEB3E00E944D330E9470
:102FC0003F2702C0EE24E394F394E3CFE11014C052
:102FD00060E08C2D0E946726BE01695F7F4FCE01A5
:102FE00001960E94692ECE0101960E94FA02CE013E
:102FF00001960E94CE2D13C082E0D81649F083E0DE
:10300000D81651F081E0D8120AC0D092120207C03F
:1030100081E08093110203C081E080931002CE0111
:1030200007960E94CE2DCE010D960E94CE2DCE0188
:1030300043960E94CE2D68960FB6F894DEBF0FBE61
:10304000CDBFDF91CF911F910F91FF90EF90DF9057
:10305000CF90BF909F908F9008950F931F93CF9321
:10306000DF9362E670E089E192E00E94081F60E071
:1030700070E089E192E00E94A90160E089E192E0BC
:103080000E940A1F43E050E062E670E089E192E0AE
:103090000E94FB1E89E192E00E944D1E892B61F186
:1030A00089E192E00E94551E89E192E00E94551E3E
:1030B000082F89E192E00E94551E182F61E089E1F6
:1030C00092E00E940A1F0170D02F80E0C82FC12B10
:1030D00094E0CC0FDD1F9A95E1F7D093F601C093F1
:1030E000F50182E190E00E943F3621E0C817D90740
:1030F00008F020E0822F01C080E0DF91CF911F9186
:103100000F9108950F931F93CF93DF9300D000D0BA
:1031100000D0CDB7DEB71092140260E084E00E94C8
:10312000672664E670E080E090E00E943F2789E037
:1031300090E00E943136811102C010E09CC00E94D4
:10314000B001882329F00E94AA02811116C00BC089
:1031500068E873E180E090E00E943F270E94B001A0
:103160008111F1CFEACF68E873E180E090E00E943E
:103170003F270E94AA02882301F361E084E00E94B5
:10318000672640EC57E269E070E089EF92E00E9428
:10319000FA2F41E269EF72E0CE0101960E94003001
:1031A00061E871E0CE0101960E94902F882309F416
:1031B0005DC082E590E00E943F369C01A8EEB3E03E
:1031C0000E944D330E943F270E942D1881111DC07F
:1031D00084E00E94EA0282E590E00E943F369C0172
:1031E000A8EEB3E00E944D330E943F270E942D18A5
:1031F00081110BC060E084E00E94672660E089E0F6
:1032000090E00E94453610E032C085E00E942A021C
:10321000811127C000E011E088E590E00E9431367E
:103220008117B8F085E00E942A0281110FC084E066
:103230000E94EA0282E590E00E943F369C01A8EEDF
:10324000B3E00E944D330E943F2701C001E01F5FA1
:10325000E3CF011106C060E084E00E94672610E021
:1032600006C081E08093140211E001C010E0CE019D
:1032700001960E94CE2D812F26960FB6F894DEBFC0
:103280000FBECDBFDF91CF911F910F9108950F9386
:103290001F93CF93DF9363E670E089E192E00E9491
:1032A000081F60E070E089E192E00E94A90160E0FF
:1032B00089E192E00E940A1F43E050E063E670E07B
:1032C00089E192E00E94FB1E89E192E00E944D1E7E
:1032D000892B61F189E192E00E94551E89E192E01B
:1032E0000E94551E082F89E192E00E94551E182F5A
:1032F00061E089E192E00E940A1F0170D02F80E016
:10330000C82FC12B24E0CC0FDD1F2A95E1F7D09305
:10331000F201C093F10180E190E00E943F3621E08C
:10332000C817D90708F020E0822F01C080E0DF91A4
:10333000CF911F910F910895CF93DF9300D000D0CC
:1033400000D0CDB7DEB71092130260E086E00E9495
:10335000672664E670E080E090E00E943F2788E006
:1033600090E00E943136882309F466C084E590E03D
:103370000E943136882309F45FC00E94CA0281117D
:1033800019C068E873E180E090E00E943F270E9446
:10339000CA0281110FC063E871E0CE0101960E945C
:1033A0003C2ECE0101960E94FA02CE0101960E94A7
:1033B000CE2D42C061E086E00E94672681E590E064
:1033C0000E943136282F30E0A8EEB3E00E944D3342
:1033D0000E943F270E94471981112BC086E00E945E
:1033E000EA0281E590E00E943136282F30E0A8EE15
:1033F000B3E00E944D330E943F270E94471981117C
:1034000018C060E086E00E94672668E871E0CE019F
:1034100001960E943C2ECE0101960E94FA02CE0136
:1034200001960E94CE2D60E088E090E00E94453633
:1034300003C081E08093130226960FB6F894DEBF96
:103440000FBECDBFDF91CF9108950F931F93CF9300
:10345000DF9360E670E089E192E00E94081F60E07F
:1034600070E089E192E00E94A90160E089E192E0C8
:103470000E940A1F43E050E060E670E089E192E0BC
:103480000E94FB1E89E192E00E944D1E892B61F192
:1034900089E192E00E94551E89E192E00E94551E4A
:1034A000082F89E192E00E94551E182F61E089E102
:1034B00092E00E940A1F0170D02F80E0C82FC12B1C
:1034C00034E0CC0FDD1F3A95E1F7D093FB01C093B8
:1034D000FA0184E190E00E943F3621E0C817D90745
:1034E00008F020E0822F01C080E0DF91CF911F9192
:1034F0000F9108950F931F93CF93DF9300D000D0C7
:1035000000D0CDB7DEB780911802882309F4C3C27A
:1035100080910F028F5F80930F020E94ED01811155
:1035200006C0809104028F5F8093040202C0109253
:1035300004020E94251A811106C080910A028F5F41
:1035400080930A0202C010920A028091140288231A
:1035500089F10E94B001811106C0809103028F5F42
:103560008093030202C0109203020E94AA028111FA
:1035700006C0809102028F5F8093020202C0109207
:1035800002020E942D18811106C0809109028F5FEE
:103590008093090202C01092090285E00E942A026B
:1035A000811106C080910E028F5F80930E0202C0CF
:1035B00010920E02809113028823C1F00E94CA0269
:1035C000811106C0809101028F5F8093010202C0C9
:1035D000109201020E944719811106C080910802D1
:1035E0008F5F8093080202C010920802809112023D
:1035F000882339F181E00E945802811106C0809130
:1036000000028F5F8093000202C01092000281E0EE
:103610000E943716811106C0809107028F5F809348
:10362000070202C01092070289E00E942A0281115B
:1036300006C080910D028F5F80930D0202C0109230
:103640000D0280911102882339F182E00E94580214
:10365000811106C08091FF018F5F8093FF0102C03E
:103660001092FF0182E00E943716811106C08091FE
:1036700006028F5F8093060202C0109206028BE062
:103680000E942A02811106C080910C028F5F8093F4
:103690000C0202C010920C0280911002882339F1B2
:1036A00083E00E945802811106C08091FE018F5F65
:1036B0008093FE0102C01092FE0183E00E94371643
:1036C000811106C0809105028F5F8093050202C0C0
:1036D000109205028DE00E942A02811106C080919D
:1036E0000B028F5F80930B0202C010920B0280913D
:1036F000FC019091FD0101969093FD018093FC01E6
:1037000010910A028BE390E00E943136181718F0EE
:103710006DE871E00AC01091040282E490E00E941A
:1037200031361817A0F062E971E0CE0101960E94CF
:103730003C2ECE0101960E94FA02CE0101960E9413
:10374000CE2D10920A02109204020E9489068091E6
:103750001402882351F110910E0287E490E00E9438
:1037600031361817C0F4109109028AE390E00E94E4
:103770003136181780F41091030281E490E00E9422
:103780003136181740F41091020280E490E00E9454
:103790003136181750F010920E0210920902109252
:1037A0000302109202020E94821880911302882361
:1037B00009F441C01091080289E390E00E9431367B
:1037C0001817A8F068E871E0CE0101960E943C2E1F
:1037D000CE0101960E94FA02CE0101960E94CE2DE2
:1037E00010920802109201020E949C1924C01091AC
:1037F00001028FE390E00E9431361817E0F063E891
:1038000071E0CE0101960E943C2ECE0101960E94ED
:10381000FA02CE0101960E94CE2D1092080210925B
:1038200001020E949C191092F2011092F101109273
:10383000F0011092EF01809112028823E9F11091BA
:10384000070288E390E00E943136181718F061E50E
:1038500071E015C0109100028EE390E00E943136B5
:10386000181718F06BE471E00AC010910D0285E49E
:1038700090E00E9431361817F8F067E571E0CE014C
:1038800001960E943C2ECE0101960E94FA02CE01C2
:1038900001960E94CE2D1092070210920002109203
:1038A0000D0281E00E94C2161092EE011092ED010D
:1038B0001092EC011092EB01809111028823E9F142
:1038C0001091060287E390E00E943136181718F035
:1038D00063E671E015C01091FF018DE390E00E9456
:1038E0003136181718F06DE571E00AC010910C021E
:1038F00084E490E00E9431361817F8F069E671E030
:10390000CE0101960E943C2ECE0101960E94FA0241
:10391000CE0101960E94CE2D109206021092FF0158
:1039200010920C0282E00E94C2161092EA011092DC
:10393000E9011092E8011092E701809110028823BA
:10394000E9F11091050286E390E00E9431361817E4
:1039500018F065E771E015C01091FE018CE390E06E
:103960000E943136181718F06FE671E00AC0109106
:103970000B0283E490E00E9431361817F8F06BE7F1
:1039800071E0CE0101960E943C2ECE0101960E946C
:10399000FA02CE0101960E94CE2D109205021092DD
:1039A000FE0110920B0283E00E94C2161092E60103
:1039B0001092E5011092E4011092E30110910F02C0
:1039C0008AE590E00E943136181720F010920F021D
:1039D0000E940F030091FC011091FD0185E590E02C
:1039E0000E943F360817190708F453C01092FD01D2
:1039F0001092FC0180911402811107C089E090E0CF
:103A00000E94313681110E94821880911302811127
:103A100007C088E090E00E94313681110E949C1915
:103A20008091120281110FC087E090E00E94313630
:103A3000882349F08AE490E00E943136882319F007
:103A400081E00E94C2168091110281110FC086E0B0
:103A500090E00E943136882349F089E490E00E948A
:103A60003136882319F082E00E94C216809110023C
:103A700081110FC085E090E00E943136882349F023
:103A800088E490E00E943136882319F083E00E9498
:103A9000C21610921802809116028823A9F1109282
:103AA000160280911702813319F40E9454062CC02B
:103AB00080911702823319F40E940F0325C0809170
:103AC0001702833319F40E9482181EC080911702D6
:103AD000843319F40E949C1917C080911702853312
:103AE00021F481E00E94C2160FC080911702863334
:103AF00021F482E00E94C21607C08091170287332A
:103B000019F483E00E94C21626960FB6F894DEBF21
:103B10000FBECDBFDF91CF911F910F9108950E94ED
:103B2000251A882361F00E94ED01811113C068E815
:103B300073E180E090E00E943F270C94ED0168EE75
:103B400073E080E090E00E943F270E94251A8111D7
:103B5000EACF089581E008950E94561380E090E036
:103B60000E94313681110E94EA140E948F1D81113A
:103B700002C080E008950E9482188823D1F30E9439
:103B8000F5110E9499060E943D0D0E949C1981E04A
:103B90000895CF9388E10FB6F89480936000109257
:103BA00060000FBE0E94AC1D882351F081E00E948E
:103BB000C21682E00E94C21683E0CF910C94C21616
:103BC00081E090E00E943136C1E0C80F6C2F81E0A7
:103BD00090E00E94453687E590E00E943136C81794
:103BE000A0F44AE050E062E070E089EF92E00E94C9
:103BF000463128E088E190E00FB6F894A8958093CC
:103C000060000FBE20936000FFCF60E081E090E095
:103C10000E9445364AE050E063E070E089EF92E0B0
:103C20000E94463165E070E080E090E00E943F270E
:103C3000F89483B7816083BF889583B78E7F83BFF5
:103C4000CF9108951F920F920FB60F9211242F93C8
:103C50003F934F935F936F937F938F939F93AF9314
:103C6000BF93EF93FF9389EF92E00E942B288093FC
:103C7000170281E080931602FF91EF91BF91AF91FF
:103C80009F918F917F916F915F914F913F912F9174
:103C90000F900FBE0F901F9018958091490290E0F1
:103CA00020914A02821B9109089520914A02809135
:103CB0004902281750F4E22FF0E0E55BFD4F8081C8
:103CC00090E02F5F20934A0208958FEF9FEF0895B1
:103CD000E0914A0280914902E81730F4F0E0E55B98
:103CE000FD4F808190E008958FEF9FEF0895089534
:103CF000CF92DF92EF92FF920F931F93CF93DF93B8
:103D00007C01CB018A0120912502222389F0EB015D
:103D10006B01C40ED51ECC15DD0569F06991D70184
:103D2000ED91FC910190F081E02DC7010995F3CF51
:103D3000642F0E94D91FC801DF91CF911F910F916D
:103D4000FF90EF90DF90CF900895CF93DF931F9275
:103D5000CDB7DEB76983209125022223D1F02091CF
:103D60002602203240F021E030E0FC013383228340
:103D700080E090E015C080912702E82FF0E0E85D38
:103D8000FD4F998190838F5F809327028093260255
:103D900005C061E0CE0101960E94D91F81E090E04C
:103DA0000F90DF91CF910895FC011382128248EEAB
:103DB00053E060E070E044835583668377838BE94A
:103DC00091E091838083089510924A0210924902F3
:103DD00010922702109226020C94241F862F413243
:103DE00008F040E26BE472E00E94421F10924A0227
:103DF00080934902089521E00C94EE1E81E08093A7
:103E0000250260934802109227021092260208951C
:103E10000C94FE1E0F93062F21E04091260268E2CB
:103E200072E0809148020E94861F10922702109231
:103E30002602109225020F91089561E00C940A1F4A
:103E400089E192E00C94D41E1092D80281E0809314
:103E5000D6021092D50261E082E00E94672661E0FE
:103E600083E00E946726E9EBF0E080818E7F80830B
:103E700080818D7F808388E48093B80085E480937F
:103E8000BC000895413208F03FC09091D8029111D2
:103E9000FCCF91E09093D8022093D6022FEF20938D
:103EA0006B021092B002240F2093AF029093D702BE
:103EB0009091D702880F892B8093D7028091D502E9
:103EC000813041F41092D5028091D7028093BB00DB
:103ED00085EC01C085EE8093BC008091D8028130D2
:103EE000E1F38091B002841710F44091B00221EB0D
:103EF00032E0FB01D9018A2F821B841718F48D91BF
:103F00008193F9CF842F089580E008950F93413273
:103F100008F046C09091D8029111FCCF92E09093A6
:103F2000D8020093D6029FEF90936B021092B002DA
:103F30004093AF02FB0161EB72E0DB019A2F961B0D
:103F4000941718F491919D93F9CF1092D702909104
:103F5000D702880F892B8093D7028091D5028130B8
:103F600041F41092D5028091D7028093BB0085EC7A
:103F700001C085EE8093BC00222321F08091D802FD
:103F80008230E1F380916B028F3F61F080916B0290
:103F9000803251F080916B02803341F483E007C09E
:103FA00081E005C080E003C082E001C084E00F91A1
:103FB0000895613298F42091D802243089F46093F6
:103FC0008D02FC018FE892E0DC012A2F281B2617C6
:103FD00018F421912D93F9CF80E0089581E00895A0
:103FE00082E0089585ED8093BC008091BC0084FD43
:103FF000FCCF1092D802089585EC8093BC001092FB
:10400000D80208951F920F920FB60F9211242F938A
:104010003F934F935F936F937F938F939F93AF9350
:10402000BF93EF93FF938091B900887F803609F4A6
:104030009CC068F5883209F45BC090F4803109F4C3
:1040400054C038F4882309F4F5C0883009F44DC011
:10405000F5C0883109F44CC0803209F45DC0EEC06F
:10406000803409F468C048F4803309F455C08833BB
:1040700009F0E4C080936B02A8C0803509F44FC0FA
:10408000883509F45DC0883409F0D8C0D5C08839B6
:1040900009F4C6C0A8F4883709F467C038F4883634
:1040A00009F463C0803709F460C0C8C0883809F4D7
:1040B000B7C0803909F45FC0803809F0BFC05BC069
:1040C000803B09F485C038F4803A09F466C0883A28
:1040D00009F47EC0B3C0803C09F4A6C0883C09F452
:1040E000A3C0883B09F489C0A9C08091D70210C041
:1040F0009091B0028091AF02981770F5E091B002F4
:1041000081E08E0F8093B002F0E0EF54FD4F80818C
:104110008093BB0085EC85C080936B028DC0E091DD
:10412000B00281E08E0F8093B0028091BB00F0E07E
:10413000EF54FD4F80839091B0028091AF026DC02B
:10414000E091B00281E08E0F8093B0028091BB00BD
:10415000F0E0EF54FD4F80838091D60281116CC056
:1041600081E08093D50284EA60C083E08093D80226
:1041700010926C02CFCF80916C02803208F050C058
:10418000E0916C0281E08E0F80936C028091BB0005
:10419000F0E0E359FD4F8083BDCF80916C02803207
:1041A00030F4E0916C02F0E0E359FD4F10820E9480
:1041B000F21F60916C0270E0E091D102F091D202A6
:1041C0008DE692E0099510926C020E94FC1F36C0A9
:1041D00084E08093D80210928E0210928D02E091BA
:1041E000D302F091D402099580918D02811105C00E
:1041F00081E080938D0210928F02E0918E0281E027
:104200008E0F80938E02F0E0E157FD4F8081809306
:10421000BB0090918E0280918D02981708F47ACF9E
:1042200085E88093BC000AC085EC8093BC001092A6
:10423000D80204C010926B020E94F21FFF91EF910E
:10424000BF91AF919F918F917F916F915F914F91AE
:104250003F912F910F900FBE0F901F9018950895CA
:1042600089E192E00E94E41E08950F931F93CB0111
:10427000A0E0B0E0BA2FA92F982F8827842BE7E180
:10428000F0E040E050E868E970E08C019D010E2EFE
:1042900004C036952795179507950A94D2F700FF25
:1042A00004C084279527A627B72776956795579545
:1042B00047953197E730F10541F71F910F91089528
:1042C000EF92FF920F931F93CF93DF937C0160E4F3
:1042D00070E089E192E00E94081F65EF70E089E1DB
:1042E00092E00E94A90189E192E00E941D1F67E30C
:1042F00070E080E090E00E943F2743E050E060E4FF
:1043000070E089E192E00E94FB1E05E610E089E181
:1043100092E00E944D1E039774F461E070E080E02B
:1043200090E00E943F270150110989F760E070E892
:1043300089E794E436C089E192E00E94551E082F77
:1043400089E192E00E94551E182F89E192E00E94B7
:10435000551ED02F90E0C92FC12B482FBE01C70199
:104360000E943521811119C0BE016C7F80E090E070
:104370000E94143220E030E040E857E30E94A2326D
:1043800020E030E04AEF52E40E94A23220E030E028
:1043900040EC50E40E947E3104C060E070EC89E79C
:1043A00094E4DF91CF911F910F91FF90EF900895CA
:1043B000EF92FF920F931F93CF93DF937C0160E402
:1043C00070E089E192E00E94081F63EF70E089E1EC
:1043D00092E00E94A90189E192E00E941D1F67E31B
:1043E00070E080E090E00E943F2743E050E060E40E
:1043F00070E089E192E00E94FB1E05E610E089E191
:1044000092E00E944D1E039774F461E070E080E03A
:1044100090E00E943F270150110989F760E070E8A1
:1044200089E794E436C089E192E00E94551E082F86
:1044300089E192E00E94551E182F89E192E00E94C6
:10444000551ED02F90E0C92FC12B482FBE01C701A8
:104450000E943521811119C0BE016C7F80E090E07F
:104460000E94143220E030E040E857E30E94A2327C
:1044700022E538EB4FE253E40E94A23226E636E60C
:104480004BE352E40E947E3104C060E070EC89E7A7
:1044900094E4DF91CF911F910F91FF90EF900895D9
:1044A0006F927F928F929F92AF92BF92CF92DF9244
:1044B000EF92FF920F931F93CF93DF93EA012CE3C8
:1044C000C22ED12CE12CF12CA70196010E9425339C
:1044D0006883CA01B901A70196010E942533698347
:1044E000CA01B90128E130E040E050E00E942533E4
:1044F00049015A016A83CA01B9016C5F7F4F8F4F2E
:104500009F4F27E030E040E050E00E9425336F5F8E
:104510006B8300E010E0980140E054E6652E712CBA
:1045200060E9C62EDD24D394E42FF0E0EE54F84F7A
:104530007F0183E0E822FF24E114F10489F4CF0134
:10454000B3010E941133892B29F08EE691E0A0E09F
:10455000B0E00AC0CF01B6010E941133892BA9F344
:104560008DE691E0A0E0B0E0080F191F2A1F3B1F65
:10457000D901C801AA27BB2788169906AA06BB0637
:1045800010F04F5FD1CF4E83E114F10499F4CF01C5
:1045900064E670E00E941133892B29F08EE691E0E9
:1045A000A0E0B0E00BC0CF0160E971E00E941133E0
:1045B000892BA1F38DE691E0A0E0B0E0081B190B78
:1045C0002A0B3B0B801A910AA20AB30ACF0164E6B8
:1045D00070E00E9411339C01CF0160E971E00E94FC
:1045E0001133E7EAF1E0A0E0A13059F4E114F1045D
:1045F00051F42115310511F04DE106C00097E1F3AA
:1046000002C0408101C04CE150E060E070E08416DF
:104610009506A606B70640F0841A950AA60AB70AB8
:10462000AF5F3196AC3001F7AF5FAD8383948C827E
:10463000DF91CF911F910F91FF90EF90DF90CF907E
:10464000BF90AF909F908F907F906F9008956F92E2
:104650007F928F929F92AF92BF92CF92DF92EF9212
:10466000FF920F931F93CF93DF93FC01C680AC2D75
:10467000B0E020E833E341EE51E00E945C334B01AF
:104680005C0122EB37E06D01C4E6D0E000E911E007
:10469000C901825B97408C159D05DCF4C9018370CC
:1046A0009927892B99F4C901BE010E941133892BE6
:1046B00031F4C901B8010E941133892B39F480E823
:1046C000880E81E5981E81E0A81EB11C2F5F3F4F28
:1046D000DFCF6580712C8EE4C81A88EFD80AC60136
:1046E00064E670E00E9411338C01C60160E971E05C
:1046F0000E9411337C01C1E0D0E083E0C822DD24B8
:10470000C615D7052CF5C230D10589F4C114D104E2
:1047100071F40115110519F4E114F10441F480E874
:10472000880E8BE3981E86E2A81EB11C0FC0DE0126
:10473000AA55BE4FAC91B0E020E831E541E050E031
:104740000E945C33860E971EA81EB91E2196D8CFF4
:104750004181228130E0A0E1BEE00E944D336B0137
:104760007C01242F30E0ACE3B0E00E944D33C60E54
:10477000D71EE81EF91E8081C80ED11CE11CF11C59
:10478000A481B0E0119720E831E541E050E00E94BB
:104790006733C60ED71EE81EF91EC80CD91CEA1CCA
:1047A000FB1CC701B601DF91CF911F910F91FF90C4
:1047B000EF90DF90CF90BF90AF909F908F907F90C1
:1047C0006F9008950F931F936093E5027093E60234
:1047D0008093E7029093E80200910601109107018F
:1047E0002091080130910901060F171F281F391F5A
:1047F0000093DD021093DE022093DF023093E0028B
:1048000082E090E09093DC028093DB020E9410270C
:104810006093E1027093E2028093E3029093E402DA
:104820001F910F910895CF92DF92EF92FF920F9315
:104830001F930E941027C090E102D090E202E09006
:10484000E302F090E4026C197D098E099F09009142
:10485000E5021091E6022091E7023091E802683EFD
:10486000734081059105D8F00F5F1F4F2F4F3F4FC9
:104870000093E5021093E6022093E7023093E802EA
:1048800048EEC40E43E0D41EE11CF11CC092E102CC
:10489000D092E202E092E302F092E402CACF809169
:1048A000DD029091DE02A091DF02B091E0020817D4
:1048B00019072A073B07C8F1E091D902F091DA0203
:1048C000309799F10995611571058105910519F0E8
:1048D0000E94E2232AC08091060190910701A091D5
:1048E0000801B09109014091E5025091E602609102
:1048F000E7027091E802840F951FA61FB71F8093EF
:10490000DD029093DE02A093DF02B093E00281E02B
:1049100090E02091DB023091DC02232B11F480E047
:1049200090E09093DC028093DB026091E50270914D
:10493000E6028091E7029091E8021F910F91FF90AB
:10494000EF90DF90CF900895EF92FF920F9394E64F
:10495000E916F1042CF092EBE91A97E0F90A03C08A
:104960009EE1E90EF11CE092EF020093EE0220932B
:10497000ED028093EB026093EA024093E90289EE34
:1049800092E00E9427230F91FF90EF900C94E22376
:10499000982F92959F702AEF929F800D1124089571
:1049A00089E192E00C94E41E1F93CF93DF93EC0116
:1049B0006FE670E089E192E00E94081F60E089E103
:1049C00092E00E94A51E60E089E192E00E94A51E8F
:1049D00029811AE0822F612F0E940533682F660F0C
:1049E000680F660F620F89E192E00E94A51E2A817E
:1049F000822F612F0E940533682F660F680F660FA4
:104A0000620F89E192E00E94A51E8B818860682F69
:104A100070E089E192E00E94A9012C81822F612F30
:104A20000E940533682F660F680F660F620F89E1D9
:104A300092E00E94A51E2D81822F612F0E940533D6
:104A4000682F660F680F660F620F89E192E00E947F
:104A5000A51E2E812E51822F612F0E940533682FB3
:104A6000660F680F660F620F89E192E00E94A51E33
:104A700089E192E00E941D1F6FE670E089E192E0FB
:104A80000E94081F60E089E192E00E94A51E288133
:104A9000822F612F0E940533682F660F680F660F03
:104AA000620F606870E089E192E00E94A90189E1EB
:104AB00092E0DF91CF911F910C941D1FCF93DF9354
:104AC000CDB7DEB727970FB6F894DEBF0FBECDBFC8
:104AD000AE014F5F5F4F0E945022CE0101960E94AF
:104AE000D42427960FB6F894DEBF0FBECDBFDF915A
:104AF000CF910895CF93DF93EC016FE670E089E1E9
:104B000092E00E94081F60E089E192E00E94A51EE9
:104B100089E192E00E941D1F81113EC047E050E0F4
:104B20006FE670E089E192E00E94FB1E89E192E06D
:104B30000E94551E8F770E94C824888389E192E0E5
:104B40000E94551E0E94C824898389E192E00E9438
:104B5000551E8F7B0E94C8248A8389E192E00E94BF
:104B6000551E877C8B8389E192E00E94551E0E942E
:104B7000C8248C8389E192E00E94551E8F7D0E949B
:104B8000C8248D8389E192E00E94551E0E94C824AA
:104B9000825E8E8381E001C080E0DF91CF91089535
:104BA000CF93DF93CDB7DEB727970FB6F894DEBF6C
:104BB0000FBECDBFCE0101960E947A25882329F031
:104BC000CE0101960E94272303C060E070E0CB0174
:104BD00027960FB6F894DEBF0FBECDBFDF91CF9101
:104BE000089590E0FC013197EF30F105B0F5EA5AF5
:104BF000FF4F0C944733809180008F7703C08091E2
:104C000080008F7D80938000089580918000877F51
:104C1000F9CF84B58F7702C084B58F7D84BD0895A8
:104C2000809190008F7707C0809190008F7D03C0A6
:104C300080919000877F8093900008958091C000BC
:104C40008F7703C08091C0008F7D8093C00008954E
:104C50008091C200877F8093C2000895CF93DF9335
:104C600090E0FC01EC50FF4F2491FC01EE5EFE4F02
:104C70008491882349F190E0880F991FFC01E45B3F
:104C8000FE4FA591B491825C9E4FFC01C591D491D9
:104C90009FB7611108C0F8948C91209582238C9362
:104CA000888182230AC0623051F4F8948C91322FAB
:104CB000309583238C938881822B888304C0F89459
:104CC0008C91822B8C939FBFDF91CF9108950F938E
:104CD0001F93CF93DF931F92CDB7DEB7282F30E01D
:104CE000F901EA52FF4F8491F901EC50FF4F149102
:104CF000F901EE5EFE4F04910023C9F0882321F0F4
:104D000069830E94F1256981E02FF0E0EE0FFF1F1B
:104D1000E25CFE4FA591B4919FB7F8948C9161111C
:104D200003C01095812301C0812B8C939FBF0F90EE
:104D3000DF91CF911F910F910895CF93DF93282F8B
:104D400030E0F901EA52FF4F8491F901EC50FF4F36
:104D5000D491F901EE5EFE4FC491CC2391F0811104
:104D60000E94F125EC2FF0E0EE0FFF1FE05DFE4FFB
:104D7000A591B4912C912D2381E090E021F480E065
:104D800002C080E090E0DF91CF9108951F920F92D2
:104D90000FB60F9211242F933F938F939F93AF934E
:104DA000BF938091F1029091F202A091F302B09131
:104DB000F4023091F00223E0230F2D3720F4019606
:104DC000A11DB11D05C026E8230F0296A11DB11D2E
:104DD0002093F0028093F1029093F202A093F302E9
:104DE000B093F4028091F5029091F602A091F7023F
:104DF000B091F8020196A11DB11D8093F502909328
:104E0000F602A093F702B093F802BF91AF919F9181
:104E10008F913F912F910F900FBE0F901F9018957B
:104E20002FB7F8946091F1027091F2028091F30231
:104E30009091F4022FBF08953FB7F8948091F50246
:104E40009091F602A091F702B091F80226B5A89BC6
:104E500005C02F3F19F00196A11DB11D3FBF662768
:104E6000782F892F9A2F620F711D811D911D42E0AD
:104E7000660F771F881F991F4A95D1F70895CF9223
:104E8000DF92EF92FF92CF93DF936B017C010E9440
:104E90001C27EB01C114D104E104F10489F00E9444
:104EA0007D310E941C276C1B7D0B683E734090F384
:104EB00081E0C81AD108E108F108C851DC4FEACFF7
:104EC000DF91CF91FF90EF90DF90CF90089578948D
:104ED00084B5826084BD84B5816084BD85B58260FF
:104EE00085BD85B5816085BDEEE6F0E0808181609D
:104EF0008083E1E8F0E0108280818260808380819D
:104F000081608083E0E8F0E0808181608083E1E976
:104F1000F0E0808182608083808181608083E0E92D
:104F2000F0E0808181608083E1ECF0E0808184604A
:104F30008083808182608083808181608083E3ECD4
:104F4000F0E0808181608083E0ECF0E0808182602D
:104F50008083E2ECF0E0808181608083EAE7F0E02A
:104F60008081846080838081826080838081816091
:104F70008083808180688083089580930A010895EA
:104F8000823108F08251E82FF0E0E653FF4FE491C0
:104F900080917B00E3FB222720F930E095E0220F8F
:104FA000331F9A95E1F78F7D822B80937B00E7700A
:104FB00080910A0120E4829FC0011124E82BE09334
:104FC0007C0080917A00806480937A0080917A00DE
:104FD00086FDFCCF809178002091790090E0922BA3
:104FE0000895CF93DF931F92CDB7DEB76983DC01BD
:104FF000ED91FC910280F381E02D41E050E0BE0193
:105000006F5F7F4F09950F90DF91CF910895CF93F8
:10501000DF93EC018C859D8597FF05C082E00E949F
:10502000A2299D878C878C859D85DF91CF910895DE
:1050300083E00C94F72BFC018485958597FD06C0D1
:1050400082E00E944A2990E00196089582E00E9441
:105050004A2990E00895FC018485958597FD05C057
:105060002FEF3FEF35872487089582E00C94A22923
:10507000CF93DF93EC0180911201882331F083E01C
:105080000E94D3291816190634F081E090E09B8322
:105090008A8380E090E0DF91CF910895FC01208128
:1050A0002E5F208342E450E06AE571E080E80C94D2
:1050B0006E2AFC0181819081913A59F4813209F084
:1050C0003CC047E050E06BE071E080E00E946E2A57
:1050D00043C0913291F5803239F467E070E08BE0A3
:1050E00091E00E949F2A06C0823209F035C0828179
:1050F0008093120180910B0190910C01A0910D0100
:10510000B0910E01803B9440A105B105C1F480919E
:10511000120180FD14C087E797E790930108809300
:1051200000082BE088E190E00FB6F894A8958093F2
:1051300060000FBE209360000FC080E0089588E1FA
:105140000FB6F89480936000109260000FBEA8958F
:10515000109201081092000881E008952FEF3FEFB0
:10516000FC013587248708951092FC021092FB02FF
:1051700088EE93E0A0E0B0E08093FD029093FE0201
:10518000A093FF02B093000387EB91E09093FA02A3
:105190008093F9028FEF9FEF9093060380930503AE
:1051A000089540914D0350914E0320914B0330914F
:1051B0004C0342175307B4F49091E8009570E1F363
:1051C0009091E80092FD19C08093F10080914D0309
:1051D00090914E0301968F739927892B19F48EEFC6
:1051E0008093E80080914D0390914E030196909337
:1051F0004E0380934D0381E0089580E00895CF929F
:10520000DF92FF920F931F93CF93DF931F92CDB73F
:10521000DEB7082F162F862F880F8E5F99830E9486
:10522000D12883E00E94D128F02EC02E9981D92E5A
:105230008C2D8F19811778F4F60184910E94D12862
:10524000082F80E00E94D1288023FFEFCF1ADF0AC9
:105250008111EECF01C081E00F90DF91CF911F91BE
:105260000F91FF90DF90CF900895615030F0209122
:10527000F100FC0120830196F8CF289A84E6809300
:10528000500308952FB7FC012083F8946770609352
:10529000E9000895CF93DF931F92CDB7DEB7682F53
:1052A000CE0101960E9442298091F20099819FBF10
:1052B0000F90DF91CF910895FF920F931F93CF939B
:1052C000DF9300D0CDB7DEB7F62E8A0190914F0361
:1052D000992311F057FF03C08FEF9FEF2BC0682F6A
:1052E000CE0101967A830E9442298091F20090E0DB
:1052F000A8017A81801791070CF4AC01EF2DF72FEC
:10530000F40E84E6FE1639F0289A809350039091AB
:10531000F1009193F7CF4115510521F08091F200F2
:10532000882321F089818FBFCA0104C08BE6809356
:10533000E800F8CF0F900F90DF91CF911F910F9160
:10534000FF900895CF93DF931F92CDB7DEB741E072
:1053500050E0BE016F5F7F4F0E945C29019719F4F6
:10536000898190E002C08FEF9FEF0F90DF91CF9186
:105370000895CF93DF931F92CDB7DEB7682FCE018C
:1053800001960E9442299091E800892F807295FF32
:1053900004C09091F20080E4891B99819FBF0F9017
:1053A000DF91CF9108956F927F928F929F92AF92EB
:1053B000BF92CF92DF92EF92FF920F931F93CF9302
:1053C000DF931F92CDB7DEB7782E7B01C42EB52EAA
:1053D00080914F03882369F0042F152F8AEFD82E70
:1053E000872D8072982E9AE3A92E872D8074882E9F
:1053F00011C08FEF9FEF57C0872D0E94B929682EEB
:1054000081110CC0DA94A9F361E070E080E090E0D3
:105410000E943F270115110579F73BC0282F30E086
:10542000021713070CF4602E672DCE0101960E941F
:1054300042298091E80085FF29C0262D30E0021B1B
:10544000130B992039F06A948FEF6816B1F010921F
:10545000F100F9CFF701862D77FE07C0815058F093
:1054600094919093F1003196F9CF815020F0919171
:105470009093F100FACFE20EF31E8091E80085FFD1
:105480000FC00115110511F481100AC089818FBF69
:10549000C1CF5D9A84E6809351038C2D9B2D03C070
:1054A000A092E800F3CF0F90DF91CF911F910F9161
:1054B000FF90EF90DF90CF90BF90AF909F908F9034
:1054C0007F906F9008951092E90010924E03109211
:1054D0004D0390934C0380934B030895CF92DF923A
:1054E000FF920F931F93CF93DF9300D0CDB7DEB71A
:1054F000F82E8A016B0101151105B1F0F601F7FED6
:1055000002C0849101C0808149835A830E94D128BE
:1055100001501109FFEFCF1ADF0A49815A81811129
:10552000EACF8FEF9FEF01C0CA010F900F90DF917C
:10553000CF911F910F91FF90DF90CF9008951F930F
:10554000CF93DF931F92CDB7DEB7162F2091E800DF
:1055500022FFFCCF612F79830E9435298BEF809346
:10556000E800812F7981972F0F90DF91CF911F91C4
:105570000895CF93DF931F92CDB7DEB71982CE0186
:1055800001960E944E28CE0101960E94952C898199
:1055900090E00F90DF91CF9108951F920F920FB678
:1055A0000F921124EF92FF920F931F932F933F932B
:1055B0004F935F936F937F938F939F93AF93BF931B
:1055C000EF93FF93CF93DF93CDB7DEB76297DEBF44
:1055D000CDBF1092E9008091E80083FFEBC068E046
:1055E000CE010A960E94352982EF8093E8009A85C1
:1055F00097FF05C08091E80080FFFCCF03C08EEFCD
:105600008093E800892F807609F0B9C08B858111DD
:1056100005C01092F1001092F100C5C0282F2D7F17
:10562000213009F4C0C0853049F48091E80080FF42
:10563000FCCF8C8580688093E300B5C0863009F08C
:1056400076C02D85E888F988223071F580E090E0F9
:105650002A8B0E94632A0E94B92A99E08E010F5F6B
:105660001F4FF801392F11923A95E9F799832A894A
:105670002A8391E09E8390E898879AEF99872091FA
:105680004D0330914E03275F3F4F3C832B838D8327
:10569000C7010E94632A49E050E0B80180E00E94FF
:1056A0006E2A0E94B92A7FC0C7012A8B0E94632AF2
:1056B0002A89223241F482E290E00E94A02C892BB8
:1056C00009F071C074C0213069F4888999890897FC
:1056D00011F420934A0380914A03811118C063EBAF
:1056E00071E01AC0233009F062C08C85882391F0E4
:1056F000823021F46DE081ED91E006C0813009F047
:1057000056C06BE085EC91E00E94FF284AC061EA38
:1057100071E002C06FED71E06115710509F447C0D9
:10572000FB01449150E080E80E946E2A3CC0873023
:1057300009F43DC0883021F481E08093F10033C04A
:10574000893089F5937099F5EDE9F1E081E021E088
:1057500096E38093E9002093EB0034913093EC00C2
:105760009093ED008F5F3196853099F78EE78093A7
:10577000EA001092EA008C8580934F0314C0888958
:1057800099890E94632A8E85811105C0CE010A96EF
:105790000E94592806C0823051F4CE010A960E9418
:1057A000C82C882321F08EEF8093E80003C081E2AB
:1057B0008093EB0062960FB6F894DEBF0FBECDBFAC
:1057C000DF91CF91FF91EF91BF91AF919F918F9119
:1057D0007F916F915F914F913F912F911F910F9109
:1057E000FF90EF900F900FBE0F901F901895809331
:1057F000E9008091F200882319F08AE38093E800A1
:1058000008951F920F920FB60F9211242F933F937A
:105810004F935F936F937F938F939F93AF93BF93B8
:10582000EF93FF938091E1001092E10083FF0FC09E
:105830001092E90091E09093EB001092EC0092E35B
:105840009093ED0010924F0398E09093F00082FF48
:105850001DC083E00E94F72B80915103882339F00B
:1058600080915103815080935103882369F0809186
:105870005003882359F08091500381508093500346
:10588000811104C0289802C05D98F1CFFF91EF917B
:10589000BF91AF919F918F917F916F915F914F9148
:1058A0003F912F910F900FBE0F901F90189510925F
:1058B0004F0381E08093D70080EA8093D80082E193
:1058C00089BD09B400FEFDCF61E070E080E090E0AA
:1058D0000E943F2780E98093D8008CE08093E2000B
:1058E0001092E000559A209A5D9828980895FF92AA
:1058F0000F931F93CF93DF93EC01F62EE881F9818C
:105900000480F581E02D09958C01E881F9810680FC
:10591000F781E02D6F2DCE010995C8019927DF9100
:10592000CF911F910F91FF900895FC0120812F5F6F
:10593000208349E150E063E672E080E80C946E2A2F
:1059400045E650E06CE772E080E80C946E2AEF9236
:10595000FF920F931F93CF93DF931F92CDB7DEB7C4
:1059600089838B017A0141E050E0BE016F5F7F4F78
:1059700084E00E94D329A701B80184E40E94D329BE
:105980000F90DF91CF911F910F91FF90EF900895AD
:10599000FC0191818081813A31F481E0913091F074
:1059A000933089F411C0813271F49B3021F48281EB
:1059B0008093140105C09A3031F4828180931301E1
:1059C00081E00895089580E0089548E050E082E085
:1059D0000C94A72CCF93DF93DC01683818F0E8E72C
:1059E000E60F25C0E62FF0E067FF11C0E058F1098F
:1059F00081E090E001C0880FEA95EAF714969C9147
:105A00001497982B14969C931497E0E010C0ED51D6
:105A1000FE4FE491EE2309F440C0E7FF08C014965E
:105A20008C911497826014968C931497EF77169646
:105A30008C9116978E1741F117968C9117978E17A8
:105A400019F118968C9118978E17F1F019968C9180
:105A500019978E17C9F01A968C911A978E17A1F084
:105A60001B968C911B978E1779F080E090E0ED01EA
:105A7000C80FD91F2E81211102C0EE8305C00196E7
:105A800086309105A1F709C0BD016C5F7F4FCD0144
:105A90000E94E52C81E090E008C081E090E0139640
:105AA0009C938E93129780E090E0DF91CF910895C0
:105AB000683818F0E8E7E60F25C0E62FF0E067FF4A
:105AC00012C0E058F10921E030E001C0220FEA9550
:105AD000EAF72095DC0114963C9114973223149632
