:100000000C9476010C9409070C94A7010C94A70199
:100010000C94A7010C94A7010C94A7010C94A701C0
:100020000C94A7010C94A7010C94032B0C94CF29DA
:100030000C94A7010C94A7010C94A7010C94A701A0
:100040000C94A7010C94A7010C94A7010C94A70190
:100050000C94F9060C94A7010C94A7010C94C825E4
:100060000C94A7010C940A1E0C94A7010C94A701F0
:100070000C94A7010C94A7010C94A7010C94A70160
:100080000C94A7010C94A7010C94A7010C94A70150
:100090000C94EA1F0C94A7010C94A7010C94A701DF
:1000A0000C94A7010C94A7010C94A7010B250E2515
:1000B000FD24012507252F252F252F25122516255F
:1000C0001A25202524252F252A25070605040100A9
:1000D000080A0B0C0D090000000200090F000003C4
:1000E0000401000C000000000000000000000000FF
:1000F00000000000040802011040804010204080F1
:10010000408008020401804020100201108010206D
:100110004040040404040403040502020202040330
:100120000202020206060606060604040202020491
:10013000000000002300260029002C002F000000F2
:100140000000250028002B002E00310000000000D8
:10015000240027002A002D003000080B00020202B4
:100160000100090400000102020000052400100142
:1001700005240101010424020605240600010705E7
:10018000810310004009040100020A000000070575
:1001900002024000000705830240000000C1808188
:1001A000C11201000202000040412337800001011A
:1001B00002000112010002000000404123378000CC
:1001C000010102000141726475696E6F204C4C435D
:1001D0000041726475696E6F204D6963726F00042F
:1001E00003090400000000000000002A2B28000082
:1001F00000000000000000000000000000000000FF
:100200000000002C9EB4A0A1A2A434A6A7A5AE36DF
:100210002D3738271E1F20212223242526B333B64D
:100220002EB7B89F8485868788898A8B8C8D8E8F20
:10023000909192939495969798999A9B9C9D2F3123
:1002400030A3AD350405060708090A0B0C0D0E0F87
:10025000101112131415161718191A1B1C1DAFB103
:10026000B0B50009040200010300000009210101EA
:100270000001226500070584034000010501090211
:10028000A1010901A1008501050919012903150032
:10029000250195037501810295017505810305010D
:1002A0000930093109381581257F750895038106C4
:1002B000C0C005010906A1018502050719E029E76B
:1002C00015002501750195088102950175088103C6
:1002D0009506750815002565050719002965810033
:1002E000C0008115081FD223B627AF2C11241FBED2
:1002F000CFEFDAE0DEBFCDBF14BE88E10FB6F894D1
:1003000080936000109260000FBE11E0A0E0B1E0A9
:10031000EAEEFAE602C005900D92A23FB107D9F7C6
:1003200023E0A2EFB1E001C01D92A136B207E1F7D0
:1003300012E0CCEED2E004C02297FE010E94FC3114
:10034000C23ED107C9F70E94BD2C0C9473350C94A2
:100350000000DC01ED91FC910190F081E02D099409
:100360001F93CF93DF9389E292E00E94C0210E9405
:100370009630709309026093080289E292E00E942D
:1003800048210E949B30162F6093070280E390E083
:100390000E94F234C0910802D09109028C179D0787
:1003A000BCF48EE290E00E94F234C817D90784F4BE
:1003B00087E190E00E94E434811750F486E190E0F8
:1003C0000E94E43491E0181708F090E0892F01C0F2
:1003D00080E0DF91CF911F9108951F93CF93DF931A
:1003E00089E292E00E94C0210E9496307093090237
:1003F0006093080289E292E00E9448210E949B30AB
:10040000162F6093070284E390E00E94F234C091BB
:100410000802D09109028C179D07BCF482E390E09A
:100420000E94F234C817D90784F489E190E00E9451
:10043000E434811750F488E190E00E94E43491E0C4
:10044000181708F090E0892F01C080E0DF91CF916C
:100450001F910895CF93DF93C82F0E949F25D82F17
:1004600064E170E080E090E00E9441268C2F0E94C1
:100470009F25D81318C062E070E080E090E00E94F1
:1004800041268C2F0E949F25D82F64E170E080E0E8
:1004900090E00E9441268C2F0E949F2591E0D81366
:1004A00003C090E001C091E0892FDF91CF910895C2
:1004B000CF93DF938230E9F0833091F1813009F0FE
:1004C00045C084E10E94C226EC019093FC01809318
:1004D000FB0184E290E00E94F2348C179D07B0F596
:1004E00082E290E00E94F234C817D90778F581E0E3
:1004F0002EC085E10E94C226EC019093F801809302
:10050000F70180E290E00E94F2348C179D07F0F42E
:100510008EE190E00E94F234C817D90740F316C06C
:1005200086E10E94C226EC019093F4018093F301CE
:100530008CE190E00E94F2348C179D0738F48AE138
:1005400090E00E94F234C817D90788F280E0DF916A
:10055000CF910895CF93DF9382E10E94C226EC01F0
:1005600090930402809303028CE290E00E94F234A4
:100570008C179D0758F48AE290E00E94F23421E043
:10058000C817D90708F020E0822F01C080E0DF9172
:10059000CF910895CF93DF9383E10E94C226EC01AF
:1005A000909300028093FF0188E290E00E94F23471
:1005B0008C179D0758F486E290E00E94F23421E007
:1005C000C817D90708F020E0822F01C080E0DF9132
:1005D000CF910895CF93DF93CDB7DEB72C970FB6A9
:1005E000F894DEBF0FBECDBF6AE286EF92E00E94B4
:1005F000A62F63EE71E0CE0107960E943E2D41E2E8
:1006000066EF72E0CE0101960E94152FBE016F5F6A
:100610007F4FCE0107960E94542DCE0101960E9475
:10062000D02C8B859C85892B31F0CE0107960E94BA
:10063000D62E0E946024CE0107960E94D02C2C96C4
:100640000FB6F894DEBF0FBECDBFDF91CF910895F6
:10065000CF93C82F60E00E94692560ED77E080E0CD
:1006600090E00E94412661E08C2FCF910C94692587
:100670000F931F93CF93DF93CDB7DEB72C970FB6B1
:10068000F894DEBF0FBECDBF8C0163E286EF92E02F
:100690000E94A62F6AE070E080E090E00E94412670
:1006A0000E94D224AB01BC012AE0CE0107960E9431
:1006B000112EBE01695F7F4FCE0101960E946B2D06
:1006C0006CE2CE0101960E94972EB8010E94842E02
:1006D000BC01C8010E94542DCE0101960E94D02C6D
:1006E000CE0107960E94D02CB80186EF92E00E94BE
:1006F000942F6AE070E080E090E00E9441262C9602
:100700000FB6F894DEBF0FBECDBFDF91CF911F9122
:100710000F910895CF93DF93CDB7DEB762970FB6F1
:10072000F894DEBF0FBECDBF63EE71E0CE010D9633
:100730000E943E2D60E486EF92E00E94A62F6AE0C0
:1007400070E080E090E00E9441260E94D224AB013C
:10075000BC012AE0CE0107960E94112EBE01695FFE
:100760007F4FCE0101960E946B2D6CE2CE01019667
:100770000E94972EBC01CE010D960E946A2ECE01DA
:1007800001960E94D02CCE0107960E94D02C87E1C2
:100790000E94C2264AE0BC01CE0107960E94B92DF4
:1007A000BE01695F7F4FCE0101960E946B2D6CE206
:1007B000CE0101960E94972EBC01CE010D960E949B
:1007C0006A2ECE0101960E94D02CCE0107960E947F
:1007D000D02C60910A0270910B024AE0CE0107967C
:1007E0000E94E52DBE01695F7F4FCE0101960E94F8
:1007F0006B2D6CE2CE0101960E94972EBC01CE01BA
:100800000D960E946A2ECE0101960E94D02CCE0138
:1008100007960E94D02C60910802709109024AE06C
:10082000CE0107960E94B92DBE01695F7F4FCE01B0
:1008300001960E946B2D6CE2CE0101960E94972ECC
:10084000BC01CE010D960E946A2ECE0101960E9437
:10085000D02CCE0107960E94D02C4AE0609107026E
:10086000CE0107960E948C2DBE01695F7F4FCE019D
:1008700001960E946B2D6CE2CE0101960E94972E8C
:10088000BC01CE010D960E946A2ECE0101960E94F7
:10089000D02CCE0107960E94D02C60910502709159
:1008A00006024AE0CE0107960E94E52DBE01695F6F
:1008B0007F4FCE0101960E946B2D6CE2CE01019616
:1008C0000E94972EBC01CE010D960E946A2ECE0189
:1008D00001960E94D02CCE0107960E94D02C6091E8
:1008E0000302709104024AE0CE0107960E94E52DB2
:1008F000BE01695F7F4FCE0101960E946B2D6CE2B5
:10090000CE0101960E94972EBC01CE010D960E9449
:100910006A2ECE0101960E94D02CCE0107960E942D
:10092000D02C88E090E00E94E4344AE0882319F05B
:1009300061E070E002C060E070E0CE0107960E94C6
:10094000B92DBE01695F7F4FCE0101960E946B2DCC
:100950006CE2CE0101960E94972EBC01CE010D964D
:100960000E946A2ECE0101960E94D02CCE010796DD
:100970000E94D02C6091270270E04AE0CE010796D9
:100980000E94B92DBE01695F7F4FCE0101960E9482
:100990006B2D6CE2CE0101960E94972EBC01CE0118
:1009A0000D960E946A2ECE0101960E94D02CCE0197
:1009B00007960E94D02C60910102709102024AE0D9
:1009C000CE0107960E94E52DBE01695F7F4FCE01E3
:1009D00001960E946B2D6CE2CE0101960E94972E2B
:1009E000BC01CE010D960E946A2ECE0101960E9496
:1009F000D02CCE0107960E94D02C6091FF017091FF
:100A000000024AE0CE0107960E94E52DBE01695F13
:100A10007F4FCE0101960E946B2D6CE2CE010196B4
:100A20000E94972EBC01CE010D960E946A2ECE0127
:100A300001960E94D02CCE0107960E94D02C87E010
:100A400090E00E94E4344AE0882319F061E070E00D
:100A500002C060E070E0CE0107960E94B92DBE0191
:100A6000695F7F4FCE0101960E946B2D6CE2CE0133
:100A700001960E94972EBC01CE010D960E946A2E0F
:100A8000CE0101960E94D02CCE0107960E94D02C58
:100A90006091260270E04AE0CE0107960E94B92DCF
:100AA000BE01695F7F4FCE0101960E946B2D6CE203
:100AB000CE0101960E94972EBC01CE010D960E9498
:100AC0006A2ECE0101960E94D02CCE0107960E947C
:100AD000D02C6091FD017091FE014AE0CE01079695
:100AE0000E94E52DBE01695F7F4FCE0101960E94F5
:100AF0006B2D6CE2CE0101960E94972EBC01CE01B7
:100B00000D960E946A2ECE0101960E94D02CCE0135
:100B100007960E94D02C6091FB017091FC014AE085
:100B2000CE0107960E94E52DBE01695F7F4FCE0181
:100B300001960E946B2D6CE2CE0101960E94972EC9
:100B4000BC01CE010D960E946A2ECE0101960E9434
:100B5000D02CCE0107960E94D02C86E090E00E9417
:100B6000E4344AE0882319F061E070E002C060E0FC
:100B700070E0CE0107960E94B92DBE01695F7F4FDC
:100B8000CE0101960E946B2D6CE2CE0101960E946F
:100B9000972EBC01CE010D960E946A2ECE010196C1
:100BA0000E94D02CCE0107960E94D02C6091250285
:100BB00070E04AE0CE0107960E94B92DBE01695F40
:100BC0007F4FCE0101960E946B2D6CE2CE01019603
:100BD0000E94972EBC01CE010D960E946A2ECE0176
:100BE00001960E94D02CCE0107960E94D02C6091D5
:100BF000F9017091FA014AE0CE0107960E94E52DB5
:100C0000BE01695F7F4FCE0101960E946B2D6CE2A1
:100C1000CE0101960E94972EBC01CE010D960E9436
:100C20006A2ECE0101960E94D02CCE0107960E941A
:100C3000D02C6091F7017091F8014AE0CE0107963F
:100C40000E94E52DBE01695F7F4FCE0101960E9493
:100C50006B2D6CE2CE0101960E94972EBC01CE0155
:100C60000D960E946A2ECE0101960E94D02CCE01D4
:100C700007960E94D02C85E090E00E94E4344AE080
:100C8000882319F061E070E002C060E070E0CE01FE
:100C900007960E94B92DBE01695F7F4FCE01019674
:100CA0000E946B2D6CE2CE0101960E94972EBC0132
:100CB000CE010D960E946A2ECE0101960E94D02C84
:100CC000CE0107960E94D02C6091240270E04AE089
:100CD000CE0107960E94B92DBE01695F7F4FCE01FC
:100CE00001960E946B2D6CE2CE0101960E94972E18
:100CF000BC01CE010D960E946A2ECE0101960E9483
:100D0000D02CCE0107960E94D02C6091F5017091F5
:100D1000F6014AE0CE0107960E94E52DBE01695F0B
:100D20007F4FCE0101960E946B2D6CE2CE010196A1
:100D30000E94972EBC01CE010D960E946A2ECE0114
:100D400001960E94D02CCE0107960E94D02C609173
:100D5000F3017091F4014AE0CE0101960E94E52D65
:100D6000BE016F5F7F4FCE010D960E946A2ECE01AD
:100D700001960E94D02CBE01635F7F4F86EF92E008
:100D80000E94942FCE010D960E94D02C62960FB631
:100D9000F894DEBF0FBECDBFDF91CF91089568E21A
:100DA00086EF92E00E94A62F6AE070E080E090E07B
:100DB0000E9441260E94D224AB01BC012AE030E00F
:100DC00086EF92E00C941E3060E084E00E9469257A
:100DD00060E086E00E94692560E088E00E94692565
:100DE00060E08AE00E94692560E08CE00E9469254D
:100DF000FFCF1F920F920FB60F9211248F93A895D9
:100E000081E080932C028F910F900FBE0F901F9066
:100E100018951F920F920FB60F9211248F931DBA3F
:100E200081E08093F2018F910F900FBE0F901F9081
:100E30001895EF92FF920F931F93CF93DF93CDB747
:100E4000DEB7C85DD1090FB6F894DEBF0FBECDBFC7
:100E500064E286EF92E00E94A62F63EE71E0CE017D
:100E60008D529F4F0E943E2D41E266EF72E0CE010F
:100E700001960E94152FBE016F5F7F4FCE018D52EC
:100E80009F4F0E94542DCE0101960E94D02CC95232
:100E9000DF4F88819981C75DD040892B09F48BC6CB
:100EA00063EE71E0CE0183539F4F0E943E2D63EEAF
:100EB00071E0CE0189539F4F0E943E2D63EE71E099
:100EC000CE018F539F4F0E943E2D63EE71E0CE0105
:100ED00085549F4F0E943E2D63EE71E0CE018B54EE
:100EE0009F4F0E943E2D63EE71E0CE0181559F4FD2
:100EF0000E943E2D63EE71E0CE0187559F4F0E9408
:100F00003E2D63EE71E0CE018D559F4F0E943E2D28
:100F100063EE71E0CE0183569F4F0E943E2D63EE3B
:100F200071E0CE0189569F4F0E943E2D63EE71E025
:100F3000CE018F569F4F0E943E2D63EE71E0CE0191
:100F400085579F4F0E943E2D63EE71E0CE018B5777
:100F50009F4F0E943E2D63EE71E0CE0181589F4F5E
:100F60000E943E2D63EE71E0CE0187589F4F0E9494
:100F70003E2D63EE71E0CE018D589F4F0E943E2DB5
:100F800063EE71E0CE0183599F4F0E943E2D63EEC8
:100F900071E0CE0189599F4F0E943E2D63EE71E0B2
:100FA000CE018F599F4F0E943E2D63EE71E0CE011E
:100FB000855A9F4F0E943E2D63EE71E0CE018B5A01
:100FC0009F4F0E943E2D63EE71E0CE01815B9F4FEB
:100FD0000E943E2D63EE71E0CE01875B9F4F0E9421
:100FE0003E2D63EE71E0CE018D5B9F4F0E943E2D42
:100FF00063EE71E0CE01CD960E943E2D63EE71E06E
:10100000CE01C7960E943E2D63EE71E0CE01C196DF
:101010000E943E2D63EE71E0CE018B960E943E2D24
:1010200063EE71E0CE0185960E943E2D63EE71E085
:10103000CE014F960E943E2D63EE71E0CE0149969F
:101040000E943E2D63EE71E0CE0143960E943E2D3C
:1010500063EE71E0CE010D960E943E2D63EE71E0CD
:10106000CE0107960E943E2D63EE71E0CE010196FF
:101070000E943E2DE12CF12C8701B701CE018D524B
:101080009F4F0E94C42EFC012081C70101967C0164
:101090002C3271F0B801CE018D529F4F0E94C42EA8
:1010A000FC016081CE0183539F4F0E94712EE4CFDB
:1010B0008701B701CE018D529F4F0E94C42EFC01C3
:1010C0002081C70101967C012C3271F0B801CE015C
:1010D0008D529F4F0E94C42EFC016081CE01895326
:1010E0009F4F0E94712EE4CF8701B701CE018D5230
:1010F0009F4F0E94C42EFC012081C70101967C01F4
:101100002C3271F0B801CE018D529F4F0E94C42E37
:10111000FC016081CE018F539F4F0E94712EE4CF5E
:101120008701B701CE018D529F4F0E94C42EFC0152
:101130002081C70101967C012C3271F0B801CE01EB
:101140008D529F4F0E94C42EFC016081CE018554B8
:101150009F4F0E94712EE4CF8701B701CE018D52BF
:101160009F4F0E94C42EFC012081C70101967C0183
:101170002C3271F0B801CE018D529F4F0E94C42EC7
:10118000FC016081CE018B549F4F0E94712EE4CFF1
:101190008701B701CE018D529F4F0E94C42EFC01E2
:1011A0002081C70101967C012C3271F0B801CE017B
:1011B0008D529F4F0E94C42EFC016081CE0181554B
:1011C0009F4F0E94712EE4CF8701B701CE018D524F
:1011D0009F4F0E94C42EFC012081C70101967C0113
:1011E0002C3271F0B801CE018D529F4F0E94C42E57
:1011F000FC016081CE0187559F4F0E94712EE4CF84
:101200008701B701CE018D529F4F0E94C42EFC0171
:101210002081C70101967C012C3271F0B801CE010A
:101220008D529F4F0E94C42EFC016081CE018D55CE
:101230009F4F0E94712EE4CF8701B701CE018D52DE
:101240009F4F0E94C42EFC012081C70101967C01A2
:101250002C3271F0B801CE018D529F4F0E94C42EE6
:10126000FC016081CE0183569F4F0E94712EE4CF16
:101270008701B701CE018D529F4F0E94C42EFC0101
:101280002081C70101967C012C3271F0B801CE019A
:101290008D529F4F0E94C42EFC016081CE01895661
:1012A0009F4F0E94712EE4CF8701B701CE018D526E
:1012B0009F4F0E94C42EFC012081C70101967C0132
:1012C0002C3271F0B801CE018D529F4F0E94C42E76
:1012D000FC016081CE018F569F4F0E94712EE4CF9A
:1012E0008701B701CE018D529F4F0E94C42EFC0191
:1012F0002081C70101967C012C3271F0B801CE012A
:101300008D529F4F0E94C42EFC016081CE018557F3
:101310009F4F0E94712EE4CF8701B701CE018D52FD
:101320009F4F0E94C42EFC012081C70101967C01C1
:101330002C3271F0B801CE018D529F4F0E94C42E05
:10134000FC016081CE018B579F4F0E94712EE4CF2C
:101350008701B701CE018D529F4F0E94C42EFC0120
:101360002081C70101967C012C3271F0B801CE01B9
:101370008D529F4F0E94C42EFC016081CE01815886
:101380009F4F0E94712EE4CF8701B701CE018D528D
:101390009F4F0E94C42EFC012081C70101967C0151
:1013A0002C3271F0B801CE018D529F4F0E94C42E95
:1013B000FC016081CE0187589F4F0E94712EE4CFBF
:1013C0008701B701CE018D529F4F0E94C42EFC01B0
:1013D0002081C70101967C012C3271F0B801CE0149
:1013E0008D529F4F0E94C42EFC016081CE018D580A
:1013F0009F4F0E94712EE4CF8701B701CE018D521D
:101400009F4F0E94C42EFC012081C70101967C01E0
:101410002C3271F0B801CE018D529F4F0E94C42E24
:10142000FC016081CE0183599F4F0E94712EE4CF51
:101430008701B701CE018D529F4F0E94C42EFC013F
:101440002081C70101967C012C3271F0B801CE01D8
:101450008D529F4F0E94C42EFC016081CE0189599C
:101460009F4F0E94712EE4CF8701B701CE018D52AC
:101470009F4F0E94C42EFC012081C70101967C0170
:101480002C3271F0B801CE018D529F4F0E94C42EB4
:10149000FC016081CE018F599F4F0E94712EE4CFD5
:1014A0008701B701CE018D529F4F0E94C42EFC01CF
:1014B0002081C70101967C012C3271F0B801CE0168
:1014C0008D529F4F0E94C42EFC016081CE01855A2F
:1014D0009F4F0E94712EE4CF8701B701CE018D523C
:1014E0009F4F0E94C42EFC012081C70101967C0100
:1014F0002C3271F0B801CE018D529F4F0E94C42E44
:10150000FC016081CE018B5A9F4F0E94712EE4CF67
:101510008701B701CE018D529F4F0E94C42EFC015E
:101520002081C70101967C012C3271F0B801CE01F7
:101530008D529F4F0E94C42EFC016081CE01815BC1
:101540009F4F0E94712EE4CF8701B701CE018D52CB
:101550009F4F0E94C42EFC012081C70101967C018F
:101560002C3271F0B801CE018D529F4F0E94C42ED3
:10157000FC016081CE01875B9F4F0E94712EE4CFFA
:101580008701B701CE018D529F4F0E94C42EFC01EE
:101590002081C70101967C012C3271F0B801CE0187
:1015A0008D529F4F0E94C42EFC016081CE018D5B45
:1015B0009F4F0E94712EE4CF8701B701CE018D525B
:1015C0009F4F0E94C42EFC012081C70101967C011F
:1015D0002C3269F0B801CE018D529F4F0E94C42E6B
:1015E000FC016081CE01CD960E94712EE5CF87016E
:1015F000B701CE018D529F4F0E94C42EFC01208165
:10160000C70101967C012C3269F0B801CE018D52E0
:101610009F4F0E94C42EFC016081CE01C7960E949C
:10162000712EE5CF8701B701CE018D529F4F0E94E9
:10163000C42EFC012081C70101967C012C3269F087
:10164000B801CE018D529F4F0E94C42EFC016081D3
:10165000CE01C1960E94712EE5CF8701B701CE0160
:101660008D529F4F0E94C42EFC012081C70101961C
:101670007C012C3269F0B801CE018D529F4F0E943F
:10168000C42EFC016081CE018B960E94712EE5CFA5
:101690008701B701CE018D529F4F0E94C42EFC01DD
:1016A0002081C70101967C012C3269F0B801CE017E
:1016B0008D529F4F0E94C42EFC016081CE01859601
:1016C0000E94712EE5CF8701B701CE018D529F4F49
:1016D0000E94C42EFC012081C70101967C012C329E
:1016E00069F0B801CE018D529F4F0E94C42EFC01BB
:1016F0006081CE014F960E94712EE5CF8701B70120
:10170000CE018D529F4F0E94C42EFC012081C70143
:1017100001967C012C3269F0B801CE018D529F4FA9
:101720000E94C42EFC016081CE0149960E94712E58
:10173000E5CF8701B701CE018D529F4F0E94C42E85
:10174000FC012081C70101967C012C3269F0B801AF
:10175000CE018D529F4F0E94C42EFC016081CE01AC
:1017600043960E94712EE5CF8701B701CE018D52BD
:101770009F4F0E94C42EFC012081C70101967C016D
:101780002C3269F0B801CE018D529F4F0E94C42EB9
:10179000FC016081CE010D960E94712EE5CF87017C
:1017A000B701CE018D529F4F0E94C42EFC012081B3
:1017B000C70101962C3271F07C01B801CE018D5227
:1017C0009F4F0E94C42EFC016081CE0107960E94AB
:1017D000712EE5CF8C017801B801CE018D529F4F5B
:1017E0000E94C42EFC0180818C3279F00F5F1F4F64
:1017F000B701CE018D529F4F0E94C42EFC01608123
:10180000CE0101960E94712EE6CFCE0183539F4FE9
:101810000E94D62EAB01BC018FE590E00E940A35F4
:10182000CE0189539F4F0E94D62E8DE590E00E94F5
:101830001635CE018F539F4F0E94D62E8CE590E037
:101840000E94F834CE0185549F4F0E94D62E8BE51E
:1018500090E00E94F834CE018B549F4F0E94D62E08
:101860008AE590E00E94F834CE0181559F4F0E9496
:10187000D62E89E590E00E94F834CE0187559F4F1F
:101880000E94D62E87E590E00E941635CE018D5538
:101890009F4F0E94D62E86E590E00E94F834CE013C
:1018A00083569F4F0E94D62E84E590E00E94163505
:1018B000CE0189569F4F0E94D62E82E590E00E946D
:1018C0001635CE018F569F4F0E94D62E81E590E0AF
:1018D0000E94F834CE0185579F4F0E94D62E87E490
:1018E00090E00E94F834CE018B579F4F0E94D62E75
:1018F00086E490E00E94F834CE0181589F4F0E9408
:10190000D62E82E490E00E94F834CE0187589F4F93
:101910000E94D62E81E490E00E94F834CE018D58CA
:101920009F4F0E94D62E80E490E00E94F834CE01B2
:1019300083599F4F0E94D62E8FE390E00E94F83487
:10194000CE0189599F4F0E94D62E8BE390E00E94D2
:10195000F834CE018F599F4F0E94D62E8AE390E033
:101960000E94F834CE01855A9F4F0E94D62E89E3FB
:1019700090E00E94F834CE018B5A9F4F0E94D62EE1
:1019800084E390E00E941635CE01815B9F4F0E9458
:10199000D62E82E390E00E941635CE01875B9F4FE2
:1019A0000E94D62E80E390E00E941635CE018D5B1A
:1019B0009F4F0E94D62E8EE290E00E941635CE01F7
:1019C000CD960E94D62E8CE290E00E941635CE0174
:1019D000C7960E94D62E8AE290E00E941635CE016C
:1019E000C1960E94D62E88E290E00E941635CE0164
:1019F0008B960E94D62E86E290E00E941635CE018C
:101A000085960E94D62E89E190E00E94F834CE019E
:101A10004F960E94D62E88E190E00E94F834CE01C5
:101A200049960E94D62E87E190E00E94F834CE01BC
:101A300043960E94D62E86E190E00E94F834CE01B3
:101A40000D960E94D62E84E190E00E941635CE01BC
:101A500007960E94D62E82E190E00E941635CE01B4
:101A600001960E94D62E80E190E00E941635CE01AC
:101A700001960E94D02CCE0107960E94D02CCE0158
:101A80000D960E94D02CCE0143960E94D02CCE0100
:101A900049960E94D02CCE014F960E94D02CCE01A8
:101AA00085960E94D02CCE018B960E94D02CCE0120
:101AB000C1960E94D02CCE01C7960E94D02CCE0198
:101AC000CD960E94D02CCE018D5B9F4F0E94D02CD2
:101AD000CE01875B9F4F0E94D02CCE01815B9F4F30
:101AE0000E94D02CCE018B5A9F4F0E94D02CCE0149
:101AF000855A9F4F0E94D02CCE018F599F4F0E9434
:101B0000D02CCE0189599F4F0E94D02CCE018359F1
:101B10009F4F0E94D02CCE018D589F4F0E94D02CF9
:101B2000CE0187589F4F0E94D02CCE0181589F4FE5
:101B30000E94D02CCE018B579F4F0E94D02CCE01FB
:101B400085579F4F0E94D02CCE018F569F4F0E94E9
:101B5000D02CCE0189569F4F0E94D02CCE018356A7
:101B60009F4F0E94D02CCE018D559F4F0E94D02CAC
:101B7000CE0187559F4F0E94D02CCE0181559F4F9B
:101B80000E94D02CCE018B549F4F0E94D02CCE01AE
:101B900085549F4F0E94D02CCE018F539F4F0E949F
:101BA000D02CCE0189539F4F0E94D02CCE0183535D
:101BB0009F4F0E94D02CCE018D529F4F0E94D02C5F
:101BC000C852DF4F0FB6F894DEBF0FBECDBFDF9116
:101BD000CF911F910F91FF90EF900895EF92FF9298
:101BE0000F931F93CF93DF93CDB7DEB7C659D109BB
:101BF0000FB6F894DEBF0FBECDBF6EE586EF92E064
:101C00000E94A62F63EE71E0CE018F569F4F0E9477
:101C10003E2D41E266EF72E0CE0101960E94152F43
:101C2000BE016F5F7F4FCE018F569F4F0E94542D94
:101C3000CE0101960E94D02CCB56DF4F888199812E
:101C4000C559D040892B09F46EC463EE71E0CE0112
:101C500085579F4F0E943E2D63EE71E0CE018B575A
:101C60009F4F0E943E2D63EE71E0CE0181589F4F41
:101C70000E943E2D63EE71E0CE0187589F4F0E9477
:101C80003E2D63EE71E0CE018D589F4F0E943E2D98
:101C900063EE71E0CE0183599F4F0E943E2D63EEAB
:101CA00071E0CE0189599F4F0E943E2D63EE71E095
:101CB000CE018F599F4F0E943E2D63EE71E0CE0101
:101CC000855A9F4F0E943E2D63EE71E0CE018B5AE4
:101CD0009F4F0E943E2D63EE71E0CE01815B9F4FCE
:101CE0000E943E2D63EE71E0CE01875B9F4F0E9404
:101CF0003E2D63EE71E0CE018D5B9F4F0E943E2D25
:101D000063EE71E0CE01CD960E943E2D63EE71E050
:101D1000CE01C7960E943E2D63EE71E0CE01C196C2
:101D20000E943E2D63EE71E0CE018B960E943E2D07
:101D300063EE71E0CE0185960E943E2D63EE71E068
:101D4000CE014F960E943E2D63EE71E0CE01499682
:101D50000E943E2D63EE71E0CE0143960E943E2D1F
:101D600063EE71E0CE010D960E943E2D63EE71E0B0
:101D7000CE0107960E943E2D63EE71E0CE010196E2
:101D80000E943E2DE12CF12C8701B701CE018F5628
:101D90009F4F0E94C42EFC012081C70101967C0147
:101DA0002C3271F0B801CE018F569F4F0E94C42E85
:101DB000FC016081CE0185579F4F0E94712EE4CFB8
:101DC0008701B701CE018F569F4F0E94C42EFC01A0
:101DD0002081C70101967C012C3271F0B801CE013F
:101DE0008F569F4F0E94C42EFC016081CE018B57FD
:101DF0009F4F0E94712EE4CF8701B701CE018F560D
:101E00009F4F0E94C42EFC012081C70101967C01D6
:101E10002C3271F0B801CE018F569F4F0E94C42E14
:101E2000FC016081CE0181589F4F0E94712EE4CF4A
:101E30008701B701CE018F569F4F0E94C42EFC012F
:101E40002081C70101967C012C3271F0B801CE01CE
:101E50008F569F4F0E94C42EFC016081CE0187588F
:101E60009F4F0E94712EE4CF8701B701CE018F569C
:101E70009F4F0E94C42EFC012081C70101967C0166
:101E80002C3271F0B801CE018F569F4F0E94C42EA4
:101E9000FC016081CE018D589F4F0E94712EE4CFCE
:101EA0008701B701CE018F569F4F0E94C42EFC01BF
:101EB0002081C70101967C012C3271F0B801CE015E
:101EC0008F569F4F0E94C42EFC016081CE01835922
:101ED0009F4F0E94712EE4CF8701B701CE018F562C
:101EE0009F4F0E94C42EFC012081C70101967C01F6
:101EF0002C3271F0B801CE018F569F4F0E94C42E34
:101F0000FC016081CE0189599F4F0E94712EE4CF60
:101F10008701B701CE018F569F4F0E94C42EFC014E
:101F20002081C70101967C012C3271F0B801CE01ED
:101F30008F569F4F0E94C42EFC016081CE018F59A5
:101F40009F4F0E94712EE4CF8701B701CE018F56BB
:101F50009F4F0E94C42EFC012081C70101967C0185
:101F60002C3271F0B801CE018F569F4F0E94C42EC3
:101F7000FC016081CE01855A9F4F0E94712EE4CFF3
:101F80008701B701CE018F569F4F0E94C42EFC01DE
:101F90002081C70101967C012C3271F0B801CE017D
:101FA0008F569F4F0E94C42EFC016081CE018B5A38
:101FB0009F4F0E94712EE4CF8701B701CE018F564B
:101FC0009F4F0E94C42EFC012081C70101967C0115
:101FD0002C3271F0B801CE018F569F4F0E94C42E53
:101FE000FC016081CE01815B9F4F0E94712EE4CF86
:101FF0008701B701CE018F569F4F0E94C42EFC016E
:102000002081C70101967C012C3271F0B801CE010C
:102010008F569F4F0E94C42EFC016081CE01875BCA
:102020009F4F0E94712EE4CF8701B701CE018F56DA
:102030009F4F0E94C42EFC012081C70101967C01A4
:102040002C3271F0B801CE018F569F4F0E94C42EE2
:10205000FC016081CE018D5B9F4F0E94712EE4CF09
:102060008701B701CE018F569F4F0E94C42EFC01FD
:102070002081C70101967C012C3269F0B801CE01A4
:102080008F569F4F0E94C42EFC016081CE01CD96D9
:102090000E94712EE5CF8701B701CE018F569F4F69
:1020A0000E94C42EFC012081C70101967C012C32C4
:1020B00069F0B801CE018F569F4F0E94C42EFC01DB
:1020C0006081CE01C7960E94712EE5CF8701B701CE
:1020D000CE018F569F4F0E94C42EFC012081C70164
:1020E00001967C012C3269F0B801CE018F569F4FCA
:1020F0000E94C42EFC016081CE01C1960E94712E07
:10210000E5CF8701B701CE018F569F4F0E94C42EA5
:10211000FC012081C70101967C012C3269F0B801D5
:10212000CE018F569F4F0E94C42EFC016081CE01CC
:102130008B960E94712EE5CF8701B701CE018F5695
:102140009F4F0E94C42EFC012081C70101967C0193
:102150002C3269F0B801CE018F569F4F0E94C42ED9
:10216000FC016081CE0185960E94712EE5CF87012A
:10217000B701CE018F569F4F0E94C42EFC012081D3
:10218000C70101967C012C3269F0B801CE018F564F
:102190009F4F0E94C42EFC016081CE014F960E9489
:1021A000712EE5CF8701B701CE018F569F4F0E9458
:1021B000C42EFC012081C70101967C012C3269F0FC
:1021C000B801CE018F569F4F0E94C42EFC01608142
:1021D000CE0149960E94712EE5CF8701B701CE014D
:1021E0008F569F4F0E94C42EFC012081C70101968B
:1021F0007C012C3269F0B801CE018F569F4F0E94AE
:10220000C42EFC016081CE0143960E94712EE5CF61
:102210008701B701CE018F569F4F0E94C42EFC014B
:102220002081C70101967C012C3269F0B801CE01F2
:102230008F569F4F0E94C42EFC016081CE010D96E7
:102240000E94712EE5CF8701B701CE018F569F4FB7
:102250000E94C42EFC012081C70101962C3271F02E
:102260007C01B801CE018F569F4F0E94C42EFC0105
:102270006081CE0107960E94712EE5CF8C01780116
:10228000B801CE018F569F4F0E94C42EFC01808161
:102290008C3279F00F5F1F4FB701CE018F569F4FE1
:1022A0000E94C42EFC016081CE0101960E94712E15
:1022B000E6CFCE0185579F4F0E94D62E8AE490E04C
:1022C0000E94F834CE018B579F4F0E94D62E89E48E
:1022D00090E00E94F834CE0181589F4F0E94D62E84
:1022E00088E490E00E94F834CE0187589F4F0E9406
:1022F000D62E8FE490E00E941635CE018D589F4F68
:102300000E94D62E8DE490E00E941635CE018359AE
:102310009F4F0E94D62E8BE490E00E941635CE018E
:1023200089599F4F0E94D62E85E490E00E94F83490
:10233000CE018F599F4F0E94D62E84E490E00E94D8
:10234000F834CE01855A9F4F0E94D62E83E490E048
:102350000E94F834CE018B5A9F4F0E94D62E8EE3F6
:1023600090E00E94F834CE01815B9F4F0E94D62EF0
:102370008DE390E00E94F834CE01875B9F4F0E946E
:10238000D62E8CE390E00E94F834CE018D5B9F4FF7
:102390000E94D62E88E390E00E94F834CE01CD96BC
:1023A0000E94D62E87E390E00E94F834CE01C796B3
:1023B0000E94D62E86E390E00E94F834CE01C196AA
:1023C0000E94D62E84E290E00E941635CE018B96B4
:1023D0000E94D62E82E290E00E941635CE018596AC
:1023E0000E94D62E80E290E00E941635CE014F96D4
:1023F0000E94D62E8EE190E00E941635CE014996BD
:102400000E94D62E8CE190E00E941635CE014396B4
:102410000E94D62E8AE190E00E941635CE010D96DC
:102420000E94D62E8EE090E00E941635CE010796CF
:102430000E94D62E8CE090E00E941635CE010196C7
:102440000E94D62E8AE090E00E941635CE010196B9
:102450000E94D02CCE0107960E94D02CCE010D9662
:102460000E94D02CCE0143960E94D02CCE014996DA
:102470000E94D02CCE014F960E94D02CCE01859682
:102480000E94D02CCE018B960E94D02CCE01C196FA
:102490000E94D02CCE01C7960E94D02CCE01CD96A2
:1024A0000E94D02CCE018D5B9F4F0E94D02CCE017C
:1024B000875B9F4F0E94D02CCE01815B9F4F0E9473
:1024C000D02CCE018B5A9F4F0E94D02CCE01855A22
:1024D0009F4F0E94D02CCE018F599F4F0E94D02C2D
:1024E000CE0189599F4F0E94D02CCE0183599F4F16
:1024F0000E94D02CCE018D589F4F0E94D02CCE012F
:1025000087589F4F0E94D02CCE0181589F4F0E9428
:10251000D02CCE018B579F4F0E94D02CCE018557D7
:102520009F4F0E94D02CCE018F569F4F0E94D02CDF
:10253000CA56DF4F0FB6F894DEBF0FBECDBFDF9196
:10254000CF911F910F91FF90EF900895789483B7EA
:10255000817F846083BF2FE088E190E00FB6F8941C
:10256000A895809360000FBE2093600010928000B9
:10257000E1E8F0E010821092820010928500109243
:102580008400109289001092880010928B001092A3
:102590008A0010928D0010928C0010928700109289
:1025A0008600AFE6B0E01C9281E08C9384E08083EB
:1025B0008DE292E00E94CC1E8FE590E00E94EC3408
:1025C000AB01BC0186EF92E00E94B02760E084E09E
:1025D00090E00E94F83460E082E090E00E94F834DD
:1025E00060E083E090E00E94F83481E00E94BF2622
:1025F00087E10E94C22687E10E94C22687E10E94ED
:10260000C22682E10E94C22682E10E94C22682E1A5
:102610000E94C22683E10E94C22683E10E94C22654
:1026200083E10E94C22684E10E94C22684E10E94C6
:10263000C22684E10E94C22685E10E94C22685E16D
:102640000E94C22685E10E94C22686E10E94C2261F
:1026500086E10E94C22686E10E94C22689E292E0BB
:102660000E94182160E670E08DE292E00E94F01E68
:1026700064E070E08DE292E00E94A90160E070E009
:102680008DE292E00E94A90160E070E08DE292E0AC
:102690000E94A90162E070E08DE292E00E94A9012F
:1026A00061E08DE292E00E94F21E62E670E08DE24F
:1026B00092E00E94F01E64E070E08DE292E00E94E1
:1026C000A90160E070E08DE292E00E94A90160E063
:1026D00070E08DE292E00E94A90162E070E08DE27C
:1026E00092E00E94A90161E08DE292E00E94F21E58
:1026F00063E670E08DE292E00E94F01E64E070E01C
:102700008DE292E00E94A90160E070E08DE292E02B
:102710000E94A90160E070E08DE292E00E94A901B0
:1027200062E070E08DE292E00E94A90161E08DE23A
:1027300092E00E94F21E68E670E08DE292E00E9454
:10274000F01E64E070E08DE292E00E94A90160E07A
:1027500070E08DE292E00E94A90160E070E08DE2FD
:1027600092E00E94A90162E070E08DE292E00E9496
:10277000A90161E08DE292E00E94F21E6AE670E03B
:102780008DE292E00E94F01E64E070E08DE292E043
:102790000E94A90160E070E08DE292E00E94A90130
:1027A00060E070E08DE292E00E94A90162E070E0DA
:1027B0008DE292E00E94A90161E08DE292E00E9428
:1027C000F21E6BE670E08DE292E00E94F01E64E083
:1027D00070E08DE292E00E94A90160E070E08DE27D
:1027E00092E00E94A90160E070E08DE292E00E9418
:1027F000A90162E070E08DE292E00E94A90161E02F
:102800008DE292E00E94F21E60ED77E080E090E0C1
:102810000E94412661E084E00E94302561E086E06C
:102820000E94302561E088E00E94302561E08AE066
:102830000E94302561E08CE00E94302560E085E058
:102840000E94302560E087E00E94302560E089E04A
:102850000E94302560E08BE00E94302560E08DE032
:102860000C94302540E051EE60E070E08FE590E0A0
:102870000E940A3568EC70E08DE590E00E94163504
:102880006EE18CE590E00E94F83465E08BE590E025
:102890000E94F83465E08AE590E00E94F83465E033
:1028A00089E590E00E94F8346CE370E087E590E001
:1028B0000E94163560E086E590E00E94F83468E2F8
:1028C00070E084E590E00E94163568E572E082E5EC
:1028D00090E00E9416356FE081E590E00E94F834A8
:1028E0006AE070E08FE490E00E9416356AE070E0E4
:1028F0008DE490E00E9416356AE070E08BE490E091
:102900000E94163560E08AE490E00E94F83460E0AE
:1029100089E490E00E94F83460E088E490E00E944E
:10292000F83465E087E490E00E94F83465E086E4DE
:1029300090E00E94F83465E085E490E00E94F8346D
:1029400065E084E490E00E94F83465E083E490E080
:102950000E94F83465E082E490E00E94F83465E07B
:1029600081E490E00E94F83465E080E490E00E9409
:10297000F83465E08FE390E00E94F83465E08EE380
:1029800090E00E94F83465E08DE390E00E94F83416
:1029900065E08CE390E00E94F83465E08BE390E022
:1029A0000E94F83465E08AE390E00E94F83465E024
:1029B00089E390E00E94F83465E088E390E00E94AB
:1029C000F83465E087E390E00E94F83465E086E340
:1029D00090E00E94F83460E070E084E390E00E94B0
:1029E000163564E670E082E390E00E94163560E000
:1029F00070E080E390E00E94163564E670E08EE2BD
:102A000090E00E94163563E770E08CE290E00E944F
:102A1000163569EC73E08AE290E00E94163561EAAF
:102A200071E088E290E00E94163569EC73E086E27E
:102A300090E00E94163561EA71E084E290E00E9425
:102A4000163569EC73E082E290E00E94163561EA87
:102A500071E080E290E00E94163569EC73E08EE14F
:102A600090E00E94163561EA71E08CE190E00E94EE
:102A7000163569EC73E08AE190E00E94163560E05B
:102A800089E190E00E94F83464E688E190E00E94D9
:102A9000F83460E087E190E00E94F83464E686E173
:102AA00090E00E94F83468E873E184E190E00E94CD
:102AB000163564EC79E082E190E00E9416356CED09
:102AC00075E080E190E00E9416356CED75E08EE0D7
:102AD00090E00E9416356CED75E08CE090E00E946D
:102AE00016356CED75E08AE090E00E94163560E0E6
:102AF00080E090E00E94F83460E081E090E00C9487
:102B0000F83489E292E00C941721EF92FF920F9330
:102B10001F93CF93DF931F92CDB7DEB7282F82305C
:102B200059F0833031F0813009F073C008E610E0CD
:102B300005C00BE610E002C00AE610E0B8018DE225
:102B400092E029830E94F01E60E070E08DE292E046
:102B50000E94A90160E08DE292E00E94F21E43E033
:102B600050E0B8018DE292E00E94E31E8DE292E017
:102B70000E94351E892B09F44CC08DE292E00E9420
:102B80003D1E8DE292E00E943D1E082F8DE292E0F4
:102B90000E943D1E182F61E08DE292E00E94F21E1D
:102BA0000170F02EE12CE12A84E0EE0CFF1C8A95E6
:102BB000E1F72981223089F02330E1F0213049F515
:102BC000F092FE01E092FD018EE090E00E94F2346E
:102BD00021E0E816F906D8F019C0F092FA01E09267
:102BE000F9018CE090E00E94F23421E0E816F90649
:102BF00070F00CC0F092F601E092F5018AE090E0EE
:102C00000E94F23421E0E816F90608F020E0822F55
:102C100001C080E00F90DF91CF911F910F91FF9045
:102C2000EF9008958F929F92BF92CF92DF92EF9292
:102C3000FF920F931F93CF93DF93CDB7DEB76897C3
:102C40000FB6F894DEBF0FBECDBFD82E63EE71E095
:102C5000CE0143960E943E2D63EE71E0CE010D96AB
:102C60000E943E2D63EE71E0CE0107960E943E2D3C
:102C700082E0D81651F183E0D81609F449C081E00A
:102C8000D8121DC11092260267E471E0CE0143966E
:102C90000E94742D6DE471E0CE010D960E94742D9A
:102CA00063E571E0CE0107960E94742D0FE410E0F9
:102CB000FAE48F2EF0E09F2EA7E0EA2EA0E0FA2E95
:102CC000B9E0BB2E88E0C82E45C01092250269E508
:102CD00071E0CE0143960E94742D6FE571E0CE0144
:102CE0000D960E94742D65E671E0CE0107960E9454
:102CF000742D0DE410E059E4852E50E0952E66E029
:102D0000E62E60E0F62E7BE0B72EEAE0CE2E22C063
:102D1000109224026BE671E0CE0143960E94742D5E
:102D200061E771E0CE010D960E94742D67E771E0B6
:102D3000CE0107960E94742D0BE410E098E4892ED2
:102D400090E0992E25E0E22E20E0F22E3DE0B32E19
:102D50004CE0C42E60E08C2D0E94692560ED77E088
:102D600080E090E00E944126C7010E94E43488235D
:102D700009F4A5C0C4010E94E434882309F49FC06B
:102D80008D2D0E94580281110FC068E873E180E028
:102D900090E00E9441268D2D0E945802811104C0AE
:102DA000BE016D5E7F4F6BC061E08C2D0E94692576
:102DB000C8010E94F2349C01A8EEB3E00E940032E8
:102DC0000E9441268D2D0E94851581112AC08C2DCF
:102DD0000E942803C8010E94F2349C01A8EEB3E0CF
:102DE0000E9400320E9441268D2D0E94851581117E
:102DF00018C060E08C2D0E946925BE01635F7F4F83
:102E0000CE0101960E946B2DCE0101960E943803DF
:102E1000CE0101960E94D02C60E0C7010E94F834D8
:102E20004EC08B2D0E942A02811136C0E12CFF2456
:102E3000F3948AE590E00E94E434F816B8F48B2D00
:102E40000E942A0281110EC08C2D0E942803C80105
:102E50000E94F2349C01A8EEB3E00E9400320E946E
:102E6000412602C0EE24E394F394E3CFE11014C0B2
:102E700060E08C2D0E946925BE01695F7F4FCE0105
:102E800001960E946B2DCE0101960E943803CE015F
:102E900001960E94D02C13C082E0D81649F083E03E
:102EA000D81651F081E0D8120AC0D092260207C08D
:102EB00081E08093250203C081E080932402CE014B
:102EC00007960E94D02CCE010D960E94D02CCE01E8
:102ED00043960E94D02C68960FB6F894DEBF0FBEC2
:102EE000CDBFDF91CF911F910F91FF90EF90DF90B9
:102EF000CF90BF909F908F9008950F931F93CF9383
:102F0000DF9362E670E08DE292E00E94F01E60E0E6
:102F100070E08DE292E00E94A90160E08DE292E013
:102F20000E94F21E43E050E062E670E08DE292E023
:102F30000E94E31E8DE292E00E94351E892B61F112
:102F40008DE292E00E943D1E8DE292E00E943D1EC5
:102F5000082F8DE292E00E943D1E182F61E08DE265
:102F600092E00E94F21E0170D02F80E0C82FC12B8A
:102F700094E0CC0FDD1F9A95E1F7D0930602C09341
:102F8000050282E190E00E94F23421E0C817D907DF
:102F900008F020E0822F01C080E0DF91CF911F91E7
:102FA0000F9108950F931F93CF93DF9300D000D01C
:102FB00000D0CDB7DEB7109228026FE386EF92E023
:102FC0000E94A62F68E873E180E090E00E9441260D
:102FD00060E084E00E94692560ED77E080E090E0A9
:102FE0000E94412689E090E00E94E434811102C0F1
:102FF00010E0A0C00E94B001882329F00E94AA021C
:10300000811116C00BC068E873E180E090E00E9477
:1030100041260E94B0018111F1CFEACF68E873E147
:1030200080E090E00E9441260E94AA02882301F3DA
:1030300061E084E00E94692582E590E00E94F2341C
:103040009C01A8EEB3E00E940032AB01BC0186EF08
:1030500092E00E940F2F41E266EF72E0CE010196EE
:103060000E94152F48EE53E060E070E086EF92E09A
:103070000E940F2F6DE771E0CE0101960E94A52EF0
:10308000882309F452C00E947D1781111DC084E07D
:103090000E94280384E590E00E94F2349C01A8EE8F
:1030A000B3E00E9400320E9441260E947D178111E8
:1030B0000BC060E084E00E94692560E089E090E058
:1030C0000E94F83410E032C085E00E942A0281118B
:1030D00027C000E011E08AE590E00E94E434181770
:1030E000B8F485E00E942A0281110FC084E00E949A
:1030F000280384E590E00E94F2349C01A8EEB3E03E
:103100000E9400320E94412601C001E01F5FE3CF10
:10311000011106C060E084E00E94692510E006C04D
:1031200081E08093280211E001C010E0CE010196F9
:103130000E94D02C812F26960FB6F894DEBF0FBECA
:10314000CDBFDF91CF911F910F9108950F931F93E2
:10315000CF93DF9363E670E08DE292E00E94F01E71
:1031600060E070E08DE292E00E94A90160E08DE2F3
:1031700092E00E94F21E43E050E063E670E08DE2D0
:1031800092E00E94E31E8DE292E00E94351E892BA0
:1031900061F18DE292E00E943D1E8DE292E00E947C
:1031A0003D1E082F8DE292E00E943D1E182F61E027
:1031B0008DE292E00E94F21E0170D02F80E0C82FB5
:1031C000C12B24E0CC0FDD1F2A95E1F7D09302023A
:1031D000C093010280E190E00E94F23421E0C81720
:1031E000D90708F020E0822F01C080E0DF91CF9165
:1031F0001F910F910895CF93DF9300D000D000D09E
:10320000CDB7DEB761E08AE00E94692562E370E035
:1032100080E090E00E94412660E08AE00E946925FB
:1032200062E370E080E090E00E94412661E08AE085
:103230000E94692562E370E080E090E00E944126F0
:1032400060E08AE00E94692562E370E080E090E03F
:103250000E9441261092270260E086E00E946925C4
:1032600060ED77E080E090E00E94412688E090E009
:103270000E94E434882309F466C086E590E00E9449
:10328000E434882309F45FC00E94CA02811119C086
:1032900068E873E180E090E00E9441260E94CA0243
:1032A00081110FC06FE771E0CE0101960E943E2DA3
:1032B000CE0101960E943803CE0101960E94D02CC7
:1032C00042C061E086E00E94692581E590E00E94AD
:1032D000E434282F30E0A8EEB3E00E9400320E94D0
:1032E00041260E94A61881112BC086E00E94280367
:1032F00081E590E00E94E434282F30E0A8EEB3E0AE
:103300000E9400320E9441260E94A618811118C016
:1033100060E086E00E94692564E871E0CE010196D4
:103320000E943E2DCE0101960E943803CE010196E7
:103330000E94D02C60E088E090E00E94F83403C046
:1033400081E08093270226960FB6F894DEBF0FBE69
:10335000CDBFDF91CF9108950F931F93CF93DF934C
:1033600060E670E08DE292E00E94F01E60E070E0A6
:103370008DE292E00E94A90160E08DE292E00E945D
:10338000F21E43E050E060E670E08DE292E00E94C1
:10339000E31E8DE292E00E94351E892B61F18DE2E1
:1033A00092E00E943D1E8DE292E00E943D1E082F99
:1033B0008DE292E00E943D1E182F61E08DE292E0C6
:1033C0000E94F21E0170D02F80E0C82FC12B34E084
:1033D000CC0FDD1F3A95E1F7D0930B02C0930A02A0
:1033E00084E190E00E94F23421E0C817D90708F088
:1033F00020E0822F01C080E0DF91CF911F910F91DB
:1034000008950F931F93CF93DF9300D000D000D087
:10341000CDB7DEB780912C02882309F430C38091A8
:1034200023028F5F8093230280911F0290912002DC
:10343000A0912102B09122020196A11DB11D80939D
:103440001F0290932002A0932102B09322020E94B7
:10345000ED01811106C0809114028F5F80931402E8
:1034600002C0109214020E94AC19811106C0809112
:103470001A028F5F80931A0202C010921A02809182
:103480002802882389F10E94B001811106C0809131
:1034900013028F5F8093130202C0109213020E94E6
:1034A000AA02811106C0809112028F5F80931202DE
:1034B00002C0109212020E947D17811106C08091F5
:1034C00019028F5F8093190202C01092190285E0E1
:1034D0000E942A02811106C080911E028F5F809394
:1034E0001E0202C010921E02809127028823C1F0A2
:1034F0000E94CA02811106C0809111028F5F8093E1
:10350000110202C0109211020E94A618811106C079
:10351000809118028F5F8093180202C010921802E7
:1035200080912602882339F181E00E94580281119E
:1035300006C0809110028F5F8093100202C010922B
:10354000100281E00E948515811106C0809117024A
:103550008F5F8093170202C01092170289E00E94C9
:103560002A02811106C080911D028F5F80931D0287
:1035700002C010921D0280912502882339F182E059
:103580000E945802811106C080910F028F5F8093C4
:103590000F0202C010920F0282E00E948515811175
:1035A00006C0809116028F5F8093160202C01092AF
:1035B00016028BE00E942A02811106C080911C0233
:1035C0008F5F80931C0202C010921C028091240223
:1035D000882339F183E00E945802811106C080914E
:1035E0000E028F5F80930E0202C010920E0283E0E3
:1035F0000E948515811106C0809115028F5F80930E
:10360000150202C0109215028DE00E942A0281115B
:1036100006C080911B028F5F80931B0202C0109234
:103620001B0280910C0290910D02019690930D0265
:1036300080930C0210911A028BE390E00E94E43414
:103640001817F0F069E871E0CE0101960E943E2D56
:10365000CE0101960E943803CE0101960E94D02C23
:1036600010921A021092140228E088E190E00FB63E
:10367000F894A895809360000FBE20936000FFCF60
:103680001091140282E490E00E94E4341817F0F0E4
:103690006EE871E0CE0101960E943E2DCE010196AA
:1036A0000E943803CE0101960E94D02C10921A027B
:1036B0001092140228E088E190E00FB6F894A895E3
:1036C000809360000FBE20936000FFCF809128029E
:1036D000882309F441C010911E0287E490E00E9403
:1036E000E434181718F063E971E020C01091190252
:1036F0008AE390E00E94E434181718F068E971E05A
:1037000015C01091130281E490E00E94E434181770
:1037100018F06DE971E00AC01091120280E490E0A7
:103720000E94E4341817C0F062EA71E0CE010196FD
:103730000E943E2DCE0101960E943803CE010196D3
:103740000E94D02C109219021092120210921302B1
:1037500010921E020E94D21780912702882309F43A
:1037600041C01091180289E390E00E94E4341817D8
:10377000A8F064E871E0CE0101960E943E2DCE01D2
:1037800001960E943803CE0101960E94D02C10921F
:103790001802109211020E94FB1824C0109111020D
:1037A0008FE390E00E94E4341817E0F06FE771E0D7
:1037B000CE0101960E943E2DCE0101960E94380353
:1037C000CE0101960E94D02C109218021092110284
:1037D0000E94FB1810920202109201021092000245
:1037E0001092FF01809126028823E9F110911702BF
:1037F00088E390E00E94E434181718F06DE471E05B
:1038000015C0109110028EE390E00E94E434181766
:1038100018F067E471E00AC010911D0285E490E0A1
:103820000E94E4341817F8F063E571E0CE010196C8
:103830000E943E2DCE0101960E943803CE010196D2
:103840000E94D02C109217021092100210921D02AA
:1038500081E00E9412161092FE011092FD0110925A
:10386000FC011092FB01809125028823E9F110915F
:10387000160287E390E00E94E434181718F06FE511
:1038800071E015C010910F028DE390E00E94E434C6
:10389000181718F069E571E00AC010911C0284E461
:1038A00090E00E94E4341817F8F065E671E0CE016C
:1038B00001960E943E2DCE0101960E943803CE0152
:1038C00001960E94D02C1092160210920F021092B4
:1038D0001C0282E00E9412161092FA011092F90165
:1038E0001092F8011092F701809124028823E9F1E7
:1038F0001091150286E390E00E94E434181718F046
:1039000061E771E015C010910E028CE390E00E9417
:10391000E434181718F06BE671E00AC010911B022E
:1039200083E490E00E94E4341817F8F067E771E050
:10393000CE0101960E943E2DCE0101960E943803D1
:10394000CE0101960E94D02C1092150210920E0208
:1039500010921B0283E00E9412161092F601109240
:10396000F5011092F4011092F301109123028CE5FD
:1039700090E00E94E434181720F0109223020E9475
:103980008A0380911F0290912002A0912102B091A0
:10399000220280319E40A105B10554F010921F0211
:1039A0001092200210922102109222020E94EA023A
:1039B00000910C0210910D0287E590E00E94F23414
:1039C0000817190708F459C010920D0210920C0242
:1039D00080912802811107C089E090E00E94E434C0
:1039E00081110E94D2178091270281110DC088E0B9
:1039F00090E00E94E434882339F086E590E00E944C
:103A0000E43481110E94FB188091260281110FC0BD
:103A100087E090E00E94E434882349F08AE490E053
:103A20000E94E434882319F081E00E9412168091EC
:103A3000250281110FC086E090E00E94E4348823C3
:103A400049F089E490E00E94E434882319F082E090
:103A50000E9412168091240281110FC085E090E02F
:103A60000E94E434882349F088E490E00E94E43422
:103A7000882319F083E00E94121610922C02809184
:103A80002A028823A9F110922A0280912B02813305
:103A900019F40E94CF062CC080912B02823319F4B6
:103AA0000E948A0325C080912B02833319F40E945F
:103AB000D2171EC080912B02843319F40E94FB1888
:103AC00017C080912B02853321F481E00E941216E9
:103AD0000FC080912B02863321F482E00E941216DF
:103AE00007C080912B02873319F483E00E941216DD
:103AF00026960FB6F894DEBF0FBECDBFDF91CF91F3
:103B00001F910F9108950E94AC19882361F00E94C3
:103B1000ED01811113C068E873E180E090E00E943C
:103B200041260C94ED0168EE73E080E090E00E9485
:103B300041260E94AC198111EACF089581E00895D1
:103B40000E94A61280E090E00E94E43481110E945D
:103B500032140E94831D811102C080E008950E94EA
:103B6000D2178823D1F360E27EE480E090E00E94E7
:103B700041260E94EA020E9419070E94EE0D0E944F
:103B8000FB1881E00895CF9388E10FB6F8948093F5
:103B90006000109260000FBE0E94A01D882381F07B
:103BA00081E00E94121682E00E94121683E00E94B9
:103BB00012166CE271E086E290E0CF910C9416351B
:103BC00081E090E00E94E434C1E0C80F6C2F81E0F6
:103BD00090E00E94F83489E590E00E94E434C81730
:103BE00060F428E088E190E00FB6F894A8958093FF
:103BF00060000FBE20936000FFCF60E081E090E0A6
:103C00000E94F8346AE070E080E090E00E94412673
:103C10000E94E4061F920F920FB60F9211242F9369
:103C20003F934F935F936F937F938F939F93AF9344
:103C3000BF93EF93FF9386EF92E00E942D2780932E
:103C40002B0281E080932A02FF91EF91BF91AF9107
:103C50009F918F917F916F915F914F913F912F91A4
:103C60000F900FBE0F901F90189580915D0290E00D
:103C700020915E02821B9109089520915E0280913D
:103C80005D02281750F4E22FF0E0E15AFD4F8081E9
:103C900090E02F5F20935E0208958FEF9FEF0895CD
:103CA000E0915E0280915D02E81730F4F0E0E15AA5
:103CB000FD4F808190E008958FEF9FEF0895089564
:103CC000CF92DF92EF92FF920F931F93CF93DF93E8
:103CD0007C01CB018A0120913902222389F0EB017A
:103CE0006B01C40ED51ECC15DD0569F06991D701B5
:103CF000ED91FC910190F081E02DC7010995F3CF82
:103D0000642F0E94C11FC801DF91CF911F910F91B5
:103D1000FF90EF90DF90CF900895CF93DF931F92A5
:103D2000CDB7DEB76983209139022223D1F02091EB
:103D30003A02203240F021E030E0FC01338322835C
:103D400080E090E015C080913B02E82FF0E0E45C59
:103D5000FD4F998190838F5F80933B0280933A025D
:103D600005C061E0CE0101960E94C11F81E090E094
:103D70000F90DF91CF910895FC011382128248EEDB
:103D800053E060E070E044835583668377838BEA79
:103D900091E091838083089510925E0210925D02FB
:103DA00010923B0210923A020C940C1F862F413263
:103DB00008F040E26FE572E00E942A1F10925E0256
:103DC00080935D02089521E00C94D61E81E08093DB
:103DD000390260935C0210923B0210923A020895FD
:103DE0000C94E61E0F93062F21E040913A026CE3FB
:103DF00072E080915C020E946E1F10923B02109252
:103E00003A02109239020F91089561E00C94F21E6B
:103E10008DE292E00C94BC1E1092EC0281E0809343
:103E2000EA021092E90261E082E00E94692561E005
:103E300083E00E946925E9EBF0E080818E7F80833A
:103E400080818D7F808388E48093B80085E48093AF
:103E5000BC000895413208F03FC09091EC029111EE
:103E6000FCCF91E09093EC022093EA022FEF209395
:103E70007F021092C402240F2093C3029093EB029E
:103E80009091EB02880F892B8093EB028091E902DD
:103E9000813041F41092E9028091EB028093BB00E3
:103EA00085EC01C085EE8093BC008091EC028130EE
:103EB000E1F38091C402841710F44091C40225EC10
:103EC00032E0FB01D9018A2F821B841718F48D91EF
:103ED0008193F9CF842F089580E008950F934132A4
:103EE00008F046C09091EC029111FCCF92E09093C3
:103EF000EC020093EA029FEF90937F021092C402BB
:103F00004093C302FB0165EC72E0DB019A2F961B24
:103F1000941718F491919D93F9CF1092EB02909120
:103F2000EB02880F892B8093EB028091E9028130AC
:103F300041F41092E9028091EB028093BB0085EC82
:103F400001C085EE8093BC00222321F08091EC0219
:103F50008230E1F380917F028F3F61F080917F0298
:103F6000803251F080917F02803341F483E007C0BA
:103F700081E005C080E003C082E001C084E00F91D1
:103F80000895613298F42091EC02243089F4609312
:103F9000A102FC0183EA92E0DC012A2F281B2617EC
:103FA00018F421912D93F9CF80E0089581E00895D0
:103FB00082E0089585ED8093BC008091BC0084FD73
:103FC000FCCF1092EC02089585EC8093BC00109217
:103FD000EC0208951F920F920FB60F9211242F93A7
:103FE0003F934F935F936F937F938F939F93AF9381
:103FF000BF93EF93FF938091B900887F803609F4D7
:104000009CC068F5883209F45BC090F4803109F4F3
:1040100054C038F4882309F4F5C0883009F44DC041
:10402000F5C0883109F44CC0803209F45DC0EEC09F
:10403000803409F468C048F4803309F455C08833EB
:1040400009F0E4C080937F02A8C0803509F44FC016
:10405000883509F45DC0883409F0D8C0D5C08839E6
:1040600009F4C6C0A8F4883709F467C038F4883664
:1040700009F463C0803709F460C0C8C0883809F407
:10408000B7C0803909F45FC0803809F0BFC05BC099
:10409000803B09F485C038F4803A09F466C0883A58
:1040A00009F47EC0B3C0803C09F4A6C0883C09F482
:1040B000A3C0883B09F489C0A9C08091EB0210C05D
:1040C0009091C4028091C302981770F5E091C402E8
:1040D00081E08E0F8093C402F0E0EB53FD4F8081AE
:1040E0008093BB0085EC85C080937F028DC0E091FA
:1040F000C40281E08E0F8093C4028091BB00F0E087
:10410000EB53FD4F80839091C4028091C3026DC038
:10411000E091C40281E08E0F8093C4028091BB00C5
:10412000F0E0EB53FD4F80838091EA0281116CC077
:1041300081E08093E90284EA60C083E08093EC022E
:1041400010928002CFCF80918002803208F050C060
:10415000E091800281E08E0F809380028091BB000D
:10416000F0E0EF57FD4F8083BDCF80918002803219
:1041700030F4E0918002F0E0EF57FD4F10820E9492
:10418000DA1F6091800270E0E091E502F091E602B2
:1041900081E892E00995109280020E94E41F36C0E7
:1041A00084E08093EC021092A2021092A102E091AE
:1041B000E702F091E80209958091A102811105C002
:1041C00081E08093A1021092A302E091A20281E01B
:1041D0008E0F8093A202F0E0ED55FD4F8081809319
:1041E000BB009091A2028091A102981708F47ACFA7
:1041F00085E88093BC000AC085EC8093BC001092D7
:10420000EC0204C010927F020E94DA1FFF91EF912E
:10421000BF91AF919F918F917F916F915F914F91DE
:104220003F912F910F900FBE0F901F9018950895FA
:104230008DE292E00E94CC1E08950F931F93CB0154
:10424000A0E0B0E0BA2FA92F982F8827842BE7E1B0
:10425000F0E040E050E868E970E08C019D010E2E2E
:1042600004C036952795179507950A94D2F700FF55
:1042700004C084279527A627B72776956795579575
:1042800047953197E730F10541F71F910F91089558
:10429000EF92FF920F931F93CF93DF937C0160E423
:1042A00070E08DE292E00E94F01E65EF70E08DE21A
:1042B00092E00E94A9018DE292E00E94051F67E34F
:1042C00070E080E090E00E94412643E050E060E42E
:1042D00070E08DE292E00E94E31E05E610E08DE2C0
:1042E00092E00E94351E039774F461E070E080E074
:1042F00090E00E9441260150110989F760E070E8C2
:1043000089E794E436C08DE292E00E943D1E082FBA
:104310008DE292E00E943D1E182F8DE292E00E94F5
:104320003D1ED02F90E0C92FC12B482FBE01C701E1
:104330000E941D21811119C0BE016C7F80E090E0B8
:104340000E94C73020E030E040E857E30E9455313A
:1043500020E030E04AEF52E40E94553120E030E0A6
:1043600040EC50E40E94313004C060E070EC89E71A
:1043700094E4DF91CF911F910F91FF90EF900895FA
:10438000EF92FF920F931F93CF93DF937C0160E432
:1043900070E08DE292E00E94F01E63EF70E08DE22B
:1043A00092E00E94A9018DE292E00E94051F67E35E
:1043B00070E080E090E00E94412643E050E060E43D
:1043C00070E08DE292E00E94E31E05E610E08DE2CF
:1043D00092E00E94351E039774F461E070E080E083
:1043E00090E00E9441260150110989F760E070E8D1
:1043F00089E794E436C08DE292E00E943D1E082FCA
:104400008DE292E00E943D1E182F8DE292E00E9404
:104410003D1ED02F90E0C92FC12B482FBE01C701F0
:104420000E941D21811119C0BE016C7F80E090E0C7
:104430000E94C73020E030E040E857E30E94553149
:1044400022E538EB4FE253E40E94553126E636E68A
:104450004BE352E40E94313004C060E070EC89E725
:1044600094E4DF91CF911F910F91FF90EF90089509
:104470006F927F928F929F92AF92BF92CF92DF9274
:10448000EF92FF920F931F93CF93DF93EA012CE3F8
:10449000C22ED12CE12CF12CA70196010E94D8311B
:1044A0006883CA01B901A70196010E94D8316983C6
:1044B000CA01B90128E130E040E050E00E94D83163
:1044C00049015A016A83CA01B9016C5F7F4F8F4F5E
:1044D0009F4F27E030E040E050E00E94D8316F5F0E
:1044E0006B8300E010E0980140E054E6652E712CEB
:1044F00060E9C62EDD24D394E42FF0E0EE54F84FAB
:104500007F0183E0E822FF24E114F10489F4CF0164
:10451000B3010E94C431892B29F08EE691E0A0E01E
:10452000B0E00AC0CF01B6010E94C431892BA9F3C3
:104530008DE691E0A0E0B0E0080F191F2A1F3B1F95
:10454000D901C801AA27BB2788169906AA06BB0667
:1045500010F04F5FD1CF4E83E114F10499F4CF01F5
:1045600064E670E00E94C431892B29F08EE691E068
:10457000A0E0B0E00BC0CF0160E971E00E94C4315F
:10458000892BA1F38DE691E0A0E0B0E0081B190BA8
:104590002A0B3B0B801A910AA20AB30ACF0164E6E8
:1045A00070E00E94C4319C01CF0160E971E00E947B
:1045B000C431E7EBF1E0A0E0A13059F4E114F104DB
:1045C00051F42115310511F04DE106C00097E1F3DA
:1045D00002C0408101C04CE150E060E070E0841610
:1045E0009506A606B70640F0841A950AA60AB70AE9
:1045F000AF5F3196AC3001F7AF5FAD8383948C82AF
:10460000DF91CF911F910F91FF90EF90DF90CF90AE
:10461000BF90AF909F908F907F906F9008956F9212
:104620007F928F929F92AF92BF92CF92DF92EF9242
:10463000FF920F931F93CF93DF93FC01C680AC2DA5
:10464000B0E020E833E341EE51E00E940F324B012D
:104650005C0122EB37E06D01C4E6D0E000E911E037
:10466000C901825B97408C159D05DCF4C9018370FC
:104670009927892B99F4C901BE010E94C431892B65
:1046800031F4C901B8010E94C431892B39F480E8A2
:10469000880E81E5981E81E0A81EB11C2F5F3F4F58
:1046A000DFCF6580712C8EE4C81A88EFD80AC60166
:1046B00064E670E00E94C4318C01C60160E971E0DB
:1046C0000E94C4317C01C1E0D0E083E0C822DD2437
:1046D000C615D7052CF5C230D10589F4C114D10413
:1046E00071F40115110519F4E114F10441F480E8A5
:1046F000880E8BE3981E86E2A81EB11C0FC0DE0157
:10470000AA54BE4FAC91B0E020E831E541E050E062
:104710000E940F32860E971EA81EB91E2196D8CF72
:104720004181228130E0A0E1BEE00E9400326B01B5
:104730007C01242F30E0ACE3B0E00E940032C60ED2
:10474000D71EE81EF91E8081C80ED11CE11CF11C89
:10475000A481B0E0119720E831E541E050E00E94EB
:104760001A32C60ED71EE81EF91EC80CD91CEA1C48
:10477000FB1CC701B601DF91CF911F910F91FF90F4
:10478000EF90DF90CF90BF90AF909F908F907F90F1
:104790006F900895982F92959F702AEF929F800DA9
:1047A000112408958DE292E00C94CC1E1F93CF93B8
:1047B000DF93EC016FE670E08DE292E00E94F01E64
:1047C00060E08DE292E00E948D1E60E08DE292E05A
:1047D0000E948D1E29811AE0822F612F0E94B8311C
:1047E000682F660F680F660F620F8DE292E00E94DD
:1047F0008D1E2A81822F612F0E94B831682F660F8B
:10480000680F660F620F8DE292E00E948D1E8B8111
:104810008860682F70E08DE292E00E94A9012C81EF
:10482000822F612F0E94B831682F660F680F660FC4
:10483000620F8DE292E00E948D1E2D81822F612FEA
:104840000E94B831682F660F680F660F620F8DE205
:1048500092E00E948D1E2E812E51822F612F0E9488
:10486000B831682F660F680F660F620F8DE292E015
:104870000E948D1E8DE292E00E94051F6FE670E09F
:104880008DE292E00E94F01E60E08DE292E00E94D4
:104890008D1E2881822F612F0E94B831682F660FEC
:1048A000680F660F620F606870E08DE292E00E9410
:1048B000A9018DE292E0DF91CF911F910C94051F29
:1048C000CF93DF93CDB7DEB727970FB6F894DEBF4F
:1048D0000FBECDBFAE014F5F5F4F0E943822CE01A9
:1048E00001960E94D62327960FB6F894DEBF0FBE1E
:1048F000CDBFDF91CF910895CF93DF93EC016FE6A9
:1049000070E08DE292E00E94F01E60E08DE292E0A5
:104910000E948D1E8DE292E00E94051F81113EC013
:1049200047E050E06FE670E08DE292E00E94E31E07
:104930008DE292E00E943D1E8F770E94CA238883F9
:104940008DE292E00E943D1E0E94CA2389838DE27F
:1049500092E00E943D1E8F7B0E94CA238A838DE2D3
:1049600092E00E943D1E877C8B838DE292E00E9444
:104970003D1E0E94CA238C838DE292E00E943D1E60
:104980008F7D0E94CA238D838DE292E00E943D1E9E
:104990000E94CA23825E8E8381E001C080E0DF91A5
:1049A000CF910895CF93DF93CDB7DEB727970FB69A
:1049B000F894DEBF0FBECDBFCE0101960E947C24CD
:1049C000882329F0CE0101960E940F2303C060E0E6
:1049D00070E0CB0127960FB6F894DEBF0FBECDBFB7
:1049E000DF91CF91089590E0FC013197EF30F10510
:1049F000B0F5EA5AFF4F0C94FA31809180008F771E
:104A000003C0809180008F7D809380000895809105
:104A10008000877FF9CF84B58F7702C084B58F7D02
:104A200084BD0895809190008F7707C08091900099
:104A30008F7D03C080919000877F809390000895C0
:104A40008091C0008F7703C08091C0008F7D8093DC
:104A5000C00008958091C200877F8093C2000895AE
:104A6000CF93DF9390E0FC01EC50FF4F2491FC01C9
:104A7000EE5EFE4F8491882349F190E0880F991FE4
:104A8000FC01E45BFE4FA591B491825C9E4FFC015A
:104A9000C591D4919FB7611108C0F8948C9120956D
:104AA00082238C93888182230AC0623051F4F89467
:104AB0008C91322F309583238C938881822B88832D
:104AC00004C0F8948C91822B8C939FBFDF91CF917F
:104AD00008950F931F93CF93DF931F92CDB7DEB747
:104AE000282F30E0F901EA52FF4F8491F901EC5090
:104AF000FF4F1491F901EE5EFE4F04910023C9F0BF
:104B0000882321F069830E94F3246981E02FF0E07B
:104B1000EE0FFF1FE25CFE4FA591B4919FB7F89492
:104B20008C91611103C01095812301C0812B8C935E
:104B30009FBF0F90DF91CF911F910F910895CF9359
:104B4000DF93282F30E0F901EA52FF4F8491F901F9
:104B5000EC50FF4FD491F901EE5EFE4FC491CC238F
:104B600091F081110E94F324EC2FF0E0EE0FFF1F73
:104B7000E05DFE4FA591B4912C912D2381E090E052
:104B800021F480E002C080E090E0DF91CF910895B1
:104B90001F920F920FB60F9211242F933F938F9372
:104BA0009F93AF93BF938091EE029091EF02A091FB
:104BB000F002B091F1023091ED0223E0230F2D3786
:104BC00020F40196A11DB11D05C026E8230F029611
:104BD000A11DB11D2093ED028093EE029093EF0290
:104BE000A093F002B093F1028091F2029091F3024F
:104BF000A091F402B091F5020196A11DB11D809320
:104C0000F2029093F302A093F402B093F502BF91E5
:104C1000AF919F918F913F912F910F900FBE0F9069
:104C20001F9018952FB7F8946091EE027091EF02E3
:104C30008091F0029091F1022FBF08953FB7F89450
:104C40008091F2029091F302A091F402B091F502EA
:104C500026B5A89B05C02F3F19F00196A11DB11DD7
:104C60003FBF6627782F892F9A2F620F711D811DF4
:104C7000911D42E0660F771F881F991F4A95D1F753
:104C80000895CF92DF92EF92FF92CF93DF936B0163
:104C90007C010E941E26EB01C114D104E104F10441
:104CA00089F00E9430300E941E266C1B7D0B683EEE
:104CB000734090F381E0C81AD108E108F108C851A7
:104CC000DC4FEACFDF91CF91FF90EF90DF90CF9054
:104CD0000895789484B5826084BD84B5816084BD74
:104CE00085B5826085BD85B5816085BDEEE6F0E065
:104CF000808181608083E1E8F0E0108280818260C1
:104D00008083808181608083E0E8F0E08081816041
:104D10008083E1E9F0E0808182608083808181602E
:104D20008083E0E9F0E0808181608083E1ECF0E065
:104D300080818460808380818260808380818160C3
:104D40008083E3ECF0E0808181608083E0ECF0E040
:104D5000808182608083E2ECF0E0808181608083EA
:104D6000EAE7F0E0808184608083808182608083D4
:104D700080818160808380818068808308958093B2
:104D800006010895823108F08251E82FF0E0E653E1
:104D9000FF4FE49180917B00E3FB222720F930E074
:104DA00095E0220F331F9A95E1F78F7D822B809338
:104DB0007B00E7708091060120E4829FC0011124EE
:104DC000E82BE0937C0080917A00806480937A00E5
:104DD00080917A0086FDFCCF809178002091790047
:104DE00090E0922B0895CF93DF931F92CDB7DEB75B
:104DF0006983DC01ED91FC910280F381E02D41E0BB
:104E000050E0BE016F5F7F4F09950F90DF91CF910A
:104E10000895CF93DF93EC018C859D8597FF05C0A6
:104E200082E00E94A4289D878C878C859D85DF91D8
:104E3000CF91089583E00C94F92AFC01848595852F
:104E400097FD06C082E00E944C2890E001960895EC
:104E500082E00E944C2890E00895FC0184859585AD
:104E600097FD05C02FEF3FEF35872487089582E037
:104E70000C94A428CF93DF93EC0180910E0188233A
:104E800031F083E00E94D5281816190634F081E02D
:104E900090E09B838A8380E090E0DF91CF9108953A
:104EA000FC0120812E5F208342E450E06AE571E03E
:104EB00080E80C947029FC0181819081913A59F429
:104EC000813209F03CC047E050E067E071E080E0EB
:104ED0000E94702943C0913291F5803239F467E025
:104EE00070E087E091E00E94A12906C0823209F0BB
:104EF00035C0828180930E01809107019091080155
:104F0000A0910901B0910A01803B9440A105B1052F
:104F1000C1F480910E0180FD14C087E797E790935C
:104F20000108809300082BE088E190E00FB6F89428
:104F3000A895809360000FBE209360000FC080E0B2
:104F4000089588E10FB6F894809360001092600095
:104F50000FBEA895109201081092000881E00895F4
:104F60002FEF3FEFFC013587248708951092F90257
:104F70001092F80288EE93E0A0E0B0E08093FA028D
:104F80009093FB02A093FC02B093FD0287EC91E0AA
:104F90009093F7028093F6028FEF9FEF90930303B5
:104FA00080930203089540914A0350914B0320914E
:104FB00048033091490342175307B4F49091E80035
:104FC0009570E1F39091E80092FD19C08093F10093
:104FD00080914A0390914B0301968F739927892BF7
:104FE00019F48EEF8093E80080914A0390914B036F
:104FF000019690934B0380934A0381E0089580E0EB
:105000000895CF92DF92FF920F931F93CF93DF9378
:105010001F92CDB7DEB7082F162F862F880F8E5F11
:1050200099830E94D32783E00E94D327F02EC02EBD
:105030009981D92E8C2D8F19811778F4F6018491DE
:105040000E94D327082F80E00E94D3278023FFEF00
:10505000CF1ADF0A8111EECF01C081E00F90DF91FE
:10506000CF911F910F91FF90DF90CF9008956150E5
:1050700030F02091F100FC0120830196F8CF289AAE
:1050800084E680934D0308952FB7FC012083F894A4
:1050900067706093E9000895CF93DF931F92CDB7B7
:1050A000DEB7682FCE0101960E9444288091F2005D
:1050B00099819FBF0F90DF91CF910895FF920F9339
:1050C0001F93CF93DF9300D0CDB7DEB7F62E8A01C2
:1050D00090914C03992311F057FF03C08FEF9FEF7E
:1050E0002BC0682FCE0101967A830E9444288091BC
:1050F000F20090E0A8017A81801791070CF4AC01CE
:10510000EF2DF72FF40E84E6FE1639F0289A8093DF
:105110004D039091F1009193F7CF4115510521F086
:105120008091F200882321F089818FBFCA0104C0D9
:105130008BE68093E800F8CF0F900F90DF91CF912E
:105140001F910F91FF900895CF93DF931F92CDB7DA
:10515000DEB741E050E0BE016F5F7F4F0E945E28E6
:10516000019719F4898190E002C08FEF9FEF0F90B3
:10517000DF91CF910895CF93DF931F92CDB7DEB724
:10518000682FCE0101960E9444289091E800892F53
:10519000807295FF04C09091F20080E4891B998190
:1051A0009FBF0F90DF91CF9108956F927F928F9262
:1051B0009F92AF92BF92CF92DF92EF92FF920F93A6
:1051C0001F93CF93DF931F92CDB7DEB7782E7B016D
:1051D000C42EB52E80914C03882369F0042F152F1F
:1051E0008AEFD82E872D8072982E9AE3A92E872DCC
:1051F0008074882E11C08FEF9FEF57C0872D0E94BB
:10520000BB28682E81110CC0DA94A9F361E070E02C
:1052100080E090E00E9441260115110579F73BC01E
:10522000282F30E0021713070CF4602E672DCE01F3
:1052300001960E9444288091E80085FF29C0262D10
:1052400030E0021B130B992039F06A948FEF681637
:10525000B1F01092F100F9CFF701862D77FE07C06B
:10526000815058F094919093F1003196F9CF81508C
:1052700020F091919093F100FACFE20EF31E80910D
:10528000E80085FF0FC00115110511F481100AC057
:1052900089818FBFC1CF5D9A84E680934E038C2DA8
:1052A0009B2D03C0A092E800F3CF0F90DF91CF9128
:1052B0001F910F91FF90EF90DF90CF90BF90AF9034
:1052C0009F908F907F906F9008951092E9001092B8
:1052D0004B0310924A039093490380934803089527
:1052E000CF92DF92FF920F931F93CF93DF9300D063
:1052F000CDB7DEB7F82E8A016B0101151105B1F0AB
:10530000F601F7FE02C0849101C0808149835A836F
:105310000E94D32701501109FFEFCF1ADF0A4981FC
:105320005A818111EACF8FEF9FEF01C0CA010F9020
:105330000F90DF91CF911F910F91FF90DF90CF9051
:1053400008951F93CF93DF931F92CDB7DEB7162F2B
:105350002091E80022FFFCCF612F79830E9437283B
:105360008BEF8093E800812F7981972F0F90DF9149
:10537000CF911F910895CF93DF931F92CDB7DEB7E2
:105380001982CE0101960E945027CE0101960E94FB
:10539000972B898190E00F90DF91CF9108951F9214
:1053A0000F920FB60F921124EF92FF920F931F935B
:1053B0002F933F934F935F936F937F938F939F931D
:1053C000AF93BF93EF93FF93CF93DF93CDB7DEB748
:1053D0006297DEBFCDBF1092E9008091E80083FFA5
:1053E000EBC068E0CE010A960E94372882EF8093D6
:1053F000E8009A8597FF05C08091E80080FFFCCF08
:1054000003C08EEF8093E800892F807609F0B9C041
:105410008B85811105C01092F1001092F100C5C07A
:10542000282F2D7F213009F4C0C0853049F48091A8
:10543000E80080FFFCCF8C8580688093E300B5C0D6
:10544000863009F076C02D85E888F988223071F51C
:1054500080E090E02A8B0E9465290E94BB2999E098
:105460008E010F5F1F4FF801392F11923A95E9F71E
:1054700099832A892A8391E09E8390E898879AEFFE
:10548000998720914A0330914B03275F3F4F3C831C
:105490002B838D83C7010E94652949E050E0B80144
:1054A00080E00E9470290E94BB297FC0C7012A8B1F
:1054B0000E9465292A89223241F482E290E00E940A
:1054C000A22B892B09F071C074C0213069F488893E
:1054D0009989089711F4209347038091470381111C
:1054E00018C063EB71E01AC0233009F062C08C85EC
:1054F000882391F0823021F46DE081ED91E006C0C7
:10550000813009F056C06BE085EC91E00E940128E3
:105510004AC061EA71E002C06FED71E0611571058A
:1055200009F447C0FB01449150E080E80E947029D3
:105530003CC0873009F43DC0883021F481E080937D
:10554000F10033C0893089F5937099F5EDE9F1E008
:1055500081E021E096E38093E9002093EB00349111
:105560003093EC009093ED008F5F3196853099F782
:105570008EE78093EA001092EA008C8580934C03BA
:1055800014C0888999890E9465298E85811105C07A
:10559000CE010A960E945B2706C0823051F4CE01EC
:1055A0000A960E94CA2B882321F08EEF8093E80090
:1055B00003C081E28093EB0062960FB6F894DEBFE1
:1055C0000FBECDBFDF91CF91FF91EF91BF91AF9112
:1055D0009F918F917F916F915F914F913F912F910B
:1055E0001F910F91FF90EF900F900FBE0F901F90A3
:1055F00018958093E9008091F200882319F08AE3DE
:105600008093E80008951F920F920FB60F92112415
:105610002F933F934F935F936F937F938F939F93BA
:10562000AF93BF93EF93FF938091E1001092E1005D
:1056300083FF0FC01092E90091E09093EB0010926D
:10564000EC0092E39093ED0010924C0398E090935D
:10565000F00082FF1DC083E00E94F92A80914E0372
:10566000882339F080914E03815080934E03882324
:1056700069F080914D03882359F080914D0381504A
:1056800080934D03811104C0289802C05D98F1CF2A
:10569000FF91EF91BF91AF919F918F917F916F910A
:1056A0005F914F913F912F910F900FBE0F901F90E0
:1056B000189510924C0381E08093D70080EA809384
:1056C000D80082E189BD09B400FEFDCF61E070E041
:1056D00080E090E00E94412680E98093D8008CE031
:1056E0008093E2001092E000559A209A5D982898E5
:1056F0000895FF920F931F93CF93DF93EC01F62E43
:10570000E881F9810480F581E02D09958C01E8811B
:10571000F9810680F781E02D6F2DCE010995C80132
:105720009927DF91CF911F910F91FF900895FC0170
:1057300020812F5F208349E150E063E672E080E83A
:105740000C94702945E650E06CE772E080E80C9418
:105750007029EF92FF920F931F93CF93DF931F92C5
:10576000CDB7DEB789838B017A0141E050E0BE01FD
:105770006F5F7F4F84E00E94D528A701B80184E4C1
:105780000E94D5280F90DF91CF911F910F91FF902C
:10579000EF900895FC0191818081813A31F481E09C
:1057A000913091F0933089F411C0813271F49B30C3
:1057B00021F482818093100105C09A3031F48281F6
:1057C00080930F0181E00895089580E0089548E0F6
:1057D00050E082E00C94A92BCF93DF93DC01683872
:1057E00018F0E8E7E60F25C0E62FF0E067FF11C0EC
:1057F000E058F10981E090E001C0880FEA95EAF7EE
:1058000014969C911497982B14969C931497E0E00F
:1058100010C0ED51FE4FE491EE2309F440C0E7FFC4
:1058200008C014968C911497826014968C931497E8
:10583000EF7716968C9116978E1741F117968C91EB
:1058400017978E1719F118968C9118978E17F1F0FB
:1058500019968C9119978E17C9F01A968C911A97F0
:105860008E17A1F01B968C911B978E1779F080E014
:1058700090E0ED01C80FD91F2E81211102C0EE83E7
:1058800005C0019686309105A1F709C0BD016C5F86
:105890007F4FCD010E94E72B81E090E008C081E0BE
:1058A00090E013969C938E93129780E090E0DF91A6
:1058B000CF910895683818F0E8E7E60F25C0E62F85
:1058C000F0E067FF12C0E058F10921E030E001C0CC
:1058D000220FEA95EAF72095DC0114963C91149783
:1058E000322314963C93E0E00FC0ED51FE4FE4915B
:1058F000EE2329F1E7FF08C0DC0114962C911497E0
:105900002D7F14962C93EF7720E030E0EE2351F0BA
:10591000DC01A20FB31F16964C9116974E1302C0CE
:1059200016961C922F5F3F4F2630310579F7BC0148
:105930006C5F7F4F0E94E72B81E090E0089580E04C
:1059400090E00895FC011682178210861186128657
:1059500013861482BC016C5F7F4F0C94E72B10926E
:105960005B03109252031092510387ED91E09093E4
:10597000500380934F03089508950E9469260E9462
:10598000BC2C86E493E00E94592B0E94C31DC0E00A
:10599000D0E00E94011A2097E1F30E940000F9CFA5
:1059A000FC01808191810C94CE32CF93DF93EC0186
:1059B00088819981009711F00E94CE321982188255
:1059C0001D821C821B821A82DF91CF9108950F9352
:1059D0001F93CF93DF93EC018B016F5F7F4F888123
:1059E00099810E945D33009731F0998388831B83EE
:1059F0000A8381E001C080E0DF91CF911F910F9178
:105A00000895CF93DF93EC0188819981892B29F048
:105A10008A819B818617970760F4CE010E94E72C4C
:105A2000882341F08C819D81892B19F4E881F981CB
:105A3000108281E0DF91CF910895EF92FF920F9352
:105A40001F93CF93DF93EC017B018A01BA010E947F
:105A5000012D811104C0CE010E94D52C07C01D83E9
:105A60000C83B701888199810E946034CE01DF9157
:105A7000CF911F910F91FF90EF900895FC0111823B
:105A8000108213821282158214826115710559F0F9
:105A9000FB0101900020E9F7AF0141505109461B7D
:105AA000570B0C941D2D0895CF93DF93EC01FB0150
:105AB0008617970761F0608171816115710529F082
:105AC000448155810E941D2D02C00E94D52CCE011B
:105AD000DF91CF910895FC0111821082138212820E
