:100000000C9476010C94E0070C94A7010C94A701C2
:100010000C94A7010C94A7010C94A7010C94A701C0
:100020000C94A7010C94A7010C94B92C0C94852B6B
:100030000C94A7010C94A7010C94A7010C94A701A0
:100040000C94A7010C94A7010C94A7010C94A70190
:100050000C94D0070C94A7010C94A7010C947E2754
:100060000C94A7010C94DA1E0C94A7010C94A70120
:100070000C94A7010C94A7010C94A7010C94A70160
:100080000C94A7010C94A7010C94A7010C94A70150
:100090000C94BA200C94A7010C94A7010C94A7010E
:1000A0000C94A7010C94A7010C94A701C126C426A7
:1000B000B326B726BD26E526E526E526C826CC26A6
:1000C000D026D626DA26E526E02607060504010016
:1000D000080A0B0C0D090000000200090F000003C4
:1000E0000401000C000000000000000000000000FF
:1000F00000000000040802011040804010204080F1
:10010000408008020401804020100201108010206D
:100110004040040404040403040502020202040330
:100120000202020206060606060604040202020491
:10013000000000002300260029002C002F000000F2
:100140000000250028002B002E00310000000000D8
:10015000240027002A002D003000080B00020202B4
:100160000100090400000102020000052400100142
:1001700005240101010424020605240600010705E7
:10018000810310004009040100020A000000070575
:1001900002024000000705830240000000C1808188
:1001A000C11201000202000040412337800001011A
:1001B00002000112010002000000404123378000CC
:1001C000010102000141726475696E6F204C4C435D
:1001D0000041726475696E6F204D6963726F00042F
:1001E00003090400000000000000002A2B28000082
:1001F00000000000000000000000000000000000FF
:100200000000002C9EB4A0A1A2A434A6A7A5AE36DF
:100210002D3738271E1F20212223242526B333B64D
:100220002EB7B89F8485868788898A8B8C8D8E8F20
:10023000909192939495969798999A9B9C9D2F3123
:1002400030A3AD350405060708090A0B0C0D0E0F87
:10025000101112131415161718191A1B1C1DAFB103
:10026000B0B50009040200010300000009210101EA
:100270000001226500070584034000010501090211
:10028000A1010901A1008501050919012903150032
:10029000250195037501810295017505810305010D
:1002A0000930093109381581257F750895038106C4
:1002B000C0C005010906A1018502050719E029E76B
:1002C00015002501750195088102950175088103C6
:1002D0009506750815002565050719002965810033
:1002E000C0006816D81F88256C29652E11241FBEF2
:1002F000CFEFDAE0DEBFCDBF14BE88E10FB6F894D1
:1003000080936000109260000FBE11E0A0E0B1E0A9
:10031000EAE8FEE602C005900D92A63FB107D9F7C4
:1003200023E0A6EFB1E001C01D92AC37B207E1F7C0
:1003300012E0CCEED2E004C02297FE010E94CC3342
:10034000C23ED107C9F70E94732E0C9443370C9418
:100350000000DC01ED91FC910190F081E02D099409
:100360001F93CF93DF938DE292E00E9490220E9430
:10037000663270930D0260930C028DE292E00E944F
:1003800018220E946B32162F60930B0280E390E0DC
:100390000E94C236C0910C02D0910D028C179D07AD
:1003A000BCF48EE290E00E94C236C817D90784F4EC
:1003B00087E190E00E94B436811750F486E190E026
:1003C0000E94B43691E0181708F090E0892F01C020
:1003D00080E0DF91CF911F9108951F93CF93DF931A
:1003E0008DE292E00E9490220E94663270930D028C
:1003F00060930C028DE292E00E9418220E946B3200
:10040000162F60930B0284E390E00E94C236C091E5
:100410000C02D0910D028C179D07BCF482E390E092
:100420000E94C236C817D90784F489E190E00E947F
:10043000B436811750F488E190E00E94B43691E020
:10044000181708F090E0892F01C080E0DF91CF916C
:100450001F910895CF93DF93C82F0E945527D82F5F
:1004600064E170E080E090E00E94F7278C2F0E940A
:100470005527D81318C062E070E080E090E00E9439
:10048000F7278C2F0E945527D82F64E170E080E079
:1004900090E00E94F7278C2F0E94552791E0D813F7
:1004A00003C090E001C091E0892FDF91CF910895C2
:1004B000CF93DF938230E9F0833091F1813009F0FE
:1004C00045C084E10E947828EC019093000280935B
:1004D000FF0184E290E00E94C2368C179D07B0F5C0
:1004E00082E290E00E94C236C817D90778F581E011
:1004F0002EC085E10E947828EC019093FC01809346
:10050000FB0180E290E00E94C2368C179D07F0F458
:100510008EE190E00E94C236C817D90740F316C09A
:1005200086E10E947828EC019093F8018093F7010E
:100530008CE190E00E94C2368C179D0738F48AE166
:1005400090E00E94C236C817D90788F280E0DF9198
:10055000CF910895CF93DF9382E10E947828EC0138
:1005600090930802809307028CE290E00E94C236CA
:100570008C179D0758F48AE290E00E94C23621E071
:10058000C817D90708F020E0822F01C080E0DF9172
:10059000CF910895CF93DF9383E10E947828EC01F7
:1005A000909304028093030288E290E00E94C23696
:1005B0008C179D0758F486E290E00E94C23621E035
:1005C000C817D90708F020E0822F01C080E0DF9132
:1005D000CF9108954F925F926F927F928F929F92E8
:1005E000AF92BF92CF92DF92EF92FF920F931F9341
:1005F000CF93DF93CDB7DEB7E2970FB6F894DEBFA7
:100600000FBECDBF6AE281E193E00E94493167EEFF
:1006100071E0CE0185960E94F42E41E261E173E023
:10062000CE0101960E94B830BE016F5F7F4FCE01B0
:1006300085960E940A2FCE0101960E94862E89A5DA
:100640009AA5892B09F40CC167EE71E0CE014F9693
:100650000E94F42E67EE71E0CE0149960E94F42EBE
:1006600067EE71E0CE0143960E94F42E67EE71E0D2
:10067000CE010D960E94F42E67EE71E0CE01079632
:100680000E94F42E67EE71E0CE0101960E94F42ED6
:10069000E12CF12C8701B701CE0185960E946730CD
:1006A000FC012081C70101967C012C3261F0B80168
:1006B000CE0185960E946730FC016081CE014F9685
:1006C0000E942730E7CF8701B701CE0185960E94AF
:1006D0006730FC012081C70101967C012C3261F05A
:1006E000B801CE0185960E946730FC016081CE0181
:1006F00049960E942730E7CF8701B701CE01859642
:100700000E946730FC012081C70101967C012C32D8
:1007100061F0B801CE0185960E946730FC016081CE
:10072000CE0143960E942730E7CF8701B701CE0163
:1007300085960E946730FC012081C70101967C01EB
:100740002C3261F0B801CE0185960E946730FC0121
:100750006081CE010D960E942730E7CF8701B70157
:10076000CE0185960E946730FC012081C701019669
:100770002C3269F07C01B801CE0185960E94673069
:10078000FC016081CE0107960E942730E7CF7C01F3
:100790008701B701CE0185960E946730FC018081F8
:1007A0008C3279F0FFEFEF1AFF0AB801CE0185967F
:1007B0000E946730FC016081CE0101960E942730C3
:1007C000E7CFCE014F960E9479306B017C01CE01BC
:1007D00049960E9479302B013C01CE0143960E943C
:1007E00079309B01AC01CE0101962FA738AB49AB04
:1007F0005AAB0E9479306BA77CA78DA79EA7CE012C
:1008000007960E9479304B015C01CE010D960E9443
:100810007930DC01CB01760182012FA538A94BA5E7
:100820005CA5B4010E945C250E94CB240E94162680
:10083000CE0101960E94862ECE0107960E94862E3A
:10084000CE010D960E94862ECE0143960E94862EE2
:10085000CE0149960E94862ECE014F960E94862E8A
:10086000CE0185960E94862EE2960FB6F894DEBFE2
:100870000FBECDBFDF91CF911F910F91FF90EF90F1
:10088000DF90CF90BF90AF909F908F907F906F90B0
:100890005F904F900895CF93C82F60E00E941F276C
:1008A00060ED77E080E090E00E94F72761E08C2F18
:1008B000CF910C941F27CF93DF93EC0163E281E18A
:1008C00093E00E9449316AE070E080E090E00E948D
:1008D000F727BE0181E193E00E9437316AE070E0C2
:1008E00080E090E0DF91CF910C94F727CF93DF93D6
:1008F000CDB7DEB762970FB6F894DEBF0FBECDBF9F
:1009000067EE71E0CE010D960E94F42E60E481E165
:1009100093E00E9449316AE070E080E090E00E943C
:10092000F7270E948826AB01BC012AE0CE0107967A
:100930000E94C72FBE01695F7F4FCE0101960E94C2
:10094000212F6CE2CE0101960E943A30BC01CE010B
:100950000D960E942030CE0101960E94862ECE0177
:1009600007960E94862E87E10E9478284AE0BC0103
:10097000CE0107960E946F2FBE01695F7F4FCE01A7
:1009800001960E94212F6CE2CE0101960E943A301E
:10099000BC01CE010D960E942030CE0101960E942E
:1009A000862ECE0107960E94862E60910E027091CF
:1009B0000F024AE0CE0107960E949B2FBE01695F9D
:1009C0007F4FCE0101960E94212F6CE2CE0101964D
:1009D0000E943A30BC01CE010D960E942030CE011B
:1009E00001960E94862ECE0107960E94862E609167
:1009F0000C0270910D024AE0CE0107960E946F2F03
:100A0000BE01695F7F4FCE0101960E94212F6CE2EB
:100A1000CE0101960E943A30BC01CE010D960E9493
:100A20002030CE0101960E94862ECE0107960E94AC
:100A3000862E4AE060910B02CE0107960E94422F5B
:100A4000BE01695F7F4FCE0101960E94212F6CE2AB
:100A5000CE0101960E943A30BC01CE010D960E9453
:100A60002030CE0101960E94862ECE0107960E946C
:100A7000862E6091090270910A024AE0CE01079623
:100A80000E949B2FBE01695F7F4FCE0101960E949D
:100A9000212F6CE2CE0101960E943A30BC01CE01BA
:100AA0000D960E942030CE0101960E94862ECE0126
:100AB00007960E94862E60910702709108024AE014
:100AC000CE0107960E949B2FBE01695F7F4FCE012A
:100AD00001960E94212F6CE2CE0101960E943A30CD
:100AE000BC01CE010D960E942030CE0101960E94DD
:100AF000862ECE0107960E94862E88E090E00E9406
:100B0000B4364AE0882319F061E070E002C060E08A
:100B100070E0CE0107960E946F2FBE01695F7F4F84
:100B2000CE0101960E94212F6CE2CE0101960E9417
:100B30003A30BC01CE010D960E942030CE010196C4
:100B40000E94862ECE0107960E94862E60912B026F
:100B500070E04AE0CE0107960E946F2FBE01695FE8
:100B60007F4FCE0101960E94212F6CE2CE010196AB
:100B70000E943A30BC01CE010D960E942030CE0179
:100B800001960E94862ECE0107960E94862E6091C5
:100B90000502709106024AE0CE0107960E949B2F43
:100BA000BE01695F7F4FCE0101960E94212F6CE24A
:100BB000CE0101960E943A30BC01CE010D960E94F2
:100BC0002030CE0101960E94862ECE0107960E940B
:100BD000862E60910302709104024AE0CE010796CE
:100BE0000E949B2FBE01695F7F4FCE0101960E943C
:100BF000212F6CE2CE0101960E943A30BC01CE0159
:100C00000D960E942030CE0101960E94862ECE01C4
:100C100007960E94862E87E090E00E94B4364AE054
:100C2000882319F061E070E002C060E070E0CE015E
:100C300007960E946F2FBE01695F7F4FCE0101961C
:100C40000E94212F6CE2CE0101960E943A30BC0135
:100C5000CE010D960E942030CE0101960E94862E74
:100C6000CE0107960E94862E60912A0270E04AE02B
:100C7000CE0107960E946F2FBE01695F7F4FCE01A4
:100C800001960E94212F6CE2CE0101960E943A301B
:100C9000BC01CE010D960E942030CE0101960E942B
:100CA000862ECE0107960E94862E609101027091D9
:100CB00002024AE0CE0107960E949B2FBE01695FA7
:100CC0007F4FCE0101960E94212F6CE2CE0101964A
:100CD0000E943A30BC01CE010D960E942030CE0118
:100CE00001960E94862ECE0107960E94862E609164
:100CF000FF01709100024AE0CE0107960E949B2FEF
:100D0000BE01695F7F4FCE0101960E94212F6CE2E8
:100D1000CE0101960E943A30BC01CE010D960E9490
:100D20002030CE0101960E94862ECE0107960E94A9
:100D3000862E86E090E00E94B4364AE0882319F0BF
:100D400061E070E002C060E070E0CE0107960E94B2
:100D50006F2FBE01695F7F4FCE0101960E94212F48
:100D60006CE2CE0101960E943A30BC01CE010D9694
:100D70000E942030CE0101960E94862ECE01079659
:100D80000E94862E6091290270E04AE0CE0107960B
:100D90000E946F2FBE01695F7F4FCE0101960E94B6
:100DA000212F6CE2CE0101960E943A30BC01CE01A7
:100DB0000D960E942030CE0101960E94862ECE0113
:100DC00007960E94862E6091FD017091FE014AE017
:100DD000CE0107960E949B2FBE01695F7F4FCE0117
:100DE00001960E94212F6CE2CE0101960E943A30BA
:100DF000BC01CE010D960E942030CE0101960E94CA
:100E0000862ECE0107960E94862E6091FB0170917E
:100E1000FC014AE0CE0107960E949B2FBE01695F4C
:100E20007F4FCE0101960E94212F6CE2CE010196E8
:100E30000E943A30BC01CE010D960E942030CE01B6
:100E400001960E94862ECE0107960E94862E85E08E
:100E500090E00E94B4364AE0882319F061E070E027
:100E600002C060E070E0CE0107960E946F2FBE01C5
:100E7000695F7F4FCE0101960E94212F6CE2CE0167
:100E800001960E943A30BC01CE010D960E9420309E
:100E9000CE0101960E94862ECE0107960E94862ED4
:100EA0006091280270E04AE0CE0107960E946F2F01
:100EB000BE01695F7F4FCE0101960E94212F6CE237
:100EC000CE0101960E943A30BC01CE010D960E94DF
:100ED0002030CE0101960E94862ECE0107960E94F8
:100EE000862E6091F9017091FA014AE0CE010796D1
:100EF0000E949B2FBE01695F7F4FCE0101960E9429
:100F0000212F6CE2CE0101960E943A30BC01CE0145
:100F10000D960E942030CE0101960E94862ECE01B1
:100F200007960E94862E6091F7017091F8014AE0C1
:100F3000CE0101960E949B2FBE016F5F7F4FCE01B5
:100F40000D960E942030CE0101960E94862EBE0191
:100F5000635F7F4F81E193E00E943731CE010D96B0
:100F60000E94862E62960FB6F894DEBF0FBECDBFEC
:100F7000DF91CF91089568E281E193E00E944931C9
:100F80006AE070E080E090E00E94F7270E948826E7
:100F9000AB01BC012AE030E081E193E00C94EE313A
:100FA0001F920F920FB60F9211248F93A89581E094
:100FB000809330028F910F900FBE0F901F90189565
:100FC0001F920F920FB60F9211248F931DBA81E0DA
:100FD0008093F6018F910F900FBE0F901F90189580
:100FE000F89483B7817F846083BF83B7816083BFB8
:100FF00083B7816083BF889583B78E7F83BFFFCF20
:10100000EF92FF920F931F93CF93DF93CDB7DEB78D
:10101000C85DD1090FB6F894DEBF0FBECDBF64E244
:1010200081E193E00E94493167EE71E0CE018D527B
:101030009F4F0E94F42E41E261E173E0CE010196E0
:101040000E94B830BE016F5F7F4FCE018D529F4F1F
:101050000E940A2FCE0101960E94862EC952DF4FB0
:1010600088819981C75DD040892B09F48BC667EED2
:1010700071E0CE0183539F4F0E94F42E67EE71E022
:10108000CE0189539F4F0E94F42E67EE71E0CE018E
:101090008F539F4F0E94F42E67EE71E0CE0185546E
:1010A0009F4F0E94F42E67EE71E0CE018B549F4F4C
:1010B0000E94F42E67EE71E0CE0181559F4F0E9491
:1010C000F42E67EE71E0CE0187559F4F0E94F42EFB
:1010D00067EE71E0CE018D559F4F0E94F42E67EEB2
:1010E00071E0CE0183569F4F0E94F42E67EE71E0AF
:1010F000CE0189569F4F0E94F42E67EE71E0CE011B
:101100008F569F4F0E94F42E67EE71E0CE018557F7
:101110009F4F0E94F42E67EE71E0CE018B579F4FD8
:101120000E94F42E67EE71E0CE0181589F4F0E941D
:10113000F42E67EE71E0CE0187589F4F0E94F42E87
:1011400067EE71E0CE018D589F4F0E94F42E67EE3E
:1011500071E0CE0183599F4F0E94F42E67EE71E03B
:10116000CE0189599F4F0E94F42E67EE71E0CE01A7
:101170008F599F4F0E94F42E67EE71E0CE01855A81
:101180009F4F0E94F42E67EE71E0CE018B5A9F4F65
:101190000E94F42E67EE71E0CE01815B9F4F0E94AA
:1011A000F42E67EE71E0CE01875B9F4F0E94F42E14
:1011B00067EE71E0CE018D5B9F4F0E94F42E67EECB
:1011C00071E0CE01CD960E94F42E67EE71E0CE0163
:1011D000C7960E94F42E67EE71E0CE01C1960E9480
:1011E000F42E67EE71E0CE018B960E94F42E67EE2E
:1011F00071E0CE0185960E94F42E67EE71E0CE017B
:101200004F960E94F42E67EE71E0CE0149960E943F
:10121000F42E67EE71E0CE0143960E94F42E67EE45
:1012200071E0CE010D960E94F42E67EE71E0CE01C2
:1012300007960E94F42E67EE71E0CE0101960E949F
:10124000F42EE12CF12C8701B701CE018D529F4F76
:101250000E946730FC012081C70101967C012C327D
:1012600071F0B801CE018D529F4F0E946730FC0192
:101270006081CE0183539F4F0E942730E4CF8701C6
:10128000B701CE018D529F4F0E946730FC01208133
:10129000C70101967C012C3271F0B801CE018D524C
:1012A0009F4F0E946730FC016081CE0189539F4FA0
:1012B0000E942730E4CF8701B701CE018D529F4FA6
:1012C0000E946730FC012081C70101967C012C320D
:1012D00071F0B801CE018D529F4F0E946730FC0122
:1012E0006081CE018F539F4F0E942730E4CF87014A
:1012F000B701CE018D529F4F0E946730FC012081C3
:10130000C70101967C012C3271F0B801CE018D52DB
:101310009F4F0E946730FC016081CE0185549F4F32
:101320000E942730E4CF8701B701CE018D529F4F35
:101330000E946730FC012081C70101967C012C329C
:1013400071F0B801CE018D529F4F0E946730FC01B1
:101350006081CE018B549F4F0E942730E4CF8701DC
:10136000B701CE018D529F4F0E946730FC01208152
:10137000C70101967C012C3271F0B801CE018D526B
:101380009F4F0E946730FC016081CE0181559F4FC5
:101390000E942730E4CF8701B701CE018D529F4FC5
:1013A0000E946730FC012081C70101967C012C322C
:1013B00071F0B801CE018D529F4F0E946730FC0141
:1013C0006081CE0187559F4F0E942730E4CF87016F
:1013D000B701CE018D529F4F0E946730FC012081E2
:1013E000C70101967C012C3271F0B801CE018D52FB
:1013F0009F4F0E946730FC016081CE018D559F4F49
:101400000E942730E4CF8701B701CE018D529F4F54
:101410000E946730FC012081C70101967C012C32BB
:1014200071F0B801CE018D529F4F0E946730FC01D0
:101430006081CE0183569F4F0E942730E4CF870101
:10144000B701CE018D529F4F0E946730FC01208171
:10145000C70101967C012C3271F0B801CE018D528A
:101460009F4F0E946730FC016081CE0189569F4FDB
:101470000E942730E4CF8701B701CE018D529F4FE4
:101480000E946730FC012081C70101967C012C324B
:1014900071F0B801CE018D529F4F0E946730FC0160
:1014A0006081CE018F569F4F0E942730E4CF870185
:1014B000B701CE018D529F4F0E946730FC01208101
:1014C000C70101967C012C3271F0B801CE018D521A
:1014D0009F4F0E946730FC016081CE0185579F4F6E
:1014E0000E942730E4CF8701B701CE018D529F4F74
:1014F0000E946730FC012081C70101967C012C32DB
:1015000071F0B801CE018D529F4F0E946730FC01EF
:101510006081CE018B579F4F0E942730E4CF870117
:10152000B701CE018D529F4F0E946730FC01208190
:10153000C70101967C012C3271F0B801CE018D52A9
:101540009F4F0E946730FC016081CE0181589F4F00
:101550000E942730E4CF8701B701CE018D529F4F03
:101560000E946730FC012081C70101967C012C326A
:1015700071F0B801CE018D529F4F0E946730FC017F
:101580006081CE0187589F4F0E942730E4CF8701AA
:10159000B701CE018D529F4F0E946730FC01208120
:1015A000C70101967C012C3271F0B801CE018D5239
:1015B0009F4F0E946730FC016081CE018D589F4F84
:1015C0000E942730E4CF8701B701CE018D529F4F93
:1015D0000E946730FC012081C70101967C012C32FA
:1015E00071F0B801CE018D529F4F0E946730FC010F
:1015F0006081CE0183599F4F0E942730E4CF87013D
:10160000B701CE018D529F4F0E946730FC012081AF
:10161000C70101967C012C3271F0B801CE018D52C8
:101620009F4F0E946730FC016081CE0189599F4F16
:101630000E942730E4CF8701B701CE018D529F4F22
:101640000E946730FC012081C70101967C012C3289
:1016500071F0B801CE018D529F4F0E946730FC019E
:101660006081CE018F599F4F0E942730E4CF8701C0
:10167000B701CE018D529F4F0E946730FC0120813F
:10168000C70101967C012C3271F0B801CE018D5258
:101690009F4F0E946730FC016081CE01855A9F4FA9
:1016A0000E942730E4CF8701B701CE018D529F4FB2
:1016B0000E946730FC012081C70101967C012C3219
:1016C00071F0B801CE018D529F4F0E946730FC012E
:1016D0006081CE018B5A9F4F0E942730E4CF870153
:1016E000B701CE018D529F4F0E946730FC012081CF
:1016F000C70101967C012C3271F0B801CE018D52E8
:101700009F4F0E946730FC016081CE01815B9F4F3B
:101710000E942730E4CF8701B701CE018D529F4F41
:101720000E946730FC012081C70101967C012C32A8
:1017300071F0B801CE018D529F4F0E946730FC01BD
:101740006081CE01875B9F4F0E942730E4CF8701E5
:10175000B701CE018D529F4F0E946730FC0120815E
:10176000C70101967C012C3271F0B801CE018D5277
:101770009F4F0E946730FC016081CE018D5B9F4FBF
:101780000E942730E4CF8701B701CE018D529F4FD1
:101790000E946730FC012081C70101967C012C3238
:1017A00069F0B801CE018D529F4F0E946730FC0155
:1017B0006081CE01CD960E942730E5CF8701B70129
:1017C000CE018D529F4F0E946730FC012081C701DE
:1017D00001967C012C3269F0B801CE018D529F4FE9
:1017E0000E946730FC016081CE01C7960E942730BD
:1017F000E5CF8701B701CE018D529F4F0E94673020
:10180000FC012081C70101967C012C3269F0B801EE
:10181000CE018D529F4F0E946730FC016081CE0146
:10182000C1960E942730E5CF8701B701CE018D52C6
:101830009F4F0E946730FC012081C70101967C0107
:101840002C3269F0B801CE018D529F4F0E94673053
:10185000FC016081CE018B960E942730E5CF870185
:10186000B701CE018D529F4F0E946730FC0120814D
:10187000C70101967C012C3269F0B801CE018D526E
:101880009F4F0E946730FC016081CE0185960E94C7
:101890002730E5CF8701B701CE018D529F4F0E94BF
:1018A0006730FC012081C70101967C012C3269F070
:1018B000B801CE018D529F4F0E946730FC016081BC
:1018C000CE014F960E942730E5CF8701B701CE01A8
:1018D0008D529F4F0E946730FC012081C701019605
:1018E0007C012C3269F0B801CE018D529F4F0E94CD
:1018F0006730FC016081CE0149960E942730E5CF18
:101900008701B701CE018D529F4F0E946730FC01C5
:101910002081C70101967C012C3269F0B801CE010B
:101920008D529F4F0E946730FC016081CE0143962B
:101930000E942730E5CF8701B701CE018D529F4F1E
:101940000E946730FC012081C70101967C012C3286
:1019500069F0B801CE018D529F4F0E946730FC01A3
:101960006081CE010D960E942730E5CF8701B70137
:10197000CE018D529F4F0E946730FC012081C7012C
:1019800001962C3271F07C01B801CE018D529F4F2F
:101990000E946730FC016081CE0107960E942730CB
:1019A000E5CF8C017801B801CE018D529F4F0E9486
:1019B0006730FC0180818C3279F00F5F1F4FB701D7
:1019C000CE018D529F4F0E946730FC016081CE0195
:1019D00001960E942730E6CFCE0183539F4F0E948D
:1019E0007930AB01BC018FE590E00E94DA36CE0180
:1019F00089539F4F0E9479308DE590E00E94E63632
:101A0000CE018F539F4F0E9479308CE590E00E9469
:101A1000C836CE0185549F4F0E9479308BE590E007
:101A20000E94C836CE018B549F4F0E9479308AE5C0
:101A300090E00E94C836CE0181559F4F0E947930B8
:101A400089E590E00E94C836CE0187559F4F0E94DD
:101A5000793087E590E00E94E636CE018D559F4FA4
:101A60000E94793086E590E00E94C836CE01835608
:101A70009F4F0E94793084E590E00E94E636CE01C7
:101A800089569F4F0E94793082E590E00E94E636A9
:101A9000CE018F569F4F0E94793081E590E00E94E1
:101AA000C836CE0185579F4F0E94793087E490E079
:101AB0000E94C836CE018B579F4F0E94793086E432
:101AC00090E00E94C836CE0181589F4F0E94793025
:101AD00082E490E00E94C836CE0187589F4F0E9452
:101AE000793081E490E00E94C836CE018D589F4F36
:101AF0000E94793080E490E00E94C836CE0183597C
:101B00009F4F0E9479308FE390E00E94C836CE014B
:101B100089599F4F0E9479308BE390E00E94C8362C
:101B2000CE018F599F4F0E9479308AE390E00E9446
:101B3000C836CE01855A9F4F0E94793089E390E0E4
:101B40000E94C836CE018B5A9F4F0E94793084E3A1
:101B500090E00E94E636CE01815B9F4F0E94793073
:101B600082E390E00E94E636CE01875B9F4F0E94A1
:101B7000793080E390E00E94E636CE018D5B9F4F86
:101B80000E9479308EE290E00E94E636CE01CD963A
:101B90000E9479308CE290E00E94E636CE01C79632
:101BA0000E9479308AE290E00E94E636CE01C1962A
:101BB0000E94793088E290E00E94E636CE018B9652
:101BC0000E94793086E290E00E94E636CE0185964A
:101BD0000E94793089E190E00E94C836CE014F968C
:101BE0000E94793088E190E00E94C836CE01499683
:101BF0000E94793087E190E00E94C836CE0143967A
:101C00000E94793086E190E00E94C836CE010D96A0
:101C10000E94793084E190E00E94E636CE0107967A
:101C20000E94793082E190E00E94E636CE01019672
:101C30000E94793080E190E00E94E636CE01019664
:101C40000E94862ECE0107960E94862ECE010D960A
:101C50000E94862ECE0143960E94862ECE01499682
:101C60000E94862ECE014F960E94862ECE0185962A
:101C70000E94862ECE018B960E94862ECE01C196A2
:101C80000E94862ECE01C7960E94862ECE01CD964A
:101C90000E94862ECE018D5B9F4F0E94862ECE0124
:101CA000875B9F4F0E94862ECE01815B9F4F0E94D3
:101CB000862ECE018B5A9F4F0E94862ECE01855ACA
:101CC0009F4F0E94862ECE018F599F4F0E94862ED5
:101CD000CE0189599F4F0E94862ECE0183599F4F76
:101CE0000E94862ECE018D589F4F0E94862ECE01D7
:101CF00087589F4F0E94862ECE0181589F4F0E9489
:101D0000862ECE018B579F4F0E94862ECE0185577F
:101D10009F4F0E94862ECE018F569F4F0E94862E87
:101D2000CE0189569F4F0E94862ECE0183569F4F2B
:101D30000E94862ECE018D559F4F0E94862ECE0189
:101D400087559F4F0E94862ECE0181559F4F0E943E
:101D5000862ECE018B549F4F0E94862ECE01855435
:101D60009F4F0E94862ECE018F539F4F0E94862E3A
:101D7000CE0189539F4F0E94862ECE0183539F4FE1
:101D80000E94862ECE018D529F4F0E94862EC852F1
:101D9000DF4F0FB6F894DEBF0FBECDBFDF91CF91FE
:101DA0001F910F91FF90EF900895EF92FF920F9384
:101DB0001F93CF93DF93CDB7DEB7C659D1090FB6C6
:101DC000F894DEBF0FBECDBF6EE581E193E00E94C7
:101DD000493167EE71E0CE018F569F4F0E94F42E7D
:101DE00041E261E173E0CE0101960E94B830BE018C
:101DF0006F5F7F4FCE018F569F4F0E940A2FCE01FB
:101E000001960E94862ECB56DF4F88819981C55955
:101E1000D040892B09F46EC467EE71E0CE0185577E
:101E20009F4F0E94F42E67EE71E0CE018B579F4FBB
:101E30000E94F42E67EE71E0CE0181589F4F0E9400
:101E4000F42E67EE71E0CE0187589F4F0E94F42E6A
:101E500067EE71E0CE018D589F4F0E94F42E67EE21
:101E600071E0CE0183599F4F0E94F42E67EE71E01E
:101E7000CE0189599F4F0E94F42E67EE71E0CE018A
:101E80008F599F4F0E94F42E67EE71E0CE01855A64
:101E90009F4F0E94F42E67EE71E0CE018B5A9F4F48
:101EA0000E94F42E67EE71E0CE01815B9F4F0E948D
:101EB000F42E67EE71E0CE01875B9F4F0E94F42EF7
:101EC00067EE71E0CE018D5B9F4F0E94F42E67EEAE
:101ED00071E0CE01CD960E94F42E67EE71E0CE0146
:101EE000C7960E94F42E67EE71E0CE01C1960E9463
:101EF000F42E67EE71E0CE018B960E94F42E67EE11
:101F000071E0CE0185960E94F42E67EE71E0CE015D
:101F10004F960E94F42E67EE71E0CE0149960E9422
:101F2000F42E67EE71E0CE0143960E94F42E67EE28
:101F300071E0CE010D960E94F42E67EE71E0CE01A5
:101F400007960E94F42E67EE71E0CE0101960E9482
:101F5000F42EE12CF12C8701B701CE018F569F4F53
:101F60000E946730FC012081C70101967C012C3260
:101F700071F0B801CE018F569F4F0E946730FC016F
:101F80006081CE0185579F4F0E942730E4CF8701A3
:101F9000B701CE018F569F4F0E946730FC01208110
:101FA000C70101967C012C3271F0B801CE018F5629
:101FB0009F4F0E946730FC016081CE018B579F4F7D
:101FC0000E942730E4CF8701B701CE018F569F4F83
:101FD0000E946730FC012081C70101967C012C32F0
:101FE00071F0B801CE018F569F4F0E946730FC01FF
:101FF0006081CE0181589F4F0E942730E4CF870136
:10200000B701CE018F569F4F0E946730FC0120819F
:10201000C70101967C012C3271F0B801CE018F56B8
:102020009F4F0E946730FC016081CE0187589F4F0F
:102030000E942730E4CF8701B701CE018F569F4F12
:102040000E946730FC012081C70101967C012C327F
:1020500071F0B801CE018F569F4F0E946730FC018E
:102060006081CE018D589F4F0E942730E4CF8701B9
:10207000B701CE018F569F4F0E946730FC0120812F
:10208000C70101967C012C3271F0B801CE018F5648
:102090009F4F0E946730FC016081CE0183599F4FA2
:1020A0000E942730E4CF8701B701CE018F569F4FA2
:1020B0000E946730FC012081C70101967C012C320F
:1020C00071F0B801CE018F569F4F0E946730FC011E
:1020D0006081CE0189599F4F0E942730E4CF87014C
:1020E000B701CE018F569F4F0E946730FC012081BF
:1020F000C70101967C012C3271F0B801CE018F56D8
:102100009F4F0E946730FC016081CE018F599F4F25
:102110000E942730E4CF8701B701CE018F569F4F31
:102120000E946730FC012081C70101967C012C329E
:1021300071F0B801CE018F569F4F0E946730FC01AD
:102140006081CE01855A9F4F0E942730E4CF8701DE
:10215000B701CE018F569F4F0E946730FC0120814E
:10216000C70101967C012C3271F0B801CE018F5667
:102170009F4F0E946730FC016081CE018B5A9F4FB8
:102180000E942730E4CF8701B701CE018F569F4FC1
:102190000E946730FC012081C70101967C012C322E
:1021A00071F0B801CE018F569F4F0E946730FC013D
:1021B0006081CE01815B9F4F0E942730E4CF870171
:1021C000B701CE018F569F4F0E946730FC012081DE
:1021D000C70101967C012C3271F0B801CE018F56F7
:1021E0009F4F0E946730FC016081CE01875B9F4F4B
:1021F0000E942730E4CF8701B701CE018F569F4F51
:102200000E946730FC012081C70101967C012C32BD
:1022100071F0B801CE018F569F4F0E946730FC01CC
:102220006081CE018D5B9F4F0E942730E4CF8701F4
:10223000B701CE018F569F4F0E946730FC0120816D
:10224000C70101967C012C3269F0B801CE018F568E
:102250009F4F0E946730FC016081CE01CD960E94A5
:102260002730E5CF8701B701CE018F569F4F0E94DF
:102270006730FC012081C70101967C012C3269F096
:10228000B801CE018F569F4F0E946730FC016081DC
:10229000CE01C7960E942730E5CF8701B701CE0156
:1022A0008F569F4F0E946730FC012081C701019625
:1022B0007C012C3269F0B801CE018F569F4F0E94ED
:1022C0006730FC016081CE01C1960E942730E5CFC6
:1022D0008701B701CE018F569F4F0E946730FC01E6
:1022E0002081C70101967C012C3269F0B801CE0132
:1022F0008F569F4F0E946730FC016081CE018B9604
:102300000E942730E5CF8701B701CE018F569F4F3E
:102310000E946730FC012081C70101967C012C32AC
:1023200069F0B801CE018F569F4F0E946730FC01C3
:102330006081CE0185960E942730E5CF8701B701E5
:10234000CE018F569F4F0E946730FC012081C7014C
:1023500001967C012C3269F0B801CE018F569F4F57
:102360000E946730FC016081CE014F960E942730A9
:10237000E5CF8701B701CE018F569F4F0E9467308E
:10238000FC012081C70101967C012C3269F0B80163
:10239000CE018F569F4F0E946730FC016081CE01B5
:1023A00049960E942730E5CF8701B701CE018F56AD
:1023B0009F4F0E946730FC012081C70101967C017C
:1023C0002C3269F0B801CE018F569F4F0E946730C2
:1023D000FC016081CE0143960E942730E5CF870142
:1023E000B701CE018F569F4F0E946730FC012081BC
:1023F000C70101967C012C3269F0B801CE018F56DD
:102400009F4F0E946730FC016081CE010D960E94B3
:102410002730E5CF8701B701CE018F569F4F0E942D
:102420006730FC012081C70101962C3271F07C01DC
:10243000B801CE018F569F4F0E946730FC0160812A
:10244000CE0107960E942730E5CF8C017801B801B4
:10245000CE018F569F4F0E946730FC0180818C32E5
:1024600079F00F5F1F4FB701CE018F569F4F0E942B
:102470006730FC016081CE0101960E942730E6CFD3
:10248000CE0185579F4F0E9479308AE490E00E94E8
:10249000C836CE018B579F4F0E94793089E490E077
:1024A0000E94C836CE0181589F4F0E94793088E43F
:1024B00090E00E94C836CE0187589F4F0E94793025
:1024C0008FE490E00E94E636CE018D589F4F0E9427
:1024D00079308DE490E00E94E636CE0183599F4F1B
:1024E0000E9479308BE490E00E94E636CE01895953
:1024F0009F4F0E94793085E490E00E94C836CE015B
:102500008F599F4F0E94793084E490E00E94C83632
:10251000CE01855A9F4F0E94793083E490E00E945B
:10252000C836CE018B5A9F4F0E9479308EE390E0DF
:102530000E94C836CE01815B9F4F0E9479308DE3A7
:1025400090E00E94C836CE01875B9F4F0E94793091
:102550008CE390E00E94C836CE018D5B9F4F0E94B5
:10256000793088E390E00E94C836CE01CD960E9473
:10257000793087E390E00E94C836CE01C7960E946A
:10258000793086E390E00E94C836CE01C1960E9461
:10259000793084E290E00E94E636CE018B960E946C
:1025A000793082E290E00E94E636CE0185960E9464
:1025B000793080E290E00E94E636CE014F960E948C
:1025C00079308EE190E00E94E636CE0149960E9475
:1025D00079308CE190E00E94E636CE0143960E946D
:1025E00079308AE190E00E94E636CE010D960E9495
:1025F00079308EE090E00E94E636CE0107960E9488
:1026000079308CE090E00E94E636CE0101960E947F
:1026100079308AE090E00E94E636CE0101960E9471
:10262000862ECE0107960E94862ECE010D960E9420
:10263000862ECE0143960E94862ECE0149960E9498
:10264000862ECE014F960E94862ECE0185960E9440
:10265000862ECE018B960E94862ECE01C1960E94B8
:10266000862ECE01C7960E94862ECE01CD960E9460
:10267000862ECE018D5B9F4F0E94862ECE01875BFA
:102680009F4F0E94862ECE01815B9F4F0E94862E17
:10269000CE018B5A9F4F0E94862ECE01855A9F4FA6
:1026A0000E94862ECE018F599F4F0E94862ECE010A
:1026B00089599F4F0E94862ECE0183599F4F0E94B9
:1026C000862ECE018D589F4F0E94862ECE018758B0
:1026D0009F4F0E94862ECE0181589F4F0E94862ECA
:1026E000CE018B579F4F0E94862ECE0185579F4F5C
:1026F0000E94862ECE018F569F4F0E94862ECA566C
:10270000DF4F0FB6F894DEBF0FBECDBFDF91CF9184
:102710001F910F91FF90EF900895789483B7817F78
:10272000846083BF2FE088E190E00FB6F894A8950D
:10273000809360000FBE2093600010928000E1E85B
:10274000F0E01082109282001092850010928400B6
:10275000109289001092880010928B0010928A00CB
:1027600010928D0010928C001092870010928600BB
:10277000AFE6B0E01C9281E08C9384E0808381E33B
:1027800092E00E949C1F8FE590E00E94BC36AB0156
:10279000BC0181E193E00E94662960E084E090E062
:1027A0000E94C83660E082E090E00E94C83660E097
:1027B00083E090E00E94C83681E00E94752887E19E
:1027C0000E94782887E10E94782887E10E94782873
:1027D00082E10E94782882E10E94782882E10E94AA
:1027E000782883E10E94782883E10E94782883E199
:1027F0000E94782884E10E94782884E10E94782849
:1028000084E10E94782885E10E94782885E10E9471
:10281000782885E10E94782886E10E94782886E160
:102820000E94782886E10E9478288DE292E00E943A
:10283000E82160E670E081E392E00E94C01F64E05E
:1028400070E081E392E00E94A90160E070E081E322
:1028500092E00E94A90160E070E081E392E00E94B2
:10286000A90162E070E081E392E00E94A90161E0C9
:1028700081E392E00E94C21F62E670E081E392E091
:102880000E94C01F64E070E081E392E00E94A90111
:1028900060E070E081E392E00E94A90160E070E0F6
:1028A00081E392E00E94A90162E070E081E392E09E
:1028B0000E94A90161E081E392E00E94C21F63E6E9
:1028C00070E081E392E00E94C01F64E070E081E369
:1028D00092E00E94A90160E070E081E392E00E9432
:1028E000A90160E070E081E392E00E94A90162E04A
:1028F00070E081E392E00E94A90161E081E392E04F
:102900000E94C21F68E670E081E392E00E94C01F4F
:1029100064E070E081E392E00E94A90160E070E071
:1029200081E392E00E94A90160E070E081E392E01F
:102930000E94A90162E070E081E392E00E94A90197
:1029400061E081E392E00E94C21F6AE670E081E3E9
:1029500092E00E94C01F64E070E081E392E00E9478
:10296000A90160E070E081E392E00E94A90160E0CB
:1029700070E081E392E00E94A90162E070E081E3EF
:1029800092E00E94A90161E081E392E00E94C21FEF
:102990006BE670E081E392E00E94C01F64E070E0AB
:1029A00081E392E00E94A90160E070E081E392E09F
:1029B0000E94A90160E070E081E392E00E94A90119
:1029C00062E070E081E392E00E94A90161E081E3AE
:1029D00092E00E94C21F60ED77E080E090E00E94EC
:1029E000F72761E084E00E94E62661E086E00E942D
:1029F000E62661E088E00E94E62661E08AE00E9427
:102A0000E62661E08CE00E94E62660E085E00E9418
:102A1000E62660E087E00E94E62660E089E00E940A
:102A2000E62660E08BE00E94E62660E08DE00C94F4
:102A3000E62640E051EE60E070E08FE590E00E9415
:102A4000DA3668EC70E08DE590E00E94E6366EE1E3
:102A50008CE590E00E94C83665E08BE590E00E942E
:102A6000C83665E08AE590E00E94C83665E089E5F1
:102A700090E00E94C8366CE370E087E590E00E9429
:102A8000E63660E086E590E00E94C83668E270E0D5
:102A900084E590E00E94E63668E572E082E590E029
:102AA0000E94E6366FE081E590E00E94C8366EE154
:102AB00070E08FE490E00E94E6366EE170E08DE415
:102AC00090E00E94E6366EE170E08BE490E00E94B8
:102AD000E63660E08AE490E00E94C83660E089E46F
:102AE00090E00E94C83660E088E490E00E94C8361A
:102AF00065E087E490E00E94C83665E086E490E0F7
:102B00000E94C83665E085E490E00E94C83665E022
:102B100084E490E00E94C83665E083E490E00E947F
:102B2000C83665E082E490E00E94C83665E081E442
:102B300090E00E94C83665E080E490E00E94C836CC
:102B400065E08FE390E00E94C83665E08EE390E098
:102B50000E94C83665E08DE390E00E94C83665E0CB
:102B60008CE390E00E94C83665E08BE390E00E9421
:102B7000C83665E08AE390E00E94C83665E089E3E4
:102B800090E00E94C83665E088E390E00E94C83675
:102B900065E087E390E00E94C83665E086E390E058
:102BA0000E94C83660E070E084E390E00E94E63660
:102BB00064E670E082E390E00E94E63660E070E058
:102BC00080E390E00E94E63664E670E08EE290E0FA
:102BD0000E94E63663E770E08CE290E00E94E63601
:102BE00069EC73E08AE290E00E94E63661EA71E007
:102BF00088E290E00E94E63669EC73E086E290E0BD
:102C00000E94E63661EA71E084E290E00E94E636D6
:102C100069EC73E082E290E00E94E63661EA71E0DE
:102C200080E290E00E94E63669EC73E08EE190E08D
:102C30000E94E63661EA71E08CE190E00E94E6369F
:102C400069EC73E08AE190E00E94E63660E089E199
:102C500090E00E94C83664E688E190E00E94C836A1
:102C600060E087E190E00E94C83664E686E190E08B
:102C70000E94C83660EA7FE084E190E00E94E63678
:102C800064EC79E082E190E00E94E6366CED75E05C
:102C900080E190E00E94E63664EC79E08EE090E01E
:102CA0000E94E63664EC79E08CE090E00E94E63623
:102CB00064EC79E08AE090E00E94E63660E080E033
:102CC00090E00E94C83660E081E090E00C94C83645
:102CD0008DE292E00C94E721EF92FF920F931F9305
:102CE000CF93DF931F92CDB7DEB7282F823059F0F4
:102CF000833031F0813009F071C008E610E005C082
:102D00000BE610E002C00AE610E0B80181E392E0B1
:102D100029830E94C01F60E070E081E392E00E947E
:102D2000A90160E081E392E00E94C21F43E050E00D
:102D3000B80181E392E00E94B31F81E392E00E9418
:102D4000051F892B09F44AC081E392E00E940D1F00
:102D500081E392E00E940D1F082F81E392E00E9420
:102D60000D1F182F61E081E392E00E94C21F0170E5
:102D7000F02EE12CE12A84E0EE0CFF1C8A95E1F7AD
:102D80002981223089F02330D1F0213039F5F092B9
:102D90000202E09201028EE090E00E94C236E81644
:102DA000F90610F481E01BC0F092FE01E092FD01F3
:102DB0008CE090E00E94C236E816F90698F3F09293
:102DC000FA01E092F9018AE090E00E94C23621E027
:102DD000E816F90608F020E0822F01C080E00F908D
:102DE000DF91CF911F910F91FF90EF9008958F92F7
:102DF0009F92BF92CF92DF92EF92FF920F931F9319
:102E0000CF93DF93CDB7DEB768970FB6F894DEBFE8
:102E10000FBECDBFD82E67EE71E0CE0143960E9463
:102E2000F42E67EE71E0CE010D960E94F42E67EE4F
:102E300071E0CE0107960E94F42E82E0D81651F17F
:102E400083E0D81609F449C081E0D8121DC1109260
:102E50002A026BE471E0CE0143960E942A2F61E5BD
:102E600071E0CE010D960E942A2F67E571E0CE0138
:102E700007960E942A2F0FE410E0FAE48F2EF0E06C
:102E80009F2EA7E0EA2EA0E0FA2EB9E0BB2E88E044
:102E9000C82E45C0109229026DE571E0CE0143961F
:102EA0000E942A2F63E671E0CE010D960E942A2F20
:102EB00069E671E0CE0107960E942A2F0DE410E02A
:102EC00059E4852E50E0952E66E0E62E60E0F62E61
:102ED0007BE0B72EEAE0CE2E22C0109228026FE6E9
:102EE00071E0CE0143960E942A2F65E771E0CE0182
:102EF0000D960E942A2F6BE771E0CE0107960E9483
:102F00002A2F0BE410E098E4892E90E0992E25E01A
:102F1000E22E20E0F22E3DE0B32E4CE0C42E60E025
:102F20008C2D0E941F2760ED77E080E090E00E94EA
:102F3000F727C7010E94B436882309F4A5C0C4014D
:102F40000E94B436882309F49FC08D2D0E94580238
:102F500081110FC068E873E180E090E00E94F727DC
:102F60008D2D0E945802811104C0BE016D5E7F4FFD
:102F70006BC061E08C2D0E941F27C8010E94C236E1
:102F80009C01A8EEB3E00E94D0330E94F7278D2D5C
:102F90000E946C1681112AC08C2D0E944B04C8011E
:102FA0000E94C2369C01A8EEB3E00E94D0330E947A
:102FB000F7278D2D0E946C16811118C060E08C2DB2
:102FC0000E941F27BE01635F7F4FCE0101960E94C2
:102FD000212FCE0101960E945B04CE0101960E9432
:102FE000862E60E0C7010E94C8364EC08B2D0E941D
:102FF0002A02811136C0E12CFF24F3948AE590E087
:103000000E94B436F816B8F48B2D0E942A02811162
:103010000EC08C2D0E944B04C8010E94C2369C0138
:10302000A8EEB3E00E94D0330E94F72702C0EE243E
:10303000E394F394E3CFE11014C060E08C2D0E9480
:103040001F27BE01695F7F4FCE0101960E94212F8D
:10305000CE0101960E945B04CE0101960E94862E4D
:1030600013C082E0D81649F083E0D81651F081E011
:10307000D8120AC0D0922A0207C081E080932902A8
:1030800003C081E080932802CE0107960E94862E1D
:10309000CE010D960E94862ECE0143960E94862E6A
:1030A00068960FB6F894DEBF0FBECDBFDF91CF910B
:1030B0001F910F91FF90EF90DF90CF90BF909F9066
:1030C0008F9008950F931F93CF93DF9362E670E084
:1030D00081E392E00E94C01F60E070E081E392E033
:1030E0000E94A90160E081E392E00E94C21F43E0D8
:1030F00050E062E670E081E392E00E94B31F81E35A
:1031000092E00E94051F892B61F181E392E00E9409
:103110000D1F81E392E00E940D1F082F81E392E0D2
:103120000E940D1F182F61E081E392E00E94C21FF0
:103130000170D02F80E0C82FC12B94E0CC0FDD1F91
:103140009A95E1F7D0930A02C093090282E190E0D8
:103150000E94C23621E0C817D90708F020E0822F6C
:1031600001C080E0DF91CF911F910F9108950F93DF
:103170001F93CF93DF9300D000D000D0CDB7DEB740
:1031800010922C026FE381E193E00E94493168E8DC
:1031900073E180E090E00E94F72760E084E00E9405
:1031A0001F2760ED77E080E090E00E94F72789E03C
:1031B00090E00E94B436811102C010E0A0C00E94CD
:1031C000B001882329F00E94AA02811116C00BC009
:1031D00068E873E180E090E00E94F7270E94B00168
:1031E0008111F1CFEACF68E873E180E090E00E94BE
:1031F000F7270E94AA02882301F361E084E00E947D
:103200001F2782E590E00E94C2369C01A8EEB3E041
:103210000E94D033AB01BC0181E193E00E94B23047
:1032200041E261E173E0CE0101960E94B83048EEC0
:1032300053E060E070E081E193E00E94B23061E829
:1032400071E0CE0101960E944830882309F452C0F3
:103250000E94621881111DC084E00E944B0484E525
:1032600090E00E94C2369C01A8EEB3E00E94D033E9
:103270000E94F7270E94621881110BC060E084E071
:103280000E941F2760E089E090E00E94C83610E0AD
:1032900032C085E00E942A02811127C000E011E0BF
:1032A0008AE590E00E94B4361817B8F485E00E94D1
:1032B0002A0281110FC084E00E944B0484E590E053
:1032C0000E94C2369C01A8EEB3E00E94D0330E9457
:1032D000F72701C001E01F5FE3CF011106C060E0E6
:1032E00084E00E941F2710E006C081E080932C023A
:1032F00011E001C010E0CE0101960E94862E812FC0
:1033000026960FB6F894DEBF0FBECDBFDF91CF91EA
:103310001F910F9108950F931F93CF93DF9363E64F
:1033200070E081E392E00E94C01F60E070E081E302
:1033300092E00E94A90160E081E392E00E94C21F36
:1033400043E050E063E670E081E392E00E94B31F47
:1033500081E392E00E94051F892B61F181E392E0F5
:103360000E940D1F81E392E00E940D1F082F81E350
:1033700092E00E940D1F182F61E081E392E00E940D
:10338000C21F0170D02F80E0C82FC12B24E0CC0FCA
:10339000DD1F2A95E1F7D0930602C093050280E174
:1033A00090E00E94C23621E0C817D90708F020E05B
:1033B000822F01C080E0DF91CF911F910F9108957E
:1033C000CF93DF9300D000D000D0CDB7DEB71092FE
:1033D0002B0260E086E00E941F2760ED77E080E02E
:1033E00090E00E94F72788E090E00E94B43688239E
:1033F00009F466C086E590E00E94B436882309F49B
:103400005FC00E94CA02811119C068E873E180E0C0
:1034100090E00E94F7270E94CA0281110FC063E862
:1034200071E0CE0101960E94F42ECE0101960E9419
:103430005B04CE0101960E94862E42C061E086E0C8
:103440000E941F2781E590E00E94B436282F30E0CB
:10345000A8EEB3E00E94D0330E94F7270E948B1998
:1034600081112BC086E00E944B0481E590E00E9410
:10347000B436282F30E0A8EEB3E00E94D0330E948B
:10348000F7270E948B19811118C060E086E00E9426
:103490001F2768E871E0CE0101960E94F42ECE014C
:1034A00001960E945B04CE0101960E94862E60E088
:1034B00088E090E00E94C83603C081E080932B0230
:1034C00026960FB6F894DEBF0FBECDBFDF91CF9129
:1034D00008950F931F93CF93DF9360E670E081E32D
:1034E00092E00E94C01F60E070E081E392E00E94E1
:1034F000A90160E081E392E00E94C21F43E050E036
:1035000060E670E081E392E00E94B31F81E392E005
:103510000E94051F892B61F181E392E00E940D1F3B
:1035200081E392E00E940D1F082F81E392E00E9448
:103530000D1F182F61E081E392E00E94C21F01700D
:10354000D02F80E0C82FC12B34E0CC0FDD1F3A957F
:10355000E1F7D0930F02C0930E0284E190E00E9445
:10356000C23621E0C817D90708F020E0822F01C039
:1035700080E0DF91CF911F910F9108950F931F93DA
:10358000CF93DF9300D000D000D0CDB7DEB78091CD
:103590003002882309F447C38FE490E00E94C236CA
:1035A0004AE050E0BC0181E193E00E94D8318DE413
:1035B00090E00E94C2364AE050E0BC0181E193E015
:1035C0000E94D8318BE490E00E94C2364AE050E07D
:1035D000BC0181E193E00E94D8318AE490E00E942E
:1035E000B4364AE050E0682F81E193E00E94C13197
:1035F00089E490E00E94B4364AE050E0682F81E10F
:1036000093E00E94C13188E490E00E94B4364AE021
:1036100050E0682F81E193E00E94C1318091270240
:103620008F5F809327028091230290912402A091C2
:103630002502B09126020196A11DB11D809323029F
:1036400090932402A0932502B09326020E94ED01DC
:10365000811106C0809118028F5F8093180202C00A
:10366000109218020E94691A811106C080911E02F0
:103670008F5F80931E0202C010921E0280912C0266
:10368000882389F10E94B001811106C08091170240
:103690008F5F8093170202C0109217020E94AA0245
:1036A000811106C0809116028F5F8093160202C0BE
:1036B000109216020E946218811106C080911D02AC
:1036C0008F5F80931D0202C010921D0285E00E9450
:1036D0002A02811106C0809122028F5F809322020C
:1036E00002C01092220280912B028823C1F00E9416
:1036F000CA02811106C0809115028F5F8093150266
:1037000002C0109215020E948B19811106C080918F
:103710001C028F5F80931C0202C010921C028091D9
:103720002A02882339F181E00E945802811106C0E3
:10373000809114028F5F8093140202C010921402D1
:1037400081E00E946C16811106C080911B028F5F80
:1037500080931B0202C010921B0289E00E942A0281
:10376000811106C0809121028F5F8093210202C0E7
:103770001092210280912902882339F182E00E946F
:103780005802811106C0809113028F5F809313024B
:1037900002C01092130282E00E946C16811106C0D2
:1037A00080911A028F5F80931A0202C010921A024F
:1037B0008BE00E942A02811106C0809120028F5F57
:1037C0008093200202C01092200280912802882358
:1037D00039F183E00E945802811106C080911202E3
:1037E0008F5F8093120202C01092120283E00E9447
:1037F0006C16811106C0809119028F5F80931902A7
:1038000002C0109219028DE00E942A02811106C0A6
:1038100080911F028F5F80931F0202C010921F02CF
:103820008091100290911102019690931102809361
:10383000100210911E028BE390E00E94B43618171C
:1038400018F06DE871E00AC01091180282E490E06F
:103850000E94B4361817A0F062E971E0CE0101961B
:103860000E94F42ECE0101960E945B04CE010196C7
:103870000E94862E10921E02109218020E94F007DB
:1038800080912C02882309F441C01091220287E420
:1038900090E00E94B436181718F067E971E020C074
:1038A00010911D028AE390E00E94B436181718F0B8
:1038B0006CE971E015C01091170281E490E00E945C
:1038C000B436181718F061EA71E00AC010911602B8
:1038D00080E490E00E94B4361817C0F066EA71E008
:1038E000CE0101960E94F42ECE0101960E945B0447
:1038F000CE0101960E94862E10921D021092160291
:1039000010921702109222020E94B71880912B0287
:10391000882309F441C010911C0289E390E00E94C1
:10392000B4361817A8F068E871E0CE0101960E943D
:10393000F42ECE0101960E945B04CE0101960E94F6
:10394000862E10921C02109215020E94E01924C0CB
:10395000109115028FE390E00E94B4361817E0F042
:1039600063E871E0CE0101960E94F42ECE0101962B
:103970000E945B04CE0101960E94862E10921C02CA
:10398000109215020E94E019109206021092050290
:10399000109204021092030280912A028823E9F116
:1039A00010911B0288E390E00E94B436181718F0BB
:1039B00061E571E015C0109114028EE390E00E9461
:1039C000B436181718F06BE471E00AC010912102A8
:1039D00085E490E00E94B4361817F8F067E571E0CE
:1039E000CE0101960E94F42ECE0101960E945B0446
:1039F000CE0101960E94862E10921B021092140294
:103A00001092210281E00E94F71610920202109299
:103A10000102109200021092FF0180912902882376
:103A2000E9F110911A0287E390E00E94B43618176A
:103A300018F063E671E015C0109113028DE390E079
:103A40000E94B436181718F06DE571E00AC01091A5
:103A5000200284E490E00E94B4361817F8F069E67A
:103A600071E0CE0101960E94F42ECE0101960E94D3
:103A70005B04CE0101960E94862E10921A021092CB
:103A800013021092200282E00E94F7161092FE01AB
:103A90001092FD011092FC011092FB01809128020E
:103AA0008823E9F11091190286E390E00E94B43670
:103AB000181718F065E771E015C0109112028CE339
:103AC00090E00E94B436181718F06FE671E00AC053
:103AD00010911F0283E490E00E94B4361817F8F0AA
:103AE0006BE771E0CE0101960E94F42ECE010196A3
:103AF0000E945B04CE0101960E94862E109219024C
:103B00001092120210921F0283E00E94F716109288
:103B1000FA011092F9011092F8011092F701109138
:103B200027028CE590E00E94B436181720F010921E
:103B300027020E9476048091230290912402A09192
:103B40002502B091260280319E40A105B10554F0B6
:103B50001092230210922402109225021092260243
:103B60000E94EA02009110021091110287E590E094
:103B70000E94C2360817190708F453C010921102A8
:103B80001092100280912C02811107C089E090E010
:103B90000E94B43681110E94B71880912B028111C6
:103BA00007C088E090E00E94B43681110E94E019BD
:103BB00080912A0281110FC087E090E00E94B43604
:103BC000882349F08AE490E00E94B436882319F0F3
:103BD00081E00E94F7168091290281110FC086E0D2
:103BE00090E00E94B436882349F089E490E00E9476
:103BF000B436882319F082E00E94F71680912802DB
:103C000081110FC085E090E00E94B436882349F00E
:103C100088E490E00E94B436882319F083E00E9483
:103C2000F7161092300280912E028823A9F110928B
:103C30002E0280912F02813319F40E94BB072CC001
:103C400080912F02823319F40E94760425C080915E
:103C50002F02833319F40E94B7181EC080912F02DF
:103C6000843319F40E94E01917C080912F02853324
:103C700021F481E00E94F7160FC080912F02863355
:103C800021F482E00E94F71607C080912F0287334B
:103C900019F483E00E94F71626960FB6F894DEBF5B
:103CA0000FBECDBFDF91CF911F910F9108950E945C
:103CB000691A882361F00E94ED01811113C068E840
:103CC00073E180E090E00E94F7270C94ED0168EE2C
:103CD00073E080E090E00E94F7270E94691A81114A
:103CE000EACF089581E008950E948D1380E090E06E
:103CF0000E94B43681110E9419150E94571E81112D
:103D000002C080E008950E94B7188823D1F30E9472
:103D1000EA020E9400080E94D50E0E94E01981E08C
:103D20000895CF9388E10FB6F894809360001092C5
:103D300060000FBE0E94741E882351F081E00E9433
:103D4000F71682E00E94F71683E0CF910C94F716E5
:103D500081E090E00E94B436C1E0C80F6C2F81E092
:103D600090E00E94C83689E590E00E94B436C817FA
:103D700060F428E088E190E00FB6F894A89580936D
:103D800060000FBE20936000FFCF60E081E090E014
:103D90000E94C8366AE070E080E090E00E94F72759
:103DA000F89483B7816083BF889583B78E7F83BF84
:103DB000CF9108951F920F920FB60F9211242F9357
:103DC0003F934F935F936F937F938F939F93AF93A3
:103DD000BF93EF93FF9381E193E00E94E3288093E8
:103DE0002F0281E080932E02FF91EF91BF91AF915E
:103DF0009F918F917F916F915F914F913F912F9103
:103E00000F900FBE0F901F9018958091610290E067
:103E100020916202821B9109089520916202809193
:103E20006102281750F4E22FF0E0ED59FD4F808138
:103E300090E02F5F2093620208958FEF9FEF089527
:103E4000E091620280916102E81730F4F0E0ED59F0
:103E5000FD4F808190E008958FEF9FEF08950895C2
:103E6000CF92DF92EF92FF920F931F93CF93DF9346
:103E70007C01CB018A0120913D02222389F0EB01D4
:103E80006B01C40ED51ECC15DD0569F06991D70113
:103E9000ED91FC910190F081E02DC7010995F3CFE0
:103EA000642F0E949120C801DF91CF911F910F9143
:103EB000FF90EF90DF90CF900895CF93DF931F9204
:103EC000CDB7DEB7698320913D022223D1F0209146
:103ED0003E02203240F021E030E0FC0133832283B7
:103EE00080E090E015C080913F02E82FF0E0E05CB8
:103EF000FD4F998190838F5F80933F0280933E02B4
:103F000005C061E0CE0101960E94912081E090E021
:103F10000F90DF91CF910895FC011382128248EE39
:103F200053E060E070E044835583668377838FEAD3
:103F300091E0918380830895109262021092610251
:103F400010923F0210923E020C94DC1F862F4132E9
:103F500008F040E263E672E00E94FA1F10926202EB
:103F600080936102089521E00C94A61F81E0809364
:103F70003D026093600210923F0210923E0208954B
:103F80000C94B61F0F93062F21E040913E0260E48F
:103F900072E0809160020E943E2010923F021092D7
:103FA0003E0210923D020F91089561E00C94C21FF1
:103FB00081E392E00C948C1F1092F00281E08093D8
:103FC000EE021092ED0261E082E00E941F2761E0A4
:103FD00083E00E941F27E9EBF0E080818E7F8083E1
:103FE00080818D7F808388E48093B80085E480930E
:103FF000BC000895413208F03FC09091F002911149
:10400000FCCF91E09093F0022093EE022FEF2093EB
:1040100083021092C802240F2093C7029093EF02EC
:104020009091EF02880F892B8093EF028091ED022F
:10403000813041F41092ED028091EF028093BB0039
:1040400085EC01C085EE8093BC008091F002813048
:10405000E1F38091C802841710F44091C80229EC62
:1040600032E0FB01D9018A2F821B841718F48D914D
:104070008193F9CF842F089580E008950F93413202
:1040800008F046C09091F0029111FCCF92E090931D
:10409000F0020093EE029FEF909383021092C80209
:1040A0004093C702FB0169EC72E0DB019A2F961B7B
:1040B000941718F491919D93F9CF1092EF0290917B
:1040C000EF02880F892B8093EF028091ED028130FF
:1040D00041F41092ED028091EF028093BB0085ECD9
:1040E00001C085EE8093BC00222321F08091F00274
:1040F0008230E1F3809183028F3F61F080918302EF
:10410000803251F080918302803341F483E007C014
:1041100081E005C080E003C082E001C084E00F912F
:104120000895613298F42091F002243089F460936C
:10413000A502FC0187EA92E0DC012A2F281B261742
:1041400018F421912D93F9CF80E0089581E008952E
:1041500082E0089585ED8093BC008091BC0084FDD1
:10416000FCCF1092F002089585EC8093BC00109271
:10417000F00208951F920F920FB60F9211242F9301
:104180003F934F935F936F937F938F939F93AF93DF
:10419000BF93EF93FF938091B900887F803609F435
:1041A0009CC068F5883209F45BC090F4803109F452
:1041B00054C038F4882309F4F5C0883009F44DC0A0
:1041C000F5C0883109F44CC0803209F45DC0EEC0FE
:1041D000803409F468C048F4803309F455C088334A
:1041E00009F0E4C080938302A8C0803509F44FC071
:1041F000883509F45DC0883409F0D8C0D5C0883945
:1042000009F4C6C0A8F4883709F467C038F48836C2
:1042100009F463C0803709F460C0C8C0883809F465
:10422000B7C0803909F45FC0803809F0BFC05BC0F7
:10423000803B09F485C038F4803A09F466C0883AB6
:1042400009F47EC0B3C0803C09F4A6C0883C09F4E0
:10425000A3C0883B09F489C0A9C08091EF0210C0B7
:104260009091C8028091C702981770F5E091C8023A
:1042700081E08E0F8093C802F0E0E753FD4F80810C
:104280008093BB0085EC85C0809383028DC0E09154
:10429000C80281E08E0F8093C8028091BB00F0E0DD
:1042A000E753FD4F80839091C8028091C7026DC093
:1042B000E091C80281E08E0F8093C8028091BB001C
:1042C000F0E0E753FD4F80838091EE0281116CC0D6
:1042D00081E08093ED0284EA60C083E08093F00285
:1042E00010928402CFCF80918402803208F050C0B7
:1042F000E091840281E08E0F809384028091BB0064
:10430000F0E0EB57FD4F8083BDCF80918402803277
:1043100030F4E0918402F0E0EB57FD4F10820E94F0
:10432000AA206091840270E0E091E902F091EA0233
:1043300085E892E00995109284020E94B42036C06C
:1043400084E08093F0021092A6021092A502E09100
:10435000EB02F091EC0209958091A502811105C054
:1043600081E08093A5021092A702E091A60281E06D
:104370008E0F8093A602F0E0E955FD4F8081809377
:10438000BB009091A6028091A502981708F47ACFFD
:1043900085E88093BC000AC085EC8093BC00109235
:1043A000F00204C0109283020E94AA20FF91EF91B4
:1043B000BF91AF919F918F917F916F915F914F913D
:1043C0003F912F910F900FBE0F901F901895089559
:1043D00081E392E00E949C1F08950F931F93CB01ED
:1043E000A0E0B0E0BA2FA92F982F8827842BE7E10F
:1043F000F0E040E050E868E970E08C019D010E2E8D
:1044000004C036952795179507950A94D2F700FFB3
:1044100004C084279527A627B727769567955795D3
:1044200047953197E730F10541F71F910F910895B6
:10443000EF92FF920F931F93CF93DF937C0160E481
:1044400070E081E392E00E94C01F65EF70E081E3BD
:1044500092E00E94A90181E392E00E94D51F67E3E8
:1044600070E080E090E00E94F72743E050E060E4D5
:1044700070E081E392E00E94B31F05E610E081E363
:1044800092E00E94051F039774F461E070E080E001
:1044900090E00E94F7270150110989F760E070E869
:1044A00089E794E436C081E392E00E940D1F082F53
:1044B00081E392E00E940D1F182F81E392E00E9499
:1044C0000D1FD02F90E0C92FC12B482FBE01C7016F
:1044D0000E94ED21811119C0BE016C7F80E090E047
:1044E0000E94973220E030E040E857E30E942533F5
:1044F00020E030E04AEF52E40E94253320E030E033
:1045000040EC50E40E94013204C060E070EC89E7A6
:1045100094E4DF91CF911F910F91FF90EF90089558
:10452000EF92FF920F931F93CF93DF937C0160E490
:1045300070E081E392E00E94C01F63EF70E081E3CE
:1045400092E00E94A90181E392E00E94D51F67E3F7
:1045500070E080E090E00E94F72743E050E060E4E4
:1045600070E081E392E00E94B31F05E610E081E372
:1045700092E00E94051F039774F461E070E080E010
:1045800090E00E94F7270150110989F760E070E878
:1045900089E794E436C081E392E00E940D1F082F62
:1045A00081E392E00E940D1F182F81E392E00E94A8
:1045B0000D1FD02F90E0C92FC12B482FBE01C7017E
:1045C0000E94ED21811119C0BE016C7F80E090E056
:1045D0000E94973220E030E040E857E30E94253304
:1045E00022E538EB4FE253E40E94253326E636E617
:1045F0004BE352E40E94013204C060E070EC89E7B2
:1046000094E4DF91CF911F910F91FF90EF90089567
:104610006F927F928F929F92AF92BF92CF92DF92D2
:10462000EF92FF920F931F93CF93DF93EA012CE356
:10463000C22ED12CE12CF12CA70196010E94A833A7
:104640006883CA01B901A70196010E94A833698352
:10465000CA01B90128E130E040E050E00E94A833EF
:1046600049015A016A83CA01B9016C5F7F4F8F4FBC
:104670009F4F27E030E040E050E00E94A8336F5F9A
:104680006B8300E010E0980140E054E6652E712C49
:1046900060E9C62EDD24D394E42FF0E0EE54F84F09
:1046A0007F0183E0E822FF24E114F10489F4CF01C3
:1046B000B3010E949433892B29F08EE691E0A0E0AB
:1046C000B0E00AC0CF01B6010E949433892BA9F350
:1046D0008DE691E0A0E0B0E0080F191F2A1F3B1FF4
:1046E000D901C801AA27BB2788169906AA06BB06C6
:1046F00010F04F5FD1CF4E83E114F10499F4CF0154
:1047000064E670E00E949433892B29F08EE691E0F4
:10471000A0E0B0E00BC0CF0160E971E00E949433EB
:10472000892BA1F38DE691E0A0E0B0E0081B190B06
:104730002A0B3B0B801A910AA20AB30ACF0164E646
:1047400070E00E9494339C01CF0160E971E00E9407
:104750009433EBEBF1E0A0E0A13059F4E114F10463
:1047600051F42115310511F04DE106C00097E1F338
:1047700002C0408101C04CE150E060E070E084166E
:104780009506A606B70640F0841A950AA60AB70A47
:10479000AF5F3196AC3001F7AF5FAD8383948C820D
:1047A000DF91CF911F910F91FF90EF90DF90CF900D
:1047B000BF90AF909F908F907F906F9008956F9271
:1047C0007F928F929F92AF92BF92CF92DF92EF92A1
:1047D000FF920F931F93CF93DF93FC01C680AC2D04
:1047E000B0E020E833E341EE51E00E94DF334B01BB
:1047F0005C0122EB37E06D01C4E6D0E000E911E096
:10480000C901825B97408C159D05DCF4C90183705A
:104810009927892B99F4C901BE010E949433892BF1
:1048200031F4C901B8010E949433892B39F480E82E
:10483000880E81E5981E81E0A81EB11C2F5F3F4FB6
:10484000DFCF6580712C8EE4C81A88EFD80AC601C4
:1048500064E670E00E9494338C01C60160E971E067
:104860000E9494337C01C1E0D0E083E0C822DD24C3
:10487000C615D7052CF5C230D10589F4C114D10471
:1048800071F40115110519F4E114F10441F480E803
:10489000880E8BE3981E86E2A81EB11C0FC0DE01B5
:1048A000A654BE4FAC91B0E020E831E541E050E0C5
:1048B0000E94DF33860E971EA81EB91E2196D8CF00
:1048C0004181228130E0A0E1BEE00E94D0336B0143
:1048D0007C01242F30E0ACE3B0E00E94D033C60E60
:1048E000D71EE81EF91E8081C80ED11CE11CF11CE8
:1048F000A481B0E0119720E831E541E050E00E944A
:10490000EA33C60ED71EE81EF91EC80CD91CEA1CD5
:10491000FB1CC701B601DF91CF911F910F91FF9052
:10492000EF90DF90CF90BF90AF909F908F907F904F
:104930006F9008950F931F936093FD027093FE0292
:104940008093FF02909300030091060110910701EC
:104950002091080130910901060F171F281F391FE8
:104960000093F5021093F6022093F7023093F802B9
:1049700082E090E09093F4028093F3020E94C827B3
:104980006093F9027093FA028093FB029093FC0209
:104990001F910F910895CF92DF92EF92FF920F93A4
:1049A0001F930E94C827C090F902D090FA02E090AD
:1049B000FB02F090FC026C197D098E099F090091A1
:1049C000FD021091FE022091FF0230910003683E2B
:1049D000734081059105D8F00F5F1F4F2F4F3F4F58
:1049E0000093FD021093FE022093FF023093000318
:1049F00048EEC40E43E0D41EE11CF11CC092F90243
:104A0000D092FA02E092FB02F092FC02CACF8091AF
:104A1000F5029091F602A091F702B091F802081702
:104A200019072A073B07C8F1E091F102F091F20261
:104A3000309799F10995611571058105910519F076
:104A40000E949A242AC08091060190910701A091AA
:104A50000801B09109014091FD025091FE02609160
:104A6000FF0270910003840F951FA61FB71F80934C
:104A7000F5029093F602A093F702B093F80281E05A
:104A800090E02091F3023091F402232B11F480E0A6
:104A900090E09093F4028093F3026091FD02709194
:104AA000FE028091FF02909100031F910F91FF90F1
:104AB000EF90DF90CF900895EF92FF920F9394E6DE
:104AC000E916F1042CF092EBE91A97E0F90A03C019
:104AD0009EE1E90EF11CE092070300930603209388
:104AE000050380930303609302034093010381E075
:104AF00093E00E94DF230F91FF90EF900C949A2493
:104B0000982F92959F702AEF929F800D11240895FF
:104B100081E392E00C949C1F1F93CF93DF93EC01F1
:104B20006FE670E081E392E00E94C01F60E081E3E5
:104B300092E00E945D1F60E081E392E00E945D1FB1
:104B400029811AE0822F612F0E948833682F660F17
:104B5000680F660F620F81E392E00E945D1F2A8159
:104B6000822F612F0E948833682F660F680F660FAF
:104B7000620F81E392E00E945D1F8B818860682F45
:104B800070E081E392E00E94A9012C81822F612FC5
:104B90000E948833682F660F680F660F620F81E3EB
:104BA00092E00E945D1F2D81822F612F0E94883329
:104BB000682F660F680F660F620F81E392E00E9414
:104BC0005D1F2E812E51822F612F0E948833682F06
:104BD000660F680F660F620F81E392E00E945D1F0F
:104BE00081E392E00E94D51F6FE670E081E392E0DE
:104BF0000E94C01F60E081E392E00E945D1F288157
:104C0000822F612F0E948833682F660F680F660F0E
:104C1000620F606870E081E392E00E94A90181E385
:104C200092E0DF91CF911F910C94D51FCF93DF932A
:104C3000CDB7DEB727970FB6F894DEBF0FBECDBF56
:104C4000AE014F5F5F4F0E940823CE0101960E9484
:104C50008C2527960FB6F894DEBF0FBECDBFDF912F
:104C6000CF910895CF93DF93EC016FE670E081E37D
:104C700092E00E94C01F60E081E392E00E945D1F0D
:104C800081E392E00E94D51F81113EC047E050E0D1
:104C90006FE670E081E392E00E94B31F81E392E04F
:104CA0000E940D1F8F770E948025888381E392E008
:104CB0000E940D1F0E948025898381E392E00E945B
:104CC0000D1F8F7B0E9480258A8381E392E00E94E2
:104CD0000D1F877C8B8381E392E00E940D1F0E9451
:104CE00080258C8381E392E00E940D1F8F7D0E94BE
:104CF00080258D8381E392E00E940D1F0E94802514
:104D0000825E8E8381E001C080E0DF91CF910895C3
:104D1000CF93DF93CDB7DEB727970FB6F894DEBFFA
:104D20000FBECDBFCE0101960E943226882329F006
:104D3000CE0101960E94DF2303C060E070E0CB014A
:104D400027960FB6F894DEBF0FBECDBFDF91CF918F
:104D5000089590E0FC013197EF30F105B0F5EA5A83
:104D6000FF4F0C94CA33809180008F7703C08091ED
:104D700080008F7D80938000089580918000877FE0
:104D8000F9CF84B58F7702C084B58F7D84BD089537
:104D9000809190008F7707C0809190008F7D03C035
:104DA00080919000877F8093900008958091C0004B
:104DB0008F7703C08091C0008F7D8093C0000895DD
:104DC0008091C200877F8093C2000895CF93DF93C4
:104DD00090E0FC01EC50FF4F2491FC01EE5EFE4F91
:104DE0008491882349F190E0880F991FFC01E45BCE
:104DF000FE4FA591B491825C9E4FFC01C591D49168
:104E00009FB7611108C0F8948C91209582238C93F0
:104E1000888182230AC0623051F4F8948C91322F39
:104E2000309583238C938881822B888304C0F894E7
:104E30008C91822B8C939FBFDF91CF9108950F931C
:104E40001F93CF93DF931F92CDB7DEB7282F30E0AB
:104E5000F901EA52FF4F8491F901EC50FF4F149190
:104E6000F901EE5EFE4F04910023C9F0882321F082
:104E700069830E94A9266981E02FF0E0EE0FFF1FF1
:104E8000E25CFE4FA591B4919FB7F8948C916111AB
:104E900003C01095812301C0812B8C939FBF0F907D
:104EA000DF91CF911F910F910895CF93DF93282F1A
:104EB00030E0F901EA52FF4F8491F901EC50FF4FC5
:104EC000D491F901EE5EFE4FC491CC2391F0811193
:104ED0000E94A926EC2FF0E0EE0FFF1FE05DFE4FD1
:104EE000A591B4912C912D2381E090E021F480E0F4
:104EF00002C080E090E0DF91CF9108951F920F9261
:104F00000FB60F9211242F933F938F939F93AF93DC
:104F1000BF938091090390910A03A0910B03B09174
:104F20000C033091080323E0230F2D3720F4019662
:104F3000A11DB11D05C026E8230F0296A11DB11DBC
:104F4000209308038093090390930A03A0930B0313
:104F5000B0930C0380910D0390910E03A0910F0369
:104F6000B09110030196A11DB11D80930D03909384
:104F70000E03A0930F03B0931003BF91AF919F91C5
:104F80008F913F912F910F900FBE0F901F9018950A
:104F90002FB7F8946091090370910A0380910B0375
:104FA00090910C032FBF08953FB7F89480910D03A3
:104FB00090910E03A0910F03B091100326B5A89B0A
:104FC00005C02F3F19F00196A11DB11D3FBF6627F7
:104FD000782F892F9A2F620F711D811D911D42E03C
:104FE000660F771F881F991F4A95D1F70895CF92B2
:104FF000DF92EF92FF92CF93DF936B017C010E94CF
:10500000D427EB01C114D104E104F10489F00E941A
:1050100000320E94D4276C1B7D0B683E734090F3D6
:1050200081E0C81AD108E108F108C851DC4FEACF85
:10503000DF91CF91FF90EF90DF90CF90089578941B
:1050400084B5826084BD84B5816084BD85B582608D
:1050500085BD85B5816085BDEEE6F0E0808181602B
:105060008083E1E8F0E0108280818260808380812B
:1050700081608083E0E8F0E0808181608083E1E905
:10508000F0E0808182608083808181608083E0E9BC
:10509000F0E0808181608083E1ECF0E080818460D9
:1050A0008083808182608083808181608083E3EC63
:1050B000F0E0808181608083E0ECF0E080818260BC
:1050C0008083E2ECF0E0808181608083EAE7F0E0B9
:1050D0008081846080838081826080838081816020
:1050E0008083808180688083089580930A01089579
:1050F000823108F08251E82FF0E0E653FF4FE4914F
:1051000080917B00E3FB222720F930E095E0220F1D
:10511000331F9A95E1F78F7D822B80937B00E77098
:1051200080910A0120E4829FC0011124E82BE093C2
:105130007C0080917A00806480937A0080917A006C
:1051400086FDFCCF809178002091790090E0922B31
:105150000895CF93DF931F92CDB7DEB76983DC014B
:10516000ED91FC910280F381E02D41E050E0BE0121
:105170006F5F7F4F09950F90DF91CF910895CF9387
:10518000DF93EC018C859D8597FF05C082E00E942E
:105190005A2A9D878C878C859D85DF91CF910895B4
:1051A00083E00C94AF2CFC018485958597FD06C0A7
:1051B00082E00E94022A90E00196089582E00E9417
:1051C000022A90E00895FC018485958597FD05C02D
:1051D0002FEF3FEF35872487089582E00C945A2AF9
:1051E000CF93DF93EC0180911201882331F083E0AB
:1051F0000E948B2A1816190634F081E090E09B83F8
:105200008A8380E090E0DF91CF910895FC012081B6
:105210002E5F208342E450E06AE571E080E80C9460
:10522000262BFC0181819081913A59F4813209F059
:105230003CC047E050E06BE071E080E00E94262B2C
:1052400043C0913291F5803239F467E070E08BE031
:1052500091E00E94572B06C0823209F035C082814E
:105260008093120180910B0190910C01A0910D018E
:10527000B0910E01803B9440A105B105C1F480912D
:10528000120180FD14C087E797E79093010880938F
:1052900000082BE088E190E00FB6F894A895809381
:1052A00060000FBE209360000FC080E0089588E189
:1052B0000FB6F89480936000109260000FBEA8951E
:1052C000109201081092000881E008952FEF3FEF3F
:1052D000FC0135872487089510921403109213035C
:1052E00088EE93E0A0E0B0E080931503909316035E
:1052F000A0931703B09318038BEC91E090931203E3
:10530000809311038FEF9FEF90931E0380931D03F3
:105310000895409165035091660320916303309195
:10532000640342175307B4F49091E8009570E1F3D9
:105330009091E80092FD19C08093F100809165037F
:105340009091660301968F739927892B19F48EEF3C
:105350008093E80080916503909166030196909395
:1053600066038093650381E0089580E00895CF92FD
:10537000DF92FF920F931F93CF93DF931F92CDB7CE
:10538000DEB7082F162F862F880F8E5F99830E9415
:10539000892983E00E948929F02EC02E9981D92E77
:1053A0008C2D8F19811778F4F60184910E94892938
:1053B000082F80E00E9489298023FFEFCF1ADF0A9F
:1053C0008111EECF01C081E00F90DF91CF911F914D
:1053D0000F91FF90DF90CF900895615030F02091B1
:1053E000F100FC0120830196F8CF289A84E680938F
:1053F000680308952FB7FC012083F89467706093C9
:10540000E9000895CF93DF931F92CDB7DEB7682FE1
:10541000CE0101960E94FA298091F20099819FBFE6
:105420000F90DF91CF910895FF920F931F93CF9329
:10543000DF9300D0CDB7DEB7F62E8A0190916703D7
:10544000992311F057FF03C08FEF9FEF2BC0682FF8
:10545000CE0101967A830E94FA298091F20090E0B1
:10546000A8017A81801791070CF4AC01EF2DF72F7A
:10547000F40E84E6FE1639F0289A80936803909122
:10548000F1009193F7CF4115510521F08091F20081
:10549000882321F089818FBFCA0104C08BE68093E5
:1054A000E800F8CF0F900F90DF91CF911F910F91EF
:1054B000FF900895CF93DF931F92CDB7DEB741E001
:1054C00050E0BE016F5F7F4F0E94142A019719F4CC
:1054D000898190E002C08FEF9FEF0F90DF91CF9115
:1054E0000895CF93DF931F92CDB7DEB7682FCE011B
:1054F00001960E94FA299091E800892F807295FF09
:1055000004C09091F20080E4891B99819FBF0F90A5
:10551000DF91CF9108956F927F928F929F92AF9279
:10552000BF92CF92DF92EF92FF920F931F93CF9390
:10553000DF931F92CDB7DEB7782E7B01C42EB52E38
:1055400080916703882369F0042F152F8AEFD82EE6
:10555000872D8072982E9AE3A92E872D8074882E2D
:1055600011C08FEF9FEF57C0872D0E94712A682EC0
:1055700081110CC0DA94A9F361E070E080E090E062
:105580000E94F7270115110579F73BC0282F30E05D
:10559000021713070CF4602E672DCE0101960E94AE
:1055A000FA298091E80085FF29C0262D30E0021BF2
:1055B000130B992039F06A948FEF6816B1F01092AE
:1055C000F100F9CFF701862D77FE07C0815058F022
:1055D00094919093F1003196F9CF815020F0919100
:1055E0009093F100FACFE20EF31E8091E80085FF60
:1055F0000FC00115110511F481100AC089818FBFF8
:10560000C1CF5D9A84E6809369038C2D9B2D03C0E6
:10561000A092E800F3CF0F90DF91CF911F910F91EF
:10562000FF90EF90DF90CF90BF90AF909F908F90C2
:105630007F906F9008951092E90010926603109287
:10564000650390936403809363030895CF92DF9280
:10565000FF920F931F93CF93DF9300D0CDB7DEB7A8
:10566000F82E8A016B0101151105B1F0F601F7FE64
:1056700002C0849101C0808149835A830E94892994
:1056800001501109FFEFCF1ADF0A49815A818111B8
:10569000EACF8FEF9FEF01C0CA010F900F90DF910B
:1056A000CF911F910F91FF90DF90CF9008951F939E
:1056B000CF93DF931F92CDB7DEB7162F2091E8006E
:1056C00022FFFCCF612F79830E94ED298BEF80931D
:1056D000E800812F7981972F0F90DF91CF911F9153
:1056E0000895CF93DF931F92CDB7DEB71982CE0115
:1056F00001960E940629CE0101960E944D2D8981B6
:1057000090E00F90DF91CF9108951F920F920FB606
:105710000F921124EF92FF920F931F932F933F93B9
:105720004F935F936F937F938F939F93AF93BF93A9
:10573000EF93FF93CF93DF93CDB7DEB76297DEBFD2
:10574000CDBF1092E9008091E80083FFEBC068E0D4
:10575000CE010A960E94ED2982EF8093E8009A8597
:1057600097FF05C08091E80080FFFCCF03C08EEF5B
:105770008093E800892F807609F0B9C08B8581116C
:1057800005C01092F1001092F100C5C0282F2D7FA6
:10579000213009F4C0C0853049F48091E80080FFD1
:1057A000FCCF8C8580688093E300B5C0863009F01B
:1057B00076C02D85E888F988223071F580E090E088
:1057C0002A8B0E941B2B0E94712B99E08E010F5F88
:1057D0001F4FF801392F11923A95E9F799832A89D9
:1057E0002A8391E09E8390E898879AEF9987209189
:1057F000650330916603275F3F4F3C832B838D8386
:10580000C7010E941B2B49E050E0B80180E00E94D4
:10581000262B0E94712B7FC0C7012A8B0E941B2B55
:105820002A89223241F482E290E00E94582D892B8D
:1058300009F071C074C0213069F48889998908978A
:1058400011F42093620380916203811118C063EB0D
:1058500071E01AC0233009F062C08C85882391F072
:10586000823021F46DE081ED91E006C0813009F0D5
:1058700056C06BE085EC91E00E94B7294AC061EA0E
:1058800071E002C06FED71E06115710509F447C068
:10589000FB01449150E080E80E94262B3CC08730F9
:1058A00009F43DC0883021F481E08093F10033C0D9
:1058B000893089F5937099F5EDE9F1E081E021E017
:1058C00096E38093E9002093EB0034913093EC0051
:1058D0009093ED008F5F3196853099F78EE7809336
:1058E000EA001092EA008C858093670314C08889CF
:1058F00099890E941B2B8E85811105C0CE010A96C5
:105900000E94112906C0823051F4CE010A960E94ED
:10591000802D882321F08EEF8093E80003C081E280
:105920008093EB0062960FB6F894DEBF0FBECDBF3A
:10593000DF91CF91FF91EF91BF91AF919F918F91A7
:105940007F916F915F914F913F912F911F910F9197
:10595000FF90EF900F900FBE0F901F9018958093BF
:10596000E9008091F200882319F08AE38093E8002F
:1059700008951F920F920FB60F9211242F933F9309
:105980004F935F936F937F938F939F93AF93BF9347
:10599000EF93FF938091E1001092E10083FF0FC02D
:1059A0001092E90091E09093EB001092EC0092E3EA
:1059B0009093ED001092670398E09093F00082FFBF
:1059C0001DC083E00E94AF2C80916903882339F0C9
:1059D00080916903815080936903882369F08091E5
:1059E0006803882359F0809168038150809368038D
:1059F000811104C0289802C05D98F1CFFF91EF910A
:105A0000BF91AF919F918F917F916F915F914F91D6
:105A10003F912F910F900FBE0F901F9018951092ED
:105A2000670381E08093D70080EA8093D80082E109
:105A300089BD09B400FEFDCF61E070E080E090E038
:105A40000E94F72780E98093D8008CE08093E200E1
:105A50001092E000559A209A5D9828980895FF9238
:105A60000F931F93CF93DF93EC01F62EE881F9811A
:105A70000480F581E02D09958C01E881F98106808B
:105A8000F781E02D6F2DCE010995C8019927DF918F
:105A9000CF911F910F91FF900895FC0120812F5FFE
:105AA000208349E150E063E672E080E80C94262B05
:105AB00045E650E06CE772E080E80C94262BEF920C
:105AC000FF920F931F93CF93DF931F92CDB7DEB753
:105AD00089838B017A0141E050E0BE016F5F7F4F07
