:100000000C9476010C942B020C949E010C949E018E
:100010000C949E010C949E010C949E010C949E01E4
:100020000C949E010C949E010C9414260C94E024D4
:100030000C949E010C949E010C949E010C949E01C4
:100040000C949E010C949E010C949E010C949E01B4
:100050000C941B020C949E010C949E010C94D920CC
:100060000C949E010C9453110C949E010C949E01CF
:100070000C949E010C949E010C949E010C949E0184
:100080000C949E010C949E010C949E010C949E0174
:100090000C94161A0C949E010C949E010C949E01D3
:1000A0000C949E010C949E010C949E011C201F2018
:1000B0000E201220182040204020402023202720FE
:1000C0002B203120352040203B200706050401006D
:1000D000080A0B0C0D090000000200090F000003C4
:1000E0000401000C000000000000000000000000FF
:1000F00000000000040802011040804010204080F1
:10010000408008020401804020100201108010206D
:100110004040040404040403040502020202040330
:100120000202020206060606060604040202020491
:10013000000000002300260029002C002F000000F2
:100140000000250028002B002E00310000000000D8
:10015000240027002A002D003000080B00020202B4
:100160000100090400000102020000052400100142
:1001700005240101010424020605240600010705E7
:10018000810310004009040100020A000000070575
:1001900002024000000705830240000000C1808188
:1001A000C11201000202000040412337800001011A
:1001B00002000112010002000000404123378000CC
:1001C000010102000141726475696E6F204C4C435D
:1001D0000041726475696E6F204D6963726F00042F
:1001E00003090400000000000000002A2B28000082
:1001F00000000000000000000000000000000000FF
:100200000000002C9EB4A0A1A2A434A6A7A5AE36DF
:100210002D3738271E1F20212223242526B333B64D
:100220002EB7B89F8485868788898A8B8C8D8E8F20
:10023000909192939495969798999A9B9C9D2F3123
:1002400030A3AD350405060708090A0B0C0D0E0F87
:10025000101112131415161718191A1B1C1DAFB103
:10026000B0B50009040200010300000009210101EA
:100270000001226500070584034000010501090211
:10028000A1010901A1008501050919012903150032
:10029000250195037501810295017505810305010D
:1002A0000930093109381581257F750895038106C4
:1002B000C0C005010906A1018502050719E029E76B
:1002C00015002501750195088102950175088103C6
:1002D0009506750815002565050719002965810033
:1002E000C0004F114219E31EC722C02711241FBEB0
:1002F000CFEFDAE0DEBFCDBF12E0A0E0B1E0E2EF89
:10030000FFE502C005900D92A634B107D9F728E0A9
:10031000A6E4B2E001C01D92A530B207E1F712E0F9
:10032000CCEED2E004C02297FE010E94C42CC23E53
:10033000D107C9F70E94CE270C94F72F0C94000028
:10034000DC01ED91FC910190F081E02D0994CF93B7
:10035000DF93CDB7DEB762970FB6F894DEBF0FBE5E
:10036000CDBF67E372E0CE010D960E944F2860E496
:100370008AE997E00E940C2A6AE070E080E090E051
:100380000E9452210E94E31FAB01BC012AE0CE0172
:1003900007960E949D28BE01695F7F4FCE0101969E
:1003A0000E947C286CE2CE0101960E941029BC01BB
:1003B000CE010D960E94F628CE0101960E94E127FB
:1003C000CE0107960E94E127CE010D960E94E127FB
:1003D00062960FB6F894DEBF0FBECDBFDF91CF910E
:1003E000089568E28AE997E00E940C2A6AE070E0CA
:1003F00080E090E00E9452210E94E31FAB01BC010B
:100400002AE030E08AE997E00C94E62ACF93DF9364
:10041000EC0163E28AE997E00E940C2A6AE070E04E
:1004200080E090E00E945221BE018AE997E0DF91CE
:10043000CF910C94E8291F920F920FB60F921124BE
:100440008F93A89581E080935E028F910F900FBEED
:100450000F901F9018951F920F920FB60F921124B4
:100460008F931DBA81E0809346028F910F900FBE4B
:100470000F901F901895CF93DF938230C1F0833097
:1004800049F18130C9F584E10E94D321EC0181E278
:1004900090E00E94762F8C179D0770F58FE190E019
:1004A0000E94762FC817D90738F581E026C085E16C
:1004B0000E94D321EC018DE190E00E94762F8C17F1
:1004C0009D07D0F48BE190E00E94762FC817D907E2
:1004D00060F312C086E10E94D321EC0189E190E033
:1004E0000E94762F8C179D0738F487E190E00E94D8
:1004F000762FC817D907C8F280E0DF91CF91089511
:1005000078942FE088E190E00FB6F894A895809356
:1005100060000FBE2093600010928000E1E8F0E0E0
:100520001082109282001092850010928400109226
:1005300089001092880010928B0010928A0010920D
:100540008D0010928C001092870010928600AFE60A
:10055000B0E01C9281E08C9384E080838FE592E090
:100560000E94091983E590E00E94702FAB01BC0145
:100570008AE997E00E94C12260E083E090E00E9457
:100580007C2F60E081E090E00E947C2F60E082E0C0
:1005900090E00E947C2F81E00E94D02187E10E94A0
:1005A000D32187E10E94D32187E10E94D32182E1F8
:1005B0000E94D32182E10E94D32182E10E94D321B3
:1005C00083E10E94D32183E10E94D32183E10E9431
:1005D000D32184E10E94D32184E10E94D32184E1CC
:1005E0000E94D32185E10E94D32185E10E94D3217D
:1005F00085E10E94D32186E10E94D32186E10E94F9
:10060000D32186E10E94D3218BE592E00E94441B16
:1006100060E670E08FE592E00E942A1964E070E0E5
:100620008FE592E00E94A00160E070E08FE592E02B
:100630000E94A00160E070E08FE592E00E94A001BE
:1006400062E070E08FE592E00E94A00161E08FE53A
:1006500092E00E942C1962E670E08FE592E00E9421
:100660002A1964E070E08FE592E00E94A00160E04A
:1006700070E08FE592E00E94A00160E070E08FE5FD
:1006800092E00E94A00162E070E08FE592E00E949B
:10069000A00161E08FE592E00E942C1963E670E012
:1006A0008FE592E00E942A1964E070E08FE592E005
:1006B0000E94A00160E070E08FE592E00E94A0013E
:1006C00060E070E08FE592E00E94A00162E070E0DF
:1006D0008FE592E00E94A00161E08FE592E00E9428
:1006E0002C1968E670E08FE592E00E942A1964E018
:1006F00070E08FE592E00E94A00160E070E08FE57D
:1007000092E00E94A00160E070E08FE592E00E941C
:10071000A00162E070E08FE592E00E94A00161E03C
:100720008FE592E00E942C196AE670E08FE592E076
:100730000E942A1964E070E08FE592E00E94A00117
:1007400060E070E08FE592E00E94A00160E070E060
:100750008FE592E00E94A00162E070E08FE592E0F8
:100760000E94A00161E08FE592E00E942C196BE6E7
:1007700070E08FE592E00E942A1964E070E08FE556
:1007800092E00E94A00160E070E08FE592E00E949C
:10079000A00160E070E08FE592E00E94A00162E0BD
:1007A00070E08FE592E00E94A00161E08FE592E0A9
:1007B0000E942C1961E084E00E94412061E086E003
:1007C0000E94412061E088E00E94412061E08AE0CF
:1007D0000E94412061E08CE00E94412060E085E0C1
:1007E0000E94412060E087E00E94412060E089E0B3
:1007F0000E94412060E08BE00E94412060E08DE09B
:100800000C94412040E051EE60E070E083E590E020
:100810000E948E2F68EC70E081E590E00E949A2F94
:100820006EE180E590E00E947C2F63E08FE490E031
:100830000E947C2F63E08EE490E00E947C2F6AE0AF
:1008400070E08CE490E00E949A2F65E08BE490E0E9
:100850000E947C2F6AE070E089E490E00E949A2F69
:100860006AE070E087E490E00E949A2F6AE070E00E
:1008700087E490E00E949A2F61E084E490E00E9477
:100880007C2F61E083E490E00E947C2F61E082E4B1
:1008900090E00E947C2F65E081E490E00E947C2F34
:1008A00065E080E490E00E947C2F65E08FE390E0BB
:1008B0000E947C2F65E08EE390E00E947C2F65E033
:1008C0008DE390E00E947C2F65E08CE390E00E9435
:1008D0007C2F65E08BE390E00E947C2F65E08AE34B
:1008E00090E00E947C2F65E089E390E00E947C2FDD
:1008F00065E088E390E00E947C2F65E087E390E06C
:100900000E947C2F6FE170E085E390E00E949A2FB7
:1009100065E084E390E00E947C2F65E083E390E053
:100920000E947C2F65E082E390E00E947C2F65E0CE
:1009300081E390E00E947C2F65E080E390E00E94DC
:100940007C2F65E08FE290E00E947C2F60E070E0F9
:100950008DE290E00E949A2F64E670E08BE290E0D6
:100960000E949A2F60E070E089E290E00E949A2F46
:1009700064E670E087E290E00E949A2F61EA71E0FD
:1009800085E290E00E949A2F69EC73E083E290E0A8
:100990000E949A2F61EA71E081E290E00E949A2F12
:1009A00069EC73E08FE190E00E949A2F61EA71E0B8
:1009B0008DE190E00E949A2F69EC73E08BE190E06A
:1009C0000E949A2F61EA71E089E190E00E949A2FDB
:1009D00069EC73E087E190E00E949A2F60E086E185
:1009E00090E00E947C2F64E685E190E00E947C2FDD
:1009F00060E971E083E190E00E949A2F60EA7FE075
:100A000081E190E00E949A2F6CED75E08FE090E01C
:100A10000E949A2F60EA7FE08DE090E00E949A2F7A
:100A200060EA7FE08BE090E00E949A2F60EA7FE02E
:100A300089E090E00E949A2F60E080E090E00C94C2
:100A40007C2FCF92DF92EF92FF92CF93DF938BE5D3
:100A500092E00E94EB1B0E945E2BEB018BE592E083
:100A60000E94731B6B017C018DE290E00E94762F47
:100A70008C179D07E4F48BE290E00E94762FC81754
:100A8000D907ACF4C701B6010E94632BC62F86E1DB
:100A900090E00E94682F8C1750F485E190E00E944E
:100AA000682F91E0C81708F090E0892F01C080E01E
:100AB000DF91CF91FF90EF90DF90CF900895CF938B
:100AC000DF938BE592E00E94EB1B0E945E2BEB0113
:100AD00089E290E00E94762F8C179D075CF487E2F4
:100AE00090E00E94762F21E0C817D9070CF020E093
:100AF000822F01C080E0DF91CF910895CF93DF93E3
:100B0000C82F0E94B020D82F64E170E080E090E010
:100B10000E9452218C2F0E94B020D81318C062E08E
:100B200070E080E090E00E9452218C2F0E94B02063
:100B3000D82F64E170E080E090E00E9452218C2F79
:100B40000E94B02091E0D81303C090E001C091E072
:100B5000892FDF91CF9108954F925F926F927F928C
:100B60008F929F92AF92BF92CF92DF92EF92FF92BD
:100B70000F931F93CF93DF93CDB7DEB7E2970FB6F6
:100B8000F894DEBF0FBECDBF6AE28AE997E00E940B
:100B90000C2A67E372E0CE0185960E944F2841E25D
:100BA0006AE977E0CE0101960E946929BE016F5F74
:100BB0007F4FCE0185960E946528CE0101960E9446
:100BC000E12789A59AA5892B09F40CC167E372E096
:100BD000CE014F960E944F2867E372E0CE014996FE
:100BE0000E944F2867E372E0CE0143960E944F288F
:100BF00067E372E0CE010D960E944F2867E372E032
:100C0000CE0107960E944F2867E372E0CE0101965D
:100C10000E944F28E12CF12C8701B701CE01859667
:100C20000E941E29FC012081C70101967C012C3203
:100C300061F0B801CE0185960E941E29FC016081F9
:100C4000CE014F960E94FD28E7CF8701B701CE0164
:100C500085960E941E29FC012081C70101967C0116
:100C60002C3261F0B801CE0185960E941E29FC014C
:100C70006081CE0149960E94FD28E7CF8701B70128
:100C8000CE0185960E941E29FC012081C701019694
:100C90007C012C3261F0B801CE0185960E941E299C
:100CA000FC016081CE0143960E94FD28E7CF8701B9
:100CB000B701CE0185960E941E29FC012081C70143
:100CC00001967C012C3261F0B801CE0185960E941C
:100CD0001E29FC016081CE010D960E94FD28E7CF00
:100CE0008701B701CE0185960E941E29FC01208153
:100CF000C70101962C3269F07C01B801CE018596BE
:100D00000E941E29FC016081CE0107960E94FD28E9
:100D1000E7CF7C018701B701CE0185960E941E298D
:100D2000FC0180818C3279F0FFEFEF1AFF0AB801E5
:100D3000CE0185960E941E29FC016081CE0101969C
:100D40000E94FD28E7CFCE014F960E9430296B010B
:100D50007C01CE0149960E9430292B013C01CE0135
:100D600043960E9430299B01AC01CE0101962FA72A
:100D700038AB49AB5AAB0E9430296BA77CA78DA733
:100D80009EA7CE0107960E9430294B015C01CE013F
:100D90000D960E943029DC01CB01760182012FA53E
:100DA00038A94BA55CA5B4010E94B71E0E94261E5F
:100DB0000E94711FCE0101960E94E127CE01079685
:100DC0000E94E127CE010D960E94E127CE014396B5
:100DD0000E94E127CE0149960E94E127CE014F965D
:100DE0000E94E127CE0185960E94E127E2960FB688
:100DF000F894DEBF0FBECDBFDF91CF911F910F9151
:100E0000FF90EF90DF90CF90BF90AF909F908F902A
:100E10007F906F905F904F900895CF93C82F6BE4B1
:100E200071E08AE997E00E94FA296AE070E080E0C8
:100E300090E00E94522160E08C2F0E947A2064E6AC
:100E400070E080E090E00E94522161E08C2FCF9111
:100E50000C947A20EF92FF920F931F93CF93DF931E
:100E6000CDB7DEB7C85AD1090FB6F894DEBF0FBEB2
:100E7000CDBF64E28AE997E00E940C2A67E372E042
:100E8000CE018D559F4F0E944F2841E26AE977E0DD
:100E9000CE0101960E946929BE016F5F7F4FCE018E
:100EA0008D559F4F0E946528CE0101960E94E12733
:100EB000C955DF4F88819981C75AD040892B09F4E1
:100EC00003C567E372E0CE0183569F4F0E944F280F
:100ED00067E372E0CE0189569F4F0E944F2867E377
:100EE00072E0CE018F569F4F0E944F2867E372E059
:100EF000CE0185579F4F0E944F2867E372E0CE01D5
:100F00008B579F4F0E944F2867E372E0CE018158B4
:100F10009F4F0E944F2867E372E0CE0187589F4F92
:100F20000E944F2867E372E0CE018D589F4F0E94C8
:100F30004F2867E372E0CE0183599F4F0E944F28EC
:100F400067E372E0CE0189599F4F0E944F2867E303
:100F500072E0CE018F599F4F0E944F2867E372E0E5
:100F6000CE01855A9F4F0E944F2867E372E0CE0161
:100F70008B5A9F4F0E944F2867E372E0CE01815B3E
:100F80009F4F0E944F2867E372E0CE01875B9F4F1F
:100F90000E944F2867E372E0CE018D5B9F4F0E9455
:100FA0004F2867E372E0CE01CD960E944F2867E399
:100FB00072E0CE01C7960E944F2867E372E0CE012F
:100FC000C1960E944F2867E372E0CE018B960E9483
:100FD0004F2867E372E0CE0185960E944F2867E3B1
:100FE00072E0CE014F960E944F2867E372E0CE0177
:100FF00049960E944F2867E372E0CE0143960E9413
:101000004F2867E372E0CE010D960E944F2867E3F8
:1010100072E0CE0107960E944F2867E372E0CE018E
:1010200001960E944F28E12CF12C8701B701CE01D7
:101030008D559F4F0E941E29FC012081C7010196FA
:101040007C012C3271F0B801CE018D559F4F0E946A
:101050001E29FC016081CE0183569F4F0E94FD280E
:10106000E4CF8701B701CE018D559F4F0E941E2905
:10107000FC012081C70101967C012C3271F0B8017E
:10108000CE018D559F4F0E941E29FC016081CE012B
:1010900089569F4F0E94FD28E4CF8701B701CE01FA
:1010A0008D559F4F0E941E29FC012081C70101968A
:1010B0007C012C3271F0B801CE018D559F4F0E94FA
:1010C0001E29FC016081CE018F569F4F0E94FD2892
:1010D000E4CF8701B701CE018D559F4F0E941E2995
:1010E000FC012081C70101967C012C3271F0B8010E
:1010F000CE018D559F4F0E941E29FC016081CE01BB
:1011000085579F4F0E94FD28E4CF8701B701CE018C
:101110008D559F4F0E941E29FC012081C701019619
:101120007C012C3271F0B801CE018D559F4F0E9489
:101130001E29FC016081CE018B579F4F0E94FD2824
:10114000E4CF8701B701CE018D559F4F0E941E2924
:10115000FC012081C70101967C012C3271F0B8019D
:10116000CE018D559F4F0E941E29FC016081CE014A
:1011700081589F4F0E94FD28E4CF8701B701CE011F
:101180008D559F4F0E941E29FC012081C7010196A9
:101190007C012C3271F0B801CE018D559F4F0E9419
:1011A0001E29FC016081CE0187589F4F0E94FD28B7
:1011B000E4CF8701B701CE018D559F4F0E941E29B4
:1011C000FC012081C70101967C012C3271F0B8012D
:1011D000CE018D559F4F0E941E29FC016081CE01DA
:1011E0008D589F4F0E94FD28E4CF8701B701CE01A3
:1011F0008D559F4F0E941E29FC012081C701019639
:101200007C012C3271F0B801CE018D559F4F0E94A8
:101210001E29FC016081CE0183599F4F0E94FD2849
:10122000E4CF8701B701CE018D559F4F0E941E2943
:10123000FC012081C70101967C012C3271F0B801BC
:10124000CE018D559F4F0E941E29FC016081CE0169
:1012500089599F4F0E94FD28E4CF8701B701CE0135
:101260008D559F4F0E941E29FC012081C7010196C8
:101270007C012C3271F0B801CE018D559F4F0E9438
:101280001E29FC016081CE018F599F4F0E94FD28CD
:10129000E4CF8701B701CE018D559F4F0E941E29D3
:1012A000FC012081C70101967C012C3271F0B8014C
:1012B000CE018D559F4F0E941E29FC016081CE01F9
:1012C000855A9F4F0E94FD28E4CF8701B701CE01C8
:1012D0008D559F4F0E941E29FC012081C701019658
:1012E0007C012C3271F0B801CE018D559F4F0E94C8
:1012F0001E29FC016081CE018B5A9F4F0E94FD2860
:10130000E4CF8701B701CE018D559F4F0E941E2962
:10131000FC012081C70101967C012C3271F0B801DB
:10132000CE018D559F4F0E941E29FC016081CE0188
:10133000815B9F4F0E94FD28E4CF8701B701CE015A
:101340008D559F4F0E941E29FC012081C7010196E7
:101350007C012C3271F0B801CE018D559F4F0E9457
:101360001E29FC016081CE01875B9F4F0E94FD28F2
:10137000E4CF8701B701CE018D559F4F0E941E29F2
:10138000FC012081C70101967C012C3271F0B8016B
:10139000CE018D559F4F0E941E29FC016081CE0118
:1013A0008D5B9F4F0E94FD28E4CF8701B701CE01DE
:1013B0008D559F4F0E941E29FC012081C701019677
:1013C0007C012C3269F0B801CE018D559F4F0E94EF
:1013D0001E29FC016081CE01CD960E94FD28E5CF3B
:1013E0008701B701CE018D559F4F0E941E29FC0138
:1013F0002081C70101967C012C3269F0B801CE0131
:101400008D559F4F0E941E29FC016081CE01C79619
:101410000E94FD28E5CF8701B701CE018D559F4F72
:101420000E941E29FC012081C70101967C012C32FB
:1014300069F0B801CE018D559F4F0E941E29FC0115
:101440006081CE01C1960E94FD28E5CF8701B701DA
:10145000CE018D559F4F0E941E29FC012081C7019E
:1014600001967C012C3269F0B801CE018D559F4F59
:101470000E941E29FC016081CE018B960E94FD28EE
:10148000E5CF8701B701CE018D559F4F0E941E29E0
:10149000FC012081C70101967C012C3269F0B80162
:1014A000CE018D559F4F0E941E29FC016081CE0107
:1014B00085960E94FD28E5CF8701B701CE018D55A5
:1014C0009F4F0E941E29FC012081C70101967C01CB
:1014D0002C3269F0B801CE018D559F4F0E941E2914
:1014E000FC016081CE014F960E94FD28E5CF870167
:1014F000B701CE018D559F4F0E941E29FC0120810E
:10150000C70101967C012C3269F0B801CE018D55DE
:101510009F4F0E941E29FC016081CE0149960E94C6
:10152000FD28E5CF8701B701CE018D559F4F0E9461
:101530001E29FC012081C70101967C012C3269F033
:10154000B801CE018D559F4F0E941E29FC0160817C
:10155000CE0143960E94FD28E5CF8701B701CE0159
:101560008D559F4F0E941E29FC012081C7010196C5
:101570007C012C3269F0B801CE018D559F4F0E943D
:101580001E29FC016081CE010D960E94FD28E5CF49
:101590008701B701CE018D559F4F0E941E29FC0186
:1015A0002081C70101962C3271F07C01B801CE0177
:1015B0008D559F4F0E941E29FC016081CE01079628
:1015C0000E94FD28E5CF8C017801B801CE018D5530
:1015D0009F4F0E941E29FC0180818C3279F00F5FA1
:1015E0001F4FB701CE018D559F4F0E941E29FC0150
:1015F0006081CE0101960E94FD28E6CFCE01835680
:101600009F4F0E943029AB01BC0183E590E00E940E
:101610008E2FCE0189569F4F0E94302981E590E0A0
:101620000E949A2FCE018F569F4F0E94302980E54D
:1016300090E00E947C2FCE0185579F4F0E94302959
:101640008FE490E00E947C2FCE018B579F4F0E9429
:1016500030298EE490E00E947C2FCE0181589F4F6C
:101660000E9430298CE490E00E949A2FCE01875886
:101670009F4F0E9430298BE490E00E947C2FCE0186
:101680008D589F4F0E94302981E490E00E947C2F6A
:10169000CE0183599F4F0E94302980E490E00E9440
:1016A0007C2FCE0189599F4F0E9430298CE390E016
:1016B0000E947C2FCE018F599F4F0E9430298BE3CF
:1016C00090E00E947C2FCE01855A9F4F0E943029C6
:1016D0008AE390E00E947C2FCE018B5A9F4F0E949C
:1016E000302984E390E00E947C2FCE01815B9F4FE4
:1016F0000E94302983E390E00E947C2FCE01875B1B
:101700009F4F0E94302982E390E00E947C2FCE01FF
:101710008D5B9F4F0E94302985E390E00E949A2FB5
:10172000CE01CD960E9430298DE290E00E949A2F42
:10173000CE01C7960E9430298BE290E00E949A2F3A
:10174000CE01C1960E94302989E290E00E949A2F32
:10175000CE018B960E94302987E290E00E949A2F5A
:10176000CE0185960E94302985E290E00E949A2F52
:10177000CE014F960E94302983E290E00E949A2F7A
:10178000CE0149960E94302986E190E00E947C2F8C
:10179000CE0143960E94302985E190E00E947C2F83
:1017A000CE010D960E94302983E190E00E949A2F8D
:1017B000CE0107960E94302981E190E00E949A2F85
:1017C000CE0101960E9430298FE090E00E949A2F6E
:1017D000CE0101960E94E127CE0107960E94E127E3
:1017E000CE010D960E94E127CE0143960E94E1278B
:1017F000CE0149960E94E127CE014F960E94E12733
:10180000CE0185960E94E127CE018B960E94E127AA
:10181000CE01C1960E94E127CE01C7960E94E12722
:10182000CE01CD960E94E127CE018D5B9F4F0E9495
:10183000E127CE01875B9F4F0E94E127CE01815BAC
:101840009F4F0E94E127CE018B5A9F4F0E94E127B4
:10185000CE01855A9F4F0E94E127CE018F599F4F9D
:101860000E94E127CE0189599F4F0E94E127CE01B6
:1018700083599F4F0E94E127CE018D589F4F0E94B0
:10188000E127CE0187589F4F0E94E127CE01815862
:101890009F4F0E94E127CE018B579F4F0E94E12767
:1018A000CE0185579F4F0E94E127CE018F569F4F53
:1018B0000E94E127CE0189569F4F0E94E127CE0169
:1018C00083569F4F0E94E127CE018D559F4F0E9466
:1018D000E127C855DF4F0FB6F894DEBF0FBECDBF6E
:1018E000DF91CF911F910F91FF90EF900895EF92AC
:1018F000FF920F931F93CF93DF93CDB7DEB7C659F7
:10190000D1090FB6F894DEBF0FBECDBF6EE58AE9F0
:1019100097E00E940C2A67E372E0CE018F569F4F3A
:101920000E944F2841E26AE977E0CE0101960E94C9
:101930006929BE016F5F7F4FCE018F569F4F0E9476
:101940006528CE0101960E94E127CB56DF4F8881A2
:101950009981C559D040892B09F470C467E372E0BE
:10196000CE0185579F4F0E944F2867E372E0CE015A
:101970008B579F4F0E944F2867E372E0CE0181583A
:101980009F4F0E944F2867E372E0CE0187589F4F18
:101990000E944F2867E372E0CE018D589F4F0E944E
:1019A0004F2867E372E0CE0183599F4F0E944F2872
:1019B00067E372E0CE0189599F4F0E944F2867E389
:1019C00072E0CE018F599F4F0E944F2867E372E06B
:1019D000CE01855A9F4F0E944F2867E372E0CE01E7
:1019E0008B5A9F4F0E944F2867E372E0CE01815BC4
:1019F0009F4F0E944F2867E372E0CE01875B9F4FA5
:101A00000E944F2867E372E0CE018D5B9F4F0E94DA
:101A10004F2867E372E0CE01CD960E944F2867E31E
:101A200072E0CE01C7960E944F2867E372E0CE01B4
:101A3000C1960E944F2867E372E0CE018B960E9408
:101A40004F2867E372E0CE0185960E944F2867E336
:101A500072E0CE014F960E944F2867E372E0CE01FC
:101A600049960E944F2867E372E0CE0143960E9498
:101A70004F2867E372E0CE010D960E944F2867E37E
:101A800072E0CE0107960E944F2867E372E0CE0114
:101A900001960E944F28E12CF12C8701B701CE015D
:101AA0008F569F4F0E941E29FC012081C70101967D
:101AB0007C012C3271F0B801CE018F569F4F0E94ED
:101AC0001E29FC016081CE0185579F4F0E94FD2891
:101AD000E4CF8701B701CE018F569F4F0E941E2988
:101AE000FC012081C70101967C012C3271F0B80104
:101AF000CE018F569F4F0E941E29FC016081CE01AE
:101B00008B579F4F0E94FD28E4CF8701B701CE017C
:101B10008F569F4F0E941E29FC012081C70101960C
:101B20007C012C3271F0B801CE018F569F4F0E947C
:101B30001E29FC016081CE0181589F4F0E94FD2823
:101B4000E4CF8701B701CE018F569F4F0E941E2917
:101B5000FC012081C70101967C012C3271F0B80193
:101B6000CE018F569F4F0E941E29FC016081CE013D
:101B700087589F4F0E94FD28E4CF8701B701CE010F
:101B80008F569F4F0E941E29FC012081C70101969C
:101B90007C012C3271F0B801CE018F569F4F0E940C
:101BA0001E29FC016081CE018D589F4F0E94FD28A7
:101BB000E4CF8701B701CE018F569F4F0E941E29A7
:101BC000FC012081C70101967C012C3271F0B80123
:101BD000CE018F569F4F0E941E29FC016081CE01CD
:101BE00083599F4F0E94FD28E4CF8701B701CE01A2
:101BF0008F569F4F0E941E29FC012081C70101962C
:101C00007C012C3271F0B801CE018F569F4F0E949B
:101C10001E29FC016081CE0189599F4F0E94FD2839
:101C2000E4CF8701B701CE018F569F4F0E941E2936
:101C3000FC012081C70101967C012C3271F0B801B2
:101C4000CE018F569F4F0E941E29FC016081CE015C
:101C50008F599F4F0E94FD28E4CF8701B701CE0125
:101C60008F569F4F0E941E29FC012081C7010196BB
:101C70007C012C3271F0B801CE018F569F4F0E942B
:101C80001E29FC016081CE01855A9F4F0E94FD28CC
:101C9000E4CF8701B701CE018F569F4F0E941E29C6
:101CA000FC012081C70101967C012C3271F0B80142
:101CB000CE018F569F4F0E941E29FC016081CE01EC
:101CC0008B5A9F4F0E94FD28E4CF8701B701CE01B8
:101CD0008F569F4F0E941E29FC012081C70101964B
:101CE0007C012C3271F0B801CE018F569F4F0E94BB
:101CF0001E29FC016081CE01815B9F4F0E94FD285F
:101D0000E4CF8701B701CE018F569F4F0E941E2955
:101D1000FC012081C70101967C012C3271F0B801D1
:101D2000CE018F569F4F0E941E29FC016081CE017B
:101D3000875B9F4F0E94FD28E4CF8701B701CE014A
:101D40008F569F4F0E941E29FC012081C7010196DA
:101D50007C012C3271F0B801CE018F569F4F0E944A
:101D60001E29FC016081CE018D5B9F4F0E94FD28E2
:101D7000E4CF8701B701CE018F569F4F0E941E29E5
:101D8000FC012081C70101967C012C3269F0B80169
:101D9000CE018F569F4F0E941E29FC016081CE010B
:101DA000CD960E94FD28E5CF8701B701CE018F5661
:101DB0009F4F0E941E29FC012081C70101967C01D2
:101DC0002C3269F0B801CE018F569F4F0E941E2918
:101DD000FC016081CE01C7960E94FD28E5CF8701F6
:101DE000B701CE018F569F4F0E941E29FC01208112
:101DF000C70101967C012C3269F0B801CE018F56E3
:101E00009F4F0E941E29FC016081CE01C1960E9455
:101E1000FD28E5CF8701B701CE018F569F4F0E9465
:101E20001E29FC012081C70101967C012C3269F03A
:101E3000B801CE018F569F4F0E941E29FC01608180
:101E4000CE018B960E94FD28E5CF8701B701CE0118
:101E50008F569F4F0E941E29FC012081C7010196C9
:101E60007C012C3269F0B801CE018F569F4F0E9441
:101E70001E29FC016081CE0185960E94FD28E5CFD8
:101E80008701B701CE018F569F4F0E941E29FC018A
:101E90002081C70101967C012C3269F0B801CE0186
:101EA0008F569F4F0E941E29FC016081CE014F96E4
:101EB0000E94FD28E5CF8701B701CE018F569F4FC5
:101EC0000E941E29FC012081C70101967C012C3251
:101ED00069F0B801CE018F569F4F0E941E29FC0168
:101EE0006081CE0149960E94FD28E5CF8701B701A8
:101EF000CE018F569F4F0E941E29FC012081C701F1
:101F000001967C012C3269F0B801CE018F569F4FAB
:101F10000E941E29FC016081CE0143960E94FD288B
:101F2000E5CF8701B701CE018F569F4F0E941E2932
:101F3000FC012081C70101967C012C3269F0B801B7
:101F4000CE018F569F4F0E941E29FC016081CE0159
:101F50000D960E94FD28E5CF8701B701CE018F566F
:101F60009F4F0E941E29FC012081C70101962C323F
:101F700071F07C01B801CE018F569F4F0E941E293F
:101F8000FC016081CE0107960E94FD28E5CF8C01FF
:101F90007801B801CE018F569F4F0E941E29FC0187
:101FA00080818C3279F00F5F1F4FB701CE018F56C1
:101FB0009F4F0E941E29FC016081CE0101960E9464
:101FC000FD28E6CFCE0185579F4F0E94302984E43B
:101FD00090E00E947C2FCE018B579F4F0E943029AA
:101FE00083E490E00E947C2FCE0181589F4F0E9495
:101FF000302982E490E00E947C2FCE0187589F4FC9
:102000000E94302989E490E00E949A2FCE018D58D9
:102010009F4F0E94302987E490E00E949A2FCE01C2
:1020200083599F4F0E94302985E490E00E949A2FA7
:10203000CE0189599F4F0E9430298FE390E00E9482
:102040007C2FCE018F599F4F0E9430298EE390E064
:102050000E947C2FCE01855A9F4F0E9430298DE32C
:1020600090E00E947C2FCE018B5A9F4F0E94302916
:1020700089E390E00E947C2FCE01815B9F4F0E94FC
:10208000302988E390E00E947C2FCE01875B9F4F30
:102090000E94302987E390E00E947C2FCE018D5B67
:1020A0009F4F0E94302981E390E00E947C2FCE0157
:1020B000CD960E94302980E390E00E947C2FCE01D3
:1020C000C7960E9430298FE290E00E947C2FCE01BB
:1020D000C1960E94302981E290E00E949A2FCE01A1
:1020E0008B960E9430298FE190E00E949A2FCE01BA
:1020F00085960E9430298DE190E00E949A2FCE01B2
:102100004F960E9430298BE190E00E949A2FCE01D9
:1021100049960E94302989E190E00E949A2FCE01D1
:1021200043960E94302987E190E00E949A2FCE01C9
:102130000D960E9430298DE090E00E949A2FCE01EA
:1021400007960E9430298BE090E00E949A2FCE01E2
:1021500001960E94302989E090E00E949A2FCE01DA
:1021600001960E94E127CE0107960E94E127CE0149
:102170000D960E94E127CE0143960E94E127CE01F1
:1021800049960E94E127CE014F960E94E127CE0199
:1021900085960E94E127CE018B960E94E127CE0111
:1021A000C1960E94E127CE01C7960E94E127CE0189
:1021B000CD960E94E127CE018D5B9F4F0E94E127C3
:1021C000CE01875B9F4F0E94E127CE01815B9F4F2D
:1021D0000E94E127CE018B5A9F4F0E94E127CE013A
:1021E000855A9F4F0E94E127CE018F599F4F0E9431
:1021F000E127CE0189599F4F0E94E127CE018359E3
:102200009F4F0E94E127CE018D589F4F0E94E127EA
:10221000CE0187589F4F0E94E127CE0181589F4FE2
:102220000E94E127CE018B579F4F0E94E127CE01EC
:1022300085579F4F0E94E12711E001C010E0CE01B9
:102240008F569F4F0E94E127812FCA56DF4F0FB64E
:10225000F894DEBF0FBECDBFDF91CF911F910F91DC
:10226000FF90EF900895CF93DF9383E10E94D321F5
:10227000EC0185E290E00E94762F8C179D0758F4C0
:1022800083E290E00E94762F21E0C817D90708F07A
:1022900020E0822F01C080E0DF91CF9108958BE58F
:1022A00092E00C94431B1F920F920FB60F921124D1
:1022B0002F933F934F935F936F937F938F939F934E
:1022C000AF93BF93EF93FF938AE997E00E943E227A
:1022D00080935D0281E080935C02FF91EF91BF915A
:1022E000AF919F918F917F916F915F914F913F91AE
:1022F0002F910F900FBE0F901F901895EF92FF92A5
:102300000F931F93CF93DF931F92CDB7DEB7282F84
:10231000823059F0833031F0813009F062C008E634
:1023200010E005C00BE610E002C00AE610E0B801BC
:102330008FE592E029830E942A1960E070E08FE522
:1023400092E00E94A00160E08FE592E00E942C19CB
:1023500043E050E0B8018FE592E00E941D198FE53F
:1023600092E00E947218892BE1F18FE592E00E94C1
:102370007A188FE592E00E947A18082F8FE592E094
:102380000E947A18182F61E08FE592E00E942C19C4
:102390000170F02EE12CE12A84E0EE0CFF1C8A95FE
:1023A000E1F72981223059F0233081F02130C9F43E
:1023B0008DE090E00E94762FE816F906A0F08BE001
:1023C00090E00E94762FE816F90668F089E090E028
:1023D0000E94762F21E0E816F90608F020E0822F0F
:1023E00003C080E001C081E00F90DF91CF911F9189
:1023F0000F91FF90EF900895EF92FF920F931F932C
:10240000CF93DF9300D000D000D0CDB7DEB760E02F
:1024100088E00E947A2064E670E080E090E00E940C
:10242000522186E090E00E94682F882309F4ADC015
:1024300084E490E00E94682F882309F4A6C081E01C
:102440000E943B0281110EC068E873E180E090E0D9
:102450000E94522181E00E943B02811103C06EE480
:1024600071E085C061E088E00E947A2089E490E014
:102470000E94762F08EE13E09C01209FC001219F4F
:10248000900D309F900D1124BC0180E090E00E94DF
:10249000522181E00E947E11811132C088E00E94A9
:1024A0000D0789E490E00E94762F9C01209FC001D7
:1024B000219F900D309F900D1124BC0180E090E091
:1024C0000E94522181E00E947E11811119C060E0BA
:1024D00088E00E947A2064E571E0CE0101960E94B6
:1024E0004F28CE0101960E940602CE0101960E945D
:1024F000E12760E086E090E00E947C2F80E046C00B
:1025000089E00E947E05882311F081E03FC0E12C24
:10251000F12C08EE13E08EE490E00E94682FF8168C
:10252000F0F489E00E947E05811115C088E00E94C8
:102530000D0789E490E00E94762F9C01209FC00146
:10254000219F900D309F900D1124BC0180E090E000
:102550000E94522102C0EE24E394F394DCCFE110F8
:10256000D4CF60E088E00E947A206AE571E0CE0175
:1025700001960E944F28CE0101960E940602CE01CC
:1025800001960E94E12780E001C080E026960FB608
:10259000F894DEBF0FBECDBFDF91CF911F910F9199
:1025A000FF90EF900895EF92FF920F931F93CF93B8
:1025B000DF9300D000D000D0CDB7DEB760E08AE076
:1025C0000E947A2064E670E080E090E00E94522150
:1025D00085E090E00E94682F882309F4ADC083E471
:1025E00090E00E94682F882309F4A6C082E00E9430
:1025F0003B0281110EC068E873E180E090E00E9428
:10260000522182E00E943B02811103C060E671E02A
:1026100085C061E08AE00E947A2087E490E00E9411
:10262000762F08EE13E09C01209FC001219F900DA2
:10263000309F900D1124BC0180E090E00E94522157
:1026400082E00E947E11811132C08AE00E940D0753
:1026500087E490E00E94762F9C01209FC001219F7B
:10266000900D309F900D1124BC0180E090E00E94FD
:10267000522182E00E947E11811119C060E08AE03F
:102680000E947A2066E671E0CE0101960E944F28F2
:10269000CE0101960E940602CE0101960E94E1271A
:1026A00060E085E090E00E947C2F80E046C08BE0F7
:1026B0000E947E05882311F081E03FC0E12CF12CBF
:1026C00008EE13E08EE490E00E94682FF816F0F414
:1026D0008BE00E947E05811115C08AE00E940D07E3
:1026E00087E490E00E94762F9C01209FC001219FEB
:1026F000900D309F900D1124BC0180E090E00E946D
:10270000522102C0EE24E394F394DCCFE110D4CF45
:1027100060E08AE00E947A206CE671E0CE010196CA
:102720000E944F28CE0101960E940602CE0101961A
:102730000E94E12780E001C080E026960FB6F89461
:10274000DEBF0FBECDBFDF91CF911F910F91FF90E4
:10275000EF900895EF92FF920F931F93CF93DF9323
:1027600000D000D000D0CDB7DEB760E08CE00E9492
:102770007A2064E670E080E090E00E94522184E0DC
:1027800090E00E94682F882309F4ADC082E490E0B5
:102790000E94682F882309F4A6C083E00E943B02B0
:1027A00081110EC068E873E180E090E00E94522140
:1027B00083E00E943B02811103C062E771E085C0A3
:1027C00061E08CE00E947A2085E490E00E94762F00
:1027D00008EE13E09C01209FC001219F900D309FC7
:1027E000900D1124BC0180E090E00E94522183E012
:1027F0000E947E11811132C08CE00E940D0785E499
:1028000090E00E94762F9C01209FC001219F900D97
:10281000309F900D1124BC0180E090E00E94522175
:1028200083E00E947E11811119C060E08CE00E945B
:102830007A2068E771E0CE0101960E944F28CE0110
:1028400001960E940602CE0101960E94E12760E0F7
:1028500084E090E00E947C2F80E046C08DE00E94E2
:102860007E05882311F081E03FC0E12CF12C08EEB9
:1028700013E08EE490E00E94682FF816F0F48DE0EB
:102880000E947E05811115C08CE00E940D0785E431
:1028900090E00E94762F9C01209FC001219F900D07
:1028A000309F900D1124BC0180E090E00E945221E5
:1028B00002C0EE24E394F394DCCFE110D4CF60E0C7
:1028C0008CE00E947A206EE771E0CE0101960E94B2
:1028D0004F28CE0101960E940602CE0101960E9469
:1028E000E12780E001C080E026960FB6F894DEBFB5
:1028F0000FBECDBFDF91CF911F910F91FF90EF9051
:1029000008950E94FC11882319F081E080935A02F7
:1029100060915A0270E04AE050E08AE997E00E9434
:10292000C12A0E94D312882319F081E080935902B2
:102930006091590270E04AE050E08AE997E00E9415
:10294000C12A0E94AA13882319F081E080935802BB
:102950006091580270E04AE050E08AE997E00C94F8
:10296000C12A0F931F93CF93DF9360E670E08FE54A
:1029700092E00E942A1960E070E08FE592E00E94E8
:10298000A00160E08FE592E00E942C1943E050E046
:1029900060E670E08FE592E00E941D198FE592E0FD
:1029A0000E947218892B41F18FE592E00E947A18FB
:1029B0008FE592E00E947A18082F8FE592E00E943E
:1029C0007A18182F61E08FE592E00E942C1983E1BC
:1029D00090E00E94762F0170D02F20E0C22FC12BF3
:1029E00024E0CC0FDD1F2A95E1F721E0C817D907B5
:1029F00008F020E0822F01C080E0DF91CF911F918D
:102A00000F9108950E94B114882391F00E9421052E
:102A1000811119C064E871E08AE997E00E94FA29FF
:102A200068E873E180E090E00E9452210C94210557
:102A300068EE73E080E090E00E9452210E94B114A1
:102A40008111E4CF089581E008950F931F93CF93F0
:102A5000DF9362E670E08FE592E00E942A1960E061
:102A600070E08FE592E00E94A00160E08FE592E0C7
:102A70000E942C1943E050E062E670E08FE592E09E
:102A80000E941D198FE592E00E947218892B41F176
:102A90008FE592E00E947A188FE592E00E947A1802
:102AA000082F8FE592E00E947A18182F61E08FE5D9
:102AB00092E00E942C1981E190E00E94762F017033
:102AC000D02F20E0C22FC12B34E0CC0FDD1F3A9570
:102AD000E1F721E0C817D90708F020E0822F01C0F4
:102AE00080E0DF91CF911F910F9108950F931F9375
:102AF000CF93DF9360E084E00E947A2064E670E088
:102B000080E090E00E94522188E090E00E94682FCF
:102B1000882309F488C00E945F05882311F167E9C2
:102B200071E08AE997E00E94FA2961E084E00E945E
:102B30007A208CE490E00E94762FC8EED3E09C01CE
:102B40002C9FC0012D9F900D3C9F900D1124BC0126
:102B500080E090E00E9452210E94251581112FC033
:102B60000BC068E873E180E090E00E9452210E946F
:102B70005F058111D4CF57C084E00E940D078CE41B
:102B800090E00E94762F9C012C9FC0012D9F900DFC
:102B90003C9F900D1124BC0180E090E00E945221E6
:102BA0000E94251581110BC060E084E00E947A200C
:102BB00060E088E090E00E947C2F80E035C085E0F6
:102BC0000E947E05882311F081E02EC000E010E015
:102BD000C8EED3E08EE490E00E94682F1817E8F466
:102BE00085E00E947E05811115C084E00E940D07DA
:102BF0008CE490E00E94762F9C012C9FC0012D9FB9
:102C0000900D3C9F900D1124BC0180E090E00E944B
:102C1000522101C001E01F5FDDCF0111D5CF60E07F
:102C200084E00E947A2080E0DF91CF911F910F9184
:102C300008950F931F93CF93DF9363E670E08FE5C2
:102C400092E00E942A1960E070E08FE592E00E9415
:102C5000A00160E08FE592E00E942C1943E050E073
:102C600063E670E08FE592E00E941D198FE592E027
:102C70000E947218892B41F18FE592E00E947A1828
:102C80008FE592E00E947A18082F8FE592E00E946B
:102C90007A18182F61E08FE592E00E942C198FE0DE
:102CA00090E00E94762F0170D02F20E0C22FC12B20
:102CB00044E0CC0FDD1F4A95E1F721E0C817D907A2
:102CC00008F020E0822F01C080E0DF91CF911F91BA
:102CD0000F9108950F931F93CF93DF9300D000D0EF
:102CE00000D0CDB7DEB760E086E00E947A2064E6CF
:102CF00070E080E090E00E94522187E090E00E9426
:102D0000682F882309F46CC00E94331181111AC006
:102D100068E873E180E090E00E9452210E94331144
:102D2000811110C062EA71E0CE0101960E944F2825
:102D3000CE0101960E940602CE0101960E94E12773
:102D400080E04FC061E086E00E947A208CE490E051
:102D50000E94762F08EE13E09C01209FC001219F66
:102D6000900D309F900D1124BC0180E090E00E94F6
:102D700052210E941916882311F081E032C086E0AA
:102D80000E940D078BE490E00E94682F382F309F3F
:102D9000C001319F900D1124BC01882777FD8095DB
:102DA000982F0E9452210E9419168111E6CF60E0EF
:102DB00086E00E947A2067EA71E0CE0101960E94C7
:102DC0004F28CE0101960E940602CE0101960E9474
:102DD000E12760E087E090E00E947C2F80E001C066
:102DE00080E026960FB6F894DEBF0FBECDBFDF9110
:102DF000CF911F910F9108950E9480026CEA71E0BB
:102E00008AE997E00E94FA2965E070E080E090E0AE
:102E10000E94522180E090E00E94682F81110E9460
:102E2000020461EB71E08AE997E00E94FA2965E00B
:102E300070E080E090E00E9452210E940215811112
:102E400002C080E008956CEB71E08AE997E00E948F
:102E5000FA2965E070E080E090E00E9452210E9433
:102E60007615882371F368EC71E08AE997E00E9497
:102E7000FA2965E070E080E090E00E9452210E9413
:102E8000AC050E942A070E94770C8823D1F260EDDE
:102E900071E08AE997E00E94FA2965E070E080E03D
:102EA00090E00E9452210E946A16882351F26CED34
:102EB00071E08AE997E00E94FA2965E070E080E01D
:102EC00090E00E94522181E0089568E873E180E07B
:102ED00090E00E9452210E94FC16882341F068EE87
:102EE00071E08AE997E00E94FA290C948114089510
:102EF000CF9380915E02882309F4B7C08091570276
:102F00008F5F809357020E942105811105C0809137
:102F10004C028F5F80934C020E94B114811105C056
:102F2000809152028F5F809352020E945F0581114F
:102F300005C080914B028F5F80934B020E94251544
:102F4000811105C0809151028F5F8093510285E00D
:102F50000E947E05811105C0809156028F5F80938B
:102F600056020E943311811105C080914A028F5F81
:102F700080934A020E941916811105C08091500267
:102F80008F5F8093500280915A028823F1F081E094
:102F90000E943B02811105C0809149028F5F80939E
:102FA000490281E00E947E11811105C080914F028B
:102FB0008F5F80934F0289E00E947E05811105C0DA
:102FC000809155028F5F809355028091590288232A
:102FD000F1F082E00E943B02811105C0809148021D
:102FE0008F5F8093480282E00E947E11811105C0AC
:102FF00080914E028F5F80934E028BE00E947E058F
:10300000811105C0809154028F5F8093540280919A
:1030100058028823F1F083E00E943B02811105C031
:10302000809147028F5F8093470283E00E947E1168
:10303000811105C080914D028F5F80934D028DE01C
:103040000E947E05811105C0809153028F5F80939D
:103050005302C091570280E590E00E94682FC81784
:1030600010F00E94A70110925E0280915C028823FA
:10307000B9F110925C0280915D02813319F4CF9115
:103080000C94F10180915D02823319F4CF910C947C
:10309000A70180915D02833339F465EF71E08AE91D
:1030A00097E0CF910C94FA2980915D02843319F452
:1030B000CF910C946A1680915D02853319F4CF91FB
:1030C0000C94FC1180915D02863319F4CF910C941D
:1030D000D31280915D02873319F4CF910C94AA1317
:1030E000CF91089580916E0390E020916F03821B31
:1030F0009109089520916F0380916E03281750F471
:10310000E22FF0E0E059FC4F808190E02F5F2093A8
:103110006F0308958FEF9FEF0895E0916F03809103
:103120006E03E81730F4F0E0E059FC4F808190E046
:1031300008958FEF9FEF08950895CF92DF92EF9259
:10314000FF920F931F93CF93DF937C01CB018A01F2
:1031500020916B02222389F0EB016B01C40ED51E76
:10316000CC15DD0569F06991D701ED91FC910190D5
:10317000F081E02DC7010995F3CF642F0E94F1196A
:10318000C801DF91CF911F910F91FF90EF90DF90D9
:10319000CF900895CF93DF931F92CDB7DEB76983A9
:1031A00020916B022223D1F020916C022F3F41F439
:1031B00021E030E0FC013383228380E090E015C001
:1031C00080916D02E82FF0E0E259FD4F99819083E4
:1031D0008F5F80936D0280936C0205C061E0CE0129
:1031E00001960E94F11981E090E00F90DF91CF915C
:1031F0000895FC011382128248EE53E060E070E013
:1032000044835583668377838FEF91E09183808336
:10321000089510926F0310926E0310926D02109237
:103220006C020C944619862F60E773E00E946419C3
:1032300010926F0380936E03089521E00C9413198C
:1032400081E080936B0260936D0310926D02109287
:103250006C0208950C9420190F93062F21E04091E1
:103260006C026EE672E080916D030E94A3191092C9
:103270006D0210926C0210926B020F91089561E042
:103280000C942C198FE592E00C94F91810927907A0
:1032900081E0809377071092760761E082E00E94D8
:1032A0007A2061E083E00E947A20E9EBF0E08081FF
:1032B0008E7F808380818D7F808388E48093B800B7
:1032C00085E48093BC000895909179079111FCCF1B
:1032D00091E090937907209377072FEF20936F0465
:1032E00010927206240F20937106909378079091A4
:1032F0007807880F892B8093780780917607813033
:1033000041F410927607809178078093BB0085EC9A
:1033100001C085EE8093BC00809179078130E1F394
:1033200080917206841710F44091720623E736E00C
:10333000FB01D9018A2F821B841718F48D91819388
:10334000F9CF842F08950F93909179079111FCCFB5
:1033500092E090937907009377079FEF90936F0423
:103360001092720640937106FB0163E776E0DB0181
:103370009A2F961B941718F491919D93F9CF109260
:10338000780790917807880F892B80937807809130
:103390007607813041F41092760780917807809308
:1033A000BB0085EC01C085EE8093BC00222321F098
:1033B000809179078230E1F380916F048F3F51F063
:1033C00080916F04803241F080916F04803331F43A
:1033D00083E005C080E003C082E001C084E00F917B
:1033E000089520917907243079F460937005FC01E9
:1033F00082E795E0DC012A2F281B261718F421917B
:103400002D93F9CF80E0089582E0089585ED8093B3
:10341000BC008091BC0084FDFCCF10927907089518
:1034200085EC8093BC001092790708951F920F924B
:103430000FB60F9211242F933F934F935F936F9387
:103440007F938F939F93AF93BF93EF93FF9380915D
:10345000B900887F803609F49CC068F5883209F489
:103460005BC090F4803109F454C038F4882309F427
:10347000F5C0883009F44DC0F5C0883109F44CC05E
:10348000803209F45DC0EEC0803409F468C048F4AD
:10349000803309F455C0883309F0E4C080936F0489
:1034A000A8C0803509F44FC0883509F45DC0883460
:1034B00009F0D8C0D5C0883909F4C6C0A8F4883747
:1034C00009F467C038F4883609F463C0803709F41A
:1034D00060C0C8C0883809F4B7C0803909F45FC03B
:1034E000803809F0BFC05BC0803B09F485C038F468
:1034F000803A09F466C0883A09F47EC0B3C0803CC3
:1035000009F4A6C0883C09F4A3C0883B09F489C02B
:10351000A9C08091780710C09091720680917106C1
:10352000981770F5E091720681E08E0F8093720615
:10353000F0E0ED58F94F80818093BB0085EC85C0A9
:1035400080936F048DC0E091720681E08E0F8093AE
:1035500072068091BB00F0E0ED58F94F80839091A6
:103560007206809171066DC0E091720681E08E0F47
:10357000809372068091BB00F0E0ED58F94F808394
:103580008091770781116CC081E08093760784EA8F
:1035900060C083E08093790710927004CFCF809150
:1035A00070048F3F09F450C0E091700481E08E0FE9
:1035B000809370048091BB00F0E0EF58FB4F808354
:1035C000BDCF809170048F3F31F0E0917004F0E046
:1035D000EF58FB4F10820E94061A6091700470E051
:1035E000E0917207F091730781E794E009951092DA
:1035F00070040E94101A36C084E0809379071092FC
:10360000710510927005E0917407F09175070995A6
:1036100080917005811105C081E080937005109242
:103620007205E091710581E08E0F80937105F0E0E5
:10363000EE58FA4F80818093BB0090917105809184
:103640007005981708F47ACF85E88093BC000AC00B
:1036500085EC8093BC001092790704C010926F042F
:103660000E94061AFF91EF91BF91AF919F918F91A8
:103670007F916F915F914F913F912F910F900FBE6E
:103680000F901F90189508958FE592E00C940919FA
:103690000F931F93CB01A0E0B0E0BA2FA92F982F72
:1036A0008827842BE7E1F0E040E050E868E970E02B
:1036B0008C019D010E2E04C0369527951795079510
:1036C0000A94D2F700FF04C084279527A627B727BE
:1036D00076956795579547953197E730F10541F70E
:1036E0001F910F910895EF92FF920F931F93CF9325
:1036F000DF937C0160E470E08FE592E00E942A197C
:1037000065EF70E08FE592E00E94A0018FE592E006
:103710000E943F1967E370E080E090E00E94522130
:1037200043E050E060E470E08FE592E00E941D19F4
:1037300005E610E08FE592E00E947218039774F49A
:1037400061E070E080E090E00E9452210150110998
:1037500089F760E070E889E794E436C08FE592E08D
:103760000E947A18082F8FE592E00E947A18182F8D
:103770008FE592E00E947A18D02F90E0C92FC12BDC
:10378000482FBE01C7010E94481B811119C0BE010C
:103790006C7F80E090E00E948F2B20E030E040E8DA
:1037A00057E30E941D2C20E030E04AEF52E40E94D3
:1037B0001D2C20E030E040EC50E40E94F92A04C0C7
:1037C00060E070EC89E794E4DF91CF911F910F9155
:1037D000FF90EF900895EF92FF920F931F93CF9376
:1037E000DF937C0160E470E08FE592E00E942A198B
:1037F00063EF70E08FE592E00E94A0018FE592E018
:103800000E943F1967E370E080E090E00E9452213F
:1038100043E050E060E470E08FE592E00E941D1903
:1038200005E610E08FE592E00E947218039774F4A9
:1038300061E070E080E090E00E94522101501109A7
:1038400089F760E070E889E794E436C08FE592E09C
:103850000E947A18082F8FE592E00E947A18182F9C
:103860008FE592E00E947A18D02F90E0C92FC12BEB
:10387000482FBE01C7010E94481B811119C0BE011B
:103880006C7F80E090E00E948F2B20E030E040E8E9
:1038900057E30E941D2C22E538EB4FE253E40E94CF
:1038A0001D2C26E636E64BE352E40E94F92A04C0BA
:1038B00060E070EC89E794E4DF91CF911F910F9164
:1038C000FF90EF9008956F927F928F929F92AF92A8
:1038D000BF92CF92DF92EF92FF920F931F93CF93FD
:1038E000DF93EA012CE3C22ED12CE12CF12CA701AD
:1038F00096010E94A02C6883CA01B901A701960114
:103900000E94A02C6983CA01B90128E130E040E09F
:1039100050E00E94A02C49015A016A83CA01B901F2
:103920006C5F7F4F8F4F9F4F27E030E040E050E0CB
:103930000E94A02C6F5F6B8300E010E0980140E0D4
:1039400054E6652E712C60E9C62EDD24D394E42F55
:10395000F0E0EE54F84F7F0183E0E822FF24E11409
:10396000F10489F4CF01B3010E948C2C892B29F03A
:103970008EE691E0A0E0B0E00AC0CF01B6010E945F
:103980008C2C892BA9F38DE691E0A0E0B0E0080F24
:10399000191F2A1F3B1FD901C801AA27BB27881658
:1039A0009906AA06BB0610F04F5FD1CF4E83E114F3
:1039B000F10499F4CF0164E670E00E948C2C892B0D
:1039C00029F08EE691E0A0E0B0E00BC0CF0160E905
:1039D00071E00E948C2C892BA1F38DE691E0A0E090
:1039E000B0E0081B190B2A0B3B0B801A910AA20AA4
:1039F000B30ACF0164E670E00E948C2C9C01CF01D9
:103A000060E971E00E948C2CEBE0F2E0A0E0A130D4
:103A100059F4E114F10451F42115310511F04DE18F
:103A200006C00097E1F302C0408101C04CE150E0C4
:103A300060E070E084169506A606B70640F0841A8A
:103A4000950AA60AB70AAF5F3196AC3001F7AF5FAF
:103A5000AD8383948C82DF91CF911F910F91FF9062
:103A6000EF90DF90CF90BF90AF909F908F907F901E
:103A70006F9008956F927F928F929F92AF92BF92B4
:103A8000CF92DF92EF92FF920F931F93CF93DF932A
:103A9000FC01C680AC2DB0E020E833E341EE51E0FC
:103AA0000E94D72C4B015C0122EB37E06D01C4E68C
:103AB000D0E000E911E0C901825B97408C159D05BB
:103AC000DCF4C90183709927892B99F4C901BE01DF
:103AD0000E948C2C892B31F4C901B8010E948C2CD6
:103AE000892B39F480E8880E81E5981E81E0A81EB4
:103AF000B11C2F5F3F4FDFCF6580712C8EE4C81A59
:103B000088EFD80AC60164E670E00E948C2C8C0114
:103B1000C60160E971E00E948C2C7C01C1E0D0E01C
:103B200083E0C822DD24C615D7052CF5C230D105A7
:103B300089F4C114D10471F40115110519F4E114CB
:103B4000F10441F480E8880E8BE3981E86E2A81EFB
:103B5000B11C0FC0DE01A65FBD4FAC91B0E020E804
:103B600031E541E050E00E94D72C860E971EA81E3A
:103B7000B91E2196D8CF4181228130E0A0E1BEE07C
:103B80000E94C82C6B017C01242F30E0ACE3B0E034
:103B90000E94C82CC60ED71EE81EF91E8081C80ED2
:103BA000D11CE11CF11CA481B0E0119720E831E5A3
:103BB00041E050E00E94E22CC60ED71EE81EF91E1E
:103BC000C80CD91CEA1CFB1CC701B601DF91CF91C0
:103BD0001F910F91FF90EF90DF90CF90BF90AF902B
:103BE0009F908F907F906F9008950F931F93609395
:103BF00086077093870780938807909389070091C1
:103C00000601109107012091080130910901060F6A
:103C1000171F281F391F00937E0710937F072093DB
:103C200080073093810782E090E090937D07809336
:103C30007C070E94232160938207709383078093FF
:103C40008407909385071F910F910895CF92DF927B
:103C5000EF92FF920F931F930E942321C09082073F
:103C6000D0908307E0908407F09085076C197D0958
:103C70008E099F0900918607109187072091880778
:103C800030918907683E734081059105D8F00F5F38
:103C90001F4F2F4F3F4F00938607109387072093A6
:103CA00088073093890748EEC40E43E0D41EE11C18
:103CB000F11CC0928207D0928307E0928407F092B1
:103CC0008507CACF80917E0790917F07A0918007DA
:103CD000B0918107081719072A073B07C8F1E0913F
:103CE0007A07F0917B07309799F109956115710575
:103CF0008105910519F00E94F51D2AC080910601E9
:103D000090910701A0910801B091090140918607A7
:103D1000509187076091880770918907840F951FDC
:103D2000A61FB71F80937E0790937F07A0938007FD
:103D3000B093810781E090E020917C0730917D076E
:103D4000232B11F480E090E090937D0780937C0713
:103D50006091860770918707809188079091890705
:103D60001F910F91FF90EF90DF90CF900895EF9209
:103D7000FF920F9394E6E916F1042CF092EBE91A06
:103D800097E0F90A03C09EE1E90EF11CE09290076A
:103D900000938F0720938E0780938C0760938B0787
:103DA00040938A078AE897E00E943A1D0F91FF909E
:103DB000EF900C94F51D982F92959F702AEF929F8B
:103DC000800D112408958FE592E00C9409191F933A
:103DD000CF93DF93EC016FE670E08FE592E00E94F5
:103DE0002A1960E08FE592E00E94CA1860E08FE532
:103DF00092E00E94CA1829811AE0822F612F0E9446
:103E0000802C682F660F680F660F620F8FE592E0B7
:103E10000E94CA182A81822F612F0E94802C682F4D
:103E2000660F680F660F620F8FE592E00E94CA1856
:103E30008B818860682F70E08FE592E00E94A0017E
:103E40002C81822F612F0E94802C682F660F680FB3
:103E5000660F620F8FE592E00E94CA182D81822FB3
:103E6000612F0E94802C682F660F680F660F620F0B
:103E70008FE592E00E94CA182E812E51822F612F69
:103E80000E94802C682F660F680F660F620F8FE507
:103E900092E00E94CA188FE592E00E943F196FE6F7
:103EA00070E08FE592E00E942A1960E08FE592E0D1
:103EB0000E94CA182881822F612F0E94802C682FAF
:103EC000660F680F660F620F606870E08FE592E022
:103ED0000E94A0018FE592E0DF91CF911F910C9499
:103EE0003F19CF93DF93CDB7DEB727970FB6F8947E
:103EF000DEBF0FBECDBFAE014F5F5F4F0E94631CA0
:103F0000CE0101960E94E71E27960FB6F894DEBFF9
:103F10000FBECDBFDF91CF910895CF93DF93EC011A
:103F20006FE670E08FE592E00E942A1960E08FE56D
:103F300092E00E94CA188FE592E00E943F19811119
:103F40003EC047E050E06FE670E08FE592E00E94EF
:103F50001D198FE592E00E947A188F770E94DB1E70
:103F600088838FE592E00E947A180E94DB1E898385
:103F70008FE592E00E947A188F7B0E94DB1E8A8375
:103F80008FE592E00E947A18877C8B838FE592E020
:103F90000E947A180E94DB1E8C838FE592E00E94BB
:103FA0007A188F7D0E94DB1E8D838FE592E00E9440
:103FB0007A180E94DB1E825E8E8381E001C080E061
:103FC000DF91CF910895CF93DF93CDB7DEB72797D9
:103FD0000FB6F894DEBF0FBECDBFCE0101960E9492
:103FE0008D1F882329F0CE0101960E943A1D03C03F
:103FF00060E070E0CB0127960FB6F894DEBF0FBEED
:10400000CDBFDF91CF91089590E0FC013197EF3063
:10401000F105B0F5EA5AFF4F0C94C22C8091800054
:104020008F7703C0809180008F7D809380000895FA
:1040300080918000877FF9CF84B58F7702C084B5E7
:104040008F7D84BD0895809190008F7707C0809107
:1040500090008F7D03C080919000877F80939000B7
:1040600008958091C0008F7703C08091C0008F7D3C
:104070008093C00008958091C200877F8093C20022
:104080000895CF93DF9390E0FC01EC50FF4F249113
:10409000FC01EE5EFE4F8491882349F190E0880F89
:1040A000991FFC01E45BFE4FA591B491825C9E4F89
:1040B000FC01C591D4919FB7611108C0F8948C910F
:1040C000209582238C93888182230AC0623051F428
:1040D000F8948C91322F309583238C938881822B96
:1040E000888304C0F8948C91822B8C939FBFDF91BE
:1040F000CF9108950F931F93CF93DF931F92CDB766
:10410000DEB7282F30E0F901EA52FF4F8491F90120
:10411000EC50FF4F1491F901EE5EFE4F0491002325
:10412000C9F0882321F069830E9404206981E02F6F
:10413000F0E0EE0FFF1FE25CFE4FA591B4919FB738
:10414000F8948C91611103C01095812301C0812BDB
:104150008C939FBF0F90DF91CF911F910F91089586
:10416000CF93DF93282F30E0F901EA52FF4F84917B
:10417000F901EC50FF4FD491F901EE5EFE4FC4916E
:10418000CC2391F081110E940420EC2FF0E0EE0F7F
:10419000FF1FE05DFE4FA591B4912C912D2381E08E
:1041A00090E021F480E002C080E090E0DF91CF91C8
:1041B00008951F920F920FB60F9211242F933F93E1
:1041C0008F939F93AF93BF938091920790919307A2
:1041D000A0919407B09195073091910723E0230FA8
:1041E0002D3720F40196A11DB11D05C026E8230F2F
:1041F0000296A11DB11D2093910780939207909381
:104200009307A0939407B093950780919607909198
:104210009707A0919807B09199070196A11DB11D2C
:104220008093960790939707A0939807B093990768
:10423000BF91AF919F918F913F912F910F900FBEA2
:104240000F901F9018952FB7F89460919207709176
:10425000930780919407909195072FBF08953FB7DA
:10426000F8948091960790919707A0919807B09144
:10427000990726B5A89B05C02F3F19F00196A11DEF
:10428000B11D3FBF6627782F892F9A2F620F711DAE
:10429000811D911D42E0660F771F881F991F4A9567
:1042A000D1F70895CF92DF92EF92FF92CF93DF93F1
:1042B0006B017C010E942F21EB01C114D104E104A8
:1042C000F10489F00E94F82A0E942F216C1B7D0BBB
:1042D000683E734090F381E0C81AD108E108F10804
:1042E000C851DC4FEACFDF91CF91FF90EF90DF9084
:1042F000CF900895789484B5826084BD84B5816040
:1043000084BD85B5826085BD85B5816085BDEEE6DD
:10431000F0E0808181608083E1E8F0E010828081BC
:1043200082608083808181608083E0E8F0E080812A
:1043300081608083E1E9F0E0808182608083808118
:1043400081608083E0E9F0E0808181608083E1EC3E
:10435000F0E08081846080838081826080838081BE
:1043600081608083E3ECF0E0808181608083E0EC19
:10437000F0E0808182608083E2ECF0E08081816007
:104380008083EAE7F0E080818460808380818260BE
:1043900080838081816080838081806880830895AC
:1043A00080930A010895823108F08251E82FF0E0ED
:1043B000E653FF4FE49180917B00E3FB222720F935
:1043C00030E095E0220F331F9A95E1F78F7D822B25
:1043D00080937B00E77080910A0120E4829FC001F6
:1043E0001124E82BE0937C0080917A008064809314
:1043F0007A0080917A0086FDFCCF80917800209130
:10440000790090E0922B0895CF93DF931F92CDB760
:10441000DEB76983DC01ED91FC910280F381E02D30
:1044200041E050E0BE016F5F7F4F09950F90DF9133
:10443000CF910895CF93DF93EC018C859D8597FFF5
:1044400005C082E00E94B5239D878C878C859D8561
:10445000DF91CF91089583E00C940A26FC018485B6
:10446000958597FD06C082E00E945D2390E001964D
:10447000089582E00E945D2390E00895FC01848508
:10448000958597FD05C02FEF3FEF35872487089569
:1044900082E00C94B523CF93DF93EC01809112015D
:1044A000882331F083E00E94E6231816190634F0C1
:1044B00081E090E09B838A8380E090E0DF91CF9160
:1044C0000895FC0120812E5F208342E450E06AE5DC
:1044D00071E080E80C948124FC0181819081913A03
:1044E00059F4813209F03CC047E050E06BE071E0E4
:1044F00080E00E94812443C0913291F5803239F4EA
:1045000067E070E08BE091E00E94B22406C0823246
:1045100009F035C082818093120180910B01909146
:104520000C01A0910D01B0910E01803B9440A105BA
:10453000B105C1F48091120180FD14C087E797E7AF
:1045400090930108809300082BE088E190E00FB67B
:10455000F894A895809360000FBE209360000FC070
:1045600080E0089588E10FB6F8948093600010927F
:1045700060000FBEA895109201081092000881E01B
:1045800008952FEF3FEFFC0135872487089510929F
:104590009D0710929C0788EE93E0A0E0B0E0809326
:1045A0009E0790939F07A093A007B093A1078BE16C
:1045B00092E090939B0780939A078FEF9FEF9093E1
:1045C000A7078093A60708954091EE075091EF0743
:1045D0002091EC073091ED0742175307B4F4909106
:1045E000E8009570E1F39091E80092FD19C0809386
:1045F000F1008091EE079091EF0701968F73992754
:10460000892B19F48EEF8093E8008091EE0790914A
:10461000EF0701969093EF078093EE0781E00895EE
:1046200080E00895CF92DF92FF920F931F93CF9374
:10463000DF931F92CDB7DEB7082F162F862F880F76
:104640008E5F99830E94E42283E00E94E422F02E90
:10465000C02E9981D92E8C2D8F19811778F4F601EF
:1046600084910E94E422082F80E00E94E4228023AB
:10467000FFEFCF1ADF0A8111EECF01C081E00F906A
:10468000DF91CF911F910F91FF90DF90CF90089510
:10469000615030F02091F100FC0120830196F8CFA9
:1046A000289A84E68093F10708952FB7FC012083B0
:1046B000F89467706093E9000895CF93DF931F9299
:1046C000CDB7DEB7682FCE0101960E9455238091A9
:1046D000F20099819FBF0F90DF91CF910895FF92D3
:1046E0000F931F93CF93DF9300D0CDB7DEB7F62E95
:1046F0008A019091F007992311F057FF03C08FEFC3
:104700009FEF2BC0682FCE0101967A830E9455231C
:104710008091F20090E0A8017A81801791070CF453
:10472000AC01EF2DF72FF40E84E6FE1639F0289A2F
:104730008093F1079091F1009193F7CF41155105C6
:1047400021F08091F200882321F089818FBFCA0176
:1047500004C08BE68093E800F8CF0F900F90DF91B4
:10476000CF911F910F91FF900895CF93DF931F92E8
:10477000CDB7DEB741E050E0BE016F5F7F4F0E94D2
:104780006F23019719F4898190E002C08FEF9FEFAA
:104790000F90DF91CF910895CF93DF931F92CDB704
:1047A000DEB7682FCE0101960E9455239091E80054
:1047B000892F807295FF04C09091F20080E4891BDC
:1047C00099819FBF0F90DF91CF9108956F927F9253
:1047D0008F929F92AF92BF92CF92DF92EF92FF9211
:1047E0000F931F93CF93DF931F92CDB7DEB7782E31
:1047F0007B01C42EB52E8091F007882369F0042F29
:10480000152F8AEFD82E872D8072982E9AE3A92E25
:10481000872D8074882E11C08FEF9FEF57C0872D92
:104820000E94CC23682E81110CC0DA94A9F361E0B8
:1048300070E080E090E00E9452210115110579F7A7
:104840003BC0282F30E0021713070CF4602E672DB1
:10485000CE0101960E9455238091E80085FF29C072
:10486000262D30E0021B130B992039F06A948FEF4C
:104870006816B1F01092F100F9CFF701862D77FE9E
:1048800007C0815058F094919093F1003196F9CF80
:10489000815020F091919093F100FACFE20EF31E37
:1048A0008091E80085FF0FC00115110511F48110FA
:1048B0000AC089818FBFC1CF5D9A84E68093F207D9
:1048C0008C2D9B2D03C0A092E800F3CF0F90DF91B9
:1048D000CF911F910F91FF90EF90DF90CF90BF90FD
:1048E000AF909F908F907F906F9008951092E90005
:1048F0001092EF071092EE079093ED078093EC076C
:104900000895CF92DF92FF920F931F93CF93DF937F
:1049100000D0CDB7DEB7F82E8A016B010115110565
:10492000B1F0F601F7FE02C0849101C08081498395
:104930005A830E94E42201501109FFEFCF1ADF0AC7
:1049400049815A818111EACF8FEF9FEF01C0CA01DF
:104950000F900F90DF91CF911F910F91FF90DF90FB
:10496000CF9008951F93CF93DF931F92CDB7DEB7FB
:10497000162F2091E80022FFFCCF612F79830E943F
:1049800048238BEF8093E800812F7981972F0F9038
:10499000DF91CF911F910895CF93DF931F92CDB7F1
:1049A000DEB71982CE0101960E946122CE010196E6
:1049B0000E94A826898190E00F90DF91CF91089501
:1049C0001F920F920FB60F921124EF92FF920F9346
:1049D0001F932F933F934F935F936F937F938F9387
:1049E0009F93AF93BF93EF93FF93CF93DF93CDB795
:1049F000DEB76297DEBFCDBF1092E9008091E8007C
:104A000083FFEBC068E0CE010A960E94482382EF44
:104A10008093E8009A8597FF05C08091E80080FFA9
:104A2000FCCF03C08EEF8093E800892F807609F0D9
:104A3000B9C08B85811105C01092F1001092F10070
:104A4000C5C0282F2D7F213009F4C0C0853049F41E
:104A50008091E80080FFFCCF8C8580688093E30024
:104A6000B5C0863009F076C02D85E888F9882230F7
:104A700071F580E090E02A8B0E9476240E94CC247D
:104A800099E08E010F5F1F4FF801392F11923A956F
:104A9000E9F799832A892A8391E09E8390E8988791
:104AA0009AEF99872091EE073091EF07275F3F4FEC
:104AB0003C832B838D83C7010E94762449E050E01C
:104AC000B80180E00E9481240E94CC247FC0C701ED
:104AD0002A8B0E9476242A89223241F482E290E0D5
:104AE0000E94B326892B09F071C074C0213069F48B
:104AF00088899989089711F42093EB078091EB0737
:104B0000811118C063EB71E01AC0233009F062C054
:104B10008C85882391F0823021F46DE081ED91E065
:104B200006C0813009F056C06BE085EC91E00E9430
:104B300012234AC061EA71E002C06FED71E06115B5
:104B4000710509F447C0FB01449150E080E80E94E0
:104B500081243CC0873009F43DC0883021F481E0D5
:104B60008093F10033C0893089F5937099F5EDE9B0
:104B7000F1E081E021E096E38093E9002093EB00EF
:104B800034913093EC009093ED008F5F3196853037
:104B900099F78EE78093EA001092EA008C85809363
:104BA000F00714C0888999890E9476248E85811126
:104BB00005C0CE010A960E946C2206C0823051F4D4
:104BC000CE010A960E94DB26882321F08EEF809387
:104BD000E80003C081E28093EB0062960FB6F89480
:104BE000DEBF0FBECDBFDF91CF91FF91EF91BF919F
:104BF000AF919F918F917F916F915F914F913F9175
:104C00002F911F910F91FF90EF900F900FBE0F907B
:104C10001F9018958093E9008091F200882319F085
:104C20008AE38093E80008951F920F920FB60F92C7
:104C300011242F933F934F935F936F937F938F93A1
:104C40009F93AF93BF93EF93FF938091E1001092F6
:104C5000E10083FF0FC01092E90091E09093EB0018
:104C60001092EC0092E39093ED001092F00798E020
:104C70009093F00082FF1DC083E00E940A2680917D
:104C8000F207882339F08091F20781508093F20770
:104C9000882369F08091F107882359F08091F1070A
:104CA00081508093F107811104C0289802C05D985B
:104CB000F1CFFF91EF91BF91AF919F918F917F9134
:104CC0006F915F914F913F912F910F900FBE0F9079
:104CD0001F9018951092F00781E08093D70080EA2A
:104CE0008093D80082E189BD09B400FEFDCF61E068
:104CF00070E080E090E00E94522180E98093D8002B
:104D00008CE08093E2001092E000559A209A5D9822
:104D100028980895FF920F931F93CF93DF93EC0190
:104D2000F62EE881F9810480F581E02D09958C014A
:104D3000E881F9810680F781E02D6F2DCE0109957C
:104D4000C8019927DF91CF911F910F91FF9008958E
:104D5000FC0120812F5F208349E150E063E672E08F
:104D600080E80C94812445E650E06CE772E080E82E
:104D70000C948124EF92FF920F931F93CF93DF93B4
:104D80001F92CDB7DEB789838B017A0141E050E0F5
:104D9000BE016F5F7F4F84E00E94E623A701B80148
:104DA00084E40E94E6230F90DF91CF911F910F9131
:104DB000FF90EF900895FC0191818081813A31F458
:104DC00081E0913091F0933089F411C0813271F417
:104DD0009B3021F482818093140105C09A3031F414
:104DE00082818093130181E00895089580E0089501
:104DF00048E050E082E00C94BA26CF93DF93DC01C8
:104E0000683818F0E8E7E60F25C0E62FF0E067FF06
:104E100011C0E058F10981E090E001C0880FEA95E7
:104E2000EAF714969C911497982B14969C931497D8
:104E3000E0E010C0ED51FE4FE491EE2309F440C0D4
:104E4000E7FF08C014968C911497826014968C9397
:104E50001497EF7716968C9116978E1741F1179647
:104E60008C9117978E1719F118968C9118978E17A9
:104E7000F1F019968C9119978E17C9F01A968C91AA
:104E80001A978E17A1F01B968C911B978E1779F0AD
:104E900080E090E0ED01C80FD91F2E81211102C0E2
:104EA000EE8305C0019686309105A1F709C0BD01CA
:104EB0006C5F7F4FCD010E94F82681E090E008C032
:104EC00081E090E013969C938E93129780E090E09F
:104ED000DF91CF910895683818F0E8E7E60F25C014
:104EE000E62FF0E067FF12C0E058F10921E030E062
:104EF00001C0220FEA95EAF72095DC0114963C9157
:104F00001497322314963C93E0E00FC0ED51FE4F0E
:104F1000E491EE2329F1E7FF08C0DC0114962C91FF
:104F200014972D7F14962C93EF7720E030E0EE233A
:104F300051F0DC01A20FB31F16964C9116974E1339
:104F400002C016961C922F5F3F4F2630310579F72D
:104F5000BC016C5F7F4F0E94F82681E090E00895CD
:104F600080E090E00895FC01168217821086118679
:104F7000128613861482BC016C5F7F4F0C94F82656
:104F80001092FF071092F6071092F5078BE292E05D
:104F90009093F4078093F307089508950E947A216F
:104FA0000E94CD278AEE97E00E946A260E9465172C
:104FB000C0E0D0E00E9478172097E1F30E94000043
:104FC000F9CFFC01808191810C94962DCF93DF93D2
:104FD000EC0188819981009711F00E94962D198229
:104FE00018821D821C821B821A82DF91CF91089544
:104FF0000F931F93CF93DF93EC018B016F5F7F4F74
:10500000888199810E94252E009731F099838883A9
:105010001B830A8381E001C080E0DF91CF911F9163
:105020000F910895CF93DF93EC0188819981892BAB
:1050300029F08A819B818617970760F4CE010E9430
:10504000F827882341F08C819D81892B19F4E88110
:10505000F981108281E0DF91CF910895EF92FF9264
:105060000F931F93CF93DF93EC017B018A01BA0169
:105070000E941228811104C0CE010E94E62707C0B9
:105080001D830C83B701888199810E941F2FCE0157
:10509000DF91CF911F910F91FF90EF900895FC0148
:1050A0001182108213821282158214826115710599
:1050B00059F0FB0101900020E9F7AF01415051097F
:1050C000461B570B0C942E280895CF93DF93EC01C9
:1050D000FB018617970761F0608171816115710589
:1050E00029F0448155810E942E2802C00E94E627A3
:1050F000CE01DF91CF910895FC01118210821382BD
:105100001282158214820C946528CF93DF93EC01F0
:105110006115710561F0FB0101900020E9F7AF0115
:1051200041505109461B570B0E942E2802C00E9475
:10513000E627CE01DF91CF9108950F931F93CF9370
:10514000DF93CDB7DEB7A1970FB6F894DEBF0FBEE1
:10515000CDBF8C01CB01BA01F801118210821382FC
:1051600012821582148230E0AE014F5F5F4F0E94C1
:105170003B2FBE016F5F7F4FC8010E948528A1961B
:105180000FB6F894DEBF0FBECDBFDF91CF911F9158
:105190000F910895EF92FF920F931F93CF93DF9398
:1051A000EC017B010C811D816115710511F480E01A
:1051B00016C04115510591F0040F151FB8010E944A
:1051C00012288823A1F3288139818C819D81B70120
:1051D000820F931F0E941F2F1D830C8381E0DF919C
:1051E000CF911F910F91FF90EF900895FB014481A3
:1051F0005581608171810C94CA28CF93DF9300D0D0
:10520000CDB7DEB769831A8241E050E0BE016F5F1F
:105210007F4F0E94CA280F900F90DF91CF91089581
:10522000CF93DF93EC010E94FD28811103C0CE01D2
:105230000E94E627CE01DF91CF910895FC01848181
:1052400095816817790720F480819181009729F46E
:105250001092000880E098E00895860F971F089547
:10526000FC0180819181009711F00C94EF2E60E099
:1052700070E0CB0108950F931F93CF93DF93EC0160
:105280000E942321688779878A879B87E881F98133
:105290000680F781E02DCE01099597FF15C00E9489
:1052A0002321088519852A853B85601B710B820B9C
:1052B000930B0C811D812E813F816017710782073E
:1052C000930720F38FEF9FEFDF91CF911F910F9105
:1052D0000895EF92FF920F931F93CF93DF93EC010A
:1052E0008B01E42E67E372E00E944F28C8010E9400
:1052F0003B29FF24E7FCF09497FD0BC08E159F051A
:1053000041F0682FCE010E94FD28C8010E943B2970
:10531000F3CFCE01DF91CF911F910F91FF90EF90CE
:105320000895CF92DF92EF92FF920F931F93CF9346
:10533000DF936C017A01EB01E60EF71E00E010E04E
:10534000CE15DF0561F06991D601ED91FC910190D8
:10535000F081E02DC6010995080F191FF1CFC80192
:10536000DF91CF911F910F91FF90EF90DF90CF9041
:1053700008956115710581F0DB010D900020E9F7BA
:10538000AD0141505109461B570BDC01ED91FC91D9
:105390000280F381E02D099480E090E00895DC0123
:1053A000ED91FC91DB0114964D915C9115976D91F7
:1053B0007C910280F381E02D0994DC01ED91FC9158
:1053C0000190F081E02D099465E372E00C94B92915
:1053D0000F931F93CF93DF93EC010E94CF298C0191
:1053E000CE010E94E429800F911FDF91CF911F9180
:1053F0000F9108950F931F93CF93DF93EC010E94B9
:10540000B9298C01CE010E94E429800F911FDF9100
:10541000CF911F910F9108950F931F93CF93DF9317
:10542000EC010E94DD298C01CE010E94E429800F4D
:10543000911FDF91CF911F910F9108958F929F92AD
:10544000AF92BF92CF92DF92EF92FF920F931F9392
:10545000CF93DF93CDB7DEB7A1970FB6F894DEBF39
:105460000FBECDBF7C01C42EE52FCB01D22E19A2D9
:1054700021E02D1510F02AE0D22E8E010F5D1F4F76
:105480008D2C912CA12CB12C6C2D7E2FA50194017B
:105490000E94A02C8C2DD29E80191124015011093C
:1054A0008A3014F4805D01C0895CF8018083211585
:1054B00031054105510521F0C22EE32FCA01E4CF89
:1054C000B801C7010E94B929A1960FB6F894DEBFB2
:1054D0000FBECDBFDF91CF911F910F91FF90EF9045
:1054E000DF90CF90BF90AF909F908F900895CF9214
:1054F000DF92EF92FF920F931F93CF93DF93EC0114
:105500006A017B012115310579F4E881F981019067
:10551000F081E02D642FDF91CF911F910F91FF90CB
:10552000EF90DF90CF9009942A303105E9F477FFAE
:105530001AC06DE20E94DD298C0144275527BA016B
:105540004C195D096E097F092AE0CE010E941E2ACE
:10555000800F911FDF91CF911F910F91FF90EF90DE
:10556000DF90CF9008952AE0B701A601CE01DF9128
:10557000CF911F910F91FF90EF90DF90CF900C94FF
:105580001E2A0F931F93CF93DF93EC019A01AB0177
:10559000662757FD6095762F0E94772A8C01CE01F1
:1055A0000E94E429800F911FDF91CF911F910F91ED
:1055B00008952115310541F4DC01ED91FC91019034
:1055C000F081E02D642F09940C941E2A0F931F93F1
:1055D000CF93DF93EC010E94D92A8C01CE010E9467
:1055E000E429800F911FDF91CF911F910F910895B2
:1055F00008955058BB27AA270ED0E5C0D6D030F06A
:10560000DBD020F031F49F3F11F41EF4CBC00EF438
:10561000E095E7FBC1C0E92FE7D080F3BA17620736
:1056200073078407950718F071F49EF5FFC00EF418
:10563000E0950B2EBA2FA02D0B01B90190010C01A2
:10564000CA01A0011124FF27591B99F0593F50F4BA
:10565000503E68F11A16F040A22F232F342F442712
:10566000585FF3CF469537952795A795F04053950A
:10567000C9F77EF41F16BA0B620B730B840BBAF0DA
:105680009150A1F0FF0FBB1F661F771F881FC2F745
:105690000EC0BA0F621F731F841F48F48795779559
:1056A0006795B795F7959E3F08F0B3CF9395880F10
:1056B00008F09927EE0F97958795089504D0689480
:1056C000B111B5C0089598D088F09F5790F0B92FC8
:1056D0009927B751A0F0D1F0660F771F881F991F47
:1056E0001AF0BA95C9F712C0B13081F09FD0B1E07D
:1056F00008959CC0672F782F8827B85F39F0B93F8D
:10570000CCF3869577956795B395D9F73EF4909548
:105710008095709561957F4F8F4F9F4F0895E894C6
:1057200009C097FB3EF490958095709561957F4FE9
:105730008F4F9F4F9923A9F0F92F96E9BB27939597
:10574000F695879577956795B795F111F8CFFAF4A7
:10575000BB0F11F460FF1BC06F5F7F4F8F4F9F4FD8
:1057600016C0882311F096E911C0772321F09EE836
:10577000872F762F05C0662371F096E8862F70E09C
:1057800060E02AF09A95660F771F881FDAF7880F76
:105790009695879597F9089597F99F6780E870E047
:1057A00060E008959FEF80EC089500240A94161697
:1057B000170618060906089500240A9412161306FF
:1057C000140605060895092E0394000C11F488238D
:1057D00052F0BB0F40F4BF2B11F460FF04C06F5FA9
:1057E0007F4F8F4F9F4F089557FD9058440F551F7F
:1057F00059F05F3F71F04795880F97FB991F61F053
:105800009F3F79F087950895121613061406551FC9
:10581000F2CF4695F1DF08C0161617061806991F35
:10582000F1CF86957105610508940895E894BB272A
:1058300066277727CB0197F908950BD0C4CFB5DF42
:1058400028F0BADF18F0952309F0A6CFABCF1124CA
:10585000EECFCADFA0F3959FD1F3950F50E0551F0F
:10586000629FF001729FBB27F00DB11D639FAA27B5
:10587000F00DB11DAA1F649F6627B00DA11D661F04
:10588000829F2227B00DA11D621F739FB00DA11D25
:10589000621F839FA00D611D221F749F3327A00DDF
:1058A000611D231F849F600D211D822F762F6A2F7B
:1058B00011249F5750408AF0E1F088234AF0EE0F00
:1058C000FF1FBB1F661F771F881F91505040A9F70D
:1058D0009E3F510570F060CFAACF5F3FECF3983E3A
:1058E000DCF3869577956795B795F795E7959F5F74
:1058F000C1F7FE2B880F911D9695879597F908950E
:10590000991B79E004C0991F961708F0961B881F11
:105910007A95C9F78095089597FB072E16F40094A1
:1059200007D077FD09D00E94EA2C07FC05D03EF491
:10593000909581959F4F0895709561957F4F08953B
:10594000A1E21A2EAA1BBB1BFD010DC0AA1FBB1F83
:10595000EE1FFF1FA217B307E407F50720F0A21BF5
:10596000B30BE40BF50B661F771F881F991F1A9462
:1059700069F760957095809590959B01AC01BD018C
:10598000CF010895EE0FFF1F0590F491E02D0994CB
:10599000A29FB001B39FC001A39F700D811D112470
:1059A000911DB29F700D811D1124911D08950E94BB
:1059B000C82CA59F900DB49F900DA49F800D911DA4
:1059C00011240895B7FF0C94D72C0E94D72C821B6A
:1059D000930B0895AA1BBB1B51E107C0AA1FBB1F55
:1059E000A617B70710F0A61BB70B881F991F5A956B
:1059F000A9F780959095BC01CD010895CF93DF93D1
:105A00008230910510F482E090E0E0910308F0917B
:105A1000040820E030E0A0E0B0E0309739F14081A8
:105A2000518148175907B8F04817590771F4828116
:105A30009381109729F013969C938E9312972CC004
:105A4000909304088093030827C02115310531F095
:105A50004217530718F0A901DB0101C0EF019A01B9
:105A6000BD01DF010280F381E02DD7CF2115310583
:105A7000F9F0281B390B2430310580F48A819B8191
:105A80006115710521F0FB019383828304C090931B
:105A9000040880930308FE01329644C0FE01E20F21
:105AA000F31F8193919322503109398328833AC09F
:105AB0002091010830910208232B41F4209102012A
:105AC00030910301309302082093010820910001D6
:105AD000309101012115310541F42DB73EB74091B8
