:1000000017C1000046C1000044C1000042C1000009
:1000100040C100003EC100003CC100003AC10000E8
:1000200038C1000036C1000034C1000032C10000F8
:1000300030C100002EC100002CC100002AC1000008
:1000400028C1000026C1000024C1000022C1000018
:1000500020C100001EC100001CC100000C94C72676
:1000600018C100000C94EC270C94222812C1000047
:1000700010C100000EC100000CC100000AC1000048
:1000800008C1000006C1000004C1000002C1000058
:1000900000C10000FEC00000FCC000000C948017EE
:1000A000F8C00000F6C00000F4C00000F2C000007C
:1000B000F0C00000EEC00000ECC00000EAC000008C
:1000C000E8C00000E6C00000E4C00000E2C000009C
:1000D000E0C00000DEC00000DCC00000DAC00000AC
:1000E000D8C00000F625F925E825EC25F2253026B4
:1000F000FD25012607260B260F26152619261D2667
:100100003026232627262B2600000A0B02090C0D79
:100110000E080703040100000000000000000000BA
:1001200000000000000000000000000000000000CF
:10013000000000001211100000000000000000008C
:1001400000000000000000000000000000000102AC
:1001500010202008081020401020408002010201D9
:100160000804020101020408102040808040201091
:1001700008040201800402018040201008040201EA
:100180000804020101020408102040800102040852
:10019000102040800505050507050808080802022B
:1001A00002020A0A08080404040401010101010111
:1001B00001010303030303030303040707070C0CF4
:1001C0000C0C0C0C0C0C02020202060606060606BB
:1001D00006060B0B0B0B0B0B0B0B00002000230078
:1001E000260029002C002F0032000001000003012E
:1001F0000601090100002200250028002B002E0026
:100200003100340002010000050108010B0100006B
:100210002100240027002A002D00300033000101B6
:100220000000040107010A01580B96165428880B98
:1002300011241FBECFEFD1E2DEBFCDBF00E00CBF67
:1002400015E0A0E0B2E0EAE1F1E600E00BBF02C099
:1002500007900D92AC3CB107D9F72AE0ACECB5E0C1
:1002600001C01D92A73BB207E1F712E0CEE2D2E057
:1002700000E006C022970109FE010BBF0E941D2F5E
:10028000C832D10780E00807A9F70E940C2A0C9415
:100290007C30B6CE0F931F93CF93DF9340916C08C1
:1002A00050916D0860916E0870916F0822E030E007
:1002B00086E19AE00E94332C6DE172E086E19AE0DB
:1002C0000E94562A00E718E0C0E0D0E0F801419112
:1002D0005191619171918F0122E030E086E19AE0C5
:1002E0000E94332CCF30D10531F06DE172E086E110
:1002F0009AE00E94562A2196C031D10539F7DF9144
:10030000CF911F910F910895982F28E030E047E09A
:10031000892F880F97FD84272150310911F0982FDC
:10032000F7CF0895CF92DF92EF92FF920F931F9332
:10033000CF93DF937C016B0184E1E6DF9CE48927A6
:10034000E3DF95E18927E0DF8701C0E0D0E0CC154D
:10035000DD0544F4F80190810E5F1F4F8927D4DF3B
:100360002196F5CF482F50E0F601EE0FFF1FEE0D5E
:10037000FF1D81E090E0208131814217530711F089
:1003800080E090E0DF91CF911F910F91FF90EF906F
:10039000DF90CF900895EF92FF920F931F93CF932A
:1003A000DF9384E10E94DC1D813009F49BC08CE462
:1003B0000E94111E813009F495C085E10E94081E3B
:1003C000813009F48FC020EBE22E28E0F22E00E00D
:1003D00010E00232110541F40E94391E90E0909322
:1003E000F5088093F40806C00E94291E90E0F701EA
:1003F000918380830F5F1F4FF2E0EF0EF11C0332F9
:10040000110539F7E0EBF8E08191919189319C4F2A
:1004100009F468C088E0E63FF807B1F70E94091EBA
:1004200062E270E080EB98E07DDF892B09F45AC02E
:1004300080E090E09091B2086091B0087091B108AE
:10044000680F791F882777FD8095982F0E94482D87
:100450002DEC3CEC4CEC5DE30E94FC2D60936C08B1
:1004600070936D0880936E0890936F0804EB18E00A
:1004700090E7E92E98E0F92EF801F281DF2F20E0D5
:10048000C22FF801608171816C0F7D1F882777FD75
:100490008095982F0E94482D2DEC3CEC4CEC5DE3B0
:1004A0000E94FC2DF70161937193819391937F01D9
:1004B0000C5F1F4FF8E0043F1F07F1F66091F4084E
:1004C0007091F508882777FD8095982F0E94482D18
:1004D000609368087093690880936A0890936B082A
:1004E00081E001C080E0DF91CF911F910F91FF90DB
:1004F000EF9008952F923F924F925F926F927F926A
:100500008F929F92AF92BF92CF92DF92EF92FF9223
:100510000F931F93CF93DF93CDB7DEB762970FB6DC
:10052000F894DEBF0FBECDBF809164069091650642
:1005300098878F838091630890916408A0916508E3
:10054000B091660889879A87AB87BC8780915F08DE
:1005500090916008A0916108B09162088D879E8794
:10056000AF87B88B40905B0850905C0860905D0846
:1005700070905E088090720690907306A09074064A
:10058000B0907506C0906E06D0906F06E090700631
:10059000F090710600916A0610916B0690916C06BE
:1005A0009A8BA0916D06A98BE6EBF7E0FA83E983BD
:1005B00086E197E09E838D83A6E7B6E0BC83AB839C
:1005C000212C312C8F8198852816390609F452C0C8
:1005D000E981FA816191719181919191FA83E98325
:1005E00029853A854B855C850E94442C9B01AC0192
:1005F0000E94FC2D9B01AC01B401C5010E94452C59
:100600004B015C01AD81BE816D917D918D919D917C
:10061000BE83AD832D853E854F8558890E94442C2D
:100620009B01AC010E94FC2D9B01AC01B601C701EE
:100630000E94452C6B017C01EB81FC8161917191E1
:1006400081919191FC83EB83A30192010E94442C40
:100650009B01AC010E94FC2D9B01AC01B8018A8971
:1006600099890E94452CFFEF2F1A3F0A8B018A8B34
:10067000998BA8CFC401D50180937206909373061D
:10068000A0937406B0937506C601D70180936E06D9
:1006900090936F06A0937006B0937106C801AA8963
:1006A000B98980936A0690936B06A0936C06B09309
:1006B0006D069401A501B401C5010E94FC2D4B01FA
:1006C0005C019601A701B601C7010E94FC2D9B01A8
:1006D000AC01C501B4010E94452C6B017C0198015D
:1006E0004A895989B8018A8999890E94FC2D9B0100
:1006F000AC01C701B6010E94452C20E030E040E487
:1007000050E40E94AD2C6093660670936706809358
:100710006806909369060E94632E60935708709351
:1007200058088093590890935A0862960FB6F89427
:10073000DEBF0FBECDBFDF91CF911F910F91FF9014
:10074000EF90DF90CF90BF90AF909F908F907F9071
:100750006F905F904F903F902F900895AF92BF920F
:10076000CF92DF92EF92FF920F931F93CF93DF937D
:100770001F921F92CDB7DEB7182F7B018AE3498302
:100780005A830E94DC1D812F0E94111E8BE30E9460
:10079000081E4981A42E5A81B52E00E010E06701A1
:1007A00081E0C81AD1080E151F0584F40C151D052B
:1007B00019F40E94391E02C00E94291EF50180838F
:1007C0000F5F1F4FFFEFAF1ABF0AEDCF0E94091E48
:1007D00081E00F900F90DF91CF911F910F91FF90CB
:1007E000EF90DF90CF90BF90AF9008951F93CF937D
:1007F000DF93CDB7DEB727970FB6F894DEBF0FBEF5
:10080000CDBF182FAE014F5F5F4F66E070E081E013
:100810009F83A4DF9F818823F1F0FE013296612F30
:10082000792F9E01285F3F4FCF010197DC018C910A
:1008300090E0982F88274081842B54E095958795E8
:100840005A95E1F7DB018D939D93BD013296E21736
:10085000F30751F702C080E001C081E027960FB690
:10086000F894DEBF0FBECDBFDF91CF911F910895E9
:100870004F925F926F927F928F929F92AF92BF92B0
:10088000CF92DF92EF92FF920F931F93CF93DF935C
:10089000CDB7DEB76A970FB6F894DEBF0FBECDBFF7
:1008A000CE010D96A3DF811111C080E090ECA9E785
:1008B000B4EC89839A83AB83BC838D839E83AF839F
:1008C000B88789879A87AB87BC8724C08E01035F6E
:1008D0001F4F9E012F5F3F4F79016E0133E1C30E21
:1008E000D11CD8016D917D918D01882777FD809570
:1008F000982F0E94482D20E030E040E85AE30E9403
:10090000FC2DF70161937193819391937F010C15F5
:100910001D0539F7009164061091650649805A80DB
:100920006B807C80C801880F991F880F991FFC017C
:10093000EA54F84F40825182628273822D813E8157
:100940004F8158852B8B3C8B4D8B5E8BFC01EA5E77
:10095000F84F208331834283538329853A854B8521
:100960005C852F8B388F498F5A8FFC01EA58F94FDD
:100970002083318342835383B80180E090E00E945A
:10098000462D4B015C010F5F1F4FB80180E090E0E6
:100990000E94462D6B017C01209163083091640810
:1009A0004091650850916608C501B4010E94FC2D74
:1009B000A30192010E94452CA70196010E94AD2C33
:1009C0006093630870936408809365089093660849
:1009D00020915F0830916008409161085091620851
:1009E000C501B4010E94FC2D2B893C894D895E898B
:1009F0000E94452CA70196010E94AD2C60935F08D0
:100A000070936008809361089093620820915B085E
:100A100030915C0840915D0850915E08C501B401B9
:100A20000E94FC2D2F89388D498D5A8D0E94452CAE
:100A3000A70196010E94AD2C60935B0870935C083F
:100A400080935D0890935E0810936506009364069A
:100A50006A960FB6F894DEBF0FBECDBFDF91CF917F
:100A60001F910F91FF90EF90DF90CF90BF90AF90CC
:100A70009F908F907F906F905F904F900895CF934D
:100A8000C82F8AE30E94DC1D8C2F0E94111E8BE36D
:100A90000E94081E0E94091ECF910C94391E1F93BC
:100AA000CF93DF931F92CDB7DEB7182F8AE3698308
:100AB0000E94DC1D812F0E94111E6981862F0E94D9
:100AC000111E0F90DF91CF911F910C94091E8AE2A5
:100AD000D6DF682F6E7F8AE2E2CF8AE2D0DF682F0E
:100AE00061608AE2DCCF8DE0CADF8A3239F4EFDF61
:100AF00060E08EE0D4DFF1DF81E0089580E00895CA
:100B00000F931F93CF93DF9300912206109123063A
:100B100081E00E94C527C0E0D2E09E01281B390B6E
:100B2000C9011816190644F481E00E94C5279E01E8
:100B3000281B390BC90104C081E00E94C5279250CF
:100B4000801791072CF4809122069091230618C0FB
:100B500081E00E94C527C0E0D2E09E01281B390B2E
:100B6000C9011816190644F481E00E94C5279E01A8
:100B7000281B390BC90104C081E00E94C52792508F
:100B80009093230680932206DF91CF911F910F91BE
:100B90000895EF92FF920F931F93CF93DF93CDB7FA
:100BA000DEB764970FB6F894DEBF0FBECDBFBE01AF
:100BB000635F7F4F8DE096E00E943D14811105C078
:100BC0008DE096E00E94FA1358C067E0CE010D96C2
:100BD0000E94D3149C89891350C08D85803119F0EF
:100BE000883209F04AC08DE096E00E94E112BE0111
:100BF000635F7F4F8DE096E00E94CF1341E064E495
:100C00008DE096E00E9475138DE096E00E94E1125F
:100C1000BE01635F7F4F8DE096E00E94CF1340E0FE
:100C20006EEB8DE096E00E9475138E010F5F1F4FF3
:100C30007E018AE0E80EF11C8DE096E00E94B4137C
:100C4000F80181938F01EE15FF05B1F78DE096E075
:100C50000E94FA136A8170E0762F66278981682BDB
:100C6000882777FD8095982F0E94482D20E030E05E
:100C700040E85DE30E94FC2D04C060E070E08AE77C
:100C800094EC64960FB6F894DEBF0FBECDBFDF9133
:100C9000CF911F910F91FF90EF900895CF93DF9325
:100CA00066E870E085EF99E00E94201B8370833036
:100CB00009F4DEDDA8956CE870E085EF99E00E940C
:100CC000201B8370833031F4C4E8D3E019DFA8958A
:100CD0002197E1F7DF91CF910895809133099091A9
:100CE000340901969093340980933309D7CFA8959E
:100CF00069E870E085EF99E00E94201B83708330E3
:100D0000C1F56FE172E086E19AE00E94562A809177
:100D10004E0690914F06019731F180914C069091CB
:100D20004D06019701F180914A0690914B0601977B
:100D3000D1F069E272E086E19AE00E94562A409181
:100D4000500650915106609152067091530622E070
:100D500030E086E19AE00E94332C67E272E086E19F
:100D60009AE00E94562A69E372E086E19AE00E94C6
:100D7000702AA8956EE870E085EF99E00E94201B2C
:100D800083708330E9F46FE172E086E19AE00E94BB
:100D9000562A80916708882369F062E472E086E150
:100DA0009AE00E94562A76DA67E272E086E19AE0DB
:100DB0000E94562A69E372E086E19AE00E94702A56
:100DC000A8956DE870E085EF99E00E94201B837084
:100DD0008330B1F56FE172E086E19AE00E94562A15
:100DE00020E030EC49E754EC6091E6057091E705AE
:100DF0008091E8059091E9050E94A92C8823D1F003
:100E000064E572E086E19AE00E94562A4091E60588
:100E10005091E7056091E8057091E90522E030E026
:100E200086E19AE00E94332C67E272E086E19AE064
:100E30000E94562A69E372E086E19AE00E94702AD5
:100E4000A89562E870E085EF99E00E94201B83700E
:100E5000833009F061C06FE172E086E19AE00E94A0
:100E6000562A20E030EC49E754EC6091DB057091A4
:100E7000DC058091DD059091DE050E94A92C882378
:100E800009F444C020E030EC49E754EC6091D70508
:100E90007091D8058091D9059091DA050E94A92C0E
:100EA0008823A1F162E672E086E19AE00E94562A68
:100EB0004091DB055091DC056091DD057091DE0508
:100EC00022E030E086E19AE00E94332C67E272E093
:100ED00086E19AE00E94562A61E772E086E19AE094
:100EE0000E94562A4091D7055091D8056091D905A6
:100EF0007091DA0522E030E086E19AE00E94332C1E
:100F000067E272E086E19AE00E94562A69E372E0A5
:100F100086E19AE00E94702AA89566E870E085EF65
:100F200099E00E94201B8370833009F079C06FE143
:100F300072E086E19AE00E94562A80915608882342
:100F400009F468C061E872E086E19AE00E94562ADE
:100F5000409163085091640860916508709166083B
:100F600022E030E086E19AE00E94332C67E272E0F2
:100F700086E19AE00E94562A66E972E086E19AE0EC
:100F80000E94562A40915F08509160086091610864
:100F90007091620822E030E086E19AE00E94332CF2
:100FA00067E272E086E19AE00E94562A6BEA72E0FC
:100FB00086E19AE00E94562A40915B0850915C08B5
:100FC00060915D0870915E0822E030E086E19AE071
:100FD0000E94332C67E272E086E19AE00E94562A72
:100FE00060EC72E086E19AE00E94562A4091570830
:100FF000509158086091590870915A0822E030E0E9
:1010000086E19AE00E94332C67E272E086E19AE082
:101010000E94562A69E372E086E19AE00E94702AF3
:10102000A89560E970E085EF99E00E94201B83702D
:10103000833011F56FE172E086E19AE00E94562A52
:1010400067ED72E086E19AE00E94562A60914806B8
:10105000709149064AE050E086E19AE00E941E2B1A
:1010600067E272E086E19AE00E94562A69E372E044
:1010700086E19AE00E94702AA8956BE870E085EFFF
:1010800099E00E94201B8370833011F56FE172E0BC
:1010900086E19AE00E94562A6FEE72E086E19AE0BD
:1010A0000E94562A60912006709121064AE050E085
:1010B00086E19AE00E941E2B67E272E086E19AE0E8
:1010C0000E94562A69E372E086E19AE00E94702A43
:1010D000A89567E870E085EF99E00E94201B837077
:1010E000833009F062C06FE172E086E19AE00E940D
:1010F000562A65E073E086E19AE00E94562A6091E4
:10110000F2057091F30580E090E00E94462D20E00A
:1011100038EF4FE756E40E94AD2C20E030E045E286
:1011200053E40E94FC2D20E030E040E252E40E94B3
:10113000442CAB01BC0122E030E086E19AE00E9441
:10114000332C67E272E086E19AE00E94562A65E15C
:1011500073E086E19AE00E94562A6091F005709152
:10116000F10580E090E00E94462D20E030E048EC60
:1011700052E40E94FC2D20E038EF4FE756E40E9435
:10118000AD2CAB01BC0122E030E086E19AE00E9488
:10119000332C67E272E086E19AE00E94562A69E306
:1011A00072E086E19AE00E94702AA89565E870E0F6
:1011B00085EF99E00E94201B8370833009F040C0C6
:1011C0006FE172E086E19AE00E94562A65E273E0E0
:1011D00086E19AE00E94562A4091440650914506C5
:1011E000609146067091470622E030E086E19AE081
:1011F0000E94332C67E272E086E19AE00E94562A50
:1012000062E373E086E19AE00E94562A409140062C
:1012100050914106609142067091430622E030E011
:1012200086E19AE00E94332C67E272E086E19AE060
:101230000E94562A69E372E086E19AE00E94702AD1
:10124000A89568E870E085EF99E00E94201B837004
:10125000833031F56FE172E086E19AE00E94562A10
:101260006FE373E086E19AE00E94562A40910906F6
:1012700050910A0660910B0670910C0622E030E056
:1012800086E19AE00E94332C67E272E086E19AE000
:101290000E94562A69E372E086E19AE00E94702A71
:1012A000A89563E870E085EF99E00E94201B8370A9
:1012B000833009F046C06FE172E086E19AE00E9457
:1012C000562A8091FA059091FB05892BA1F56EE4D1
:1012D00073E086E19AE00E94562A40910006509100
:1012E0000106609102067091030622E030E086E17B
:1012F0009AE00E94332C67E272E086E19AE00E9455
:10130000562A6BE573E086E19AE00E94562A4091E6
:10131000FC055091FD056091FE057091FF0522E0EE
:1013200030E086E19AE00E94332C67E272E086E1C9
:101330009AE00E94562A69E372E086E19AE00E94F0
:10134000702AA89564E870E085EF99E00E94201B60
:101350008370833061F56FE172E086E19AE00E946C
:10136000562A8091F4059091F505892BD1F068E615
:1013700073E086E19AE00E94562A4091F60550916A
:10138000F7056091F8057091F90522E030E086E1FB
:101390009AE00E94332C67E272E086E19AE00E94B4
:1013A000562A69E372E086E19AE00E94702A61E8B9
:1013B00070E085EF99E00E94201B8370833009F074
:1013C00040C06FE172E086E19AE00E94562A66E72B
:1013D00073E086E19AE00E94562A409133065091CC
:1013E0003406609135067091360622E030E086E1E1
:1013F0009AE00E94332C67E272E086E19AE00E9454
:10140000562A63E873E086E19AE00E94562A4091EA
:101410002F0650913006609131067091320622E01D
:1014200030E086E19AE00E94332C67E272E086E1C8
:101430009AE00E94562A69E372E086E19AE00E94EF
:10144000702AA89567E870E085EF99E00E94201B5C
:101450008370833011F56FE172E086E19AE00E94BB
:10146000562A60E973E086E19AE00E94562A60916C
:101470006206709163064AE050E086E19AE00E94BD
:101480001E2B67E272E086E19AE00E94562A69E329
:1014900072E086E19AE00E94702AA8956AE870E0FE
:1014A00085EF99E00E94201B8370833011F56FE176
:1014B00072E086E19AE00E94562A61EA73E086E1D2
:1014C0009AE00E94562A60912406709125064AE00F
:1014D00050E086E19AE00E941E2B67E272E086E10E
:1014E0009AE00E94562A69E372E086E19AE00E943F
:1014F000702AA8956CE870E085EF99E00E94201BA7
:101500008370833011F56FE172E086E19AE00E940A
:10151000562A6FEA73E086E19AE00E94562A6091AB
:101520002206709123064AE050E086E19AE00E948C
:101530001E2B67E272E086E19AE00E94562A69E378
:1015400072E086E19AE00E94702AA895A89562E967
:1015500070E085EF99E00E94201B8370833009F0D2
:1015600040C06FE172E086E19AE00E94562A65EC85
:1015700073E086E19AE00E94562A4091CE05509190
:10158000CF056091D0057091D10521E030E086E172
:101590009AE00E94332C67E272E086E19AE00E94B2
:1015A000562A61ED73E086E19AE00E94562A409146
:1015B000D2055091D3056091D4057091D50521E0F5
:1015C00030E086E19AE00E94332C67E272E086E127
:1015D0009AE00E94562A69E372E086E19AE00E944E
:1015E000702AA89563E970E085EF99E00E94201BBE
:1015F0008370833009F05AC06FE172E086E19AE0AF
:101600000E94562A6DED73E086E19AE00E94562A08
:1016100040910A0950910B0960910C0970910D09D4
:1016200022E030E086E19AE00E94332C67E272E02B
:1016300086E19AE00E94562A6BEE73E086E19AE01A
:101640000E94562A40910E0950910F09609110098D
:101650007091110922E030E086E19AE00E94332C7B
:1016600067E272E086E19AE00E94562A69EF73E031
:1016700086E19AE00E94562A40911209509113097E
:10168000609114097091150922E030E086E19AE03A
:101690000E94332C67E272E086E19AE00E94562AAB
:1016A00069E372E086E19AE00E94702AA8950895A5
:1016B0004DE85AE560E070E08AE199E00E94D122AD
:1016C0004CE06BE087E396E00E94321C49E06AE060
:1016D00086E296E00E94321C67E08DE096E00E9470
:1016E000071446E167E28BEE95E00E94DC1860E0AB
:1016F0008AEE95E00E94101A45E657E260E070E03D
:101700008FED95E00E94971E86ED95E00C94C8241D
:1017100083E895E09093EC058093EB0508951F9383
:10172000CF93DF936EE870E085EF99E00E94201B75
:101730008370833021F40E94CB0180936708A895C1
:1017400065E870E085EF99E00E94201B837083308C
:10175000E1F521E04EE356E060E087E396E00E9489
:101760007E1D80933D0660913E0670913F0687E3A3
:1017700096E00E94451C6093440670934506809352
:1017800046069093470621E04EE356E061E087E38A
:1017900096E00E947E1D80933D0620914406309184
:1017A0004506409146065091470660913E0670916D
:1017B0003F0687E396E00E94601C609340067093AA
:1017C00041068093420690934306A89561E870E035
:1017D00085EF99E00E94201B8370833009F03FC0A1
:1017E00021E04DE256E060E086E296E00E947E1D38
:1017F00080932C06A89560912D0670912E0686E2A6
:1018000096E00E94451C60933306709334068093E3
:10181000350690933606A89521E04DE256E061E04A
:1018200086E296E00E947E1D80932C06A89520916A
:10183000330630913406409135065091360660915A
:101840002D0670912E0686E296E00E94601C609341
:101850002F06709330068093310690933206A89538
:101860006AE870E085EF99E00E94201B8370833066
:1018700041F4A8958CE30E94C52790932506809398
:101880002406A89560E970E085EF99E00E94201B8E
:101890008370833039F489E30E94C5279093490609
:1018A00080934806A89562E970E085EF99E00E9470
:1018B000201B83708330C9F486ED95E00E946B2570
:1018C0006093CE057093CF058093D0059093D1059A
:1018D000A89586ED95E00E94F9246093D205709357
:1018E000D3058093D4059093D505A89567E870E05B
:1018F00085EF99E00E94201B8370833039F488E3E0
:101900000E94C5279093630680936206A8956BE8B2
:1019100070E085EF99E00E94201B8370833039F4DA
:1019200080E00E94C5279093210680932006A89509
:1019300068E870E085EF99E00E94201B8370833097
:1019400049F427D96093090670930A0680930B0621
:1019500090930C06A8956DE870E085EF99E00E94E1
:10196000201B8370833061F48AEE95E00E944D1A4B
:101970006093E6057093E7058093E8059093E90589
:10198000A89563E870E085EF99E00E94201B8370C2
:10199000833049F468E08CEF95E00E946D159093D8
:1019A000FB058093FA05A89562E870E085EF99E061
:1019B0000E94201B8370833061F467ED75E08FED2A
:1019C00095E00E943D206BED75E08FED95E00E9463
:1019D000A51FA89564E870E085EF99E00E94201BA0
:1019E0008370833009F049C042E050E068E470E061
:1019F00085E399E00E94751690E09093F505809339
:101A0000F405892B71F185E399E00E94D115182F17
:101A100085E399E00E94D115D12F90E0C92FC82B02
:101A2000A4E0D595C795AA95E1F7BE01882777FD73
:101A30008095982F0E94482D26E636E646EE5DE317
:101A40000E94FC2D20E030E040E052E40E94452C52
:101A50006093F6057093F7058093F8059093F90568
:101A60000CC080E090ECA9E7B4EC8093F60590936D
:101A7000F705A093F805B093F905A89567E870E01D
:101A800085EF99E00E94201B8370833079F48BEE00
:101A900095E00E94BB18A8958BEE95E00E94F9187E
:101AA000A8958BEE95E00E94CC18A895A89569E8BA
:101AB00070E085EF99E00E94201B8370833009F06D
:101AC00085C0809110020E94DC1D90E090934F062B
:101AD00080934E06A89587E00E94111E90E0909397
:101AE0004D0680934C06A895809110028F5F0E944E
:101AF000081E90E090934B0680934A06A8950E949A
:101B0000291E90E09093610680936006A8950E943C
:101B1000291E90E090935F0680935E06A8950E9430
:101B2000391E90E090935D0680935C06A8956091C5
:101B30005E0670915F066F777727762F6627809114
:101B4000600690916106680F791F882777FD809560
:101B5000982F0E94482D20910C0230910D02409147
:101B60000E0250910F020E94FC2D2AE037ED43E255
:101B70005CE30E94442C609358067093590680934E
:101B80005A0690935B0623E333E948E853E40E9446
:101B9000442C609354067093550680935606909398
:101BA000570626E636E646EE5FE30E94FC2D20E06F
:101BB00030E040E052E40E94452C60935006709360
:101BC00051068093520690935306A895A89563E911
:101BD00070E085EF99E00E94201B8370833031F420
:101BE00066EF78E08AE199E00E944424A895CEE16E
:101BF000D0E073D8A895A895609112027091130255
:101C0000882777FD8095982F0E943427A895A8955E
:101C1000219779F766E870E085EF99E00E94201B34
:101C20008370833019F4A8950E947A02A895A8952C
:101C30005ED8A895A8956CE870E085EF99E00E94C1
:101C4000201B8370833021F4109223061092220609
:101C5000A89566E870E085EF99E00E94201B8370EC
:101C6000833009F044C01092650610926406109209
:101C7000630810926408109265081092660810922A
:101C80005F0810926008109261081092620810922A
:101C90005B0810925C0810925D0810925E0810922A
:101CA0005708109258081092590810925A0810922A
:101CB00072061092730610927406109275061092B6
:101CC0006E0610926F0610927006109271061092B6
:101CD0006A0610926B0610926C0610926D061092B6
:101CE0006606109267061092680610926906A8951B
:101CF000DF91CF911F9108958F929F92AF92BF92E3
:101D0000CF92DF92EF92FF920F931F93CF93DF93C7
:101D1000CDB7DEB7C254D1090FB6F894DEBF0FBEFF
:101D2000CDBF6091CC057091CD0585EF99E00E9403
:101D3000201B882319F011E001E03CC021E0022FB4
:101D400010E080910A0290910B0280179107F4F045
:101D50002131D1F040E0B80185EF99E023962FAF13
:101D600023970E94231B00581F4FB80185EF99E06D
:101D70000E94201B482F440FB80185EF99E00E9474
:101D8000231B23962FAD23972F5FD9CF6091CC05CE
:101D90007091CD0541E085EF99E00E94231B9924C5
:101DA000939414C085EF99E00E94201B813009F4C0
:101DB000012F1F5F612F70E080910A0290910B024A
:101DC000861797077CF799249394900E2FE088E16B
:101DD00090E00FB6F894A895809360000FBE209312
:101DE000600040E3842E092D10E080910A0290915A
:101DF0000B02801791070CF43BC381E0981238C0A6
:101E000041E0B80185EF99E00E94231B3AE0A32E40
:101E1000B12C21E0AE014F5F5F4F60E086E296E0BB
:101E20000E947E1D69817A8186E296E00E94451CAF
:101E30006B017C0121E0AE014F5F5F4F61E086E204
:101E400096E00E947E1D69817A81A701960186E253
:101E500096E00E94601CA89564EF71E080E090E03D
:101E60000E943427A89581E0A81AB10891F6B1C262
:101E700082E0981235C041E0B80185EF99E00E94F8
:101E8000231B85E399E01AD745E657E260E070E04E
:101E9000CE0101960E94971E63E070E0CE0101968C
:101EA0000E942E1F2AE0E22EF12CBE01625C7F4FC1
:101EB000CE0101960E94A51FBE016B5D7F4FCE0132
:101EC00001960E943D20A89564EF71E080E090E0CB
:101ED0000E943427A89581E0E81AF10831F779C209
:101EE00083E098121AC041E0B80185EF99E00E94A2
:101EF000231B9AE0E92EF12C68E0CE010196EDD586
:101F0000A89564EF71E080E090E00E943427A895E6
:101F100081E0E81AF10881F75CC284E0981228C0D9
:101F200041E0B80185EF99E00E94231B85E399E029
:101F3000C5D68AE0E82EF12C42E050E068E470E07B
:101F400085E399E0D2D6882331F085E399E029D65C
:101F500085E399E026D6A89564EF71E080E090E0F3
:101F60000E943427A89581E0E81AF10829F731C2C8
:101F700085E098123EC041E0B80185EF99E00E94EB
:101F8000231B4CE06BE0CE0101960E94321CBAE0AC
:101F9000AB2EB12C21E0AE014B5D5F4F60E0CE0176
:101FA00001960E947E1D6DA17EA1CE0101960E9428
:101FB000451C6B017C0121E0AE014B5D5F4F61E090
:101FC000CE0101960E947E1D6DA17EA1A701960102
:101FD000CE0101960E94601CA89564EF71E080E03C
:101FE00090E00E943427A89581E0A81AB10891F6E4
:101FF000F0C186E098121CC041E0B80185EF99E07D
:102000000E94231BAAE0EA2EF12C0E947305809304
:1020100056080E943804A89564EF71E080E090E0D3
:102020000E943427A89581E0E81AF10871F7D1C120
:1020300087E0981222C041E0B80185EF99E00E9444
:10204000231BFAE0EF2EF12C8BEE95E00E94BB18DB
:102050008BEE95E00E94F9188BEE95E00E94CC186B
:10206000A89564EF71E080E090E00E943427A89585
:1020700081E0E81AF10841F7ACC188E0981218C075
:1020800041E0B80185EF99E00E94231BEAE0EE2EC3
:10209000F12C0E94C905A89564EF71E080E090E002
:1020A0000E943427A89581E0E81AF10891F791C1C0
:1020B00089E098125DC041E0B80185EF99E00E9487
:1020C000231B0E94D61D7AE0E72EF12C88B8809160
:1020D00010020E94DC1D90E090934F0680934E0604
:1020E00087E00E94111E90E090934D0680934C066D
:1020F000809110020E94DC1D90E090934F06809327
:102100004E0687E00E94111E90E090934D0680934A
:102110004C06809110028F5F0E94081E90E0909301
:102120004B0680934A060E94291E90E09093610618
:10213000809360060E94291E90E090935F06809332
:102140005E060E94391E90E090935D0680935C06C7
:102150000E94091EA89564EF71E080E090E00E9463
:102160003427A89581E0E81AF10809F0AFCF31C112
:102170008AE098121DC041E0B80185EF99E00E9405
:10218000231B6AE0E62EF12C8CE30E94C527909376
:10219000250680932406A89564EF71E080E090E026
:1021A0000E943427A89581E0E81AF10869F711C167
:1021B0008BE098121DC041E0B80185EF99E00E94C4
:1021C000231B5AE0E52EF12C80E00E94C527909356
:1021D000210680932006A89564EF71E080E090E0EE
:1021E0000E943427A89581E0E81AF10869F7F1C048
:1021F0008CE0981218C041E0B80185EF99E00E9488
:10220000231B4AE0E42EF12C0E948005A89564EF80
:1022100071E080E090E00E943427A89581E0E81A00
:10222000F10891F7D6C08DE098122EC041E0B801B8
:1022300085EF99E00E94231B60E088E30E9431262D
:1022400060E089E30E94312660E089E30E946A260B
:102250003AE0E32EF12C8AEE95E00E944D1A60934D
:10226000E6057093E7058093E8059093E905A89546
:1022700064EF71E080E090E00E943427A89581E04F
:10228000E81AF10841F7A5C08EE098123AC041E083
:10229000B80185EF99E00E94231B61E081E10E9473
:1022A000312661E081E10E946A2661E080E10E94BE
:1022B000312660E080E10E946A2660E08AE30E94A5
:1022C000312661E08AE30E946A2660E08BE30E9487
:1022D000312661E08BE30E946A262AE0E22EF12C8F
:1022E0000E94CB01A89564EF71E080E090E00E942D
:1022F0003427A89581E0E81AF10891F70E94091E99
:1023000068C08FE098121DC041E0B80185EF99E0E8
:102310000E94231B9AE0E92EF12C88E30E94C52736
:102320009093630680936206A89564EF71E080E065
:1023300090E00E943427A89581E0E81AF10869F737
:1023400048C080E198121DC041E0B80185EF99E0D6
:102350000E94231B8AE0E82EF12C89E30E94C52706
:102360009093490680934806A89564EF71E080E059
:1023700090E00E943427A89581E0E81AF10869F7F7
:1023800028C082E1981236C041E0B80185EF99E09B
:102390000E94231B86ED95E00E94C92486ED95E0FE
:1023A0000E94F92420E030E849E754E40E94A92C77
:1023B000882309F47BC086ED95E00E946B2520E020
:1023C00030E849E754E40E94A92C882309F46EC040
:1023D000A895780180E8E80EF11CB70185EF99E037
:1023E0000E94201B482F4160B70185EF99E00E94B1
:1023F000231BA895A89583E1981237C041E0B80146
:1024000085EF99E00E94231B4DE85AE560E070E0FB
:10241000CE0185960E94D122CE0185960E94A623E8
:10242000BAE0EB2EF12CBE016F5F7F4FCE01859697
:102430000E944424A89564EF71E080E090E00E943F
:102440003427A89581E0E81AF10869F700581F4F72
:10245000B80185EF99E00E94201B482F4160B80128
:1024600085EF99E00E94231BA895A8959394BBCC77
:102470006091CC057091CD0540E085EF99E00E9418
:10248000231BA895CE5BDF4F0FB6F894DEBF0FBEBF
:10249000CDBFDF91CF911F910F91FF90EF90DF9013
:1024A000CF90BF90AF909F908F90089567E074E0B9
:1024B00086E19AE00E94702A9DCF60E177E280E099
:1024C00090E00E94342726E040E051EE60E070E0AA
:1024D00086E19AE00E94AB290FDC6DE274E086E1B0
:1024E0009AE00E94702A62E870E085EF99E00E940D
:1024F000201B8370833039F463E070E08FED95E04A
:102500000E942E1FA8956DE870E085EF99E00E946B
:10251000201B8370833009F4A89569E870E085EF8B
:1025200099E00E94201B6EE870E085EF99E00E9420
:10253000201B66E870E085EF99E00E94201B837005
:10254000833039F40E94D61D0E947305809356088B
:10255000A89580917A00846080937A0080917A00B7
:102560008D7F80937A0080917A008E7F80937A00AD
:10257000A89563E970E085EF99E00E94201B8370C5
:10258000833059F461E474E086E19AE00E94702A95
:102590008AE199E00E94A623A89588E10FB6F894F5
:1025A00080936000109260000FBE29E288E190E005
:1025B0000FB6F894A895809360000FBE209360003A
:1025C00008951F93CF93DF93EC0160E08A850E940A
:1025D00031261EE7115041F182E090E00E94592718
:1025E0008A850E949F26892BA9F360E08A850E9434
:1025F0006A2661E08A850E94312684EF91E00E947C
:10260000592760E08A850E94312681E490E00E948B
:1026100059278A850E949F2611E0892B09F010E036
:102620008AEE91E00E945927812FDF91CF911F916F
:1026300008950F931F93CF93DF93EC01E989FA89F3
:1026400080819C85892B8083ED85FE8590818C859A
:10265000809589238083062F017010E0F801EC5AE1
:10266000FB4F808190E00E945927ED85FE85808197
:102670009C85892B8083F801EE5AFB4F808190E086
:10268000DF91CF911F910F910C945927CF93DF9336
:10269000EC01E989FA8980819C85892B8083ED850D
:1026A000FE8590818C8580958923808381E090E0F0
:1026B0000E945927E989FA8990818C858095892320
:1026C000808385E090E00E945927EF85F88990810A
:1026D0008C859823C1E009F4C0E082E390E00E9479
:1026E00059278C2FDF91CF910895CF92DF92EF92EF
:1026F000FF920F931F93CF93DF931F92CDB7DEB757
:102700006C01E62E08E010E0FF24F39461E09F2DB9
:102710009E2109F460E0C60149838BDFFF0C015064
:10272000110949810115110589F7411113C060E0B4
:10273000F60182850E94312660E0F60182850F90C5
:10274000DF91CF911F910F91FF90EF90DF90CF908D
:102750000C946A260F90DF91CF911F910F91FF90FB
:10276000EF90DF90CF900895EF92FF920F931F9319
:10277000CF93DF938C01C8E0D0E0F12CEE24E394FA
:10278000C80184DF8111FE28EE0C2197C9F78F2D37
:10279000DF91CF911F910F91FF90EF900895CF920D
:1027A000DF92EF92FF920F931F93CF93DF931F92CD
:1027B000CDB7DEB77C01162F40E065E5798395DF64
:1027C000C12E7981D72E00E010E0F60161916F01F2
:1027D00040E0C7018ADF0F5F1F4F08301105A9F7DE
:1027E0000F90DF91CF911F910F91FF90EF90DF90AD
:1027F000CF900895FC018FEF808711861782168293
:102800001582148213821282118210820895DC01D3
:102810001A966C931A9770E0FB01EC56FE4FE49108
:102820001B96EC931B97FB01E25BFE4F64911C9699
:102830006C931C971B968C911B9790E0880F991FA7
:10284000FC01EC50FE4F259134911E963C932E9343
:102850001D97FC01E652FE4F2591349150963C9312
:102860002E931F97825F9D4FFC0185919491529604
:102870009C938E935197CD01BDCF8F929F92AF9233
:10288000BF92CF92DF92EF92FF920F931F93CF935D
:10289000DF931F92CDB7DEB74C016B01DC011996B7
:1028A0008C91882311F080E070C0C4018ADE8823F7
:1028B000D1F340E060EFC40118DF00E010E0AA248B
:1028C000A394BB24BA94EE24E394F12CC401DEDE7D
:1028D000682FC4016983DADE702F76957695769538
:1028E000202F2770F70102C0EE0FFF1F2A95E2F795
:1028F0009F016981662319F0882329F1D4CFE72F3E
:10290000F0E0811127C0D40118964C9118975527F3
:1029100047FD50950417150719F41896BC9209C085
:10292000D401041715073CF4AE0FBF1F8C9182230E
:1029300021F091E004C018960C9390E0A12CB02EE9
:10294000992341F061E0F401E70FF11D8081822BB2
:10295000808306C0E80DF91D2095808128232083FF
:10296000C40167DE0F5F1F4F0034110509F0AECFC1
:10297000AA2019F081E0F4018187D401F60188E0F2
:102980009D9191938150E1F781E00F90DF91CF917C
:102990001F910F91FF90EF90DF90CF90BF90AF907D
:1029A0009F908F900895282FFC0180E09E2F921B0E
:1029B000961738F4A191A827B0E0AA5ABB4F8C9182
:1029C000F5CF08958F929F92AF92BF92CF92DF92F0
:1029D000EF92FF920F931F93CF93DF93EC01B62EEC
:1029E000188619861A861B861C8661E08B2D0E942C
:1029F000312660E08B2D0E946A2664E170E080E061
:102A000090E00E94342761E08B2D0E946A2688E2C4
:102A100090E00E94592760E08B2D0E94312600E152
:102A200017E28B2D0E949F26892B31F4015011094A
:102A3000C1F78EEF9FEF44C000E117E28B2D0E949B
:102A40009F26019721F401501109C1F7F2CF98E2B6
:102A5000992E812C20E8A22E00E117E28B2D0E94F6
:102A60009F26892B21F401501109C1F7E2CF0E9462
:102A700011276B017C0100E117E28B2D0E949F263C
:102A8000019721F401501109C1F7D3CF0E941127FA
:102A90006C197D098E099F096932710581059105BF
:102AA00030F0FE01E80DF11D80858A298087A6940B
:102AB00019F4839480E8A82E9A9471F680E090E04F
:102AC000DF91CF911F910F91FF90EF90DF90CF900A
:102AD000BF90AF909F908F900895CF93DF93EC01BC
:102AE00071DF009769F040E050EC69E774EC4883CF
:102AF00059836A837B834C835D836E837F8346C067
:102B0000698588850E949728BC0180E090E00E943A
:102B1000462D2DEC3CEC4CEC5DE30E94FC2D6883D3
:102B200079838A839B838A856B8587FF0DC08F7726
:102B30000E949728BC0180E090E00E94462D2DEC79
:102B40003CEC4CEC5DEB0BC00E949728BC0180E094
:102B500090E00E94462D2DEC3CEC4CEC5DE30E9495
:102B6000FC2D6C837D838E839F8329858885280F28
:102B70008A85280F8B85280F81E090E03C853213F1
:102B800002C080E090E0919581959109DF91CF910D
:102B900008958091650990E020916609821B910952
:102BA00008952091660980916509281750F4E22F55
:102BB000F0E0E959F64F808190E02F5F209366099D
:102BC00008958FEF9FEF0895E09166098091650960
:102BD000E81730F4F0E0E959F64F808190E008956D
:102BE0008FEF9FEF08950895CF92DF92EF92FF92BB
:102BF0000F931F93CF93DF937C01CB018A01209128
:102C00004109222389F0EB016B01C40ED51ECC15BE
:102C1000DD0561F06991D701ED91FC910190F081A2
:102C2000E02DC7011995F3CF642F41D1C801DF9181
:102C3000CF911F910F91FF90EF90DF90CF9008956B
:102C4000CF93DF931F92CDB7DEB7698320914109FF
:102C50002223D1F020914209203240F021E030E0DF
:102C6000FC013383228380E090E014C0809143090B
:102C7000E82FF0E0EC5BF64F998190838F5F8093B3
:102C800043098093420904C061E0CE0101960FD14F
:102C900081E090E00F90DF91CF910895FC011382C5
:102CA000128248EE53E060E070E04483558366830F
:102CB00077838AE595E09183808308951092660971
:102CC00010926509109243091092420932C0862F72
:102CD000413208F040E267E679E049D01092660997
:102CE00080936509089521E0F2CF21E0F0CF81E0E3
:102CF000809341096093640910924309109242093C
:102D00000895F5CF0F93062F21E04091420964E426
:102D100079E08091640978D01092430910924209B9
:102D2000109241090F91089561E0ECCF85E399E09D
:102D3000B5CF1092F40981E08093F2091092F10965
:102D400061E084E10E946A2661E085E10E946A26D2
:102D5000E9EBF0E080818E7F808380818D7F8083AE
:102D600088E48093B80085E48093BC0008954132E4
:102D700040F4E9EBFBE09091F409992321F03197BD
:102D8000D1F780E0089591E09093F4092093F2093F
:102D90002FEF209387091092CC09240F2093CB09A1
:102DA0009093F3099091F309880F892B8093F3098D
:102DB0008091F109813041F41092F1098091F30979
:102DC0008093BB0085EC01C085EE8093BC0029EBAD
:102DD0003BE08091F409813021F421503109C9F799
:102DE000D0CF8091CC09841710F44091CC092DEC00
:102DF00039E0FB01D9018A2F821B841718F48D91C9
:102E00008193F9CF842F08950F93413208F046C083
:102E10009091F4099111FCCF92E09093F409009302
:102E2000F2099FEF909387091092CC094093CB0948
:102E3000FB016DEC79E0DB019A2F961B941718F4D7
:102E400091919D93F9CF1092F3099091F309880F16
:102E5000892B8093F3098091F109813041F410921C
:102E6000F1098091F3098093BB0085EC01C085EEE8
:102E70008093BC00222321F08091F4098230E1F399
:102E8000809187098F3F61F080918709803251F0EE
:102E900080918709803341F483E007C081E005C059
:102EA00080E003C082E001C084E00F9108956132A8
:102EB00098F42091F409243089F46093A909FC0165
:102EC0008BEA99E0DC012A2F281B261718F42191A0
:102ED0002D93F9CF80E0089581E0089582E0089570
:102EE00085ED8093BC008091BC0084FDFCCF1092E6
:102EF000F409089585EC8093BC001092F4090895BC
:102F00001F920F920FB60F9211240BB60F922F93B0
:102F10003F934F935F936F937F938F939F93AF9361
:102F2000BF93EF93FF938091B900887F803609F4B7
:102F30009CC068F5883209F45BC090F4803109F4D4
:102F400054C038F4882309F4F3C0883009F44DC024
:102F5000F2C0883109F44CC0803209F45DC0EBC086
:102F6000803409F468C048F4803309F455C08833CC
:102F700009F0E1C080938709A7C0803509F44FC0EC
:102F8000883509F45DC0883409F0D5C0D3C08839CC
:102F900009F4C4C0A8F4883709F467C038F4883647
:102FA00009F463C0803709F460C0C5C0883809F4EB
:102FB000B5C0803909F45FC0803809F0BCC05BC07F
:102FC000803B09F483C038F4803A09F466C0883A3B
:102FD00009F47CC0B0C0803C09F4A4C0883C09F46A
:102FE000A1C0883B09F487C0A6C08091F30910C036
:102FF0009091CC098091CB09981770F5E091CC099C
:1030000081E08E0F8093CC09F0E0E353F64F80818E
:103010008093BB0085EC83C0809387098BC0E091CF
:10302000CC0981E08E0F8093CC098091BB00F0E049
:10303000E353F64F80839091CC098091CB096BC00C
:10304000E091CC0981E08E0F8093CC098091BB0088
:10305000F0E0E353F64F80838091F20981116AC05A
:1030600081E08093F10984EA5EC083E08093F409F3
:1030700010928809CFCF80918809803208F04EC025
:10308000E091880981E08E0F809388098091BB00D0
:10309000F0E0E757F64F8083BDCF809188098032FA
:1030A00030F4E0918809F0E0E757F64F108218DF1E
:1030B0006091880970E0E091ED09F091EE0989E8EE
:1030C00099E019951092880915DF35C084E0809346
:1030D000F4091092AA091092A909E091EF09F09160
:1030E000F00919958091A909811105C081E08093AB
:1030F000A9091092AB09E091AA0981E08E0F809393
:10310000AA09F0E0E555F64F80818093BB009091CD
:10311000AA098091A909981708F47CCF85E88093C3
:10312000BC0009C085EC8093BC001092F40903C078
:1031300010928709D5DEFF91EF91BF91AF919F91DA
:103140008F917F916F915F914F913F912F910F9050
:103150000BBE0F900FBE0F901F90189523E835E01F
:10316000FC0131832083089523E835E0FC0131839D
:1031700020830C94EB27CF93DF93EC018B818F3F5F
:1031800019F061E00E946A268C818068807F8C83C0
:1031900080E0DF91CF910895CF93DF93EC018B8195
:1031A0008F3F19F060E00E946A268C8180778C83C3
:1031B00080E0DF91CF910895CF93DF93EC01842FCE
:1031C00023E835E0398328836A834B831C821E827F
:1031D0001D8218861F824F3F49F060E00E946A26D8
:1031E00061E08B81DF91CF910C943126DF91CF91FB
:1031F0000895EF92FF920F931F93CF93DF93EC010B
:103200008C8187FD05C0807F83608C8383E07FC0D5
:103210006A8185E399E06BDD85E399E085DDE82E41
:10322000F12CE114F10409F060C06AE070E080E084
:1032300090E00E94342744E06A8185E399E053DD01
:10324000811106C066E675E086E19AE00E94702A68
:1032500085E399E09EDC892B09F441C085E399E080
:10326000A0DC7C0185E399E09CDC97013327A90170
:1032700066E0559547956A95E1F74130510511F1A2
:103280004230510519F1452B81F6322F2227282B88
:103290003E832D8385E399E084DCF82E85E399E075
:1032A00080DC1F2D00E0082B1695079516950795D5
:1032B00018870F8385E399E037DD8C81807F8C83CD
:1032C00080E025C085E399E02FDDAFCF85E399E06D
:1032D0002BDD8C81807F84608C8384E018C08C819E
:1032E000807F82608C8382E012C06BE775E086E1AC
:1032F0009AE00E94562A4AE050E0B70186E19AE03F
:103300000E94252B8C81807F81608C8381E0DF91FE
:10331000CF911F910F91FF90EF9008951F93CF933E
:10332000DF93EB014836F1F080F4413309F45DC0DE
:10333000413609F44FC0403309F067C0DC01ED911C
:10334000FC910680F781E02D56C0443709F14537DE
:1033500009F449C0403709F058C04AE050E0FC0188
:1033600063813DC0DC0115966D917C91169780E0DC
:1033700090E00E94462D20E030E048EC52E40E94AC
:10338000FC2D20E038EF4FE756E40E94AD2C19C029
:10339000FC016781708580E090E00E94462D20E06E
:1033A00038EF4FE756E40E94AD2C20E030E045E2D4
:1033B00053E40E94FC2D20E030E040E252E40E9401
:1033C000442CAB01BC0122E030E0CE010E94342C41
:1033D00080E022C04AE050E0DC0112966C91CE0100
:1033E0000E94472BF5CF05DF07C0DC01ED91FC9172
:1033F0000480F581E02D1995182F4AE050E0682FE0
:10340000CE010E94472B812F07C04AE050E06EEFAB
:10341000CE010E94472B8EEFDF91CF911F9108952F
:1034200061E088E30E94312660E088E30E946A261A
:1034300061E089E30E94312661E089E30E946A2607
:1034400085E399E03BCC41E050E06AE270E085E33F
:1034500099E04BDC882351F085E399E09ADB18165C
:103460001906D4F785E399E09CCB089589E1089586
:10347000CF93C62F6AE270E085E399E042DC6C2FBF
:1034800085E399E0DDDB85E399E04EDC68E070E000
:1034900080E090E0CF910C9434274F925F926F922E
:1034A0007F929F92AF92BF92CF92DF92EF92FF9264
:1034B0000F931F93CF93DF93EC0160E0D9DFCE0130
:1034C000C2DF982E60E1CE01D3DFCE01BCDFC82F72
:1034D000D0E084E0D595C7958A95E1F7C0FBEE244E
:1034E000E0F8F12CB701882777FD8095982F0E948E
:1034F000482D20E030E040E05FE30E94FC2D6B01AE
:103500007C019B01AC010E94FC2DA70196010E9449
:10351000FC2DA70196010E94FC2D20E030E0A901BE
:103520000E94452C6B017C01D595C795C0FBAA2450
:10353000A0F8B12CB501882777FD8095982F0E94BF
:10354000482D20E030E040E05FE30E94FC2D2B019D
:103550003C019B01AC010E94FC2DA30192010E9441
:10356000FC2D9B01AC01C701B6010E94452C6B01EB
:103570007C01D595C7950C2F017010E0B801882704
:1035800077FD8095982F0E94482D20E030E040E0A4
:103590005FE30E94FC2D9B01AC010E94FC2D9B016E
:1035A000AC01C701B6010E94452C6B017C01BE0134
:1035B00075956795882777FD8095982F0E94482DEF
:1035C00020E030E040E05FE30E94FC2D9B01AC0175
:1035D000C701B6010E94452C6B017C01692D70E08A
:1035E00080E090E00E94482D9B01AC01C701B6012C
:1035F0000E94452C6B017C0120E030E040E053E468
:103600000E94F82D181654F420E030E040E853E40E
:10361000C701B6010E94442C6B017C01C701B601B1
:10362000DF91CF911F910F91FF90EF90DF90CF909E
:10363000BF90AF909F907F906F905F904F90089554
:10364000CB010C946630CB01642F0C946E30FF924A
:103650000F931F93CF93DF93EC01F62E61E08881E7
:103660000E94312618E000E8602F6F2188810E94B7
:103670006A2681E090E00E94592761E089810E94DA
:103680006A2683E090E00E94592760E089810E94C9
:103690006A2681E090E00E9459270695115021F793
:1036A00060E088810E94312661E088810E946A265C
:1036B00061E089810E946A2683E090E00E94592798
:1036C00088810E949F268C0181E090E00E9459270A
:1036D00060E089810E946A2681E0012B09F480E084
:1036E000DF91CF911F910F91FF900895DF92EF929C
:1036F000FF920F931F93CF93DF93EC01D62E88E0B8
:10370000F82EE12C61E089810E946A2681E090E038
:103710000E94592788810E949F26EE0C8C010E2959
:10372000E02E60E089810E946A2681E090E00E949C
:103730005927FA9439F761E088810E94312661E0C7
:103740006D2588810E946A2681E090E00E945927B9
:1037500061E089810E946A2683E090E00E945927F7
:1037600060E089810E946A2681E090E00E945927EA
:1037700060E088810E94312661E088810E946A268B
:10378000802FDF91CF911F910F91FF90EF90DF90ED
:103790000895CF93DF93EC0161E088810E946A264F
:1037A00061E088810E94312681E090E00E945927E3
:1037B00061E089810E946A2681E090E00E94592799
:1037C00060E088810E946A2681E090E00E9459278B
:1037D00060E089810E946A2683E090E00E94592778
:1037E00061E089810E946A2681E090E00E94592769
:1037F00061E088810E946A2681E090E00E9459275A
:1038000060E089810E946A2681E090E0DF91CF919B
:103810000C9459271F93CF93DF93EC0161E08881CB
:103820000E946A2661E088810E94312683E090E050
:103830000E94592719E061E089810E946A2683E08D
:1038400090E00E94592760E089810E946A2683E007
:1038500090E00E945927115071F7CE01DF91CF916E
:103860001F9197CFCF93DF93EC01842F6883498317
:103870001B821A821C8261E00E943126CE01CADFBF
:103880006EE1CE01DF91CF91E2CEFC01248180E098
:1038900090E020FF07C00E94462D2AE037ED43E26A
:1038A0005DE306C00E94462D2AE037ED43E25CE36B
:1038B0000E94FC2D26E636E640E252E40C94442CAD
:1038C0004F925F926F927F928F929F92AF92BF9230
:1038D000CF92DF92EF92FF9249015A01FC012481BD
:1038E00080E090E020FF35C00E94462D6B017C01F6
:1038F0002DEB32E546E15FE30E94FC2D25EC3EEF27
:1039000042E050E40E94442C2B013C012BE335E2C1
:1039100046ED59EBC701B6010E94FC2DA7019601A7
:103920000E94FC2D9B01AC01C301B2010E94452CF9
:103930002B013C0120E030E048EC51E4C501B4012A
:103940000E94442C4B015C012CEA35EC47EA5AE317
:1039500034C00E94462D6B017C012DEB32E546E11F
:103960005DE30E94FC2D25EC3EEF42E050E40E9416
:10397000442C2B013C0126EF34E246ED55EBC70108
:10398000B6010E94FC2DA70196010E94FC2D9B010F
:10399000AC01C301B2010E94452C2B013C0120E087
:1039A00030E048EC51E4C501B4010E94442C4B01C5
:1039B0005C012CEA35EC47EA58E3C701B6010E94E6
:1039C000FC2D2AE037ED43E25CE30E94452C9B018D
:1039D000AC01C501B4010E94FC2DA30192010E941B
:1039E000452C6B017C0120E030E048EC52E40E9461
:1039F000F82D181694F02DEC3CEC4CEC5DE3C7016F
:103A0000B6010E94A92C87FF0EC09DECC92E9CEC2C
:103A1000D92EED2C9DE3F92E06C0C12CD12C28EC1B
:103A2000E22E22E4F22EC701B601FF90EF90DF9064
:103A3000CF90BF90AF909F908F907F906F905F904E
:103A40004F900895FA0180818627808388E021E3E2
:103A5000908197FF03C0990F922701C0990F90831F
:103A60008150B1F7089598E080E0262F2170880FEB
:103A7000822B66959150C9F70895DF92EF92FF92DD
:103A80000F931F93CF93DF93EC018B0161E02EDE48
:103A9000D82E7E0185E0E80EF11CA7016D2DCE0128
:103AA000D1DF8D2D90E0F8019183808361E0CE011C
:103AB0001DDED82EA701682FCE01C4DF20E030E044
:103AC000F80130812D293183208360E0CE010EDEA4
:103AD000682FCE01C8DF9D81891739F08FEF9FEFE6
:103AE000F8019183808382E001C080E0DF91CF9173
:103AF0001F910F91FF90EF90DF900895CF92DF928A
:103B0000EF92FF920F931F93CF93DF931F92CDB746
:103B1000DEB76C01E62E8A01F22EFC01648167702B
:103B2000A2DFF6018583C60134DEE11002C033E076
:103B300001C035E0632FC601398389DD39818111E8
:103B40002BC0A6014B5F5F4F632FC6017BDFFF20B9
:103B5000F9F030EFF32EF60180810E949F26892B29
:103B600049F0FA9499F063E070E080E090E00E9400
:103B70003427F1CFB801C6010F90DF91CF911F918B
:103B80000F91FF90EF90DF90CF9077CF83E004C04C
:103B9000F6011383028380E00F90DF91CF911F9194
:103BA0000F91FF90EF90DF90CF9008951092B900A1
:103BB00088E98093B800089594EA9093BC0029EEB8
:103BC00033E09091BC0097FD05C021503109C9F741
:103BD00081E008959091B900987F983011F090316C
:103BE000B9F78093BB0084E88093BC0089EE93E032
:103BF0002091BC0027FD03C00197D1F7E9CF809148
:103C0000B900887F883111F0803411F780E0089581
:103C1000D3CF84E98093BC008091BC0084FDFCCFAD
:103C200008958093BB0084E88093BC0089EE93E004
:103C30002091BC0027FD04C00197D1F781E008C0A6
:103C40009091B900987F81E0983211F480E0089556
:103C5000089584EC8093BC0089EE93E02091BC0031
:103C600027FD04C00197D1F789E108958091BB0039
:103C7000089584E88093BC0089EE93E02091BC0015
:103C800027FD04C00197D1F789E108958091BB0019
:103C9000089508950F931F93CF93DF938C01EB0149
:103CA00088E2FB0111928A95E9F74BE050E06DE85C
:103CB00075E0CE010E9457301B8641E050E060E085
:103CC00070E04C875D876E877F87F8014381548160
:103CD00065817681488B598B6A8B7B8B46E050E0FF
:103CE00060E070E04C8B5D8B6E8B7F8B1CA21DA205
:103CF0001EA21FA240E050E066E973E4488F598F8E
:103D00006A8F7B8F40E050E869E874E44C8F5D8FE8
:103D10006E8F7F8F4AE057ED63E27CE348A359A39F
:103D20006AA37BA3DF91CF911F910F91089528E99A
:103D300035E0FC013183208343835483658376839C
:103D40000895CF93C82F67E785E399E00E9477161F
:103D500064EF85E399E00E9420166C2F85E399E0DB
:103D60000E94201685E399E0CF910C9494161F933E
:103D7000CF93DF93182FEB0167E785E399E00E946B
:103D80007716612F85E399E00E94201685E399E07C
:103D90000E94941641E067E785E399E00E9473165C
:103DA000882329F085E399E00E94D11501C089E1BB
:103DB000888385E399E0DF91CF911F910C9494164D
:103DC0001F93CF93DF93182FEB0167E785E399E00B
:103DD0000E947716612F85E399E00E94201685E303
:103DE00099E00E94941642E067E785E399E00E941B
:103DF0007316882379F085E399E00E94D115182F76
:103E000085E399E00E94D11520E030E0312F822B2C
:103E1000932B02C089E19CEF9983888385E399E025
:103E2000DF91CF911F910C9494160F931F93CF9312
:103E3000DF931F921F92CDB7DEB78B01BE016F5F7C
:103E40007F4FBEDF89819A81F801918380830F9033
:103E50000F90DF91CF911F910F9108950F931F93B2
:103E6000CF93DF931F92CDB7DEB78B0185E399E047
:103E70000E945E16BE016F5F7F4F80ED78DF898103
:103E8000853509F036C0C8010430110510F083E013
:103E900090E08093F60967EF79E08AEAC6DF69EF80
:103EA00079E08CEAC2DF6BEF79E08EEABEDF6DEF7E
:103EB00079E080EB85DF6FEF79E082EB81DF61E015
:103EC0007AE084EB7DDF63E07AE086EBAEDF65E0ED
:103ED0007AE088EBAADF67E07AE08AEBA6DF69E0A8
:103EE0007AE08CEBA2DF6BE07AE08EEB9EDF81E084
:103EF00001C080E00F90DF91CF911F910F91089545
:103F00000F931F93CF93DF931F921F92CDB7DEB70E
:103F10008C018EE216DF65E070E080E090E0A4D7CF
:103F2000BE016F5F7F4F86EF4BDF49815A8160E0B2
:103F300070E0F80140835183628373830F900F9088
:103F4000DF91CF911F910F9108958F929F92AF9221
:103F5000BF92CF92DF92EF92FF920F931F93CF9376
:103F6000DF9300D01F92CDB7DEB78B01CE01019653
:103F7000C7DF89819A81AB81BC8189312CEF92079F
:103F80002FEFA207B20709F45EC02091010A309119
:103F9000020A6C017D01C21AD30AE108F108A701E7
:103FA0009601A091FF09B091000A0E940D2F0E9476
:103FB000482D20E030E040E058E30E94FC2D0E94B4
:103FC000152D6B017C016091090A70910A0A8827FE
:103FD00077FD8095982F0E94482D20E030E040E04A
:103FE00055E40E94FC2D4B015C0180910B0A9091DD
:103FF0000C0ABC01882777FD8095982F6C0D7D1DDC
:104000008E1D9F1D0E94482D9B01AC01C501B4016E
:104010000E94AD2C0E94152D6C0D7D1D8E1D9F1DC7
:10402000685F7F4F8F4F9F4F0E94482D20E030E008
:1040300040E85DE30E94FC2D20E030E040E251E4E6
:104040000E94AD2C04C060E070EC89E794ECF801AC
:1040500060837183828393830F900F900F900F90F2
:10406000DF91CF911F910F91FF90EF90DF90CF9054
:10407000BF90AF909F908F9008953F924F925F9224
:104080006F927F928F929F92AF92BF92CF92DF9268
:10409000EF92FF920F931F93CF93DF93CDB7DEB7CD
:1040A0002F970FB6F894DEBF0FBECDBF8B011982DC
:1040B0001A821B821C82CE01019622DF8091F609B2
:1040C0008295880F880F807C8C5C3BDE8091F6099E
:1040D000813069F038F0823079F46EE070E080E091
:1040E00090E00EC065E070E080E090E009C068E01C
:1040F00070E080E090E004C06AE170E080E090E071
:10410000B3D6BE016B5F7F4F86EF5ADECD80DE8077
:1041100029E1C2162CEFD206F1F0E12CF12CFE2C95
:10412000ED2CDC2CCC24BE01695F7F4F88EF1FDEB5
:104130008F81C80ED11CE11CF11C2091F60988E08A
:1041400090E0821B910904C0F594E794D794C7943A
:104150008A95D2F706C069E1C62E6CEFD62EE12C07
:10416000F12C89819A81AB81BC818931ECEF9E076A
:10417000EFEFAE07BE0709F45CC1F9E1CF16FCEF23
:10418000DF06FFEFEF06FF0609F453C12091010A95
:104190003091020A4C015D01821A930AA108B1080C
:1041A000A5019401A091FF09B091000A0E940D2F72
:1041B0000E94482D20E030E040E058E30E94FC2DB2
:1041C0000E94152D2B013C016091090A70910A0A89
:1041D000882777FD8095982F0E94482D20E030E0B9
:1041E00040E055E40E94FC2D0E94152D20910B0A01
:1041F00030910C0A442737FD4095542F240D351D6E
:10420000461D571D0E94EB2E49015A01840C951C36
:10421000A61CB71CD501C401805A9F40A109B10951
:1042200088879987AA87BB879C01AD01BC01CD0116
:104230000E94BA2E2B013C01FCE0759467945794C0
:104240004794FA95D1F7E091F709F091F809309089
:10425000F609A091FB09B091FC090E94172F4B01B0
:104260005C01ADE0B594A79497948794AA95D1F793
:10427000A091030AB091040AA30192010E94172F92
:10428000BB2797FDB095AB2F880E991EAA1EBB1EAB
:1042900092E0890E911CA11CB11C82E0B594A794F8
:1042A000979487948A95D1F7A0E89A0EA11CB11C27
:1042B000A091FD09B091FE09A50194010E940D2F66
:1042C0004B015C019FE0B694A794979487949A95CC
:1042D000D1F78C869D86AE86BF864F01AA2497FCB7
:1042E000A094BA2C22E0880C991CAA1CBB1C2A950D
:1042F000D1F7A091050AB091060AA30192010E948C
:10430000172F2B013C013BE0759467945794479419
:104310003A95D1F7A091F909B091FA092885398524
:104320004A855B850E94172F4BE095958795779579
:1043300067954A95D1F7460E571E681E791E840C64
:10434000951CA61CB71C032C04C0880C991CAA1C25
:10435000BB1C0A94D2F722E0820E911CA11CB11C56
:1043600052E0B594A794979487945A95D1F7A701F2
:104370009601281939094A095B0960E573EC80E068
:1043800090E004C095958795779567953A94D2F714
:104390000E94BA2E97FD0DC0660F771F881F991FC8
:1043A0002C853D854E855F850E94C92E49015A01A5
:1043B0000CC02C853D854E855F850E94C92E490124
:1043C0005A01880C991CAA1CBB1C9927B7FC9A950A
:1043D0008B2D7A2D692D9B01AC010E94BA2E9B0179
:1043E000AC01AEEDBBE00E940D2F6C01FF24D7FCA9
:1043F000F094EF2CA3E4B3EEA50194010E94192FD1
:10440000BB2797FDB095AB2FC80ED91EEA1EFB1E29
:104410008FECC80E8EE0D81EE11CF11C44E0F59430
:10442000E794D794C7944A95D1F7C80CD91CEA1CD5
:10443000FB1CC701B6010E94482DD8016D937D93E6
:104440008D939C9313972F960FB6F894DEBF0FBEF3
:10445000CDBFDF91CF911F910F91FF90EF90DF9033
:10446000CF90BF90AF909F908F907F906F905F9014
:104470004F903F9008950F931F93CF93DF9300D0F9
:104480001F92CDB7DEB78B0124E2FB0111922A9572
:10449000E9F744E250E060E070E0F80140835183C6
:1044A00062837383FC014381548165817681F801C5
:1044B000448355836683778346E050E060E070E094
:1044C0004087518762877387108A118A128A138AFC
:1044D000BE016F5F7F4FD1DD20E030E048EC52E459
:1044E00069817A818B819C810E94AD2CF801648B5B
:1044F000758B868B978B0F900F900F900F90DF919D
:10450000CF911F910F9108950F931F93CF93DF9336
:104510008C01EB0188E2FB0111928A95E9F74BE0EF
:1045200050E06EE975E0CE010E9457301B8641E0F5
:1045300050E060E070E04C875D876E877F87F80110
:10454000458956896789708D488B598B6A8B7B8B1F
:1045500042E050E060E070E04C8B5D8B6E8B7F8BB7
:104560001CA21DA21EA21FA240E050E068E474E459
:10457000488F598F6A8F7B8F40E050E068E474EC7D
:104580004C8F5D8F6E8F7F8F4DEC5CEC6CE47EE327
:1045900048A359A36AA37BA3DF91CF911F910F91E9
:1045A00008952AEA35E0FC0131832083458B568B40
:1045B000678B708F0895CF93DF931F921F92CDB7B3
:1045C000DEB785E399E02A8349830E947716498103
:1045D000642F85E399E00E9420162A81622F85E3EB
:1045E00099E00E94201685E399E00F900F90DF91EB
:1045F000CF910C9494160F931F93CF93DF938C015C
:10460000EB01262F41E06EE1D6DFF801D483C383AE
:10461000C038D10509F45BC0DCF4C034D105A9F180
:10462000C036D10509F442C0A09709F08AC080E0E5
:1046300090E8A9E8B4E48093180290931902A0933B
:104640001A02B0931B0280E090E0A5E7B4E471C0C9
:10465000C03CD10509F44CC0C03ED10509F459C095
:10466000C03AD10509F06DC080E090E0A8ECB3E459
:104670008093180290931902A0931A02B0931B0220
:1046800080E090E0AFE7B3E454C080E090ECA5E5B3
:10469000B4E48093180290931902A0931A02B09385
:1046A0001B0280E090E0AEE3B4E443C080E090E819
:1046B000A7E2B4E48093180290931902A0931A021F
:1046C000B0931B0280E090E0A6E1B4E432C080E049
:1046D00090E0A1EEB3E48093180290931902A093A6
:1046E0001A02B0931B0280E090E0A8ECB3E421C072
:1046F00080E090E0A5EAB3E4809318029093190259
:10470000A0931A02B0931B0280E090E8A3E9B3E4FF
:1047100010C080E090E0A6E6B3E480931802909386
:104720001902A0931A02B0931B0280E090E0ADE45E
:10473000B3E48093140290931502A0931602B093F1
:104740001702DF91CF911F910F910895CF93DF93BF
:10475000EC0185E399E00E945E1620E042E06EE104
:10476000CE0129DF60E270E0CE0145DF81E0DF911C
:10477000CF9108956F927F928F929F92AF92BF9246
:10478000CF92DF92EF92FF920F931F93CF93DF931D
:10479000EC016EE185E399E00E947716E09135091E
:1047A000F09136090190F081E02D63E085E399E016
:1047B000199585E399E00E94941646E06EE185E341
:1047C00099E00E94731685E399E00E94C915069747
:1047D000D4F385E399E00E94D115682E85E399E032
:1047E0000E94D115782E85E399E00E94D115C82E3C
:1047F00085E399E00E94D115D82E85E399E00E94C7
:10480000D115882E85E399E00E94D115982EB62CFB
:10481000A12CA728B501882777FD8095982F0E94A5
:10482000482D6D837E838F839887F82CE12CE928AF
:10483000B701882777FD8095982F0E94482D6987BA
:104840007A878B879C871C2D00E00D29B80188276B
:1048500077FD8095982F0E94482D6D877E878F87E2
:10486000988B198A1A8A1B8A1C8ADF91CF911F9113
:104870000F91FF90EF90DF90CF90BF90AF909F90FF
:104880008F907F906F900895CF92DF92EF92FF927A
:104890000F931F93CF93DF938C01EB0184E2FB0115
:1048A00011928A95E9F7C80165DF84E290E0A0E003
:1048B000B0E088839983AA83BB83F80185899689B0
:1048C000A789B08D8C839D83AE83BF8382E090E007
:1048D000A0E0B0E088879987AA87BB87188A198AE1
:1048E0001A8A1B8AC0901802D0901902E0901A020E
:1048F000F0901B02A70196016581768187819085E2
:104900000E94AD2C20E030E048EC52E40E94FC2DE7
:104910006C8B7D8B8E8B9F8BA7019601F801618537
:104920007285838594850E94AD2C20E030E048ECB0
:1049300052E40E94FC2D688F798F8A8F9B8F209183
:104940001402309115024091160250911702F8019D
:1049500065857685878590890E94AD2C20E030E0C2
:1049600048EC52E40E94FC2D6C8F7D8F8E8F9F8FC0
:10497000DF91CF911F910F91FF90EF90DF90CF903B
:104980000895DC01ED91FC910190F081E02D1994E6
:10499000089585E399E00C945E1608950F931F9394
:1049A000CB01A0E0B0E0BA2FA92F982F8827842B45
:1049B000E7E1F0E040E050E868E970E08C019D013B
:1049C0000E2E04C036952795179507950A94D2F7B1
:1049D00000FF04C084279527A627B72776956795FB
:1049E000579547953197E730F10541F71F910F91A2
:1049F0000895EF92FF920F931F93CF93DF937C0163
:104A000060E470E085E399E00E94811665EF70E054
:104A100085E399E0B6DF85E399E00E94941667E3A9
:104A200070E080E090E020D243E050E060E470E08D
:104A300085E399E00E94751605E610E085E399E0AC
:104A40000E94C91503976CF461E070E080E090E08B
:104A50000BD20150110991F760E070E889E794E406
:104A600033C085E399E00E94D115082F85E399E0D2
:104A70000E94D115182F85E399E00E94D115D02FFF
:104A800090E0C92FC12B482FBE01C70187DF8111DC
:104A900017C0BE016C7F80E090E0F8D720E030E0E6
:104AA00040E857E30E94FC2D20E030E04AEF52E45A
:104AB0000E94FC2D20E030E040EC50E4E5D604C03C
:104AC00060E070EC89E794E4DF91CF911F910F9142
:104AD000FF90EF900895EF92FF920F931F93CF9363
:104AE000DF937C0160E470E085E399E00E94811629
:104AF00063EF70E085E399E044DF85E399E00E948D
:104B0000941667E370E080E090E0AED143E050E0BF
:104B100060E470E085E399E00E94751605E610E018
:104B200085E399E00E94C91503976CF461E070E099
:104B300080E090E099D10150110991F760E070E8B0
:104B400089E794E433C085E399E00E94D115082FEA
:104B500085E399E00E94D115182F85E399E00E9422
:104B6000D115D02F90E0C92FC12B482FBE01C7010E
:104B700015DF811117C0BE016C7F80E090E086D701
:104B800020E030E040E857E30E94FC2D22E538EBBE
:104B90004FE253E40E94FC2D26E636E64BE352E456
:104BA00073D604C060E070EC89E794E4DF91CF91A4
:104BB0001F910F91FF90EF90089590E0FC013197C5
:104BC000E231F10508F04CC0EE58FF4F0C94072F6E
:104BD000809180008F7703C0809180008F7D8093CB
:104BE0008000089580918000877FF9CF84B58F770A
:104BF00002C084B58F7D84BD08958091B0008F7709
:104C000003C08091B0008F7D8093B00008958091A3
:104C100090008F7707C0809190008F7D03C08091B6
:104C20009000877F8093900008958091A0008F77F7
:104C300007C08091A0008F7D03C08091A000877F76
:104C40008093A0000895809120018F7707C0809104
:104C500020018F7D03C080912001877F80932001F8
:104C60000895CF93DF9390E0FC01E25BFE4F249127
:104C7000FC01EC56FE4F8491882349F190E0880FA7
:104C8000991FFC01E25FFD4FA591B4918C509E4F9E
:104C9000FC01C591D4919FB7611108C0F8948C9123
:104CA000209582238C93888182230AC0623051F43C
:104CB000F8948C91322F309583238C938881822BAA
:104CC000888304C0F8948C91822B8C939FBFDF91D2
:104CD000CF9108950F931F93CF93DF931F92CDB77A
:104CE000DEB7282F30E0F901E85FFE4F8491F9012B
:104CF000E25BFE4F1491F901EC56FE4F0491002344
:104D0000C1F0882319F0698358DF6981E02FF0E052
:104D1000EE0FFF1FEC50FE4FA591B4919FB7F89492
:104D20008C91611103C01095812301C0812B8C935C
:104D30009FBF0F90DF91CF911F910F910895CF9357
:104D4000DF93282F30E0F901E85FFE4F8491F901ED
:104D5000E25BFE4FD491F901EC56FE4FC491CC2397
:104D600089F081112ADFEC2FF0E0EE0FFF1FE652F1
:104D7000FE4FA591B4912C912D2381E090E021F478
:104D800080E002C080E090E0DF91CF9108951F9213
:104D90000F920FB60F9211242F933F938F939F93EF
:104DA000AF93BF9380910E0A90910F0AA091100AC1
:104DB000B091110A30910D0A23E0230F2D3720F412
:104DC0000196A11DB11D05C026E8230F0296A11D65
:104DD000B11D20930D0A80930E0A90930F0AA093A1
:104DE000100AB093110A8091120A9091130AA091AF
:104DF000140AB091150A0196A11DB11D8093120AE3
:104E00009093130AA093140AB093150ABF91AF911F
:104E10009F918F913F912F910F900FBE0F901F90F8
:104E200018953FB7F8948091120A9091130AA091B7
:104E3000140AB091150A26B5A89B05C02F3F19F09A
:104E40000196A11DB11D3FBF6627782F892F9A2F8C
:104E5000620F711D811D911D42E0660F771F881F33
:104E6000991F4A95D1F70895CF92DF92EF92FF9262
:104E7000CF93DF936B017C01D4DFEB01C114D1042C
:104E8000E104F10479F0A6D0CCDF6C1B7D0B683E09
:104E90007340A0F381E0C81AD108E108F108C851B5
:104EA000DC4FECCFDF91CF91FF90EF90DF90CF9070
:104EB0000895019739F0880F991F880F991F02975D
:104EC0000197F1F70895789484B5826084BD84B524
:104ED000816084BD85B5826085BD85B5816085BDF5
:104EE000EEE6F0E0808181608083E1E8F0E010820E
:104EF000808182608083808181608083E0E8F0E04F
:104F0000808181608083E1EBF0E080818460808338
:104F1000E0EBF0E0808181608083E1E9F0E0808176
:104F200082608083808181608083E0E9F0E080811D
:104F300081608083E1EAF0E080818260808380810B
:104F400081608083E0EAF0E0808181608083E1E23B
:104F5000F1E0808182608083808181608083E0E2F3
:104F6000F1E0808181608083EAE7F0E08081846005
:104F70008083808182608083808181608083808162
:104F8000806880831092C1000895863308F08653AC
:104F900020917B00982F9870277F922B90937B0015
:104FA000877020911C0290E4299F90011124822B8C
:104FB00080937C0080917A00806480937A00809155
:104FC0007A0086FDFCCF809178002091790090E0F6
:104FD000922B08950895DCC71F920F920FB60F927F
:104FE00011240BB60F922F938F939F93EF93FF9300
:104FF000E091260AF091270A8081E0912C0AF09135
:105000002D0A82FD12C0908180912F0A8F5F8F73CD
:105010002091300A821751F0E0912F0AF0E0EA5E09
:10502000F54F958F80932F0A01C08081FF91EF91FA
:105030009F918F912F910F900BBE0F900FBE0F90ED
:105040001F9018951F920F920FB60F9211240BB656
:105050000F922F933F934F935F936F937F938F9311
:105060009F93AF93BF93EF93FF9386E19AE0CDD0E8
:10507000FF91EF91BF91AF919F918F917F916F9130
:105080005F914F913F912F910F900BBE0F900FBEEC
:105090000F901F90189586E19AE04ED021E0892B61
:1050A00009F420E0822F08951092190A1092180A2C
:1050B00088EE93E0A0E0B0E080931A0A90931B0A78
:1050C000A0931C0AB0931D0A84EB95E09093170AF5
:1050D0008093160A85EC90E09093230A8093220A2D
:1050E00084EC90E09093250A8093240A80EC90E071
:1050F0009093270A8093260A81EC90E09093290AE6
:105100008093280A82EC90E090932B0A80932A0ADD
:1051100086EC90E090932D0A80932C0A10922F0A2F
:105120001092300A1092310A1092320A089570E0FB
:105130009B01382BC9010895FC01818D228D90E0DF
:10514000805C9F4F821B91098F7399270895FC0102
:10515000918D828D981731F0828DE80FF11D858D2C
:1051600090E008958FEF9FEF0895FC01918D828D5F
:10517000981761F0828DDF01A80FB11D5D968C91AB
:10518000928D9F5F9F73928F90E008958FEF9FEFB6
:1051900008958BE498E2892B39F080E090E0892B28
:1051A00019F079DF811125C080E090E0892B41F072
:1051B00080E090E0892B21F00E94000081111CC04A
:1051C00080E090E0892B41F080E090E0892B21F095
:1051D0000E940000811113C080E090E0892BA1F0B3
:1051E00080E090E0892B81F00E94000081110AC0CC
:1051F00008950E940000D8CF0E940000E1CF0E94D5
:105200000000EACF0C9400000895FC01848DDF01BA
:10521000A80FB11DA35ABF4F2C91848D90E0019629
:105220008F739927848FA689B7892C93A089B18918
:105230008C9180648C93938D848D981306C0028822
:10524000F389E02D80818F7D80830895CF93DF9354
:10525000EC01888D8823C1F0EA89FB89808185FD76
:1052600005C0A889B9898C9186FD0EC00FB607FCD0
:10527000F5CF808185FFF2CFA889B9898C9185FF10
:10528000EDCFCE01C2DFE8CFDF91CF910895CF926D
:10529000DF92FF920F931F93CF93DF931F92CDB7AF
:1052A000DEB76C01DC015B969C915B975C968C9100
:1052B0005C97981307C05096ED91FC9151978081AF
:1052C00085FD31C0F601038D10E00F5F1F4F0F7396
:1052D0001127F02EF601848DF81210C00FB607FCCE
:1052E000F9CFD6015096ED91FC915197808185FFC1
:1052F000F1CFC601698389DF6981ECCF838DE80F27
:10530000F11DE35AFF4F6083D6015B960C935B97C8
:105310005296ED91FC91539780818062808381E069
:1053200058968C930DC0D6015696ED91FC915797E7
:1053300060835096ED91FC915197808180648083C9
:1053400081E090E00F90DF91CF911F910F91FF903E
:10535000DF90CF900895BF92CF92DF92EF92FF92AD
:10536000CF93DF93EC016A017B01B22EE889F989C2
:1053700082E08083411581EE58076105710599F03F
:1053800060E079E08DE390E0A701960102D521501D
:1053900031094109510956954795379527952115AA
:1053A00080E1380790F0E889F989108260E874E8B4
:1053B0008EE190E0A7019601ECD42150310941091A
:1053C00051095695479537952795EC85FD8530838E
:1053D000EE85FF852083188EEC89FD89B082EA89ED
:1053E000FB89808180618083EA89FB898081886074
:1053F0008083EA89FB89808180688083EA89FB89D0
:1054000080818F7D8083DF91CF91FF90EF90DF903F
:10541000CF90BF900895089556DDFDDF0E945D1284
:10542000C9ECD8E20E948F0B2097E1F3B2DEFACFED
:10543000CF92DF92EF92FF920F931F93CF93DF9360
:105440006C017A01EB01E60EF71E00E010E0CE15CC
:10545000DF0561F06991D601ED91FC910190F08139
:10546000E02DC6011995080F191FF1CFC801DF9172
:10547000CF911F910F91FF90EF90DF90CF90089503
:105480006115710581F0DB010D900020E9F7AD0198
:1054900041505109461B570BDC01ED91FC910280F4
:1054A000F381E02D199480E090E00895E9CFDC01CC
:1054B000ED91FC910190F081E02D19940F931F93D1
:1054C000CF93DF93EC016DE0F2DF8C016AE0CE0157
:1054D000EEDF800F911FDF91CF911F910F91089503
:1054E0000F931F93CF93DF93EC01CADF8C01CE01A2
:1054F000E5DF800F911FDF91CF911F910F910895EC
:105500008F929F92AF92BF92CF92DF92EF92FF92D3
:105510000F931F93CF93DF93CDB7DEB7A1970FB64D
:10552000F894DEBF0FBECDBF7C01C42EE52FCB01AA
:10553000D22E19A221E02D1510F02AE0D22E8E01D4
:105540000F5D1F4F8D2C912CA12CB12C6C2D7E2F1B
:10555000A50194011ED48C2DD29E801911240150D6
:1055600011098A3014F4805D01C0895CF8018083E0
:10557000211531054105510521F0C22EE32FCA0145
:10558000E5CFB801C7017CDFA1960FB6F894DEBF66
:105590000FBECDBFDF91CF911F910F91FF90EF9084
:1055A000DF90CF90BF90AF909F908F900895CF9253
:1055B000DF92EF92FF920F931F93CF93DF93EC0153
:1055C0006A017B012115310579F4E881F9810190A7
:1055D000F081E02D642FDF91CF911F910F91FF900B
:1055E000EF90DF90CF9019942A303105D9F477FFEE
:1055F00018C06DE25CDF8C0144275527BA014C19B5
:105600005D096E097F092AE0CE017ADF800F911FC4
:10561000DF91CF911F910F91FF90EF90DF90CF908E
:1056200008952AE0B701A601CE01DF91CF911F9125
:105630000F91FF90EF90DF90CF9062CF9A01AB0176
:10564000662757FD6095762FB2CF0F931F93CF93A8
:10565000DF93EC019A01AB01662757FD6095762F29
:10566000A6DF8C01CE012ADF800F911FDF91CF9141
:105670001F910F9108952115310541F4DC01ED9141
:10568000FC910190F081E02D642F199439CF0F9394
:105690001F93CF93DF93EC019A01462F50E060E017
:1056A00070E0E9DF8C01CE0109DF800F911FDF91EF
:1056B000CF911F910F9108954F925F926F927F92B9
:1056C0008F929F92AF92BF92CF92DF92EF92FF9212
:1056D0000F931F93CF93DF93EC016A017B01B22EEE
:1056E0009A01AB01C701B6012CD3882319F060ECF5
:1056F00075E024C026013701E89477F82FEF3FEFDB
:105700004FE75FE7C301B2011CD381110CC02FEF3B
:105710003FEF4FE75FE7C301B2011BD118161CF43E
:1057200064EC75E00BC02FEF3FEF4FE75FE4C7017C
:10573000B6015ED21816A4F468EC75E0CE01DF91D4
:10574000CF911F910F91FF90EF90DF90CF90BF907E
:10575000AF909F908F907F906F905F904F9090CE82
:105760002FEF3FEF4FE75FECC701B601F2D087FDA7
:10577000E3CF20E030E0A901C701B601EAD087FFFE
:1057800009C06DE2CE0193DE8C01F7FAF094F7F8D0
:10579000F09402C000E010E0A12C60E070E080E036
:1057A0009FE3AB1439F020E030E040E251E4D5D083
:1057B000A394F7CF9B01AC01C701B60166D06B0182
:1057C0007C0138D12B013C0161D19B01AC01C701A7
:1057D000B6015AD06B017C012AE0B301A201CE01CF
:1057E0008FDE080F191FBB2031F06DE775E0CE0189
:1057F00047DE080F191F7B2C772019F120E030E0DD
:1058000040E251E4C701B601F7D16B017C010DD133
:105810004B01AA2497FCA094BA2C2AE030E0B501F1
:10582000A401CE01C4DE080F191FC501B40130D197
:105830009B01AC01C701B60127D06B017C017A94B2
:10584000DBCFC801DF91CF911F910F91FF90EF90B7
:10585000DF90CF90BF90AF909F908F907F906F9090
:105860005F904F90089528CF0F931F93CF93DF93AE
:10587000EC0122DF8C01CE0121DE800F911FDF9130
:10588000CF911F910F9108955058BB27AA270ED092
:1058900075C166D130F06BD120F031F49F3F11F427
:1058A0001EF45BC10EF4E095E7FB51C1E92F77D1FF
:1058B00080F3BA17620773078407950718F071F42D
:1058C0009EF58FC10EF4E0950B2EBA2FA02D0B0183
:1058D000B90190010C01CA01A0011124FF27591B35
:1058E00099F0593F50F4503E68F11A16F040A22F3B
:1058F000232F342F4427585FF3CF469537952795AC
:10590000A795F0405395C9F77EF41F16BA0B620BAA
:10591000730B840BBAF09150A1F0FF0FBB1F661FF1
:10592000771F881FC2F70EC0BA0F621F731F841F34
:1059300048F4879577956795B795F7959E3F08F05A
:10594000B3CF9395880F08F09927EE0F9795879519
:105950000895D9D008F481E008950CD00FC107D183
:1059600040F0FED030F021F45F3F19F0F0C051114B
:1059700039C1F3C014D198F39923C9F35523B1F376
:10598000951B550BBB27AA2762177307840738F0AE
:105990009F5F5F4F220F331F441FAA1FA9F333D00D
:1059A0000E2E3AF0E0E830D091505040E695001CC1
:1059B000CAF729D0FE2F27D0660F771F881FBB1F7D
:1059C000261737074807AB07B0E809F0BB0B802D57
:1059D000BF01FF2793585F4F2AF09E3F510568F0A3
:1059E000B6C000C15F3FECF3983EDCF38695779537
:1059F0006795B795F7959F5FC9F7880F911D9695A5
:105A0000879597F90895E1E0660F771F881FBB1F00
:105A1000621773078407BA0720F0621B730B840BAD
:105A2000BA0BEE1F88F7E095089504D06894B11181
:105A3000D9C00895BCD088F09F5790F0B92F99270E
:105A4000B751A0F0D1F0660F771F881F991F1AF089
:105A5000BA95C9F712C0B13081F0C3D0B1E0089552
:105A6000C0C0672F782F8827B85F39F0B93FCCF3D3
:105A7000869577956795B395D9F73EF4909580957F
:105A8000709561957F4F8F4F9F4F0895E89409C09F
:105A900097FB3EF490958095709561957F4F8F4F61
:105AA0009F4F9923A9F0F92F96E9BB279395F69577
:105AB000879577956795B795F111F8CFFAF4BB0FF5
:105AC00011F460FF1BC06F5F7F4F8F4F9F4F16C059
:105AD000882311F096E911C0772321F09EE8872FE3
