:100000000C94E7000C9418010C9418010C9418013E
:100010000C9418010C9418010C9418010C941801FC
:100020000C9418010C9418010C94D1090C946308D9
:100030000C9418010C9418010C9418010C941801DC
:100040000C9418010C9418010C9418010C941801CC
:100050000C9418010C9418010C9418010C94A00332
:100060000C9418010C9418010C9418010C941801AC
:100070000C9418010C9418010C9418010C9418019C
:100080000C9418010C9418010C9418010C9418018C
:100090000C9473020C9418010C9418010C94180120
:1000A0000C9418010C9418010C941801A304A604D4
:1000B000950499049F04C704C704C704AA04AE04A6
:1000C000B204B804BC04C704C20400000002000962
:1000D0000F0000030401000C0000000000000000FD
:1000E0000000000000000000000408020110408031
:1000F000401020408040800802040180402010020F
:10010000011080102040402004040404040304056E
:1001100002020202040302020202060606060606A4
:100120000404020202040400000000250028002B41
:10013000002E00310000000000240027002A002DBE
:10014000003000080B000202020100090400000157
:10015000020200000524001001052401010104240D
:10016000020605240600010705810310004009046A
:100170000100020A00000007050202400000070516
:10018000830240000012010002EF020140412337C8
:100190008000010102030112010002000000404141
:1001A00023378000010102030141726475696E6F9B
:1001B000204C4C430041726475696E6F204D696339
:1001C000726F000403090400830128021E06112433
:1001D0001FBECFEFDAE0DEBFCDBF14BE88E10FB6A1
:1001E000F89480936000109260000FBE11E0A0E0D0
:1001F000B1E0E2E4F6E102C005900D92A433B1074C
:10020000D9F722E0A4E3B1E001C01D92A336B20702
:10021000E1F711E0CEECD1E004C02297FE010E948C
:100220001B0BC83CD107C9F70E946A0A0C941F0B2C
:100230000C94000064E670E080E090E00E940D0401
:10024000F9CF61E08DE00E94C80461E089E00E947E
:10025000C80461E080E00E94C80461E081E00E947F
:10026000C80461E084E00E94C80461E085E10E9466
:10027000C80461E086E00E94C80461E088E00E9452
:10028000C80461E08AE00E94C80461E08CE00E943A
:10029000C80460E085E00E94C80460E087E00E9436
:1002A000C80460E086E10E94C80460E08BE00E9420
:1002B000C80460E087E10C94C80461E088E00C9415
:1002C000010568EE73E080E090E00E940D040E945A
:1002D000210168EE73E080E090E00E940D040E942E
:1002E0005D0140E052EC61E070E08CEF91E00E9433
:1002F000180684E391E00E941E0268EE73E080E03D
:1003000090E00C940D0484E391E00C941E02809123
:10031000630190E020916401821B9109089520916E
:10032000640180916301281750F4E22FF0E0EB594B
:10033000FE4F808190E02F5F2093640108958FEF3E
:100340009FEF0895E091640180916301E81730F414
:10035000F0E0EB59FE4F808190E008958FEF9FEF22
:1003600008950895CF92DF92EF92FF920F931F931B
:10037000CF93DF937C01CB018A012091400122239E
:1003800089F0EB016B01C40ED51ECC15DD0569F0BB
:100390006991D701ED91FC910190F081E02DC701A9
:1003A0000995F3CF642F0E944A02C801DF91CF91D3
:1003B0001F910F91FF90EF90DF90CF900895CF9312
:1003C000DF931F92CDB7DEB76983209140012223CE
:1003D000D1F020914101203240F021E030E0FC01D9
:1003E0003383228380E090E015C080914201E82FA2
:1003F000F0E0ED5BFE4F998190838F5F8093420127
:100400008093410105C061E0CE0101960E944A023D
:1004100081E090E00F90DF91CF910895FC0113826D
:10042000128248EE53E060E070E0448355836683B7
:10043000778387E191E0918380830895109264012E
:100440001092630110924201109241010C942C020F
:1004500084E391E00C940E021092F20181E080930B
:10046000F0011092EF0161E082E00E94010561E07D
:1004700083E00E940105E9EBF0E080818E7F8083BC
:1004800080818D7F808388E48093B80085E48093A9
:10049000BC000895613298F42091F201243089F46F
:1004A0006093A701FC0189EA91E0DC012A2F281B57
:1004B000261718F421912D93F9CF80E0089581E05B
:1004C000089582E0089585ED8093BC008091BC0082
:1004D00084FDFCCF1092F201089585EC8093BC005E
:1004E0001092F20108951F920F920FB60F921124ED
:1004F0002F933F934F935F936F937F938F939F932C
:10050000AF93BF93EF93FF938091B900887F8036BC
:1005100009F49EC078F5883209F45DC090F480310A
:1005200009F456C038F4882309F4F5C0883009F47A
:100530004FC0F5C0883109F44EC0803209F45FC065
:10054000EEC0803409F46AC058F4803309F457C00F
:10055000883309F0E4C0809385010E946D02DFC0FA
:10056000803509F44FC0883509F45DC0883409F03E
:10057000D6C0D3C0883909F4C4C0A8F4883709F4B8
:1005800067C038F4883609F463C0803709F460C066
:10059000C6C0883809F4B5C0803909F45FC0803816
:1005A00009F0BDC05BC0803B09F483C038F4803AD9
:1005B00009F466C0883A09F47CC0B1C0803C09F4F3
:1005C000A4C0883C09F4A1C0883B09F487C0A7C037
:1005D0008091F10110C09091CA018091C9019817D2
:1005E00070F5E091CA0181E08E0F8093CA01F0E0BE
:1005F000E553FE4F80818093BB0085EC83C08093E0
:1006000085018BC0E091CA0181E08E0F8093CA0101
:100610008091BB00F0E0E553FE4F80839091CA01CA
:100620008091C9016BC0E091CA0181E08E0F809377
:10063000CA018091BB00F0E0E553FE4F80838091BA
:10064000F00181116AC081E08093EF0184EA5EC00D
:1006500083E08093F20110928601CFCF80918601D2
:10066000803208F04EC0E091860181E08E0F8093C9
:1006700086018091BB00F0E0E957FE4F8083BDCF3B
:100680000E946D0280918601803230F4E0918601F3
:10069000F0E0E957FE4F10826091860170E0E09132
:1006A000EB01F091EC0187E891E009951092860149
:1006B00036C084E08093F2011092A8011092A70145
:1006C000E091ED01F091EE0109958091A701811172
:1006D00005C081E08093A7011092A901E091A801D3
:1006E00081E08E0F8093A801F0E0E755FE4F8081F6
:1006F0008093BB009091A8018091A701981708F4FE
:100700007CCF85E88093BC000AC085EC8093BC0058
:100710001092F20104C0109285010E946302FF91C1
:10072000EF91BF91AF919F918F917F916F915F9169
:100730004F913F912F910F900FBE0F901F901895E2
:100740001F920F920FB60F9211242F933F938F9306
:100750009F93AF93BF938091F4019091F501A09185
:10076000F601B091F7013091F30123E0230F2D370B
:1007700020F40196A11DB11D05C026E8230F0296A5
:10078000A11DB11D2093F3018093F4019093F50115
:10079000A093F601B093F7018091F8019091F901CF
:1007A000A091FA01B091FB010196A11DB11D8093AA
:1007B000F8019093F901A093FA01B093FB01BF9166
:1007C000AF919F918F913F912F910F900FBE0F90FE
:1007D0001F9018953FB7F8948091F8019091F90116
:1007E000A091FA01B091FB0126B5A89B05C02F3F4F
:1007F00019F00196A11DB11D3FBF6627782F892FE3
:100800009A2F620F711D811D911D42E0660F771FA7
:10081000881F991F4A95D1F70895CF92DF92EF92E2
:10082000FF92CF93DF936B017C010E94EA03EB01FF
:10083000C114D104E104F10489F00E947D0A0E94F0
:10084000EA036C1B7D0B683E734090F381E0C81A8D
:10085000D108E108F108C851DC4FEACFDF91CF9110
:10086000FF90EF90DF90CF900895789484B58260E8
:1008700084BD84B5816084BD85B5826085BD85B544
:10088000816085BDEEE6F0E0808181608083E1E8F3
:10089000F0E010828081826080838081816080832B
:1008A000E0E8F0E0808181608083E1E9F0E0808130
:1008B00082608083808181608083E0E9F0E08081D4
:1008C00081608083E1ECF0E08081846080838081BE
:1008D00082608083808181608083E3ECF0E08081AE
:1008E00081608083E0ECF0E0808182608083E2ECD4
:1008F000F0E0808181608083EAE7F0E080818460BD
:100900008083808182608083808181608083808118
:1009100080688083089590E0FC013197EF30F10505
:10092000B0F5EA5AFF4F0C94190B809180008F7735
:1009300003C0809180008F7D809380000895809116
:100940008000877FF9CF84B58F7702C084B58F7D13
:1009500084BD0895809190008F7707C080919000AA
:100960008F7D03C080919000877F809390000895D1
:100970008091C0008F7703C08091C0008F7D8093ED
:10098000C00008958091C200877F8093C2000895BF
:10099000CF93DF9390E0FC01E751FF4F2491FC01DE
:1009A000E85FFE4F8491882349F190E0880F991FFA
:1009B000FC01EB5CFE4FA591B491895D9E4FFC015B
:1009C000C591D4919FB7611108C0F8948C9120957E
:1009D00082238C93888182230AC0623051F4F89478
:1009E0008C91322F309583238C938881822B88833E
:1009F00004C0F8948C91822B8C939FBFDF91CF9190
:100A000008950F931F93CF93DF931F92CDB7DEB757
:100A1000282F30E0F901E653FF4F8491F901E751A7
:100A2000FF4F1491F901E85FFE4F04910023C9F0D4
:100A3000882321F069830E948B046981E02FF0E014
:100A4000EE0FFF1FE95DFE4FA591B4919FB7F8949B
:100A50008C91611103C01095812301C0812B8C936F
:100A60009FBF0F90DF91CF911F910F910895CF936A
:100A7000DF931F92CDB7DEB76983DC01ED91FC9166
:100A80000280F381E02D41E050E0BE016F5F7F4FB7
:100A900009950F90DF91CF910895CF93DF93EC01EB
:100AA0008C859D8597FF05C082E00E944C079D873D
:100AB0008C878C859D85DF91CF91089583E00C9480
:100AC000C709FC018485958597FD06C082E00E94D8
:100AD000F40690E00196089582E00E94F40690E00A
:100AE0000895FC018485958597FD05C02FEF3FEFA4
:100AF00035872487089582E00C944C07CF93DF93C9
:100B0000EC0180910B01882331F083E00E947D0786
:100B10001816190634F081E090E09B838A8380E008
:100B200090E0DF91CF910895FC0120812E5F20831A
:100B300042E450E063E471E080E80C941808FC01A2
:100B400021818081813A59F4213209F05CC047E06B
:100B500050E064E071E080E00E94180867C08132D4
:100B600009F051C0233289F4838190E0982F8827BF
:100B70003281832BA0E0B0E08093000190930101CB
:100B8000A0930201B09303010FC0203239F467E053
:100B900070E084E091E00E9449080AC0223221F40A
:100BA000828180930B0104C02D7F203209F03EC06A
:100BB0008091040190910501A0910601B091070177
:100BC000803B9440A105B10501F580910B0180FDAA
:100BD0001CC080910008909101089093FF0A8093B7
:100BE000FE0A87E797E790930108809300082BE0BF
:100BF00088E190E00FB6F894A895809360000FBE4E
:100C00002093600013C080E0089588E10FB6F89447
:100C100080936000109260000FBEA8958091FE0A3C
:100C20009091FF0A909301088093000881E0089555
:100C30002FEF3FEFFC013587248708951092FF01C5
:100C40001092FE0188EE93E0A0E0B0E080930002F5
:100C500090930102A0930202B093030287E291E015
:100C60009093FD018093FC018FEF9FEF9093090219
:100C7000809308020895615030F02091F100FC014A
:100C800020830196F8CF289A84E680935502089530
:100C9000409150025091510220914E0230914F02EA
:100CA00042175307B4F49091E8009570E1F39091E6
:100CB000E80092FD19C08093F1008091500290915C
:100CC000510201968F739927892B19F48EEF809327
:100CD000E800809150029091510201969093510248
:100CE0008093500281E0089580E00895CF92DF92D2
:100CF000EF92FF920F931F93CF93DF931F92CDB785
:100D0000DEB7082F162FF42E862F880F8E5F99835B
:100D10000E94480683E00E944806E02EC02E99817A
:100D2000D92E8C2D8E19811798F4F601F7FE02C08A
:100D3000849101C080810E944806082F80E00E94B3
:100D400048068023FFEFCF1ADF0A8111EACF01C0E6
:100D500081E00F90DF91CF911F910F91FF90EF9065
:100D6000DF90CF9008958091D70081608093D70065
:100D700080EA8093D80089B5806189BD89B5826099
:100D800089BD09B400FEFDCF61E070E080E090E035
:100D90000E940D048091D8008F7C80618093D800E0
:100DA0008091E000807F8093E0000895CF93DF93EF
:100DB0001F92CDB7DEB71982CE0101960E9494052D
:100DC0000E94050BBE016F5F7F4F0E947E0A8981E2
:100DD0000F90DF91CF9108952FB7FC012083F894F5
:100DE00067706093E9000895CF93DF931F92CDB7AA
:100DF000DEB7682FCE0101960E94EC068091F200CA
:100E000099819FBF0F90DF91CF910895FF920F932B
:100E10001F93CF93DF9300D0CDB7DEB7F62E8A01B4
:100E200090915402992311F057FF03C08FEF9FEF69
:100E30002BC0682FCE0101967A830E94EC06809128
:100E4000F20090E0A8017A81801791070CF4AC01C0
:100E5000EF2DF72FF40E84E6FE1639F0289A8093D2
:100E600055029091F1009193F7CF4115510521F072
:100E70008091F200882321F089818FBFCA0104C0CC
:100E80008BE68093E800F8CF0F900F90DF91CF9121
:100E90001F910F91FF900895CF93DF931F92CDB7CD
:100EA000DEB741E050E0BE016F5F7F4F0E94060752
:100EB000019719F4898190E002C08FEF9FEF0F90A6
:100EC000DF91CF910895CF93DF931F92CDB7DEB717
:100ED000682FCE0101960E94EC069091E800892FC0
:100EE000807295FF04C09091F20080E4891B998183
:100EF0009FBF0F90DF91CF9108956F927F928F9255
:100F00009F92AF92BF92CF92DF92EF92FF920F9398
:100F10001F93CF93DF931F92CDB7DEB7782E7B015F
:100F2000C42EB52E80915402882369F0042F152F0A
:100F30008AEFD82E872D8072982E9AE3A92E872DBE
:100F40008074882E11C08FEF9FEF57C0872D0E94AD
:100F50006307682E81110CC0DA94A9F361E070E098
:100F600080E090E00E940D040115110579F73BC067
:100F7000282F30E0021713070CF4602E672DCE01E6
:100F800001960E94EC068091E80085FF29C0262D7D
:100F900030E0021B130B992039F06A948FEF68162A
:100FA000B1F01092F100F9CFF701862D77FE07C05E
:100FB000815058F094919093F1003196F9CF81507F
:100FC00020F091919093F100FACFE20EF31E809100
:100FD000E80085FF0FC00115110511F481100AC04A
:100FE00089818FBFC1CF5D9A84E6809356028C2D94
:100FF0009B2D03C0A092E800F3CF0F90DF91CF911B
:101000001F910F91FF90EF90DF90CF90BF90AF9026
:101010009F908F907F906F9008951092E9001092AA
:1010200051021092500290934F0280934E02089505
:10103000CF92DF92FF920F931F93CF93DF9300D055
:10104000CDB7DEB7F82E8A016B0101151105B1F09D
:10105000F601F7FE02C0849101C0808149835A8362
:101060000E94480601501109FFEFCF1ADF0A49819B
:101070005A818111EACF8FEF9FEF01C0CA010F9013
:101080000F90DF91CF911F910F91FF90DF90CF9044
:1010900008951F93CF93DF931F92CDB7DEB7162F1E
:1010A0002091E80022FFFCCF612F79830E943B064C
:1010B0008BEF8093E800812F7981972F0F90DF913C
:1010C000CF911F9108951F920F920FB60F92112486
:1010D000DF92EF92FF920F931F932F933F934F93C3
:1010E0005F936F937F938F939F93AF93BF93EF9390
:1010F000FF93CF93DF93CDB7DEB76C97DEBFCDBF45
:101100001092E9008091E80083FF23C168E0CE01DE
:1011100045960E943B0682EF8093E8003D8937FFA9
:1011200005C08091E80080FFFCCF03C08EEF809364
:10113000E800832F807609F0F0C02E894F89D88C83
:1011400021110CC0303829F4809153028093F100B2
:1011500002C01092F1001092F100F4C0842F90E0D0
:101160009D29213049F43111EDC0019709F0EAC001
:10117000809153028D7F0AC0233059F43111E2C0AF
:10118000019709F0DFC0809153028260809353027F
:10119000D9C0253041F48091E80080FFFCCF406841
:1011A0004093E300CFC0263009F08DC0EB8CFC8C5F
:1011B00022E0D2122CC080E090E00E940D080E9434
:1011C000D60699E08E010F5F1F4FF801292F11926B
:1011D0002A95E9F79983DA8291E09E8390EA9887CD
:1011E0009AEF99872091500230915102275F3F4F2B
:1011F0003C832B838D83C7010E940D0849E050E09A
:10120000B80180E00E9418080E94D6069BC0C70162
:101210000E940D080E94050BBE016B5E7F4F0E946D
:10122000A70A009719F00CF08DC090C081E0D81289
:101230000EC08B8D9C8D089719F481E080934D0230
:1012400080914D0281112FC067E971E031C0E3E068
:10125000DE127CC08F89882349F1823029F440E86E
:101260006DE085EB91E01CC0813029F440E86BE033
:1012700089EA91E015C0833009F068C00E94050B2F
:101280008E010F5F1F4FB8010E94C60AF80101903E
:101290000020E9F73197E01BF10B40E06E2FC80109
:1012A0000E9476064DC065E871E002C063EC71E013
:1012B0006115710509F44AC0FB01449150E080E8D2
:1012C0000E9418083FC0273009F440C0283021F49C
:1012D00081E08093F10036C02930A1F53370B1F57B
:1012E000EDE0F1E081E021E036E39081992361F0C7
:1012F0008093E9002093EB0091919093EC00309360
:10130000ED008F5F873089F78EE78093EA001092B7
:10131000EA008F898093540215C08B8D9C8D0E94AA
:101320000D08898D811105C0CE0145960E949F054B
:1013300007C00E94050BBE016B5E7F4F0E94E50A4D
:10134000882321F08EEF8093E80003C081E2809330
:10135000EB006C960FB6F894DEBF0FBECDBFDF91E9
:10136000CF91FF91EF91BF91AF919F918F917F911D
:101370006F915F914F913F912F911F910F91FF902E
:10138000EF90DF900F900FBE0F901F9018958093F5
:10139000E9008091F200882319F08AE38093E80045
:1013A00008951F920F920FB60F9211242F933F931F
:1013B0004F935F936F937F938F939F93AF93BF935D
:1013C000CF93EF93FF93C091E1008091E100837F81
:1013D0008093E1008093E100C3FF0FC01092E90009
:1013E00081E08093EB001092EC0082E38093ED00AB
:1013F0001092540288E08093F000C2FF19C083E08D
:101400000E94C70980915602882339F080915602C4
:10141000815080935602882389F180915502882358
:1014200039F080915502815080935502882341F113
:10143000C4FF10C08091E2008E7E81608093E20044
:101440008091E1008F7E8093E100809152028E7E38
:10145000806111C0C0FF16C08091E2008E7E806165
:101460008093E2008091E1008E7E8093E100809184
:1014700052028E7E81608093520204C05D98CDCF6F
:101480002898D6CFFF91EF91CF91BF91AF919F91C7
:101490008F917F916F915F914F913F912F910F901D
:1014A0000FBE0F901F901895109254021092530285
:1014B000109252020E94B306E1EEF0E080818E7E2F
:1014C00080838DE08093E200559A209A5D98289859
:1014D000089508950E9435040E94690A8CE492E000
:1014E0000E94540A0E946101C0E0D0E00E941A01EB
:1014F0002097E1F30E940000F9CF0895EF92FF9248
:101500000F931F93CF93DF937B01FC01C281D381A3
:1015100000E010E0209781F0E881F9810280F381FA
:10152000E02DB701CE01099597FD08C0080F191FDE
:101530000884D985C02DEECFC80102C08FEF9FEF80
:10154000DF91CF911F910F91FF90EF9008950F932E
:101550001F93CF93DF938B01FC01C281D38120972E
:1015600071F0E881F9810480F581E02DB801CE01A8
:101570000995009731F40884D985C02DF0CF80E01B
:1015800090E0DF91CF911F910F9108950F931F93DA
:10159000CF93DF938B01FC01C281D381209771F03F
:1015A000E881F9810680F781E02DB801CE01099527
:1015B000080F111D0884D985C02DF0CFF8011082C5
:1015C000DF91CF911F910F9108950F931F93CF93A8
:1015D000DF938B01FC01C281D381209771F0E881F8
:1015E000F9810190F081E02DB801CE0109958111BA
:1015F00006C00884D985C02DF0CF80E001C081E00D
:10160000DF91CF911F910F91089580915B0281111D
:101610000DC082E08093570284E0809358021092BC
:101620005A021092590281E080935B0287E592E0B2
:101630000895EE0FFF1F0590F491E02D0994F894A2
:02164000FFCFDA
:10164200FFFFFFFF00E100000000000000C18081F9
:1016520000000000000000DF01B20187018F01A23B
:1016620001B1010000000037057E05610571054DDD
:04167200055E05000C
:00000001FF
