:100000000C9404010C9435010C9435010C943501C9
:100010000C9435010C9435010C9435010C94350188
:100020000C9435010C9435010C94AD190C943F18C7
:100030000C9435010C9435010C9435010C94350168
:100040000C9435010C9435010C9435010C94350158
:100050000C9435010C9435010C9435010C9464100A
:100060000C9435010C9435010C9435010C94350138
:100070000C9435010C9435010C9435010C94350128
:100080000C9435010C9435010C9435010C94350118
:100090000C94370F0C9435010C9435010C943501F8
:1000A0000C9435010C9435010C943501A611AB115B
:1000B000B011BA11C4110E120E120E12CE11D811B7
:1000C000E211EC11F9110E1201122F12321221124B
:1000D00025122B1253125312531236123A123E1299
:1000E0004412481253124E12070605040100080A72
:1000F0000B0C0D090000000200090F0000030401B1
:10010000000C0000000000000000000000000000E3
:100110000000000408020110408040102040804090
:10012000800802040180402010020110801020404D
:100130004020040404040403040502020202040330
:100140000202020206060606060604040202020471
:1001500004000000002300260029002C002F0000CE
:10016000000000250028002B002E003100000000B8
:1001700000240027002A002D003000080B00020296
:100180000201000904000001020200000524001021
:1001900001052401010104240206052406000107CB
:1001A00005810310004009040100020A0000000755
:1001B0000502024000000705830240000012010012
:1001C00002EF0201404123378000010102030112C6
:1001D00001000200000040412337800001010203BA
:1001E0000141726475696E6F204C4C43004172642A
:1001F00075696E6F204D6963726F00040309040016
:100200005106C20B4D0ED31311241FBECFEFDAE0FF
:10021000DEBFCDBF14BE88E10FB6F89480936000B6
:10022000109260000FBE17E0A0E0B1E0E0E1FBE358
:1002300002C005900D92A63DB107D9F729E0A6EDC1
:10024000B7E001C01D92AD31B207E1F712E0C8E09E
:10025000D2E004C02297FE010E944C1DC030D1079D
:10026000C9F70E94461A0C94861D0C94000061E0A8
:100270008DE00E94541261E089E00E94541261E016
:1002800080E00E94541261E081E00E94541261E01B
:1002900084E00E94541261E085E10E94541261E002
:1002A00086E00E94541261E088E00E94541261E0EE
:1002B0008AE00E94541261E08CE00E94541260E0D7
:1002C00085E00E94541260E087E00E94541260E0D2
:1002D00086E10E94541260E08BE00E94541260E0BC
:1002E00087E10C94541268EE73E080E090E00E9485
:1002F000D1100E94370168EE73E080E090E00E9428
:10030000D11040E052EC61E070E086EB98E00E9492
:10031000CD138DEE97E00E94BA0D68EE73E080E099
:1003200090E00E94D11041E061E08BEE97E00E94E6
:10033000460B8AED97E00C942A0A61E081E00C9468
:100340008D1261E085E10C948D1260E081E00C94E7
:100350008D1260E085E10C948D121F93CF93DF9393
:1003600017E0C0E0D0E0BE018DE00E948011BE0128
:1003700089E00E94801162E070E080E090E00E94DD
:10038000D1102196CF3FD10571F7CFEFD0E0BE015C
:100390008DE00E948011BE0189E00E94801162E020
:1003A00070E080E090E00E94D110219781F7115019
:1003B000C1F6DF91CF911F9108958AED97E00E94D9
:1003C000560A6093DF077093E0078093E1079093EC
:1003D000E2078AED97E00E94CE0A6093DB077093F4
:1003E000DC078093DD079093DE0766E171E086EB22
:1003F00098E00E94061465E271E086EB98E00E94A6
:1004000006144091DB075091DC076091DD07709185
:10041000DE0721E030E086EB98E00E94151663E3EA
:1004200071E086EB98E00E94061465E371E086EBCC
:1004300098E00E9406144091DF075091E007609118
:10044000E1077091E20721E030E086EB98E00E943E
:10045000151660E471E086EB98E00E9413146AE0E0
:1004600070E080E090E00C94D11062E471E086EBE3
:1004700098E00E94061484E10E944F114AE050E087
:10048000BC0186EB98E00C94D0146CE671E086EB2E
:1004900098E00E94061483E10E944F114AE050E068
:1004A000BC0186EB98E00C94D01460E080E00E94E0
:1004B0008D1261E084E00E948D1262E070E080E0C5
:1004C00090E00E94D11061E080E00E948D1262E015
:1004D00070E080E090E00E94D11060E080E00E9437
:1004E0008D1262E070E080E090E00C94D11061E049
:1004F00086E00C948D1261E088E00C948D1261E02E
:100500008AE00C948D1261E08CE00C948D120E94B4
:10051000550268EC70E080E090E00E94D1100E94EB
:10052000770268EC70E080E090E00E94D1100E94B9
:100530007B0268EC70E080E090E00E94D1100E94A5
:100540007F0268EC70E080E090E00E94D1100C9493
:10055000830260E080E00E948D1260E084E00E94EF
:100560008D1262E070E080E090E00E94D11061E0C6
:1005700080E00E948D1262E070E080E090E00E94D6
:10058000D11060E080E00E948D1262E070E080E0B7
:1005900090E00C94D1101F93CF93DF9363EE77E03C
:1005A0008CEE97E00E943D0C6BE871E086EB98E0E2
:1005B0000E940614C3EED7E010E0699140E150E0DC
:1005C00086EB98E00E94F514173031F069E871E08D
:1005D00086EB98E00E9406141F5F183071F768ECF4
:1005E00077E086EB98E0DF91CF911F910C94131484
:1005F00060E086E00C948D1260E088E00C948D122F
:1006000060E08AE00C948D1260E08CE00C948D1216
:100610000E94A90268EC70E080E090E00E94D11096
:100620000E94F80268EC70E080E090E00E94D11037
:100630000E94FC0268EC70E080E090E00E94D11023
:100640000E94000368EC70E080E090E00E94D1100E
:100650000C9404036CEF71E086EB98E00E94131495
:100660001092D9071092D8078091D8079091D90796
:100670000A9704F585E00E94C3124AE050E0BC01ED
:1006800086EB98E00E94C8146CE971E086EB98E074
:100690000E94061464EF71E080E090E00E94D110A7
:1006A0008091D8079091D90701969093D9078093AC
:1006B000D807DACF68EC77E086EB98E00E94131455
:1006C00060E272E086EB98E00E9413141092D90762
:1006D0001092D8078091D8079091D9070A9704F50E
:1006E00087E00E94C3124AE050E0BC0186EB98E02C
:1006F0000E94C8146CE971E086EB98E00E94061431
:1007000064EF71E080E090E00E94D1108091D80702
:100710009091D90701969093D9078093D807DACFA3
:1007200068EC77E086EB98E00E94131464E472E0D2
:1007300086EB98E00E9413141092D9071092D80704
:100740008091D8079091D9070A9704F586E10E9415
:10075000C3124AE050E0BC0186EB98E00E94C81446
:100760006CE971E086EB98E00E94061464EF71E09A
:1007700080E090E00E94D1108091D8079091D90735
:1007800001969093D9078093D807DACF68EC77E089
:1007900086EB98E00E94131468E672E086EB98E01E
:1007A0000E9413141092D9071092D8078091D8078D
:1007B0009091D9070A9704F58BE00E94C3124AE092
:1007C00050E0BC0186EB98E00E94C8146CE971E02F
:1007D00086EB98E00E94061464EF71E080E090E000
:1007E0000E94D1108091D8079091D90701969093DB
:1007F000D9078093D807DACF68EC77E086EB98E0EA
:100800000E9413146CE872E086EB98E00E941314C7
:100810001092D9071092D8078091D8079091D907E4
:100820000A9704F587E10E94C3124AE050E0BC0138
:1008300086EB98E00E94C8146CE971E086EB98E0C2
:100840000E94061464EF71E080E090E00E94D110F5
:100850008091D8079091D90701969093D9078093FA
:10086000D807DACF089560EB72E086EB98E00E943B
:10087000061482E10E944F114AE050E0BC0186EB71
:1008800098E00E94C8146CE286EB98E00E9408147D
:1008900040E060E08BEE97E00E94710B8BEE97E0FA
:1008A0000E94900BBC0185E0769567958A95E1F7EB
:1008B0004AE050E086EB98E00E94FC146CE286EB84
:1008C00098E00E94081440E061E08BEE97E00E94FF
:1008D000710B8BEE97E00E94900BBC0195E0769532
:1008E00067959A95E1F74AE050E086EB98E00E9420
:1008F000FC146CE286EB98E00E94081440E062E091
:100900008BEE97E00E94710B8BEE97E00E94900BAC
:10091000BC0125E0769567952A95E1F74AE050E01D
:1009200086EB98E00E94FC146CE286EB98E00E9453
:10093000081440E063E08BEE97E00E94710B8BEEB1
:1009400097E00E94900BBC0135E0769567953A954B
:10095000E1F74AE050E086EB98E00C94021563EC76
:1009600072E086EB98E00E9406140E941C0CAB011A
:10097000BC012AE030E086EB98E00C9418156EED8F
:1009800072E086EB98E00E94131469E174E086EB54
:1009900098E00E94131468E873E180E090E00E9400
:1009A000D1100E94A90168EE73E080E090E00E94FF
:1009B000D1106EE273E086EB98E00E9406140E946C
:1009C000A10168EE73E080E090E00E94D1100E94E7
:1009D000A90168EE73E080E090E00E94D1106EE221
:1009E00073E086EB98E00E9406140E94A10168EE75
:1009F00073E080E090E00E94D1100E94A90168EEAF
:100A000073E080E090E00E94D1106EE273E086EB2C
:100A100098E00E9406140E94A10168EE73E080E055
:100A200090E00E94D1100E94A90168EE73E080E07E
:100A300090E00E94D1106EE273E086EB98E00E9495
:100A400006140E94A10168EE73E080E090E00E942D
:100A5000D1100E94A90168EE73E080E090E00E944E
:100A6000D1106EE273E086EB98E00E9406140E94BB
:100A7000A10168EE73E080E090E00E94D11068EC84
:100A800077E086EB98E00E94131465E373E086EB51
:100A900098E00E94131468E873E180E090E00E94FF
:100AA000D1106EE273E086EB98E00E9406140E947B
:100AB000A90168EE73E080E090E00E94D1100E94EE
:100AC000A10168EE73E080E090E00E94D1106EE238
:100AD00073E086EB98E00E9406140E94A90168EE7C
:100AE00073E080E090E00E94D1100E94A10168EEC6
:100AF00073E080E090E00E94D1106EE273E086EB3C
:100B000098E00E9406140E94A90168EE73E080E05C
:100B100090E00E94D1100E94A10168EE73E080E095
:100B200090E00E94D1106EE273E086EB98E00E94A4
:100B300006140E94A90168EE73E080E090E00E9434
:100B4000D1100E94A10168EE73E080E090E00E9465
:100B5000D1106EE273E086EB98E00E9406140E94CA
:100B6000A90168EE73E080E090E00E94D1100E943D
:100B7000A10168EE73E080E090E00E94D11068EC83
:100B800077E086EB98E00E94131466E673E086EB4C
:100B900098E00C94131464E873E086EB98E00E94EC
:100BA000131467EC73E086EB98E00E94131460ED79
:100BB00077E080E090E00E94D1106EE273E086EB77
:100BC00098E00E9406140E94A50168EE73E080E0A0
:100BD00090E00E94D1100E949D0168EE73E080E0D9
:100BE00090E00E94D1106EE273E086EB98E00E94E4
:100BF00006140E94A50168EE73E080E090E00E9478
:100C0000D1100E949D0168EE73E080E090E00E94A8
:100C1000D1106EE273E086EB98E00E9406140E9409
:100C2000A50168EE73E080E090E00E94D1100E9480
:100C30009D0168EE73E080E090E00E94D1106EE2CA
:100C400073E086EB98E00E9406140E94A50168EE0E
:100C500073E080E090E00E94D1100E949D0168EE58
:100C600073E080E090E00E94D1106EE273E086EBCA
:100C700098E00E9406140E94A50168EE73E080E0EF
:100C800090E00E94D1100E949D0168EE73E080E028
:100C900090E00E94D1106AE674E086EB98E00C9434
:100CA00013148AED97E00C94290A0F931F93CF93A6
:100CB000DF938C01B8018DEE97E00E94CE0DE0919C
:100CC000ED07F091EE070190F081E02D60E08DEEF0
:100CD00097E0099560E08DEE97E00E94D00D43E02B
:100CE00050E0B8018DEE97E00E94470E8DEE97E040
:100CF0000E94230D892B39F464EF71E080E090E0CD
:100D00000E94D110D7CF8DEE97E00E942B0D8DEE73
:100D100097E00E942B0D082F8DEE97E00E942B0D7F
:100D2000182F61E08DEE97E00E94D00D0170D02F5A
:100D300080E0C82FC12B44E0CC0FDD1F4A95E1F7BE
:100D4000CE01DF91CF911F910F91089569E874E072
:100D500086EB98E00E94061480E690E00E9455061B
:100D60004AE050E0BC0186EB98E00E94C8146BE3B7
:100D700086EB98E00E94081465E070E080E090E067
:100D80000E94D11082E690E00E9455064AE050E0B1
:100D9000BC0186EB98E00E94C8146CE286EB98E0F8
:100DA0000E94081465E070E080E090E00E94D1109D
:100DB00088E690E00E9455064AE050E0BC0186EBD0
:100DC00098E00E94C8146CE286EB98E00E94081438
:100DD00065E070E080E090E00E94D1108AE690E04B
:100DE0000E9455064AE050E0BC0186EB98E00E9464
:100DF000C8146CE286EB98E00E94081465E070E08D
:100E000080E090E00E94D11083E690E00E945506B9
:100E10004AE050E0BC0186EB98E00E94C8146CE206
:100E200086EB98E00E94081465E070E080E090E0B6
:100E30000E94D1108BE690E00E9455064AE050E0F7
:100E4000BC0186EB98E00C94D0146EE974E086EB5C
:100E500098E00E9413140E94A6066CE075E086EBF1
:100E600098E00E9406140E94550260ED77E080E051
:100E700090E00E94D11065E175E086EB98E00E9459
:100E800006140E94770260ED77E080E090E00E9417
:100E9000D1106EE175E086EB98E00E9406140E9486
:100EA0007B0260ED77E080E090E00E94D11067E285
:100EB00075E086EB98E00E9406140E947F0260EDC8
:100EC00077E080E090E00E94D11060E375E086EB6F
:100ED00098E00E9413140E94830260ED77E080E0A6
:100EE00090E00E94D1100E94A60660ED77E080E0BD
:100EF00090E00E94D11068E375E086EB98E00E94D4
:100F000013140E94080368EE73E080E090E00E94F2
:100F1000D1100E94A60668EE73E080E090E00C9489
:100F2000D11069E875E086EB98E00E941314609197
:100F3000000170910101CB01019690930101809312
:100F400000014AE050E086EB98E00E94C81467EA8E
:100F500075E086EB98E00E9406146AEA75E086EB7D
:100F600098E00E94131468E873E180E090E00E942A
:100F7000D11068EC77E086EB98E00E941314609142
:100F8000000170910101CB010196909301018093C2
:100F900000014AE050E086EB98E00E94C81467EA3E
:100FA00075E086EB98E00E9406140E94CB0268EC84
:100FB00077E086EB98E00E94131460910001709135
:100FC0000101CB01019690930101809300014AE059
:100FD00050E086EB98E00E94C81467EA75E086EB63
:100FE00098E00E9406140E94AD0168EC77E086EB61
:100FF00098E00E9413146091000170910101CB01EF
:10100000019690930101809300014AE050E086EB45
:1010100098E00E94C81467EA75E086EB98E00E94A9
:1010200006140E94AF0468EE75E086EB98E00E941B
:1010300013146AEC73E080E090E00E94D1100E94EB
:10104000AF0468EC77E086EB98E00E94131460919F
:10105000000170910101CB010196909301018093F1
:1010600000014AE050E086EB98E00E94C81467EA6D
:1010700075E086EB98E00E9406140E94330468EC49
:1010800077E086EB98E00E94131460910001709164
:101090000101CB01019690930101809300014AE088
:1010A00050E086EB98E00E94C81467EA75E086EB92
:1010B00098E00E9406140E94A60666E176E086EBA0
:1010C00098E00E9413140E9487020E94A60668EC12
:1010D00077E086EB98E00E9413140E940803609169
:1010E000000170910101CB01019690930101809361
:1010F00000014AE050E086EB98E00E94C81467EADD
:1011000075E086EB98E00E9406140E9435026CE6BA
:1011100076E086EB98E00E94131467EB76E086EBAE
:1011200098E00E9406148BE090E09093D90780939A
:10113000D8076091D8077091D90716161706D4F40E
:10114000615071094AE050E086EB98E00E94C814B3
:101150006CE971E086EB98E00E9406146EED73E096
:1011600080E090E00E94D1108091D8079091D9073B
:101170000197DBCF67EC77E086EB98E00E940614DE
:1011800064EF71E080E090E00E94D1100E9435028F
:1011900068EC77E086EB98E00E9413146091000100
:1011A00070910101CB0101969093010180930001A0
:1011B0004AE050E086EB98E00E94C81467EA75E0C8
:1011C00086EB98E00E9406140E94450268EC76E0E7
:1011D00086EB98E00E94131467EB76E086EB98E0CC
:1011E0000E9406148BE090E09093D9078093D80773
:1011F0006091D8077091D907161617063CF5615013
:1012000071094AE050E086EB98E00E94C8146CE94E
:1012100071E086EB98E00E9406146EED73E080E0CA
:1012200090E00E94D1108091D8079091D90704973F
:1012300039F483E10E944F119093D7078093D6072A
:101240008091D8079091D9070197CECF67EC77E0CE
:1012500086EB98E00E9406146CE671E086EB98E05D
:101260000E9406146091D6077091D7074AE050E0BB
:1012700086EB98E00E94D01468EC77E086EB98E06B
:101280000E9413146091000170910101CB0101963D
:1012900090930101809300014AE050E086EB98E0D2
:1012A0000E94C81467EA75E086EB98E00E94061475
:1012B0000E94DD016DE077E086EB98E00E94131458
:1012C00067EB76E086EB98E00E9406148BE090E0F6
:1012D0009093D9078093D8076091D8077091D90768
:1012E00016161706D4F4615071094AE050E086EBF7
:1012F00098E00E94C8146CE971E086EB98E00E94C7
:1013000006146EED73E080E090E00E94D1108091B1
:10131000D8079091D9070197DBCF67EC77E086EB90
:1013200098E00E94061464EF71E080E090E00E9473
:10133000D1100E94DD0167EC77E086EB98E00E9417
:1013400006146091000170910101CB010196909308
:101350000101809300014AE050E086EB98E00E9492
:10136000C81467EA75E086EB98E00E9406140E94B4
:10137000250768EC77E086EB98E00E9413146091F3
:10138000000170910101CB010196909301018093BE
:1013900000014AE050E086EB98E00E94C81467EA3A
:1013A00075E086EB98E00E94061467E577E086EB2F
:1013B00098E00E94131468EC77E086EB98E00E94B6
:1013C00013140E94CB0568EC77E086EB98E00E944E
:1013D00013140E94BF0468EC77E086EB98E00E944B
:1013E00013146091000170910101CB01019690935B
:1013F0000101809300014AE050E086EB98E00E94F2
:10140000C81467EA75E086EB98E00E9406146CE663
:1014100077E086EB98E00E9413140E942A036CE99F
:1014200071E086EB98E00E9413146CE777E086EB9E
:1014300098E00E94131461E070E080E090E00E9468
:10144000D110F9CFDC01ED91FC910190F081E02DFC
:101450000994089508950F931F93CB01A0E0B0E085
:10146000BA2FA92F982F8827842BE7E1F0E040E0DE
:1014700050E868E970E08C019D010E2E04C036959D
:101480002795179507950A94D2F700FF04C0842783
:101490009527A627B727769567955795479531974E
:1014A000E730F10541F71F910F910895EF92FF92F8
:1014B0000F931F93CF93DF937C0160E470E08DEE78
:1014C00097E00E94CE0D65EF70E08DEE97E00E94F0
:1014D000220A8DEE97E00E944A0E67E370E080E0FA
:1014E00090E00E94D11043E050E060E470E08DEEA7
:1014F00097E00E94470E05E610E08DEE97E00E940F
:10150000230D039774F461E070E080E090E00E94A6
:10151000D1100150110989F760E070E889E794E47F
:1015200036C08DEE97E00E942B0D082F8DEE97E0D0
:101530000E942B0D182F8DEE97E00E942B0DD02FBF
:1015400090E0C92FC12B482FBE01C7010E942B0A72
:10155000811119C0BE016C7F80E090E00E94F71BF2
:1015600020E030E040E857E30E94AD1C20E030E08E
:101570004AEF52E40E94AD1C20E030E040EC50E421
:101580000E94F51A04C060E070EC89E794E4DF91F2
:10159000CF911F910F91FF90EF900895EF92FF92DE
:1015A0000F931F93CF93DF937C0160E470E08DEE87
:1015B00097E00E94CE0D63EF70E08DEE97E00E9401
:1015C000220A8DEE97E00E944A0E67E370E080E009
:1015D00090E00E94D11043E050E060E470E08DEEB6
:1015E00097E00E94470E05E610E08DEE97E00E941E
:1015F000230D039774F461E070E080E090E00E94B6
:10160000D1100150110989F760E070E889E794E48E
:1016100036C08DEE97E00E942B0D082F8DEE97E0DF
:101620000E942B0D182F8DEE97E00E942B0DD02FCE
:1016300090E0C92FC12B482FBE01C7010E942B0A81
:10164000811119C0BE016C7F80E090E00E94F71B01
:1016500020E030E040E857E30E94AD1C22E538EB83
:101660004FE253E40E94AD1C26E636E64BE352E41B
:101670000E94F51A04C060E070EC89E794E4DF9101
:10168000CF911F910F91FF90EF900895FC01611190
:1016900003C0411107C004C0623061F44230C1F49C
:1016A00088E61DC0423011F489E619C04130C1F40A
:1016B0008AE615C06130A1F4411102C08CE60FC06A
:1016C000423011F48DE60BC0413051F48EE607C074
:1016D000411102C08BE603C0413011F48FE68083D4
:1016E0000895CF93DF931F92CDB7DEB7486850E2DD
:1016F000659F90011124422BFC0160818DEE97E0E3
:1017000049830E94C40D4981642F8DEE97E00E94A9
:101710007B0D8DEE97E00F90DF91CF910C944A0EE8
:101720000F931F93CF93DF938C0160E570E080E00F
:1017300090E00E94D11043E0F80160818DEE97E0C7
:101740000E94440E8DEE97E00E942B0D082F8DEE27
:1017500097E00E942B0D182F8DEE97E00E942B0D25
:10176000D02FF0E0CF2FCE01812BDF91CF911F91B1
:101770000F910895982F92959F702AEF929F800D58
:10178000112408958DEE97E00C94BA0DCF93DF935A
:10179000EC016FE670E08DEE97E00E94CE0D60E008
:1017A0008DEE97E00E947B0D8DEE97E00E944A0E31
:1017B00081113EC047E050E06FE670E08DEE97E0AB
:1017C0000E94470E8DEE97E00E942B0D8F770E94AE
:1017D000BA0B88838DEE97E00E942B0D0E94BA0B06
:1017E00089838DEE97E00E942B0D8F7B0E94BA0BB0
:1017F0008A838DEE97E00E942B0D877C8B838DEE84
:1018000097E00E942B0D0E94BA0B8C838DEE97E01F
:101810000E942B0D8F7D0E94BA0B8D838DEE97E079
:101820000E942B0D0E94BA0B825E8E8381E001C064
:1018300080E0DF91CF910895CF93DF93CDB7DEB7EE
:1018400027970FB6F894DEBF0FBECDBFCE0101962D
:101850000E94C60B882329F0CE0101960E94680CD5
:1018600003C060E070E0CB0127960FB6F894DEBFAE
:101870000FBECDBFDF91CF9108950F931F93CF93EC
:10188000DF938B0167E570E08DEE97E00E94CE0D4F
:1018900060EF70E08DEE97E00E94220A8DEE97E0F7
:1018A0000E944A0E48E050E067E570E08DEE97E058
:1018B0000E94470EE80118E08DEE97E00E942B0D84
:1018C00089931150C9F7DF91CF911F910F9108951E
:1018D0006F927F928F929F92AF92BF92CF92DF9240
:1018E000EF92FF920F931F93CF93DF93FC01C6807B
:1018F000AC2DB0E020E833E341EE51E00E945F1DE3
:101900004B015C0122EB37E06D01C4E6D0E000E959
:1019100011E0C901825B97408C159D05DCF4C9017B
:1019200083709927892B99F4C901BE010E94141D67
:10193000892B31F4C901B8010E94141D892B39F497
:1019400080E8880E81E5981E81E0A81EB11C2F5FFB
:101950003F4FDFCF6580712C8EE4C81A88EFD80A1C
:10196000C60164E670E00E94141D8C01C60160E9A6
:1019700071E00E94141D7C01C1E0D0E083E0C82228
:10198000DD24C615D7052CF5C230D10589F4C11464
:10199000D10471F40115110519F4E114F10441F4B5
:1019A00080E8880E8BE3981E86E2A81EB11C0FC04B
:1019B000DE01A756B84FAC91B0E020E831E541E038
:1019C00050E00E945F1D860E971EA81EB91E21962C
:1019D000D8CF4181228130E0A0E1BEE00E94501DBD
:1019E0006B017C01242F30E0ACE3B0E00E94501D7D
:1019F000C60ED71EE81EF91E8081C80ED11CE11C40
:101A0000F11CA481B0E0119720E831E541E050E0FD
:101A10000E946A1DC60ED71EE81EF91EC80CD91CEE
:101A2000EA1CFB1CC701B601DF91CF911F910F91FA
:101A3000FF90EF90DF90CF90BF90AF909F908F90EE
:101A40007F906F90089580911D0890E020911E086E
:101A5000821B9109089520911E0880911D08281766
:101A600050F4E22FF0E0E15EF74F808190E02F5FCD
:101A700020931E0808958FEF9FEF0895E0911E08B0
:101A800080911D08E81730F4F0E0E15EF74F8081A7
:101A900090E008958FEF9FEF08950895CF92DF9221
:101AA000EF92FF920F931F93CF93DF937C01CB01B3
:101AB0008A012091F907222389F0EB016B01C40E02
:101AC000D51ECC15DD0569F06991D701ED91FC912A
:101AD0000190F081E02DC7010995F3CF642F0E949A
:101AE0000E0FC801DF91CF911F910F91FF90EF90E2
:101AF000DF90CF900895CF93DF931F92CDB7DEB7DD
:101B000069832091F9072223D1F02091FA0720322E
:101B100040F021E030E0FC013383228380E090E05C
:101B200015C08091FB07E82FF0E0E450F84F998151
:101B300090838F5F8093FB078093FA0705C061E075
:101B4000CE0101960E940E0F81E090E00F90DF9190
:101B5000CF910895FC011382128248EE53E060E0B9
:101B600070E044835583668377838AEA97E09183A4
:101B70008083089510921E0810921D081092FB0792
:101B80001092FA070C94510E81E08093F90760934C
:101B90001C081092FB071092FA0708950C94C40DCC
:101BA0000F93062F21E04091FA076CEF77E08091C8
:101BB0001C080E94B70E1092FB071092FA071092B1
:101BC000F9070F9108958F929F92AF92BF92CF9293
:101BD000DF92EF92FF920F931F93CF93DF93EC016D
:101BE000F62ED42E48015901EE2019F10E94C40DA1
:101BF0001E2D143008F013E01150B8F0E881F9817F
:101C000028E0129FB0011124A501940104C056954B
:101C10004795379527956A95D2F7CA01B901019082
:101C2000F081E02DCE010995E7CF60E0CE010E9462
:101C3000D00D4D2D413208F040E22C2D6FE178E0BF
:101C40008F2D0E946F0E10921E0880931D08DF9149
:101C5000CF911F910F91FF90EF90DF90CF90BF90A9
:101C6000AF909F908F900895CF92EF920F931F9314
:101C7000C22EE12C00E010E098010E94E30D1F91BC
:101C80000F91EF90CF90089521E00C94340E21E055
:101C90000C94340E61E00C94D00D8DEE97E00C9412
:101CA000AA0D1092AC0881E08093AA081092A908AE
:101CB00061E082E00E948D1261E083E00E948D125B
:101CC000E9EBF0E080818E7F808380818D7F80834F
:101CD00088E48093B80085E48093BC000895413285
:101CE00008F043C09091AC089111FCCF91E0909323
:101CF000AC082093AA082FEF20933F081092840885
:101D0000240F209383089093AB089091AB08880F21
:101D1000892B8093AB088091A908813061F41092DF
:101D2000A9088091AB088093BB008091BC0083FD23
:101D3000F8CF85EC01C085EE8093BC008091AC08A3
:101D40008130E1F380918408841710F44091840875
:101D500025E838E0FB01D9018A2F821B841718F48B
:101D60008D918193F9CF842F089580E008950F938A
:101D7000413208F04AC09091AC089111FCCF92E03A
:101D80009093AC080093AA089FEF90933F0810929D
:101D9000840840938308FB0165E878E0DB019A2F13
:101DA000961B941718F491919D93F9CF1092AB085C
:101DB0009091AB08880F892B8093AB088091A9087C
:101DC000813061F41092A9088091AB088093BB0028
:101DD0008091BC0083FDF8CF85EC01C085EE809337
:101DE000BC00222321F08091AC088230E1F3809185
:101DF0003F088F3F61F080913F08803251F0809121
:101E00003F08803341F483E007C081E005C080E0F3
:101E100003C082E001C084E00F910895613298F41C
:101E20002091AC08243089F460936108FC0183E6BA
:101E300098E0DC012A2F281B261718F421912D93F6
:101E4000F9CF80E0089581E0089582E0089585ED5E
:101E50008093BC008091BC0084FDFCCF1092AC0844
:101E6000089585EC8093BC001092AC0808951F92F1
:101E70000F920FB60F9211242F933F934F935F93BE
:101E80006F937F938F939F93AF93BF93EF93FF9342
:101E90008091B900887F803609F49EC078F5883239
:101EA00009F45DC090F4803109F456C038F48823F9
:101EB00009F4F5C0883009F44FC0F5C0883109F441
:101EC0004EC0803209F45FC0EEC0803409F46AC0AD
:101ED00058F4803309F457C0883309F0E4C0809384
:101EE0003F080E94310FDFC0803509F44FC08835AC
:101EF00009F45DC0883409F0D6C0D3C0883909F42C
:101F0000C4C0A8F4883709F467C038F4883609F4E7
:101F100063C0803709F460C0C6C0883809F4B5C012
:101F2000803909F45FC0803809F0BDC05BC0803BD8
:101F300009F483C038F4803A09F466C0883A09F499
:101F40007CC0B1C0803C09F4A4C0883C09F4A1C0A5
:101F5000883B09F487C0A7C08091AB0810C090915E
:101F6000840880918308981770F5E091840881E0D7
:101F70008E0F80938408F0E0EB57F74F80818093B9
:101F8000BB0085EC83C080933F088BC0E091840840
:101F900081E08E0F809384088091BB00F0E0EB57C6
:101FA000F74F808390918408809183086BC0E09103
:101FB000840881E08E0F809384088091BB00F0E05C
:101FC000EB57F74F80838091AA0881116AC081E0A6
:101FD0008093A90884EA5EC083E08093AC081092E5
:101FE0004008CFCF80914008803208F04EC0E09189
:101FF000400881E08E0F809340088091BB00F0E0A4
:10200000EF5BF74F8083BDCF0E94310F8091400876
:10201000803230F4E0914008F0E0EF5BF74F10823F
:102020006091400870E0E091A508F091A60881E475
:1020300098E009951092400836C084E08093AC087F
:102040001092620810926108E091A708F091A80828
:10205000099580916108811105C081E08093610834
:1020600010926308E091620881E08E0F809362080D
:10207000F0E0ED59F74F80818093BB0090916208AA
:1020800080916108981708F47CCF85E88093BC00A4
:102090000AC085EC8093BC001092AC0804C010927A
:1020A0003F080E94270FFF91EF91BF91AF919F9141
:1020B0008F917F916F915F914F913F912F910F90F1
:1020C0000FBE0F901F9018951F920F920FB60F9290
:1020D00011242F933F938F939F93AF93BF9380913E
:1020E000AE089091AF08A091B008B091B1083091BE
:1020F000AD0823E0230F2D3720F40196A11DB11D5B
:1021000005C026E8230F0296A11DB11D2093AD083E
:102110008093AE089093AF08A093B008B093B10835
:102120008091B2089091B308A091B408B091B5081D
:102130000196A11DB11D8093B2089093B308A0939E
:10214000B408B093B508BF91AF919F918F913F9123
:102150002F910F900FBE0F901F9018953FB7F894D6
:102160008091B2089091B308A091B408B091B508DD
:1021700026B5A89B05C02F3F19F00196A11DB11DE2
:102180003FBF6627782F892F9A2F620F711D811DFF
:10219000911D42E0660F771F881F991F4A95D1F75E
:1021A0000895CF92DF92EF92FF92CF93DF936B016E
:1021B0007C010E94AE10EB01C114D104E104F104D2
:1021C00089F00E94591A0E94AE106C1B7D0B683E6C
:1021D000734090F381E0C81AD108E108F108C851B2
:1021E000DC4FEACFDF91CF91FF90EF90DF90CF905F
:1021F0000895789484B5826084BD84B5816084BD7F
:1022000085B5826085BD85B5816085BDEEE6F0E06F
:10221000808181608083E1E8F0E0108280818260CB
:102220008083808181608083E0E8F0E0808181604C
:102230008083E1E9F0E08081826080838081816039
:102240008083E0E9F0E0808181608083E1ECF0E070
:1022500080818460808380818260808380818160CE
:102260008083E3ECF0E0808181608083E0ECF0E04B
:10227000808182608083E2ECF0E0808181608083F5
:10228000EAE7F0E0808184608083808182608083DF
:10229000808181608083808180688083089582311D
:1022A00008F08251E82FF0E0E851FF4FE49180916F
:1022B0007B00E3FB222720F930E095E0220F331F5B
:1022C0009A95E1F78F7D822B80937B00E770809158
:1022D000020120E4829FC0011124E82BE0937C00DE
:1022E00080917A00806480937A0080917A0086FDE4
:1022F000FCCF809178002091790090E0922B089596
:102300001F93CF93DF93182FEB0161E00E945412CB
:10231000209711F460E004C0CF3FD10539F461E0AB
:10232000812FDF91CF911F910C948D12E12FF0E05E
:10233000EC50FF4F449150E0FA013197EF30F10536
:1023400008F06CC0EA5AFF4F0C944A1D84B58068AF
:1023500084BDC7BD68C084B5806284BDC8BD63C08C
:1023600080918000806880938000D0938900C09322
:10237000880059C080918000806280938000D09353
:102380008B00C0938A004FC080918000886080934A
:102390008000D0938D00C0938C0045C08091900048
:1023A000806880939000D0939900C09398003BC0C0
:1023B00080919000806280939000D0939B00C093A6
:1023C0009A0031C080919000886080939000D093F3
:1023D0009D00C0939C0027C08091C00080688093BE
:1023E000C0008091C0008F7B8093C000C093CF005D
:1023F0001AC08091C00080628093C000C093D0005A
:1024000012C08091C20088608093C2008091C20097
:102410008B7F8093C200C093D20005C0C038D10525
:102420000CF07DCF77CFDF91CF911F91089590E091
:10243000FC013197EF30F105B0F5EB59FF4F0C94EB
:102440004A1D809180008F7703C0809180008F7D2E
:1024500080938000089580918000877FF9CF84B5B4
:102460008F7702C084B58F7D84BD089580919000E0
:102470008F7707C0809190008F7D03C0809190007E
:10248000877F8093900008958091C0008F7703C06C
:102490008091C0008F7D8093C00008958091C2001C
:1024A000877F8093C2000895CF93DF9390E0FC0173
:1024B000ED5EFE4F2491FC01EE5CFE4F849188237B
:1024C00049F190E0880F991FFC01E359FE4FA59157
:1024D000B491815A9E4FFC01C591D4919FB761116F
:1024E00008C0F8948C91209582238C938881822354
:1024F0000AC0623051F4F8948C91322F30958323C6
:102500008C938881822B888304C0F8948C91822BD1
:102510008C939FBFDF91CF9108950F931F93CF931B
:10252000DF931F92CDB7DEB7282F30E0F901EC50D2
:10253000FF4F8491F901ED5EFE4F1491F901EE5CBD
:10254000FE4F04910023C9F0882321F069830E9483
:1025500017126981E02FF0E0EE0FFF1FE15AFE4FE6
:10256000A591B4919FB7F8948C91611103C0109517
:10257000812301C0812B8C939FBF0F90DF91CF915E
:102580001F910F910895CF93DF93282F30E0F90129
:10259000EC50FF4F8491F901ED5EFE4FD491F901AB
:1025A000EE5CFE4FC491CC2391F081110E94171272
:1025B000EC2FF0E0EE0FFF1FEF5AFE4FA591B49104
:1025C0002C912D2381E090E021F480E002C080E096
:1025D00090E0DF91CF910895CF93DF931F92CDB715
:1025E000DEB76983DC01ED91FC910280F381E02D7F
:1025F00041E050E0BE016F5F7F4F09950F90DF9182
:10260000CF910895CF93DF93EC018C859D8597FF43
:1026100005C082E00E9428179D878C878C859D8548
:10262000DF91CF91089583E00C94A319FC01848578
:10263000958597FD06C082E00E94D01690E0019635
:10264000089582E00E94D01690E00895FC018485F0
:10265000958597FD05C02FEF3FEF358724870895B7
:1026600082E00C942817CF93DF93EC0180910E0148
:10267000882331F083E00E9459171816190634F0A8
:1026800081E090E09B838A8380E090E0DF91CF91AE
:102690000895FC0120812E5F208342E450E06BE727
:1026A00071E080E80C94F417FC0121818081813A6B
:1026B00059F4213209F05CC047E050E067E071E076
:1026C00080E00E94F41767C0813209F051C02332C4
:1026D00089F4838190E0982F88273281832BA0E0B2
:1026E000B0E08093030190930401A0930501B0939F
:1026F00006010FC0203239F467E070E087E091E016
:102700000E9425180AC0223221F4828180930E0192
:1027100004C02D7F203209F03EC0809107019091C6
:102720000801A0910901B0910A01803B9440A105E4
:10273000B10501F580910E0180FD1CC0809100085B
:10274000909101089093FF0A8093FE0A87E797E72C
:1027500090930108809300082BE088E190E00FB689
:10276000F894A895809360000FBE2093600013C07A
:1027700080E0089588E10FB6F8948093600010928D
:1027800060000FBEA8958091FE0A9091FF0A909379
:1027900001088093000881E008952FEF3FEFFC01CE
:1027A0003587248708951092B9081092B80888EEEA
:1027B00093E0A0E0B0E08093BA089093BB08A093A8
:1027C000BC08B093BD088AEB97E09093B70880935C
:1027D000B6088FEF9FEF9093C3088093C2080895C7
:1027E0006115710581F0DB010D900020E9F7AD0165
:1027F00041505109461B570BDC01ED91FC910280C1
:10280000F381E02D099480E090E008950C94F0139A
:10281000DC01ED91FC910190F081E02D099466ECD2
:1028200077E00C94F0130F931F93CF93DF93EC0199
:102830000E94F0138C01CE010E940F14800F911F93
:10284000DF91CF911F910F9108958F929F92AF9238
:10285000BF92CF92DF92EF92FF920F931F93CF938D
:10286000DF93CDB7DEB7A1970FB6F894DEBF0FBEEA
:10287000CDBF7C01C42EE52FCB01D22E19A221E0C1
:102880002D1510F02AE0D22E8E010F5D1F4F8D2CDA
:10289000912CA12CB12C6C2D7E2FA50194010E94AE
:1028A000281D8C2DD29E80191124015011098A30C7
:1028B00014F4805D01C0895CF80180832115310525
:1028C0004105510521F0C22EE32FCA01E4CFB80122
:1028D000C7010E94F013A1960FB6F894DEBF0FBE99
:1028E000CDBFDF91CF911F910F91FF90EF90DF90BF
:1028F000CF90BF90AF909F908F900895CF92DF922E
:10290000EF92FF920F931F93CF93DF93EC016A0135
:102910007B012115310579F4E881F9810190F0817D
:10292000E02D642FDF91CF911F910F91FF90EF90D9
:10293000DF90CF9009942A303105E9F477FF1AC06F
:102940006DE20E9408148C0144275527BA014C19E6
:102950005D096E097F092AE0CE010E942514800FCF
:10296000911FDF91CF911F910F91FF90EF90DF901A
:10297000CF9008952AE0B701A601CE01DF91CF9153
:102980001F910F91FF90EF90DF90CF900C94251442
:102990009A01AB01662757FD6095762F0C947E1443
:1029A0000F931F93CF93DF93EC019A01AB0166273E
:1029B00057FD6095762F0E947E148C01CE010E94F7
:1029C0000F14800F911FDF91CF911F910F910895E8
:1029D0002115310541F4DC01ED91FC910190F0816C
:1029E000E02D642F09940C9425149A01462F50E091
:1029F00060E070E00C94E8149A01AB0160E070E0D4
:102A00000C94E8140F931F93CF93DF93EC019A017A
:102A1000AB0160E070E00E94E8148C01CE010E94DE
:102A20000F14800F911FDF91CF911F910F91089587
:102A30000F931F93CF93DF93EC010E94E8148C0156
:102A4000CE010E940F14800F911FDF91CF911F9133
:102A50000F9108954F925F926F927F928F929F9203
:102A6000AF92BF92CF92DF92EF92FF920F931F939C
:102A7000CF93DF93EC016A017B01B22E9A01AB0187
:102A8000C701B6010E94101D882319F069EC77E098
:102A900027C026013701E89477F82FEF3FEF4FE783
:102AA0005FE7C301B2010E94101D81110DC02FEF1D
:102AB0003FEF4FE75FE7C301B2010E945A1B1816B0
:102AC0001CF46DEC77E00CC02FEF3FEF4FE75FE4B5
:102AD000C701B6010E94A91C1816ACF461ED77E09D
:102AE000CE01DF91CF911F910F91FF90EF90DF907A
:102AF000CF90BF90AF909F908F907F906F905F909E
:102B00004F900C94F0132FEF3FEF4FE75FECC701AE
:102B1000B6010E945A1B87FDE1CF20E030E0A901F9
:102B2000C701B6010E945A1B87FF0AC06DE2CE01A1
:102B30000E9408148C01F7FAF094F7F8F09402C0A0
:102B400000E010E0A12C60E070E080E09FE3AB14B7
:102B500041F020E030E040E251E40E945E1BA3948B
:102B6000F6CF9B01AC01C701B6010E94F61A6B01BA
:102B70007C010E94CB1B2B013C010E94F71B9B0197
:102B8000AC01C701B6010E94F51A6B017C012AE075
:102B9000B301A201CE010E942514080F191FBB200A
:102BA00039F066EE75E0CE010E94F013080F191F90
:102BB0007B2C772041F120E030E040E251E4C70176
:102BC000B6010E94AD1C6B017C010E94C61B4B012B
:102BD000AA2497FCA094BA2C2AE030E0B501A40105
:102BE000CE010E947E14080F191FC501B4010E9476
:102BF000F91B9B01AC01C701B6010E94F51A6B01DC
:102C00007C017A94D6CFC801DF91CF911F910F91AB
:102C1000FF90EF90DF90CF90BF90AF909F908F90FC
:102C20007F906F905F904F9008950C942A1561509B
:102C300030F02091F100FC0120830196F8CF289A12
:102C400084E680930F09089540910A0950910B0979
:102C5000209108093091090942175307B4F4909163
:102C6000E8009570E1F39091E80092FD19C080931F
:102C7000F10080910A0990910B0901968F739927B1
:102C8000892B19F48EEF8093E80080910A099091C6
:102C90000B09019690930B0980930A0981E008952E
:102CA00080E00895CF92DF92EF92FF920F931F93EF
:102CB000CF93DF931F92CDB7DEB7082F162FF42ED8
:102CC000862F880F8E5F99830E94241683E00E94CE
:102CD0002416E02EC02E9981D92E8C2D8E198117A5
:102CE00098F4F601F7FE02C0849101C080810E9431
:102CF0002416082F80E00E9424168023FFEFCF1AAD
:102D0000DF0A8111EACF01C081E00F90DF91CF91FE
:102D10001F910F91FF90EF90DF90CF9008958091D9
:102D2000D70081608093D70080EA8093D80089B56E
:102D3000806189BD89B5826089BD09B400FEFDCF7F
:102D400061E070E080E090E00E94D1108091D800B6
:102D50008F7C80618093D8008091E000807F809399
:102D6000E0000895CF93DF931F92CDB7DEB71982AD
:102D7000CE0101960E9449130E94E11ABE016F5FC5
:102D80007F4F0E945A1A89810F90DF91CF91089549
:102D90002FB7FC012083F89467706093E9000895D1
:102DA000CF93DF931F92CDB7DEB7682FCE01019688
:102DB0000E94C8168091F20099819FBF0F90DF9109
:102DC000CF910895FF920F931F93CF93DF9300D07D
:102DD000CDB7DEB7F62E8A0190910E09992311F036
:102DE00057FF03C08FEF9FEF2BC0682FCE010196D6
:102DF0007A830E94C8168091F20090E0A8017A813F
:102E0000801791070CF4AC01EF2DF72FF40E84E638
:102E1000FE1639F0289A80930F099091F100919352
:102E2000F7CF4115510521F08091F200882321F060
:102E300089818FBFCA0104C08BE68093E800F8CF78
:102E40000F900F90DF91CF911F910F91FF900895F8
:102E5000CF93DF931F92CDB7DEB741E050E0BE01C4
:102E60006F5F7F4F0E94E216019719F4898190E00D
:102E700002C08FEF9FEF0F90DF91CF910895CF9316
:102E8000DF931F92CDB7DEB7682FCE0101960E9467
:102E9000C8169091E800892F807295FF04C0909128
:102EA000F20080E4891B99819FBF0F90DF91CF9141
:102EB00008956F927F928F929F92AF92BF92CF921E
:102EC000DF92EF92FF920F931F93CF93DF931F92A6
:102ED000CDB7DEB7782E7B01C42EB52E80910E09BA
:102EE000882369F0042F152F8AEFD82E872D807242
:102EF000982E9AE3A92E872D8074882E11C08FEF0B
:102F00009FEF57C0872D0E943F17682E81110CC07C
:102F1000DA94A9F361E070E080E090E00E94D110C3
:102F20000115110579F73BC0282F30E00217130770
:102F30000CF4602E672DCE0101960E94C816809178
:102F4000E80085FF29C0262D30E0021B130B9920D5
:102F500039F06A948FEF6816B1F01092F100F9CF52
:102F6000F701862D77FE07C0815058F09491909319
:102F7000F1003196F9CF815020F091919093F100BA
:102F8000FACFE20EF31E8091E80085FF0FC0011515
:102F9000110511F481100AC089818FBFC1CF5D9ADC
:102FA00084E6809310098C2D9B2D03C0A092E8002D
:102FB000F3CF0F90DF91CF911F910F91FF90EF9082
:102FC000DF90CF90BF90AF909F908F907F906F9049
:102FD00008951092E90010920B0910920A0990933B
:102FE0000909809308090895CF92DF92FF920F9309
:102FF0001F93CF93DF9300D0CDB7DEB7F82E8A01B1
:103000006B0101151105B1F0F601F7FE02C08491C4
:1030100001C0808149835A830E94241601501109FE
:10302000FFEFCF1ADF0A49815A818111EACF8FEF72
:103030009FEF01C0CA010F900F90DF91CF911F91B8
:103040000F91FF90DF90CF9008951F93CF93DF9360
:103050001F92CDB7DEB7162F2091E80022FFFCCFDC
:10306000612F79830E9417168BEF8093E800812FE0
:103070007981972F0F90DF91CF911F9108951F9223
:103080000F920FB60F921124DF92EF92FF920F93DF
:103090001F932F933F934F935F936F937F938F93E0
:1030A0009F93AF93BF93EF93FF93CF93DF93CDB7EE
:1030B000DEB76C97DEBFCDBF1092E9008091E800CB
:1030C00083FF23C168E0CE0145960E94171682EF68
:1030D0008093E8003D8937FF05C08091E80080FFBC
:1030E000FCCF03C08EEF8093E800832F807609F039
:1030F000F0C02E894F89D88C21110CC0303829F4AA
:1031000080910D098093F10002C01092F10010929D
:10311000F100F4C0842F90E09D29213049F4311151
:10312000EDC0019709F0EAC080910D098D7F0AC0BA
:10313000233059F43111E2C0019709F0DFC08091CA
:103140000D09826080930D09D9C0253041F480912A
:10315000E80080FFFCCF40684093E300CFC02630FA
:1031600009F08DC0EB8CFC8C22E0D2122CC080E0E8
:1031700090E00E94E9170E94B21699E08E010F5F5D
:103180001F4FF801292F11922A95E9F79983DA82C6
:1031900091E09E8390EA98879AEF998720910A0997
:1031A00030910B09275F3F4F3C832B838D83C701F1
:1031B0000E94E91749E050E0B80180E00E94F4174E
:1031C0000E94B2169BC0C7010E94E9170E94E11A33
:1031D000BE016B5E7F4F0E94831A009719F00CF0BE
:1031E0008DC090C081E0D8120EC08B8D9C8D089749
:1031F00019F481E0809307098091070981112FC09C
:103200006FEC71E031C0E3E0DE127CC08F8988236F
:1032100049F1823029F440E86DE08DEE91E01CC068
:10322000813029F440E86BE081EE91E015C08330F5
:1032300009F068C00E94E11A8E010F5F1F4FB801AC
:103240000E94A21AF80101900020E9F73197E01BD3
:10325000F10B40E06E2FC8010E9452164DC06DEB7D
:1032600071E002C06BEF71E06115710509F44AC0AD
:10327000FB01449150E080E80E94F4173FC02730E2
:1032800009F440C0283021F481E08093F10036C079
:103290002930A1F53370B1F5E0E1F1E081E021E002
:1032A00036E39081992361F08093E9002093EB004D
:1032B00091919093EC003093ED008F5F873089F708
:1032C0008EE78093EA001092EA008F8980930E09BE
:1032D00015C08B8D9C8D0E94E917898D811105C0C9
:1032E000CE0145960E94541307C00E94E11ABE0108
:1032F0006B5E7F4F0E94C11A882321F08EEF80936E
:10330000E80003C081E28093EB006C960FB6F8945E
:10331000DEBF0FBECDBFDF91CF91FF91EF91BF9187
:10332000AF919F918F917F916F915F914F913F915D
:103330002F911F910F91FF90EF90DF900F900FBE94
:103340000F901F9018958093E9008091F2008823D8
:1033500019F08AE38093E80008951F920F920FB648
:103360000F9211242F933F934F935F936F937F930B
:103370008F939F93AF93BF93CF93EF93FF93C0919E
:10338000E1008091E100837F8093E1008093E10080
:10339000C3FF0FC01092E90081E08093EB00109210
:1033A000EC0082E38093ED0010920E0988E0809398
:1033B000F000C2FF19C083E00E94A3198091100998
:1033C000882339F080911009815080931009882357
:1033D00089F180910F09882339F080910F0981507C
:1033E00080930F09882341F1C4FF10C08091E2004F
:1033F0008E7E81608093E2008091E1008F7E8093D9
:10340000E10080910C098E7E806111C0C0FF16C062
:103410008091E2008E7E80618093E2008091E100E5
:103420008E7E8093E10080910C098E7E8160809376
:103430000C0904C05D98CDCF2898D6CFFF91EF91AD
:10344000CF91BF91AF919F918F917F916F915F913C
:103450004F913F912F910F900FBE0F901F90189595
:1034600010920E0910920D0910920C090E948F16ED
:10347000E1EEF0E080818E7E80838DE08093E2003B
:10348000559A209A5D982898089508950E94F910F9
:103490000E94451A86E099E00E94301A0E9473014A
:1034A000C0E0D0E00E9491072097E1F30E94000065
:1034B000F9CF0895EF92FF920F931F93CF93DF936D
:1034C0007B01FC01C281D38100E010E0209781F0F4
:1034D000E881F9810280F381E02DB701CE010995E1
:1034E00097FD08C0080F191F0884D985C02DEECF9D
:1034F000C80102C08FEF9FEFDF91CF911F910F9115
:10350000FF90EF9008950F931F93CF93DF938B015C
:10351000FC01C281D381209771F0E881F981048098
:10352000F581E02DB801CE010995009731F40884AA
:10353000D985C02DF0CF80E090E0DF91CF911F9131
:103540000F9108950F931F93CF93DF938B01FC018D
:10355000C281D381209771F0E881F9810680F781DB
:10356000E02DB801CE010995080F111D0884D985F9
:10357000C02DF0CFF8011082DF91CF911F910F91F4
:1035800008950F931F93CF93DF938B01FC01C281AA
:10359000D381209771F0E881F9810190F081E02DCD
:1035A000B801CE010995811106C00884D985C02DC6
:1035B000F0CF80E001C081E0DF91CF911F910F91AA
:1035C00008958091150981110DC082E08093110941
:1035D00084E080931209109214091092130981E07B
:1035E0008093150981E199E008955058BB27AA27D7
:1035F0000ED075C166D130F06BD120F031F49F3F11
:1036000011F41EF45BC10EF4E095E7FB51C1E92F04
:1036100077D180F3BA17620773078407950718F00C
:1036200071F49EF58FC10EF4E0950B2EBA2FA02DEC
:103630000B01B90190010C01CA01A0011124FF275F
:10364000591B99F0593F50F4503E68F11A16F0405A
:10365000A22F232F342F4427585FF3CF4695379559
:103660002795A795F0405395C9F77EF41F16BA0B1E
:10367000620B730B840BBAF09150A1F0FF0FBB1FCC
:10368000661F771F881FC2F70EC0BA0F621F731F15
:10369000841F48F4879577956795B795F7959E3F72
:1036A00008F0B3CF9395880F08F09927EE0F979500
:1036B00087950895D9D008F481E008950CD00FC102
:1036C00007D140F0FED030F021F45F3F19F0F0C098
:1036D000511139C1F3C014D198F39923C9F355237B
:1036E000B1F3951B550BBB27AA27621773078407F5
:1036F00038F09F5F5F4F220F331F441FAA1FA9F3AB
:1037000033D00E2E3AF0E0E830D091505040E6959C
:10371000001CCAF729D0FE2F27D0660F771F881FFD
:10372000BB1F261737074807AB07B0E809F0BB0BEC
:10373000802DBF01FF2793585F4F2AF09E3F510510
:1037400068F0B6C000C15F3FECF3983EDCF38695AD
:1037500077956795B795F7959F5FC9F7880F911D86
:103760009695879597F90895E1E0660F771F881F72
:10377000BB1F621773078407BA0720F0621B730B25
:10378000840BBA0BEE1F88F7E095089504D0689477
:10379000B111D9C00895BCD088F09F5790F0B92FCF
:1037A0009927B751A0F0D1F0660F771F881F991F96
:1037B0001AF0BA95C9F712C0B13081F0C3D0B1E0A8
:1037C0000895C0C0672F782F8827B85F39F0B93FB8
:1037D000CCF3869577956795B395D9F73EF4909598
:1037E0008095709561957F4F8F4F9F4F0895E89416
:1037F00009C097FB3EF490958095709561957F4F39
:103800008F4F9F4F9923A9F0F92F96E9BB279395E6
:10381000F695879577956795B795F111F8CFFAF4F6
:10382000BB0F11F460FF1BC06F5F7F4F8F4F9F4F27
:1038300016C0882311F096E911C0772321F09EE885
:10384000872F762F05C0662371F096E8862F70E0EB
:1038500060E02AF09A95660F771F881FDAF7880FC5
:103860009695879597F90895990F0008550FAA0B1B
:10387000E0E8FEEF16161706E807F907C0F0121683
:103880001306E407F50798F0621B730B840B950B86
:1038900039F40A2661F0232B242B252B21F40895DB
:1038A0000A2609F4A140A6958FEF811D811D089578
:1038B00097F99F6780E870E060E008959FEF80ECE3
:1038C000089500240A941616170618060906089586
:1038D00000240A9412161306140605060895092EEC
:1038E0000394000C11F4882352F0BB0F40F4BF2B5B
:1038F00011F460FF04C06F5F7F4F8F4F9F4F08959B
:1039000057FD9058440F551F59F05F3F71F0479590
:10391000880F97FB991F61F09F3F79F08795089575
:10392000121613061406551FF2CF4695F1DF08C094
:10393000161617061806991FF1CF869571056105B1
:1039400008940895E894BB2766277727CB0197F959
:1039500008958ADF08F48FEF08950BD0C0CFB1DF50
:1039600028F0B6DF18F0952309F0A2CFA7CF1124D5
:10397000EACFC6DFA0F3959FD1F3950F50E0551F16
:10398000629FF001729FBB27F00DB11D639FAA27B4
:10399000F00DB11DAA1F649F6627B00DA11D661F03
:1039A000829F2227B00DA11D621F739FB00DA11D24
:1039B000621F839FA00D611D221F749F3327A00DDE
:1039C000611D231F849F600D211D822F762F6A2F7A
:1039D00011249F5750408AF0E1F088234AF0EE0FFF
:1039E000FF1FBB1F661F771F881F91505040A9F70C
:1039F0009E3F510570F05CCFA6CF5F3FECF3983E41
:103A0000DCF3869577956795B795F795E7959F5F72
:103A1000C1F7FE2B880F911D9695879597F908950C
:103A200023DF880B990B089597FB072E16F400945B
:103A300007D077FD09D00E94721D07FC05D03EF427
:103A4000909581959F4F0895709561957F4F08954A
:103A5000A1E21A2EAA1BBB1BFD010DC0AA1FBB1F92
:103A6000EE1FFF1FA217B307E407F50720F0A21B04
:103A7000B30BE40BF50B661F771F881F991F1A9471
:103A800069F760957095809590959B01AC01BD019B
:103A9000CF010895EE0FFF1F0590F491E02D0994DA
:103AA000A29FB001B39FC001A39F700D811D11247F
:103AB000911DB29F700D811D1124911D08950E94CA
:103AC000501DA59F900DB49F900DA49F800D911D3A
:103AD00011240895B7FF0C945F1D0E945F1D821B87
:103AE000930B0895AA1BBB1B51E107C0AA1FBB1F64
:103AF000A617B70710F0A61BB70B881F991F5A957A
:103B0000A9F780959095BC01CD010895F894FFCF59
:103B1000010001FFFFFFFF00E100000000000000C6
:103B2000C1808100000048545532312053656E73C6
:103B30006F723A20002054656D7065726174757201
:103B4000653A0043002048756D69646974793A00EC
:103B50002500484948343033302048756D69646920
:103B600074792053656E736F722072656164696E3B
:103B7000672028302D31303234293A004C6967688B
:103B8000742053656E736F722072656164696E672D
:103B90002028302D31303234293A00556E69717544
:103BA0006520426F617264204944202320005468DC
:103BB00065204865617274626561742070696E7316
:103BC0002077696C6C2062652070756C7365642069
:103BD000332074696D65732E0053657474696E6764
:103BE000204842542050696E7320746F20686967C2
:103BF000682E0053657474696E67204842542050E3
:103C0000696E7320746F204C6F772E00526561646B
:103C1000696E67206865617274626561742076619F
:103C20006C75657320666F7220504F5254313A00A4
:103C300052656164696E672068656172746265616E
:103C4000742076616C75657320666F7220504F52D8
:103C500054323A0052656164696E6720686561722A
:103C600074626561742076616C75657320666F722D
:103C700020504F5254333A0052656164696E672098
:103C80006865617274626561742076616C756573D4
:103C900020666F7220504F5254343A00526561646E
:103CA000696E67206865617274626561742076610F
:103CB0006C75657320666F7220504F5254353A0010
:103CC000546865726D6973746F722056616C7565A6
:103CD000733A0043757272656E742074696D652065
:103CE00073696E63652065706F63683A200058558C
:103CF0003420626F6F742073656C6563746F72201B
:103D000074657374202D20706C6561736520636821
:103D100065636B2074686520636F6E74696E756986
:103D20007479206265747765656E2050494E203144
:103D300020616E642032206F66204A342E00626556
:103D400065702E2E004E6F7720636865636B20636D
:103D50006F6E74696E7569747920626574776565D4
:103D60006E2050494E53203220616E642033206F04
:103D700066204A342E0058553420626F6F74706983
:103D80006E204A34207465737420636F6D706C65A7
:103D900074652E00506C65617365207365742074C2
:103DA0006865206D756C74696D6574657220696EE7
:103DB00020636F6E74696E756974792063686563DA
:103DC0006B207769746820626565706572204F4E5C
:103DD000206D6F64652E0043315020626F6F742038
:103DE00073656C6563746F722074657374202D2025
:103DF000706C6561736520636865636B20746865CA
:103E000020636F6E74696E7569747920626574776A
:103E100065656E207468652074776F2070696E73B5
:103E2000206F66204A50392E2054686520626F61E9
:103E300072642077696C6C20616C7465726E617459
:103E40006520746865206D6F64657320666F7220ED
:103E50006E6578742035207365636F6E64732061BE
:103E60006E6420796F752073686F756C6420686567
:103E700061722062656570732E0043312B20626F82
:103E80006F7470696E204A503920746573742063B2
:103E90006F6D706C6574652E0043757272656E741B
:103EA00020636F6E73756D7074696F6E3A0057653D
:103EB0002077696C6C20706F776572204F4E20619F
:103EC0006C6C20706F727473206F6E652062792045
:103ED0006F6E652E20596F752073686F756C642046
:103EE0006865617220352073657065726174652044
:103EF000636C69636B732C20616E6420736565204D
:103F00007468652063757272656E7420757361677D
:103F10006520696E6372656173652E00436C696329
:103F20006B20312000436C69636B20322000436CAE
:103F300069636B20332000436C69636B203420007D
:103F4000436C69636B203500506F776572696E67EB
:103F5000206F666620616C6C2072656C6179732ECF
:103F6000205468652063757272656E742075736184
:103F70006765207265706F72746564206E6F77205C
:103F800073686F756C6420616C6C20626520756E5F
:103F9000646572203132302E002D2D2D2D2D2D57A0
:103FA00061676D616E20626F617264207465737405
:103FB0002D2D2D2D2D2D002E2000506F776572692F
:103FC0006E67207570205761676D616E2C20706C74
:103FD00065617365207665726966792074686174BD
:103FE0002074686520706F776572204C45442069A5
:103FF00073204F4E2E2E2E0057616974696E672014
:10400000666F72207365636F6E6420616E642070EA
:1040100072696E74696E672074696D65206167618D
:10402000696E2E2E2E004E6F772C207765207769D3
:104030006C6C207475726E20746865206F6E2D62D2
:104040006F6172642072656C617973204F4E2061DC
:104050006E642073656520696620746865206375E9
:104060007272656E742073656E736F7273207069FF
:10407000636B207468656D2075702E00466F72202A
:10408000746865206E657874203130207365636FC5
:104090006E64732C20706C6561736520746F75633A
:1040A000682074686520484948343033302073658F
:1040B0006E736F72207769746820796F75722066ED
:1040C000696E6765722E00436F756E74696E672046
:1040D000646F776E2E2E2E00466F722074686520F6
:1040E0006E657874203130207365636F6E64732C55
:1040F00020706C6561736520636F766572207468EB
:1041000065206C69676873656E736F722077697478
:104110006820796F75207468756D622E00466F7225
:1041200020746865206E6578742031302073656373
:104130006F6E64732C20706C6561736520746F758D
:104140006368207468652048545532314420736593
:104150006E736F72207769746820796F757220664C
:10416000696E6765722E00426F6F742073656C65AF
:1041700063746F722074657374733A00486561727A
:10418000746265617420746573743A002D2D2D2D51
:104190002D2D456E64206F6620626F6172642074FD
:1041A0006573742D2D2D2D2D2D001F1C1F1E1F1E00
:1041B0001F1F1E1F1E1F000000007B0D4E0D230D34
:1041C0002B0D3E0D4D0D00000000EC1233131613A5
:1041D0002613021313130D0A006E616E00696E66DA
:0641E000006F766600008E
:00000001FF
