:100000000C94EE000C941F010C941F010C941F0122
:100010000C941F010C941F010C941F010C941F01E0
:100020000C941F010C941F010C94A8120C943A110B
:100030000C941F010C941F010C941F010C941F01C0
:100040000C941F010C941F010C941F010C941F01B0
:100050000C941F010C941F010C941F010C94310A85
:100060000C941F010C941F010C941F010C941F0190
:100070000C941F010C941F010C941F010C941F0180
:100080000C941F010C941F010C941F010C941F0170
:100090000C9404090C941F010C941F010C941F0173
:1000A0000C941F010C941F010C941F01650B680B2D
:1000B000570B5B0B610B890B890B890B6C0B700B5E
:1000C000740B7A0B7E0B890B840B07060504010069
:1000D000080A0B0C0D090000000200090F000003C4
:1000E0000401000C000000000000000000000000FF
:1000F0000000000000040802011040804010204071
:10010000804080080204018040201002011080100D
:1001100020404020040404040403040502020202F7
:100120000403020202020606060606060404020290
:1001300002040400000000250028002B002E0031DE
:100140000000000000240027002A002D00300008D5
:100150000B0002020201000904000001020200007B
:1001600005240010010524010101042402060524D0
:100170000600010705810310004009040100020A7E
:10018000000000070502024000000705830240004E
:100190000012010002EF02014041233780000101FB
:1001A00002030112010002000000404123378000D9
:1001B000010102030141726475696E6F204C4C436A
:1001C0000041726475696E6F204D6963726F00043F
:1001D000030904002505C1061A08E00C11241FBEFE
:1001E000CFEFDAE0DEBFCDBF14BE88E10FB6F894E2
:1001F00080936000109260000FBE13E0A0E0B1E0B9
:10020000E2E7FCE202C005900D92AA3AB107D9F7E5
:1002100024E0AAEAB3E001C01D92A13FB207E1F7D2
:1002200011E0CCEDD1E004C02297FE010E9433160C
:10023000C43DD107C9F70E9441130C9437160C94A2
:10024000000061E08DE00E948A0B61E089E00E947D
:100250008A0B61E080E00E948A0B61E081E00E94ED
:100260008A0B61E084E00E948A0B61E085E10E94D4
:100270008A0B61E086E00E948A0B61E088E00E94C0
:100280008A0B61E08AE00E948A0B61E08CE00E94A8
:100290008A0B60E085E00E948A0B60E087E00E94A4
:1002A0008A0B60E086E10E948A0B60E08BE00E948E
:1002B0008A0B60E087E10C948A0B8EEA93E00E943F
:1002C0005D056093B3037093B4038093B50390937B
:1002D000B6038EEA93E00E94D5056093AF03709356
:1002E000B0038093B1039093B20366E171E08AE8B2
:1002F00094E00E94130D65E271E08AE894E00E94A8
:10030000130D4091AF035091B0036091B103709110
:10031000B20321E030E08AE894E00E94100F63E32A
:1003200071E08AE894E00E94130D65E371E08AE8C9
:1003300094E00E94130D4091B3035091B403609177
:10034000B5037091B60321E030E08AE894E00E94A2
:10035000100F60E471E08AE894E00E94200D6AE0EA
:1003600070E080E090E00C949E0A62E471E08AE81C
:1003700094E00E94130D84E10E941C0B4AE050E0BF
:10038000BC018AE894E00C94DD0D6CE671E08AE82B
:1003900094E00E94130D83E10E941C0B4AE050E0A0
:1003A000BC018AE894E00C94DD0D1F93CF93DF939A
:1003B00067EB73E080EC93E00E94C5066BE871E0A8
:1003C0008AE894E00E94130DC7EBD3E010E0699136
:1003D00040E150E08AE894E00E94020E173031F0CC
:1003E00069E871E08AE894E00E94130D1F5F1830FD
:1003F00071F76CE973E08AE894E0DF91CF911F9187
:100400000C94200D6EE971E08AE894E00E94130DCF
:1004100082E10E941C0B4AE050E0BC018AE894E0B3
:100420000E94D50D6CE28AE894E00E94150D40E030
:1004300060E08FEB93E00E9478068FEB93E00E94E0
:100440009706BC0185E0769567958A95E1F74AE0C5
:1004500050E08AE894E00E94090E6CE28AE894E099
:100460000E94150D40E061E08FEB93E00E9478065A
:100470008FEB93E00E949706BC0195E07695679517
:100480009A95E1F74AE050E08AE894E00E94090E6C
:100490006CE28AE894E00E94150D40E062E08FEB88
:1004A00093E00E9478068FEB93E00E949706BC01D0
:1004B00025E0769567952A95E1F74AE050E08AE8CD
:1004C00094E00E94090E6CE28AE894E00E94150D07
:1004D00040E063E08FEB93E00E9478068FEB93E0BF
:1004E0000E949706BC0135E0769567953A95E1F74D
:1004F0004AE050E08AE894E00C940F0E60E080E05F
:100500000E94C30B61E084E00E94C30B62E070E0D4
:1005100080E090E00E949E0A61E080E00E94C30BB0
:1005200062E070E080E090E00E949E0A60E080E07F
:100530000E94C30B62E070E080E090E00C949E0AA1
:1005400061E086E00C94C30B61E088E00C94C30B7F
:1005500061E08AE00C94C30B61E08CE00C94C30B67
:1005600060E080E00E94C30B60E084E00E94C30B67
:1005700062E070E080E090E00E949E0A61E080E02E
:100580000E94C30B62E070E080E090E00E949E0A4F
:1005900060E080E00E94C30B62E070E080E090E0E9
:1005A0000C949E0A60E086E00C94C30B60E088E047
:1005B0000C94C30B60E08AE00C94C30B60E08CE009
:1005C0000C94C30B0E94B00268EC70E080E090E0F5
:1005D0000E949E0A0E94D20268EC70E080E090E0E7
:1005E0000E949E0A0E94D60268EC70E080E090E0D3
:1005F0000E949E0A0E94DA0268EC70E080E090E0BF
:100600000E949E0A0C94DE0268EE73E080E090E0A7
:100610000E949E0A0E94210168EE73E080E090E053
:100620000E949E0A0E94E20240E052EC61E070E00B
:100630008AE894E00E94DA0C81EC93E00E9487073C
:1006400068EE73E080E090E00E949E0A41E061E085
:100650008FEB93E00E944D068EEA93E00C943105F7
:1006600061EB71E08AE894E00E94200D6BEF71E08D
:100670008AE894E00E94130D0E947E0260ED77E00C
:1006800080E090E00E949E0A64E072E08AE894E0D4
:100690000E94130D0E94A00260ED77E080E090E0E0
:1006A0000E949E0A6DE072E08AE894E00E94130DB9
:1006B0000E94A40260ED77E080E090E00E949E0A34
:1006C00066E172E08AE894E00E94130D0E94A8029D
:1006D00060ED77E080E090E00E949E0A6FE172E0BA
:1006E0008AE894E00E94200D0E94AC0260ED77E061
:1006F00080E090E00E949E0A67E272E08AE894E05F
:100700000E94200D0E94E20268EE73E080E090E01B
:100710000C949E0A60E472E08AE894E00E94200D46
:100720000E94D5016CE973E08AE894E00E94200DF4
:100730006091000170910101CB010196909301013C
:10074000809300014AE050E08AE894E00E94D50DD1
:100750006EE672E08AE894E00E94130D0E940202A5
:100760006CE973E08AE894E00E94200D609100013A
:1007700070910101CB0101969093010180930001DA
:100780004AE050E08AE894E00E94D50D6EE672E0FF
:100790008AE894E00E94130D0E94B50161E772E0BF
:1007A0008AE894E00E94200D6CEB72E08AE894E005
:1007B0000E94130D68E873E180E090E00E949E0AB9
:1007C0008BE090E09093AD038093AC036091AC0319
:1007D0007091AD0316161706D4F4615071094AE002
:1007E00050E08AE894E00E94D50D6CE971E08AE857
:1007F00094E00E94130D6EED73E080E090E00E94A3
:100800009E0A8091AC039091AD030197DBCF6BE919
:1008100073E08AE894E00E94200D64EF71E080E0CC
:1008200090E00E949E0A0E94B5016CE973E08AE89C
:1008300094E00E94200D6091000170910101CB01B4
:10084000019690930101809300014AE050E08AE80C
:1008500094E00E94D50D6EE672E08AE894E00E9472
:10086000130D0E94C5016DEC72E08AE894E00E94CD
:10087000200D6CEB72E08AE894E00E94130D68E8AA
:1008800073E180E090E00E949E0A8BE090E09093FC
:10089000AD038093AC036091AC037091AD03161669
:1008A00017063CF5615071094AE050E08AE894E08F
:1008B0000E94D50D6CE971E08AE894E00E94130D66
:1008C0006EED73E080E090E00E949E0A8091AC03A0
:1008D0009091AD03049739F483E10E941C0B90932F
:1008E000AB038093AA038091AC039091AD03019771
:1008F000CECF6BE973E08AE894E00E94200D6CE6AD
:1009000071E08AE894E00E94130D6091AA0370914F
:10091000AB034AE050E08AE894E00E94DD0D6CE908
:1009200073E08AE894E00E94200D609100017091CC
:100930000101CB01019690930101809300014AE0EF
:1009400050E08AE894E00E94D50D6EE672E08AE8F5
:1009500094E00E94130D0E945D0162E173E08AE859
:1009600094E00E94200D6CEB72E08AE894E00E9413
:10097000130D68E873E180E090E00E949E0A8BE02E
:1009800090E09093AD038093AC036091AC037091C1
:10099000AD0316161706D4F4615071094AE050E011
:1009A0008AE894E00E94D50D6CE971E08AE894E051
:1009B0000E94130D6EED73E080E090E00E949E0AAD
:1009C0008091AC039091AD030197DBCF6BE973E0AD
:1009D0008AE894E00E94200D64EF71E080E090E0EE
:1009E0000E949E0A0E945D016BE973E08AE894E030
:1009F0000E94130D6091000170910101CB010196DD
:100A000090930101809300014AE050E08AE894E06D
:100A10000E94D50D6EE672E08AE894E00E94130D04
:100A20000E9430036CE973E08AE894E00E94200D94
:100A30006CE573E08AE894E00E94200D61E070E0CC
:100A400080E090E00E949E0AF9CF8EEA93E00C9439
:100A50003005DC01ED91FC910190F081E02D0994CD
:100A6000089508950F931F93CB01A0E0B0E0BA2F33
:100A7000A92F982F8827842BE7E1F0E040E050E889
:100A800068E970E08C019D010E2E04C03695279513
:100A9000179507950A94D2F700FF04C0842795277D
:100AA000A627B72776956795579547953197E730ED
:100AB000F10541F71F910F910895EF92FF920F9367
:100AC0001F93CF93DF937C0160E470E081EC93E0AF
:100AD0000E949B0765EF70E081EC93E00E9429057E
:100AE00081EC93E00E94170867E370E080E090E0FB
:100AF0000E949E0A43E050E060E470E081EC93E0E5
:100B00000E94140805E610E081EC93E00E94F006D4
:100B1000039774F461E070E080E090E00E949E0A28
:100B20000150110989F760E070E889E794E436C064
:100B300081EC93E00E94F806082F81EC93E00E947C
:100B4000F806182F81EC93E00E94F806D02F90E071
:100B5000C92FC12B482FBE01C7010E943205811148
:100B600019C0BE016C7F80E090E00E94F21420E08A
:100B700030E040E857E30E94A81520E030E04AEF5B
:100B800052E40E94A81520E030E040EC50E40E94BE
:100B9000F01304C060E070EC89E794E4DF91CF913A
:100BA0001F910F91FF90EF900895EF92FF920F9396
:100BB0001F93CF93DF937C0160E470E081EC93E0BE
:100BC0000E949B0763EF70E081EC93E00E9429058F
:100BD00081EC93E00E94170867E370E080E090E00A
:100BE0000E949E0A43E050E060E470E081EC93E0F4
:100BF0000E94140805E610E081EC93E00E94F006E4
:100C0000039774F461E070E080E090E00E949E0A37
:100C10000150110989F760E070E889E794E436C073
:100C200081EC93E00E94F806082F81EC93E00E948B
:100C3000F806182F81EC93E00E94F806D02F90E080
:100C4000C92FC12B482FBE01C7010E943205811157
:100C500019C0BE016C7F80E090E00E94F21420E099
:100C600030E040E857E30E94A81522E538EB4FE258
:100C700053E40E94A81526E636E64BE352E40E94B0
:100C8000F01304C060E070EC89E794E4DF91CF9149
:100C90001F910F91FF90EF900895FC01611103C027
:100CA000411107C004C0623061F44230C1F488E6EB
:100CB0001DC0423011F489E619C04130C1F48AE602
:100CC00015C06130A1F4411102C08CE60FC0423062
:100CD00011F48DE60BC0413051F48EE607C041118E
:100CE00002C08BE603C0413011F48FE68083089583
:100CF000CF93DF931F92CDB7DEB7486850E2659F70
:100D000090011124422BFC01608181EC93E0498326
:100D10000E9491074981642F81EC93E00E9448076B
:100D200081EC93E00F90DF91CF910C9417080F9313
:100D30001F93CF93DF938C0160E570E080E090E03B
:100D40000E949E0A43E0F801608181EC93E00E94DA
:100D5000110881EC93E00E94F806082F81EC93E0E3
:100D60000E94F806182F81EC93E00E94F806D02F1D
:100D7000F0E0CF2FCE01812BDF91CF911F910F910A
:100D8000089581EC93E00C9487070F931F93CF9302
:100D9000DF938B0167E570E081EC93E00E949B0795
:100DA00060EF70E081EC93E00E94290581EC93E014
:100DB0000E94170848E050E067E570E081EC93E09E
:100DC0000E941408E80118E081EC93E00E94F80604
:100DD00089931150C9F7DF91CF911F910F91089519
:100DE0008091F10390E02091F203821B9109089514
:100DF0002091F2038091F103281750F4E22FF0E0E4
:100E0000ED50FC4F808190E02F5F2093F203089516
:100E10008FEF9FEF0895E091F2038091F103E817BF
:100E200030F4F0E0ED50FC4F808190E008958FEFBA
:100E30009FEF08950895CF92DF92EF92FF920F9364
:100E40001F93CF93DF937C01CB018A012091CD03C7
:100E5000222389F0EB016B01C40ED51ECC15DD05F4
:100E600069F06991D701ED91FC910190F081E02D3D
:100E7000C7010995F3CF642F0E94DB08C801DF91F9
:100E8000CF911F910F91FF90EF90DF90CF90089539
:100E9000CF93DF931F92CDB7DEB769832091CD0347
:100EA0002223D1F02091CE03203240F021E030E027
:100EB000FC013383228380E090E015C08091CF0352
:100EC000E82FF0E0E053FC4F998190838F5F80938F
:100ED000CF038093CE0305C061E0CE0101960E944E
:100EE000DB0881E090E00F90DF91CF910895FC0145
:100EF0001382128248EE53E060E070E04483558331
:100F0000668377838EE793E09183808308951092C0
:100F1000F2031092F1031092CF031092CE030C94BF
:100F20001E0881E08093CD036093F0031092CF03FD
:100F30001092CE0308950C9491070F93062F21E091
:100F40004091CE0360ED73E08091F0030E9484082D
:100F50001092CF031092CE031092CD030F910895FB
:100F60008F929F92AF92BF92CF92DF92EF92FF92B9
:100F70000F931F93CF93DF93EC01F62ED42E4801ED
:100F80005901EE2019F10E9491071E2D143008F02E
:100F900013E01150B8F0E881F98128E0129FB00108
:100FA0001124A501940104C05695479537952795BE
:100FB0006A95D2F7CA01B9010190F081E02DCE0106
:100FC0000995E7CF60E0CE010E949D074D2D41328B
:100FD00008F040E22C2D63EF73E08F2D0E943C0857
:100FE0001092F2038093F103DF91CF911F910F9143
:100FF000FF90EF90DF90CF90BF90AF909F908F9039
:101000000895CF92EF920F931F93C22EE12C00E030
:1010100010E098010E94B0071F910F91EF90CF90C0
:10102000089521E00C94010821E00C94010861E08E
:101030000C949D0781EC93E00C9477071092800448
:1010400081E080937E0410927D0461E082E00E9442
:10105000C30B61E083E00E94C30BE9EBF0E0808109
:101060008E7F808380818D7F808388E48093B80029
:1010700085E48093BC000895413208F043C090910C
:1010800080049111FCCF91E09093800420937E0422
:101090002FEF2093130410925804240F2093570429
:1010A00090937F0490917F04880F892B80937F0415
:1010B00080917D04813061F410927D0480917F04E1
:1010C0008093BB008091BC0083FDF8CF85EC01C00C
:1010D00085EE8093BC00809180048130E1F38091A3
:1010E0005804841710F44091580429E534E0FB01BA
:1010F000D9018A2F821B841718F48D918193F9CF1F
:10110000842F089580E008950F93413208F04AC07B
:10111000909180049111FCCF92E090938004009311
:101120007E049FEF90931304109258044093570449
:10113000FB0169E574E0DB019A2F961B941718F404
:1011400091919D93F9CF10927F0490917F04880F25
:10115000892B80937F0480917D04813061F410920B
:101160007D0480917F048093BB008091BC0083FD4F
:10117000F8CF85EC01C085EE8093BC00222321F0DE
:10118000809180048230E1F3809113048F3F61F0FD
:1011900080911304803251F080911304803341F424
:1011A00083E007C081E005C080E003C082E001C0A9
:1011B00084E00F910895613298F4209180042430E6
:1011C00089F460933504FC0187E394E0DC012A2F65
:1011D000281B261718F421912D93F9CF80E008954C
:1011E00081E0089582E0089585ED8093BC008091B0
:1011F000BC0084FDFCCF10928004089585EC8093A0
:10120000BC001092800408951F920F920FB60F92A7
:1012100011242F933F934F935F936F937F938F93FB
:101220009F93AF93BF93EF93FF938091B900887F13
:10123000803609F49EC078F5883209F45DC090F4D8
:10124000803109F456C038F4882309F4F5C0883099
:1012500009F44FC0F5C0883109F44EC0803209F45A
:101260005FC0EEC0803409F46AC058F4803309F4DA
:1012700057C0883309F0E4C0809313040E94FE082D
:10128000DFC0803509F44FC0883509F45DC088346B
:1012900009F0D6C0D3C0883909F4C4C0A8F488378F
:1012A00009F467C038F4883609F463C0803709F45C
:1012B00060C0C6C0883809F4B5C0803909F45FC081
:1012C000803809F0BDC05BC0803B09F483C038F4AE
:1012D000803A09F466C0883A09F47CC0B1C0803C09
:1012E00009F4A4C0883C09F4A1C0883B09F487C074
:1012F000A7C080917F0410C090915804809157043A
:10130000981770F5E091580481E08E0F809358048F
:10131000F0E0E75AFB4F80818093BB0085EC83C0EF
:10132000809313048BC0E091580481E08E0F80936A
:1013300058048091BB00F0E0E75AFB4F8083909106
:101340005804809157046BC0E091580481E08E0FDF
:10135000809358048091BB00F0E0E75AFB4F8083F4
:1013600080917E0481116AC081E080937D0484EACB
:101370005EC083E08093800410921404CFCF8091EC
:101380001404803208F04EC0E091140481E08E0F06
:10139000809314048091BB00F0E0EB5EFB4F8083F0
:1013A000BDCF0E94FE0880911404803230F4E09199
:1013B0001404F0E0EB5EFB4F10826091140470E0C7
:1013C000E0917904F0917A0485E194E00995109216
:1013D000140436C084E08093800410923604109286
:1013E0003504E0917B04F0917C04099580913504EB
:1013F000811105C081E08093350410923704E0919B
:10140000360481E08E0F80933604F0E0E95CFB4FF8
:1014100080818093BB0090913604809135049817A9
:1014200008F47CCF85E88093BC000AC085EC8093EB
:10143000BC001092800404C0109213040E94F408AF
:10144000FF91EF91BF91AF919F918F917F916F919C
:101450005F914F913F912F910F900FBE0F901F9072
:1014600018951F920F920FB60F9211242F933F934E
:101470008F939F93AF93BF93809182049091830445
:10148000A0918404B09185043091810423E0230F5E
:101490002D3720F40196A11DB11D05C026E8230FAC
:1014A0000296A11DB11D2093810480938204909324
:1014B0008304A0938404B093850480918604909162
:1014C0008704A0918804B09189040196A11DB11DE3
:1014D0008093860490938704A0938804B093890432
:1014E000BF91AF919F918F913F912F910F900FBE20
:1014F0000F901F9018953FB7F894809186049091B3
:101500008704A0918804B091890426B5A89B05C0E2
:101510002F3F19F00196A11DB11D3FBF6627782FFF
:10152000892F9A2F620F711D811D911D42E0660F58
:10153000771F881F991F4A95D1F70895CF92DF92A0
:10154000EF92FF92CF93DF936B017C010E947B0AA5
:10155000EB01C114D104E104F10489F00E94541399
:101560000E947B0A6C1B7D0B683E734090F381E008
:10157000C81AD108E108F108C851DC4FEACFDF9161
:10158000CF91FF90EF90DF90CF900895789484B53D
:10159000826084BD84B5816084BD85B5826085BD6F
:1015A00085B5816085BDEEE6F0E080818160808355
:1015B000E1E8F0E010828081826080838081816038
:1015C0008083E0E8F0E0808181608083E1E9F0E001
:1015D000808182608083808181608083E0E9F0E0A7
:1015E000808181608083E1ECF0E080818460808391
:1015F000808182608083808181608083E3ECF0E081
:10160000808181608083E0ECF0E080818260808373
:10161000E2ECF0E0808181608083EAE7F0E08081A5
:101620008460808380818260808380818160808308
:101630008081806880830895823108F08251E82F8C
:10164000F0E0E653FF4FE49180917B00E3FB22271B
:1016500020F930E095E0220F331F9A95E1F78F7D56
:10166000822B80937B00E7708091020120E4829FAF
:10167000C0011124E82BE0937C0080917A00806403
:1016800080937A0080917A0086FDFCCF809178006B
:101690002091790090E0922B089590E0FC01319721
:1016A000EF30F105B0F5EA5AFF4F0C9431168091F6
:1016B00080008F7703C0809180008F7D80938000B1
:1016C000089580918000877FF9CF84B58F7702C01D
:1016D00084B58F7D84BD0895809190008F7707C079
:1016E000809190008F7D03C080919000877F8093D0
:1016F000900008958091C0008F7703C08091C00052
:101700008F7D8093C00008958091C200877F809371
:10171000C2000895CF93DF9390E0FC01EB50FF4FA0
:101720002491FC01EC5EFE4F8491882349F190E006
:10173000880F991FFC01EF5BFE4FA591B4918D5C62
:101740009E4FFC01C591D4919FB7611108C0F894D8
:101750008C91209582238C93888182230AC06230E9
:1017600051F4F8948C91322F309583238C93888197
:10177000822B888304C0F8948C91822B8C939FBF1A
:10178000DF91CF9108950F931F93CF93DF931F9213
:10179000CDB7DEB7282F30E0F901EA52FF4F849130
:1017A000F901EB50FF4F1491F901EC5EFE4F0491EB
:1017B0000023C9F0882321F069830E944D0B6981C1
:1017C000E02FF0E0EE0FFF1FED5CFE4FA591B4910E
:1017D0009FB7F8948C91611103C01095812301C0CB
:1017E000812B8C939FBF0F90DF91CF911F910F9111
:1017F0000895CF93DF931F92CDB7DEB76983DC01E5
:10180000ED91FC910280F381E02D41E050E0BE01BA
:101810006F5F7F4F09950F90DF91CF910895CF9320
:10182000DF93EC018C859D8597FF05C082E00E94C7
:1018300023109D878C878C859D85DF91CF9108959E
:1018400083E00C949E12FC018485958597FD06C06B
:1018500082E00E94CB0F90E00196089582E00E9402
:10186000CB0F90E00895FC018485958597FD05C018
:101870002FEF3FEF35872487089582E00C942310E3
:10188000CF93DF93EC0180910E01882331F083E048
:101890000E9454101816190634F081E090E09B83E2
:1018A0008A8380E090E0DF91CF910895FC01208150
:1018B0002E5F208342E450E06FE471E080E80C94F6
:1018C000EF10FC0121818081813A59F4213209F025
:1018D0005CC047E050E067E071E080E00E94EF10FC
:1018E00067C0813209F051C0233289F4838190E0CE
:1018F000982F88273281832BA0E0B0E080930301EA
:1019000090930401A0930501B09306010FC020320B
:1019100039F467E070E087E091E00E9420110AC08E
:10192000223221F4828180930E0104C02D7F203267
:1019300009F03EC08091070190910801A091090132
:10194000B0910A01803B9440A105B10501F5809159
:101950000E0180FD1CC080910008909101089093B9
:10196000FF0A8093FE0A87E797E790930108809328
:1019700000082BE088E190E00FB6F894A8958093DA
:1019800060000FBE2093600013C080E0089588E1DE
:101990000FB6F89480936000109260000FBEA89577
:1019A0008091FE0A9091FF0A9093010880930008AD
:1019B00081E008952FEF3FEFFC01358724870895DC
:1019C00010928D0410928C0488EE93E0A0E0B0E0B9
:1019D00080938E0490938F04A0939004B09391040D
:1019E0008EE893E090938B0480938A048FEF9FEFAF
:1019F000909397048093960408956115710581F082
:101A0000DB010D900020E9F7AD0141505109461B63
:101A1000570BDC01ED91FC910280F381E02D0994DC
:101A200080E090E008950C94FD0CDC01ED91FC91B8
:101A30000190F081E02D09946AE973E00C94FD0CAB
:101A40000F931F93CF93DF93EC010E94FD0C8C0149
:101A5000CE010E941C0D800F911FDF91CF911F912D
:101A60000F9108958F929F92AF92BF92CF92DF9283
:101A7000EF92FF920F931F93CF93DF93CDB7DEB713
:101A8000A1970FB6F894DEBF0FBECDBF7C01C42E68
:101A9000E52FCB01D22E19A221E02D1510F02AE05E
:101AA000D22E8E010F5D1F4F8D2C912CA12CB12CAD
:101AB0006C2D7E2FA50194010E940F168C2DD29EB5
:101AC00080191124015011098A3014F4805D01C07D
:101AD000895CF8018083211531054105510521F00C
:101AE000C22EE32FCA01E4CFB801C7010E94FD0C4A
:101AF000A1960FB6F894DEBF0FBECDBFDF91CF9198
:101B00001F910F91FF90EF90DF90CF90BF90AF901B
:101B10009F908F900895CF92DF92EF92FF920F9354
:101B20001F93CF93DF93EC016A017B0121153105EF
:101B300079F4E881F9810190F081E02D642FDF9143
:101B4000CF911F910F91FF90EF90DF90CF9009946C
:101B50002A303105E9F477FF1AC06DE20E94150DB5
:101B60008C0144275527BA014C195D096E097F097C
:101B70002AE0CE010E94320D800F911FDF91CF919C
:101B80001F910F91FF90EF90DF90CF9008952AE082
:101B9000B701A601CE01DF91CF911F910F91FF9068
:101BA000EF90DF90CF900C94320D9A01AB01662735
:101BB00057FD6095762F0C948B0D0F931F93CF9349
:101BC000DF93EC019A01AB01662757FD6095762FF4
:101BD0000E948B0D8C01CE010E941C0D800F911F65
:101BE000DF91CF911F910F9108952115310541F497
:101BF000DC01ED91FC910190F081E02D642F0994BE
:101C00000C94320D9A01462F50E060E070E00C9485
:101C1000F50D9A01AB0160E070E00C94F50D0F93A7
:101C20001F93CF93DF93EC019A01AB0160E070E06A
:101C30000E94F50D8C01CE010E941C0D800F911F9A
:101C4000DF91CF911F910F9108954F925F926F9204
:101C50007F928F929F92AF92BF92CF92DF92EF923C
:101C6000FF920F931F93CF93DF93EC016A017B01E7
:101C7000B22E9A01AB01C701B6010E940B16882350
:101C800019F06DE973E027C026013701E89477F871
:101C90002FEF3FEF4FE75FE7C301B2010E940B1642
:101CA00081110DC02FEF3FEF4FE75FE7C301B20196
:101CB0000E94551418161CF461EA73E00CC02FEF53
:101CC0003FEF4FE75FE4C701B6010E94A415181665
:101CD000ACF465EA73E0CE01DF91CF911F910F91D3
:101CE000FF90EF90DF90CF90BF90AF909F908F903C
:101CF0007F906F905F904F900C94FD0C2FEF3FEF13
:101D00004FE75FECC701B6010E94551487FDE1CF94
:101D100020E030E0A901C701B6010E94551487FFF9
:101D20000AC06DE2CE010E94150D8C01F7FAF09405
:101D3000F7F8F09402C000E010E0A12C60E070E041
:101D400080E09FE3AB1441F020E030E040E251E45A
:101D50000E945914A394F6CF9B01AC01C701B601B0
:101D60000E94F1136B017C010E94C6142B013C01FF
:101D70000E94F2149B01AC01C701B6010E94F0134E
:101D80006B017C012AE0B301A201CE010E94320D59
:101D9000080F191FBB2039F06BEC72E0CE010E94D6
:101DA000FD0C080F191F7B2C772041F120E030E05B
:101DB00040E251E4C701B6010E94A8156B017C0105
:101DC0000E94C1144B01AA2497FCA094BA2C2AE0CB
:101DD00030E0B501A401CE010E948B0D080F191F40
:101DE000C501B4010E94F4149B01AC01C701B60106
:101DF0000E94F0136B017C017A94D6CFC801DF9169
:101E0000CF911F910F91FF90EF90DF90CF90BF90F7
:101E1000AF909F908F907F906F905F904F900895BC
:101E20000C94250E615030F02091F100FC012083CC
:101E30000196F8CF289A84E68093E30408954091B0
:101E4000DE045091DF042091DC043091DD04421760
:101E50005307B4F49091E8009570E1F39091E80095
:101E600092FD19C08093F1008091DE049091DF040F
:101E700001968F739927892B19F48EEF8093E800D0
:101E80008091DE049091DF0401969093DF048093AB
:101E9000DE0481E0089580E00895CF92DF92EF9212
:101EA000FF920F931F93CF93DF931F92CDB7DEB7AF
:101EB000082F162FF42E862F880F8E5F99830E948D
:101EC0001F0F83E00E941F0FE02EC02E9981D92E94
:101ED0008C2D8E19811798F4F601F7FE02C08491BB
:101EE00001C080810E941F0F082F80E00E941F0FF9
:101EF0008023FFEFCF1ADF0A8111EACF01C081E012
:101F00000F90DF91CF911F910F91FF90EF90DF9095
:101F1000CF9008958091D70081608093D70080EAA8
:101F20008093D80089B5806189BD89B5826089BDFB
:101F300009B400FEFDCF61E070E080E090E00E9417
:101F40009E0A8091D8008F7C80618093D800809118
:101F5000E000807F8093E0000895CF93DF931F928D
:101F6000CDB7DEB71982CE0101960E94560C0E94B1
:101F7000DC13BE016F5F7F4F0E94551389810F9064
:101F8000DF91CF9108952FB7FC012083F8946770FB
:101F90006093E9000895CF93DF931F92CDB7DEB72A
:101FA000682FCE0101960E94C30F8091F2009981A3
:101FB0009FBF0F90DF91CF910895FF920F931F93D2
:101FC000CF93DF9300D0CDB7DEB7F62E8A01909184
:101FD000E204992311F057FF03C08FEF9FEF2BC04E
:101FE000682FCE0101967A830E94C30F8091F20080
:101FF00090E0A8017A81801791070CF4AC01EF2DD5
:10200000F72FF40E84E6FE1639F0289A8093E30445
:102010009091F1009193F7CF4115510521F08091F6
:10202000F200882321F089818FBFCA0104C08BE6AA
:102030008093E800F8CF0F900F90DF91CF911F9120
:102040000F91FF900895CF93DF931F92CDB7DEB726
:1020500041E050E0BE016F5F7F4F0E94DD0F0197AE
:1020600019F4898190E002C08FEF9FEF0F90DF910C
:10207000CF910895CF93DF931F92CDB7DEB7682F2E
:10208000CE0101960E94C30F9091E800892F8072C3
:1020900095FF04C09091F20080E4891B99819FBF55
:1020A0000F90DF91CF9108956F927F928F929F92C0
:1020B000AF92BF92CF92DF92EF92FF920F931F9356
:1020C000CF93DF931F92CDB7DEB7782E7B01C42E5E
:1020D000B52E8091E204882369F0042F152F8AEF32
:1020E000D82E872D8072982E9AE3A92E872D807482
:1020F000882E11C08FEF9FEF57C0872D0E943A1096
:10210000682E81110CC0DA94A9F361E070E080E0E0
:1021100090E00E949E0A0115110579F73BC0282F17
:1021200030E0021713070CF4602E672DCE010196E4
:102130000E94C30F8091E80085FF29C0262D30E062
:10214000021B130B992039F06A948FEF6816B1F0D7
:102150001092F100F9CFF701862D77FE07C081506C
:1021600058F094919093F1003196F9CF815020F07E
:1021700091919093F100FACFE20EF31E8091E80066
:1021800085FF0FC00115110511F481100AC0898166
:102190008FBFC1CF5D9A84E68093E4048C2D9B2D84
:1021A00003C0A092E800F3CF0F90DF91CF911F9171
:1021B0000F91FF90EF90DF90CF90BF90AF909F90E6
:1021C0008F907F906F9008951092E9001092DF0435
:1021D0001092DE049093DD048093DC040895CF9286
:1021E000DF92FF920F931F93CF93DF9300D0CDB771
:1021F000DEB7F82E8A016B0101151105B1F0F60169
:10220000F7FE02C0849101C0808149835A830E94F5
:102210001F0F01501109FFEFCF1ADF0A49815A81C0
:102220008111EACF8FEF9FEF01C0CA010F900F908D
:10223000DF91CF911F910F91FF90DF90CF90089584
:102240001F93CF93DF931F92CDB7DEB7162F209148
:10225000E80022FFFCCF612F79830E94120F8BEFE1
:102260008093E800812F7981972F0F90DF91CF9194
:102270001F9108951F920F920FB60F921124DF92B3
:10228000EF92FF920F931F932F933F934F935F9380
:102290006F937F938F939F93AF93BF93EF93FF932E
:1022A000CF93DF93CDB7DEB76C97DEBFCDBF109273
:1022B000E9008091E80083FF23C168E0CE014596E4
:1022C0000E94120F82EF8093E8003D8937FF05C01E
:1022D0008091E80080FFFCCF03C08EEF8093E80080
:1022E000832F807609F0F0C02E894F89D88C211178
:1022F0000CC0303829F48091E1048093F10002C0D1
:102300001092F1001092F100F4C0842F90E09D290A
:10231000213049F43111EDC0019709F0EAC08091F4
:10232000E1048D7F0AC0233059F43111E2C00197D6
:1023300009F0DFC08091E10482608093E104D9C09C
:10234000253041F48091E80080FFFCCF4068409345
:10235000E300CFC0263009F08DC0EB8CFC8C22E06E
:10236000D2122CC080E090E00E94E4100E94AD0FD9
:1023700099E08E010F5F1F4FF801292F11922A95C6
:10238000E9F79983DA8291E09E8390EA98879AEF41
:1023900099872091DE043091DF04275F3F4F3C8313
:1023A0002B838D83C7010E94E41049E050E0B801FF
:1023B00080E00E94EF100E94AD0F9BC0C7010E94F9
:1023C000E4100E94DC13BE016B5E7F4F0E947E13FF
:1023D000009719F00CF08DC090C081E0D8120EC0AB
:1023E0008B8D9C8D089719F481E08093DB0480919C
:1023F000DB0481112FC063EA71E031C0E3E0DE123B
:102400007CC08F89882349F1823029F440E86DE04F
:1024100081EC91E01CC0813029F440E86BE085EB51
:1024200091E015C0833009F068C00E94DC138E0172
:102430000F5F1F4FB8010E949D13F801019000200B
:10244000E9F73197E01BF10B40E06E2FC8010E94C5
:102450004D0F4DC061E971E002C06FEC71E0611594
:10246000710509F44AC0FB01449150E080E80E94E4
:10247000EF103FC0273009F440C0283021F481E03C
:102480008093F10036C02930A1F53370B1F5E0E159
:10249000F1E081E021E036E39081992361F08093BF
:1024A000E9002093EB0091919093EC003093ED00C4
:1024B0008F5F873089F78EE78093EA001092EA00F9
:1024C0008F898093E20415C08B8D9C8D0E94E4104F
:1024D000898D811105C0CE0145960E94610C07C00F
:1024E0000E94DC13BE016B5E7F4F0E94BC138823E9
:1024F00021F08EEF8093E80003C081E28093EB002F
:102500006C960FB6F894DEBF0FBECDBFDF91CF91B2
:10251000FF91EF91BF91AF919F918F917F916F91BB
:102520005F914F913F912F911F910F91FF90EF90ED
:10253000DF900F900FBE0F901F9018958093E900C9
:102540008091F200882319F08AE38093E8000895CF
:102550001F920F920FB60F9211242F933F934F9318
:102560005F936F937F938F939F93AF93BF93CF931B
:10257000EF93FF93C091E1008091E100837F80930E
:10258000E1008093E100C3FF0FC01092E90081E0F9
:102590008093EB001092EC0082E38093ED001092A8
:1025A000E20488E08093F000C2FF19C083E00E943B
:1025B0009E128091E404882339F08091E4048150D4
:1025C0008093E404882389F18091E304882339F01F
:1025D0008091E30481508093E304882341F1C4FF98
:1025E00010C08091E2008E7E81608093E200809135
:1025F000E1008F7E8093E1008091E0048E7E806117
:1026000011C0C0FF16C08091E2008E7E8061809371
:10261000E2008091E1008E7E8093E1008091E004F1
:102620008E7E81608093E00404C05D98CDCF2898B1
:10263000D6CFFF91EF91CF91BF91AF919F918F91A5
:102640007F916F915F914F913F912F910F900FBEAE
:102650000F901F9018951092E2041092E1041092CE
:10266000E0040E948A0FE1EEF0E080818E7E80839C
:102670008DE08093E200559A209A5D9828980895FD
:1026800008950E94C60A0E9440138AED94E00E94B9
:102690002B130E940403C0E0D0E00E948A0320971D
:1026A000E1F30E940000F9CF0895EF92FF920F939B
:1026B0001F93CF93DF937B01FC01C281D38100E0A4
:1026C00010E0209781F0E881F9810280F381E02D0C
:1026D000B701CE01099597FD08C0080F191F08849E
:1026E000D985C02DEECFC80102C08FEF9FEFDF91DB
:1026F000CF911F910F91FF90EF9008950F931F932B
:10270000CF93DF938B01FC01C281D381209771F0BD
:10271000E881F9810480F581E02DB801CE010995A9
:10272000009731F40884D985C02DF0CF80E090E087
:10273000DF91CF911F910F9108950F931F93CF9326
:10274000DF938B01FC01C281D381209771F0E88176
:10275000F9810680F781E02DB801CE010995080FB7
:10276000111D0884D985C02DF0CFF8011082DF91AA
:10277000CF911F910F9108950F931F93CF93DF93E4
:102780008B01FC01C281D381209771F0E881F9812E
:102790000190F081E02DB801CE010995811106C0AC
:1027A0000884D985C02DF0CF80E001C081E0DF91A1
:1027B000CF911F910F9108958091E90481110DC06F
:1027C00082E08093E50484E08093E6041092E804BC
:1027D0001092E70481E08093E90485EE94E0089587
:1027E0005058BB27AA270ED075C166D130F06BD1E7
:1027F00020F031F49F3F11F41EF45BC10EF4E0951C
:10280000E7FB51C1E92F77D180F3BA17620773074D
:102810008407950718F071F49EF58FC10EF4E095CA
:102820000B2EBA2FA02D0B01B90190010C01CA018A
:10283000A0011124FF27591B99F0593F50F4503E35
:1028400068F11A16F040A22F232F342F4427585F27
:10285000F3CF469537952795A795F0405395C9F73F
:102860007EF41F16BA0B620B730B840BBAF09150F7
:10287000A1F0FF0FBB1F661F771F881FC2F70EC096
:10288000BA0F621F731F841F48F487957795679569
:10289000B795F7959E3F08F0B3CF9395880F08F052
:1028A0009927EE0F979587950895D9D008F481E080
:1028B00008950CD00FC107D140F0FED030F021F4C4
:1028C0005F3F19F0F0C0511139C1F3C014D198F332
:1028D0009923C9F35523B1F3951B550BBB27AA27A1
:1028E00062177307840738F09F5F5F4F220F331F13
:1028F000441FAA1FA9F333D00E2E3AF0E0E830D0DF
:1029000091505040E695001CCAF729D0FE2F27D0E1
:10291000660F771F881FBB1F261737074807AB07AF
:10292000B0E809F0BB0B802DBF01FF2793585F4F24
:102930002AF09E3F510568F0B6C000C15F3FECF33E
:10294000983EDCF3869577956795B795F7959F5FE9
:10295000C9F7880F911D9695879597F90895E1E03D
:10296000660F771F881FBB1F621773078407BA079C
:1029700020F0621B730B840BBA0BEE1F88F7E095F7
:10298000089504D06894B111D9C00895BCD088F0DE
:102990009F5790F0B92F9927B751A0F0D1F0660F4B
:1029A000771F881F991F1AF0BA95C9F712C0B13066
:1029B00081F0C3D0B1E00895C0C0672F782F882779
:1029C000B85F39F0B93FCCF3869577956795B395A5
:1029D000D9F73EF490958095709561957F4F8F4F14
:1029E0009F4F0895E89409C097FB3EF49095809519
:1029F000709561957F4F8F4F9F4F9923A9F0F92FC5
:102A000096E9BB279395F695879577956795B79542
:102A1000F111F8CFFAF4BB0F11F460FF1BC06F5F28
:102A20007F4F8F4F9F4F16C0882311F096E911C03A
:102A3000772321F09EE8872F762F05C0662371F05B
:102A400096E8862F70E060E02AF09A95660F771F6F
:102A5000881FDAF7880F9695879597F90895990F4B
:102A60000008550FAA0BE0E8FEEF16161706E80758
:102A7000F907C0F012161306E407F50798F0621B79
:102A8000730B840B950B39F40A2661F0232B242B4E
:102A9000252B21F408950A2609F4A140A6958FEF6D
:102AA000811D811D089597F99F6780E870E060E0BF
:102AB00008959FEF80EC089500240A9416161706D7
:102AC00018060906089500240A941216130614061F
:102AD00005060895092E0394000C11F4882352F082
:102AE000BB0F40F4BF2B11F460FF04C06F5F7F4F3A
:102AF0008F4F9F4F089557FD9058440F551F59F021
:102B00005F3F71F04795880F97FB991F61F09F3FDA
:102B100079F087950895121613061406551FF2CF03
:102B20004695F1DF08C0161617061806991FF1CF53
:102B300086957105610508940895E894BB2766277A
:102B40007727CB0197F908958ADF08F48FEF08956E
:102B50000BD0C0CFB1DF28F0B6DF18F0952309F015
:102B6000A2CFA7CF1124EACFC6DFA0F3959FD1F360
:102B7000950F50E0551F629FF001729FBB27F00D2B
:102B8000B11D639FAA27F00DB11DAA1F649F662780
:102B9000B00DA11D661F829F2227B00DA11D621FCF
:102BA000739FB00DA11D621F839FA00D611D221F89
:102BB000749F3327A00D611D231F849F600D211D6D
:102BC000822F762F6A2F11249F5750408AF0E1F010
:102BD00088234AF0EE0FFF1FBB1F661F771F881F59
:102BE00091505040A9F79E3F510570F05CCFA6CFA1
:102BF0005F3FECF3983EDCF3869577956795B79544
:102C0000F795E7959F5FC1F7FE2B880F911D96956D
:102C1000879597F9089523DF880B990B0895A1E212
:102C20001A2EAA1BBB1BFD010DC0AA1FBB1FEE1F46
:102C3000FF1FA217B307E407F50720F0A21BB30B91
:102C4000E40BF50B661F771F881F991F1A9469F70D
:102C500060957095809590959B01AC01BD01CF0169
:102C60000895EE0FFF1F0590F491E02D0994F8945C
:022C7000FFCF94
:102C7200010001FFFFFFFF00E10000000000000073
:102C8200C1808100000048545532312053656E7373
:102C92006F723A20002054656D70657261747572AE
:102CA200653A0043002048756D69646974793A0099
:102CB2002500484948343033302048756D696469CD
:102CC20074792053656E736F722072656164696EE8
:102CD200672028302D31303234293A004C69676838
:102CE200742053656E736F722072656164696E67DA
:102CF2002028302D31303234293A00556E697175F1
:102D02006520426F61726420494420232000546888
:102D120065726D6973746F722056616C7565733A72
:102D22000057652077696C6C20706F776572204F51
:102D32004E20616C6C20706F727473206F6E652010
:102D42006279206F6E652E20596F752073686F75DA
:102D52006C642068656172203520736570657261EC
:102D6200746520636C69636B732E00436C69636BDB
:102D720020312000436C69636B20322000436C6970
:102D8200636B20332000436C69636B203420004363
:102D92006C69636B203500506F776572696E6720CE
:102DA2006F666620616C6C2072656C6179732E00AF
:102DB2002D2D2D2D2D2D5761676D616E20456E765F
:102DC20069726F6E6D656E74616C2053656E736FA0
:102DD200727320546573742D2D2D2D2D2D002E20F0
:102DE20000466F7220746865206E657874203130F9
:102DF200207365636F6E64732C20706C65617365FC
:102E020020746F75636820746865204849483430BF
:102E120033302073656E736F72207769746820791E
:102E22006F75722066696E6765722E00436F756EEC
:102E320074696E6720646F776E2E2E2E00466F7255
:102E420020746865206E6578742031302073656364
:102E52006F6E64732C20706C6561736520636F768E
:102E6200657220746865206C69676873656E736F3C
:102E720072207769746820796F75207468756D6245
:102E82002E00466F7220746865206E65787420315A
:102E920030207365636F6E64732C20706C65617390
:102EA2006520746F756368207468652048545532D4
:102EB20031442073656E736F72207769746820796C
:102EC2006F75722066696E6765722E002D2D2D2D2D
:102ED2002D2D456E64206F6620626F6172642074CE
:102EE2006573742D2D2D2D2D2D0000000000480737
:102EF2001B07F006F8060B071A0700000000F90B83
:102F0200400C230C330C0F0C200C0D0A006E616E6A
:0A2F120000696E66006F766600002D
:00000001FF
