:100000000C94F7000C9428010C9428010C942801FE
:100010000C9428010C9428010C9428010C942801BC
:100020000C9428010C9428010C94170C0C94A90A28
:100030000C9428010C9428010C9428010C9428019C
:100040000C9428010C9428010C9428010C9428018C
:100050000C9428010C9428010C9428010C944F0551
:100060000C9428010C9428010C9428010C9428016C
:100070000C9428010C9428010C9428010C9428015C
:100080000C9428010C9428010C9428010C9428014C
:100090000C9422040C9428010C9428010C9428013F
:1000A0000C9428010C9428010C9428016006650624
:1000B0006A0674067E06C806C806C8068806920642
:1000C0009C06A606B306C806BB06E906EC06DB06D8
:1000D000DF06E5060D070D070D07F006F406F80626
:1000E000FE0602070D0708070000000200090F00C6
:1000F00000030401000C00000000000000000000EC
:1001000000000000000000040802011040804010C0
:10011000204080408008020401804020100201102D
:10012000801020404020040404040403040502025B
:100130000202040302020202060606060606040480
:10014000020202040400000000250028002B002EFB
:1001500000310000000000240027002A002D00309C
:1001600000080B0002020201000904000001020263
:1001700000000524001001052401010104240206E9
:100180000524060001070581031000400904010051
:10019000020A000000070502024000000705830272
:1001A00040000012010002EF0201404123378000AD
:1001B0000101020301120100020000004041233747
:1001C0008000010102030141726475696E6F204C69
:1001D0004C430041726475696E6F204D6963726FA4
:1001E00000040309040001033203D7036408112447
:1001F0001FBECFEFDAE0DEBFCDBF14BE88E10FB681
:10020000F89480936000109260000FBE11E0A0E0AF
:10021000B1E0EEECFAE102C005900D92A433B10713
:10022000D9F722E0A4E3B1E001C01D92A536B207E0
:10023000E1F711E0CEEED1E004C02297FE010E946A
:10024000610DC63ED107C9F70E94B00C0C94650D34
:100250000C94000061E08DE00E940E0761E089E0EF
:100260000E940E0761E080E00E940E0761E081E0DD
:100270000E940E0761E084E00E940E0761E085E1C4
:100280000E940E0761E086E00E940E0761E088E0B0
:100290000E940E0761E08AE00E940E0761E08CE098
:1002A0000E940E0760E085E00E940E0760E087E094
:1002B0000E940E0760E086E10E940E0760E08BE07E
:1002C0000E940E0760E087E10C940E0764EF71E076
:1002D00080E090E00E94BC050E942A0168EE73E075
:1002E00080E090E00E94BC0540E052EC61E070E0EC
:1002F0008EEF91E00E945E0886E391E00E94CD03BC
:100300006CED75E080E090E00E94BC0541E061E0AA
:1003100085E391E00E94070384E391E00C940603D7
:100320001F93CF93DF9317E0C0E0D0E0BE018DE0D4
:100330000E943A06BE0189E00E943A0662E070E03F
:1003400080E090E00E94BC052196CF3FD10571F777
:10035000CFEFD0E0BE018DE00E943A06BE0189E0F9
:100360000E943A0662E070E080E090E00E94BC05E6
:10037000219781F71150C1F6DF91CF911F91089518
:1003800060E080E00E94470761E084E00E94470748
:1003900062E070E080E090E00E94BC0561E080E0F7
:1003A0000E94470762E070E080E090E00E94BC0598
:1003B00060E080E00E94470762E070E080E090E04B
:1003C0000E94BC056AE070E080E090E00C94BC05FF
:1003D00061E086E00E9447076AE070E080E090E01C
:1003E0000C94BC0560E080E00E94470760E084E078
:1003F0000E94470762E070E080E090E00E94BC0548
:1004000061E080E00E94470762E070E080E090E0F9
:100410000E94BC0560E080E00E94470762E070E057
:1004200080E090E00C94BC0560E086E00C94470707
:1004300060E088E00C94470760E08AE00C9447078E
:1004400060E08CE00C9447070E94F20168EC70E0D9
:1004500080E090E00E94BC050E94140268EC70E00D
:1004600080E090E00E94BC050E94180268EC70E0F9
:1004700080E090E00E94BC050E941C0268EC70E0E5
:1004800080E090E00E94BC050C9420020E94900144
:1004900068EA71E680E090E00E94BC0560E070E0F0
:1004A0008DE00E943A0660E070E089E00E943A0622
:1004B00068EE73E080E090E00E94BC050E94240298
:1004C0006FEF70E08DE00E943A066FEF70E089E018
:1004D0000E943A0668EE73E080E090E00E94BC055E
:1004E00060E070E08DE00E943A0660E070E089E034
:1004F0000E943A0668EE73E080E090E00E94BC053E
:100500000E94900168EE73E080E090E00E94BC05DC
:100510006FEF70E08DE00E943A066FEF70E089E0C7
:100520000E943A0660ED77E080E090E00E94BC0512
:100530000E94C0010E9490016FEF70E08DE00E9468
:100540003A0660E070E089E00E943A0660E67AEEE2
:1005500080E090E00E94BC050E94E8010E949001AA
:1005600060E070E08DE00E943A066FEF70E089E095
:100570000E943A0660ED77E080E090E00E94BC05C2
:1005800064E670E080E090E00E94BC0560E070E00E
:100590008DE00E943A0660E070E089E00E943A0631
:1005A00064E670E080E090E00E94BC0560E070E0EE
:1005B0008DE00E943A066FEF70E089E00E943A06F3
:1005C00064E670E080E090E00E94BC056FEF70E0B0
:1005D0008DE00E943A066FEF70E089E00E943A06D3
:1005E00064E670E080E090E00E94BC056FEF70E090
:1005F0008DE00E943A0660E070E089E00E943A06D1
:10060000BFCF84E391E00C94050308950895FC01A5
:10061000611103C0411107C004C0623061F442306F
:10062000C1F488E61DC0423011F489E619C041309A
:10063000C1F48AE615C06130A1F4411102C08CE614
:100640000FC0423011F48DE60BC0413051F48EE6FC
:1006500007C0411102C08BE603C0413011F48FE6A0
:100660008083089586E391E00C94CD038091650129
:1006700090E020916601821B910908952091660106
:1006800080916501281750F4E22FF0E0E959FE4F00
:10069000808190E02F5F2093660108958FEF9FEF98
:1006A0000895E091660180916501E81730F4F0E06B
:1006B000E959FE4F808190E008958FEF9FEF0895F4
:1006C0000895CF92DF92EF92FF920F931F93CF93F3
:1006D000DF937C01CB018A0120914201222389F022
:1006E000EB016B01C40ED51ECC15DD0569F06991D7
:1006F000D701ED91FC910190F081E02DC7010995A2
:10070000F3CF642F0E94F903C801DF91CF911F91AD
:100710000F91FF90EF90DF90CF900895CF93DF93EC
:100720001F92CDB7DEB76983209142012223D1F019
:1007300020914301203240F021E030E0FC0133837E
:10074000228380E090E015C080914401E82FF0E022
:10075000EB5BFE4F998190838F5F80934401809380
:10076000430105C061E0CE0101960E94F90381E0DA
:1007700090E00F90DF91CF910895FC0113821282D7
:1007800048EE53E060E070E04483558366837783EE
:1007900087E191E091838083089510926601109221
:1007A000650110924401109243010C94DB0386E32F
:1007B00091E00C94BD031092F40181E08093F2016A
:1007C0001092F10161E082E00E94470761E083E05E
:1007D0000E944707E9EBF0E080818E7F8083808173
:1007E0008D7F808388E48093B80085E48093BC008B
:1007F0000895613298F42091F401243089F46093D3
:10080000A901FC018BEA91E0DC012A2F281B2617A5
:1008100018F421912D93F9CF80E0089581E0089597
:1008200082E0089585ED8093BC008091BC0084FD3A
:10083000FCCF1092F401089585EC8093BC001092D7
:10084000F40108951F920F920FB60F9211242F9367
:100850003F934F935F936F937F938F939F93AF9348
:10086000BF93EF93FF938091B900887F803609F49E
:100870009EC078F5883209F45DC090F4803109F4A7
:1008800056C038F4882309F4F5C0883009F44FC005
:10089000F5C0883109F44EC0803209F45FC0EEC063
:1008A000803409F46AC058F4803309F457C088339F
:1008B00009F0E4C0809387010E941C04DFC08035EA
:1008C00009F44FC0883509F45DC0883409F0D6C0FA
:1008D000D3C0883909F4C4C0A8F4883709F467C0C4
:1008E00038F4883609F463C0803709F460C0C6C0A4
:1008F000883809F4B5C0803909F45FC0803809F040
:10090000BDC05BC0803B09F483C038F4803A09F471
:1009100066C0883A09F47CC0B1C0803C09F4A4C028
:10092000883C09F4A1C0883B09F487C0A7C0809126
:10093000F30110C09091CC018091CB01981770F514
:10094000E091CC0181E08E0F8093CC01F0E0E35385
:10095000FE4F80818093BB0085EC83C0809387012C
:100960008BC0E091CC0181E08E0F8093CC0180910F
:10097000BB00F0E0E353FE4F80839091CC01809167
:10098000CB016BC0E091CC0181E08E0F8093CC0154
:100990008091BB00F0E0E353FE4F80838091F20131
:1009A00081116AC081E08093F10184EA5EC083E036
:1009B0008093F40110928801CFCF8091880180321A
:1009C00008F04EC0E091880181E08E0F809388018D
:1009D0008091BB00F0E0E757FE4F8083BDCF0E94BF
:1009E0001C0480918801803230F4E0918801F0E0AD
:1009F000E757FE4F10826091880170E0E091ED01B1
:100A0000F091EE0189E891E009951092880136C0D5
:100A100084E08093F4011092AA011092A901E09160
:100A2000EF01F091F00109958091A901811105C0B4
:100A300081E08093A9011092AB01E091AA0181E0CD
:100A40008E0F8093AA01F0E0E555FE4F80818093E0
:100A5000BB009091AA018091A901981708F47CCF5E
:100A600085E88093BC000AC085EC8093BC0010929E
:100A7000F40104C0109287010E941204FF91EF91CB
:100A8000BF91AF919F918F917F916F915F914F91A6
:100A90003F912F910F900FBE0F901F9018951F92AE
:100AA0000F920FB60F9211242F933F938F939F9322
:100AB000AF93BF938091F6019091F701A091F80157
:100AC000B091F9013091F50123E0230F2D3720F487
:100AD0000196A11DB11D05C026E8230F0296A11D98
:100AE000B11D2093F5018093F6019093F701A09337
:100AF000F801B093F9018091FA019091FB01A09166
:100B0000FC01B091FD010196A11DB11D8093FA0178
:100B10009093FB01A093FC01B093FD01BF91AF91B5
:100B20009F918F913F912F910F900FBE0F901F902B
:100B300018953FB7F8948091FA019091FB01A0912C
:100B4000FC01B091FD0126B5A89B05C02F3F19F00F
:100B50000196A11DB11D3FBF6627782F892F9A2FBF
:100B6000620F711D811D911D42E0660F771F881F66
:100B7000991F4A95D1F70895CF92DF92EF92FF9295
:100B8000CF93DF936B017C010E949905EB01C114A7
:100B9000D104E104F10489F00E94C30C0E9499057C
:100BA0006C1B7D0B683E734090F381E0C81AD1083E
:100BB000E108F108C851DC4FEACFDF91CF91FF90F7
:100BC000EF90DF90CF900895789484B5826084BDD3
:100BD00084B5816084BD85B5826085BD85B5816041
:100BE00085BDEEE6F0E0808181608083E1E8F0E0A1
:100BF0001082808182608083808181608083E0E8D0
:100C0000F0E0808181608083E1E9F0E080818260B2
:100C10008083808181608083E0E9F0E08081816071
:100C20008083E1ECF0E08081846080838081826059
:100C30008083808181608083E3ECF0E0808181604B
:100C40008083E0ECF0E0808182608083E2ECF0E081
:100C5000808181608083EAE7F0E080818460808326
:100C600080818260808380818160808380818068D0
:100C7000808308951F93CF93DF93182FEB0161E0DA
:100C80000E940E07209711F460E004C0CF3FD10509
:100C900039F461E0812FDF91CF911F910C944707C8
:100CA000E12FF0E0E851FF4F449150E0FA01319715
:100CB000EF30F10508F06CC0EA5AFF4F0C945F0D5D
:100CC00084B5806884BDC7BD68C084B5806284BDBA
:100CD000C8BD63C080918000806880938000D093FD
:100CE0008900C093880059C0809180008062809301
:100CF0008000D0938B00C0938A004FC08091800009
:100D0000886080938000D0938D00C0938C0045C094
:100D100080919000806880939000D0939900C09358
:100D200098003BC080919000806280939000D093A7
:100D30009B00C0939A0031C080919000886080939E
:100D40009000D0939D00C0939C0027C08091C0006C
:100D500080688093C0008091C0008F7B8093C0002A
:100D6000C093CF001AC08091C00080628093C00001
:100D7000C093D00012C08091C20088608093C200EE
:100D80008091C2008B7F8093C200C093D20005C0C7
:100D9000C038D1050CF07DCF77CFDF91CF911F9177
:100DA000089590E0FC013197EF30F105B0F5EB5973
:100DB000FF4F0C945F0D809180008F7703C080916E
:100DC00080008F7D80938000089580918000877FD0
:100DD000F9CF84B58F7702C084B58F7D84BD089527
:100DE000809190008F7707C0809190008F7D03C025
:100DF00080919000877F8093900008958091C0003B
:100E00008F7703C08091C0008F7D8093C0000895CC
:100E10008091C200877F8093C2000895CF93DF93B3
:100E200090E0FC01E95FFE4F2491FC01EA5DFE4F7A
:100E30008491882349F190E0880F991FFC01ED5AB5
:100E4000FE4FA591B4918B5B9E4FFC01C591D4914F
:100E50009FB7611108C0F8948C91209582238C93E0
:100E6000888182230AC0623051F4F8948C91322F29
:100E7000309583238C938881822B888304C0F894D7
:100E80008C91822B8C939FBFDF91CF9108950F930C
:100E90001F93CF93DF931F92CDB7DEB7282F30E09B
:100EA000F901E851FF4F8491F901E95FFE4F149178
:100EB000F901EA5DFE4F04910023C9F0882321F077
:100EC00069830E94D1066981E02FF0E0EE0FFF1FD9
:100ED000EB5BFE4FA591B4919FB7F8948C91611193
:100EE00003C01095812301C0812B8C939FBF0F906D
:100EF000DF91CF911F910F910895CF93DF931F92B0
:100F0000CDB7DEB76983DC01ED91FC910280F381FE
:100F1000E02D41E050E0BE016F5F7F4F09950F90DB
:100F2000DF91CF910895CF93DF93EC018C859D8560
:100F300097FF05C082E00E9492099D878C878C856F
:100F40009D85DF91CF91089583E00C940D0CFC01F9
:100F50008485958597FD06C082E00E943A0990E05D
:100F60000196089582E00E943A0990E00895FC01FC
:100F70008485958597FD05C02FEF3FEF3587248742
:100F8000089582E00C949209CF93DF93EC01809155
:100F90000B01882331F083E00E94C309181619065B
:100FA00034F081E090E09B838A8380E090E0DF91E1
:100FB000CF910895FC0120812E5F208342E450E010
:100FC00061E671E080E80C945E0AFC012181808179
:100FD000813A59F4213209F05CC047E050E064E006
:100FE00071E080E00E945E0A67C0813209F051C062
:100FF000233289F4838190E0982F88273281832BD4
:10100000A0E0B0E08093000190930101A093020161
:10101000B09303010FC0203239F467E070E084E040
:1010200091E00E948F0A0AC0223221F482818093CB
:101030000B0104C02D7F203209F03EC080910401D5
:1010400090910501A0910601B0910701803B944069
:10105000A105B10501F580910B0180FD1CC08091B7
:101060000008909101089093FF0A8093FE0A87E799
:1010700097E790930108809300082BE088E190E0C7
:101080000FB6F894A895809360000FBE209360007F
:1010900013C080E0089588E10FB6F8948093600053
:1010A000109260000FBEA8958091FE0A9091FF0AF1
:1010B000909301088093000881E008952FEF3FEF9F
:1010C000FC013587248708951092010210920002D6
:1010D00088EE93E0A0E0B0E08093020290930302D8
:1010E000A0930402B093050287E291E09093FF0180
:1010F0008093FE018FEF9FEF90930B0280930A0283
:101100000895615030F02091F100FC012083019698
:10111000F8CF289A84E680935702089540915202AE
:1011200050915302209150023091510242175307BF
:10113000B4F49091E8009570E1F39091E80092FD8D
:1011400019C08093F1008091520290915302019650
:101150008F739927892B19F48EEF8093E800809183
:10116000520290915302019690935302809352023F
:1011700081E0089580E00895CF92DF92EF92FF9290
:101180000F931F93CF93DF931F92CDB7DEB7082F36
:10119000162FF42E862F880F8E5F99830E948E085B
:1011A00083E00E948E08E02EC02E9981D92E8C2DCE
:1011B0008E19811798F4F601F7FE02C0849101C0E0
:1011C00080810E948E08082F80E00E948E08802374
:1011D000FFEFCF1ADF0A8111EACF01C081E00F9043
:1011E000DF91CF911F910F91FF90EF90DF90CF9003
:1011F00008958091D70081608093D70080EA809322
:10120000D80089B5806189BD89B5826089BD09B47E
:1012100000FEFDCF61E070E080E090E00E94BC0540
:101220008091D8008F7C80618093D8008091E0000D
:10123000807F8093E0000895CF93DF931F92CDB716
:10124000DEB71982CE0101960E94DA070E944B0D8B
:10125000BE016F5F7F4F0E94C40C89810F90DF91A8
:10126000CF9108952FB7FC012083F89467706093A5
:10127000E9000895CF93DF931F92CDB7DEB7682FB3
:10128000CE0101960E9432098091F20099819FBFA0
:101290000F90DF91CF910895FF920F931F93CF93FB
:1012A000DF9300D0CDB7DEB7F62E8A0190915602BB
:1012B000992311F057FF03C08FEF9FEF2BC0682FCA
:1012C000CE0101967A830E9432098091F20090E06B
:1012D000A8017A81801791070CF4AC01EF2DF72F4C
:1012E000F40E84E6FE1639F0289A80935702909106
:1012F000F1009193F7CF4115510521F08091F20053
:10130000882321F089818FBFCA0104C08BE68093B6
:10131000E800F8CF0F900F90DF91CF911F910F91C0
:10132000FF900895CF93DF931F92CDB7DEB741E0D2
:1013300050E0BE016F5F7F4F0E944C09019719F486
:10134000898190E002C08FEF9FEF0F90DF91CF91E6
:101350000895CF93DF931F92CDB7DEB7682FCE01EC
:1013600001960E9432099091E800892F807295FFC2
:1013700004C09091F20080E4891B99819FBF0F9077
:10138000DF91CF9108956F927F928F929F92AF924B
:10139000BF92CF92DF92EF92FF920F931F93CF9362
:1013A000DF931F92CDB7DEB7782E7B01C42EB52E0A
:1013B00080915602882369F0042F152F8AEFD82ECA
:1013C000872D8072982E9AE3A92E872D8074882EFF
:1013D00011C08FEF9FEF57C0872D0E94A909682E7B
:1013E00081110CC0DA94A9F361E070E080E090E034
:1013F0000E94BC050115110579F73BC0282F30E08C
:10140000021713070CF4602E672DCE0101960E947F
:1014100032098091E80085FF29C0262D30E0021BAB
:10142000130B992039F06A948FEF6816B1F010927F
:10143000F100F9CFF701862D77FE07C0815058F0F3
:1014400094919093F1003196F9CF815020F09191D1
:101450009093F100FACFE20EF31E8091E80085FF31
:101460000FC00115110511F481100AC089818FBFC9
:10147000C1CF5D9A84E6809358028C2D9B2D03C0CA
:10148000A092E800F3CF0F90DF91CF911F910F91C1
:10149000FF90EF90DF90CF90BF90AF909F908F9094
:1014A0007F906F9008951092E9001092530210926D
:1014B000520290935102809350020895CF92DF928E
:1014C000FF920F931F93CF93DF9300D0CDB7DEB77A
:1014D000F82E8A016B0101151105B1F0F601F7FE36
:1014E00002C0849101C0808149835A830E948E0882
:1014F00001501109FFEFCF1ADF0A49815A8181118A
:10150000EACF8FEF9FEF01C0CA010F900F90DF91DC
:10151000CF911F910F91FF90DF90CF9008951F936F
:10152000CF93DF931F92CDB7DEB7162F2091E8003F
:1015300022FFFCCF612F79830E9481088BEF80937B
:10154000E800812F7981972F0F90DF91CF911F9124
:1015500008951F920F920FB60F921124DF92EF920F
:10156000FF920F931F932F933F934F935F936F932C
:101570007F938F939F93AF93BF93EF93FF93CF93FB
:10158000DF93CDB7DEB76C97DEBFCDBF1092E90019
:101590008091E80083FF23C168E0CE0145960E9458
:1015A000810882EF8093E8003D8937FF05C0809174
:1015B000E80080FFFCCF03C08EEF8093E800832F0C
:1015C000807609F0F0C02E894F89D88C21110CC08B
:1015D000303829F4809155028093F10002C01092B6
:1015E000F1001092F100F4C0842F90E09D29213089
:1015F00049F43111EDC0019709F0EAC0809155021C
:101600008D7F0AC0233059F43111E2C0019709F0EF
:10161000DFC080915502826080935502D9C0253089
:1016200041F48091E80080FFFCCF40684093E300E4
:10163000CFC0263009F08DC0EB8CFC8C22E0D2129A
:101640002CC080E090E00E94530A0E941C0999E09F
:101650008E010F5F1F4FF801292F11922A95E9F78C
:101660009983DA8291E09E8390EA98879AEF99872E
:101670002091520230915302275F3F4F3C832B83CE
:101680008D83C7010E94530A49E050E0B80180E011
:101690000E945E0A0E941C099BC0C7010E94530A57
:1016A0000E944B0DBE016B5E7F4F0E94ED0C0097B8
:1016B00019F00CF08DC090C081E0D8120EC08B8D57
:1016C0009C8D089719F481E080934F0280914F021E
:1016D00081112FC065EB71E031C0E3E0DE127CC008
:1016E0008F89882349F1823029F440E86DE083ED49
:1016F00091E01CC0813029F440E86BE087EC91E078
:1017000015C0833009F068C00E944B0D8E010F5F39
:101710001F4FB8010E940C0DF80101900020E9F75D
:101720003197E01BF10B40E06E2FC8010E94BC080E
:101730004DC063EA71E002C061EE71E061157105B0
:1017400009F44AC0FB01449150E080E80E945E0A1F
:101750003FC0273009F440C0283021F481E0809355
:10176000F10036C02930A1F53370B1F5EDE0F1E0BC
:1017700081E021E036E39081992361F08093E900D4
:101780002093EB0091919093EC003093ED008F5FEC
:10179000873089F78EE78093EA001092EA008F89FC
:1017A0008093560215C08B8D9C8D0E94530A898DA3
:1017B000811105C0CE0145960E94E50707C00E9431
:1017C0004B0DBE016B5E7F4F0E942B0D882321F0D5
:1017D0008EEF8093E80003C081E28093EB006C966B
:1017E0000FB6F894DEBF0FBECDBFDF91CF91FF9152
:1017F000EF91BF91AF919F918F917F916F915F9189
:101800004F913F912F911F910F91FF90EF90DF909B
:101810000F900FBE0F901F9018958093E900809154
:10182000F200882319F08AE38093E80008951F925C
:101830000F920FB60F9211242F933F934F935F9304
:101840006F937F938F939F93AF93BF93CF93EF93B8
:10185000FF93C091E1008091E100837F8093E100DC
:101860008093E100C3FF0FC01092E90081E08093F4
:10187000EB001092EC0082E38093ED001092560290
:1018800088E08093F000C2FF19C083E00E940D0C35
:1018900080915802882339F08091580281508093BA
:1018A0005802882389F180915702882339F080916A
:1018B0005702815080935702882341F1C4FF10C022
:1018C0008091E2008E7E81608093E2008091E10051
:1018D0008F7E8093E100809154028E7E806111C0E2
:1018E000C0FF16C08091E2008E7E80618093E2008E
:1018F0008091E1008E7E8093E100809154028E7E83
:1019000081608093540204C05D98CDCF2898D6CFD3
:10191000FF91EF91CF91BF91AF919F918F917F9167
:101920006F915F914F913F912F910F900FBE0F904C
:101930001F90189510925602109255021092540260
:101940000E94F908E1EEF0E080818E7E80838DE0D8
:101950008093E200559A209A5D98289808950895FA
:101960000E94E4050E94AF0C8EE492E00E949A0C63
:101970000E946601C0E0D0E00E9446022097E1F399
:101980000E940000F9CF0895EF92FF920F931F93EA
:10199000CF93DF937B01FC01C281D38100E010E093
:1019A000209781F0E881F9810280F381E02DB70171
:1019B000CE01099597FD08C0080F191F0884D98525
:1019C000C02DEECFC80102C08FEF9FEFDF91CF9106
:1019D0001F910F91FF90EF9008950F931F93CF9356
:1019E000DF938B01FC01C281D381209771F0E881E4
:1019F000F9810480F581E02DB801CE0109950097A9
:101A000031F40884D985C02DF0CF80E090E0DF91DB
:101A1000CF911F910F9108950F931F93CF93DF9351
:101A20008B01FC01C281D381209771F0E881F9819B
:101A30000680F781E02DB801CE010995080F111D30
:101A40000884D985C02DF0CFF8011082DF91CF91A5
:101A50001F910F9108950F931F93CF93DF938B01E5
:101A6000FC01C281D381209771F0E881F981019056
:101A7000F081E02DB801CE010995811106C00884DE
:101A8000D985C02DF0CF80E001C081E0DF91CF91FA
:101A90001F910F91089580915D0281110DC082E028
:101AA0008093590284E080935A0210925C02109253
:101AB0005B0281E080935D0289E592E00895EE0F7C
:0E1AC000FF1F0590F491E02D0994F894FFCFDC
:101ACE00FFFFFFFF00E100000000000000C1808169
:101ADE00000000000000008E03610336033E035138
:101AEE00036003000000007D07C407A707B7079334
:041AFE0007A4070032
:00000001FF
