:100000000C94F6000C9427010C9427010C94270102
:100010000C9427010C9427010C9427010C942701C0
:100020000C9427010C9427010C94770D0C94090C67
:100030000C9427010C9427010C9427010C942701A0
:100040000C9427010C9427010C9427010C94270190
:100050000C9427010C9427010C9427010C94BB05E8
:100060000C9427010C9427010C9427010C94270170
:100070000C9427010C9427010C9427010C94270160
:100080000C9427010C9427010C9427010C94270150
:100090000C948E040C9427010C9427010C942701D6
:1000A0000C9427010C9427010C942701CC06D1064F
:1000B000D606E006EA06340734073407F406FE06DF
:1000C000080712071F073407270755075807470770
:1000D0004B0751077907790779075C0760076407C1
:1000E0006A076E07790774070000000200090F0015
:1000F00000030401000C00000000000000000000EC
:1001000000000000000000040802011040804010C0
:10011000204080408008020401804020100201102D
:10012000801020404020040404040403040502025B
:100130000202040302020202060606060606040480
:10014000020202040400000000250028002B002EFB
:1001500000310000000000240027002A002D00309C
:1001600000080B0002020201000904000001020263
:1001700000000524001001052401010104240206E9
:100180000524060001070581031000400904010051
:10019000020A000000070502024000000705830272
:1001A00040000012010002EF0201404123378000AD
:1001B0000101020301120100020000004041233747
:1001C0008000010102030141726475696E6F204C69
:1001D0004C430041726475696E6F204D6963726FA4
:1001E0000004030904004E02A403D00811241FBE1A
:1001F000CFEFDAE0DEBFCDBF14BE88E10FB6F894D2
:1002000080936000109260000FBE11E0A0E0B1E0AA
:10021000E2EDFDE102C005900D92AC3EB107D9F7C9
:1002200023E0ACEEB1E001C01D92A532B207E1F7C8
:1002300011E0CCEED1E004C02297FE010E94E30E53
:10024000C63ED107C9F70E94100E0C94E70E0C941D
:10025000000061E08DE00E947A0761E089E00E9481
:100260007A0761E080E00E947A0761E081E00E9405
:100270007A0761E084E00E947A0761E085E10E94EC
:100280007A0761E086E00E947A0761E088E00E94D8
:100290007A0761E08AE00E947A0761E08CE00E94C0
:1002A0007A0760E085E00E947A0760E087E00E94BC
:1002B0007A0760E086E10E947A0760E08BE00E94A6
:1002C0007A0760E087E10C947A0768EE73E080E0DB
:1002D00090E00E9428060E94290168EE73E080E009
:1002E00090E00E94280640E052EC61E070E08EEB66
:1002F00092E00E94CA0885EF91E00E94140368EE24
:1003000073E080E090E00C9428061F93CF93DF9376
:1003100017E0C0E0D0E0BE018DE00E94A606BE015D
:1003200089E00E94A60662E070E080E090E00E9412
:1003300028062196CF3FD10571F7CFEFD0E0BE015F
:100340008DE00E94A606BE0189E00E94A60662E03A
:1003500070E080E090E00E942806219781F711501C
:10036000C1F6DF91CF911F9108951F93CF93DF9333
:100370006CEE71E084EF91E00E94520265E171E061
:100380008EEB92E00E940309CCEED1E010E069917F
:1003900040E150E08EEB92E00E94DA09173031F034
:1003A00068E271E08EEB92E00E9403091F5F183053
:1003B00071F76EED71E08EEB92E0DF91CF911F91BE
:1003C0000C9410096AE271E08EEB92E00E94100931
:1003D0006EED71E08EEB92E00E94100960910001D9
:1003E00070910101CB01019690930101809300016E
:1003F0004AE050E08EEB92E00E94C5096FE571E0A3
:100400008EEB92E00E94030962E671E08EEB92E0CF
:100410000E9410098EEB92E00E94100860ED77E0D8
:1004200080E090E00E9428060E9485016EED71E058
:100430008EEB92E00E941009609100017091010121
:10044000CB01019690930101809300014AE050E0B6
:100450008EEB92E00E94C5096FE571E08EEB92E0B1
:100460000E9403090E94B5016EED71E08EEB92E0EF
:100470000E9410096EE971E08EEB92E00E94100973
:1004800061E070E080E090E00E942806F9CFDC0196
:10049000ED91FC910190F081E02D099485EF91E0C0
:1004A0000C9414030F931F93CF93DF938B0167E595
:1004B00070E085EF91E00E94280360EF70E085EF27
:1004C00091E00E94470285EF91E00E94A10348E07D
:1004D00050E067E570E085EF91E00E949E03E8013F
:1004E00018E085EF91E00E94850289931150C9F7C9
:1004F000DF91CF911F910F9108958091250290E097
:1005000020912602821B9109089520912602809154
:100510002502281750F4E22FF0E0E95DFD4F8081BD
:1005200090E02F5F2093260208958FEF9FEF0895AC
:10053000E091260280912502E81730F4F0E0E95DB1
:10054000FD4F808190E008958FEF9FEF089508950B
:10055000CF92DF92EF92FF920F931F93CF93DF938F
:100560007C01CB018A0120910102222389F0EB0159
:100570006B01C40ED51ECC15DD0569F06991D7015C
:10058000ED91FC910190F081E02DC7010995F3CF29
:10059000642F0E946504C801DF91CF911F910F91D4
:1005A000FF90EF90DF90CF900895CF93DF931F924D
:1005B000CDB7DEB76983209101022223D1F02091CB
:1005C0000202203240F021E030E0FC01338322833C
:1005D00080E090E015C080910302E82FF0E0EC5F2E
:1005E000FD4F998190838F5F809303028093020275
:1005F00005C061E0CE0101960E94650481E090E0B3
:100600000F90DF91CF910895FC011382128248EE82
:1006100053E060E070E0448355836683778380EC29
:1006200091E0918380830895109226021092250212
:1006300010920302109202020C94A80381E08093AE
:1006400001026093240210920302109202020895A4
:100650000C941E030F93062F21E04091020264E0E8
:1006600072E0809124020E940E0410920302109204
:100670000202109201020F9108958F929F92AF9201
:10068000BF92CF92DF92EF92FF920F931F93CF937F
:10069000DF93EC01F62ED42E48015901EE2019F11A
:1006A0000E941E031E2D143008F013E01150B8F004
:1006B000E881F98128E0129FB0011124A50194017D
:1006C00004C056954795379527956A95D2F7CA0184
:1006D000B9010190F081E02DCE010995E7CF60E0EE
:1006E000CE010E942A034D2D413208F040E22C2D0C
:1006F00067E272E08F2D0E94C6031092260280935B
:100700002502DF91CF911F910F91FF90EF90DF9025
:10071000CF90BF90AF909F908F900895CF92EF921F
:100720000F931F93C22EE12C00E010E098010E946D
:100730003D031F910F91EF90CF90089521E00C940D
:100740008E0361E00C942A0385EF91E00C9404037E
:100750001092B40281E08093B2021092B10261E083
:1007600082E00E94B30761E083E00E94B307E9EBF7
:10077000F0E080818E7F808380818D7F808388E41C
:100780008093B80085E48093BC000895413208F05E
:1007900043C09091B4029111FCCF91E09093B402C8
:1007A0002093B2022FEF2093470210928C02240F65
:1007B00020938B029093B3029091B302880F892B00
:1007C0008093B3028091B102813061F41092B10242
:1007D0008091B3028093BB008091BC0083FDF8CF71
:1007E00085EC01C085EE8093BC008091B40281301D
:1007F000E1F380918C02841710F440918C022DE873
:1008000032E0FB01D9018A2F821B841718F48D91E5
:100810008193F9CF842F089580E008950F9341329A
:1008200008F04AC09091B4029111FCCF92E09093ED
:10083000B4020093B2029FEF9093470210928C0291
:1008400040938B02FB016DE872E0DB019A2F961B4F
:10085000941718F491919D93F9CF1092B30290914F
:10086000B302880F892B8093B3028091B10281304B
:1008700061F41092B1028091B3028093BB00809129
:10088000BC0083FDF8CF85EC01C085EE8093BC00F1
:10089000222321F08091B4028230E1F3809147025B
:1008A0008F3F61F080914702803251F08091470282
:1008B000803341F483E007C081E005C080E003C0DD
:1008C00082E001C084E00F910895613298F4209194
:1008D000B402243089F460936902FC018BE692E053
:1008E000DC012A2F281B261718F421912D93F9CF0C
:1008F00080E0089581E0089582E0089585ED809379
:10090000BC008091BC0084FDFCCF1092B40208951D
:1009100085EC8093BC001092B40208951F920F9250
:100920000FB60F9211242F933F934F935F936F93C2
:100930007F938F939F93AF93BF93EF93FF93809198
:10094000B900887F803609F49EC078F5883209F4B2
:100950005DC090F4803109F456C038F4882309F45E
:10096000F5C0883009F44FC0F5C0883109F44EC095
:10097000803209F45FC0EEC0803409F46AC058F4D4
:10098000803309F457C0883309F0E4C080934702EC
:100990000E948804DFC0803509F44FC0883509F40F
:1009A0005DC0883409F0D6C0D3C0883909F4C4C00A
:1009B000A8F4883709F467C038F4883609F463C0AE
:1009C000803709F460C0C6C0883809F4B5C08039E2
:1009D00009F45FC0803809F0BDC05BC0803B09F4FA
:1009E00083C038F4803A09F466C0883A09F47CC0C0
:1009F000B1C0803C09F4A4C0883C09F4A1C0883B84
:100A000009F487C0A7C08091B30210C090918C02F6
:100A100080918B02981770F5E0918C0281E08E0F27
:100A200080938C02F0E0E357FD4F80818093BB0000
:100A300085EC83C0809347028BC0E0918C0281E0FB
:100A40008E0F80938C028091BB00F0E0E357FD4F46
:100A5000808390918C0280918B026BC0E0918C021C
:100A600081E08E0F80938C028091BB00F0E0E35711
:100A7000FD4F80838091B20281116AC081E0809332
:100A8000B10284EA5EC083E08093B402109248020F
:100A9000CFCF80914802803208F04EC0E0914802EA
:100AA00081E08E0F809348028091BB00F0E0E75B0D
:100AB000FD4F8083BDCF0E94880480914802803220
:100AC00030F4E0914802F0E0E75BFD4F1082609166
:100AD000480270E0E091AD02F091AE0289E492E04C
:100AE00009951092480236C084E08093B4021092B7
:100AF0006A0210926902E091AF02F091B00209958A
:100B000080916902811105C081E080936902109291
:100B10006B02E0916A0281E08E0F80936A02F0E03E
:100B2000E559FD4F80818093BB0090916A028091CE
:100B30006902981708F47CCF85E88093BC000AC04E
:100B400085EC8093BC001092B40204C0109247025E
:100B50000E947E04FF91EF91BF91AF919F918F9181
:100B60007F916F915F914F913F912F910F900FBEA9
:100B70000F901F9018951F920F920FB60F9211248D
:100B80002F933F938F939F93AF93BF938091B60220
:100B90009091B702A091B802B091B9023091B5021C
:100BA00023E0230F2D3720F40196A11DB11D05C0B0
:100BB00026E8230F0296A11DB11D2093B502809354
:100BC000B6029093B702A093B802B093B902809195
:100BD000BA029091BB02A091BC02B091BD020196F5
:100BE000A11DB11D8093BA029093BB02A093BC02D9
:100BF000B093BD02BF91AF919F918F913F912F9183
:100C00000F900FBE0F901F9018953FB7F8948091EA
:100C1000BA029091BB02A091BC02B091BD0226B570
:100C2000A89B05C02F3F19F00196A11DB11D3FBF24
:100C30006627782F892F9A2F620F711D811D911DB4
:100C400042E0660F771F881F991F4A95D1F70895D4
:100C5000CF92DF92EF92FF92CF93DF936B017C01F3
:100C60000E940506EB01C114D104E104F10489F0EE
:100C70000E94230E0E9405066C1B7D0B683E73408C
:100C800090F381E0C81AD108E108F108C851DC4F9F
:100C9000EACFDF91CF91FF90EF90DF90CF90089552
:100CA000789484B5826084BD84B5816084BD85B547
:100CB000826085BD85B5816085BDEEE6F0E080810E
:100CC00081608083E1E8F0E010828081826080832F
:100CD000808181608083E0E8F0E0808181608083B2
:100CE000E1E9F0E08081826080838081816080839F
:100CF000E0E9F0E0808181608083E1ECF0E08081D8
:100D00008460808380818260808380818160808331
:100D1000E3ECF0E0808181608083E0ECF0E08081B2
:100D200082608083E2ECF0E0808181608083EAE78A
:100D3000F0E0808184608083808182608083808114
:100D40008160808380818068808308951F93CF9322
:100D5000DF93182FEB0161E00E947A07209711F4CE
:100D600060E004C0CF3FD10539F461E0812FDF910D
:100D7000CF911F910C94B307E12FF0E0E851FF4FA2
:100D8000449150E0FA013197EF30F10508F06CC062
:100D9000EA5AFF4F0C94E10E84B5806884BDC7BD4C
:100DA00068C084B5806284BDC8BD63C08091800086
:100DB000806880938000D0938900C093880059C0D8
:100DC00080918000806280938000D0938B00C093DC
:100DD0008A004FC080918000886080938000D0930B
:100DE0008D00C0938C0045C08091900080688093F6
:100DF0009000D0939900C09398003BC080919000E0
:100E0000806280939000D0939B00C0939A0031C081
:100E100080919000886080939000D0939D00C09353
:100E20009C0027C08091C00080688093C0008091A2
:100E3000C0008F7B8093C000C093CF001AC0809108
:100E4000C00080628093C000C093D00012C0809127
:100E5000C20088608093C2008091C2008B7F809323
:100E6000C200C093D20005C0C038D1050CF07DCFC0
:100E700077CFDF91CF911F91089590E0FC013197DA
:100E8000EF30F105B0F5EB59FF4F0C94E10E809176
:100E900080008F7703C0809180008F7D80938000D9
:100EA000089580918000877FF9CF84B58F7702C045
:100EB00084B58F7D84BD0895809190008F7707C0A1
:100EC000809190008F7D03C080919000877F8093F8
:100ED000900008958091C0008F7703C08091C0007A
:100EE0008F7D8093C00008958091C200877F80939A
:100EF000C2000895CF93DF9390E0FC01E95FFE4FBD
:100F00002491FC01EA5DFE4F8491882349F190E031
:100F1000880F991FFC01ED5AFE4FA591B4918B5B90
:100F20009E4FFC01C591D4919FB7611108C0F89400
:100F30008C91209582238C93888182230AC0623011
:100F400051F4F8948C91322F309583238C938881BF
:100F5000822B888304C0F8948C91822B8C939FBF42
:100F6000DF91CF9108950F931F93CF93DF931F923B
:100F7000CDB7DEB7282F30E0F901E851FF4F84915B
:100F8000F901E95FFE4F1491F901EA5DFE4F04910A
:100F90000023C9F0882321F069830E943D076981FD
:100FA000E02FF0E0EE0FFF1FEB5BFE4FA591B49139
:100FB0009FB7F8948C91611103C01095812301C0F3
:100FC000812B8C939FBF0F90DF91CF911F910F9139
:100FD0000895CF93DF931F92CDB7DEB76983DC010D
:100FE000ED91FC910280F381E02D41E050E0BE01E3
:100FF0006F5F7F4F09950F90DF91CF910895CF9349
:10100000DF93EC018C859D8597FF05C082E00E94EF
:10101000F20A9D878C878C859D85DF91CF910895FD
:1010200083E00C946D0DFC018485958597FD06C0C9
:1010300082E00E949A0A90E00196089582E00E9460
:101040009A0A90E00895FC018485958597FD05C076
:101050002FEF3FEF35872487089582E00C94F20A42
:10106000CF93DF93EC0180910D01882331F083E071
:101070000E94230B1816190634F081E090E09B8340
:101080008A8380E090E0DF91CF910895FC01208178
:101090002E5F208342E450E061E671E080E80C942A
:1010A000BE0BFC0121818081813A59F4213209F083
:1010B0005CC047E050E066E071E080E00E94BE0B5B
:1010C00067C0813209F051C0233289F4838190E0F6
:1010D000982F88273281832BA0E0B0E08093020113
:1010E00090930301A0930401B09305010FC0203237
:1010F00039F467E070E086E091E00E94EF0B0AC0EF
:10110000223221F4828180930D0104C02D7F203290
:1011100009F03EC08091060190910701A09108015D
:10112000B0910901803B9440A105B10501F5809182
:101130000D0180FD1CC080910008909101089093E2
:10114000FF0A8093FE0A87E797E790930108809350
:1011500000082BE088E190E00FB6F894A895809302
:1011600060000FBE2093600013C080E0089588E106
:101170000FB6F89480936000109260000FBEA8959F
:101180008091FE0A9091FF0A9093010880930008D5
:1011900081E008952FEF3FEFFC0135872487089504
:1011A0001092C1021092C00288EE93E0A0E0B0E07D
:1011B0008093C2029093C302A093C402B093C5026D
:1011C00080ED91E09093BF028093BE028FEF9FEF7E
:1011D0009093CB028093CA0208956115710581F046
:1011E000DB010D900020E9F7AD0141505109461B8C
:1011F000570BDC01ED91FC910280F381E02D099405
:1012000080E090E008950C94ED08DC01ED91FC91F4
:101210000190F081E02D09946CED71E00C94ED08E3
:101220000F931F93CF93DF93EC010E94ED088C0185
:10123000CE010E940C09800F911FDF91CF911F9169
:101240000F9108958F929F92AF92BF92CF92DF92AB
:10125000EF92FF920F931F93CF93DF93CDB7DEB73B
:10126000A1970FB6F894DEBF0FBECDBF7C01C42E90
:10127000E52FCB01D22E19A221E02D1510F02AE086
:10128000D22E8E010F5D1F4F8D2C912CA12CB12CD5
:101290006C2D7E2FA50194010E94BF0E8C2DD29E35
:1012A00080191124015011098A3014F4805D01C0A5
:1012B000895CF8018083211531054105510521F034
:1012C000C22EE32FCA01E4CFB801C7010E94ED0886
:1012D000A1960FB6F894DEBF0FBECDBFDF91CF91C0
:1012E0001F910F91FF90EF90DF90CF90BF90AF9044
:1012F0009F908F900895CF92DF92EF92FF920F937D
:101300001F93CF93DF93EC016A017B012115310517
:1013100079F4E881F9810190F081E02D642FDF916B
:10132000CF911F910F91FF90EF90DF90CF90099494
:101330002A303105E9F477FF1AC06DE20E940509F1
:101340008C0144275527BA014C195D096E097F09A4
:101350002AE0CE010E942209800F911FDF91CF91D8
:101360001F910F91FF90EF90DF90CF9008952AE0AA
:10137000B701A601CE01DF91CF911F910F91FF9090
:10138000EF90DF90CF900C9422099A01AB01662771
:1013900057FD6095762F0C947B092115310541F49A
:1013A000DC01ED91FC910190F081E02D642F099416
:1013B0000C9422099A01462F50E060E070E00C94F2
:1013C000CD09615030F02091F100FC01208301969D
:1013D000F8CF289A84E6809317030895409112036A
:1013E00050911303209110033091110342175307BA
:1013F000B4F49091E8009570E1F39091E80092FDCB
:1014000019C08093F100809112039091130301960B
:101410008F739927892B19F48EEF8093E8008091C0
:101420001203909113030196909313038093120378
:1014300081E0089580E00895CF92DF92EF92FF92CD
:101440000F931F93CF93DF931F92CDB7DEB7082F73
:10145000162FF42E862F880F8E5F99830E94EE0937
:1014600083E00E94EE09E02EC02E9981D92E8C2DAA
:101470008E19811798F4F601F7FE02C0849101C01D
:1014800080810E94EE09082F80E00E94EE098023EF
:10149000FFEFCF1ADF0A8111EACF01C081E00F9080
:1014A000DF91CF911F910F91FF90EF90DF90CF9040
:1014B00008958091D70081608093D70080EA80935F
:1014C000D80089B5806189BD89B5826089BD09B4BC
:1014D00000FEFDCF61E070E080E090E00E94280611
:1014E0008091D8008F7C80618093D8008091E0004B
:1014F000807F8093E0000895CF93DF931F92CDB754
:10150000DEB71982CE0101960E9446080E94AB0EFA
:10151000BE016F5F7F4F0E94240E89810F90DF9183
:10152000CF9108952FB7FC012083F89467706093E2
:10153000E9000895CF93DF931F92CDB7DEB7682FF0
:10154000CE0101960E94920A8091F20099819FBF7C
:101550000F90DF91CF910895FF920F931F93CF9338
:10156000DF9300D0CDB7DEB7F62E8A019091160337
:10157000992311F057FF03C08FEF9FEF2BC0682F07
:10158000CE0101967A830E94920A8091F20090E047
:10159000A8017A81801791070CF4AC01EF2DF72F89
:1015A000F40E84E6FE1639F0289A80931703909182
:1015B000F1009193F7CF4115510521F08091F20090
:1015C000882321F089818FBFCA0104C08BE68093F4
:1015D000E800F8CF0F900F90DF91CF911F910F91FE
:1015E000FF900895CF93DF931F92CDB7DEB741E010
:1015F00050E0BE016F5F7F4F0E94AC0A019719F463
:10160000898190E002C08FEF9FEF0F90DF91CF9123
:101610000895CF93DF931F92CDB7DEB7682FCE0129
:1016200001960E94920A9091E800892F807295FF9E
:1016300004C09091F20080E4891B99819FBF0F90B4
:10164000DF91CF9108956F927F928F929F92AF9288
:10165000BF92CF92DF92EF92FF920F931F93CF939F
:10166000DF931F92CDB7DEB7782E7B01C42EB52E47
:1016700080911603882369F0042F152F8AEFD82E46
:10168000872D8072982E9AE3A92E872D8074882E3C
:1016900011C08FEF9FEF57C0872D0E94090B682E56
:1016A00081110CC0DA94A9F361E070E080E090E071
:1016B0000E9428060115110579F73BC0282F30E05C
:1016C000021713070CF4602E672DCE0101960E94BD
:1016D000920A8091E80085FF29C0262D30E0021B88
:1016E000130B992039F06A948FEF6816B1F01092BD
:1016F000F100F9CFF701862D77FE07C0815058F031
:1017000094919093F1003196F9CF815020F091910E
:101710009093F100FACFE20EF31E8091E80085FF6E
:101720000FC00115110511F481100AC089818FBF06
:10173000C1CF5D9A84E6809318038C2D9B2D03C046
:10174000A092E800F3CF0F90DF91CF911F910F91FE
:10175000FF90EF90DF90CF90BF90AF909F908F90D1
:101760007F906F9008951092E900109213031092E9
:10177000120390931103809310030895CF92DF9288
:10178000FF920F931F93CF93DF9300D0CDB7DEB7B7
:10179000F82E8A016B0101151105B1F0F601F7FE73
:1017A00002C0849101C0808149835A830E94EE095E
:1017B00001501109FFEFCF1ADF0A49815A818111C7
:1017C000EACF8FEF9FEF01C0CA010F900F90DF911A
:1017D000CF911F910F91FF90DF90CF9008951F93AD
:1017E000CF93DF931F92CDB7DEB7162F2091E8007D
:1017F00022FFFCCF612F79830E94E1098BEF809358
:10180000E800812F7981972F0F90DF91CF911F9161
:1018100008951F920F920FB60F921124DF92EF924C
:10182000FF920F931F932F933F934F935F936F9369
:101830007F938F939F93AF93BF93EF93FF93CF9338
:10184000DF93CDB7DEB76C97DEBFCDBF1092E90056
:101850008091E80083FF23C168E0CE0145960E9495
:10186000E10982EF8093E8003D8937FF05C0809150
:10187000E80080FFFCCF03C08EEF8093E800832F49
:10188000807609F0F0C02E894F89D88C21110CC0C8
:10189000303829F4809115038093F10002C0109232
:1018A000F1001092F100F4C0842F90E09D292130C6
:1018B00049F43111EDC0019709F0EAC08091150398
:1018C0008D7F0AC0233059F43111E2C0019709F02D
:1018D000DFC080911503826080931503D9C0253045
:1018E00041F48091E80080FFFCCF40684093E30022
:1018F000CFC0263009F08DC0EB8CFC8C22E0D212D8
:101900002CC080E090E00E94B30B0E947C0A99E01A
:101910008E010F5F1F4FF801292F11922A95E9F7C9
:101920009983DA8291E09E8390EA98879AEF99876B
:101930002091120330911303275F3F4F3C832B8389
:101940008D83C7010E94B30B49E050E0B80180E0ED
:101950000E94BE0B0E947C0A9BC0C7010E94B30B71
:101960000E94AB0EBE016B5E7F4F0E944D0E009732
:1019700019F00CF08DC090C081E0D8120EC08B8D94
:101980009C8D089719F481E080930F0380910F03D9
:1019900081112FC065EB71E031C0E3E0DE127CC045
:1019A0008F89882349F1823029F440E86DE083ED86
:1019B00091E01CC0813029F440E86BE087EC91E0B5
:1019C00015C0833009F068C00E94AB0E8E010F5F16
:1019D0001F4FB8010E946C0EF80101900020E9F73A
:1019E0003197E01BF10B40E06E2FC8010E941C0AEA
:1019F0004DC063EA71E002C061EE71E061157105EE
:101A000009F44AC0FB01449150E080E80E94BE0BFB
:101A10003FC0273009F440C0283021F481E0809392
:101A2000F10036C02930A1F53370B1F5EFE0F1E0F7
:101A300081E021E036E39081992361F08093E90011
:101A40002093EB0091919093EC003093ED008F5F29
:101A5000873089F78EE78093EA001092EA008F8939
:101A60008093160315C08B8D9C8D0E94B30B898DBE
:101A7000811105C0CE0145960E94510807C00E9401
:101A8000AB0EBE016B5E7F4F0E948B0E882321F050
:101A90008EEF8093E80003C081E28093EB006C96A8
:101AA0000FB6F894DEBF0FBECDBFDF91CF91FF918F
:101AB000EF91BF91AF919F918F917F916F915F91C6
:101AC0004F913F912F911F910F91FF90EF90DF90D9
:101AD0000F900FBE0F901F9018958093E900809192
:101AE000F200882319F08AE38093E80008951F929A
:101AF0000F920FB60F9211242F933F934F935F9342
:101B00006F937F938F939F93AF93BF93CF93EF93F5
:101B1000FF93C091E1008091E100837F8093E10019
:101B20008093E100C3FF0FC01092E90081E0809331
:101B3000EB001092EC0082E38093ED00109216030C
:101B400088E08093F000C2FF19C083E00E946D0D11
:101B500080911803882339F0809118038150809375
:101B60001803882389F180911703882339F0809125
:101B70001703815080931703882341F1C4FF10C0DD
:101B80008091E2008E7E81608093E2008091E1008E
:101B90008F7E8093E100809114038E7E806111C05E
:101BA000C0FF16C08091E2008E7E80618093E200CB
:101BB0008091E1008E7E8093E100809114038E7EFF
:101BC00081608093140304C05D98CDCF2898D6CF50
:101BD000FF91EF91CF91BF91AF919F918F917F91A5
:101BE0006F915F914F913F912F910F900FBE0F908A
:101BF0001F9018951092160310921503109214035B
:101C00000E94590AE1EEF0E080818E7E80838DE0B3
:101C10008093E200559A209A5D9828980895089537
:101C20000E9450060E940F0E8EE093E00E94FA0D73
:101C30000E946501C0E0D0E00E94E2012097E1F33C
:101C40000E940000F9CF0895EF92FF920F931F9327
:101C5000CF93DF937B01FC01C281D38100E010E0D0
:101C6000209781F0E881F9810280F381E02DB701AE
:101C7000CE01099597FD08C0080F191F0884D98562
:101C8000C02DEECFC80102C08FEF9FEFDF91CF9143
:101C90001F910F91FF90EF9008950F931F93CF9393
:101CA000DF938B01FC01C281D381209771F0E88121
:101CB000F9810480F581E02DB801CE0109950097E6
:101CC00031F40884D985C02DF0CF80E090E0DF9119
:101CD000CF911F910F9108950F931F93CF93DF938F
:101CE0008B01FC01C281D381209771F0E881F981D9
:101CF0000680F781E02DB801CE010995080F111D6E
:101D00000884D985C02DF0CFF8011082DF91CF91E2
:101D10001F910F9108950F931F93CF93DF938B0122
:101D2000FC01C281D381209771F0E881F981019093
:101D3000F081E02DB801CE010995811106C008841B
:101D4000D985C02DF0CF80E001C081E0DF91CF9137
:101D50001F910F91089580911D0381110DC082E0A4
:101D60008093190384E080931A0310921C0310924D
:101D70001B0381E080931D0389E193E00895A1E2B4
:101D80001A2EAA1BBB1BFD010DC0AA1FBB1FEE1FF5
:101D9000FF1FA217B307E407F50720F0A21BB30B40
:101DA000E40BF50B661F771F881F991F1A9469F7BC
:101DB00060957095809590959B01AC01BD01CF0118
:101DC0000895EE0FFF1F0590F491E02D0994F8940B
:021DD000FFCF43
:101DD2000100FFFFFFFF00E100000000000000C162
:101DE2008081000000556E6971756520426F6172D5
:101DF20064204944202320003A002D2D2D2D2D2D25
:101E02005761676D616E20426F61726420496E692D
:101E12007469616C697A6174696F6E205465737458
:101E220020506172742049492D2D2D2D2D2D002E0B
:101E3200200054657374696E67204465627567207B
:101E42004C454473202D20546865792073686F7562
:101E52006C642070756C7365206E6F7720666F728C
:101E62002035207365636F6E64732E2E2E002D2D28
:101E72002D2D2D2D456E64206F6620626F61726478
:101E820020746573742D2D2D2D2D2D000000000062
:101E9200D502A8027D0285029802A7020000000076
:101EA200E907300813082308FF0710080D0A006E1F
:0C1EB200616E00696E66006F76660000CD
:00000001FF
