:100000000C94EE000C941F010C941F010C941F0122
:100010000C941F010C941F010C941F010C941F01E0
:100020000C941F010C941F010C94C50C0C94570BDD
:100030000C941F010C941F010C941F010C941F01C0
:100040000C941F010C941F010C941F010C941F01B0
:100050000C941F010C941F010C941F010C94770544
:100060000C941F010C941F010C941F010C941F0190
:100070000C941F010C941F010C941F010C941F0180
:100080000C941F010C941F010C941F010C941F0170
:100090000C944A040C941F010C941F010C941F0132
:1000A0000C941F010C941F010C941F017A067D060D
:1000B0006C06700676069E069E069E0681068506DE
:1000C00089068F0693069E06990600000002000925
:1000D0000F0000030401000C0000000000000000FD
:1000E0000000000000000000000408020110408031
:1000F000401020408040800802040180402010020F
:10010000011080102040402004040404040304056E
:1001100002020202040302020202060606060606A4
:100120000404020202040400000000230026002947
:10013000002C002F0000000000250028002B002EBE
:1001400000310000000000240027002A002D0030AC
:1001500000080B0002020201000904000001020273
:1001600000000524001001052401010104240206F9
:100170000524060001070581031000400904010061
:10018000020A000000070502024000000705830282
:1001900040000012010002EF0201404123378000BD
:1001A0000101020301120100020000004041233757
:1001B0008000010102030141726475696E6F204C79
:1001C0004C430041726475696E6F204D6963726FB4
:1001D0000004030904000A0260031E0811241FBE64
:1001E000CFEFDAE0DEBFCDBF14BE88E10FB6F894E2
:1001F00080936000109260000FBE11E0A0E0B1E0BB
:10020000EEE6FCE102C005900D92A83EB107D9F7D9
:1002100023E0A8EEB1E001C01D92A132B207E1F7E0
:1002200011E0CCEDD1E004C02297FE010E94310E16
:10023000C63DD107C9F70E945E0D0C94350E0C9493
:10024000000061E08DE00E949F0661E089E00E946D
:100250009F0661E080E00E949F0661E081E00E94CD
:100260009F0661E084E00E949F0661E085E10E94B4
:100270009F0661E086E00E949F0661E088E00E94A0
:100280009F0661E08AE00E949F0661E08CE00E9488
:100290009F0660E085E00E949F0660E087E00E9484
:1002A0009F0660E086E10E949F0660E08BE00E946E
:1002B0009F0660E087E10C949F0661E088E00C9463
:1002C000D80668EE73E080E090E00E94E4050E94AA
:1002D000210168EE73E080E090E00E94E4050E9456
:1002E0005D0140E052EC61E070E08AEB92E00E9438
:1002F000180881EF91E00E94D00268EE73E080E080
:1003000090E00C94E4051F93CF93DF9368EE71E0C7
:1003100080EF91E00E940E0265E171E08AEB92E0CD
:100320000E945108C8EED1E010E0699140E150E030
:100330008AEB92E00E942809173031F066E971E0FB
:100340008AEB92E00E9451081F5F183071F769ED47
:1003500071E08AEB92E0DF91CF911F910C945E08DF
:1003600068E271E08AEB92E00E945E080E948301DD
:1003700060ED77E080E090E00E94E40569ED71E0D7
:100380008AEB92E00E945E08609100017091010189
:10039000CB01019690930101809300014AE050E067
:1003A0008AEB92E00E9413096DE471E08AEB92E01F
:1003B0000E94510860E571E08AEB92E00E945E08BD
:1003C00060ED77E080E090E00E94E40560E671E097
:1003D0008AEB92E00E945E0866E271E08AEB92E0AE
:1003E0000E945E0886E10E940E074AE050E0BC01D0
:1003F0008AEB92E00E94130961EF71E080E090E0E7
:100400000E94E405EFCFDC01ED91FC910190F081B9
:10041000E02D099481EF91E00C94D0020F931F938B
:10042000CF93DF938B0167E570E081EF91E00E944D
:10043000E40260EF70E081EF91E00E94030281EF3F
:1004400091E00E945D0348E050E067E570E081EFD5
:1004500091E00E945A03E80118E081EF91E00E94C8
:10046000410289931150C9F7DF91CF911F910F91EC
:1004700008958091210290E020912202821B91092F
:1004800008952091220280912102281750F4E22F32
:10049000F0E0ED5DFD4F808190E02F5F2093220220
:1004A00008958FEF9FEF0895E0912202809121023D
:1004B000E81730F4F0E0ED5DFD4F808190E00895A5
:1004C0008FEF9FEF08950895CF92DF92EF92FF9202
:1004D0000F931F93CF93DF937C01CB018A0120916F
:1004E000FD01222389F0EB016B01C40ED51ECC1552
:1004F000DD0569F06991D701ED91FC910190F081E2
:10050000E02DC7010995F3CF642F0E942104C80193
:10051000DF91CF911F910F91FF90EF90DF90CF90DF
:100520000895CF93DF931F92CDB7DEB769832091F3
:10053000FD012223D1F02091FE01203240F021E084
:1005400030E0FC013383228380E090E015C080918D
:10055000FF01E82FF0E0E050FE4F998190838F5F1C
:100560008093FF018093FE0105C061E0CE010196FA
:100570000E94210481E090E00F90DF91CF910895D7
:10058000FC011382128248EE53E060E070E0448385
:100590005583668377838BEB91E091838083089505
:1005A00010922202109221021092FF011092FE017D
:1005B0000C94640381E08093FD016093200210920B
:1005C000FF011092FE0108950C94DA020F93062F9A
:1005D00021E04091FE0160E072E0809120020E94E3
:1005E000CA031092FF011092FE011092FD010F91BB
:1005F00008958F929F92AF92BF92CF92DF92EF9227
:10060000FF920F931F93CF93DF93EC01F62ED42E1E
:1006100048015901EE2019F10E94DA021E2D143012
:1006200008F013E01150B8F0E881F98128E0129F3A
:10063000B0011124A501940104C056954795379542
:1006400027956A95D2F7CA01B9010190F081E02D92
:10065000CE010995E7CF60E0CE010E94E6024D2D64
:10066000413208F040E22C2D63E272E08F2D0E94AF
:1006700082031092220280932102DF91CF911F9179
:100680000F91FF90EF90DF90CF90BF90AF909F9031
:100690008F900895CF92EF920F931F93C22EE12C6B
:1006A00000E010E098010E94F9021F910F91EF9075
:1006B000CF90089521E00C944A0361E00C94E60287
:1006C00081EF91E00C94C0021092B00281E080931F
:1006D000AE021092AD0261E082E00E94D80661E0B5
:1006E00083E00E94D806E9EBF0E080818E7F808372
:1006F00080818D7F808388E48093B80085E4809337
:10070000BC000895413208F043C09091B0029111AD
:10071000FCCF91E09093B0022093AE022FEF209394
:10072000430210928802240F209387029093AF0215
:100730009091AF02880F892B8093AF028091AD0218
:10074000813061F41092AD028091AF028093BB00C2
:100750008091BC0083FDF8CF85EC01C085EE8093CD
:10076000BC008091B0028130E1F38091880284174F
:1007700010F44091880229E832E0FB01D9018A2F68
:10078000821B841718F48D918193F9CF842F0895DB
:1007900080E008950F93413208F04AC09091B00272
:1007A0009111FCCF92E09093B0020093AE029FEFC4
:1007B000909343021092880240938702FB0169E8FC
:1007C00072E0DB019A2F961B941718F491919D9378
:1007D000F9CF1092AF029091AF02880F892B8093CE
:1007E000AF028091AD02813061F41092AD02809130
:1007F000AF028093BB008091BC0083FDF8CF85ECF5
:1008000001C085EE8093BC00222321F08091B002CC
:100810008230E1F3809143028F3F61F08091430287
:10082000803251F080914302803341F483E007C06D
:1008300081E005C080E003C082E001C084E00F9148
:100840000895613298F42091B002243089F46093C5
:100850006502FC0187E692E0DC012A2F281B26179F
:1008600018F421912D93F9CF80E0089581E0089547
:1008700082E0089585ED8093BC008091BC0084FDEA
:10088000FCCF1092B002089585EC8093BC001092CA
:10089000B00208951F920F920FB60F9211242F935A
:1008A0003F934F935F936F937F938F939F93AF93F8
:1008B000BF93EF93FF938091B900887F803609F44E
:1008C0009EC078F5883209F45DC090F4803109F457
:1008D00056C038F4882309F4F5C0883009F44FC0B5
:1008E000F5C0883109F44EC0803209F45FC0EEC013
:1008F000803409F46AC058F4803309F457C088334F
:1009000009F0E4C0809343020E944404DFC08035B4
:1009100009F44FC0883509F45DC0883409F0D6C0A9
:10092000D3C0883909F4C4C0A8F4883709F467C073
:1009300038F4883609F463C0803709F460C0C6C053
:10094000883809F4B5C0803909F45FC0803809F0EF
:10095000BDC05BC0803B09F483C038F4803A09F421
:1009600066C0883A09F47CC0B1C0803C09F4A4C0D8
:10097000883C09F4A1C0883B09F487C0A7C08091D6
:10098000AF0210C09091880280918702981770F58D
:10099000E091880281E08E0F80938802F0E0E757B3
:1009A000FD4F80818093BB0085EC83C08093430220
:1009B0008BC0E091880281E08E0F80938802809145
:1009C000BB00F0E0E757FD4F808390918802809153
:1009D00087026BC0E091880281E08E0F80938802CD
:1009E0008091BB00F0E0E757FD4F80838091AE021D
:1009F00081116AC081E08093AD0284EA5EC083E029
:100A00008093B00210924402CFCF80914402803292
:100A100008F04EC0E091440281E08E0F80934402C2
:100A20008091BB00F0E0EB5BFD4F8083BDCF0E9467
:100A3000440480914402803230F4E0914402F0E0BA
:100A4000EB5BFD4F10826091440270E0E091A902DF
:100A5000F091AA0285E492E009951092440236C012
:100A600084E08093B0021092660210926502E091D9
:100A7000AB02F091AC02099580916502811105C02D
:100A800081E08093650210926702E091660281E046
:100A90008E0F80936602F0E0E959FD4F80818093CC
:100AA000BB009091660280916502981708F47CCF94
:100AB00085E88093BC000AC085EC8093BC0010924E
:100AC000B00204C0109243020E943A04FF91EF91D9
:100AD000BF91AF919F918F917F916F915F914F9156
:100AE0003F912F910F900FBE0F901F9018951F925E
:100AF0000F920FB60F9211242F933F938F939F93D2
:100B0000AF93BF938091B2029091B302A091B402CF
:100B1000B091B5023091B10223E0230F2D3720F4BC
:100B20000196A11DB11D05C026E8230F0296A11D47
:100B3000B11D2093B1028093B2029093B302A093AF
:100B4000B402B093B5028091B6029091B702A09121
:100B5000B802B091B9020196A11DB11D8093B602F1
:100B60009093B702A093B802B093B902BF91AF912E
:100B70009F918F913F912F910F900FBE0F901F90DB
:100B800018953FB7F8948091B6029091B702A09162
:100B9000B802B091B90226B5A89B05C02F3F19F045
:100BA0000196A11DB11D3FBF6627782F892F9A2F6F
:100BB000620F711D811D911D42E0660F771F881F16
:100BC000991F4A95D1F70895CF92DF92EF92FF9245
:100BD000CF93DF936B017C010E94C105EB01C1142F
:100BE000D104E104F10489F00E94710D0E94C10555
:100BF0006C1B7D0B683E734090F381E0C81AD108EE
:100C0000E108F108C851DC4FEACFDF91CF91FF90A6
:100C1000EF90DF90CF900895789484B5826084BD82
:100C200084B5816084BD85B5826085BD85B58160F0
:100C300085BDEEE6F0E0808181608083E1E8F0E050
:100C40001082808182608083808181608083E0E87F
:100C5000F0E0808181608083E1E9F0E08081826062
:100C60008083808181608083E0E9F0E08081816021
:100C70008083E1ECF0E08081846080838081826009
:100C80008083808181608083E3ECF0E080818160FB
:100C90008083E0ECF0E0808182608083E2ECF0E031
:100CA000808181608083EAE7F0E0808184608083D6
:100CB0008081826080838081816080838081806880
:100CC0008083089590E0FC013197EF30F105B0F595
:100CD000EA5AFF4F0C942F0E809180008F7703C04B
:100CE000809180008F7D80938000089580918000A6
:100CF000877FF9CF84B58F7702C084B58F7D84BD9F
:100D00000895809190008F7707C0809190008F7D2B
:100D100003C080919000877F809390000895809118
:100D2000C0008F7703C08091C0008F7D8093C0008A
:100D300008958091C200877F8093C2000895CF9369
:100D4000DF9390E0FC01E751FF4F2491FC01E85F45
:100D5000FE4F8491882349F190E0880F991FFC0190
:100D6000ED5BFE4FA591B4918B5C9E4FFC01C5914C
:100D7000D4919FB7611108C0F8948C91209582237B
:100D80008C93888182230AC0623051F4F8948C914C
:100D9000322F309583238C938881822B888304C0E3
:100DA000F8948C91822B8C939FBFDF91CF91089503
:100DB0000F931F93CF93DF931F92CDB7DEB7282FEA
:100DC00030E0F901E653FF4F8491F901E751FF4FFD
:100DD0001491F901E85FFE4F04910023C9F08823C4
:100DE00021F069830E9462066981E02FF0E0EE0F36
:100DF000FF1FEB5CFE4FA591B4919FB7F8948C91C7
:100E0000611103C01095812301C0812B8C939FBF7A
:100E10000F90DF91CF911F910F910895CF93DF93A2
:100E2000282F30E0F901E653FF4F8491F901E75193
:100E3000FF4FD491F901E85FFE4FC491CC2391F0AC
:100E400081110E946206EC2FF0E0EE0FFF1FE95DBA
:100E5000FE4FA591B4912C912D2381E090E021F4D7
:100E600080E002C080E090E0DF91CF910895CF93C1
:100E7000DF931F92CDB7DEB76983DC01ED91FC9162
:100E80000280F381E02D41E050E0BE016F5F7F4FB3
:100E900009950F90DF91CF910895CF93DF93EC01E7
:100EA0008C859D8597FF05C082E00E94400A9D8742
:100EB0008C878C859D85DF91CF91089583E00C947C
:100EC000BB0CFC018485958597FD06C082E00E94DD
:100ED000E80990E00196089582E00E94E80990E018
:100EE0000895FC018485958597FD05C02FEF3FEFA0
:100EF00035872487089582E00C94400ACF93DF93CE
:100F0000EC0180910D01882331F083E00E94710A89
:100F10001816190634F081E090E09B838A8380E004
:100F200090E0DF91CF910895FC0120812E5F208316
:100F300042E450E061E571E080E80C940C0BFC01A8
:100F400021818081813A59F4213209F05CC047E067
:100F500050E066E071E080E00E940C0B67C08132D7
:100F600009F051C0233289F4838190E0982F8827BB
:100F70003281832BA0E0B0E08093020190930301C3
:100F8000A0930401B09305010FC0203239F467E04B
:100F900070E086E091E00E943D0B0AC0223221F40D
:100FA000828180930D0104C02D7F203209F03EC064
:100FB0008091060190910701A0910801B09109016B
:100FC000803B9440A105B10501F580910D0180FDA4
:100FD0001CC080910008909101089093FF0A8093B3
:100FE000FE0A87E797E790930108809300082BE0BB
:100FF00088E190E00FB6F894A895809360000FBE4A
:101000002093600013C080E0089588E10FB6F89443
:1010100080936000109260000FBEA8958091FE0A38
:101020009091FF0A909301088093000881E0089551
:101030002FEF3FEFFC013587248708951092BD0202
:101040001092BC0288EE93E0A0E0B0E08093BE0274
:101050009093BF02A093C002B093C1028BEC91E0C9
:101060009093BB028093BA028FEF9FEF9093C702D9
:101070008093C60208956115710581F0DB010D9022
:101080000020E9F7AD0141505109461B570BDC0127
:10109000ED91FC910280F381E02D099480E090E0D5
:1010A00008950C943B08DC01ED91FC910190F081D6
:1010B000E02D099467ED71E00C943B080F931F93AA
:1010C000CF93DF93EC010E943B088C01CE010E947C
:1010D0005A08800F911FDF91CF911F910F910895B2
:1010E0008F929F92AF92BF92CF92DF92EF92FF9238
:1010F0000F931F93CF93DF93CDB7DEB7A1970FB6B2
:10110000F894DEBF0FBECDBF7C01C42EE52FCB010E
:10111000D22E19A221E02D1510F02AE0D22E8E0138
:101120000F5D1F4F8D2C912CA12CB12C6C2D7E2F7F
:10113000A50194010E940D0E8C2DD29E80191124C0
:10114000015011098A3014F4805D01C0895CF801F6
:101150008083211531054105510521F0C22EE32F71
:10116000CA01E4CFB801C7010E943B08A1960FB69F
:10117000F894DEBF0FBECDBFDF91CF911F910F91CD
:10118000FF90EF90DF90CF90BF90AF909F908F90A7
:101190000895CF92DF92EF92FF920F931F93CF9318
:1011A000DF93EC016A017B012115310579F4E881B7
:1011B000F9810190F081E02D642FDF91CF911F9193
:1011C0000F91FF90EF90DF90CF9009942A30310576
:1011D000E9F477FF1AC06DE20E9453088C0144279E
:1011E0005527BA014C195D096E097F092AE0CE0125
:1011F0000E947008800F911FDF91CF911F910F9176
:10120000FF90EF90DF90CF9008952AE0B701A601FC
:10121000CE01DF91CF911F910F91FF90EF90DF9062
:10122000CF900C9470089A01AB01662757FD60952A
:10123000762F0C94C9082115310541F4DC01ED919C
:10124000FC910190F081E02D642F09940C947008BA
:101250009A01462F50E060E070E00C941B09615049
:1012600030F02091F100FC0120830196F8CF289AFC
:1012700084E680931303089540910E0350910F0369
:1012800020910C0330910D0342175307B4F4909151
:10129000E8009570E1F39091E80092FD19C0809309
:1012A000F10080910E0390910F0301968F7399279F
:1012B000892B19F48EEF8093E80080910E039091B2
:1012C0000F03019690930F0380930E0381E008951E
:1012D00080E00895CF92DF92EF92FF920F931F93D9
:1012E000CF93DF931F92CDB7DEB7082F162FF42EC2
:1012F000862F880F8E5F99830E943C0983E00E94AD
:101300003C09E02EC02E9981D92E8C2D8E19811783
:1013100098F4F601F7FE02C0849101C080810E941A
:101320003C09082F80E00E943C098023FFEFCF1A80
:10133000DF0A8111EACF01C081E00F90DF91CF91E8
:101340001F910F91FF90EF90DF90CF9008958091C3
:10135000D70081608093D70080EA8093D80089B558
:10136000806189BD89B5826089BD09B400FEFDCF69
:1013700061E070E080E090E00E94E4058091D80098
:101380008F7C80618093D8008091E000807F809383
:10139000E0000895CF93DF931F92CDB7DEB7198297
:1013A000CE0101960E9494070E94F90DBE016F5F65
:1013B0007F4F0E94720D89810F90DF91CF91089528
:1013C0002FB7FC012083F89467706093E9000895BB
:1013D000CF93DF931F92CDB7DEB7682FCE01019672
:1013E0000E94E0098091F20099819FBF0F90DF91E8
:1013F000CF910895FF920F931F93CF93DF9300D067
:10140000CDB7DEB7F62E8A0190911203992311F021
:1014100057FF03C08FEF9FEF2BC0682FCE010196BF
:101420007A830E94E0098091F20090E0A8017A811D
:10143000801791070CF4AC01EF2DF72FF40E84E622
:10144000FE1639F0289A809313039091F10091933E
:10145000F7CF4115510521F08091F200882321F04A
:1014600089818FBFCA0104C08BE68093E800F8CF62
:101470000F900F90DF91CF911F910F91FF900895E2
:10148000CF93DF931F92CDB7DEB741E050E0BE01AE
:101490006F5F7F4F0E94FA09019719F4898190E0EC
:1014A00002C08FEF9FEF0F90DF91CF910895CF9300
:1014B000DF931F92CDB7DEB7682FCE0101960E9451
:1014C000E0099091E800892F807295FF04C0909107
:1014D000F20080E4891B99819FBF0F90DF91CF912B
:1014E00008956F927F928F929F92AF92BF92CF9208
:1014F000DF92EF92FF920F931F93CF93DF931F9290
:10150000CDB7DEB7782E7B01C42EB52E80911203A5
:10151000882369F0042F152F8AEFD82E872D80722B
:10152000982E9AE3A92E872D8074882E11C08FEFF4
:101530009FEF57C0872D0E94570A682E81110CC05B
:10154000DA94A9F361E070E080E090E00E94E405A5
:101550000115110579F73BC0282F30E0021713075A
:101560000CF4602E672DCE0101960E94E009809157
:10157000E80085FF29C0262D30E0021B130B9920BF
:1015800039F06A948FEF6816B1F01092F100F9CF3C
:10159000F701862D77FE07C0815058F09491909303
:1015A000F1003196F9CF815020F091919093F100A4
:1015B000FACFE20EF31E8091E80085FF0FC00115FF
:1015C000110511F481100AC089818FBFC1CF5D9AC6
:1015D00084E6809314038C2D9B2D03C0A092E80019
:1015E000F3CF0F90DF91CF911F910F91FF90EF906C
:1015F000DF90CF90BF90AF909F908F907F906F9033
:1016000008951092E90010920F0310920E03909328
:101610000D0380930C030895CF92DF92FF920F93F6
:101620001F93CF93DF9300D0CDB7DEB7F82E8A019A
:101630006B0101151105B1F0F601F7FE02C08491AE
:1016400001C0808149835A830E943C0901501109DD
:10165000FFEFCF1ADF0A49815A818111EACF8FEF5C
:101660009FEF01C0CA010F900F90DF91CF911F91A2
:101670000F91FF90DF90CF9008951F93CF93DF934A
:101680001F92CDB7DEB7162F2091E80022FFFCCFC6
:10169000612F79830E942F098BEF8093E800812FBF
:1016A0007981972F0F90DF91CF911F9108951F920D
:1016B0000F920FB60F921124DF92EF92FF920F93C9
:1016C0001F932F933F934F935F936F937F938F93CA
:1016D0009F93AF93BF93EF93FF93CF93DF93CDB7D8
:1016E000DEB76C97DEBFCDBF1092E9008091E800B5
:1016F00083FF23C168E0CE0145960E942F0982EF47
:101700008093E8003D8937FF05C08091E80080FFA5
:10171000FCCF03C08EEF8093E800832F807609F022
:10172000F0C02E894F89D88C21110CC0303829F493
:10173000809111038093F10002C01092F100109289
:10174000F100F4C0842F90E09D29213049F431113B
:10175000EDC0019709F0EAC0809111038D7F0AC0A6
:10176000233059F43111E2C0019709F0DFC08091B4
:101770001103826080931103D9C0253041F4809118
:10178000E80080FFFCCF40684093E300CFC02630E4
:1017900009F08DC0EB8CFC8C22E0D2122CC080E0D2
:1017A00090E00E94010B0E94CA0999E08E010F5F30
:1017B0001F4FF801292F11922A95E9F79983DA82B0
:1017C00091E09E8390EA98879AEF998720910E0383
:1017D00030910F03275F3F4F3C832B838D83C701DD
:1017E0000E94010B49E050E0B80180E00E940C0B20
:1017F0000E94CA099BC0C7010E94010B0E94F90DFB
:10180000BE016B5E7F4F0E949B0D009719F00CF09C
:101810008DC090C081E0D8120EC08B8D9C8D089732
:1018200019F481E080930B0380910B0381112FC089
:1018300065EA71E031C0E3E0DE127CC08F89882365
:1018400049F1823029F440E86DE083EC91E01CC05E
:10185000813029F440E86BE087EB91E015C08330DC
:1018600009F068C00E94F90D8E010F5F1F4FB8018B
:101870000E94BA0DF80101900020E9F73197E01BB2
:10188000F10B40E06E2FC8010E946A094DC063E968
:1018900071E002C061ED71E06115710509F44AC0A3
:1018A000FB01449150E080E80E940C0B3FC02730C0
:1018B00009F440C0283021F481E08093F10036C063
:1018C0002930A1F53370B1F5EFE0F1E081E021E0DE
:1018D00036E39081992361F08093E9002093EB0037
:1018E00091919093EC003093ED008F5F873089F7F2
:1018F0008EE78093EA001092EA008F8980931203AA
:1019000015C08B8D9C8D0E94010B898D811105C0A6
:10191000CE0145960E949F0707C00E94F90DBE01A7
:101920006B5E7F4F0E94D90D882321F08EEF80934C
:10193000E80003C081E28093EB006C960FB6F89448
:10194000DEBF0FBECDBFDF91CF91FF91EF91BF9171
:10195000AF919F918F917F916F915F914F913F9147
:101960002F911F910F91FF90EF90DF900F900FBE7E
:101970000F901F9018958093E9008091F2008823C2
:1019800019F08AE38093E80008951F920F920FB632
:101990000F9211242F933F934F935F936F937F93F5
:1019A0008F939F93AF93BF93CF93EF93FF93C09188
:1019B000E1008091E100837F8093E1008093E1006A
:1019C000C3FF0FC01092E90081E08093EB001092FA
:1019D000EC0082E38093ED001092120388E0809384
:1019E000F000C2FF19C083E00E94BB0C8091140379
:1019F000882339F080911403815080931403882345
:101A000089F180911303882339F080911303815069
:101A100080931303882341F1C4FF10C08091E2003A
:101A20008E7E81608093E2008091E1008F7E8093C2
:101A3000E100809110038E7E806111C0C0FF16C04E
:101A40008091E2008E7E80618093E2008091E100CF
:101A50008E7E8093E100809110038E7E8160809362
:101A6000100304C05D98CDCF2898D6CFFF91EF9199
:101A7000CF91BF91AF919F918F917F916F915F9126
:101A80004F913F912F910F900FBE0F901F9018957F
:101A90001092120310921103109210030E94A709D2
:101AA000E1EEF0E080818E7E80838DE08093E20025
:101AB000559A209A5D982898089508950E940C06DA
:101AC0000E945D0D8AE093E00E94480D0E94610132
:101AD000C0E0D0E00E94B0012097E1F30E94000036
:101AE000F9CF0895EF92FF920F931F93CF93DF9357
:101AF0007B01FC01C281D38100E010E0209781F0DE
:101B0000E881F9810280F381E02DB701CE010995CA
:101B100097FD08C0080F191F0884D985C02DEECF86
:101B2000C80102C08FEF9FEFDF91CF911F910F91FE
:101B3000FF90EF9008950F931F93CF93DF938B0146
:101B4000FC01C281D381209771F0E881F981048082
:101B5000F581E02DB801CE010995009731F4088494
:101B6000D985C02DF0CF80E090E0DF91CF911F911B
:101B70000F9108950F931F93CF93DF938B01FC0177
:101B8000C281D381209771F0E881F9810680F781C5
:101B9000E02DB801CE010995080F111D0884D985E3
:101BA000C02DF0CFF8011082DF91CF911F910F91DE
:101BB00008950F931F93CF93DF938B01FC01C28194
:101BC000D381209771F0E881F9810190F081E02DB7
:101BD000B801CE010995811106C00884D985C02DB0
:101BE000F0CF80E001C081E0DF91CF911F910F9194
:101BF00008958091190381110DC082E0809315032F
:101C000084E080931603109218031092170381E06A
:101C10008093190385E193E00895A1E21A2EAA1B8F
:101C2000BB1BFD010DC0AA1FBB1FEE1FFF1FA2178C
:101C3000B307E407F50720F0A21BB30BE40BF50B89
:101C4000661F771F881F991F1A9469F76095709512
:101C5000809590959B01AC01BD01CF010895EE0FD9
:0E1C6000FF1F0590F491E02D0994F894FFCF3A
:101C6E000100FFFFFFFF00E100000000000000C1C7
:101C7E008081000000556E6971756520426F61723A
:101C8E0064204944202320002D2D2D2D2D2D436F12
:101C9E00726573656E736520486561727462656105
:101CAE007420546573742D2D2D2D2D2D002E200096
:101CBE0048656172746265617420746573743A006C
:101CCE0052656164696E67206865617274626561F0
:101CDE00742076616C7565732073656E74206279FD
:101CEE0020436F726573656E7365206576657279D4
:101CFE00203530306D733A004865617274626561EB
:101D0E00742056616C7565732028706F7274732021
:101D1E00312D35293A20000000000091026402396D
:101D2E00024102540263020000000037077E076181
:101D3E000771074D075E070D0A006E616E00696E32
:081D4E0066006F7666002E00AE
:00000001FF
