:1000000017C1000046C1000044C1000042C1000009
:1000100040C100003EC100003CC100003AC10000E8
:1000200038C1000036C1000034C1000032C10000F8
:1000300030C100002EC100002CC100002AC1000008
:1000400028C1000026C1000024C1000022C1000018
:1000500020C100001EC100001CC100000C94E2255C
:1000600018C100000C94942A0C94CA2A12C10000F2
:1000700010C100000EC100000CC100000AC1000048
:1000800008C1000006C1000004C1000002C1000058
:1000900000C10000FEC00000FCC000000C9425164A
:1000A000F8C00000F6C00000F4C00000F2C000007C
:1000B000F0C00000EEC00000ECC00000EAC000008C
:1000C000E8C00000E6C00000E4C00000E2C000009C
:1000D000E0C00000DEC00000DCC00000DAC00000AC
:1000E000D8C00000EC24EF24DE24E224E8242625F6
:1000F000F324F724FD24012505250B250F251325C1
:10010000262519251D25212500000A0B02090C0DA5
:100110000E080703040100000000000000000000BA
:1001200000000000000000000000000000000000CF
:10013000000000001211100000000000000000008C
:1001400000000000000000000000000000000102AC
:1001500010202008081020401020408002010201D9
:100160000804020101020408102040808040201091
:1001700008040201800402018040201008040201EA
:100180000804020101020408102040800102040852
:10019000102040800505050507050808080802022B
:1001A00002020A0A08080404040401010101010111
:1001B00001010303030303030303040707070C0CF4
:1001C0000C0C0C0C0C0C02020202060606060606BB
:1001D00006060B0B0B0B0B0B0B0B00002000230078
:1001E000260029002C002F0032000001000003012E
:1001F0000601090100002200250028002B002E0026
:100200003100340002010000050108010B0100006B
:100210002100240027002A002D00300033000101B6
:100220000000040107010A0188063B15FC2AB806F4
:1002300011241FBECFEFD1E2DEBFCDBF00E00CBF67
:1002400016E0A0E0B2E0E2E1FFE500E00BBF02C093
:1002500007900D92A03FB107D9F72BE0A0EFB6E0D1
:1002600001C01D92A33EB207E1F712E0CEE2D2E058
:1002700000E006C022970109FE010BBF0E94192E63
:10028000C832D10780E00807A9F70E94882A0C9499
:10029000782FB6CE0F931F93CF93DF934091980999
:1002A0005091990960919A0970919B0922E030E080
:1002B00082E49BE00E94062965E272E082E49BE012
:1002C0000E9424270CE919E0C0E0D0E0F801419138
:1002D0005191619171918F0122E030E082E49BE0C5
:1002E0000E940629CF30D10531F065E272E082E448
:1002F0009BE00E9424272196C031D10539F7DF9178
:10030000CF911F910F910895982F28E030E047E09A
:10031000892F880F97FD84272150310911F0982FDC
:10032000F7CF0895CF92DF92EF92FF920F931F9332
:10033000CF93DF937C016B0184E1E6DF9CE48927A6
:10034000E3DF95E18927E0DF8701C0E0D0E0CC154D
:10035000DD0544F4F80190810E5F1F4F8927D4DF3B
:100360002196F5CF482F50E0F601EE0FFF1FEE0D5E
:10037000FF1D81E090E0208131814217530711F089
:1003800080E090E0DF91CF911F910F91FF90EF906F
:10039000DF90CF900895EF92FF920F931F93CF932A
:1003A000DF9384E10E94811C813011F480E097C0CA
:1003B0008CE40E94B61C8130C9F385E10E94AD1C1B
:1003C0008130A1F32CEDE22E29E0F22E00E010E0C6
:1003D0000232110541F40E94DE1C90E09093210A44
:1003E0008093200A06C00E94CE1C90E0F701918302
:1003F00080830F5F1F4FF2E0EF0EF11C03321105F7
:1004000039F7ECEDF9E08191919189319C4F71F2CE
:100410008AE0E232F807B9F70E94AE1C62E270E0AF
:100420008CED99E07FDF892B09F4C0CF80E090E06C
:100430009091DE096091DC097091DD09680F791FE8
:10044000882777FD8095982F0E94442C2DEC3CEC5A
:100450004CEC5DE30E94F82C609398097093990925
:1004600080939A0990939B0900EE19E09CE9E92E8C
:1004700099E0F92EF801F281DF2F20E0C22FF80178
:10048000608171816C0F7D1F882777FD8095982F83
:100490000E94442C2DEC3CEC4CEC5DE30E94F82CCB
:1004A000F70161937193819391937F010C5F1F4FCB
:1004B000FAE000321F07F1F66091200A7091210ADC
:1004C000882777FD8095982F0E94442C609394098B
:1004D00070939509809396099093970981E0DF9135
:1004E000CF911F910F91FF90EF9008952F923F921F
:1004F0004F925F926F927F928F929F92AF92BF9234
:10050000CF92DF92EF92FF920F931F93CF93DF93DF
:10051000CDB7DEB762970FB6F894DEBF0FBECDBF82
:10052000809190079091910798878F8380918F0990
:1005300090919009A0919109B091920989879A8729
:10054000AB87BC8780918B0990918C09A0918D0914
:10055000B0918E098D879E87AF87B88B40908709B1
:10056000509088096090890970908A0980909E0750
:1005700090909F07A090A007B090A107C0909A0705
:10058000D0909B07E0909C07F0909D070091960704
:1005900010919707909198079A8BA0919907A98B32
:1005A000E2EEF8E0FA83E98382E498E09E838D83AB
:1005B000A2EAB7E0BC83AB83212C312C8F819885D4
:1005C0002816390609F452C0E981FA8161917191C6
:1005D00081919191FA83E98329853A854B855C85E0
:1005E0000E94402B9B01AC010E94F82C9B01AC01A6
:1005F000B401C5010E94412B4B015C01AD81BE815C
:100600006D917D918D919D91BE83AD832D853E85AC
:100610004F8558890E94402B9B01AC010E94F82C09
:100620009B01AC01B601C7010E94412B6B017C010B
:10063000EB81FC816191719181919191FC83EB83BC
:10064000A30192010E94402B9B01AC010E94F82C57
:100650009B01AC01B8018A8999890E94412BFFEF67
:100660002F1A3F0A8B018A8B998BA8CFC401D50121
:1006700080939E0790939F07A093A007B093A10734
:10068000C601D70180939A0790939B07A0939C077C
:10069000B0939D07C801AA89B98980939607909362
:1006A0009707A0939807B09399079401A501B40107
:1006B000C5010E94F82C4B015C019601A701B6010F
:1006C000C7010E94F82C9B01AC01C501B4010E9436
:1006D000412B6B017C0198014A895989B8018A89AB
:1006E00099890E94F82C9B01AC01C701B6010E94B8
:1006F000412B20E030E040E450E40E94A92B6093BD
:1007000092077093930780939407909395070E94A4
:100710005F2D60938309709384098093850990937A
:10072000860962960FB6F894DEBF0FBECDBFDF918B
:10073000CF911F910F91FF90EF90DF90CF90BF90DE
:10074000AF909F908F907F906F905F904F903F9071
:100750002F900895AF92BF92CF92DF92EF92FF92C7
:100760000F931F93CF93DF931F921F92CDB7DEB7E6
:10077000182F7B018AE349835A830E94811C812FB1
:100780000E94B61C8BE30E94AD1C4981A42E5A81A5
:10079000B52E00E010E0670181E0C81AD1080E15FF
:1007A0001F0584F40C151D0519F40E94DE1C02C0FF
:1007B0000E94CE1CF50180830F5F1F4FFFEFAF1A21
:1007C000BF0AEDCF0E94AE1C81E00F900F90DF9129
:1007D000CF911F910F91FF90EF90DF90CF90BF903E
:1007E000AF9008951F93CF93DF93CDB7DEB72797D0
:1007F0000FB6F894DEBF0FBECDBF182FAE014F5F0E
:100800005F4F66E070E081E09F83A4DF9F818823D3
:10081000F1F0FE013296612F792F9E01285F3F4F44
:10082000CF010197DC018C9190E0982F88274081BF
:10083000842B54E0959587955A95E1F7DB018D93CC
:100840009D93BD013296E217F30751F702C080E095
:1008500001C081E027960FB6F894DEBF0FBECDBF72
:10086000DF91CF911F9108954F925F926F927F9287
:100870008F929F92AF92BF92CF92DF92EF92FF92B0
:100880000F931F93CF93DF93CDB7DEB76A970FB661
:10089000F894DEBF0FBECDBFCE010D96A3DF811150
:1008A00011C080E090ECA9E7B4EC89839A83AB8314
:1008B000BC838D839E83AF83B88789879A87AB87F4
:1008C000BC8724C08E01035F1F4F9E012F5F3F4FE7
:1008D00079016E0133E1C30ED11CD8016D917D9178
:1008E0008D01882777FD8095982F0E94442C20E069
:1008F00030E040E85AE30E94F82CF70161937193CD
:10090000819391937F010C151D0539F70091900794
:100910001091910749805A806B807C80C801880FB4
:10092000991F880F991FFC01EE51F74F40825182A9
:10093000628273822D813E814F8158852B8B3C8B47
:100940004D8B5E8BFC01EE5BF74F2083318342833E
:10095000538329853A854B855C852F8B388F498F4A
:100960005A8FFC01EE55F84F208331834283538325
:10097000B80180E090E00E94422C4B015C010F5FC7
:100980001F4FB80180E090E00E94422C6B017C0177
:1009900020918F09309190094091910950919209CD
:1009A000C501B4010E94F82CA30192010E94412BC1
:1009B000A70196010E94A92B60938F09709390095B
:1009C000809391099093920920918B0930918C0921
:1009D00040918D0950918E09C501B4010E94F82CF7
:1009E0002B893C894D895E890E94412BA701960184
:1009F0000E94A92B60938B0970938C0980938D09B9
:100A000090938E0920918709309188094091890936
:100A100050918A09C501B4010E94F82C2F89388DA4
:100A2000498D5A8D0E94412BA70196010E94A92B46
:100A300060938709709388098093890990938A0944
:100A400010939107009390076A960FB6F894DEBF53
:100A50000FBECDBFDF91CF911F910F91FF90EF900F
:100A6000DF90CF90BF90AF909F908F907F906F90CE
:100A70005F904F900895CF93C82F8AE30E94811C06
:100A80008C2F0E94B61C8BE30E94AD1C0E94AE1CF2
:100A9000CF910C94DE1C1F93CF93DF931F92CDB7A1
:100AA000DEB7182F8AE369830E94811C812F0E9480
:100AB000B61C6981862F0E94B61C0F90DF91CF91E2
:100AC0001F910C94AE1C8AE2D6DF682F6E7F8AE2FB
:100AD000E2CF8AE2D0DF682F61608AE2DCCF8DE06E
:100AE000CADF8A3239F4EFDF60E08EE0D4DFF1DF75
:100AF00081E0089580E008950F931F93CF93DF93D3
:100B000000914E0710914F0781E00E94BD25C0E083
:100B1000D2E09E01281B390BC9011816190644F4AE
:100B200081E00E94BD259E01281B390BC90104C02C
:100B300081E00E94BD259250801791072CF480918E
:100B40004E0790914F0718C081E00E94BD25C0E07C
:100B5000D2E09E01281B390BC9011816190644F46E
:100B600081E00E94BD259E01281B390BC90104C0EC
:100B700081E00E94BD25925090934F0780934E07CD
:100B8000DF91CF911F910F910895EF92FF920F93F4
:100B90001F93CF93DF93CDB7DEB764970FB6F8946A
:100BA000DEBF0FBECDBFBE01635F7F4F89E397E01D
:100BB0000E94E212811105C089E397E00E949F1212
:100BC00058C067E0CE010D960E9478139C89891366
:100BD00050C08D85803119F0883209F04AC089E310
:100BE00097E00E948611BE01635F7F4F89E397E023
:100BF0000E94741241E064E489E397E00E941A12B3
:100C000089E397E00E948611BE01635F7F4F89E30D
:100C100097E00E94741240E06EEB89E397E00E9437
:100C20001A128E010F5F1F4F7E018AE0E80EF11C41
:100C300089E397E00E945912F80181938F01EE1524
:100C4000FF05B1F789E397E00E949F126A8170E087
:100C5000762F66278981682B882777FD8095982FC6
:100C60000E94442C20E030E040E85DE30E94F82C34
:100C700004C060E070E08AE794EC64960FB6F894E4
:100C8000DEBF0FBECDBFDF91CF911F910F91FF90BF
:100C9000EF9008952AE736E34BE85FE36091FD06A5
:100CA0007091FE068091FF06909100070E94F82C3B
:100CB0006093F9067093FA068093FB069093FC0606
:100CC0000895CF93DF9366E870E081E29BE00E9495
:100CD000C5198370833009F4C7DD6CE870E081E2E8
:100CE0009BE00E94C5198370833029F4C4E8D3E0E7
:100CF00003DF2197E9F7DF91CF91089580915F0A93
:100D00009091600A01969093600A80935F0AD9CF10
:100D10004DE85AE560E070E086E49AE00E947721B1
:100D20004CE06BE083E697E00E94D71A49E06AE066
:100D300082E597E00E94D71A67E089E397E00E9476
:100D4000AC1246E167E287E197E00E94811760E01C
:100D500086E197E00E94B51845E657E260E070E052
:100D60008BE097E00E943C1D88EF96E00C94BE2338
:100D70008BEA96E0909318078093170708958F9257
:100D80009F92AF92BF92CF92DF92EF92FF92CF935A
:100D9000DF9360E086E49AE00E949A22C0E0D0E00F
:100DA00060910C0270910D02882777FD8095982F35
:100DB0000E94442C6B017C01BE01882777FD809541
:100DC000982F0E94442C4B015C0120910E0230911F
:100DD0000F024091100250911102C701B6010E940A
:100DE000F82C9B01AC01C501B4010E94A52B87FF23
:100DF00076C086E49AE00E948B2260911202709184
:100E00001302882777FD8095982F0E944F2686E44D
:100E10009AE00E94AD2280FFFACF6EE170E081E699
:100E20009AE00E942615E091610AF091620A019011
:100E3000F081E02D67E081E69AE0199581E69AE07D
:100E40000E9439156EE170E081E69AE00E94261555
:100E500042E050E06EE170E081E69AE00E941A15EF
:100E600081E69AE00E946E14892BD1F381E69AE024
:100E70000E947614F82E81E69AE00E94761481E6AC
:100E80009AE00E943915F7FE03C08FEF9FEF02C072
:100E900081E090E0209101073091020782179307CB
:100EA000E1F090930207809301072097B1F020E0D2
:100EB00030E040E85FE36091FD067091FE068091AE
:100EC000FF06909100070E94412B6093FD067093EE
:100ED000FE068093FF0690930007219661CF20E0E5
:100EE00030E040E05FE36091FD067091FE06809186
:100EF000FF06909100070E94F82CA70196010E941E
:100F0000A92B6093FD067093FE068093FF069093D5
:100F10000007DF91CF91FF90EF90DF90CF90BF90CF
:100F2000AF909F908F900895CF93DF9360E177E229
:100F300080E090E00E944F2626E040E051EE60E025
:100F400070E082E49BE00E94272A67E272E082E47C
:100F50009BE00E942F2782E49BE00E94A229C1E02F
:100F6000D0E080910A0290910B028C179D0754F0FB
:100F7000BE0160587F4F4FEF81E29BE00E94C8198D
:100F80002196EFCF62E870E081E29BE00E94C519F4
:100F90008370833031F463E070E08BE097E00E946F
:100FA000D31D6DE870E081E29BE00E94C51983705B
:100FB000833061F460E088E30E94272560E089E3E4
:100FC0000E94272560E089E30E94602569E870E0BF
:100FD00081E29BE00E94C5198370833051F464E381
:100FE00072E082E49BE00E942F270E947B1C80E33A
:100FF00088B96EE870E081E29BE00E94C5198370B9
:10100000833031F565E472E082E49BE00E942F2793
:1010100061E081E10E94272561E081E10E94602575
:1010200061E080E10E94272560E080E10E94602568
:1010300060E08AE30E94272561E08AE30E94602540
:1010400060E08BE30E94272561E08BE30E9460252E
:1010500066E870E081E29BE00E94C51983708330EE
:1010600049F465E572E082E49BE00E942F2737DDBA
:101070008093820966E672E082E49BE00E942F275B
:1010800080917A00846080937A0080917A008D7FCD
:1010900080937A0080917A008E7F80937A0062E953
:1010A00070E081E29BE00E94C5198370833051F4A7
:1010B0006EE672E082E49BE00E942F2788EF96E0C4
:1010C0000E94BF2363E970E081E29BE00E94C519A2
:1010D0008370833031F46FE772E082E49BE00E941A
:1010E0002F2761E970E081E29BE00E94C5198370BF
:1010F000833081F460E972E082E49BE00E942F2754
:1011000086E49AE00E944C2286E49AE0DF91CF9137
:101110000C948B22DF91CF91089565EA72E082E40E
:101120009BE00E942F2782E49BE00E94A22969E8AD
:1011300070E081E29BE00E94C51983708330C1F5A5
:101140006CEA72E082E49BE00E94242780917A0797
:1011500090917B07019731F1809178079091790701
:10116000019701F180917607909177070197D1F06F
:1011700066EB72E082E49BE00E94242740917C07AA
:1011800050917D0760917E0770917F0722E030E0EB
:1011900082E49BE00E94062964EB72E082E49BE01B
:1011A0000E94242766EC72E082E49BE00E942F27D5
:1011B0006EE870E081E29BE00E94C5198370833085
:1011C000E9F46CEA72E082E49BE00E9424278091BB
:1011D0009309882369F06FEC72E082E49BE00E943F
:1011E000242758D864EB72E082E49BE00E94242715
:1011F00066EC72E082E49BE00E942F276DE870E0CD
:1012000081E29BE00E94C51983708330B1F56CEADE
:1012100072E082E49BE00E94242720E030EC49E762
:1012200054EC60911207709113078091140790910C
:1012300015070E94A52B8823D1F061EE72E082E4AD
:101240009BE00E9424274091120750911307609160
:1012500014077091150722E030E082E49BE00E94C1
:10126000062964EB72E082E49BE00E94242766EC8E
:1012700072E082E49BE00E942F2762E870E081E246
:101280009BE00E94C5198370833009F061C06CEA4D
:1012900072E082E49BE00E94242720E030EC49E7E2
:1012A00054EC6091070770910807809109079091AD
:1012B0000A070E94A52B882309F444C020E030ECE3
:1012C00049E754EC6091030770910407809105078A
:1012D000909106070E94A52B8823A1F16FEE72E082
:1012E00082E49BE00E942427409107075091080761
:1012F0006091090770910A0722E030E082E49BE0E8
:101300000E94062964EB72E082E49BE00E9424279D
:101310006EEF72E082E49BE00E9424274091030775
:1013200050910407609105077091060722E030E0B4
:1013300082E49BE00E94062964EB72E082E49BE079
:101340000E94242766EC72E082E49BE00E942F2733
:1013500066E870E081E29BE00E94C51983708330EB
:1013600009F079C06CEA72E082E49BE00E942427D5
:1013700080918209882309F468C06EE073E082E4FA
:101380009BE00E94242740918F0950919009609121
:1013900091097091920922E030E082E49BE00E9482
:1013A000062964EB72E082E49BE00E94242763E25A
:1013B00073E082E49BE00E94242740918B095091C6
:1013C0008C0960918D0970918E0922E030E082E4F1
:1013D0009BE00E94062964EB72E082E49BE00E949D
:1013E000242768E373E082E49BE00E942427409175
:1013F0008709509188096091890970918A0922E0D2
:1014000030E082E49BE00E94062964EB72E082E413
:101410009BE00E9424276DE473E082E49BE00E943D
:101420002427409183095091840960918509709126
:10143000860922E030E082E49BE00E94062964EB0A
:1014400072E082E49BE00E94242766EC72E082E472
:101450009BE00E942F2760E970E081E29BE00E9400
:10146000C5198370833011F56CEA72E082E49BE069
:101470000E94242764E673E082E49BE00E94242714
:1014800060917407709175074AE050E082E49BE038
:101490000E94DD2764EB72E082E49BE00E94242737
:1014A00066EC72E082E49BE00E942F276BE870E01C
:1014B00081E29BE00E94C5198370833011F56CEACC
:1014C00072E082E49BE00E9424276CE773E082E4F0
:1014D0009BE00E94242760914C0770914D074AE0E1
:1014E00050E082E49BE00E94DD2764EB72E082E43E
:1014F0009BE00E94242766EC72E082E49BE00E945D
:101500002F2767E870E081E29BE00E94C519837095
:10151000833009F062C06CEA72E082E49BE00E94D2
:10152000242762E973E082E49BE00E942427609113
:101530001E0770911F0780E090E00E94422C20E07F
:1015400038EF4FE756E40E94A92B20E030E045E257
:1015500053E40E94F82C20E030E040E252E40E9484
:10156000402BAB01BC0122E030E082E49BE00E9412
:10157000062964EB72E082E49BE00E94242762EA81
:1015800073E082E49BE00E94242760911C07709125
:101590001D0780E090E00E94422C20E030E048EC03
:1015A00052E40E94F82C20E038EF4FE756E40E9406
:1015B000A92BAB01BC0122E030E082E49BE00E9459
:1015C000062964EB72E082E49BE00E94242766EC2B
:1015D00072E082E49BE00E942F2765E870E081E2E0
:1015E0009BE00E94C5198370833009F040C06CEA0B
:1015F00072E082E49BE00E94242762EB73E082E4C5
:101600009BE00E94242740917007509171076091E0
:1016100072077091730722E030E082E49BE00E9441
:10162000062964EB72E082E49BE00E9424276FEBC2
:1016300073E082E49BE00E94242740916C07509164
:101640006D0760916E0770916F0722E030E082E4D1
:101650009BE00E94062964EB72E082E49BE00E941A
:10166000242766EC72E082E49BE00E942F2768E862
:1016700070E081E29BE00E94C5198370833031F5F0
:101680006CEA72E082E49BE00E9424276CEC73E039
:1016900082E49BE00E942427409135075091360751
:1016A000609137077091380722E030E082E49BE0D8
:1016B0000E94062964EB72E082E49BE00E942427EA
:1016C00066EC72E082E49BE00E942F2763E870E002
:1016D00081E29BE00E94C5198370833009F046C007
:1016E0006CEA72E082E49BE00E9424278091260746
:1016F00090912707892BA1F56BED73E082E49BE0C5
:101700000E94242740912C0750912D0760912E07AD
:1017100070912F0722E030E082E49BE00E940629CE
:1017200064EB72E082E49BE00E94242768EE73E0A1
:1017300082E49BE00E9424274091280750912907CA
:1017400060912A0770912B0722E030E082E49BE051
:101750000E94062964EB72E082E49BE00E94242749
:1017600066EC72E082E49BE00E942F2764E870E060
:1017700081E29BE00E94C5198370833061F56CEAB9
:1017800072E082E49BE00E942427809120079091E0
:101790002107892BD1F065EF73E082E49BE00E9482
:1017A00024274091220750912307609124077091CC
:1017B000250722E030E082E49BE00E94062964EBEA
:1017C00072E082E49BE00E94242766EC72E082E4EF
:1017D0009BE00E942F2761E870E081E29BE00E947D
:1017E000C5198370833009F040C06CEA72E082E46E
:1017F0009BE00E94242763E074E082E49BE00E9467
:10180000242740915F0750916007609161077091B4
:10181000620722E030E082E49BE00E94062964EB4C
:1018200072E082E49BE00E94242760E174E082E49D
:101830009BE00E94242740915B0750915C076091D8
:101840005D0770915E0722E030E082E49BE00E9439
:10185000062964EB72E082E49BE00E94242766EC98
:1018600072E082E49BE00E942F276FE870E081E243
:101870009BE00E94C5198370833011F56CEA72E019
:1018800082E49BE00E9424276DE174E082E49BE007
:101890000E94242760918E0770918F074AE050E0E4
:1018A00082E49BE00E94DD2764EB72E082E49BE02F
:1018B0000E94242766EC72E082E49BE00E942F27BE
:1018C0006AE870E081E29BE00E94C5198370833072
:1018D00011F56CEA72E082E49BE00E9424276EE23C
:1018E00074E082E49BE00E9424276091500770918D
:1018F00051074AE050E082E49BE00E94DD2764EB60
:1019000072E082E49BE00E94242766EC72E082E4AD
:101910009BE00E942F276CE870E081E29BE00E9430
:10192000C5198370833011F56CEA72E082E49BE0A4
:101930000E9424276CE374E082E49BE00E94242749
:1019400060914E0770914F074AE050E082E49BE0BF
:101950000E94DD2764EB72E082E49BE00E94242772
:1019600066EC72E082E49BE00E942F2761E970E060
:1019700081E29BE00E94C5198370833031F56CEAE7
:1019800072E082E49BE00E94242762E574E082E436
:101990009BE00E9424274091F9065091FA0660913D
:1019A000FB067091FC0622E030E082E49BE00E949E
:1019B000062964EB72E082E49BE00E94242766EC37
:1019C00072E082E49BE00E942F2762E970E081E2EE
:1019D0009BE00E94C5198370833009F040C06CEA17
:1019E00072E082E49BE00E94242763E674E082E4D4
:1019F0009BE00E9424274091F0065091F1066091EF
:101A0000F2067091F30621E030E082E49BE00E9450
:101A1000062964EB72E082E49BE00E9424276FE6D3
:101A200074E082E49BE00E9424274091F4065091E8
:101A3000F5066091F6067091F70621E030E082E449
:101A40009BE00E94062964EB72E082E49BE00E9426
:101A5000242766EC72E082E49BE00E942F2763E972
:101A600070E081E29BE00E94C5198370833009F029
:101A70005AC06CEA72E082E49BE00E9424276BE784
:101A800074E082E49BE00E9424274091360A509142
:101A9000370A6091380A7091390A22E030E082E416
:101AA0009BE00E94062964EB72E082E49BE00E94C6
:101AB000242769E874E082E49BE00E942427409197
:101AC0003A0A50913B0A60913C0A70913D0A22E02B
:101AD00030E082E49BE00E94062964EB72E082E43D
:101AE0009BE00E94242767E974E082E49BE00E9467
:101AF000242740913E0A50913F0A6091400A70911C
:101B0000410A22E030E082E49BE00E94062964EB77
:101B100072E082E49BE00E94242766EC72E082E49B
:101B20009BE00C942F2708951F93CF93DF9365EAD2
:101B300074E082E49BE00E942F276EE870E081E26F
:101B40009BE00E94C5198370833071F460EC74E0EF
:101B500082E49BE00E942F2782E49BE00E94A2295E
:101B60000E94CB018093930965E870E081E29BE0DD
:101B70000E94C5198370833009F046C06EEC74E092
:101B800082E49BE00E942F2782E49BE00E94A2292E
:101B900021E04AE657E060E083E697E00E94231CDC
:101BA0008093690760916A0770916B0783E697E0FD
:101BB0000E94EA1A6093700770937107809372070E
:101BC0009093730721E04AE657E061E083E697E0EF
:101BD0000E94231C80936907209170073091710740
:101BE000409172075091730760916A0770916B077B
:101BF00083E697E00E94051B60936C0770936D0766
:101C000080936E0790936F0761E870E081E29BE03C
:101C10000E94C5198370833009F046C065ED74E0F9
:101C200082E49BE00E942F2782E49BE00E94A2298D
:101C300021E049E557E060E082E597E00E94231C3F
:101C4000809358076091590770915A0782E597E091
:101C50000E94EA1A60935F077093600780936107A0
:101C60009093620721E049E557E061E082E597E063
:101C70000E94231C8093580720915F0730916007D2
:101C800040916107509162076091590770915A071E
:101C900082E597E00E94051B60935B0770935C07E9
:101CA00080935D0790935E076AE870E081E29BE0B5
:101CB0000E94C5198370833089F46BED74E082E46F
:101CC0009BE00E942F2782E49BE00E94A2298CE3E4
:101CD0000E94BD25909351078093500760E970E002
:101CE00081E29BE00E94C5198370833089F467EE1E
:101CF00074E082E49BE00E942F2782E49BE00E9434
:101D0000A22989E30E94BD259093750780937407EB
:101D100062E970E081E29BE00E94C5198370833024
:101D200011F56EEE74E082E49BE00E942F2782E4BE
:101D30009BE00E94A22988EF96E00E9461246093B4
:101D4000F0067093F1068093F2069093F30688EF05
:101D500096E00E94EF236093F4067093F50680935B
:101D6000F6069093F7066FE870E081E29BE00E9430
:101D7000C5198370833089F465EF74E082E49BE0D9
:101D80000E942F2782E49BE00E94A22988E30E9400
:101D9000BD2590938F0780938E076BE870E081E2FA
:101DA0009BE00E94C5198370833089F46DEF74E065
:101DB00082E49BE00E942F2782E49BE00E94A229FC
:101DC00080E00E94BD2590934D0780934C0768E802
:101DD00070E081E29BE00E94C51983708330A1F41A
:101DE0006AE075E082E49BE00E942F2782E49BE09A
:101DF0000E94A2290E94C50560933507709336079B
:101E000080933707909338076DE870E081E29BE09C
:101E10000E94C51983708330B1F462E175E082E4F9
:101E20009BE00E942F2782E49BE00E94A22986E18A
:101E300097E00E94F2186093120770931307809343
:101E400014079093150763E870E081E29BE00E941D
:101E5000C5198370833091F469E175E082E49BE0F9
:101E60000E942F2782E49BE00E94A22968E088E27A
:101E700097E0D8D4909327078093260762E870E014
:101E800081E29BE00E94C51983708330B1F46FE159
:101E900075E082E49BE00E942F2782E49BE00E9491
:101EA000A22963E077E08BE097E00E94E31E67E001
:101EB00077E08BE097E00E944B1E64E870E081E2DF
:101EC0009BE00E94C5198370833009F050C066E220
:101ED00075E082E49BE00E942F2782E49BE00E9451
:101EE000A22942E050E068E470E081E69AE0A2D5E1
:101EF00090E09093210780932007892B61F181E680
:101F00009AE0F4D4182F81E69AE0F0D4D12F90E033
:101F1000C92FC82BA4E0D595C795AA95E1F7BE01B6
:101F2000882777FD8095982F0E94442C26E636E678
:101F300046EE5DE30E94F82C20E030E040E052E401
:101F40000E94412B609322077093230780932407FC
:101F5000909325070CC080E090ECA9E7B4EC809347
:101F6000220790932307A0932407B093250767E8DF
:101F700070E081E29BE00E94C5198370833099F480
:101F80006DE275E082E49BE00E942F2782E49BE0F3
:101F90000E94A22987E197E093D787E197E0CED707
:101FA00087E197E09ED769E870E081E29BE00E94BC
:101FB000C5198370833009F088C065E375E082E459
:101FC0009BE00E942F2782E49BE00E94A22980913F
:101FD00018020E94811C90E090937B0780937A07FF
:101FE00087E00E94B61C90E0909379078093780771
:101FF000809118028F5F0E94AD1C90E0909377074C
:10200000809376070E94CE1C90E090938D0780937A
:102010008C070E94CE1C90E090938B0780938A07D8
:102020000E94DE1C90E0909389078093880760915E
:102030008A0770918B076F777727762F66278091B5
:102040008C0790918D07680F791F882777FD809501
:10205000982F0E94442C2091140230911502409137
:102060001602509117020E94F82C2AE037ED43E245
:102070005CE30E94402B60938407709385078093F4
:1020800086079093870723E333E948E853E40E94E7
:10209000402B609380077093810780938207909311
:1020A000830726E636E646EE5FE30E94F82C20E042
:1020B00030E040E052E40E94412B60937C07709333
:1020C0007D0780937E0790937F0763E970E081E24C
:1020D0009BE00E94C5198370833081F46EE375E044
:1020E00082E49BE00E942F2782E49BE00E94A229C9
:1020F00062E27AE086E49AE00E943A23CEE1D0E000
:102100000E947E0666E475E082E49BE00E942F2731
:1021100082E49BE00E94A22960911A0270911B0246
:10212000882777FD8095982F0E944F2665E575E0FA
:1021300082E49BE00E942F2782E49BE00E94A22978
:102140002197F1F661E970E081E29BE00E94C519F8
:102150008370833081F56DE972E082E49BE00E9438
:102160002F276BE575E082E49BE00E9424276091B5
:102170000C0270910D02882777FD8095982F0E94A0
:10218000442C20910E0230910F0240911002509188
:1021900011020E94F82CAB01BC0122E030E082E485
:1021A0009BE00E94072982E49BE00E94A2290E94F2
:1021B000BF060E944A0666E870E081E29BE00E944A
:1021C000C51983708330E1F46EE675E082E49BE02C
:1021D0000E942F276BE575E082E49BE00E94242794
:1021E00060919007709191074AE050E082E49BE093
:1021F0000E941B2882E49BE00E94A2290E94760292
:1022000068EC72E082E49BE00E94242782E49BE079
:102210000E94A2290E948D0882E49BE00E94A229CC
:102220006CE870E081E29BE00E94C5198370833006
:1022300071F466E775E082E49BE00E942F2782E458
:102240009BE00E94A22910924F0710924E0766E869
:1022500070E081E29BE00E94C5198370833009F031
:102260004EC06EE675E082E49BE00E942F2782E478
:102270009BE00E94A2291092910710929007109261
:102280008F09109290091092910910929209109260
:102290008B0910928C0910928D0910928E09109260
:1022A0008709109288091092890910928A09109260
:1022B0008309109284091092850910928609109260
:1022C0009E0710929F071092A0071092A1071092EC
:1022D0009A0710929B0710929C0710929D071092EC
:1022E00096071092970710929807109299071092EC
:1022F000920710929307109294071092950782E428
:102300009BE0DF91CF911F910C94A2291F93CF9353
:10231000DF93EC0160E08A850E9427251EE71150BB
:1023200041F182E090E00E9474268A850E94952502
:10233000892BA9F360E08A850E94602561E08A8587
:102340000E94272584EF91E00E94742660E08A8530
:102350000E94272581E490E00E9474268A850E94CD
:10236000952511E0892B09F010E08AEE91E00E949A
:102370007426812FDF91CF911F9108950F931F93A2
:10238000CF93DF93EC01E989FA8980819C85892BC1
:102390008083ED85FE8590818C858095892380835F
:1023A000062F017010E0F801E058FA4F808190E0AC
:1023B0000E947426ED85FE8580819C85892B808313
:1023C000F801E258FA4F808190E0DF91CF911F91A0
:1023D0000F910C947426CF93DF93EC01E989FA896D
:1023E00080819C85892B8083ED85FE8590818C85FD
:1023F00080958923808381E090E00E947426E9899A
:10240000FA8990818C8580958923808385E090E08E
:102410000E947426EF85F88990818C859823C1E00D
:1024200009F4C0E082E390E00E9474268C2FDF91D3
:10243000CF910895CF92DF92EF92FF920F931F9367
:10244000CF93DF931F92CDB7DEB76C01E62E08E085
:1024500010E0FF24F39461E09F2D9E2109F460E0D9
:10246000C60149838BDFFF0C015011094981011519
:10247000110589F7411113C060E0F60182850E94C1
:10248000272560E0F60182850F90DF91CF911F91A3
:102490000F91FF90EF90DF90CF900C9460250F90FC
:1024A000DF91CF911F910F91FF90EF90DF90CF9030
:1024B0000895EF92FF920F931F93CF93DF938C01B8
:1024C000C8E0D0E0F12CEE24E394C80184DF811150
:1024D000FE28EE0C2197C9F78F2DDF91CF911F9128
:1024E0000F91FF90EF900895CF92DF92EF92FF92BD
:1024F0000F931F93CF93DF931F92CDB7DEB77C016D
:10250000162F40E065E5798395DFC12E7981D72EBE
:1025100000E010E0F60161916F0140E0C7018ADF41
:102520000F5F1F4F08301105A9F70F90DF91CF9172
:102530001F910F91FF90EF90DF90CF900895FC01D5
:102540008FEF80871186178216821582148213827C
:102550001282118210820895DC011A966C931A97E8
:1025600070E0FB01EC56FE4FE4911B96EC931B9739
:10257000FB01E25BFE4F64911C966C931C971B96CB
:102580008C911B9790E0880F991FFC01EC50FE4F37
:10259000259134911E963C932E931D97FC01E65293
:1025A000FE4F2591349150963C932E931F97825F56
:1025B0009D4FFC018591949152969C938E935197D7
:1025C000CD01BDCF8F929F92AF92BF92CF92DF92FB
:1025D000EF92FF920F931F93CF93DF931F92CDB78C
:1025E000DEB74C016B01DC0119968C91882311F048
:1025F00080E070C0C4018ADE8823D1F340E060EF40
:10260000C40118DF00E010E0AA24A394BB24BA940C
:10261000EE24E394F12CC401DEDE682FC40169834B
:10262000DADE702F769576957695202F2770F70154
:1026300002C0EE0FFF1F2A95E2F79F016981662312
:1026400019F0882329F1D4CFE72FF0E0811127C0BA
:10265000D40118964C911897552747FD50950417AB
:10266000150719F41896BC9209C0D4010417150770
:102670003CF4AE0FBF1F8C91822321F091E004C087
:1026800018960C9390E0A12CB02E992341F061E0B4
:10269000F401E70FF11D8081822B808306C0E80DD5
:1026A000F91D2095808128232083C40167DE0F5FF8
:1026B0001F4F0034110509F0AECFAA2019F081E0B8
:1026C000F4018187D401F60188E09D9191938150B6
:1026D000E1F781E00F90DF91CF911F910F91FF9073
:1026E000EF90DF90CF90BF90AF909F908F90089524
:1026F000282FFC0180E09E2F921B961738F4A191A1
:10270000A827B0E0AE57BA4F8C91F5CF08958F92BD
:102710009F92AF92BF92CF92DF92EF92FF920F9370
:102720001F93CF93DF93EC01B62E188619861A8675
:102730001B861C8661E08B2D0E94272560E08B2D77
:102740000E94602564E170E080E090E00E944F26E6
:1027500061E08B2D0E94602588E290E00E94742643
:1027600060E08B2D0E94272500E117E28B2D0E944F
:102770009525892B31F401501109C1F78EEF9FEF98
:1027800044C000E117E28B2D0E949525019721F4AA
:1027900001501109C1F7F2CF98E2992E812C20E85F
:1027A000A22E00E117E28B2D0E949525892B21F4A2
:1027B00001501109C1F7E2CF0E942C266B017C0168
:1027C00000E117E28B2D0E949525019721F401501D
:1027D0001109C1F7D3CF0E942C266C197D098E09EF
:1027E0009F09693271058105910530F0FE01E80D00
:1027F000F11D80858A298087A69419F4839480E846
:10280000A82E9A9471F680E090E0DF91CF911F910D
:102810000F91FF90EF90DF90CF90BF90AF909F907F
:102820008F900895CF93DF93EC0171DF009769F0EB
:1028300040E050EC69E774EC488359836A837B83FA
:102840004C835D836E837F8346C0698588850E9443
:10285000E126BC0180E090E00E94422C2DEC3CEC93
:102860004CEC5DE30E94F82C688379838A839B8318
:102870008A856B8587FF0DC08F770E94E126BC019A
:1028800080E090E00E94422C2DEC3CEC4CEC5DEBA7
:102890000BC00E94E126BC0180E090E00E94422C27
:1028A0002DEC3CEC4CEC5DE30E94F82C6C837D83BA
:1028B0008E839F8329858885280F8A85280F8B859D
:1028C000280F81E090E03C85321302C080E090E068
:1028D000919581959109DF91CF9108958091910A09
:1028E00090E02091920A821B910908952091920A0A
:1028F0008091910A281750F4E22FF0E0ED56F54F41
:10290000808190E02F5F2093920A08958FEF9FEFD0
:102910000895E091920A8091910AE81730F4F0E06E
:10292000ED56F54F808190E008958FEF9FEF089569
:102930000895CF92DF92EF92FF920F931F93CF9360
:10294000DF937C01CB018A0120916D0A222389F05B
:10295000EB016B01C40ED51ECC15DD0561F069914C
:10296000D701ED91FC910190F081E02DC7011995FF
:10297000F3CF642F41D1C801DF91CF911F910F9107
:10298000FF90EF90DF90CF900895CF93DF931F9249
:10299000CDB7DEB7698320916D0A2223D1F0209153
:1029A0006E0A203240F021E030E0FC0133832283C4
:1029B00080E090E014C080916F0AE82FF0E0E059C9
:1029C000F54F998190838F5F80936F0A80936E0A91
:1029D00004C061E0CE0101960FD181E090E00F903C
:1029E000DF91CF910895FC011382128248EE53E0EB
:1029F00060E070E0448355836683778386E896E0E1
:102A00009183808308951092920A1092910A1092F5
:102A10006F0A10926E0A32C0862F413208F040E2EF
:102A200063E97AE049D01092920A8093910A08955E
:102A300021E0F2CF21E0F0CF81E080936D0A609336
:102A4000900A10926F0A10926E0A0895F5CF0F93B4
:102A5000062F21E040916E0A60E77AE08091900AAB
:102A600078D010926F0A10926E0A10926D0A0F9130
:102A7000089561E0ECCF81E69AE0B5CF1092200B8B
:102A800081E080931E0B10921D0B61E084E10E9497
:102A9000602561E085E10E946025E9EBF0E080813E
:102AA0008E7F808380818D7F808388E48093B800CF
:102AB00085E48093BC000895413240F4E9EBFBE0EB
:102AC0009091200B992321F03197D1F780E0089560
:102AD00091E09093200B20931E0B2FEF2093B30ACD
:102AE0001092F80A240F2093F70A90931F0B9091ED
:102AF0001F0B880F892B80931F0B80911D0B81303A
:102B000041F410921D0B80911F0B8093BB0085EC4C
:102B100001C085EE8093BC0029EB3BE08091200B47
:102B2000813021F421503109C9F7D0CF8091F80AC2
:102B3000841710F44091F80A29EF3AE0FB01D9011B
:102B40008A2F821B841718F48D918193F9CF842FDB
:102B500008950F93413208F046C09091200B9111D7
:102B6000FCCF92E09093200B00931E0B9FEF90936D
:102B7000B30A1092F80A4093F70AFB0169EF7AE072
:102B8000DB019A2F961B941718F491919D93F9CF1E
:102B900010921F0B90911F0B880F892B80931F0B96
:102BA00080911D0B813041F410921D0B80911F0B01
:102BB0008093BB0085EC01C085EE8093BC0022238E
:102BC00021F08091200B8230E1F38091B30A8F3F96
:102BD00061F08091B30A803251F08091B30A803362
:102BE00041F483E007C081E005C080E003C082E0DB
:102BF00001C084E00F910895613298F42091200B78
:102C0000243089F46093D50AFC0187ED9AE0DC0159
:102C10002A2F281B261718F421912D93F9CF80E035
:102C2000089581E0089582E0089585ED8093BC00C9
:102C30008091BC0084FDFCCF1092200B089585ECA0
:102C40008093BC001092200B08951F920F920FB634
:102C50000F9211240BB60F922F933F934F935F93D4
:102C60006F937F938F939F93AF93BF93EF93FF9354
:102C70008091B900887F803609F49CC068F588325D
:102C800009F45BC090F4803109F454C038F488230F
:102C900009F4F3C0883009F44DC0F2C0883109F45A
:102CA0004CC0803209F45DC0EBC0803409F468C0C8
:102CB00048F4803309F455C0883309F0E1C08093AB
:102CC000B30AA7C0803509F44FC0883509F45DC048
:102CD000883409F0D5C0D3C0883909F4C4C0A8F439
:102CE000883709F467C038F4883609F463C0803740
:102CF00009F460C0C5C0883809F4B5C0803909F44A
:102D00005FC0803809F0BCC05BC0803B09F483C061
:102D100038F4803A09F466C0883A09F47CC0B0C03F
:102D2000803C09F4A4C0883C09F4A1C0883B09F4A4
:102D300087C0A6C080911F0B10C09091F80A8091A7
:102D4000F70A981770F5E091F80A81E08E0F8093EA
:102D5000F80AF0E0E750F54F80818093BB0085ECE6
:102D600083C08093B30A8BC0E091F80A81E08E0F94
:102D70008093F80A8091BB00F0E0E750F54F808324
:102D80009091F80A8091F70A6BC0E091F80A81E00F
:102D90008E0F8093F80A8091BB00F0E0E750F54F6A
:102DA000808380911E0B81116AC081E080931D0B8E
:102DB00084EA5EC083E08093200B1092B40ACFCFE8
:102DC0008091B40A803208F04EC0E091B40A81E0EC
:102DD0008E0F8093B40A8091BB00F0E0EB54F54F66
:102DE0008083BDCF8091B40A803230F4E091B40A80
:102DF000F0E0EB54F54F108218DF6091B40A70E0F8
:102E0000E091190BF0911A0B85EB9AE0199510924D
:102E1000B40A15DF35C084E08093200B1092D60AE7
:102E20001092D50AE0911B0BF0911C0B1995809123
:102E3000D50A811105C081E08093D50A1092D70A86
:102E4000E091D60A81E08E0F8093D60AF0E0E95235
:102E5000F54F80818093BB009091D60A8091D50A6E
:102E6000981708F47CCF85E88093BC0009C085ECF6
:102E70008093BC001092200B03C01092B30AD5DEE1
:102E8000FF91EF91BF91AF919F918F917F916F9142
:102E90005F914F913F912F910F900BBE0F900FBEFE
:102EA0000F901F9018952BEA36E0FC0131832083A8
:102EB00008952BEA36E0FC01318320830C94172916
:102EC000CF93DF93EC018B818F3F19F061E00E947B
:102ED00060258C818068807F8C8380E0DF91CF913A
:102EE0000895CF93DF93EC018B818F3F19F060E061
:102EF0000E9460258C8180778C8380E0DF91CF9168
:102F00000895CF93DF93EC01842F2BEA36E03983C9
:102F100028836A834B831C821E821D8218861F822F
:102F20004F3F49F060E00E94602561E08B81DF91B6
:102F3000CF910C942725DF91CF910895EF92FF92C6
:102F40000F931F93CF93DF93EC018C8187FD05C016
:102F5000807F83608C8383E07FC06A8181E69AE012
:102F60006BDD81E69AE085DDE82EF12CE114F104B9
:102F700009F060C06AE070E080E090E00E944F26B7
:102F800044E06A8181E69AE053DD811106C062E97E
:102F900076E082E49BE00E942F2781E69AE09EDCA7
:102FA000892B09F441C081E69AE0A0DC7C0181E62E
:102FB0009AE09CDC97013327A90166E05595479577
:102FC0006A95E1F74130510511F14230510519F18F
:102FD000452B81F6322F2227282B3E832D8381E635
:102FE0009AE084DCF82E81E69AE080DC1F2D00E078
:102FF000082B169507951695079518870F8381E678
:103000009AE037DD8C81807F8C8380E025C081E66B
:103010009AE02FDDAFCF81E69AE02BDD8C81807FB7
:1030200084608C8384E018C08C81807F82608C8374
:1030300082E012C06CEB74E082E49BE00E942427E3
:103040004AE050E0B70182E49BE00E94E4278C81D3
:10305000807F81608C8381E0DF91CF911F910F9100
:10306000FF90EF9008951F93CF93DF93EB014836C5
:10307000F1F080F4413309F45DC0413609F44FC0EA
:10308000403309F067C0DC01ED91FC910680F781C7
:10309000E02D56C0443709F1453709F449C040379F
:1030A00009F058C04AE050E0FC0163813DC0DC01FA
:1030B00015966D917C91169780E090E00E94422CCD
:1030C00020E030E048EC52E40E94F82C20E038EF99
:1030D0004FE756E40E94A92B19C0FC016781708557
:1030E00080E090E00E94422C20E038EF4FE756E469
:1030F0000E94A92B20E030E045E253E40E94F82C26
:1031000020E030E040E252E40E94402BAB01BC01E1
:1031100022E030E0CE010E94072980E022C04AE090
:1031200050E0DC0112966C91CE010E940628F5CF8A
:1031300005DF07C0DC01ED91FC910480F581E02DF5
:103140001995182F4AE050E0682FCE010E940628FA
:10315000812F07C04AE050E06EEFCE010E940628A2
:103160008EEFDF91CF911F91089561E088E30E9477
:10317000272560E088E30E94602561E089E30E94E2
:10318000272561E089E30E94602581E69AE03BCC37
:1031900041E050E06AE270E081E69AE04BDC88238F
:1031A00051F081E69AE09ADB18161906D4F781E609
:1031B0009AE09CCB089589E10895CF93C62F6AE2E7
:1031C00070E081E69AE042DC6C2F81E69AE0DDDB7C
:1031D00081E69AE04EDC68E070E080E090E0CF911C
:1031E0000C944F264F925F926F927F929F92AF9274
:1031F000BF92CF92DF92EF92FF920F931F93CF93E4
:10320000DF93EC0160E0D9DFCE01C2DF982E60E1F0
:10321000CE01D3DFCE01BCDFC82FD0E084E0D5954E
:10322000C7958A95E1F7C0FBEE24E0F8F12CB701D1
:10323000882777FD8095982F0E94442C20E030E06D
:1032400040E05FE30E94F82C6B017C019B01AC0124
:103250000E94F82CA70196010E94F82CA701960164
:103260000E94F82C20E030E0A9010E94412B6B0164
:103270007C01D595C795C0FBAA24A0F8B12CB50157
:10328000882777FD8095982F0E94442C20E030E01D
:1032900040E05FE30E94F82C2B013C019B01AC0154
:1032A0000E94F82CA30192010E94F82C9B01AC0112
:1032B000C701B6010E94412B6B017C01D595C795D2
:1032C0000C2F017010E0B801882777FD8095982FAA
:1032D0000E94442C20E030E040E05FE30E94F82CA4
:1032E0009B01AC010E94F82C9B01AC01C701B60107
:1032F0000E94412B6B017C01BE0175956795882763
:1033000077FD8095982F0E94442C20E030E040E02B
:103310005FE30E94F82C9B01AC01C701B6010E943B
:10332000412B6B017C01692D70E080E090E00E94F0
:10333000442C9B01AC01C701B6010E94412B6B01DB
:103340007C0120E030E040E053E40E94F42C1816A9
:1033500054F420E030E040E853E4C701B6010E9495
:10336000402B6B017C01C701B601DF91CF911F910A
:103370000F91FF90EF90DF90CF90BF90AF909F9014
:103380007F906F905F904F900895CB010C94622FC7
:10339000CB01642F0C946A2FFF920F931F93CF934E
:1033A000DF93EC01F62E61E088810E94272518E06A
:1033B00000E8602F6F2188810E94602581E090E005
:1033C0000E94742661E089810E94602583E090E07C
:1033D0000E94742660E089810E94602581E090E06F
:1033E0000E9474260695115021F760E088810E94A2
:1033F000272561E088810E94602561E089810E9423
:10340000602583E090E00E94742688810E949525C3
:103410008C0181E090E00E94742660E089810E9426
:10342000602581E0012B09F480E0DF91CF911F91AD
:103430000F91FF900895DF92EF92FF920F931F93E9
:10344000CF93DF93EC01D62E88E0F82EE12C61E0DB
:1034500089810E94602581E090E00E947426888125
:103460000E949525EE0C8C010E29E02E60E08981EA
:103470000E94602581E090E00E947426FA9439F75A
:1034800061E088810E94272561E06D2588810E9486
:10349000602581E090E00E94742661E089810E94AD
:1034A000602583E090E00E94742660E089810E949C
:1034B000602581E090E00E94742660E088810E948F
:1034C000272561E088810E946025802FDF91CF91C0
:1034D0001F910F91FF90EF90DF900895CF93DF93AE
:1034E000EC0161E088810E94602561E088810E9492
:1034F000272581E090E00E94742661E089810E9486
:10350000602581E090E00E94742660E088810E943E
:10351000602581E090E00E94742660E089810E942D
:10352000602583E090E00E94742661E089810E941A
:10353000602581E090E00E94742661E088810E940D
:10354000602581E090E00E94742660E089810E94FD
:10355000602581E090E0DF91CF910C9474261F9359
:10356000CF93DF93EC0161E088810E94602561E0E8
:1035700088810E94272583E090E00E94742619E04C
:1035800061E089810E94602583E090E00E947426BA
:1035900060E089810E94602583E090E00E947426AB
:1035A000115071F7CE01DF91CF911F9197CFCF933B
:1035B000DF93EC01842F688349831B821A821C826B
:1035C00061E00E942725CE01CADF6EE1CE01DF91C6
:1035D000CF91E2CEFC01248180E090E020FF07C083
:1035E0000E94422C2AE037ED43E25DE306C00E94D0
:1035F000422C2AE037ED43E25CE30E94F82C26E6F9
:1036000036E640E252E40C94402B4F925F926F9268
:103610007F928F929F92AF92BF92CF92DF92EF9262
:10362000FF9249015A01FC01248180E090E020FFD3
:1036300035C00E94422C6B017C012DEB32E546E146
:103640005FE30E94F82C25EC3EEF42E050E40E943C
:10365000402B2B013C012BE335E246ED59EBC70132
:10366000B6010E94F82CA70196010E94F82C9B013C
:10367000AC01C301B2010E94412B2B013C0120E0AF
:1036800030E048EC51E4C501B4010E94402B4B01ED
:103690005C012CEA35EC47EA5AE334C00E94422C24
:1036A0006B017C012DEB32E546E15DE30E94F82CD5
:1036B00025EC3EEF42E050E40E94402B2B013C0100
:1036C00026EF34E246ED55EBC701B6010E94F82C17
:1036D000A70196010E94F82C9B01AC01C301B20125
:1036E0000E94412B2B013C0120E030E048EC51E4EA
:1036F000C501B4010E94402B4B015C012CEA35EC62
:1037000047EA58E3C701B6010E94F82C2AE037EDDA
:1037100043E25CE30E94412B9B01AC01C501B40173
:103720000E94F82CA30192010E94412B6B017C01A5
:1037300020E030E048EC52E40E94F42C181694F09B
:103740002DEC3CEC4CEC5DE3C701B6010E94A52BCF
:1037500087FF0EC09DECC92E9CECD92EED2C9DE36D
:10376000F92E06C0C12CD12C28ECE22E22E4F22E38
:10377000C701B601FF90EF90DF90CF90BF90AF9060
:103780009F908F907F906F905F904F900895FA0177
:1037900080818627808388E021E3908197FF03C0A2
:1037A000990F922701C0990F90838150B1F7089526
:1037B00098E080E0262F2170880F822B669591502B
:1037C000C9F70895DF92EF92FF920F931F93CF9363
:1037D000DF93EC018B0161E02EDED82E7E0185E0C7
:1037E000E80EF11CA7016D2DCE01D1DF8D2D90E0EB
:1037F000F8019183808361E0CE011DDED82EA70100
:10380000682FCE01C4DF20E030E0F80130812D299F
:103810003183208360E0CE010EDE682FCE01C8DF49
:103820009D81891739F08FEF9FEFF8019183808395
:1038300082E001C080E0DF91CF911F910F91FF9056
:10384000EF90DF900895CF92DF92EF92FF920F9367
:103850001F93CF93DF931F92CDB7DEB76C01E62E97
:103860008A01F22EFC0164816770A2DFF601858374
:10387000C60134DEE11002C033E001C035E0632F41
:10388000C601398389DD398181112BC0A6014B5FC7
:103890005F4F632FC6017BDFFF20F9F030EFF32E7F
:1038A000F60180810E949525892B49F0FA9499F0C0
:1038B00063E070E080E090E00E944F26F1CFB80115
:1038C000C6010F90DF91CF911F910F91FF90EF9064
:1038D000DF90CF9077CF83E004C0F601138302839B
:1038E00080E00F90DF91CF911F910F91FF90EF90AB
:1038F000DF90CF9008951092B90088E98093B800C6
:10390000089594EA9093BC0029EE33E09091BC00B6
:1039100097FD05C021503109C9F781E008959091C4
:10392000B900987F983011F09031B9F78093BB00BF
:1039300084E88093BC0089EE93E02091BC0027FDD1
:1039400003C00197D1F7E9CF8091B900887F883112
:1039500011F0803411F780E00895D3CF84E980938B
:10396000BC008091BC0084FDFCCF08958093BB0017
:1039700084E88093BC0089EE93E02091BC0027FD91
:1039800004C00197D1F781E008C09091B900987FF9
:1039900081E0983211F480E00895089584EC8093DA
:1039A000BC0089EE93E02091BC0027FD04C0019784
:1039B000D1F789E108958091BB00089584E8809350
:1039C000BC0089EE93E02091BC0027FD04C0019764
:1039D000D1F789E108958091BB00089508950F9370
:1039E0001F93CF93DF938C01EB0188E2FB011192CF
:1039F0008A95E9F74BE050E065EB76E0CE010E9456
:103A0000532F1B8641E050E060E070E04C875D87FB
:103A10006E877F87F8014381548165817681488B69
:103A2000598B6A8B7B8B46E050E060E070E04C8BFA
:103A30005D8B6E8B7F8B1CA21DA21EA21FA240E07D
:103A400050E066E973E4488F598F6A8F7B8F40E0BE
:103A500050E869E874E44C8F5D8F6E8F7F8F4AE089
:103A600057ED63E27CE348A359A36AA37BA3DF91EC
:103A7000CF911F910F91089520EC36E0FC01318326
:103A8000208343835483658376830895CF93C82F1F
:103A900067E781E69AE00E941C1564EF81E69AE0F0
:103AA0000E94C5146C2F81E69AE00E94C51481E63D
:103AB0009AE0CF910C9439151F93CF93DF93182F71
:103AC000EB0167E781E69AE00E941C15612F81E611
:103AD0009AE00E94C51481E69AE00E94391541E0FF
:103AE00067E781E69AE00E941815882329F081E6AD
:103AF0009AE00E94761401C089E1888381E69AE009
:103B0000DF91CF911F910C9439151F93CF93DF93C1
:103B1000182FEB0167E781E69AE00E941C15612FE0
:103B200081E69AE00E94C51481E69AE00E94391568
:103B300042E067E781E69AE00E941815882379F051
:103B400081E69AE00E947614182F81E69AE00E949E
:103B5000761420E030E0312F822B932B02C089E1D4
:103B60009CEF9983888381E69AE0DF91CF911F9142
:103B70000C9439150F931F93CF93DF931F921F92CD
:103B8000CDB7DEB78B01BE016F5F7F4FBEDF89818E
:103B90009A81F801918380830F900F90DF91CF91EC
:103BA0001F910F9108950F931F93CF93DF931F924F
:103BB000CDB7DEB78B0181E69AE00E940315BE0106
:103BC0006F5F7F4F80ED78DF8981853509F036C0E2
:103BD000C8010430110510F083E090E08093220BBF
:103BE00063E27BE08AEAC6DF65E27BE08CEAC2DF63
:103BF00067E27BE08EEABEDF69E27BE080EB85DF97
:103C00006BE27BE082EB81DF6DE27BE084EB7DDFCA
:103C10006FE27BE086EBAEDF61E37BE088EBAADF5F
:103C200063E37BE08AEBA6DF65E37BE08CEBA2DF5E
:103C300067E37BE08EEB9EDF81E001C080E00F90C8
:103C4000DF91CF911F910F9108950F931F93CF9301
:103C5000DF931F921F92CDB7DEB78C018EE216DF85
:103C600065E070E080E090E00E944F26BE016F5F4B
:103C70007F4F86EF4ADF49815A8160E070E0F801AA
:103C800040835183628373830F900F90DF91CF91B4
:103C90001F910F9108958F929F92AF92BF92CF92F2
:103CA000DF92EF92FF920F931F93CF93DF9300D099
:103CB0001F92CDB7DEB78B01CE010196C6DF898199
:103CC0009A81AB81BC8189312CEF92072FEFA2073B
:103CD000B20709F45EC020912D0B30912E0B6C01C0
:103CE0007D01C21AD30AE108F108A7019601A0914B
:103CF0002B0BB0912C0B0E94092E0E94442C20E02B
:103D000030E040E058E30E94F82C0E94112C6B0137
:103D10007C016091350B7091360B882777FD80957B
:103D2000982F0E94442C20E030E040E055E40E94AF
:103D3000F82C4B015C018091370B9091380BBC0142
:103D4000882777FD8095982F6C0D7D1D8E1D9F1DFA
:103D50000E94442C9B01AC01C501B4010E94A92B17
:103D60000E94112C6C0D7D1D8E1D9F1D685F7F4F65
:103D70008F4F9F4F0E94442C20E030E040E85DE3ED
:103D80000E94F82C20E030E040E251E40E94A92B90
:103D900004C060E070EC89E794ECF8016083718303
:103DA000828393830F900F900F900F90DF91CF91AC
:103DB0001F910F91FF90EF90DF90CF90BF90AF9049
:103DC0009F908F9008953F924F925F926F927F9253
:103DD0008F929F92AF92BF92CF92DF92EF92FF921B
:103DE0000F931F93CF93DF93CDB7DEB72F970FB607
:103DF000F894DEBF0FBECDBF8B0119821A821B82E1
:103E00001C82CE01019621DF8091220B8295880FC2
:103E1000880F807C8C5C3ADE8091220B813069F0C7
:103E200038F0823079F46EE070E080E090E00EC00F
:103E300065E070E080E090E009C068E070E080E05C
:103E400090E004C06AE170E080E090E028D7BE0115
:103E50006B5F7F4F86EF59DECD80DE8029E1C21691
:103E60002CEFD206F1F0E12CF12CFE2CED2CDC2C09
:103E7000CC24BE01695F7F4F88EF1EDE8F81C80EA4
:103E8000D11CE11CF11C2091220B88E090E0821BE8
:103E9000910904C0F594E794D794C7948A95D2F712
:103EA00006C069E1C62E6CEFD62EE12CF12C89817B
:103EB0009A81AB81BC818931ECEF9E07EFEFAE07B1
:103EC000BE0709F45CC1F9E1CF16FCEFDF06FFEF96
:103ED000EF06FF0609F453C120912D0B30912E0BF4
:103EE0004C015D01821A930AA108B108A501940151
:103EF000A0912B0BB0912C0B0E94092E0E94442CF8
:103F000020E030E040E058E30E94F82C0E94112CA1
:103F10002B013C016091350B7091360B882777FDA2
:103F20008095982F0E94442C20E030E040E055E43A
:103F30000E94F82C0E94112C2091370B3091380BE5
:103F4000442737FD4095542F240D351D461D571D20
:103F50000E94E72D49015A01840C951CA61CB71C30
:103F6000D501C401805A9F40A109B109888799876A
:103F7000AA87BB879C01AD01BC01CD010E94B62D73
:103F80002B013C01FCE07594679457944794FA9593
:103F9000D1F7E091230BF091240B3090220BA091EC
:103FA000270BB091280B0E94132E4B015C01ADE052
:103FB000B594A79497948794AA95D1F7A0912F0BC5
:103FC000B091300BA30192010E94132EBB2797FDE5
:103FD000B095AB2F880E991EAA1EBB1E92E0890ECB
:103FE000911CA11CB11C82E0B594A794979487946E
:103FF0008A95D1F7A0E89A0EA11CB11CA091290BBB
:10400000B0912A0BA50194010E94092E4B015C017D
:104010009FE0B694A794979487949A95D1F78C864D
:104020009D86AE86BF864F01AA2497FCA094BA2C29
:1040300022E0880C991CAA1CBB1C2A95D1F7A091E0
:10404000310BB091320BA30192010E94132E2B0170
:104050003C013BE075946794579447943A95D1F7A7
:10406000A091250BB091260B288539854A855B8563
:104070000E94132E4BE095958795779567954A9505
:10408000D1F7460E571E681E791E840C951CA61C7F
:10409000B71C032C04C0880C991CAA1CBB1C0A94D6
:1040A000D2F722E0820E911CA11CB11C52E0B59403
:1040B000A794979487945A95D1F7A7019601281948
:1040C00039094A095B0960E573EC80E090E004C0BF
:1040D00095958795779567953A94D2F70E94B62D76
:1040E00097FD0DC0660F771F881F991F2C853D8592
:1040F0004E855F850E94C52D49015A010CC02C8553
:104100003D854E855F850E94C52D49015A01880C69
:10411000991CAA1CBB1C9927B7FC9A958B2D7A2D4C
:10412000692D9B01AC010E94B62D9B01AC01AEED47
:10413000BBE00E94092E6C01FF24D7FCF094EF2C09
:10414000A3E4B3EEA50194010E94152EBB2797FDB1
:10415000B095AB2FC80ED91EEA1EFB1E8FECC80E01
:104160008EE0D81EE11CF11C44E0F594E794D7944E
:10417000C7944A95D1F7C80CD91CEA1CFB1CC7018F
:10418000B6010E94442CD8016D937D938D939C932E
:1041900013972F960FB6F894DEBF0FBECDBFDF91F9
:1041A000CF911F910F91FF90EF90DF90CF90BF9034
:1041B000AF909F908F907F906F905F904F903F90C7
:1041C00008950F931F93CF93DF9300D01F92CDB725
:1041D000DEB78B0124E2FB0111922A95E9F744E254
:1041E00050E060E070E0F8014083518362837383A4
:1041F000FC014381548165817681F80144835583B4
:104200006683778346E050E060E070E04087518746
:1042100062877387108A118A128A138ABE016F5FC0
:104220007F4FD1DD20E030E048EC52E469817A81B3
:104230008B819C810E94A92BF801648B758B868BE6
:10424000978B0F900F900F900F90DF91CF911F9150
:104250000F9108950F931F93CF93DF938C01EB0180
:1042600088E2FB0111928A95E9F74BE050E06EE39A
:1042700075E0CE010E94532F1B8641E050E060E0C4
:1042800070E04C875D876E877F87F8014589568986
:104290006789708D488B598B6A8B7B8B42E050E02D
:1042A00060E070E04C8B5D8B6E8B7F8B1CA21DA23F
:1042B0001EA21FA240E050E068E474E4488F598FCA
:1042C0006A8F7B8F40E050E068E474EC4C8F5D8F28
:1042D0006E8F7F8F4DEC5CEC6CE47EE348A359A3BA
:1042E0006AA37BA3DF91CF911F910F9108952AECD0
:1042F00036E0FC0131832083458B568B678B708FB2
:104300000895CF93DF931F921F92CDB7DEB781E65A
:104310009AE02A8349830E941C154981642F81E613
:104320009AE00E94C5142A81622F81E69AE00E94D9
:10433000C51481E69AE00F900F90DF91CF910C9415
:1043400039150F931F93CF93DF938C01EB01262F29
:1043500041E06EE1D6DFF801D483C383C038D105D4
:1043600009F45BC0DCF4C034D105A9F1C036D10535
:1043700009F442C0A09709F08AC080E090E8A9E85B
:10438000B4E48093200290932102A0932202B09380
:10439000230280E090E0A5E7B4E471C0C03CD10501
:1043A00009F44CC0C03ED10509F459C0C03AD1054A
:1043B00009F06DC080E090E0A8ECB3E480932002A7
:1043C00090932102A0932202B093230280E090E018
:1043D000AFE7B3E454C080E090ECA5E5B4E480938B
:1043E000200290932102A0932202B093230280E046
:1043F00090E0AEE3B4E443C080E090E8A7E2B4E428
:104400008093200290932102A0932202B093230272
:1044100080E090E0A6E1B4E432C080E090E0A1EE5C
:10442000B3E48093200290932102A0932202B093E0
:10443000230280E090E0A8ECB3E421C080E090E0AB
:10444000A5EAB3E48093200290932102A093220274
:10445000B093230280E090E8A3E9B3E410C080E0C9
:1044600090E0A6E6B3E48093200290932102A0930B
:104470002202B093230280E090E0ADE4B3E48093A5
:104480001C0290931D02A0931E02B0931F02DF91A5
:10449000CF911F910F910895CF93DF93EC0181E6A7
:1044A0009AE00E94031520E042E06EE1CE0129DF90
:1044B00060E270E0CE0145DF81E0DF91CF910895A9
:1044C0001F93CF93DF931F92CDB7DEB7162F81E6F0
:1044D0009AE049830E941C154981642F81E69AE085
:1044E0000E94C51481E69AE00E94391541E0612FCF
:1044F00081E69AE00E94181581E69AE00E947614FF
:10450000182F81E69AE00E943915812F0F90DF91D4
:10451000CF911F910895CF93DF93EC0142E06EE1BC
:10452000CFDF282F2C7F216042E06EE1CE01DF91AA
:10453000CF91E7CE1F93CF93DF93EC01162F49E085
:104540006EE1BEDF282F2E7F1170212B49E06EE136
:10455000CE01DF91CF911F91D4CE49E06EE1B0CF73
:104560006F927F928F929F92AF92BF92CF92DF9283
:10457000EF92FF920F931F93CF93DF93EC016EE1C5
:1045800081E69AE00E941C15E091610AF091620AAE
:104590000190F081E02D63E081E69AE0199581E6D3
:1045A0009AE00E94391546E06EE181E69AE00E94A9
:1045B000181581E69AE00E946E140697D4F381E6FE
:1045C0009AE00E947614682E81E69AE00E947614A2
:1045D000782E81E69AE00E947614C82E81E69AE051
:1045E0000E947614D82E81E69AE00E947614882ED6
:1045F00081E69AE00E947614982EB62CA12CA7286A
:10460000B501882777FD8095982F0E94442C6D83F3
:104610007E838F839887F82CE12CE928B7018827BF
:1046200077FD8095982F0E94442C69877A878B8725
:104630009C871C2D00E00D29B801882777FD809507
:10464000982F0E94442C6D877E878F87988B198ABC
:104650001A8A1B8A1C8ADF91CF911F910F91FF90BC
:10466000EF90DF90CF90BF90AF909F908F907F9012
:104670006F900895CF92DF92EF92FF920F931F9366
:10468000CF93DF938C01EB0184E2FB0111928A95B9
:10469000E9F7C80165DF84E290E0A0E0B0E088833C
:1046A0009983AA83BB83F80185899689A789B08DF0
:1046B0008C839D83AE83BF8382E090E0A0E0B0E076
:1046C00088879987AA87BB87188A198A1A8A1B8ABA
:1046D000C0902002D0902102E0902202F0902302AC
:1046E000A701960165817681878190850E94A92B1B
:1046F00020E030E048EC52E40E94F82C6C8B7D8B7B
:104700008E8B9F8BA7019601F80161857285838549
:1047100094850E94A92B20E030E048EC52E40E94EE
:10472000F82C688F798F8A8F9B8F20911C02309193
:104730001D0240911E0250911F02F8016585768589
:10474000878590890E94A92B20E030E048EC52E454
:104750000E94F82C6C8F7D8F8E8F9F8FDF91CF9171
:104760001F910F91FF90EF90DF90CF900895DC01A3
:10477000ED91FC910190F081E02D1994089581E66E
:104780009AE00C94031508950F931F93CB01A0E0BA
:10479000B0E0BA2FA92F982F8827842BE7E1F0E00B
:1047A00040E050E868E970E08C019D010E2E04C0E5
:1047B00036952795179507950A94D2F700FF04C000
:1047C00084279527A627B727769567955795479508
:1047D0003197E730F10541F71F910F910895EF925E
:1047E000FF920F931F93CF93DF937C0160E470E0FF
:1047F00081E69AE00E94261565EF70E081E69AE076
:10480000B6DF81E69AE00E94391567E370E080E048
:1048100090E045D243E050E060E470E081E69AE049
:104820000E941A1505E610E081E69AE00E946E14D7
:1048300003976CF461E070E080E090E030D20150CA
:10484000110991F760E070E889E794E433C081E6EC
:104850009AE00E947614082F81E69AE00E9476146E
:10486000182F81E69AE00E947614D02F90E0C92F8D
:10487000C12B482FBE01C70187DF811117C0BE01C0
:104880006C7F80E090E0FED720E030E040E857E326
:104890000E94F82C20E030E04AEF52E40E94F82C0D
:1048A00020E030E040EC50E4EBD604C060E070EC77
:1048B00089E794E4DF91CF911F910F91FF90EF90E2
:1048C0000895EF92FF920F931F93CF93DF937C0194
:1048D00060E470E081E69AE00E94261563EF70E0E4
:1048E00081E69AE044DF81E69AE00E94391567E3A9
:1048F00070E080E090E0D3D143E050E060E470E00D
:1049000081E69AE00E941A1505E610E081E69AE039
:104910000E946E1403976CF461E070E080E090E018
:10492000BED10150110991F760E070E889E794E485
:1049300033C081E69AE00E947614082F81E69AE05F
:104940000E947614182F81E69AE00E947614D02FE8
:1049500090E0C92FC12B482FBE01C70115DF81117F
:1049600017C0BE016C7F80E090E08CD720E030E083
:1049700040E857E30E94F82C22E538EB4FE253E47D
:104980000E94F82C26E636E64BE352E479D604C0C2
:1049900060E070EC89E794E4DF91CF911F910F9173
:1049A000FF90EF90089590E0FC013197E231F1051E
:1049B00008F04CC0EE58FF4F0C94032E80918000FD
:1049C0008F7703C0809180008F7D80938000089551
:1049D00080918000877FF9CF84B58F7702C084B53E
:1049E0008F7D84BD08958091B0008F7703C0809142
:1049F000B0008F7D8093B0000895809190008F77F4
:104A000007C0809190008F7D03C080919000877FC8
:104A10008093900008958091A0008F7707C08091C7
:104A2000A0008F7D03C08091A000877F8093A000AD
:104A30000895809120018F7707C0809120018F7D9C
:104A400003C080912001877F809320010895CF9338
:104A5000DF9390E0FC01E25BFE4F2491FC01EC56F9
:104A6000FE4F8491882349F190E0880F991FFC0143
:104A7000E25FFD4FA591B4918C509E4FFC01C59112
:104A8000D4919FB7611108C0F8948C91209582232E
:104A90008C93888182230AC0623051F4F8948C91FF
:104AA000322F309583238C938881822B888304C096
:104AB000F8948C91822B8C939FBFDF91CF910895B6
:104AC0000F931F93CF93DF931F92CDB7DEB7282F9D
:104AD00030E0F901E85FFE4F8491F901E25BFE4F9F
:104AE0001491F901EC56FE4F04910023C1F0882384
:104AF00019F0698358DF6981E02FF0E0EE0FFF1FA6
:104B0000EC50FE4FA591B4919FB7F8948C91611130
:104B100003C01095812301C0812B8C939FBF0F9000
:104B2000DF91CF911F910F910895CF93DF93282F9D
:104B300030E0F901E85FFE4F8491F901E25BFE4F3E
:104B4000D491F901EC56FE4FC491CC2389F0811128
:104B50002ADFEC2FF0E0EE0FFF1FE652FE4FA5918B
:104B6000B4912C912D2381E090E021F480E002C0EB
:104B700080E090E0DF91CF910895863308F086536E
:104B800020917B00982F9870277F922B90937B0029
:104B900087702091240290E4299F90011124822B98
:104BA00080937C0080917A00806480937A00809169
:104BB0007A0086FDFCCF809178002091790090E00A
:104BC000922B08951F920F920FB60F9211242F93DC
:104BD0003F938F939F93AF93BF9380913A0B9091A4
:104BE0003B0BA0913C0BB0913D0B3091390B23E076
:104BF000230F2D3720F40196A11DB11D05C026E815
:104C0000230F0296A11DB11D2093390B80933A0BFF
:104C100090933B0BA0933C0BB0933D0B80913E0BCC
:104C200090913F0BA091400BB091410B0196A11DBB
:104C3000B11D80933E0B90933F0BA093400BB0931C
:104C4000410BBF91AF919F918F913F912F910F9009
:104C50000FBE0F901F9018953FB7F89480913E0BB0
:104C600090913F0BA091400BB091410B26B5A89BB2
:104C700005C02F3F19F00196A11DB11D3FBF66274A
:104C8000782F892F9A2F620F711D811D911D42E08F
:104C9000660F771F881F991F4A95D1F70895CF9205
:104CA000DF92EF92FF92CF93DF936B017C01D4DF11
:104CB000EB01C114D104E104F10479F0E0D4CCDFBC
:104CC0006C1B7D0B683E7340A0F381E0C81AD108CD
:104CD000E108F108C851DC4FECCFDF91CF91FF9094
:104CE000EF90DF90CF9008958230910538F0880FD3
:104CF000991F880F991F05970197F1F708957894E8
:104D000084B5826084BD84B5816084BD85B58260D0
:104D100085BD85B5816085BDEEE6F0E0808181606E
:104D20008083E1E8F0E0108280818260808380816E
:104D300081608083E0E8F0E0808181608083E1EB46
:104D4000F0E0808184608083E0EBF0E0808181602E
:104D50008083E1E9F0E080818260808380818160EE
:104D60008083E0E9F0E0808181608083E1EAF0E027
:104D7000808182608083808181608083E0EAF0E0CE
:104D8000808181608083E1E2F1E0808182608083C4
:104D9000808181608083E0E2F1E0808181608083B6
:104DA000EAE7F0E080818460808380818260808394
:104DB0008081816080838081806880831092C100BF
:104DC000089570E09B01382BC9010895CF92DF92BE
:104DD000EF92FF920F931F93CF93DF936C017A01B1
:104DE000EB01E60EF71E00E010E0CE15DF0561F0E6
:104DF0006991D601ED91FC910190F081E02DC60101
:104E00001995080F191FF1CFC801DF91CF911F919C
:104E10000F91FF90EF90DF90CF900895611571058D
:104E200081F0DB010D900020E9F7AD0141505109FF
:104E3000461B570BDC01ED91FC910280F381E02DC4
:104E4000199480E090E00895E9CFDC01ED91FC91A8
:104E50000190F081E02D199460ED76E0DFCF0F93A3
:104E60001F93CF93DF93EC01D9DF8C01CE01F4DFE8
:104E7000800F911FDF91CF911F910F9108958F9215
:104E80009F92AF92BF92CF92DF92EF92FF920F93D9
:104E90001F93CF93DF93CDB7DEB7A1970FB6F894EA
:104EA000DEBF0FBECDBF7C01C42EE52FCB01D22EBD
:104EB00019A221E02D1510F02AE0D22E8E010F5DEF
:104EC0001F4F8D2C912CA12CB12C6C2D7E2FA50168
:104ED00094015BD68C2DD29E8019112401501109AA
:104EE0008A3014F4805D01C0895CF801808321154B
:104EF00031054105510521F0C22EE32FCA01E5CF4E
:104F0000B801C7018BDFA1960FB6F894DEBF0FBEC4
:104F1000CDBFDF91CF911F910F91FF90EF90DF9068
:104F2000CF90BF90AF909F908F900895CF92DF92D7
:104F3000EF92FF920F931F93CF93DF93EC016A01DF
:104F40007B012115310579F4E881F9810190F08127
:104F5000E02D642FDF91CF911F910F91FF90EF9083
:104F6000DF90CF9019942A303105D9F477FF18C01B
:104F70006DE26BDF8C0144275527BA014C195D099E
:104F80006E097F092AE0CE017ADF800F911FDF9141
:104F9000CF911F910F91FF90EF90DF90CF900895E8
:104FA0002AE0B701A601CE01DF91CF911F910F91A9
:104FB000FF90EF90DF90CF9062CF9A01AB01662710
:104FC00057FD6095762FB2CF0F931F93CF93DF934A
:104FD000EC019A01AB01662757FD6095762FA6DF9D
:104FE0008C01CE0139DF800F911FDF91CF911F918E
:104FF0000F9108952115310541F4DC01ED91FC91EB
:105000000190F081E02D642F199439CF0F931F93F5
:10501000CF93DF93EC019A01462F50E060E070E0FF
:10502000E9DF8C01CE0118DF800F911FDF91CF9156
:105030001F910F9108950F931F93CF93DF93EC016E
:105040009A01AB0160E070E0D5DF8C01CE0104DF96
:10505000800F911FDF91CF911F910F9108954F9273
:105060005F926F927F928F929F92AF92BF92CF92F8
:10507000DF92EF92FF920F931F93CF93DF93EC0198
:105080006A017B01B22E9A01AB01C701B60155D569
:10509000882319F063ED76E024C026013701E894F7
:1050A00077F82FEF3FEF4FE75FE7C301B20145D538
:1050B00081110CC02FEF3FEF4FE75FE7C301B20153
:1050C00044D318161CF467ED76E00BC02FEF3FEFCA
:1050D0004FE75FE4C701B60187D41816A4F46BED5F
:1050E00076E0CE01DF91CF911F910F91FF90EF906D
:1050F000DF90CF90BF90AF909F908F907F906F90F8
:105100005F904F908BCE2FEF3FEF4FE75FECC701E3
:10511000B6011BD387FDE3CF20E030E0A901C70132
:10512000B60113D387FF09C06DE2CE018EDE8C017C
:10513000F7FAF094F7F8F09402C000E010E0A12C28
:1051400060E070E080E09FE3AB1439F020E030E0F5
:1051500040E251E4FED2A394F7CF9B01AC01C7011A
:10516000B6018FD26B017C0161D32B013C018AD344
:105170009B01AC01C701B60183D26B017C012AE01F
:10518000B301A201CE017BDE080F191FBB2031F055
:105190006EEB74E0CE0142DE080F191F7B2C7720E6
:1051A00019F120E030E040E251E4C701B60120D41B
:1051B0006B017C0136D34B01AA2497FCA094BA2C36
:1051C0002AE030E0B501A401CE01B0DE080F191FBE
:1051D000C501B40159D39B01AC01C701B60150D23E
:1051E0006B017C017A94DBCFC801DF91CF911F91D5
:1051F0000F91FF90EF90DF90CF90BF90AF909F9076
:105200008F907F906F905F904F90089528CF0F936D
:105210001F93CF93DF93EC0122DF8C01CE011CDEC4
:10522000800F911FDF91CF911F910F910895ACC511
:10523000FC01818D228D90E0805C9F4F821B910943
:105240008F7399270895FC01918D828D981731F005
:10525000828DE80FF11D858D90E008958FEF9FEF0F
:105260000895FC01918D828D981761F0828DDF0188
:10527000A80FB11D5D968C91928D9F5F9F73928F49
:1052800090E008958FEF9FEF089583EF9AE2892BC6
:1052900039F080E090E0892B19F0A5D1811125C06B
:1052A00080E090E0892B41F080E090E0892B21F0B4
:1052B0000E94000081111CC080E090E0892B41F029
:1052C00080E090E0892B21F00E940000811113C042
:1052D00080E090E0892BA1F080E090E0892B81F0C4
:1052E0000E94000081110AC008950E940000D8CFDA
:1052F0000E940000E1CF0E940000EACF0C94000061
:105300000895FC01848DDF01A80FB11DA35ABF4F82
:105310002C91848D90E001968F739927848FA689B4
:10532000B7892C93A089B1898C9180648C93938DDB
:10533000848D981306C00288F389E02D80818F7DCB
:1053400080830895CF93DF93EC01888D8823C1F08B
:10535000EA89FB89808185FD05C0A889B9898C917E
:1053600086FD0EC00FB607FCF5CF808185FFF2CF1A
:10537000A889B9898C9185FFEDCFCE01C2DFE8CF36
:10538000DF91CF910895CF92DF92FF920F931F93F9
:10539000CF93DF931F92CDB7DEB76C0181E0D601CA
:1053A00058968C9358975B969C915B975C968C91E2
:1053B0005C97981307C05096ED91FC9151978081AE
:1053C00085FD2DC0F601038D10E00F5F1F4F0F7399
:1053D0001127F02EF601848DF81210C00FB607FCCD
:1053E000F9CFD6015096ED91FC915197808185FFC0
:1053F000F1CFC601698385DF6981ECCF838DE80F2A
:10540000F11DE35AFF4F6083D6015B960C935B97C7
:105410005296ED91FC915397808180620CC0D60129
:105420005696ED91FC91579760835096ED91FC91C3
:10543000519780818064808381E090E00F90DF91BC
:10544000CF911F910F91FF90DF90CF900895BF9261
:10545000CF92DF92EF92FF92CF93DF93EC016A013C
:105460007B01B22EE889F98982E08083411581EEC3
:1054700058076105710599F060E079E08DE390E0EF
:10548000A701960182D3215031094109510956954E
:10549000479537952795211580E1380790F0E889E1
:1054A000F989108260E874E88EE190E0A701960126
:1054B0006CD32150310941095109569547953795CB
:1054C0002795EC85FD853083EE85FF852083188E3A
:1054D000EC89FD89B082EA89FB89808180618083C3
:1054E000EA89FB89808188608083EA89FB898081E1
:1054F00080688083EA89FB8980818F7D8083DF914A
:10550000CF91FF90EF90DF90CF90BF9008950895D6
:10551000F6DBFDDF0E949407C5E4D9E20E94940DFA
:105520002097E1F3B2DEFACF1F920F920FB60F92DF
:1055300011240BB60F922F938F939F93EF93FF93AA
:10554000E091520BF091530B8081E091580BF09158
:10555000590B82FD12C0908180915B0B8F5F8F731E
:1055600020915C0B821751F0E0915B0BF0E0EE5B59
:10557000F44F958F80935B0B01C08081FF91EF9179
:105580009F918F912F910F900BBE0F900FBE0F9098
:105590001F9018951F920F920FB60F9211240BB601
:1055A0000F922F933F934F935F936F937F938F93BC
:1055B0009F93AF93BF93EF93FF9382E49BE0A1DEB1
:1055C000FF91EF91BF91AF919F918F917F916F91DB
:1055D0005F914F913F912F910F900BBE0F900FBE97
:1055E0000F901F90189582E49BE022DE21E0892B2A
:1055F00009F420E0822F08951092450B1092440B7D
:1056000088EE93E0A0E0B0E08093460B9093470BC8
:10561000A093480BB093490B83EE96E09093430B15
:105620008093420B85EC90E090934F0B80934E0B50
:1056300084EC90E09093510B8093500B80EC90E0C1
:105640009093530B8093520B81EC90E09093550B09
:105650008093540B82EC90E09093570B8093560B01
:1056600086EC90E09093590B8093580B10925B0B53
:1056700010925C0B10925D0B10925E0B08950895D2
:105680005058BB27AA270ED075C166D130F06BD118
:1056900020F031F49F3F11F41EF45BC10EF4E0954D
:1056A000E7FB51C1E92F77D180F3BA17620773077F
:1056B0008407950718F071F49EF58FC10EF4E095FC
:1056C0000B2EBA2FA02D0B01B90190010C01CA01BC
:1056D000A0011124FF27591B99F0593F50F4503E67
:1056E00068F11A16F040A22F232F342F4427585F59
:1056F000F3CF469537952795A795F0405395C9F771
:105700007EF41F16BA0B620B730B840BBAF0915028
:10571000A1F0FF0FBB1F661F771F881FC2F70EC0C7
:10572000BA0F621F731F841F48F48795779567959A
:10573000B795F7959E3F08F0B3CF9395880F08F083
:105740009927EE0F979587950895D9D008F481E0B1
:1057500008950CD00FC107D140F0FED030F021F4F5
:105760005F3F19F0F0C0511139C1F3C014D198F363
:105770009923C9F35523B1F3951B550BBB27AA27D2
:1057800062177307840738F09F5F5F4F220F331F44
:10579000441FAA1FA9F333D00E2E3AF0E0E830D010
:1057A00091505040E695001CCAF729D0FE2F27D013
:1057B000660F771F881FBB1F261737074807AB07E1
:1057C000B0E809F0BB0B802DBF01FF2793585F4F56
:1057D0002AF09E3F510568F0B6C000C15F3FECF370
:1057E000983EDCF3869577956795B795F7959F5F1B
:1057F000C9F7880F911D9695879597F90895E1E06F
:10580000660F771F881FBB1F621773078407BA07CD
:1058100020F0621B730B840BBA0BEE1F88F7E09528
:10582000089504D06894B111D9C00895BCD088F00F
:105830009F5790F0B92F9927B751A0F0D1F0660F7C
:10584000771F881F991F1AF0BA95C9F712C0B13097
:1058500081F0C3D0B1E00895C0C0672F782F8827AA
:10586000B85F39F0B93FCCF3869577956795B395D6
:10587000D9F73EF490958095709561957F4F8F4F45
:105880009F4F0895E89409C097FB3EF4909580954A
:10589000709561957F4F8F4F9F4F9923A9F0F92FF6
:1058A00096E9BB279395F695879577956795B79574
:1058B000F111F8CFFAF4BB0F11F460FF1BC06F5F5A
:1058C0007F4F8F4F9F4F16C0882311F096E911C06C
:1058D000772321F09EE8872F762F05C0662371F08D
:1058E00096E8862F70E060E02AF09A95660F771FA1
:1058F000881FDAF7880F9695879597F90895990F7D
:105900000008550FAA0BE0E8FEEF16161706E80789
:10591000F907C0F012161306E407F50798F0621BAA
:10592000730B840B950B39F40A2661F0232B242B7F
:10593000252B21F408950A2609F4A140A6958FEF9E
:10594000811D811D089597F99F6780E870E060E0F0
:1059500008959FEF80EC089500240A941616170608
:1059600018060906089500240A9412161306140650
:1059700005060895092E0394000C11F4882352F0B3
:10598000BB0F40F4BF2B11F460FF04C06F5F7F4F6B
:105990008F4F9F4F089557FD9058440F551F59F052
:1059A0005F3F71F04795880F97FB991F61F09F3F0C
:1059B00079F087950895121613061406551FF2CF35
:1059C0004695F1DF08C0161617061806991FF1CF85
:1059D00086957105610508940895E894BB276627AC
:1059E0007727CB0197F908958ADF08F48FEF0895A0
:1059F0000BD0C0CFB1DF28F0B6DF18F0952309F047
:105A0000A2CFA7CF1124EACFC6DFA0F3959FD1F391
:105A1000950F50E0551F629FF001729FBB27F00D5C
:105A2000B11D639FAA27F00DB11DAA1F649F6627B1
:105A3000B00DA11D661F829F2227B00DA11D621F00
:105A4000739FB00DA11D621F839FA00D611D221FBA
:105A5000749F3327A00D611D231F849F600D211D9E
:105A6000822F762F6A2F11249F5750408AF0E1F041
:105A700088234AF0EE0FFF1FBB1F661F771F881F8A
:105A800091505040A9F79E3F510570F05CCFA6CFD2
:105A90005F3FECF3983EDCF3869577956795B79575
:105AA000F795E7959F5FC1F7FE2B880F911D96959F
:105AB000879597F9089511F40EF44BCF42C073DF28
:105AC000D0F39923D9F3CEF39F57550B87FF47D0D7
:105AD0000024A0E640EA900180585695979528F456
