:100000000C94EE000C941F010C941F010C941F0122
:100010000C941F010C941F010C941F010C941F01E0
:100020000C941F010C941F010C9476100C94080F73
:100030000C941F010C941F010C941F010C941F01C0
:100040000C941F010C941F010C941F010C941F01B0
:100050000C941F010C941F010C941F010C94DA08DE
:100060000C941F010C941F010C941F010C941F0190
:100070000C941F010C941F010C941F010C941F0180
:100080000C941F010C941F010C941F010C941F0170
:100090000C94AD070C941F010C941F010C941F01CC
:1000A0000C941F010C941F010C941F010E0A110ADD
:1000B000000A040A0A0A320A320A320A150A190A1E
:1000C0001D0A230A270A320A2D0A07060504010021
:1000D000080A0B0C0D090000000200090F000003C4
:1000E0000401000C000000000000000000000000FF
:1000F0000000000000040802011040804010204071
:10010000804080080204018040201002011080100D
:1001100020404020040404040403040502020202F7
:100120000403020202020606060606060404020290
:1001300002040400000000250028002B002E0031DE
:100140000000000000240027002A002D00300008D5
:100150000B0002020201000904000001020200007B
:1001600005240010010524010101042402060524D0
:100170000600010705810310004009040100020A7E
:10018000000000070502024000000705830240004E
:100190000012010002EF02014041233780000101FB
:1001A00002030112010002000000404123378000D9
:1001B000010102030141726475696E6F204C4C436A
:1001C0000041726475696E6F204D6963726F00043F
:1001D0000309040094023804C306890B11241FBECE
:1001E000CFEFDAE0DEBFCDBF14BE88E10FB6F894E2
:1001F00080936000109260000FBE16E0A0E0B1E0B6
:10020000E4E6F4E202C005900D92A830B107D9F7F8
:1002100027E0A8E0B6E001C01D92A334B207E1F7E1
:1002200011E0CCEDD1E004C02297FE010E94F6114E
:10023000C43DD107C9F70E940F110C9430120C94E1
:10024000000061E08DE00E94330A61E089E00E94D5
:10025000330A61E080E00E94330A61E081E00E949D
:10026000330A61E084E00E94330A61E085E10E9484
:10027000330A61E086E00E94330A61E088E00E9470
:10028000330A61E08AE00E94330A61E08CE00E9458
:10029000330A60E085E00E94330A60E087E00E9454
:1002A000330A60E086E10E94330A60E08BE00E943E
:1002B000330A60E087E10C94330A68EE73E080E073
:1002C00090E00E9447090E94210168EE73E080E0FF
:1002D00090E00E94470940E052EC61E070E08CED54
:1002E00096E00E94830B83E196E00E94300668EE60
:1002F00073E080E090E00E94470941E061E081E125
:1003000096E00E94BC0388E096E00C94BB0360E09A
:1003100080E00E946C0A61E084E00E946C0A62E066
:1003200070E080E090E00E94470961E080E00E9478
:100330006C0A62E070E080E090E00E94470960E0B3
:1003400080E00E946C0A62E070E080E090E00C9433
:10035000470961E086E00C946C0A61E088E00C9447
:100360006C0A61E08AE00C946C0A61E08CE00C9409
:100370006C0A0E94870168EC70E080E090E00E94C7
:1003800047090E94A90168EC70E080E090E00E94BB
:1003900047090E94AD0168EC70E080E090E00E94A7
:1003A00047090E94B10168EC70E080E090E00E9493
:1003B00047090C94B5011F93CF93DF9369E076E072
:1003C00082E196E00E94B3046BE871E08CED96E068
:1003D0000E94BC0BC9E0D6E010E0699140E150E01A
:1003E0008CED96E00E94AB0C173031F069E871E0BB
:1003F0008CED96E00E94BC0B1F5F183071F76BEF1D
:1004000075E08CED96E0DF91CF911F910C94C90BB4
:1004100060EB72E08CED96E00E94BC0B82E10E94E2
:10042000C5094AE050E0BC018CED96E00E947E0CCC
:100430006CE28CED96E00E94BE0B40E060E081E152
:1004400096E00E94E70381E196E00E940604BC0169
:1004500085E0769567958A95E1F74AE050E08CED66
:1004600096E00E94B20C6CE28CED96E00E94BE0B0E
:1004700040E061E081E196E00E94E70381E196E0DF
:100480000E940604BC0195E0769567959A95E1F780
:100490004AE050E08CED96E00E94B20C6CE28CEDEC
:1004A00096E00E94BE0B40E062E081E196E00E948F
:1004B000E70381E196E00E940604BC0125E0769501
:1004C00067952A95E1F74AE050E08CED96E00E94AE
:1004D000B20C6CE28CED96E00E94BE0B40E063E053
:1004E00081E196E00E94E70381E196E00E94060424
:1004F000BC0135E0769567953A95E1F74AE050E022
:100500008CED96E00C94B80C63EC72E08CED96E008
:100510000E94BC0B0E949204AB01BC012AE030E0B7
:100520008CED96E00C94CE0C88E096E00C94BA0327
:100530000F931F93CF93DF938C01B80183E196E073
:100540000E944406E0911306F09114060190F08198
:10055000E02D60E083E196E0099560E083E196E0BC
:100560000E94460643E050E0B80183E196E00E9415
:10057000BD0683E196E00E949905892B39F464EF6A
:1005800071E080E090E00E944709D7CF83E196E0D8
:100590000E94A10583E196E00E94A105082F83E156
:1005A00096E00E94A105182F61E083E196E00E9489
:1005B00046060170D02F80E0C82FC12B44E0CC0F3D
:1005C000DD1F4A95E1F7CE01DF91CF911F910F9189
:1005D000089569E874E08CED96E00E94BC0B80E61B
:1005E00090E00E9498024AE050E0BC018CED96E059
:1005F0000E947E0C6BE38CED96E00E94BE0B65E0E2
:1006000070E080E090E00E94470982E690E00E945E
:1006100098024AE050E0BC018CED96E00E947E0C0E
:100620006CE28CED96E00E94BE0B65E070E080E02D
:1006300090E00E94470988E690E00E9498024AE014
:1006400050E0BC018CED96E00E947E0C6CE28CEDDB
:1006500096E00E94BE0B65E070E080E090E00E94B2
:1006600047098AE690E00E9498024AE050E0BC0107
:100670008CED96E00E947E0C6CE28CED96E00E9480
:10068000BE0B65E070E080E090E00E94470983E6E1
:1006900090E00E9498024AE050E0BC018CED96E0A8
:1006A0000E947E0C6CE28CED96E00E94BE0B65E031
:1006B00070E080E090E00E9447098BE690E00E94A5
:1006C00098024AE050E0BC018CED96E00C94860C58
:1006D0006EE974E08CED96E00E94C90B6091000118
:1006E00070910101CB01019690930101809300016B
:1006F0004AE050E08CED96E00E947E0C61ED74E0E3
:100700008CED96E00E94BC0B0E94DB016BEF75E064
:100710008CED96E00E94C90B0E94B9010E948402F0
:100720006BEF75E08CED96E00E94C90B0E94080209
:100730006BEF75E08CED96E00E94C90B0E94E90218
:1007400064ED74E08CED96E00E94C90B6BEF75E0F0
:100750008CED96E00E94C90B60E177E280E090E0CA
:100760000E944709DBCFDC01ED91FC910190F08103
:10077000E02D099408950895FC01611103C0411111
:1007800007C004C0623061F44230C1F488E61DC085
:10079000423011F489E619C04130C1F48AE615C02F
:1007A0006130A1F4411102C08CE60FC0423011F457
:1007B0008DE60BC0413051F48EE607C0411102C0F6
:1007C0008BE603C0413011F48FE680830895CF9308
:1007D000DF931F92CDB7DEB7486850E2659F900166
:1007E0001124422BFC01608183E196E049830E9441
:1007F0003A064981642F83E196E00E94F10583E186
:1008000096E00F90DF91CF910C94C0060F931F9349
:10081000CF93DF938C0160E570E080E090E00E9470
:10082000470943E0F801608183E196E00E94BA063F
:1008300083E196E00E94A105082F83E196E00E94E3
:10084000A105182F83E196E00E94A105D02FF0E0CA
:10085000CF2FCE01812BDF91CF911F910F91089562
:10086000982F92959F702AEF929F800D11240895E2
:1008700083E196E00C943006CF93DF93EC016FE6B2
:1008800070E083E196E00E94440660E083E196E038
:100890000E94F10583E196E00E94C00681113EC0EE
:1008A00047E050E06FE670E083E196E00E94BD060D
:1008B00083E196E00E94A1058F770E94300488832F
:1008C00083E196E00E94A1050E943004898383E1C0
:1008D00096E00E94A1058F7B0E9430048A8383E109
:1008E00096E00E94A105877C8B8383E196E00E94BD
:1008F000A1050E9430048C8383E196E00E94A1054B
:100900008F7D0E9430048D8383E196E00E94A105D3
:100910000E943004825E8E8381E001C080E0DF911E
:10092000CF910895CF93DF93CDB7DEB727970FB65A
:10093000F894DEBF0FBECDBFCE0101960E943C04ED
:10094000882329F0CE0101960E94DE0403C060E0F6
:1009500070E0CB0127960FB6F894DEBF0FBECDBF77
:10096000DF91CF9108950F931F93CF93DF938B0166
:1009700067E570E083E196E00E94440660EF70E076
:1009800083E196E00E94B30383E196E00E94C006F3
:1009900048E050E067E570E083E196E00E94BD0624
:1009A000E80118E083E196E00E94A10589931150C7
:1009B000C9F7DF91CF911F910F9108956F927F92A8
:1009C0008F929F92AF92BF92CF92DF92EF92FF925F
:1009D0000F931F93CF93DF93FC01C680AC2DB0E043
:1009E00020E833E341EE51E00E9409124B015C0123
:1009F00022EB37E06D01C4E6D0E000E911E0C90167
:100A0000825B97408C159D05DCF4C90183709927A2
:100A1000892B99F4C901BE010E94BE11892B31F4C2
:100A2000C901B8010E94BE11892B39F480E8880EF3
:100A300081E5981E81E0A81EB11C2F5F3F4FDFCFDC
:100A40006580712C8EE4C81A88EFD80AC60164E666
:100A500070E00E94BE118C01C60160E971E00E9445
:100A6000BE117C01C1E0D0E083E0C822DD24C615C0
:100A7000D7052CF5C230D10589F4C114D10471F425
:100A80000115110519F4E114F10441F480E8880E10
:100A90008BE3981E86E2A81EB11C0FC0DE01A45392
:100AA000BA4FAC91B0E020E831E541E050E00E945F
:100AB0000912860E971EA81EB91E2196D8CF418115
:100AC000228130E0A0E1BEE00E94FA116B017C01BE
:100AD000242F30E0ACE3B0E00E94FA11C60ED71E1E
:100AE000E81EF91E8081C80ED11CE11CF11CA481F6
:100AF000B0E0119720E831E541E050E00E94141287
:100B0000C60ED71EE81EF91EC80CD91CEA1CFB1C19
:100B1000C701B601DF91CF911F910F91FF90EF9028
:100B2000DF90CF90BF90AF909F908F907F906F900D
:100B300008958091430690E020914406821B91091C
:100B400008952091440680914306281750F4E22F1F
:100B5000F0E0EB5BF94F808190E02F5F209344063B
:100B600008958FEF9FEF0895E0914406809143062A
:100B7000E81730F4F0E0EB5BF94F808190E00895E6
:100B80008FEF9FEF08950895CF92DF92EF92FF923B
:100B90000F931F93CF93DF937C01CB018A012091A8
:100BA0001F06222389F0EB016B01C40ED51ECC1564
:100BB000DD0569F06991D701ED91FC910190F0811B
:100BC000E02DC7010995F3CF642F0E948407C80167
:100BD000DF91CF911F910F91FF90EF90DF90CF9019
:100BE0000895CF93DF931F92CDB7DEB7698320912D
:100BF0001F062223D1F020912006203240F021E070
:100C000030E0FC013383228380E090E015C08091C6
:100C10002106E82FF0E0EE5DF94F998190838F5F18
:100C2000809321068093200605C061E0CE010196E5
:100C30000E94840781E090E00F90DF91CF910895AA
:100C4000FC011382128248EE53E060E070E04483BE
:100C50005583668377838DED95E091838083089536
:100C6000109244061092430610922106109220061C
:100C70000C94C70681E080931F0660934206109291
:100C800021061092200608950C943A060F93062F21
:100C900021E04091200662E276E0809142060E94C7
:100CA0002D07109221061092200610921F060F9118
:100CB00008958F929F92AF92BF92CF92DF92EF9260
:100CC000FF920F931F93CF93DF93EC01F62ED42E58
:100CD00048015901EE2019F10E943A061E2D1430E8
:100CE00008F013E01150B8F0E881F98128E0129F74
:100CF000B0011124A501940104C05695479537957C
:100D000027956A95D2F7CA01B9010190F081E02DCB
:100D1000CE010995E7CF60E0CE010E9446064D2D39
:100D2000413208F040E22C2D65E476E08F2D0E94E0
:100D3000E5061092440680934306DF91CF911F9100
:100D40000F91FF90EF90DF90CF90BF90AF909F906A
:100D50008F900895CF92EF920F931F93C22EE12CA4
:100D600000E010E098010E9459061F910F91EF904A
:100D7000CF90089521E00C94AA0621E00C94AA06D5
:100D800061E00C94460683E196E00C9420061092F4
:100D9000D20681E08093D0061092CF0661E082E017
:100DA0000E946C0A61E083E00E946C0AE9EBF0E0CB
:100DB00080818E7F808380818D7F808388E4809393
:100DC000B80085E48093BC000895413208F043C028
:100DD0009091D2069111FCCF91E09093D20620938E
:100DE000D0062FEF209365061092AA06240F2093B9
:100DF000A9069093D1069091D106880F892B8093F4
:100E0000D1068091CF06813061F41092CF06809197
:100E1000D1068093BB008091BC0083FDF8CF85ECA8
:100E200001C085EE8093BC008091D2068130E1F351
:100E30008091AA06841710F44091AA062BEA36E0A6
:100E4000FB01D9018A2F821B841718F48D9181939D
:100E5000F9CF842F089580E008950F93413208F070
:100E60004AC09091D2069111FCCF92E09093D206A5
:100E70000093D0069FEF909365061092AA064093C8
:100E8000A906FB016BEA76E0DB019A2F961B94170B
:100E900018F491919D93F9CF1092D1069091D106BB
:100EA000880F892B8093D1068091CF06813061F421
:100EB0001092CF068091D1068093BB008091BC0038
:100EC00083FDF8CF85EC01C085EE8093BC00222322
:100ED00021F08091D2068230E1F3809165068F3F48
:100EE00061F080916506803251F080916506803313
:100EF00041F483E007C081E005C080E003C082E0E8
:100F000001C084E00F910895613298F42091D206D7
:100F1000243089F460938706FC0189E896E0DC01BF
:100F20002A2F281B261718F421912D93F9CF80E042
:100F3000089581E0089582E0089585ED8093BC00D6
:100F40008091BC0084FDFCCF1092D206089585EC00
:100F50008093BC001092D20608951F920F920FB694
:100F60000F9211242F933F934F935F936F937F932F
:100F70008F939F93AF93BF93EF93FF938091B900AB
:100F8000887F803609F49EC078F5883209F45DC008
:100F900090F4803109F456C038F4882309F4F5C080
:100FA000883009F44FC0F5C0883109F44EC0803252
:100FB00009F45FC0EEC0803409F46AC058F480338D
:100FC00009F457C0883309F0E4C0809365060E9495
:100FD000A707DFC0803509F44FC0883509F45DC02C
:100FE000883409F0D6C0D3C0883909F4C4C0A8F445
:100FF000883709F467C038F4883609F463C080374D
:1010000009F460C0C6C0883809F4B5C0803909F455
:101010005FC0803809F0BDC05BC0803B09F483C06D
:1010200038F4803A09F466C0883A09F47CC0B1C04B
:10103000803C09F4A4C0883C09F4A1C0883B09F4B1
:1010400087C0A7C08091D10610C09091AA06809158
:10105000A906981770F5E091AA0681E08E0F80939B
:10106000AA06F0E0E555F94F80818093BB0085EC3E
:1010700083C0809365068BC0E091AA0681E08E0F45
:101080008093AA068091BB00F0E0E555F94F80837C
:101090009091AA068091A9066BC0E091AA0681E012
:1010A0008E0F8093AA068091BB00F0E0E555F94FC2
:1010B00080838091D00681116AC081E08093CF0641
:1010C00084EA5EC083E08093D20610926606CFCF9A
:1010D00080916606803208F04EC0E091660681E09D
:1010E0008E0F809366068091BB00F0E0E959F94FBE
:1010F0008083BDCF0E94A70780916606803230F4BE
:10110000E0916606F0E0E959F94F108260916606B9
:1011100070E0E091CB06F091CC0687E696E0099569
:101120001092660636C084E08093D206109288063C
:1011300010928706E091CD06F091CE060995809138
:101140008706811105C081E0809387061092890689
:10115000E091880681E08E0F80938806F0E0E757E3
:10116000F94F80818093BB0090918806809187061B
:10117000981708F47CCF85E88093BC000AC085EC02
:101180008093BC001092D20604C0109265060E94A3
:101190009D07FF91EF91BF91AF919F918F917F91AB
:1011A0006F915F914F913F912F910F900FBE0F90D4
:1011B0001F9018951F920F920FB60F9211242F9324
:1011C0003F938F939F93AF93BF938091D406909159
:1011D000D506A091D606B091D7063091D30623E06C
:1011E000230F2D3720F40196A11DB11D05C026E85F
:1011F000230F0296A11DB11D2093D3068093D40620
:101200009093D506A093D606B093D7068091D806C2
:101210009091D906A091DA06B091DB060196A11D46
:10122000B11D8093D8069093D906A093DA06B093A7
:10123000DB06BF91AF919F918F913F912F910F90BE
:101240000FBE0F901F9018953FB7F8948091D80665
:101250009091D906A091DA06B091DB0626B5A89B3D
:1012600005C02F3F19F00196A11DB11D3FBF662794
:10127000782F892F9A2F620F711D811D911D42E0D9
:10128000660F771F881F991F4A95D1F70895CF924F
:10129000DF92EF92FF92CF93DF936B017C010E946C
:1012A0002409EB01C114D104E104F10489F00E9486
:1012B00022110E9424096C1B7D0B683E734090F341
:1012C00081E0C81AD108E108F108C851DC4FEACF23
:1012D000DF91CF91FF90EF90DF90CF9008957894B9
:1012E00084B5826084BD84B5816084BD85B582602B
:1012F00085BD85B5816085BDEEE6F0E080818160C9
:101300008083E1E8F0E010828081826080838081C8
:1013100081608083E0E8F0E0808181608083E1E9A2
:10132000F0E0808182608083808181608083E0E959
:10133000F0E0808181608083E1ECF0E08081846076
:101340008083808182608083808181608083E3EC00
:10135000F0E0808181608083E0ECF0E08081826059
:101360008083E2ECF0E0808181608083EAE7F0E056
:1013700080818460808380818260808380818160BD
:1013800080838081806880830895823108F0825153
:10139000E82FF0E0E653FF4FE49180917B00E3FB00
:1013A000222720F930E095E0220F331F9A95E1F7CC
:1013B0008F7D822B80937B00E7708091020120E477
:1013C000829FC0011124E82BE0937C0080917A0079
:1013D000806480937A0080917A0086FDFCCF8091B2
:1013E00078002091790090E0922B089590E0FC0124
:1013F0003197EF30F105B0F5EA5AFF4F0C94F41134
:10140000809180008F7703C0809180008F7D8093D2
:101410008000089580918000877FF9CF84B58F7711
:1014200002C084B58F7D84BD0895809190008F7730
:1014300007C0809190008F7D03C080919000877FCE
:101440008093900008958091C0008F7703C08091B1
:10145000C0008F7D8093C00008958091C200877F77
:101460008093C2000895CF93DF9390E0FC01EB508E
:10147000FF4F2491FC01EC5EFE4F8491882349F1DB
:1014800090E0880F991FFC01EF5BFE4FA591B4918E
:101490008D5C9E4FFC01C591D4919FB7611108C02E
:1014A000F8948C91209582238C93888182230AC0A2
:1014B000623051F4F8948C91322F309583238C93C1
:1014C0008881822B888304C0F8948C91822B8C9322
:1014D0009FBFDF91CF9108950F931F93CF93DF9319
:1014E0001F92CDB7DEB7282F30E0F901EA52FF4F47
:1014F0008491F901EB50FF4F1491F901EC5EFE4F1E
:1015000004910023C9F0882321F069830E94F60921
:101510006981E02FF0E0EE0FFF1FED5CFE4FA5911B
:10152000B4919FB7F8948C91611103C010958123F9
:1015300001C0812B8C939FBF0F90DF91CF911F91A2
:101540000F910895CF93DF931F92CDB7DEB76983D4
:10155000DC01ED91FC910280F381E02D41E050E04F
:10156000BE016F5F7F4F09950F90DF91CF91089576
:10157000CF93DF93EC018C859D8597FF05C082E0BA
:101580000E94F10D9D878C878C859D85DF91CF9181
:10159000089583E00C946C10FC018485958597FD7B
:1015A00006C082E00E94990D90E00196089582E0C5
:1015B0000E94990D90E00895FC018485958597FD22
:1015C00005C02FEF3FEF35872487089582E00C9404
:1015D000F10DCF93DF93EC0180910E01882331F060
:1015E00083E00E94220E1816190634F081E090E084
:1015F0009B838A8380E090E0DF91CF910895FC0186
:1016000020812E5F208342E450E06FE471E080E8A7
:101610000C94BD0EFC0121818081813A59F4213264
:1016200009F05CC047E050E067E071E080E00E94B4
:10163000BD0E67C0813209F051C0233289F4838125
:1016400090E0982F88273281832BA0E0B0E0809330
:10165000030190930401A0930501B09306010FC00C
:10166000203239F467E070E087E091E00E94EE0EEE
:101670000AC0223221F4828180930E0104C02D7FA2
:10168000203209F03EC08091070190910801A0919D
:101690000901B0910A01803B9440A105B10501F513
:1016A00080910E0180FD1CC080910008909101087E
:1016B0009093FF0A8093FE0A87E797E790930108CB
:1016C000809300082BE088E190E00FB6F894A8958D
:1016D000809360000FBE2093600013C080E00895E7
:1016E00088E10FB6F89480936000109260000FBEFE
:1016F000A8958091FE0A9091FF0A9093010880932B
:10170000000881E008952FEF3FEFFC013587248723
:1017100008951092DF061092DE0688EE93E0A0E0B6
:10172000B0E08093E0069093E106A093E206B093C8
:10173000E3068DEE95E09093DD068093DC068FEF57
:101740009FEF9093E9068093E8060895611571056F
:1017500081F0DB010D900020E9F7AD014150510906
:10176000461B570BDC01ED91FC910280F381E02DCB
:10177000099480E090E008950C94A60BDC01ED91B3
:10178000FC910190F081E02D099469EF75E00C94D3
:10179000A60B0F931F93CF93DF93EC010E94A60B30
:1017A0008C01CE010E94C50B800F911FDF91CF915C
:1017B0001F910F9108958F929F92AF92BF92CF92F7
:1017C000DF92EF92FF920F931F93CF93DF93CDB7EA
:1017D000DEB7A1970FB6F894DEBF0FBECDBF7C0178
:1017E000C42EE52FCB01D22E19A221E02D1510F029
:1017F0002AE0D22E8E010F5D1F4F8D2C912CA12C33
:10180000B12C6C2D7E2FA50194010E94D2118C2D3C
:10181000D29E80191124015011098A3014F4805D80
:1018200001C0895CF801808321153105410551050E
:1018300021F0C22EE32FCA01E4CFB801C7010E94F4
:10184000A60BA1960FB6F894DEBF0FBECDBFDF91F9
:10185000CF911F910F91FF90EF90DF90CF90BF90AD
:10186000AF909F908F900895CF92DF92EF92FF926A
:101870000F931F93CF93DF93EC016A017B01211536
:10188000310579F4E881F9810190F081E02D642F30
:10189000DF91CF911F910F91FF90EF90DF90CF904C
:1018A00009942A303105E9F477FF1AC06DE20E94ED
:1018B000BE0B8C0144275527BA014C195D096E09EE
:1018C0007F092AE0CE010E94DB0B800F911FDF9180
:1018D000CF911F910F91FF90EF90DF90CF900895DF
:1018E0002AE0B701A601CE01DF91CF911F910F91A0
:1018F000FF90EF90DF90CF900C94DB0B9A01AB013F
:10190000662757FD6095762F0C94340C0F931F9328
:10191000CF93DF93EC019A01AB01662757FD6095E9
:10192000762F0E94340C8C01CE010E94C50B800FD3
:10193000911FDF91CF911F910F91089521153105CE
:1019400041F4DC01ED91FC910190F081E02D642FD8
:1019500009940C94DB0B9A01462F50E060E070E094
:101960000C949E0C9A01AB0160E070E00C949E0C0C
:101970000F931F93CF93DF93EC019A01AB0160E0CB
:1019800070E00E949E0C8C01CE010E94C50B800F5E
:10199000911FDF91CF911F910F9108950F931F9386
:1019A000CF93DF93EC010E949E0C8C01CE010E942C
:1019B000C50B800F911FDF91CF911F910F9108955B
:1019C000615030F02091F100FC0120830196F8CFA6
:1019D000289A84E680933507089540913007509106
:1019E000310720912E0730912F0742175307B4F487
:1019F0009091E8009570E1F39091E80092FD19C094
:101A00008093F100809130079091310701968F7398
:101A10009927892B19F48EEF8093E8008091300785
:101A2000909131070196909331078093300781E0C0
:101A3000089580E00895CF92DF92EF92FF920F9386
:101A40001F93CF93DF931F92CDB7DEB7082F162FCA
:101A5000F42E862F880F8E5F99830E94ED0C83E011
:101A60000E94ED0CE02EC02E9981D92E8C2D8E195E
:101A7000811798F4F601F7FE02C0849101C08081BD
:101A80000E94ED0C082F80E00E94ED0C8023FFEFF8
:101A9000CF1ADF0A8111EACF01C081E00F90DF91F8
:101AA000CF911F910F91FF90EF90DF90CF9008950D
:101AB0008091D70081608093D70080EA8093D8001E
:101AC00089B5806189BD89B5826089BD09B400FE90
:101AD000FDCF61E070E080E090E00E9447098091D6
:101AE000D8008F7C80618093D8008091E000807F57
:101AF0008093E0000895CF93DF931F92CDB7DEB7B8
:101B00001982CE0101960E94FF0A0E94AA11BE010D
:101B10006F5F7F4F0E94231189810F90DF91CF91DA
:101B200008952FB7FC012083F89467706093E90053
:101B30000895CF93DF931F92CDB7DEB7682FCE0104
:101B400001960E94910D8091F20099819FBF0F90A4
:101B5000DF91CF910895FF920F931F93CF93DF935F
:101B600000D0CDB7DEB7F62E8A01909134079923C5
:101B700011F057FF03C08FEF9FEF2BC0682FCE01EE
:101B800001967A830E94910D8091F20090E0A80165
:101B90007A81801791070CF4AC01EF2DF72FF40E2A
:101BA00084E6FE1639F0289A809335079091F1006B
:101BB0009193F7CF4115510521F08091F2008823D0
:101BC00021F089818FBFCA0104C08BE68093E800B1
:101BD000F8CF0F900F90DF91CF911F910F91FF9051
:101BE0000895CF93DF931F92CDB7DEB741E050E069
:101BF000BE016F5F7F4F0E94AB0D019719F4898181
:101C000090E002C08FEF9FEF0F90DF91CF9108958A
:101C1000CF93DF931F92CDB7DEB7682FCE01019629
:101C20000E94910D9091E800892F807295FF04C069
:101C30009091F20080E4891B99819FBF0F90DF9102
:101C4000CF9108956F927F928F929F92AF92BF92A1
:101C5000CF92DF92EF92FF920F931F93CF93DF9378
:101C60001F92CDB7DEB7782E7B01C42EB52E8091A2
:101C70003407882369F0042F152F8AEFD82E872D7B
:101C80008072982E9AE3A92E872D8074882E11C019
:101C90008FEF9FEF57C0872D0E94080E682E81118D
:101CA0000CC0DA94A9F361E070E080E090E00E945B
:101CB00047090115110579F73BC0282F30E00217BD
:101CC00013070CF4602E672DCE0101960E94910D32
:101CD0008091E80085FF29C0262D30E0021B130B00
:101CE000992039F06A948FEF6816B1F01092F100E4
:101CF000F9CFF701862D77FE07C0815058F09491F7
:101D00009093F1003196F9CF815020F0919190930A
:101D1000F100FACFE20EF31E8091E80085FF0FC0BC
:101D20000115110511F481100AC089818FBFC1CF3F
:101D30005D9A84E6809336078C2D9B2D03C0A0927C
:101D4000E800F3CF0F90DF91CF911F910F91FF909B
:101D5000EF90DF90CF90BF90AF909F908F907F904B
:101D60006F9008951092E900109231071092300799
:101D700090932F0780932E070895CF92DF92FF92C2
:101D80000F931F93CF93DF9300D0CDB7DEB7F82E1C
:101D90008A016B0101151105B1F0F601F7FE02C0D1
:101DA000849101C0808149835A830E94ED0C0150C7
:101DB0001109FFEFCF1ADF0A49815A818111EACF59
:101DC0008FEF9FEF01C0CA010F900F90DF91CF916D
:101DD0001F910F91FF90DF90CF9008951F93CF93A5
:101DE000DF931F92CDB7DEB7162F2091E80022FFB8
:101DF000FCCF612F79830E94E00C8BEF8093E80089
:101E0000812F7981972F0F90DF91CF911F910895A6
:101E10001F920F920FB60F921124DF92EF92FF9252
:101E20000F931F932F933F934F935F936F937F93E2
:101E30008F939F93AF93BF93EF93FF93CF93DF93D2
:101E4000CDB7DEB76C97DEBFCDBF1092E9008091B1
:101E5000E80083FF23C168E0CE0145960E94E00CB4
:101E600082EF8093E8003D8937FF05C08091E8004C
:101E700080FFFCCF03C08EEF8093E800832F807635
:101E800009F0F0C02E894F89D88C21110CC0303850
:101E900029F4809133078093F10002C01092F10081
:101EA0001092F100F4C0842F90E09D29213049F474
:101EB0003111EDC0019709F0EAC0809133078D7FA1
:101EC0000AC0233059F43111E2C0019709F0DFC094
:101ED00080913307826080933307D9C0253041F465
:101EE0008091E80080FFFCCF40684093E300CFC0C2
:101EF000263009F08DC0EB8CFC8C22E0D2122CC075
:101F000080E090E00E94B20E0E947B0D99E08E016D
:101F10000F5F1F4FF801292F11922A95E9F7998336
:101F2000DA8291E09E8390EA98879AEF99872091D0
:101F3000300730913107275F3F4F3C832B838D83E0
:101F4000C7010E94B20E49E050E0B80180E00E9453
:101F5000BD0E0E947B0D9BC0C7010E94B20E0E9465
:101F6000AA11BE016B5E7F4F0E944C11009719F0C1
:101F70000CF08DC090C081E0D8120EC08B8D9C8D6E
:101F8000089719F481E080932D0780912D07811126
:101F90002FC063EA71E031C0E3E0DE127CC08F89BC
:101FA000882349F1823029F440E86DE081EC91E02A
:101FB0001CC0813029F440E86BE085EB91E015C04E
:101FC000833009F068C00E94AA118E010F5F1F4F75
:101FD000B8010E946B11F80101900020E9F73197D8
:101FE000E01BF10B40E06E2FC8010E941B0D4DC09D
:101FF00061E971E002C06FEC71E06115710509F4EF
:102000004AC0FB01449150E080E80E94BD0E3FC0F1
:10201000273009F440C0283021F481E08093F1009A
:1020200036C02930A1F53370B1F5E0E1F1E081E08F
:1020300021E036E39081992361F08093E9002093B9
:10204000EB0091919093EC003093ED008F5F87301F
:1020500089F78EE78093EA001092EA008F898093D7
:10206000340715C08B8D9C8D0E94B20E898D811115
:1020700005C0CE0145960E940A0B07C00E94AA1116
:10208000BE016B5E7F4F0E948A11882321F08EEF84
:102090008093E80003C081E28093EB006C960FB65A
:1020A000F894DEBF0FBECDBFDF91CF91FF91EF91CE
:1020B000BF91AF919F918F917F916F915F914F9160
:1020C0003F912F911F910F91FF90EF90DF900F9014
:1020D0000FBE0F901F9018958093E9008091F20039
:1020E000882319F08AE38093E80008951F920F92E5
:1020F0000FB60F9211242F933F934F935F936F93DB
:102100007F938F939F93AF93BF93CF93EF93FF935F
:10211000C091E1008091E100837F8093E100809392
:10212000E100C3FF0FC01092E90081E08093EB0053
:102130001092EC0082E38093ED001092340788E067
:102140008093F000C2FF19C083E00E946C10809160
:102150003607882339F080913607815080933607FF
:10216000882389F180913507882339F080913507DC
:10217000815080933507882341F1C4FF10C08091BE
:10218000E2008E7E81608093E2008091E1008F7E8C
:102190008093E100809132078E7E806111C0C0FF84
:1021A00016C08091E2008E7E80618093E200809173
:1021B000E1008E7E8093E100809132078E7E816007
:1021C0008093320704C05D98CDCF2898D6CFFF9179
:1021D000EF91CF91BF91AF919F918F917F916F912F
:1021E0005F914F913F912F910F900FBE0F901F90D5
:1021F00018951092340710923307109232070E94FC
:10220000580DE1EEF0E080818E7E80838DE080933A
:10221000E200559A209A5D982898089508950E94A2
:102220006F090E940E118CE297E00E94F9100E9443
:102230005D01C0E0D0E00E9468032097E1F30E94B6
:102240000000F9CF0895EF92FF920F931F93CF9361
:10225000DF937B01FC01C281D38100E010E0209775
:1022600081F0E881F9810280F381E02DB701CE0190
:10227000099597FD08C0080F191F0884D985C02D3E
:10228000EECFC80102C08FEF9FEFDF91CF911F917A
:102290000F91FF90EF9008950F931F93CF93DF93CB
:1022A0008B01FC01C281D381209771F0E881F98113
:1022B0000480F581E02DB801CE010995009731F435
:1022C0000884D985C02DF0CF80E090E0DF91CF91D8
:1022D0001F910F9108950F931F93CF93DF938B015D
:1022E000FC01C281D381209771F0E881F9810680D9
:1022F000F781E02DB801CE010995080F111D088462
:10230000D985C02DF0CFF8011082DF91CF911F91B8
:102310000F9108950F931F93CF93DF938B01FC01CF
:10232000C281D381209771F0E881F9810190F08119
:10233000E02DB801CE010995811106C00884D98528
:10234000C02DF0CF80E001C081E0DF91CF911F91DF
:102350000F91089580913B0781110DC082E0809319
:10236000370784E08093380710923A0710923907B4
:1023700081E080933B0787E397E0089597FB072E62
:1023800016F4009407D077FD09D00E941C1207FCB8
:1023900005D03EF4909581959F4F08957095619575
:1023A0007F4F0895A1E21A2EAA1BBB1BFD010DC091
:1023B000AA1FBB1FEE1FFF1FA217B307E407F507F5
:1023C00020F0A21BB30BE40BF50B661F771F881FD1
:1023D000991F1A9469F760957095809590959B0167
:1023E000AC01BD01CF010895EE0FFF1F0590F491E0
:1023F000E02D0994A29FB001B39FC001A39F700D6F
:10240000811D1124911DB29F700D811D1124911DFC
:1024100008950E94FA11A59F900DB49F900DA49F5E
:10242000800D911D11240895B7FF0C9409120E948C
:102430000912821B930B0895AA1BBB1B51E107C015
:10244000AA1FBB1FA617B70710F0A61BB70B881F44
:10245000991F5A95A9F780959095BC01CD010895D3
:04246000F894FFCF1E
:10246400010001FFFFFFFF00E10000000000000089
:10247400C1808100000048545532312053656E7389
:102484006F723A20002054656D70657261747572C4
:10249400653A0043002048756D69646974793A00AF
:1024A4002500484948343033302048756D696469E3
:1024B40074792053656E736F722072656164696EFE
:1024C400672028302D31303234293A004C6967684E
:1024D400742053656E736F722072656164696E67F0
:1024E4002028302D31303234293A00556E69717507
:1024F4006520426F6172642049442023200054689F
:1025040065204865617274626561742070696E73D8
:102514002077696C6C2062652070756C736564202B
:10252400332074696D65732E0053657474696E6726
:10253400204842542050696E7320746F2068696784
:10254400682E0053657474696E67204842542050A5
:10255400696E7320746F204C6F772E00526561642E
:10256400696E672068656172746265617420766162
:102574006C75657320666F7220504F5254313A0067
:1025840052656164696E6720686561727462656131
:10259400742076616C75657320666F7220504F529B
:1025A40054323A0052656164696E672068656172ED
:1025B40074626561742076616C75657320666F72F0
:1025C40020504F5254333A0052656164696E67205B
:1025D4006865617274626561742076616C75657397
:1025E40020666F7220504F5254343A005265616431
:1025F400696E6720686561727462656174207661D2
:102604006C75657320666F7220504F5254353A00D2
:10261400546865726D6973746F722056616C756568
:10262400733A0043757272656E742074696D652027
:1026340073696E63652065706F63683A200058554E
:102644003420626F6F742073656C6563746F7220DD
:1026540074657374202D20706C65617365206368E4
:1026640065636B2074686520636F6E74696E756949
:102674007479206265747765656E2050494E203107
:1026840020616E642032206F66204A342E00626519
:1026940065702E2E004E6F7720636865636B206330
:1026A4006F6E74696E756974792062657477656597
:1026B4006E2050494E53203220616E642033206FC7
:1026C40066204A342E0058553420626F6F74706946
:1026D4006E204A34207465737420636F6D706C656A
:1026E40074652E00506C6561736520736574207485
:1026F4006865206D756C74696D6574657220696EAA
:1027040020636F6E74696E7569747920636865639C
:102714006B207769746820626565706572204F4E1E
:10272400206D6F64652E0043315020626F6F7420FA
:1027340073656C6563746F722074657374202D20E7
:10274400706C6561736520636865636B207468658C
:1027540020636F6E74696E7569747920626574772D
:1027640065656E207468652074776F2070696E7378
:10277400206F66204A50392E2054686520626F61AC
:1027840072642077696C6C20616C7465726E61741C
:102794006520746865206D6F64657320666F7220B0
:1027A4006E6578742035207365636F6E6473206181
:1027B4006E6420796F752073686F756C642068652A
:1027C40061722062656570732E0043312B20626F45
:1027D4006F7470696E204A50392074657374206375
:1027E4006F6D706C6574652E0043757272656E74DE
:1027F40020636F6E73756D7074696F6E3A002D2D62
:102804002D2D2D2D5761676D616E20746865726D75
:10281400616C20656E76656C6F706520616E6420F6
:10282400706F77657220746573742D2D2D2D2D2D89
:10283400002E20002D2D2D2D2D2D2D2D2D2D2D2D2A
:102844002D0057652077696C6C20706F7765722056
:102854004F4E20616C6C20706F727473206F6E65C4
:10286400206279206F6E652E20596F752073686F12
:10287400756C6420686561722035207365706572BB
:1028840061746520636C69636B732C20616E6420D2
:10289400736565207468652063757272656E742053
:1028A400757361676520696E6372656173652E0077
:1028B400436C69636B20312000436C69636B203285
:1028C4002000436C69636B20332000436C69636BA5
:1028D40020342000436C69636B203500506F7765AA
:1028E40072696E67206F666620616C6C2072656C1D
:1028F4006179732E205468652063757272656E74F5
:10290400207573616765207265706F7274656420E9
:102914006E6F772073686F756C6420616C6C2062D5
:102924006520756E646572203132302E001F1C1FC5
:102934001E1F1E1F1F1E1F1E1F00000000F105C4C6
:10294400059905A105B405C30500000000A20AE924
:102954000ACC0ADC0AB80AC90A0D0A006E616E00C4
:08296400696E66006F766600E3
:00000001FF
