:100000000C9476010C949E010C949E010C949E011C
:100010000C949E010C949E010C949E010C949E01E4
:100020000C949E010C949E010C943A120C940611AF
:100030000C949E010C949E010C949E010C949E01C4
:100040000C949E010C949E010C949E010C949E01B4
:100050000C949E010C949E010C949E010C94D80A61
:100060000C949E010C949E010C949E010C949E0194
:100070000C949E010C949E010C949E010C949E0184
:100080000C949E010C949E010C949E010C949E0174
:100090000C9445070C949E010C949E010C949E01B7
:1000A0000C949E010C949E010C949E01DB0BDE0BC4
:1000B000CD0BD10BD70BFF0BFF0BFF0BE20BE60BAE
:1000C000EA0BF00BF40BFF0BFA0B0706050401001B
:1000D000080A0B0C0D090000000200090F000003C4
:1000E0000401000C000000000000000000000000FF
:1000F00000000000040802011040804010204080F1
:10010000408008020401804020100201108010206D
:100110004040040404040403040502020202040330
:100120000202020206060606060604040202020491
:10013000000000002300260029002C002F000000F2
:100140000000250028002B002E00310000000000D8
:10015000240027002A002D00300000C18081C11238
:10016000010002020000404123378000010102002B
:10017000011201000200000040412337800001010C
:1001800002000141726475696E6F204C4C4300415E
:10019000726475696E6F204D6963726F00040309A4
:1001A0000400000000000000002A2B2800000000CE
:1001B000000000000000000000000000000000003F
:1001C000002C9EB4A0A1A2A434A6A7A5AE362D37BC
:1001D00038271E1F20212223242526B333B62EB70D
:1001E000B89F8485868788898A8B8C8D8E8F909125
:1001F00092939495969798999A9B9C9D2F3130A3B2
:10020000AD350405060708090A0B0C0D0E0F101179
:1002100012131415161718191A1B1C1DAFB1B0B5FF
:10022000000904020001030000000921010100018E
:100230002265000705840340000105010902A101B0
:100240000901A100850105091901290315002501EE
:10025000950375018102950175058103050109303A
:10026000093109381581257F750895038106C0C0BD
:1002700005010906A1018502050719E029E7150016
:100280002501750195088102950175088103950680
:100290007508150025650507190029658100C00846
:1002A0000B0002020201000904000001020200002A
:1002B000052400100105240101010424020605247F
:1002C0000600010705810310004009040100020A2D
:1002D00000000007050202400000070583024000FD
:1002E0000000DC025A06A209E613B61411241FBE50
:1002F000CFEFDAE0DEBFCDBF14E0A0E0B1E0ECEC80
:10030000FEE202C005900D92A43EB107D9F726E0A7
:10031000A4EEB4E001C01D92A431B207E1F712E0EF
:10032000CCEED2E004C02297FE010E942A17C23E02
:10033000D107C9F70E94F70E0C9464170C940000C3
:1003400068E873E180E090E00E94450B40E052ECE9
:1003500061E070E084EC95E00E94B01484EE94E0DB
:100360000E947A0861E084E00E94000C61E080E075
:100370000E94000C61E086E00E94000C61E088E0D1
:100380000E94000C61E08AE00E94000C61E08CE0B9
:100390000E94000C60E085E00E94000C60E087E0B5
:1003A0000E94000C60E089E00E94000C60E08BE09D
:1003B0000E94000C60E08DE00E94000C6BE071E098
:1003C00084EC95E00E94150D86E10E94980C892B23
:1003D00019F461E271E002C06CE471E084EC95E034
:1003E0000C94150D60E080E00E94390C61E084E01F
:1003F0000E94390C61E070E080E090E00E94450BC3
:1004000061E080E00E94390C61E070E080E090E003
:100410000E94450B60E080E00E94390C61E070E0D2
:1004200080E090E00C94450B82E10E94980C4AE039
:1004300050E0BC0184EC95E00E94DC0D6CE284ECA1
:1004400095E00E940A0D61E070E080E090E00E947B
:10045000450B83E10E94980C4AE050E0BC0184EC1B
:1004600095E00E94DC0D6CE284EC95E00E940A0DA0
:1004700061E070E080E090E00E94450B84E10E9422
:10048000980C4AE050E0BC0184EC95E00E94DC0D41
:100490006CE284EC95E00E940A0D61E070E080E07F
:1004A00090E00E94450B85E10E94980C4AE050E0E4
:1004B000BC0184EC95E00E94DC0D6CE284EC95E0DC
:1004C0000E940A0D61E070E080E090E00E94450B20
:1004D00086E10E94980C4AE050E0BC0184EC95E073
:1004E0000E94E40D61E070E080E090E00C94450B28
:1004F00085E00E946F0C4AE050E0BC0184EC95E07E
:100500000E94DC0D6CE284EC95E00E940A0D61E033
:1005100070E080E090E00E94450B87E00E946F0C45
:100520004AE050E0BC0184EC95E00E94DC0D6CE2F6
:1005300084EC95E00E940A0D61E070E080E090E0BC
:100540000E94450B89E00E946F0C4AE050E0BC011C
:1005500084EC95E00E94DC0D6CE284EC95E00E9456
:100560000A0D61E070E080E090E00E94450B8BE0B6
:100570000E946F0C4AE050E0BC0184EC95E00E94C0
:10058000DC0D6CE284EC95E00E940A0D61E070E005
:1005900080E090E00E94450B8DE00E946F0C4AE0E5
:1005A00050E0BC0184EC95E00E94E40D61E070E055
:1005B00080E090E00C94450B84EE94E00C94790874
:1005C0000F931F93CF93DF938C01B80185EE94E0D6
:1005D0000E944206E091E504F091E6040190F0816A
:1005E000E02D60E085EE94E0099560E085EE94E012
:1005F0000E94440643E050E0B80185EE94E00E947A
:10060000350685EE94E00E948705892B39F464EF66
:1006100071E080E090E00E94450BD7CF85EE94E03A
:100620000E948F0585EE94E00E948F05082F85EECD
:1006300094E00E948F05182F61E085EE94E00E94FF
:1006400044060170D02F80E0C82FC12B84E0CC0F6E
:10065000DD1F8A95E1F7CE01DF91CF911F910F91B8
:10066000089565E070E080E090E00E94450B80E630
:1006700090E00E94E0024AE050E0BC0184EC95E08A
:100680000E94DC0D6CE284EC95E00E940A0D65E0AE
:1006900070E080E090E00E94450B82E690E00E94CE
:1006A000E0024AE050E0BC0184EC95E00E94DC0DE1
:1006B0006CE284EC95E00E940A0D65E070E080E059
:1006C00090E00E94450B83E690E00E94E0024AE041
:1006D00050E0BC0184EC95E00E94DC0D6CE284ECFF
:1006E00095E00E940A0D65E070E080E090E00E94D5
:1006F000450B88E690E00E94E0024AE050E0BC0131
:1007000084EC95E00E94DC0D6CE284EC95E00E94A4
:100710000A0D65E070E080E090E00E94450B8AE6FB
:1007200090E00E94E0024AE050E0BC0184EC95E0D9
:100730000E94DC0D6CE284EC95E00E940A0D65E0FD
:1007400070E080E090E00E94450B8BE690E00E9414
:10075000E0024AE050E0BC0184EC95E00C94E40D2A
:1007600084EE94E00E94AA086B017C0184EE94E080
:100770000E9422094B015C0166E771E084EC95E080
:100780000E94150D60ED77E080E090E00E94450B3F
:100790006EE971E084EC95E00E94150D68EE73E05F
:1007A00080E090E00E94450B61EB71E084EC95E005
:1007B0000E94080D0E9414026AE084EC95E00E94F9
:1007C0000A0D68EE73E080E090E00E94450B6EED4C
:1007D00071E084EC95E00E94080D87E10E94980C7E
:1007E0004AE050E0BC0184EC95E00E94E40D6AE030
:1007F00084EC95E00E940A0D68EE73E080E090E0E2
:100800000E94450B6AE172E084EC95E00E94080DBD
:100810000E9478026AE084EC95E00E940A0D68EE7E
:1008200073E080E090E00E94450B65E472E084ECA8
:1008300095E00E94080D0E9431036AE084EC95E087
:100840000E940A0D68EE73E080E090E00E94450B84
:1008500060E772E084EC95E00E94150D0E94F201C1
:1008600061E086E00E94390C61E088E00E94390C6A
:1008700061E08AE00E94390C61E08CE00E94390C52
:1008800068EE73E080E090E00E94450B67E872E05C
:1008900084EC95E00E94080D0E9414026AE084EC4A
:1008A00095E00E940A0D68EE73E080E090E00E94FF
:1008B000450B69EB72E084EC95E00E94080D0E9404
:1008C00078026AE084EC95E00E940A0D68EE73E01D
:1008D00080E090E00E94450B64EE72E084EC95E0CD
:1008E0000E94080D0E9431036AE084EC95E00E94AA
:1008F0000A0D68EE73E080E090E00E94450B67E32C
:1009000073E084EC95E00E94150D68EE73E080E0E2
:1009100090E00E94450B60E086E00E94390C60E0A8
:1009200088E00E94390C60E08AE00E94390C60E0A7
:100930008CE00E94390C68EE73E080E090E00E9449
:10094000450B61E573E084EC95E00E94080D0E9480
:1009500014026AE084EC95E00E940A0D68EE73E0F0
:1009600080E090E00E94450B6AE172E084EC95E043
:100970000E94080D0E9478026AE084EC95E00E94D3
:100980000A0D68EE73E080E090E00E94450B65E49C
:1009900072E084EC95E00E94080D0E9431036AE049
:1009A00084EC95E00E940A0D68EE73E080E090E030
:1009B0000E94450B61E873E084EC95E00E94080D0D
:1009C00068EA73E084EC95E00E94080D21E030E0D5
:1009D000B501A40184EC95E00E94F40E66EB73E08F
:1009E00084EC95E00E94080D68EB73E084EC95E0E0
:1009F0000E94080D21E030E0B701A60184EC95E0EB
:100A00000E94F40E63EC73E084EC95E00E94080D04
:100A10006AE084EC95E00E94270D68EE73E080E0C8
:100A200090E00E94450B65EC73E084EC95E00E9439
:100A3000080D68EE73E080E090E00E94450BC5E091
:100A4000D0E063EE73E080E090E00E94450B0E94EE
:100A5000FC09AB01BC012AE030E084EC95E00E9487
:100A6000FC0D6CE874E084EC95E00E94080D219781
:100A700041F76CE874E084EC95E00E94150D68EE97
:100A800073E080E090E00E94450B66E174E084EC46
:100A900095E00E94150D0E94F2016CE374E084EC75
:100AA00095E00E94080DCAE0D0E063EE73E080E0BC
:100AB00090E00E94450B4AE050E0BE0184EC95E0D6
:100AC0000E94DC0D60E284EC95E00E940A0D219703
:100AD00061F76EE874E084EC95E00E94080D68EB25
:100AE0007BE080E090E00E94450B2BE088E190E005
:100AF0000FB6F894A895809360000FBE2093600015
:100B000068E873E180E090E00E94450BF9CF8091A6
:100B1000150590E020911605821B910908952091FA
:100B2000160580911505281750F4E22FF0E0E95ED4
:100B3000FA4F808190E02F5F2093160508958FEF84
:100B40009FEF0895E091160580911505E81730F4A0
:100B5000F0E0E95EFA4F808190E008958FEF9FEF1B
:100B600008950895CF92DF92EF92FF920F931F9313
:100B7000CF93DF937C01CB018A012091F1042223E2
:100B800089F0EB016B01C40ED51ECC15DD0569F0B3
:100B90006991D701ED91FC910190F081E02DC701A1
:100BA0000995F3CF642F0E941C07C801DF91CF91F4
:100BB0001F910F91FF90EF90DF90CF900895CF930A
:100BC000DF931F92CDB7DEB769832091F104222312
:100BD000D1F02091F204203240F021E030E0FC011D
:100BE0003383228380E090E015C08091F304E82FE6
:100BF000F0E0EC50FB4F998190838F5F8093F3047A
:100C00008093F20405C061E0CE0101960E941C07AA
:100C100081E090E00F90DF91CF910895FC01138265
:100C2000128248EE53E060E070E0448355836683AF
:100C300077838FE994E0918380830895109216055D
:100C4000109215051092F3041092F2040C945E06B3
:100C5000862F413208F040E267E175E00E947C0691
:100C60001092160580931505089521E00C9428062E
:100C700081E08093F104609314051092F3041092C4
:100C8000F20408950C9438060F93062F21E040914A
:100C9000F20464EF74E0809114050E94C90610927A
:100CA000F3041092F2041092F1040F91089561E0A0
:100CB0000C94440685EE94E00C940E061092A40564
:100CC00081E08093A2051092A10561E082E00E947C
:100CD000390C61E083E00E94390CE9EBF0E080819F
:100CE0008E7F808380818D7F808388E48093B800AD
:100CF00085E48093BC000895413240F4E9EBFBE0C9
:100D00009091A405992321F03197D1F780E00895BF
:100D100091E09093A4052093A2052FEF209337052F
:100D200010927C05240F20937B059093A30590914E
:100D3000A305880F892B8093A3058091A10581309D
:100D400041F41092A1058091A3058093BB0085EC2E
:100D500001C085EE8093BC0029EB3BE08091A405A7
:100D6000813021F421503109C9F7D0CF80917C0521
:100D7000841710F440917C052DE735E0FB01D90183
:100D80008A2F821B841718F48D918193F9CF842FB9
:100D900008950F93413208F046C09091A405911137
:100DA000FCCF92E09093A4050093A2059FEF90934F
:100DB000370510927C0540937B05FB016DE775E0DC
:100DC000DB019A2F961B941718F491919D93F9CFFC
:100DD0001092A3059091A305880F892B8093A305FA
:100DE0008091A105813041F41092A1058091A30565
:100DF0008093BB0085EC01C085EE8093BC0022236C
:100E000021F08091A4058230E1F3809137058F3F76
:100E100061F080913705803251F080913705803341
:100E200041F483E007C081E005C080E003C082E0B8
:100E300001C084E00F910895613298F42091A405D7
:100E4000243089F460935905FC018BE595E0DC01C1
:100E50002A2F281B261718F421912D93F9CF80E013
:100E6000089581E0089582E0089585ED8093BC00A7
:100E70008091BC0084FDFCCF1092A405089585EC00
:100E80008093BC001092A40508951F920F920FB694
:100E90000F9211242F933F934F935F936F937F9300
:100EA0008F939F93AF93BF93EF93FF938091B9007C
:100EB000887F803609F49CC068F5883209F45BC0ED
:100EC00090F4803109F454C038F4882309F4F5C053
:100ED000883009F44DC0F5C0883109F44CC0803227
:100EE00009F45DC0EEC0803409F468C048F4803372
:100EF00009F455C0883309F0E4C080933705A8C0D1
:100F0000803509F44FC0883509F45DC0883409F094
:100F1000D8C0D5C0883909F4C6C0A8F4883709F408
:100F200067C038F4883609F463C0803709F460C0BC
:100F3000C8C0883809F4B7C0803909F45FC0803868
:100F400009F0BFC05BC0803B09F485C038F4803A2B
:100F500009F466C0883A09F47EC0B3C0803C09F445
:100F6000A6C0883C09F4A3C0883B09F489C0A9C085
:100F70008091A30510C090917C0580917B05981706
:100F800070F5E0917C0581E08E0F80937C05F0E0A8
:100F9000E358FA4F80818093BB0085EC85C0809335
:100FA00037058DC0E0917C0581E08E0F80937C0534
:100FB0008091BB00F0E0E358FA4F808390917C056C
:100FC00080917B056DC0E0917C0581E08E0F809360
:100FD0007C058091BB00F0E0E358FA4F808380915C
:100FE000A20581116CC081E08093A10584EA60C0F4
:100FF00083E08093A40510923805CFCF8091380507
:10100000803208F050C0E091380581E08E0F809367
:1010100038058091BB00F0E0E75CFA4F8083BDCFDC
:1010200080913805803230F4E0913805F0E0E75CDB
:10103000FA4F10820E9435076091380570E0E09108
:101040009D05F0919E0589E395E00995109238057C
:101050000E943F0736C084E08093A40510925A0591
:1010600010925905E0919F05F091A0050995809196
:101070005905811105C081E08093590510925B05E7
:10108000E0915A0581E08E0F80935A05F0E0E55A11
:10109000FA4F80818093BB0090915A058091590549
:1010A000981708F47ACF85E88093BC000AC085ECD5
:1010B0008093BC001092A40504C0109237050E94D2
:1010C0003507FF91EF91BF91AF919F918F917F91E4
:1010D0006F915F914F913F912F910F900FBE0F90A5
:1010E0001F901895DC01ED91FC910190F081E02DAD
:1010F0000994089585EE94E00E941E0608950F93CA
:101100001F93CB01A0E0B0E0BA2FA92F982F88271A
:10111000842BE7E1F0E040E050E868E970E08C0102
:101120009D010E2E04C036952795179507950A94B4
:10113000D2F700FF04C084279527A627B727769506
:101140006795579547953197E730F10541F71F911E
:101150000F910895EF92FF920F931F93CF93DF9318
:101160007C0160E470E085EE94E00E94420665EF49
:1011700070E085EE94E00E94720885EE94E00E9493
:10118000570667E370E080E090E00E94450B43E083
:1011900050E060E470E085EE94E00E94350605E6DC
:1011A00010E085EE94E00E948705039774F461E0F7
:1011B00070E080E090E00E94450B0150110989F732
:1011C00060E070E889E794E436C085EE94E00E9420
:1011D0008F05082F85EE94E00E948F05182F85EE6D
:1011E00094E00E948F05D02F90E0C92FC12B482F8B
:1011F000BE01C7010E947F08811119C0BE016C7F2A
:1012000080E090E00E94D51520E030E040E857E310
:101210000E948B1620E030E04AEF52E40E948B16C9
:1012200020E030E040EC50E40E94D31404C060E0C1
:1012300070EC89E794E4DF91CF911F910F91FF90BB
:10124000EF900895EF92FF920F931F93CF93DF9348
:101250007C0160E470E085EE94E00E94420663EF5A
:1012600070E085EE94E00E94720885EE94E00E94A2
:10127000570667E370E080E090E00E94450B43E092
:1012800050E060E470E085EE94E00E94350605E6EB
:1012900010E085EE94E00E948705039774F461E006
:1012A00070E080E090E00E94450B0150110989F741
:1012B00060E070E889E794E436C085EE94E00E942F
:1012C0008F05082F85EE94E00E948F05182F85EE7C
:1012D00094E00E948F05D02F90E0C92FC12B482F9A
:1012E000BE01C7010E947F08811119C0BE016C7F39
:1012F00080E090E00E94D51520E030E040E857E320
:101300000E948B1622E538EB4FE253E40E948B16C5
:1013100026E636E64BE352E40E94D31404C060E0B4
:1013200070EC89E794E4DF91CF911F910F91FF90CA
:10133000EF900895982F92959F702AEF929F800DBD
:101340001124089585EE94E00C941E06CF93DF934C
:10135000EC016FE670E085EE94E00E94420660E0EA
:1013600085EE94E00E94DF0585EE94E00E9457062A
:1013700081113EC047E050E06FE670E085EE94E0FA
:101380000E94350685EE94E00E948F058F770E94BB
:101390009A09888385EE94E00E948F050E949A093D
:1013A000898385EE94E00E948F058F7B0E949A09C5
:1013B0008A8385EE94E00E948F05877C8B8385EE7F
:1013C00094E00E948F050E949A098C8385EE94E038
:1013D0000E948F058F7D0E949A098D8385EE94E08F
:1013E0000E948F050E949A09825E8E8381E001C06F
:1013F00080E0DF91CF910895CF93DF93CDB7DEB733
:1014000027970FB6F894DEBF0FBECDBFCE01019671
:101410000E94A609882329F0CE0101960E941D0A88
:1014200003C060E070E0CB0127960FB6F894DEBFF2
:101430000FBECDBFDF91CF9108956F927F928F92B3
:101440009F92AF92BF92CF92DF92EF92FF920F9353
:101450001F93CF93DF93FC01C680AC2DB0E020E852
:1014600033E341EE51E00E943D174B015C0122EB5A
:1014700037E06D01C4E6D0E000E911E0C901825B0C
:1014800097408C159D05DCF4C90183709927892B41
:1014900099F4C901BE010E94F216892B31F4C901E9
:1014A000B8010E94F216892B39F480E8880E81E594
:1014B000981E81E0A81EB11C2F5F3F4FDFCF6580D3
:1014C000712C8EE4C81A88EFD80AC60164E670E071
:1014D0000E94F2168C01C60160E971E00E94F216CA
:1014E0007C01C1E0D0E083E0C822DD24C615D70529
:1014F0002CF5C230D10589F4C114D10471F4011561
:10150000110519F4E114F10441F480E8880E8BE32D
:10151000981E86E2A81EB11C0FC0DE01A655BB4F67
:10152000AC91B0E020E831E541E050E00E943D1789
:10153000860E971EA81EB91E2196D8CF4181228102
:1015400030E0A0E1BEE00E942E176B017C01242F49
:1015500030E0ACE3B0E00E942E17C60ED71EE81EA6
:10156000F91E8081C80ED11CE11CF11CA481B0E0E1
:10157000119720E831E541E050E00E944817C60E7F
:10158000D71EE81EF91EC80CD91CEA1CFB1CC7019B
:10159000B601DF91CF911F910F91FF90EF90DF90F7
:1015A000CF90BF90AF909F908F907F906F90089555
:1015B0001F920F920FB60F9211242F933F938F9388
:1015C0009F93AF93BF938091A6059091A705A0919B
:1015D000A805B091A9053091A50523E0230F2D376B
:1015E00020F40196A11DB11D05C026E8230F029627
:1015F000A11DB11D2093A5058093A6059093A70575
:10160000A093A805B093A9058091AA059091AB0578
:10161000A091AC05B091AD050196A11DB11D8093BF
:10162000AA059093AB05A093AC05B093AD05BF910F
:10163000AF919F918F913F912F910F900FBE0F907F
:101640001F9018953FB7F8948091AA059091AB052B
:10165000A091AC05B091AD0526B5A89B05C02F3F64
:1016600019F00196A11DB11D3FBF6627782F892F64
:101670009A2F620F711D811D911D42E0660F771F29
:10168000881F991F4A95D1F70895CF92DF92EF9264
:10169000FF92CF93DF936B017C010E94220BEB0141
:1016A000C114D104E104F10489F00E94C90C0E9424
:1016B000220B6C1B7D0B683E734090F381E0C81ACF
:1016C000D108E108F108C851DC4FEACFDF91CF9192
:1016D000FF90EF90DF90CF900895789484B582606A
:1016E00084BD84B5816084BD85B5826085BD85B5C6
:1016F000816085BDEEE6F0E0808181608083E1E875
:10170000F0E01082808182608083808181608083AC
:10171000E0E8F0E0808181608083E1E9F0E08081B1
:1017200082608083808181608083E0E9F0E0808155
:1017300081608083E1ECF0E080818460808380813F
:1017400082608083808181608083E3ECF0E080812F
:1017500081608083E0ECF0E0808182608083E2EC55
:10176000F0E0808181608083EAE7F0E0808184603E
:10177000808380818260808380818160808380819A
:1017800080688083089590E0FC013197EF30F10587
:10179000B0F5EA5AFF4F0C942817809180008F779C
:1017A00003C0809180008F7D809380000895809198
:1017B0008000877FF9CF84B58F7702C084B58F7D95
:1017C00084BD0895809190008F7707C0809190002C
:1017D0008F7D03C080919000877F80939000089553
:1017E0008091C0008F7703C08091C0008F7D80936F
:1017F000C00008958091C200877F8093C200089541
:10180000CF93DF9390E0FC01EC50FF4F2491FC015B
:10181000EE5EFE4F8491882349F190E0880F991F76
:10182000FC01E45BFE4FA591B491825C9E4FFC01EC
:10183000C591D4919FB7611108C0F8948C912095FF
:1018400082238C93888182230AC0623051F4F894F9
:101850008C91322F309583238C938881822B8883BF
:1018600004C0F8948C91822B8C939FBFDF91CF9111
:1018700008950F931F93CF93DF931F92CDB7DEB7D9
:10188000282F30E0F901EA52FF4F8491F901EC5022
:10189000FF4F1491F901EE5EFE4F04910023C9F051
:1018A000882321F069830E94C30B6981E02FF0E057
:1018B000EE0FFF1FE25CFE4FA591B4919FB7F89425
:1018C0008C91611103C01095812301C0812B8C93F1
:1018D0009FBF0F90DF91CF911F910F910895CF93EC
:1018E000DF93282F30E0F901EA52FF4F8491F9018C
:1018F000EC50FF4FD491F901EE5EFE4FC491CC2322
:1019000091F081110E94C30BEC2FF0E0EE0FFF1F4E
:10191000E05DFE4FA591B4912C912D2381E090E0E4
:1019200021F480E002C080E090E0DF91CF91089543
:10193000823108F08251E82FF0E0E653FF4FE49146
:1019400080917B00E3FB222720F930E095E0220F15
:10195000331F9A95E1F78F7D822B80937B00E77090
:101960008091000120E4829FC0011124E82BE093C4
:101970007C0080917A00806480937A0080917A0064
:1019800086FDFCCF809178002091790090E0922B29
:1019900008950895CF92DF92EF92FF920F931F93D5
:1019A000CF93DF936C017A01EB01E60EF71E00E0A6
:1019B00010E0CE15DF0561F06991D601ED91FC9143
:1019C0000190F081E02DC6010995080F191FF1CF94
:1019D000C801DF91CF911F910F91FF90EF90DF90A1
:1019E000CF9008956115710581F0DB010D90002005
:1019F000E9F7AD0141505109461B570BDC01ED9150
:101A0000FC910280F381E02D099480E090E008953C
:101A10000C94F20CDC01ED91FC910190F081E02D31
:101A2000099467EB74E00C94F20C0F931F93CF931F
:101A3000DF93EC010E94F20C8C01CE010E94110D8B
:101A4000800F911FDF91CF911F910F9108950F93F8
:101A50001F93CF93DF93EC010E940A0D8C01CE01FE
:101A60000E94110D800F911FDF91CF911F910F9157
:101A700008958F929F92AF92BF92CF92DF92EF9292
:101A8000FF920F931F93CF93DF93CDB7DEB7A1974C
:101A90000FB6F894DEBF0FBECDBF7C01C42EE52F7C
:101AA000CB01D22E19A221E02D1510F02AE0D22E62
:101AB0008E010F5D1F4F8D2C912CA12CB12C6C2D04
:101AC0007E2FA50194010E9406178C2DD29E8019AD
:101AD0001124015011098A3014F4805D01C0895C21
:101AE000F8018083211531054105510521F0C22EF1
:101AF000E32FCA01E4CFB801C7010E94F20CA196FE
:101B00000FB6F894DEBF0FBECDBFDF91CF911F910E
:101B10000F91FF90EF90DF90CF90BF90AF909F908C
:101B20008F900895CF92DF92EF92FF920F931F93C1
:101B3000CF93DF93EC016A017B012115310579F424
:101B4000E881F9810190F081E02D642FDF91CF9140
:101B50001F910F91FF90EF90DF90CF9009942A3062
:101B60003105E9F477FF1AC06DE20E940A0D8C017D
:101B700044275527BA014C195D096E097F092AE0EF
:101B8000CE010E94390D800F911FDF91CF911F91DF
:101B90000F91FF90EF90DF90CF9008952AE0B7016A
:101BA000A601CE01DF91CF911F910F91FF90EF9091
:101BB000DF90CF900C94390D9A01AB01662757FD49
:101BC0006095762F0C94920D0F931F93CF93DF9314
:101BD000EC019A01AB01662757FD6095762F0E94B4
:101BE000920D8C01CE010E94110D800F911FDF918B
:101BF000CF911F910F9108952115310541F4DC011A
:101C0000ED91FC910190F081E02D642F09940C94EA
:101C1000390D4F925F926F927F928F929F92AF9207
:101C2000BF92CF92DF92EF92FF920F931F93CF93C9
:101C3000DF93EC016A017B01B22E9A01AB01C7016F
:101C4000B6010E94EE16882319F06AEB74E027C0F3
:101C500026013701E89477F82FEF3FEF4FE75FE772
:101C6000C301B2010E94EE1681110DC02FEF3FEFAC
:101C70004FE75FE7C301B2010E94381518161CF444
:101C80006EEB74E00CC02FEF3FEF4FE75FE4C7014E
:101C9000B6010E9487161816ACF462EC74E0CE010F
:101CA000DF91CF911F910F91FF90EF90DF90CF9038
:101CB000BF90AF909F908F907F906F905F904F906C
:101CC0000C94F20C2FEF3FEF4FE75FECC701B6012A
:101CD0000E94381587FDE1CF20E030E0A901C7015F
:101CE000B6010E94381587FF0AC06DE2CE010E943E
:101CF0000A0D8C01F7FAF094F7F8F09402C000E0B6
:101D000010E0A12C60E070E080E09FE3AB1441F0B4
:101D100020E030E040E251E40E943C15A394F6CF6D
:101D20009B01AC01C701B6010E94D4146B017C0178
:101D30000E94A9152B013C010E94D5159B01AC0105
:101D4000C701B6010E94D3146B017C012AE0B301E4
:101D5000A201CE010E94390D080F191FBB2039F0D6
:101D60006AE374E0CE010E94F20C080F191F7B2C6D
:101D7000772041F120E030E040E251E4C701B601B4
:101D80000E948B166B017C010E94A4154B01AA24B2
:101D900097FCA094BA2C2AE030E0B501A401CE0152
:101DA0000E94920D080F191FC501B4010E94D7159A
:101DB0009B01AC01C701B6010E94D3146B017C01E9
:101DC0007A94D6CFC801DF91CF911F910F91FF90E8
:101DD000EF90DF90CF90BF90AF909F908F907F90CB
:101DE0006F905F904F9008950C94090E08950E9493
:101DF0006D0B0E94F60E8EEA95E00E9490120E94F2
:101E0000A001C0E0D0E00E94B0032097E1F30E945F
:101E10000000F9CF4091B2055091B3052091B00573
:101E20003091B10542175307B4F49091E8009570D2
:101E3000E1F39091E80092FD19C08093F100809148
:101E4000B2059091B30501968F739927892B19F4E8
:101E50008EEF8093E8008091B2059091B3050196D2
:101E60009093B3058093B20581E0089580E00895D2
:101E7000CF92DF92FF920F931F93CF93DF931F9226
:101E8000CDB7DEB7082F162F862F880F8E5F998368
:101E90000E940A0F83E00E940A0FF02EC02E998143
:101EA000D92E8C2D8F19811778F4F60184910E9418
:101EB0000A0F082F80E00E940A0F8023FFEFCF1A3D
:101EC000DF0A8111EECF01C081E00F90DF91CF9149
:101ED0001F910F91FF90DF90CF900895615030F0E7
:101EE0002091F100FC0120830196F8CF289A84E626
:101EF0008093B50508952FB7FC012083F89467708F
:101F00006093E9000895CF93DF931F92CDB7DEB7BA
:101F1000682FCE0101960E947B0F8091F20099817B
:101F20009FBF0F90DF91CF910895FF920F931F9362
:101F3000CF93DF9300D0CDB7DEB7F62E8A01909114
:101F4000B405992311F057FF03C08FEF9FEF2BC00B
:101F5000682FCE0101967A830E947B0F8091F20058
:101F600090E0A8017A81801791070CF4AC01EF2D65
:101F7000F72FF40E84E6FE1639F0289A8093B50503
:101F80009091F1009193F7CF4115510521F0809187
:101F9000F200882321F089818FBFCA0104C08BE63B
:101FA0008093E800F8CF0F900F90DF91CF911F91B1
:101FB0000F91FF900895CF93DF931F92CDB7DEB7B7
:101FC00041E050E0BE016F5F7F4F0E94950F019787
:101FD00019F4898190E002C08FEF9FEF0F90DF919D
:101FE000CF910895CF93DF931F92CDB7DEB7682FBF
:101FF000CE0101960E947B0F9091E800892F80729C
:1020000095FF04C09091F20080E4891B99819FBFE5
:102010000F90DF91CF9108956F927F928F929F9250
:10202000AF92BF92CF92DF92EF92FF920F931F93E6
:10203000CF93DF931F92CDB7DEB7782E7B01C42EEE
:10204000B52E8091B405882369F0042F152F8AEFEF
:10205000D82E872D8072982E9AE3A92E872D807412
:10206000882E11C08FEF9FEF57C0872D0E94F20F6F
:10207000682E81110CC0DA94A9F361E070E080E071
:1020800090E00E94450B0115110579F73BC0282F00
:1020900030E0021713070CF4602E672DCE01019675
:1020A0000E947B0F8091E80085FF29C0262D30E03B
:1020B000021B130B992039F06A948FEF6816B1F068
:1020C0001092F100F9CFF701862D77FE07C08150FD
:1020D00058F094919093F1003196F9CF815020F00F
:1020E00091919093F100FACFE20EF31E8091E800F7
:1020F00085FF0FC00115110511F481100AC08981F7
:102100008FBFC1CF5D9A84E68093B6058C2D9B2D41
:1021100003C0A092E800F3CF0F90DF91CF911F9101
:102120000F91FF90EF90DF90CF90BF90AF909F9076
:102130008F907F906F9008951092E9001092B305F0
:102140001092B2059093B1058093B0050895CF9297
:10215000DF92FF920F931F93CF93DF9300D0CDB701
:10216000DEB7F82E8A016B0101151105B1F0F601F9
:10217000F7FE02C0849101C0808149835A830E9486
:102180000A0F01501109FFEFCF1ADF0A49815A8166
:102190008111EACF8FEF9FEF01C0CA010F900F901E
:1021A000DF91CF911F910F91FF90DF90CF90089515
:1021B0001F93CF93DF931F92CDB7DEB7162F2091D9
:1021C000E80022FFFCCF612F79830E946E0F8BEF16
:1021D0008093E800812F7981972F0F90DF91CF9125
:1021E0001F910895CF93DF931F92CDB7DEB7198269
:1021F000CE0101960E945014CE0101960E94CE128B
:10220000898190E00F90DF91CF9108951F920F92F6
:102210000FB60F921124EF92FF920F931F932F93FB
:102220003F934F935F936F937F938F939F93AF935E
:10223000BF93EF93FF93CF93DF93CDB7DEB7629752
:10224000DEBFCDBF1092E9008091E80083FFEBC0B4
:1022500068E0CE010A960E946E0F82EF8093E8003C
:102260009A8597FF05C08091E80080FFFCCF03C0EE
:102270008EEF8093E800892F807609F0B9C08B85B6
:10228000811105C01092F1001092F100C5C0282FF5
:102290002D7F213009F4C0C0853049F48091E800D9
:1022A00080FFFCCF8C8580688093E300B5C08630CA
:1022B00009F076C02D85E888F988223071F580E034
:1022C00090E02A8B0E949C100E94F21099E08E01EF
:1022D0000F5F1F4FF801392F11923A95E9F7998353
:1022E0002A892A8391E09E8390E898879AEF9987BC
:1022F0002091B2053091B305275F3F4F3C832B837C
:102300008D83C7010E949C1049E050E0B80180E035
:102310000E94A7100E94F2107FC0C7012A8B0E9462
:102320009C102A89223241F482E290E00E94D91264
:10233000892B09F071C074C0213069F488899989AA
:10234000089711F42093AF058091AF05811118C053
:1023500061E771E01AC0233009F062C08C858823E0
:1023600091F0823021F46DE08FE891E006C0813079
:1023700009F056C06BE083E891E00E94380F4AC034
:102380006FE571E002C06DE971E06115710509F456
:1023900047C0FB01449150E080E80E94A7103CC078
:1023A000873009F43DC0883021F481E08093F1004A
:1023B00033C0893089F5937099F5EBE5F1E081E060
:1023C00021E096E38093E9002093EB003491309371
:1023D000EC009093ED008F5F3196853099F78EE792
:1023E0008093EA001092EA008C858093B40514C0B3
:1023F000888999890E949C108E85811105C0CE0123
:102400000A960E945B1406C0823051F4CE010A96EF
:102410000E940113882321F08EEF8093E80003C00F
:1024200081E28093EB0062960FB6F894DEBF0FBE98
:10243000CDBFDF91CF91FF91EF91BF91AF919F9170
:102440008F917F916F915F914F913F912F911F914C
:102450000F91FF90EF900F900FBE0F901F90189567
:102460008093E9008091F200882319F08AE3809339
:10247000E80008951F920F920FB60F9211242F9328
:102480003F934F935F936F937F938F939F93AF93FC
:10249000BF93EF93FF938091E1001092E10083FFDF
:1024A0000FC01092E90091E09093EB001092EC00C5
:1024B00092E39093ED001092B40598E09093F000B1
:1024C00082FF1DC083E00E9430128091B6058823F0
:1024D00039F08091B60581508093B605882369F064
:1024E0008091B505882359F08091B505815080937E
:1024F000B505811104C0289802C05D98F1CFFF9105
:10250000EF91BF91AF919F918F917F916F915F916B
:102510004F913F912F910F900FBE0F901F901895E4
:102520001092B40581E08093D70080EA8093D800B0
:1025300082E189BD09B400FEFDCF61E070E080E07A
:1025400090E00E94450B80E98093D8008CE0809356
:10255000E2001092E000559A209A5D98289808951C
:10256000FF920F931F93CF93DF93EC01F62EE88138
:10257000F9810480F581E02D09958C01E881F981CC
:102580000680F781E02D6F2DCE010995C8019927AE
:10259000DF91CF911F910F91FF900895FC01208151
:1025A0002F5F208349E150E061E272E080E80C9403
:1025B000A71045E650E06AE372E080E80C94A710AB
:1025C000EF92FF920F931F93CF93DF931F92CDB79C
:1025D000DEB789838B017A0141E050E0BE016F5F75
:1025E0007F4F84E00E940C10A701B80184E40E9490
:1025F0000C100F90DF91CF911F910F91FF90EF90F2
:102600000895FC0191818081813A31F481E091301B
:1026100091F0933089F411C0813271F49B3021F430
:1026200082818093020105C09A3031F482818093C7
:10263000010181E00895089580E0089548E050E0A8
:1026400082E00C94E012CF93DF93DC01683818F03D
:10265000E8E7E60F25C0E62FF0E067FF11C0E0587D
:10266000F10981E090E001C0880FEA95EAF714963D
:102670009C911497982B14969C931497E0E010C0AB
:10268000EF55FE4FE491EE2309F440C0E7FF08C088
:1026900014968C911497826014968C931497EF770C
:1026A00016968C9116978E1741F117968C91179765
:1026B0008E1719F118968C9118978E17F1F01996BC
:1026C0008C9119978E17C9F01A968C911A978E17BC
:1026D000A1F01B968C911B978E1779F080E090E00B
:1026E000ED01C80FD91F2E81211102C0EE8305C054
:1026F000019686309105A1F709C0BD016C5F7F4F3F
:10270000CD010E941E1381E090E008C081E090E0BE
:1027100013969C938E93129780E090E0DF91CF9177
:102720000895683818F0E8E7E60F25C0E62FF0E0D6
:1027300067FF12C0E058F10921E030E001C0220F2C
:10274000EA95EAF72095DC0114963C911497322320
:1027500014963C93E0E00FC0EF55FE4FE491EE235A
:1027600029F1E7FF08C0DC0114962C9114972D7F06
:1027700014962C93EF7720E030E0EE2351F0DC014B
:10278000A20FB31F16964C9116974E1302C01696C1
:102790001C922F5F3F4F2630310579F7BC016C5FEB
:1027A0007F4F0E941E1381E090E0089580E090E04A
:1027B0000895FC01168217821086118612861386F0
:1027C0001482BC016C5F7F4F0C941E131092C305E2
:1027D0001092BA051092B9058AEC94E09093B8056E
:1027E0008093B7050895CF93DF931F92CDB7DEB7DF
:1027F0006983DC01ED91FC910280F381E02D41E0E1
:1028000050E0BE016F5F7F4F09950F90DF91CF9130
:102810000895CF93DF93EC018C859D8597FF05C0CC
:1028200082E00E94DB0F9D878C878C859D85DF91E0
:10283000CF91089583E00C943012FC018485958536
:1028400097FD06C082E00E94830F90E001960895F4
:1028500082E00E94830F90E00895FC0184859585B5
:1028600097FD05C02FEF3FEF35872487089582E05D
:102870000C94DB0FCF93DF93EC0180910A01882346
:1028800031F083E00E940C101816190634F081E034
:1028900090E09B838A8380E090E0DF91CF91089560
:1028A000FC0120812E5F208342E450E06FE972E05A
:1028B00080E80C94A710FC0181819081913A59F431
:1028C000813209F03CC047E050E063E071E080E015
:1028D0000E94A71043C0913291F5803239F467E02D
:1028E00070E083E091E00E94D81006C0823209F0C7
:1028F00035C0828180930A01809103019091040187
:10290000A0910501B0910601803B9440A105B1055D
:10291000C1F480910A0180FD14C087E797E7909386
:102920000108809300082BE088E190E00FB6F8944E
:10293000A895809360000FBE209360000FC080E0D8
:10294000089588E10FB6F8948093600010926000BB
:102950000FBEA895109201081092000881E008951A
:102960002FEF3FEFFC013587248708951092C705AC
:102970001092C60588EE93E0A0E0B0E08093C80511
:102980009093C905A093CA05B093CB0588ED94E058
:102990009093C5058093C4058FEF9FEF9093D10569
:1029A0008093D00508955058BB27AA270ED075C133
:1029B00066D130F06BD120F031F49F3F11F41EF45A
:1029C0005BC10EF4E095E7FB51C1E92F77D180F3AD
:1029D000BA17620773078407950718F071F49EF51C
:1029E0008FC10EF4E0950B2EBA2FA02D0B01B9016B
:1029F00090010C01CA01A0011124FF27591B99F075
:102A0000593F50F4503E68F11A16F040A22F232F80
:102A1000342F4427585FF3CF469537952795A795D0
:102A2000F0405395C9F77EF41F16BA0B620B730B77
:102A3000840BBAF09150A1F0FF0FBB1F661F771FE8
:102A4000881FC2F70EC0BA0F621F731F841F48F49D
:102A5000879577956795B795F7959E3F08F0B3CF23
:102A60009395880F08F09927EE0F9795879508950D
:102A7000D9D008F481E008950CD00FC107D140F0FF
:102A8000FED030F021F45F3F19F0F0C0511139C190
:102A9000F3C014D198F39923C9F35523B1F3951BCF
:102AA000550BBB27AA2762177307840738F09F5F6F
:102AB0005F4F220F331F441FAA1FA9F333D00E2EDE
:102AC0003AF0E0E830D091505040E695001CCAF74B
:102AD00029D0FE2F27D0660F771F881FBB1F261710
:102AE00037074807AB07B0E809F0BB0B802DBF01E3
:102AF000FF2793585F4F2AF09E3F510568F0B6C0FC
:102B000000C15F3FECF3983EDCF3869577956795BF
:102B1000B795F7959F5FC9F7880F911D9695879593
:102B200097F90895E1E0660F771F881FBB1F6217B2
:102B300073078407BA0720F0621B730B840BBA0B70
:102B4000EE1F88F7E095089504D06894B111D9C0BC
:102B50000895BCD088F09F5790F0B92F9927B751AE
:102B6000A0F0D1F0660F771F881F991F1AF0BA9551
:102B7000C9F712C0B13081F0C3D0B1E00895C0C030
:102B8000672F782F8827B85F39F0B93FCCF3869547
:102B900077956795B395D9F73EF4909580957095A4
:102BA00061957F4F8F4F9F4F0895E89409C097FB21
:102BB0003EF490958095709561957F4F8F4F9F4F14
:102BC0009923A9F0F92F96E9BB279395F695879558
:102BD00077956795B795F111F8CFFAF4BB0F11F41B
:102BE00060FF1BC06F5F7F4F8F4F9F4F16C08823C2
:102BF00011F096E911C0772321F09EE8872F762FF8
:102C000005C0662371F096E8862F70E060E02AF038
:102C10009A95660F771F881FDAF7880F9695879524
:102C200097F90895990F0008550FAA0BE0E8FEEFF9
:102C300016161706E807F907C0F012161306E40780
:102C4000F50798F0621B730B840B950B39F40A2679
:102C500061F0232B242B252B21F408950A2609F457
:102C6000A140A6958FEF811D811D089597F99F675B
:102C700080E870E060E008959FEF80EC0895002404
:102C80000A941616170618060906089500240A94D1
:102C900012161306140605060895092E0394000C57
:102CA00011F4882352F0BB0F40F4BF2B11F460FFE6
:102CB00004C06F5F7F4F8F4F9F4F089557FD90580F
:102CC000440F551F59F05F3F71F04795880F97FBF0
:102CD000991F61F09F3F79F08795089512161306AA
:102CE0001406551FF2CF4695F1DF08C016161706D9
:102CF0001806991FF1CF869571056105089408950E
:102D0000E894BB2766277727CB0197F908958ADFD8
:102D100008F48FEF08950BD0C0CFB1DF28F0B6DFF5
:102D200018F0952309F0A2CFA7CF1124EACFC6DF70
:102D3000A0F3959FD1F3950F50E0551F629FF001CE
:102D4000729FBB27F00DB11D639FAA27F00DB11D27
:102D5000AA1F649F6627B00DA11D661F829F2227B0
:102D6000B00DA11D621F739FB00DA11D621F839F37
:102D7000A00D611D221F749F3327A00D611D231F0D
:102D8000849F600D211D822F762F6A2F11249F575B
:102D900050408AF0E1F088234AF0EE0FFF1FBB1F7E
:102DA000661F771F881F91505040A9F79E3F51051D
:102DB00070F05CCFA6CF5F3FECF3983EDCF38695D6
:102DC00077956795B795F795E7959F5FC1F7FE2BC8
:102DD000880F911D9695879597F9089523DF880BA5
:102DE000990B089597FB072E16F4009407D077FDF2
:102DF00009D00E94501707FC05D03EF490958195AC
:102E00009F4F0895709561957F4F0895A1E21A2E06
:102E1000AA1BBB1BFD010DC0AA1FBB1FEE1FFF1F7E
:102E2000A217B307E407F50720F0A21BB30BE40BCE
:102E3000F50B661F771F881F991F1A9469F7609515
:102E40007095809590959B01AC01BD01CF010895CF
:102E5000EE0FFF1F0590F491E02D0994A29FB001A1
:102E6000B39FC001A39F700D811D1124911DB29FBE
:102E7000700D811D1124911D08950E942E17A59F8C
:102E8000900DB49F900DA49F800D911D1124089565
:102E9000B7FF0C943D170E943D17821B930B0895BA
:102EA000AA1BBB1B51E107C0AA1FBB1FA617B70770
:102EB00010F0A61BB70B881F991F5A95A9F780958C
:0C2EC0009095BC01CD010895F894FFCF5F
:102ECC0001010100E1000000000000506F77657205
:102EDC00696E67207570205761676D616E2E2E2E9E
:102EEC0000506F77657220504F525420312077611B
:102EFC007320666F756E6420746F20626520696E36
:102F0C00204F46462073746174652E00506F7765B0
:102F1C007220504F525420312077617320666F75A8
:102F2C006E6420746F20626520696E204F4E207392
:102F3C00746174652E00526573657474696E6720D4
:102F4C00616C6C20706F77657220706F7274732077
:102F5C00746F204F46462073746174652E00537451
:102F6C00617274696E6720436865636B732E2E2ED5
:102F7C0000546865726D6973746F72204368656381
:102F8C006B732028616C6C2076616C756573207393
:102F9C00686F756C642062652030293A20004C699A
:102FAC006768742073656E736F7220636865636BFA
:102FBC00202873686F756C642062652061207661CF
:102FCC006C7565206265747765656E203020616E66
:102FDC00642031303233293A2000484254206C6945
:102FEC006E6B7320636865636B2028616C6C207654
:102FFC00616C7565732073686F756C6420626520F5
:10300C0030293A200043757272656E7420436865EE
:10301C00636B732028416C6C2076616C7565732032
:10302C006C657373207468616E20313330293A00FB
:10303C00506F776572696E67204F4E20616C6C2003
:10304C00506F7274733A00506F72747320506F77B4
:10305C006572204F4E20436865636B2028416C6C71
:10306C002076616C7565732073686F756C64206273
:10307C00652031303233293A00484254206C696E55
:10308C006B7320636865636B2028616C6C207661C0
:10309C006C7565732073686F756C64206265203184
:1030AC00293A200043757272656E7420436865631B
:1030BC006B73202846697273742076616C75652079
:1030CC0073686F756C6420626520696E2074686526
:1030DC0020726567696F6E206F66203137352C2042
:1030EC006F7468657273206C657373207468616E9D
:1030FC0020313330293A00506F776572696E672042
:10310C004F464620616C6C20506F7274732E2E2EBD
:10311C0000506F72747320506F776572204F464663
:10312C0020436865636B2028416C6C2076616C755C
:10313C0065732073686F756C642062652030293A62
:10314C000048545532312054656D70657261747548
:10315C00726520616E642048756D696469747920AC
:10316C00636865636B3A20002054656D706572610D
:10317C00747572653A0043002048756D6964697412
:10318C00793A0025005254432054696D65206368D8
:10319C0065636B3A202857652077696C6C207265E3
:1031AC006164207468652074696D652066726F6D4A
:1031BC00207468652052544320666F72203520635A
:1031CC006F6E7365637574697665207365636F6E76
:1031DC006473293A200053657474696E67207570A6
:1031EC0020504F52543120746F20504F574552206D
:1031FC004F4E2073746174652E2E2E00546865201A
:10320C00706F727420697320706F776572656420BB
:10321C004F4E2C20636F756E74696E6720646F77E8
:10322C006E20746F207265626F6F7420746F2063F0
:10323C006865636B206966207374617465206973BB
:10324C0020707265736572766564203A2000526551
:10325C00626F6F74696E672E2E2E0000000000DF07
:10326C0005B20587058F05A205B1051F1C1F1E1F82
:10327C001E1F1F1E1F1E1F0D0A006E616E00696E41
:10328C0066006F76660000000000B012CA0C2313B3
:10329C009113D91300000000F3133A141D142D14CC
:0432AC0009141A14D3
:00000001FF
