:100000000C94E7000C9418010C9418010C9418013E
:100010000C9418010C9418010C9418010C941801FC
:100020000C9418010C9418010C94660D0C94F80BA8
:100030000C9418010C9418010C9418010C941801DC
:100040000C9418010C9418010C9418010C941801CC
:100050000C9418010C9418010C9418010C949A0635
:100060000C9418010C9418010C9418010C941801AC
:100070000C9418010C9418010C9418010C9418019C
:100080000C9418010C9418010C9418010C9418018C
:100090000C946D050C9418010C9418010C94180123
:1000A0000C9418010C9418010C9418019D07A007DA
:1000B0008F0793079907C107C107C107A407A807BE
:1000C000AC07B207B607C107BC0700000002000971
:1000D0000F0000030401000C0000000000000000FD
:1000E0000000000000000000000408020110408031
:1000F000401020408040800802040180402010020F
:10010000011080102040402004040404040304056E
:1001100002020202040302020202060606060606A4
:100120000404020202040400000000250028002B41
:10013000002E00310000000000240027002A002DBE
:10014000003000080B000202020100090400000157
:10015000020200000524001001052401010104240D
:10016000020605240600010705810310004009046A
:100170000100020A00000007050202400000070516
:10018000830240000012010002EF020140412337C8
:100190008000010102030112010002000000404141
:1001A00023378000010102030141726475696E6F9B
:1001B000204C4C430041726475696E6F204D696339
:1001C000726F000403090400FB0183041809112461
:1001D0001FBECFEFDAE0DEBFCDBF14BE88E10FB6A1
:1001E000F89480936000109260000FBE11E0A0E0D0
:1001F000B1E0E4E4FEE102C005900D92A43DB10738
:10020000D9F723E0A4EDB1E001C01D92A131B207FE
:10021000E1F711E0CEECD1E004C02297FE010E948C
:10022000E60EC83CD107C9F70E94FF0D0C94200FC1
:100230000C94000061E08DE00E94C20761E089E05B
:100240000E94C20761E080E00E94C20761E081E095
:100250000E94C20761E084E00E94C20761E085E17C
:100260000E94C20761E086E00E94C20761E088E068
:100270000E94C20761E08AE00E94C20761E08CE050
:100280000E94C20760E085E00E94C20760E087E04C
:100290000E94C20760E086E10E94C20760E08BE036
:1002A0000E94C20760E087E10C94C20768EE73E029
:1002B00080E090E00E9407070E941A0168EE73E058
:1002C00080E090E00E94070740E052EC61E070E0BF
:1002D0008AEA92E00E94120981EE91E00E94F30303
:1002E00068EE73E080E090E00E94070760EA7FE03C
:1002F00080E090E00C9407071F93CF93DF9368EDA5
:1003000071E080EE91E00E94760263E171E08AEA9A
:1003100092E00E944B09C8EDD1E010E0699140E104
:1003200050E08AEA92E00E94C909173031F066E293
:1003300071E08AEA92E00E944B091F5F183071F762
:1003400067EC71E08AEA92E0DF91CF911F910C9403
:10035000510968E271E08AEA92E00E9451090E9424
:100360007C016DE471E08AEA92E00E944B090E94F0
:1003700055026093D4017093D5018093D601909378
:10038000D70168EE73E080E090E00E9407070E94CA
:1003900055020091D4011091D5012091D6013091E0
:1003A000D701601771078207930719F062E671E0C1
:1003B00002C068E671E08AEA92E00E9451096EE6A6
:1003C00071E08AEA92E00E94510961E070E080E009
:1003D00090E00E940707F9CFDC01ED91FC910190BC
:1003E000F081E02D0994982F92959F702AEF929FAB
:1003F000800D1124089581EE91E00C94F303CF93C6
:10040000DF93EC016FE670E081EE91E00E9407045B
:1004100060E081EE91E00E94B40381EE91E00E94E1
:10042000800481113EC047E050E06FE670E081EE4D
:1004300091E00E947D0481EE91E00E9464038F7739
:100440000E94F301888381EE91E00E9464030E9480
:10045000F301898381EE91E00E9464038F7B0E9407
:10046000F3018A8381EE91E00E946403877C8B8391
:1004700081EE91E00E9464030E94F3018C8381EE7F
:1004800091E00E9464038F7D0E94F3018D8381EED1
:1004900091E00E9464030E94F301825E8E8381E0FA
:1004A00001C080E0DF91CF910895CF93DF93CDB766
:1004B000DEB727970FB6F894DEBF0FBECDBFCE01D3
:1004C00001960E94FF01882329F0CE0101960E9427
:1004D000A10203C060E070E0CB0127960FB6F8944C
:1004E000DEBF0FBECDBFDF91CF9108950F931F9355
:1004F000CF93DF938B0167E570E081EE91E00E947E
:10050000070460EF70E081EE91E00E94EC0181EE63
:1005100091E00E94800448E050E067E570E081EEE1
:1005200091E00E947D04E80118E081EE91E00E94D4
:10053000640389931150C9F7DF91CF911F910F91F7
:1005400008956F927F928F929F92AF92BF92CF92B7
:10055000DF92EF92FF920F931F93CF93DF93FC01F3
:10056000C680AC2DB0E020E833E341EE51E00E94BC
:10057000F90E4B015C0122EB37E06D01C4E6D0E0DF
:1005800000E911E0C901825B97408C159D05DCF400
:10059000C90183709927892B99F4C901BE010E9472
:1005A000AE0E892B31F4C901B8010E94AE0E892B21
:1005B00039F480E8880E81E5981E81E0A81EB11C00
:1005C0002F5F3F4FDFCF6580712C8EE4C81A88EF14
:1005D000D80AC60164E670E00E94AE0E8C01C60126
:1005E00060E971E00E94AE0E7C01C1E0D0E083E0E2
:1005F000C822DD24C615D7052CF5C230D10589F4F3
:10060000C114D10471F40115110519F4E114F104B8
:1006100041F480E8880E8BE3981E86E2A81EB11C88
:100620000FC0DE01A856BE4FAC91B0E020E831E526
:1006300041E050E00E94F90E860E971EA81EB91EDA
:100640002196D8CF4181228130E0A0E1BEE00E9416
:10065000EA0E6B017C01242F30E0ACE3B0E00E9495
:10066000EA0EC60ED71EE81EF91E8081C80ED11CE8
:10067000E11CF11CA481B0E0119720E831E541E0D4
:1006800050E00E94040FC60ED71EE81EF91EC80CCB
:10069000D91CEA1CFB1CC701B601DF91CF911F9149
:1006A0000F91FF90EF90DF90CF90BF90AF909F9011
:1006B0008F907F906F9008958091110290E020912B
:1006C0001202821B91090895209112028091110259
:1006D000281750F4E22FF0E0ED5EFD4F808190E0AE
:1006E0002F5F2093120208958FEF9FEF0895E091FE
:1006F000120280911102E81730F4F0E0ED5EFD4F38
:10070000808190E008958FEF9FEF08950895CF9234
:10071000DF92EF92FF920F931F93CF93DF937C01B1
:10072000CB018A012091ED01222389F0EB016B01BD
:10073000C40ED51ECC15DD0569F06991D701ED9188
:10074000FC910190F081E02DC7010995F3CF642F52
:100750000E944405C801DF91CF911F910F91FF9036
:10076000EF90DF90CF900895CF93DF931F92CDB796
:10077000DEB769832091ED012223D1F02091EE01B3
:10078000203240F021E030E0FC013383228380E01E
:1007900090E015C08091EF01E82FF0E0E051FE4FAE
:1007A000998190838F5F8093EF018093EE0105C064
:1007B00061E0CE0101960E94440581E090E00F9037
:1007C000DF91CF910895FC011382128248EE53E02D
:1007D00060E070E0448355836683778389EA91E023
:1007E0009183808308951092120210921102109248
:1007F000EF011092EE010C94870481E08093ED01EB
:10080000609310021092EF011092EE0108950C9483
:10081000FD030F93062F21E04091EE0160EF71E0A0
:10082000809110020E94ED041092EF011092EE01EF
:100830001092ED010F9108958F929F92AF92BF9207
:10084000CF92DF92EF92FF920F931F93CF93DF939C
:10085000EC01F62ED42E48015901EE2019F10E9428
:10086000FD031E2D143008F013E01150B8F0E8819C
:10087000F98128E0129FB0011124A501940104C060
:1008800056954795379527956A95D2F7CA01B901CC
:100890000190F081E02DCE010995E7CF60E0CE0117
:1008A0000E9409044D2D413208F040E22C2D63E1F5
:1008B00072E08F2D0E94A504109212028093110203
:1008C000DF91CF911F910F91FF90EF90DF90CF902C
:1008D000BF90AF909F908F900895CF92EF920F931B
:1008E0001F93C22EE12C00E010E098010E941C042E
:1008F0001F910F91EF90CF90089521E00C946D041B
:1009000061E00C94090481EE91E00C94E3031092F1
:10091000A00281E080939E0210929D0261E082E03D
:100920000E94FB0761E083E00E94FB07E9EBF0E037
:1009300080818E7F808380818D7F808388E4809317
:10094000B80085E48093BC000895413208F043C0AC
:100950009091A0029111FCCF91E09093A00220937E
:100960009E022FEF2093330210927802240F2093DF
:10097000770290939F0290919F02880F892B80931A
:100980009F0280919D02813061F410929D028091BE
:100990009F028093BB008091BC0083FDF8CF85EC63
:1009A00001C085EE8093BC008091A0028130E1F30C
:1009B00080917802841710F44091780229E732E0A0
:1009C000FB01D9018A2F821B841718F48D91819322
:1009D000F9CF842F089580E008950F93413208F0F5
:1009E0004AC09091A0029111FCCF92E09093A00296
:1009F00000939E029FEF90933302109278024093EF
:100A00007702FB0169E772E0DB019A2F961B9417CE
:100A100018F491919D93F9CF10929F0290919F02AB
:100A2000880F892B80939F0280919D02813061F411
:100A300010929D0280919F028093BB008091BC0028
:100A400083FDF8CF85EC01C085EE8093BC002223A6
:100A500021F08091A0028230E1F3809133028F3F38
:100A600061F080913302803251F080913302803303
:100A700041F483E007C081E005C080E003C082E06C
:100A800001C084E00F910895613298F42091A00292
:100A9000243089F460935502FC0187E592E0DC0183
:100AA0002A2F281B261718F421912D93F9CF80E0C7
:100AB000089581E0089582E0089585ED8093BC005B
:100AC0008091BC0084FDFCCF1092A002089585ECBB
:100AD0008093BC001092A00208951F920F920FB64F
:100AE0000F9211242F933F934F935F936F937F93B4
:100AF0008F939F93AF93BF93EF93FF938091B90030
:100B0000887F803609F49EC078F5883209F45DC08C
:100B100090F4803109F456C038F4882309F4F5C004
:100B2000883009F44FC0F5C0883109F44EC08032D6
:100B300009F45FC0EEC0803409F46AC058F4803311
:100B400009F457C0883309F0E4C0809333020E944F
:100B50006705DFC0803509F44FC0883509F45DC0F2
:100B6000883409F0D6C0D3C0883909F4C4C0A8F4C9
:100B7000883709F467C038F4883609F463C08037D1
:100B800009F460C0C6C0883809F4B5C0803909F4DA
:100B90005FC0803809F0BDC05BC0803B09F483C0F2
:100BA00038F4803A09F466C0883A09F47CC0B1C0D0
:100BB000803C09F4A4C0883C09F4A1C0883B09F436
:100BC00087C0A7C080919F0210C090917802809149
:100BD0007702981770F5E091780281E08E0F80938C
:100BE0007802F0E0E758FD4F80818093BB0085ECF0
:100BF00083C0809333028BC0E091780281E08E0F36
:100C0000809378028091BB00F0E0E758FD4F80832D
:100C100090917802809177026BC0E091780281E038
:100C20008E0F809378028091BB00F0E0E758FD4F73
:100C3000808380919E0281116AC081E080939D0231
:100C400084EA5EC083E08093A00210923402CFCF8A
:100C500080913402803208F04EC0E091340281E08D
:100C60008E0F809334028091BB00F0E0EB5CFD4F6F
:100C70008083BDCF0E94670580913402803230F4BA
:100C8000E0913402F0E0EB5CFD4F108260913402A1
:100C900070E0E0919902F0919A0285E392E0099563
:100CA0001092340236C084E08093A0021092560263
:100CB00010925502E0919B02F0919C02099580915F
:100CC0005502811105C081E08093550210925702B0
:100CD000E091560281E08E0F80935602F0E0E95ACF
:100CE000FD4F80818093BB00909156028091550208
:100CF000981708F47CCF85E88093BC000AC085EC87
:100D00008093BC001092A00204C0109233020E9493
:100D10005D05FF91EF91BF91AF919F918F917F9171
:100D20006F915F914F913F912F910F900FBE0F9058
:100D30001F9018951F920F920FB60F9211242F93A8
:100D40003F938F939F93AF93BF938091A202909113
:100D5000A302A091A402B091A5023091A10223E0C8
:100D6000230F2D3720F40196A11DB11D05C026E8E3
:100D7000230F0296A11DB11D2093A1028093A20210
:100D80009093A302A093A402B093A5028091A6021F
:100D90009091A702A091A802B091A9020196A11D6D
:100DA000B11D8093A6029093A702A093A802B093CE
:100DB000A902BF91AF919F918F913F912F910F9079
:100DC0000FBE0F901F9018953FB7F8948091A60220
:100DD0009091A702A091A802B091A90226B5A89B64
:100DE00005C02F3F19F00196A11DB11D3FBF662719
:100DF000782F892F9A2F620F711D811D911D42E05E
:100E0000660F771F881F991F4A95D1F70895CF92D3
:100E1000DF92EF92FF92CF93DF936B017C010E94F0
:100E2000E406EB01C114D104E104F10489F00E944D
:100E3000120E0E94E4066C1B7D0B683E734090F31B
:100E400081E0C81AD108E108F108C851DC4FEACFA7
:100E5000DF91CF91FF90EF90DF90CF90089578943D
:100E600084B5826084BD84B5816084BD85B58260AF
:100E700085BD85B5816085BDEEE6F0E0808181604D
:100E80008083E1E8F0E0108280818260808380814D
:100E900081608083E0E8F0E0808181608083E1E927
:100EA000F0E0808182608083808181608083E0E9DE
:100EB000F0E0808181608083E1ECF0E080818460FB
:100EC0008083808182608083808181608083E3EC85
:100ED000F0E0808181608083E0ECF0E080818260DE
:100EE0008083E2ECF0E0808181608083EAE7F0E0DB
:100EF0008081846080838081826080838081816042
:100F00008083808180688083089590E0FC01319720
:100F1000EF30F105B0F5EA5AFF4F0C94E40E8091E2
:100F200080008F7703C0809180008F7D8093800048
:100F3000089580918000877FF9CF84B58F7702C0B4
:100F400084B58F7D84BD0895809190008F7707C010
:100F5000809190008F7D03C080919000877F809367
:100F6000900008958091C0008F7703C08091C000E9
:100F70008F7D8093C00008958091C200877F809309
:100F8000C2000895CF93DF9390E0FC01E751FF4F3B
:100F90002491FC01E85FFE4F8491882349F190E0A1
:100FA000880F991FFC01EB5CFE4FA591B491895D00
:100FB0009E4FFC01C591D4919FB7611108C0F89470
:100FC0008C91209582238C93888182230AC0623081
:100FD00051F4F8948C91322F309583238C9388812F
:100FE000822B888304C0F8948C91822B8C939FBFB2
:100FF000DF91CF9108950F931F93CF93DF931F92AB
:10100000CDB7DEB7282F30E0F901E653FF4F8491CA
:10101000F901E751FF4F1491F901E85FFE4F049188
:101020000023C9F0882321F069830E948507698124
:10103000E02FF0E0EE0FFF1FE95DFE4FA591B491A8
:101040009FB7F8948C91611103C01095812301C062
:10105000812B8C939FBF0F90DF91CF911F910F91A8
:101060000895CF93DF931F92CDB7DEB76983DC017C
:10107000ED91FC910280F381E02D41E050E0BE0152
:101080006F5F7F4F09950F90DF91CF910895CF93B8
:10109000DF93EC018C859D8597FF05C082E00E945F
:1010A000E10A9D878C878C859D85DF91CF9108957E
:1010B00083E00C945C0DFC018485958597FD06C04A
:1010C00082E00E94890A90E00196089582E00E94E1
:1010D000890A90E00895FC018485958597FD05C0F7
:1010E0002FEF3FEF35872487089582E00C94E10AC3
:1010F000CF93DF93EC0180910B01882331F083E0E3
:101100000E94120B1816190634F081E090E09B83C0
:101110008A8380E090E0DF91CF910895FC012081E7
:101120002E5F208342E450E063E471E080E80C9499
:10113000AD0BFC0121818081813A59F4213209F003
:101140005CC047E050E064E071E080E00E94AD0BDD
:1011500067C0813209F051C0233289F4838190E065
:10116000982F88273281832BA0E0B0E08093000184
:1011700090930101A0930201B09303010FC02032AC
:1011800039F467E070E084E091E00E94DE0B0AC071
:10119000223221F4828180930B0104C02D7F203202
:1011A00009F03EC08091040190910501A0910601D3
:1011B000B0910701803B9440A105B10501F58091F4
:1011C0000B0180FD1CC08091000890910108909354
:1011D000FF0A8093FE0A87E797E7909301088093C0
:1011E00000082BE088E190E00FB6F894A895809372
:1011F00060000FBE2093600013C080E0089588E176
:101200000FB6F89480936000109260000FBEA8950E
:101210008091FE0A9091FF0A909301088093000844
:1012200081E008952FEF3FEFFC0135872487089573
:101230001092AD021092AC0288EE93E0A0E0B0E014
:101240008093AE029093AF02A093B002B093B1022C
:1012500089EB91E09093AB028093AA028FEF9FEF0E
:101260009093B7028093B60208956115710581F0DD
:10127000DB010D900020E9F7AD0141505109461BFB
:10128000570BDC01ED91FC910280F381E02D099474
:1012900080E090E008950C94350965EC71E00C94C1
:1012A00035090F931F93CF93DF93EC010E9435090B
:1012B0008C01CE010E944D09800F911FDF91CF91CB
:1012C0001F910F9108958F929F92AF92BF92CF92EC
:1012D000DF92EF92FF920F931F93CF93DF93CDB7DF
:1012E000DEB7A1970FB6F894DEBF0FBECDBF7C016D
:1012F000C42EE52FCB01D22E19A221E02D1510F01E
:101300002AE0D22E8E010F5D1F4F8D2C912CA12C27
:10131000B12C6C2D7E2FA50194010E94C20E8C2D44
:10132000D29E80191124015011098A3014F4805D75
:1013300001C0895CF8018083211531054105510503
:1013400021F0C22EE32FCA01E4CFB801C7010E94E9
:101350003509A1960FB6F894DEBF0FBECDBFDF9161
:10136000CF911F910F91FF90EF90DF90CF90BF90A2
:10137000AF909F908F9008952115310541F4DC01C5
:10138000ED91FC910190F081E02D642F09940C9473
:1013900063099A01462F50E060E070E00C94BC09AC
:1013A000615030F02091F100FC0120830196F8CFCC
:1013B000289A84E68093030308954091FE02509199
:1013C000FF022091FC023091FD0242175307B4F452
:1013D0009091E8009570E1F39091E80092FD19C0BA
:1013E0008093F1008091FE029091FF0201968F732D
:1013F0009927892B19F48EEF8093E8008091FE02E3
:101400009091FF0201969093FF028093FE0281E08B
:10141000089580E00895CF92DF92EF92FF920F93AC
:101420001F93CF93DF931F92CDB7DEB7082F162FF0
:10143000F42E862F880F8E5F99830E94DD0983E04A
:101440000E94DD09E02EC02E9981D92E8C2D8E1997
:10145000811798F4F601F7FE02C0849101C08081E3
:101460000E94DD09082F80E00E94DD098023FFEF44
:10147000CF1ADF0A8111EACF01C081E00F90DF911E
:10148000CF911F910F91FF90EF90DF90CF90089533
:101490008091D70081608093D70080EA8093D80044
:1014A00089B5806189BD89B5826089BD09B400FEB6
:1014B000FDCF61E070E080E090E00E94070780913E
:1014C000D8008F7C80618093D8008091E000807F7D
:1014D0008093E0000895CF93DF931F92CDB7DEB7DE
:1014E0001982CE0101960E948E080E949A0EBE01BA
:1014F0006F5F7F4F0E94130E89810F90DF91CF9114
:1015000008952FB7FC012083F89467706093E90079
:101510000895CF93DF931F92CDB7DEB7682FCE012A
:1015200001960E94810A8091F20099819FBF0F90DD
:10153000DF91CF910895FF920F931F93CF93DF9385
:1015400000D0CDB7DEB7F62E8A0190910203992321
:1015500011F057FF03C08FEF9FEF2BC0682FCE0114
:1015600001967A830E94810A8091F20090E0A8019E
:101570007A81801791070CF4AC01EF2DF72FF40E50
:1015800084E6FE1639F0289A809303039091F100C7
:101590009193F7CF4115510521F08091F2008823F6
:1015A00021F089818FBFCA0104C08BE68093E800D7
:1015B000F8CF0F900F90DF91CF911F910F91FF9077
:1015C0000895CF93DF931F92CDB7DEB741E050E08F
:1015D000BE016F5F7F4F0E949B0A019719F48981BA
:1015E00090E002C08FEF9FEF0F90DF91CF910895B1
:1015F000CF93DF931F92CDB7DEB7682FCE01019650
:101600000E94810A9091E800892F807295FF04C0A2
:101610009091F20080E4891B99819FBF0F90DF9128
:10162000CF9108956F927F928F929F92AF92BF92C7
:10163000CF92DF92EF92FF920F931F93CF93DF939E
:101640001F92CDB7DEB7782E7B01C42EB52E8091C8
:101650000203882369F0042F152F8AEFD82E872DD7
:101660008072982E9AE3A92E872D8074882E11C03F
:101670008FEF9FEF57C0872D0E94F80A682E8111C7
:101680000CC0DA94A9F361E070E080E090E00E9481
:1016900007070115110579F73BC0282F30E0021725
:1016A00013070CF4602E672DCE0101960E94810A6B
:1016B0008091E80085FF29C0262D30E0021B130B26
:1016C000992039F06A948FEF6816B1F01092F1000A
:1016D000F9CFF701862D77FE07C0815058F094911D
:1016E0009093F1003196F9CF815020F09191909331
:1016F000F100FACFE20EF31E8091E80085FF0FC0E3
:101700000115110511F481100AC089818FBFC1CF65
:101710005D9A84E6809304038C2D9B2D03C0A092D8
:10172000E800F3CF0F90DF91CF911F910F91FF90C1
:10173000EF90DF90CF90BF90AF909F908F907F9071
:101740006F9008951092E9001092FF021092FE022D
:101750009093FD028093FC020895CF92DF92FF9256
:101760000F931F93CF93DF9300D0CDB7DEB7F82E42
:101770008A016B0101151105B1F0F601F7FE02C0F7
:10178000849101C0808149835A830E94DD09015000
:101790001109FFEFCF1ADF0A49815A818111EACF7F
:1017A0008FEF9FEF01C0CA010F900F90DF91CF9193
:1017B0001F910F91FF90DF90CF9008951F93CF93CB
:1017C000DF931F92CDB7DEB7162F2091E80022FFDE
:1017D000FCCF612F79830E94D0098BEF8093E800C2
:1017E000812F7981972F0F90DF91CF911F910895CD
:1017F0001F920F920FB60F921124DF92EF92FF9279
:101800000F931F932F933F934F935F936F937F9308
:101810008F939F93AF93BF93EF93FF93CF93DF93F8
:10182000CDB7DEB76C97DEBFCDBF1092E9008091D7
:10183000E80083FF23C168E0CE0145960E94D009ED
:1018400082EF8093E8003D8937FF05C08091E80072
:1018500080FFFCCF03C08EEF8093E800832F80765B
:1018600009F0F0C02E894F89D88C21110CC0303876
:1018700029F4809101038093F10002C01092F100DD
:101880001092F100F4C0842F90E09D29213049F49A
:101890003111EDC0019709F0EAC0809101038D7FFD
:1018A0000AC0233059F43111E2C0019709F0DFC0BA
:1018B00080910103826080930103D9C0253041F4F7
:1018C0008091E80080FFFCCF40684093E300CFC0E8
:1018D000263009F08DC0EB8CFC8C22E0D2122CC09B
:1018E00080E090E00E94A20B0E946B0A99E08E01BA
:1018F0000F5F1F4FF801292F11922A95E9F799835D
:10190000DA8291E09E8390EA98879AEF99872091F6
:10191000FE023091FF02275F3F4F3C832B838D8374
:10192000C7010E94A20B49E050E0B80180E00E948C
:10193000AD0B0E946B0A9BC0C7010E94A20B0E94C4
:101940009A0EBE016B5E7F4F0E943C0E009719F00D
:101950000CF08DC090C081E0D8120EC08B8D9C8D94
:10196000089719F481E08093FB028091FB028111BA
:101970002FC067E971E031C0E3E0DE127CC08F89DF
:10198000882349F1823029F440E86DE085EB91E04D
:101990001CC0813029F440E86BE089EA91E015C071
:1019A000833009F068C00E949A0E8E010F5F1F4FAE
:1019B000B8010E945B0EF80101900020E9F7319711
:1019C000E01BF10B40E06E2FC8010E940B0A4DC0D6
:1019D00065E871E002C063EC71E06115710509F41E
:1019E0004AC0FB01449150E080E80E94AD0B3FC02B
:1019F000273009F440C0283021F481E08093F100C1
:101A000036C02930A1F53370B1F5EDE0F1E081E0A9
:101A100021E036E39081992361F08093E9002093DF
:101A2000EB0091919093EC003093ED008F5F873045
:101A300089F78EE78093EA001092EA008F898093FD
:101A4000020315C08B8D9C8D0E94A20B898D811184
:101A500005C0CE0145960E94990807C00E949A0EC3
:101A6000BE016B5E7F4F0E947A0E882321F08EEFBD
:101A70008093E80003C081E28093EB006C960FB680
:101A8000F894DEBF0FBECDBFDF91CF91FF91EF91F4
:101A9000BF91AF919F918F917F916F915F914F9186
:101AA0003F912F911F910F91FF90EF90DF900F903A
:101AB0000FBE0F901F9018958093E9008091F2005F
:101AC000882319F08AE38093E80008951F920F920B
:101AD0000FB60F9211242F933F934F935F936F9301
:101AE0007F938F939F93AF93BF93CF93EF93FF9386
:101AF000C091E1008091E100837F8093E1008093B9
:101B0000E100C3FF0FC01092E90081E08093EB0079
:101B10001092EC0082E38093ED001092020388E0C3
:101B20008093F000C2FF19C083E00E945C0D809199
:101B30000403882339F080910403815080930403C7
:101B4000882389F180910303882339F0809103036E
:101B5000815080930303882341F1C4FF10C080911A
:101B6000E2008E7E81608093E2008091E1008F7EB2
:101B70008093E100809100038E7E806111C0C0FFE0
:101B800016C08091E2008E7E80618093E200809199
:101B9000E1008E7E8093E100809100038E7E816063
:101BA0008093000304C05D98CDCF2898D6CFFF91D5
:101BB000EF91CF91BF91AF919F918F917F916F9155
:101BC0005F914F913F912F910F900FBE0F901F90FB
:101BD00018951092020310920103109200030E94C4
:101BE000480AE1EEF0E080818E7E80838DE0809374
:101BF000E200559A209A5D982898089508950E94C9
:101C00002F070E94FE0D8AEF92E00E94E90D0E94CC
:101C10005601C0E0D0E00E94A9012097E1F30E94A4
:101C20000000F9CF0895EF92FF920F931F93CF9387
:101C3000DF937B01FC01C281D38100E010E020979B
:101C400081F0E881F9810280F381E02DB701CE01B6
:101C5000099597FD08C0080F191F0884D985C02D64
:101C6000EECFC80102C08FEF9FEFDF91CF911F91A0
:101C70000F91FF90EF9008950F931F93CF93DF93F1
:101C80008B01FC01C281D381209771F0E881F98139
:101C90000480F581E02DB801CE010995009731F45B
:101CA0000884D985C02DF0CF80E090E0DF91CF91FE
:101CB0001F910F9108950F931F93CF93DF938B0183
:101CC000FC01C281D381209771F0E881F9810680FF
:101CD000F781E02DB801CE010995080F111D088488
:101CE000D985C02DF0CFF8011082DF91CF911F91DF
:101CF0000F9108950F931F93CF93DF938B01FC01F6
:101D0000C281D381209771F0E881F9810190F0813F
:101D1000E02DB801CE010995811106C00884D9854E
:101D2000C02DF0CF80E001C081E0DF91CF911F9105
:101D30000F9108958091090381110DC082E0809375
:101D4000050384E0809306031092080310920703B2
:101D500081E08093090385E093E0089597FB072EC7
:101D600016F4009407D077FD09D00E940C0F07FCF1
:101D700005D03EF4909581959F4F0895709561959B
:101D80007F4F0895A1E21A2EAA1BBB1BFD010DC0B7
:101D9000AA1FBB1FEE1FFF1FA217B307E407F5071B
:101DA00020F0A21BB30BE40BF50B661F771F881FF7
:101DB000991F1A9469F760957095809590959B018D
:101DC000AC01BD01CF010895EE0FFF1F0590F49106
:101DD000E02D0994A29FB001B39FC001A39F700D95
:101DE000811D1124911DB29F700D811D1124911D23
:101DF00008950E94EA0EA59F900DB49F900DA49F98
:101E0000800D911D11240895B7FF0C94F90E0E94C6
:101E1000F90E821B930B0895AA1BBB1B51E107C04F
:101E2000AA1FBB1FA617B70710F0A61BB70B881F6A
:101E3000991F5A95A9F780959095BC01CD010895F9
:041E4000F894FFCF44
:101E4400FFFFFFFF00E100000000000000C18081EF
:101E5400000000556E6971756520426F61726420DF
:101E64004944202320003A002D2D2D2D2D2D57617E
:101E7400676D616E205254432054696D656B6565CE
:101E84007020546573742D2D2D2D2D2D00312E2091
:101E94005761676D616E2052544320546573743AE0
:101EA4002000504153532E004641494C2E002D2D05
:101EB4002D2D2D2D456E64206F6620626F61726436
:101EC40020746573742D2D2D2D2D2D0045706F6399
:101ED400682054696D653A20001F1C1F1E1F1E1FB9
:101EE4001F1E1F1E1F00000000B40387035C036451
:101EF400037703860300000000310878085B086B51
:101F040008470858080D0A006E616E00696E660085
:041F14006F7666007E
:00000001FF
